{
  "_format": "hh-sol-artifact-1",
  "contractName": "SiweAuth",
  "sourceName": "@oasisprotocol/sapphire-contracts/contracts/auth/SiweAuth.sol",
  "abi": [
    {
      "inputs": [
        {
          "internalType": "string",
          "name": "inDomain",
          "type": "string"
        }
      ],
      "stateMutability": "nonpayable",
      "type": "constructor"
    },
    {
      "inputs": [],
      "name": "A13e_RevokedAuthToken",
      "type": "error"
    },
    {
      "inputs": [],
      "name": "SiweAuth_AddressMismatch",
      "type": "error"
    },
    {
      "inputs": [],
      "name": "SiweAuth_ChainIdMismatch",
      "type": "error"
    },
    {
      "inputs": [],
      "name": "SiweAuth_DomainMismatch",
      "type": "error"
    },
    {
      "inputs": [],
      "name": "SiweAuth_Expired",
      "type": "error"
    },
    {
      "inputs": [],
      "name": "SiweAuth_NotBeforeInFuture",
      "type": "error"
    },
    {
      "inputs": [],
      "name": "SiweParser_InvalidAddressLength",
      "type": "error"
    },
    {
      "inputs": [],
      "name": "SiweParser_InvalidNonce",
      "type": "error"
    },
    {
      "inputs": [],
      "name": "domain",
      "outputs": [
        {
          "internalType": "string",
          "name": "",
          "type": "string"
        }
      ],
      "stateMutability": "view",
      "type": "function"
    },
    {
      "inputs": [
        {
          "internalType": "string",
          "name": "siweMsg",
          "type": "string"
        },
        {
          "components": [
            {
              "internalType": "bytes32",
              "name": "r",
              "type": "bytes32"
            },
            {
              "internalType": "bytes32",
              "name": "s",
              "type": "bytes32"
            },
            {
              "internalType": "uint256",
              "name": "v",
              "type": "uint256"
            }
          ],
          "internalType": "struct SignatureRSV",
          "name": "sig",
          "type": "tuple"
        }
      ],
      "name": "login",
      "outputs": [
        {
          "internalType": "bytes",
          "name": "",
          "type": "bytes"
        }
      ],
      "stateMutability": "view",
      "type": "function"
    }
  ],
  "bytecode": "0x608060405234801561001057600080fd5b5060405161225c38038061225c83398101604081905261002f91610196565b61004f60206040518060200160405280600081525061006e60201b60201c565b61005890610248565b600255600161006782826102f2565b5050610406565b60606000807301000000000000000000000000000000000000016001600160a01b031685856040516020016100a49291906103b0565b60408051601f19818403018152908290526100be916103ea565b600060405180830381855afa9150503d80600081146100f9576040519150601f19603f3d011682016040523d82523d6000602084013e6100fe565b606091505b5091509150816101545760405162461bcd60e51b815260206004820152601360248201527f72616e646f6d42797465733a206661696c656400000000000000000000000000604482015260640160405180910390fd5b949350505050565b634e487b7160e01b600052604160045260246000fd5b60005b8381101561018d578181015183820152602001610175565b50506000910152565b6000602082840312156101a857600080fd5b81516001600160401b038111156101be57600080fd5b8201601f810184136101cf57600080fd5b80516001600160401b038111156101e8576101e861015c565b604051601f8201601f19908116603f011681016001600160401b03811182821017156102165761021661015c565b60405281815282820160200186101561022e57600080fd5b61023f826020830160208601610172565b95945050505050565b80516020808301519190811015610269576000198160200360031b1b821691505b50919050565b600181811c9082168061028357607f821691505b60208210810361026957634e487b7160e01b600052602260045260246000fd5b601f8211156102ed57806000526020600020601f840160051c810160208510156102ca5750805b601f840160051c820191505b818110156102ea57600081556001016102d6565b50505b505050565b81516001600160401b0381111561030b5761030b61015c565b61031f81610319845461026f565b846102a3565b6020601f821160018114610353576000831561033b5750848201515b600019600385901b1c1916600184901b1784556102ea565b600084815260208120601f198516915b828110156103835787850151825560209485019460019092019101610363565b50848210156103a15786840151600019600387901b60f8161c191681555b50505050600190811b01905550565b82815260406020820152600082518060408401526103d5816060850160208701610172565b601f01601f1916919091016060019392505050565b600082516103fc818460208701610172565b9190910192915050565b611e47806104156000396000f3fe608060405234801561001057600080fd5b50600436106100365760003560e01c80637f476b6f1461003b578063c2fb26a614610064575b600080fd5b61004e6100493660046118da565b61006c565b60405161005b91906119bb565b60405180910390f35b61004e61041d565b60606100a96040518060a001604052806060815260200160006001600160a01b031681526020016000815260200160608152602001606081525090565b60006100b4856104af565b86866040516020016100c8939291906119d5565b60408051601f19818403018152828252805160208083019190912060008086528583018086529190915260ff89850135169385019390935287356060850152870135608084015292509060019060a0016020604051602081039080840390855afa15801561013a573d6000803e3d6000fd5b5050604051601f1901516001600160a01b0381166020860152915060009050610163888861054f565b9050468160a00151146101a2576040517f362c833700000000000000000000000000000000000000000000000000000000815260040160405180910390fd5b60016040516101b19190611a63565b6040518091039020816000015180519060200120146101fc576040517f283d62bd00000000000000000000000000000000000000000000000000000000815260040160405180910390fd5b8051845260208101516001600160a01b03838116911614610249576040517f05cc02e100000000000000000000000000000000000000000000000000000000815260040160405180910390fd5b610120810151511580159061026b5750610267816101200151610b40565b4211155b156102a2576040517f299d02f100000000000000000000000000000000000000000000000000000000815260040160405180910390fd5b61010081015151156102c95760006102be826101000151610b40565b6040860152506102dc565b6102d66201518042611b18565b60408501525b83604001514210610319576040517fb171155000000000000000000000000000000000000000000000000000000000815260040160405180910390fd5b604081015160608501526101608101515167ffffffffffffffff81111561034257610342611b2b565b60405190808252806020026020018201604052801561037557816020015b60608152602001906001900390816103605790505b50608085015260005b816101600151518110156103d45781610160015181815181106103a3576103a3611b41565b6020026020010151856080015182815181106103c1576103c1611b41565b602090810291909101015260010161037e565b5060006104106002546000801b876040516020016103f29190611b57565b60408051601f19818403018152602083019091526000825290610baf565b9998505050505050505050565b60606001805461042c90611a29565b80601f016020809104026020016040519081016040528092919081815260200182805461045890611a29565b80156104a55780601f1061047a576101008083540402835291602001916104a5565b820191906000526020600020905b81548152906001019060200180831161048857829003601f168201915b5050505050905090565b606060006104bc83610cbd565b600101905060008167ffffffffffffffff8111156104dc576104dc611b2b565b6040519080825280601f01601f191660200182016040528015610506576020820181803683370190505b5090508181016020015b600019017f3031323334353637383961626364656600000000000000000000000000000000600a86061a8153600a850494508461051057509392505050565b6105bc6040518061018001604052806060815260200160006001600160a01b03168152602001606081526020016060815260200160608152602001600081526020016060815260200160608152602001606081526020016060815260200160608152602001606081525090565b6106296040518061018001604052806060815260200160006001600160a01b03168152602001606081526020016060815260200160608152602001600081526020016060815260200160608152602001606081526020016060815260200160608152602001606081525090565b60005b838110156106b05784848281811061064657610646611b41565b909101356001600160f81b031916600160fd1b0390506106a8576106a185858080601f01602080910402602001604051908101604052809392919081815260200183838082843760009201829052509250859150610d9f9050565b82526106b0565b60010161062c565b6106bb603282611b18565b905061072261071d86868080601f016020809104026020016040519081016040528093929190818152602001838380828437600092019190915250610707925060029150869050611b18565b935083610715602882611b18565b945084610d9f565b610e76565b6001600160a01b0316602083015261073b600282611b18565b90508381108015610775575084848281811061075957610759611b41565b9050013560f81c60f81b6001600160f81b031916600560f91b14155b1561081457805b848110156108125785858281811061079657610796611b41565b909101356001600160f81b031916600560f91b03905061080a576107f386868080601f016020809104026020016040519081016040528093929190818152602001838380828437600092019190915250869250859150610d9f9050565b6040840152610803816001611b18565b9150610812565b60010161077c565b505b8061081e81611c30565b91505061086285856040518060400160405280600381526020017f555249000000000000000000000000000000000000000000000000000000000081525084610fc3565b8360600181935082905250506108af85856040518060400160405280600781526020017f56657273696f6e0000000000000000000000000000000000000000000000000081525084610fc3565b83608001819350829052505060606108fe86866040518060400160405280600881526020017f436861696e20494400000000000000000000000000000000000000000000000081525085610fc3565b9250905061090b816111df565b60a084015260408051808201909152600581527f4e6f6e63650000000000000000000000000000000000000000000000000000006020820152610952908790879085610fc3565b60c08501829052905190925060081115610998576040517fb4bc030c00000000000000000000000000000000000000000000000000000000815260040160405180910390fd5b6109d986866040518060400160405280600981526020017f497373756564204174000000000000000000000000000000000000000000000081525085610fc3565b8460e0018194508290525050610a2686866040518060400160405280600f81526020017f45787069726174696f6e2054696d65000000000000000000000000000000000081525085610fc3565b84610100018194508290525050610a7486866040518060400160405280600a81526020017f4e6f74204265666f72650000000000000000000000000000000000000000000081525085610fc3565b84610120018194508290525050610ac286866040518060400160405280600a81526020017f526571756573742049440000000000000000000000000000000000000000000081525085610fc3565b846101400181945082905250506000610b1287876040518060400160405280600981526020017f5265736f7572636573000000000000000000000000000000000000000000000081525086610fc3565b915050828114610b3357610b27878783611239565b61016086019190915292505b5091925050505b92915050565b6000610b3a610b5a610b558460006004610d9f565b6111df565b610b6a610b558560056007610d9f565b610b7a610b55866008600a610d9f565b610b8a610b5587600b600d610d9f565b610b9a610b5588600e6010610d9f565b610baa610b558960116013610d9f565b61152a565b60606000807301000000000000000000000000000000000000036001600160a01b031687878787604051602001610be99493929190611c49565b60408051601f1981840301815290829052610c0391611c85565b600060405180830381855afa9150503d8060008114610c3e576040519150601f19603f3d011682016040523d82523d6000602084013e610c43565b606091505b509150915081610cb3576040517f08c379a000000000000000000000000000000000000000000000000000000000815260206004820152600f60248201527f656e63727970743a206661696c65640000000000000000000000000000000000604482015260640160405180910390fd5b9695505050505050565b6000807a184f03e93ff9f4daa797ed6e38ed64bf6a1f0100000000000000008310610d06577a184f03e93ff9f4daa797ed6e38ed64bf6a1f010000000000000000830492506040015b6d04ee2d6d415b85acef81000000008310610d32576d04ee2d6d415b85acef8100000000830492506020015b662386f26fc100008310610d5057662386f26fc10000830492506010015b6305f5e1008310610d68576305f5e100830492506008015b6127108310610d7c57612710830492506004015b60648310610d8e576064830492506002015b600a8310610b3a5760010192915050565b60606000610dad8484611ca1565b67ffffffffffffffff811115610dc557610dc5611b2b565b6040519080825280601f01601f191660200182016040528015610def576020820181803683370190505b509050835b8381108015610e035750855181105b15610e6d57858181518110610e1a57610e1a611b41565b01602001516001600160f81b03191682610e348784611ca1565b81518110610e4457610e44611b41565b60200101906001600160f81b031916908160001a90535080610e6581611c30565b915050610df4565b50949350505050565b60008151602814610eb3576040517facf8696900000000000000000000000000000000000000000000000000000000815260040160405180910390fd5b600060028351610ec39190611cb4565b67ffffffffffffffff811115610edb57610edb611b2b565b6040519080825280601f01601f191660200182016040528015610f05576020820181803683370190505b50905060005b60028451610f199190611cb4565b811015610faf57610f5784610f2f836002611cc8565b610f3a906001611b18565b81518110610f4a57610f4a611b41565b016020015160f81c6116d0565b610f6685610f3a846002611cc8565b610f71906010611cdf565b610f7b9190611cfb565b60f81b828281518110610f9057610f90611b41565b60200101906001600160f81b031916908160001a905350600101610f0b565b50610fb981611d14565b60601c9392505050565b60606000825b858110156110fa57868682818110610fe357610fe3611b41565b909101356001600160f81b0319167f3a000000000000000000000000000000000000000000000000000000000000000390506110e857848051906020012061106488888080601f016020809104026020016040519081016040528093929190818152602001838380828437600092019190915250899250869150610d9f9050565b80519060200120146110895750506040805160208101909152600081529050816111d6565b8061109381611c30565b91505085811080156110cd57508686828181106110b2576110b2611b41565b9050013560f81c60f81b6001600160f81b031916600160fd1b145b156110e057806110dc81611c30565b9150505b8093506110fa565b806110f281611c30565b915050610fc9565b8581101561118e5786868281811061111457611114611b41565b909101356001600160f81b031916600560f91b0390506111865761117187878080601f016020809104026020016040519081016040528093929190818152602001838380828437600092019190915250889250859150610d9f9050565b61117c826001611b18565b92509250506111d6565b6001016110fa565b6111d187878080601f016020809104026020016040519081016040528093929190818152602001838380828437600092019190915250889250859150610d9f9050565b925090505b94509492505050565b600080805b835181101561123257603084828151811061120157611201611b41565b0160200151611213919060f81c611ca1565b61121e83600a611cc8565b6112289190611b18565b91506001016111e4565b5092915050565b6060600082815b61124b600187611ca1565b8210156113465786868381811061126457611264611b41565b9050013560f81c60f81b6001600160f81b031916602d60f81b1480156112bc57508686611292846001611b18565b8181106112a1576112a1611b41565b9050013560f81c60f81b6001600160f81b031916600160fd1b145b156112e0576112cc600283611b18565b9150806112d881611c30565b9150506112e5565b611346565b858210801561131d575086868381811061130157611301611b41565b9050013560f81c60f81b6001600160f81b031916600a60f81b14155b15611334578161132c81611c30565b9250506112e5565b8161133e81611c30565b925050611240565b60008167ffffffffffffffff81111561136157611361611b2b565b60405190808252806020026020018201604052801561139457816020015b606081526020019060019003908161137f5790505b50905085925060005b6113a8600189611ca1565b841080156113b65750828114155b1561151c578888858181106113cd576113cd611b41565b9050013560f81c60f81b6001600160f81b031916602d60f81b148015611425575088886113fb866001611b18565b81811061140a5761140a611b41565b9050013560f81c60f81b6001600160f81b031916600160fd1b145b1561143857611435846002611b18565b96505b8784108015611470575088888581811061145457611454611b41565b9050013560f81c60f81b6001600160f81b031916600a60f81b14155b15611487578361147f81611c30565b945050611438565b6114ca89898080601f0160208091040260200160405190810160405280939291908181526020018383808284376000920191909152508b9250889150610d9f9050565b8282815181106114dc576114dc611b41565b602002602001018190525080806114f290611c30565b91505087840361150a578361150681611d67565b9450505b8361151481611c30565b94505061139d565b509791965090945050505050565b60006107b25b8761ffff168161ffff16101561157c576115498161185c565b156115635761155c6301e2850083611b18565b9150611574565b6115716301e1338083611b18565b91505b600101611530565b6115846118bb565b601f81526115918961185c565b156115a257601d60208201526115aa565b601c60208201525b601f60408201819052601e606083018190526080830182905260a0830181905260c0830182905260e0830182905261010083018190526101208301829052610140830152610160820152600191505b8760ff168261ffff1610156116575780611614600184611d7e565b61ffff16600c811061162857611628611b41565b602002015161163a9062015180611d98565b61164a9063ffffffff1684611b18565b92506001909101906115f9565b611662600188611db7565b6116729060ff1662015180611d98565b6116829063ffffffff1684611b18565b925061169360ff8716610e10611d98565b6116a39063ffffffff1684611b18565b92506116b360ff8616603c611dd0565b6116c19061ffff1684611b18565b925061041060ff851684611b18565b60007f300000000000000000000000000000000000000000000000000000000000000060f883901b6001600160f81b0319161080159061173e57507f390000000000000000000000000000000000000000000000000000000000000060f883901b6001600160f81b03191611155b1561174e57610b3a603083611db7565b7f610000000000000000000000000000000000000000000000000000000000000060f883901b6001600160f81b031916108015906117ba57507f660000000000000000000000000000000000000000000000000000000000000060f883901b6001600160f81b03191611155b156117d65760616117cc83600a611cfb565b610b3a9190611db7565b7f410000000000000000000000000000000000000000000000000000000000000060f883901b6001600160f81b0319161080159061184257507f460000000000000000000000000000000000000000000000000000000000000060f883901b6001600160f81b03191611155b156118545760416117cc83600a611cfb565b506000919050565b6000611869600483611ded565b61ffff161561187a57506000919050565b611885606483611ded565b61ffff161561189657506001919050565b6118a261019083611ded565b61ffff16156118b357506000919050565b506001919050565b604051806101800160405280600c906020820280368337509192915050565b600080600083850360808112156118f057600080fd5b843567ffffffffffffffff81111561190757600080fd5b8501601f8101871361191857600080fd5b803567ffffffffffffffff81111561192f57600080fd5b87602082840101111561194157600080fd5b602091909101945092506060601f198201121561195d57600080fd5b506020840190509250925092565b60005b8381101561198657818101518382015260200161196e565b50506000910152565b600081518084526119a781602086016020860161196b565b601f01601f19169290920160200192915050565b6020815260006119ce602083018461198f565b9392505050565b7f19457468657265756d205369676e6564204d6573736167653a0a000000000000815260008451611a0d81601a85016020890161196b565b82018385601a83013760009301601a0192835250909392505050565b600181811c90821680611a3d57607f821691505b602082108103611a5d57634e487b7160e01b600052602260045260246000fd5b50919050565b6000808354818160011c90506001821680611a7f57607f821691505b602082108103611a9d57634e487b7160e01b84526022600452602484fd5b808015611ab15760018114611ac657611af6565b60ff1984168752821515830287019450611af6565b60008881526020902060005b84811015611aee57815489820152600190910190602001611ad2565b505082870194505b50929695505050505050565b634e487b7160e01b600052601160045260246000fd5b80820180821115610b3a57610b3a611b02565b634e487b7160e01b600052604160045260246000fd5b634e487b7160e01b600052603260045260246000fd5b602081526000825160a06020840152611b7360c084018261198f565b90506001600160a01b036020850151166040840152604084015160608401526060840151601f19848303016080850152611bad828261198f565b6080860151858203601f190160a08701528051808352919350602090810192508084019190600582901b85010160005b82811015611c0e57601f19868303018452611bf982865161198f565b60209586019594909401939150600101611bdd565b50979650505050505050565b634e487b7160e01b600052601260045260246000fd5b600060018201611c4257611c42611b02565b5060010190565b848152836020820152608060408201526000611c68608083018561198f565b8281036060840152611c7a818561198f565b979650505050505050565b60008251611c9781846020870161196b565b9190910192915050565b81810381811115610b3a57610b3a611b02565b600082611cc357611cc3611c1a565b500490565b8082028115828204841417610b3a57610b3a611b02565b60ff818116838216029081169081811461123257611232611b02565b60ff8181168382160190811115610b3a57610b3a611b02565b805160208201516bffffffffffffffffffffffff19811691906014821015611d60576bffffffffffffffffffffffff196bffffffffffffffffffffffff198360140360031b1b82161692505b5050919050565b600081611d7657611d76611b02565b506000190190565b61ffff8281168282160390811115610b3a57610b3a611b02565b63ffffffff818116838216029081169081811461123257611232611b02565b60ff8281168282160390811115610b3a57610b3a611b02565b61ffff818116838216029081169081811461123257611232611b02565b600061ffff831680611e0157611e01611c1a565b8061ffff8416069150509291505056fea2646970667358221220818420cc17d5b45adcdc335def76485f4fbbda008bb8ef213322a9334a7749d764736f6c634300081c0033",
  "linkReferences": {},
  "deployedLinkReferences": {}
}