{
  "_format": "hh-sol-artifact-1",
  "contractName": "SiweAuth",
  "sourceName": "@oasisprotocol/sapphire-contracts/contracts/auth/SiweAuth.sol",
  "abi": [
    {
      "inputs": [
        {
          "internalType": "string",
          "name": "inDomain",
          "type": "string"
        }
      ],
      "stateMutability": "nonpayable",
      "type": "constructor"
    },
    {
      "inputs": [],
      "name": "A13e_RevokedAuthToken",
      "type": "error"
    },
    {
      "inputs": [],
      "name": "SiweAuth_AddressMismatch",
      "type": "error"
    },
    {
      "inputs": [],
      "name": "SiweAuth_ChainIdMismatch",
      "type": "error"
    },
    {
      "inputs": [],
      "name": "SiweAuth_DomainMismatch",
      "type": "error"
    },
    {
      "inputs": [],
      "name": "SiweAuth_Expired",
      "type": "error"
    },
    {
      "inputs": [],
      "name": "SiweAuth_NotBeforeInFuture",
      "type": "error"
    },
    {
      "inputs": [],
      "name": "SiweParser_InvalidAddressLength",
      "type": "error"
    },
    {
      "inputs": [],
      "name": "SiweParser_InvalidNonce",
      "type": "error"
    },
    {
      "inputs": [],
      "name": "domain",
      "outputs": [
        {
          "internalType": "string",
          "name": "",
          "type": "string"
        }
      ],
      "stateMutability": "view",
      "type": "function"
    },
    {
      "inputs": [
        {
          "internalType": "string",
          "name": "siweMsg",
          "type": "string"
        },
        {
          "components": [
            {
              "internalType": "bytes32",
              "name": "r",
              "type": "bytes32"
            },
            {
              "internalType": "bytes32",
              "name": "s",
              "type": "bytes32"
            },
            {
              "internalType": "uint256",
              "name": "v",
              "type": "uint256"
            }
          ],
          "internalType": "struct SignatureRSV",
          "name": "sig",
          "type": "tuple"
        }
      ],
      "name": "login",
      "outputs": [
        {
          "internalType": "bytes",
          "name": "",
          "type": "bytes"
        }
      ],
      "stateMutability": "view",
      "type": "function"
    }
  ],
  "bytecode": "0x608060405234801561001057600080fd5b506040516127f03803806127f083398101604081905261002f91610196565b61004f60206040518060200160405280600081525061006e60201b60201c565b61005890610248565b600255600161006782826102f2565b5050610406565b60606000807301000000000000000000000000000000000000016001600160a01b031685856040516020016100a49291906103b0565b60408051601f19818403018152908290526100be916103ea565b600060405180830381855afa9150503d80600081146100f9576040519150601f19603f3d011682016040523d82523d6000602084013e6100fe565b606091505b5091509150816101545760405162461bcd60e51b815260206004820152601360248201527f72616e646f6d42797465733a206661696c656400000000000000000000000000604482015260640160405180910390fd5b949350505050565b634e487b7160e01b600052604160045260246000fd5b60005b8381101561018d578181015183820152602001610175565b50506000910152565b6000602082840312156101a857600080fd5b81516001600160401b038111156101be57600080fd5b8201601f810184136101cf57600080fd5b80516001600160401b038111156101e8576101e861015c565b604051601f8201601f19908116603f011681016001600160401b03811182821017156102165761021661015c565b60405281815282820160200186101561022e57600080fd5b61023f826020830160208601610172565b95945050505050565b80516020808301519190811015610269576000198160200360031b1b821691505b50919050565b600181811c9082168061028357607f821691505b60208210810361026957634e487b7160e01b600052602260045260246000fd5b601f8211156102ed57806000526020600020601f840160051c810160208510156102ca5750805b601f840160051c820191505b818110156102ea57600081556001016102d6565b50505b505050565b81516001600160401b0381111561030b5761030b61015c565b61031f81610319845461026f565b846102a3565b6020601f821160018114610353576000831561033b5750848201515b600019600385901b1c1916600184901b1784556102ea565b600084815260208120601f198516915b828110156103835787850151825560209485019460019092019101610363565b50848210156103a15786840151600019600387901b60f8161c191681555b50505050600190811b01905550565b82815260406020820152600082518060408401526103d5816060850160208701610172565b601f01601f1916919091016060019392505050565b600082516103fc818460208701610172565b9190910192915050565b6123db806104156000396000f3fe608060405234801561001057600080fd5b50600436106100365760003560e01c80637f476b6f1461003b578063c2fb26a614610064575b600080fd5b61004e610049366004611cbf565b61006c565b60405161005b9190611ddc565b60405180910390f35b61004e61049e565b60606100b66040518060a0016040528060608152602001600073ffffffffffffffffffffffffffffffffffffffff1681526020016000815260200160608152602001606081525090565b60006100c185610530565b86866040516020016100d593929190611df6565b604080517fffffffffffffffffffffffffffffffffffffffffffffffffffffffffffffffe0818403018152828252805160208083019190912060008086528583018086529190915260ff89850135169385019390935287356060850152870135608084015292509060019060a0016020604051602081039080840390855afa158015610165573d6000803e3d6000fd5b50506040517fffffffffffffffffffffffffffffffffffffffffffffffffffffffffffffffe0015173ffffffffffffffffffffffffffffffffffffffff811660208601529150600090506101b988886105ee565b9050468160a00151146101f8576040517f362c833700000000000000000000000000000000000000000000000000000000815260040160405180910390fd5b60016040516102079190611e9d565b604051809103902081600001518051906020012014610252576040517f283d62bd00000000000000000000000000000000000000000000000000000000815260040160405180910390fd5b80518452602081015173ffffffffffffffffffffffffffffffffffffffff8381169116146102ac576040517f05cc02e100000000000000000000000000000000000000000000000000000000815260040160405180910390fd5b61012081015151158015906102ce57506102ca816101200151610ca2565b4211155b15610305576040517f299d02f100000000000000000000000000000000000000000000000000000000815260040160405180910390fd5b610100810151511561032c576000610321826101000151610ca2565b60408601525061033f565b6103396201518042611fa2565b60408501525b8360400151421061037c576040517fb171155000000000000000000000000000000000000000000000000000000000815260040160405180910390fd5b604081015160608501526101608101515167ffffffffffffffff8111156103a5576103a5611fb5565b6040519080825280602002602001820160405280156103d857816020015b60608152602001906001900390816103c35790505b50608085015260005b8161016001515181101561043757816101600151818151811061040657610406611fe4565b60200260200101518560800151828151811061042457610424611fe4565b60209081029190910101526001016103e1565b5060006104916002546000801b876040516020016104559190612013565b604080517fffffffffffffffffffffffffffffffffffffffffffffffffffffffffffffffe0818403018152602083019091526000825290610d11565b9998505050505050505050565b6060600180546104ad90611e4a565b80601f01602080910402602001604051908101604052809291908181526020018280546104d990611e4a565b80156105265780601f106104fb57610100808354040283529160200191610526565b820191906000526020600020905b81548152906001019060200180831161050957829003601f168201915b5050505050905090565b6060600061053d83610e4a565b600101905060008167ffffffffffffffff81111561055d5761055d611fb5565b6040519080825280601f01601f191660200182016040528015610587576020820181803683370190505b5090508181016020015b7fffffffffffffffffffffffffffffffffffffffffffffffffffffffffffffffff017f3031323334353637383961626364656600000000000000000000000000000000600a86061a8153600a850494508461059157509392505050565b61066860405180610180016040528060608152602001600073ffffffffffffffffffffffffffffffffffffffff168152602001606081526020016060815260200160608152602001600081526020016060815260200160608152602001606081526020016060815260200160608152602001606081525090565b6106e260405180610180016040528060608152602001600073ffffffffffffffffffffffffffffffffffffffff168152602001606081526020016060815260200160608152602001600081526020016060815260200160608152602001606081526020016060815260200160608152602001606081525090565b60005b8381101561079d578484828181106106ff576106ff611fe4565b909101357fff00000000000000000000000000000000000000000000000000000000000000167f20000000000000000000000000000000000000000000000000000000000000000390506107955761078e85858080601f01602080910402602001604051908101604052809392919081815260200183838082843760009201829052509250859150610f2c9050565b825261079d565b6001016106e5565b6107a8603282611fa2565b905061080f61080a86868080601f0160208091040260200160405190810160405280939291908181526020018383808284376000920191909152506107f4925060029150869050611fa2565b935083610802602882611fa2565b945084610f2c565b611033565b73ffffffffffffffffffffffffffffffffffffffff166020830152610835600282611fa2565b905083811080156108a3575084848281811061085357610853611fe4565b9050013560f81c60f81b7effffffffffffffffffffffffffffffffffffffffffffffffffffffffffffff19167f0a0000000000000000000000000000000000000000000000000000000000000014155b1561097657805b84811015610974578585828181106108c4576108c4611fe4565b909101357fff00000000000000000000000000000000000000000000000000000000000000167f0a0000000000000000000000000000000000000000000000000000000000000003905061096c5761095586868080601f016020809104026020016040519081016040528093929190818152602001838380828437600092019190915250869250859150610f2c9050565b6040840152610965816001611fa2565b9150610974565b6001016108aa565b505b806109808161216e565b9150506109c485856040518060400160405280600381526020017f555249000000000000000000000000000000000000000000000000000000000081525084611198565b836060018193508290525050610a1185856040518060400160405280600781526020017f56657273696f6e0000000000000000000000000000000000000000000000000081525084611198565b8360800181935082905250506060610a6086866040518060400160405280600881526020017f436861696e20494400000000000000000000000000000000000000000000000081525085611198565b92509050610a6d81611434565b60a084015260408051808201909152600581527f4e6f6e63650000000000000000000000000000000000000000000000000000006020820152610ab4908790879085611198565b60c08501829052905190925060081115610afa576040517fb4bc030c00000000000000000000000000000000000000000000000000000000815260040160405180910390fd5b610b3b86866040518060400160405280600981526020017f497373756564204174000000000000000000000000000000000000000000000081525085611198565b8460e0018194508290525050610b8886866040518060400160405280600f81526020017f45787069726174696f6e2054696d65000000000000000000000000000000000081525085611198565b84610100018194508290525050610bd686866040518060400160405280600a81526020017f4e6f74204265666f72650000000000000000000000000000000000000000000081525085611198565b84610120018194508290525050610c2486866040518060400160405280600a81526020017f526571756573742049440000000000000000000000000000000000000000000081525085611198565b846101400181945082905250506000610c7487876040518060400160405280600981526020017f5265736f7572636573000000000000000000000000000000000000000000000081525086611198565b915050828114610c9557610c8987878361148e565b61016086019190915292505b5091925050505b92915050565b6000610c9c610cbc610cb78460006004610f2c565b611434565b610ccc610cb78560056007610f2c565b610cdc610cb7866008600a610f2c565b610cec610cb787600b600d610f2c565b610cfc610cb788600e6010610f2c565b610d0c610cb78960116013610f2c565b61187f565b606060008073010000000000000000000000000000000000000373ffffffffffffffffffffffffffffffffffffffff1687878787604051602001610d5894939291906121a6565b604080517fffffffffffffffffffffffffffffffffffffffffffffffffffffffffffffffe081840301815290829052610d90916121e2565b600060405180830381855afa9150503d8060008114610dcb576040519150601f19603f3d011682016040523d82523d6000602084013e610dd0565b606091505b509150915081610e40576040517f08c379a000000000000000000000000000000000000000000000000000000000815260206004820152600f60248201527f656e63727970743a206661696c65640000000000000000000000000000000000604482015260640160405180910390fd5b9695505050505050565b6000807a184f03e93ff9f4daa797ed6e38ed64bf6a1f0100000000000000008310610e93577a184f03e93ff9f4daa797ed6e38ed64bf6a1f010000000000000000830492506040015b6d04ee2d6d415b85acef81000000008310610ebf576d04ee2d6d415b85acef8100000000830492506020015b662386f26fc100008310610edd57662386f26fc10000830492506010015b6305f5e1008310610ef5576305f5e100830492506008015b6127108310610f0957612710830492506004015b60648310610f1b576064830492506002015b600a8310610c9c5760010192915050565b60606000610f3a84846121fe565b67ffffffffffffffff811115610f5257610f52611fb5565b6040519080825280601f01601f191660200182016040528015610f7c576020820181803683370190505b509050835b8381108015610f905750855181105b1561102a57858181518110610fa757610fa7611fe4565b01602001517fff000000000000000000000000000000000000000000000000000000000000001682610fd987846121fe565b81518110610fe957610fe9611fe4565b60200101907effffffffffffffffffffffffffffffffffffffffffffffffffffffffffffff1916908160001a905350806110228161216e565b915050610f81565b50949350505050565b60008151602814611070576040517facf8696900000000000000000000000000000000000000000000000000000000815260040160405180910390fd5b6000600283516110809190612211565b67ffffffffffffffff81111561109857611098611fb5565b6040519080825280601f01601f1916602001820160405280156110c2576020820181803683370190505b50905060005b600284516110d69190612211565b81101561118457611114846110ec836002612225565b6110f7906001611fa2565b8151811061110757611107611fe4565b016020015160f81c611a25565b611123856110f7846002612225565b61112e90601061223c565b6111389190612258565b60f81b82828151811061114d5761114d611fe4565b60200101907effffffffffffffffffffffffffffffffffffffffffffffffffffffffffffff1916908160001a9053506001016110c8565b5061118e81612271565b60601c9392505050565b60606000825b8581101561131b578686828181106111b8576111b8611fe4565b909101357fff00000000000000000000000000000000000000000000000000000000000000167f3a0000000000000000000000000000000000000000000000000000000000000003905061130957848051906020012061125188888080601f016020809104026020016040519081016040528093929190818152602001838380828437600092019190915250899250869150610f2c9050565b805190602001201461127657505060408051602081019091526000815290508161142b565b806112808161216e565b91505085811080156112ee575086868281811061129f5761129f611fe4565b9050013560f81c60f81b7effffffffffffffffffffffffffffffffffffffffffffffffffffffffffffff19167f2000000000000000000000000000000000000000000000000000000000000000145b1561130157806112fd8161216e565b9150505b80935061131b565b806113138161216e565b91505061119e565b858110156113e35786868281811061133557611335611fe4565b909101357fff00000000000000000000000000000000000000000000000000000000000000167f0a000000000000000000000000000000000000000000000000000000000000000390506113db576113c687878080601f016020809104026020016040519081016040528093929190818152602001838380828437600092019190915250889250859150610f2c9050565b6113d1826001611fa2565b925092505061142b565b60010161131b565b61142687878080601f016020809104026020016040519081016040528093929190818152602001838380828437600092019190915250889250859150610f2c9050565b925090505b94509492505050565b600080805b835181101561148757603084828151811061145657611456611fe4565b0160200151611468919060f81c6121fe565b61147383600a612225565b61147d9190611fa2565b9150600101611439565b5092915050565b6060600082815b6114a06001876121fe565b82101561161b578686838181106114b9576114b9611fe4565b9050013560f81c60f81b7effffffffffffffffffffffffffffffffffffffffffffffffffffffffffffff19167f2d000000000000000000000000000000000000000000000000000000000000001480156115795750868661151b846001611fa2565b81811061152a5761152a611fe4565b9050013560f81c60f81b7effffffffffffffffffffffffffffffffffffffffffffffffffffffffffffff19167f2000000000000000000000000000000000000000000000000000000000000000145b1561159d57611589600283611fa2565b9150806115958161216e565b9150506115a2565b61161b565b85821080156115f257508686838181106115be576115be611fe4565b9050013560f81c60f81b7effffffffffffffffffffffffffffffffffffffffffffffffffffffffffffff1916600a60f81b14155b1561160957816116018161216e565b9250506115a2565b816116138161216e565b925050611495565b60008167ffffffffffffffff81111561163657611636611fb5565b60405190808252806020026020018201604052801561166957816020015b60608152602001906001900390816116545790505b50905085925060005b61167d6001896121fe565b8410801561168b5750828114155b15611871578888858181106116a2576116a2611fe4565b9050013560f81c60f81b7effffffffffffffffffffffffffffffffffffffffffffffffffffffffffffff19167f2d0000000000000000000000000000000000000000000000000000000000000014801561176257508888611704866001611fa2565b81811061171357611713611fe4565b9050013560f81c60f81b7effffffffffffffffffffffffffffffffffffffffffffffffffffffffffffff19167f2000000000000000000000000000000000000000000000000000000000000000145b1561177557611772846002611fa2565b96505b87841080156117c5575088888581811061179157611791611fe4565b9050013560f81c60f81b7effffffffffffffffffffffffffffffffffffffffffffffffffffffffffffff1916600a60f81b14155b156117dc57836117d48161216e565b945050611775565b61181f89898080601f0160208091040260200160405190810160405280939291908181526020018383808284376000920191909152508b9250889150610f2c9050565b82828151811061183157611831611fe4565b602002602001018190525080806118479061216e565b91505087840361185f578361185b816122dd565b9450505b836118698161216e565b945050611672565b509791965090945050505050565b60006107b25b8761ffff168161ffff1610156118d15761189e81611c41565b156118b8576118b16301e2850083611fa2565b91506118c9565b6118c66301e1338083611fa2565b91505b600101611885565b6118d9611ca0565b601f81526118e689611c41565b156118f757601d60208201526118ff565b601c60208201525b601f60408201819052601e606083018190526080830182905260a0830181905260c0830182905260e0830182905261010083018190526101208301829052610140830152610160820152600191505b8760ff168261ffff1610156119ac5780611969600184612312565b61ffff16600c811061197d5761197d611fe4565b602002015161198f906201518061232c565b61199f9063ffffffff1684611fa2565b925060019091019061194e565b6119b760018861234b565b6119c79060ff166201518061232c565b6119d79063ffffffff1684611fa2565b92506119e860ff8716610e1061232c565b6119f89063ffffffff1684611fa2565b9250611a0860ff8616603c612364565b611a169061ffff1684611fa2565b925061049160ff851684611fa2565b60007f300000000000000000000000000000000000000000000000000000000000000060f883901b7fff000000000000000000000000000000000000000000000000000000000000001610801590611ac357507f390000000000000000000000000000000000000000000000000000000000000060f883901b7fff000000000000000000000000000000000000000000000000000000000000001611155b15611ad357610c9c60308361234b565b7f610000000000000000000000000000000000000000000000000000000000000060f883901b7fff000000000000000000000000000000000000000000000000000000000000001610801590611b6f57507f660000000000000000000000000000000000000000000000000000000000000060f883901b7fff000000000000000000000000000000000000000000000000000000000000001611155b15611b8b576061611b8183600a612258565b610c9c919061234b565b7f410000000000000000000000000000000000000000000000000000000000000060f883901b7fff000000000000000000000000000000000000000000000000000000000000001610801590611c2757507f460000000000000000000000000000000000000000000000000000000000000060f883901b7fff000000000000000000000000000000000000000000000000000000000000001611155b15611c39576041611b8183600a612258565b506000919050565b6000611c4e600483612381565b61ffff1615611c5f57506000919050565b611c6a606483612381565b61ffff1615611c7b57506001919050565b611c8761019083612381565b61ffff1615611c9857506000919050565b506001919050565b604051806101800160405280600c906020820280368337509192915050565b60008060008385036080811215611cd557600080fd5b843567ffffffffffffffff811115611cec57600080fd5b8501601f81018713611cfd57600080fd5b803567ffffffffffffffff811115611d1457600080fd5b876020828401011115611d2657600080fd5b6020919091019450925060607fffffffffffffffffffffffffffffffffffffffffffffffffffffffffffffffe082011215611d6057600080fd5b506020840190509250925092565b60005b83811015611d89578181015183820152602001611d71565b50506000910152565b60008151808452611daa816020860160208601611d6e565b601f017fffffffffffffffffffffffffffffffffffffffffffffffffffffffffffffffe0169290920160200192915050565b602081526000611def6020830184611d92565b9392505050565b7f19457468657265756d205369676e6564204d6573736167653a0a000000000000815260008451611e2e81601a850160208901611d6e565b82018385601a83013760009301601a0192835250909392505050565b600181811c90821680611e5e57607f821691505b602082108103611e97577f4e487b7100000000000000000000000000000000000000000000000000000000600052602260045260246000fd5b50919050565b6000808354818160011c90506001821680611eb957607f821691505b602082108103611ef0577f4e487b710000000000000000000000000000000000000000000000000000000084526022600452602484fd5b808015611f045760018114611f3757611f67565b7fffffffffffffffffffffffffffffffffffffffffffffffffffffffffffffff0084168752821515830287019450611f67565b60008881526020902060005b84811015611f5f57815489820152600190910190602001611f43565b505082870194505b50929695505050505050565b7f4e487b7100000000000000000000000000000000000000000000000000000000600052601160045260246000fd5b80820180821115610c9c57610c9c611f73565b7f4e487b7100000000000000000000000000000000000000000000000000000000600052604160045260246000fd5b7f4e487b7100000000000000000000000000000000000000000000000000000000600052603260045260246000fd5b602081526000825160a0602084015261202f60c0840182611d92565b905073ffffffffffffffffffffffffffffffffffffffff60208501511660408401526040840151606084015260608401517fffffffffffffffffffffffffffffffffffffffffffffffffffffffffffffffe08483030160808501526120948282611d92565b91505060808401517fffffffffffffffffffffffffffffffffffffffffffffffffffffffffffffffe08483030160a085015281815180845260208401915060208160051b85010160208401935060005b82811015612133577fffffffffffffffffffffffffffffffffffffffffffffffffffffffffffffffe086830301845261211e828651611d92565b602095860195949094019391506001016120e4565b50979650505050505050565b7f4e487b7100000000000000000000000000000000000000000000000000000000600052601260045260246000fd5b60007fffffffffffffffffffffffffffffffffffffffffffffffffffffffffffffffff820361219f5761219f611f73565b5060010190565b8481528360208201526080604082015260006121c56080830185611d92565b82810360608401526121d78185611d92565b979650505050505050565b600082516121f4818460208701611d6e565b9190910192915050565b81810381811115610c9c57610c9c611f73565b6000826122205761222061213f565b500490565b8082028115828204841417610c9c57610c9c611f73565b60ff818116838216029081169081811461148757611487611f73565b60ff8181168382160190811115610c9c57610c9c611f73565b805160208201517fffffffffffffffffffffffffffffffffffffffff0000000000000000000000008116919060148210156122d6577fffffffffffffffffffffffffffffffffffffffff000000000000000000000000808360140360031b1b82161692505b5050919050565b6000816122ec576122ec611f73565b507fffffffffffffffffffffffffffffffffffffffffffffffffffffffffffffffff0190565b61ffff8281168282160390811115610c9c57610c9c611f73565b63ffffffff818116838216029081169081811461148757611487611f73565b60ff8281168282160390811115610c9c57610c9c611f73565b61ffff818116838216029081169081811461148757611487611f73565b600061ffff8316806123955761239561213f565b8061ffff8416069150509291505056fea264697066735822122062360f05e6fbd490c83a6851f5190a67fb07f10e1e0966e224416ad125ea426764736f6c634300081c0033",
  "linkReferences": {},
  "deployedLinkReferences": {}
}