{
  "_format": "hh-sol-artifact-1",
  "contractName": "PolyBet",
  "sourceName": "contracts/polybet.sol",
  "abi": [
    {
      "inputs": [],
      "stateMutability": "nonpayable",
      "type": "constructor"
    },
    {
      "inputs": [],
      "name": "A13e_RevokedAuthToken",
      "type": "error"
    },
    {
      "inputs": [],
      "name": "RoflOriginNotAuthorizedForApp",
      "type": "error"
    },
    {
      "inputs": [],
      "name": "SiweAuth_AddressMismatch",
      "type": "error"
    },
    {
      "inputs": [],
      "name": "SiweAuth_ChainIdMismatch",
      "type": "error"
    },
    {
      "inputs": [],
      "name": "SiweAuth_DomainMismatch",
      "type": "error"
    },
    {
      "inputs": [],
      "name": "SiweAuth_Expired",
      "type": "error"
    },
    {
      "inputs": [],
      "name": "SiweAuth_NotBeforeInFuture",
      "type": "error"
    },
    {
      "inputs": [],
      "name": "SiweParser_InvalidAddressLength",
      "type": "error"
    },
    {
      "inputs": [],
      "name": "SiweParser_InvalidNonce",
      "type": "error"
    },
    {
      "inputs": [],
      "name": "SubcallError",
      "type": "error"
    },
    {
      "anonymous": false,
      "inputs": [
        {
          "indexed": true,
          "internalType": "uint256",
          "name": "betId",
          "type": "uint256"
        },
        {
          "indexed": false,
          "internalType": "uint256",
          "name": "totalCollateralAmount",
          "type": "uint256"
        },
        {
          "indexed": false,
          "internalType": "uint256",
          "name": "outcomeIndex",
          "type": "uint256"
        },
        {
          "indexed": false,
          "internalType": "bytes32[]",
          "name": "marketplaceIds",
          "type": "bytes32[]"
        },
        {
          "indexed": false,
          "internalType": "bytes32[]",
          "name": "marketIds",
          "type": "bytes32[]"
        }
      ],
      "name": "BetSlipCreated",
      "type": "event"
    },
    {
      "anonymous": false,
      "inputs": [
        {
          "indexed": true,
          "internalType": "uint256",
          "name": "betId",
          "type": "uint256"
        }
      ],
      "name": "BetSlipSellingStateUpdate",
      "type": "event"
    },
    {
      "anonymous": false,
      "inputs": [
        {
          "indexed": true,
          "internalType": "address",
          "name": "previousOwner",
          "type": "address"
        },
        {
          "indexed": true,
          "internalType": "address",
          "name": "newOwner",
          "type": "address"
        }
      ],
      "name": "OwnershipTransferred",
      "type": "event"
    },
    {
      "inputs": [
        {
          "internalType": "uint64",
          "name": "chainId",
          "type": "uint64"
        },
        {
          "internalType": "enum PolyBet.ChainFamily",
          "name": "family",
          "type": "uint8"
        },
        {
          "internalType": "string",
          "name": "name",
          "type": "string"
        },
        {
          "internalType": "string",
          "name": "marketplaceProxy",
          "type": "string"
        }
      ],
      "name": "addMarketplace",
      "outputs": [],
      "stateMutability": "nonpayable",
      "type": "function"
    },
    {
      "inputs": [
        {
          "internalType": "uint256",
          "name": "",
          "type": "uint256"
        }
      ],
      "name": "betSlips",
      "outputs": [
        {
          "internalType": "enum PolyBet.BetSlipStrategy",
          "name": "strategy",
          "type": "uint8"
        },
        {
          "internalType": "uint256",
          "name": "initialCollateral",
          "type": "uint256"
        },
        {
          "internalType": "uint256",
          "name": "finalCollateral",
          "type": "uint256"
        },
        {
          "internalType": "uint256",
          "name": "outcomeIndex",
          "type": "uint256"
        },
        {
          "internalType": "uint256",
          "name": "parentId",
          "type": "uint256"
        },
        {
          "internalType": "bool",
          "name": "instantArbitrage",
          "type": "bool"
        },
        {
          "internalType": "enum PolyBet.BetSlipStatus",
          "name": "status",
          "type": "uint8"
        },
        {
          "internalType": "string",
          "name": "failureReason",
          "type": "string"
        }
      ],
      "stateMutability": "view",
      "type": "function"
    },
    {
      "inputs": [],
      "name": "domain",
      "outputs": [
        {
          "internalType": "string",
          "name": "",
          "type": "string"
        }
      ],
      "stateMutability": "view",
      "type": "function"
    },
    {
      "inputs": [
        {
          "internalType": "uint256",
          "name": "betSlipId",
          "type": "uint256"
        }
      ],
      "name": "getBetSlip",
      "outputs": [
        {
          "components": [
            {
              "internalType": "enum PolyBet.BetSlipStrategy",
              "name": "strategy",
              "type": "uint8"
            },
            {
              "internalType": "uint256",
              "name": "initialCollateral",
              "type": "uint256"
            },
            {
              "internalType": "uint256",
              "name": "finalCollateral",
              "type": "uint256"
            },
            {
              "internalType": "uint256",
              "name": "outcomeIndex",
              "type": "uint256"
            },
            {
              "internalType": "uint256",
              "name": "parentId",
              "type": "uint256"
            },
            {
              "internalType": "bool",
              "name": "instantArbitrage",
              "type": "bool"
            },
            {
              "internalType": "enum PolyBet.BetSlipStatus",
              "name": "status",
              "type": "uint8"
            },
            {
              "internalType": "string",
              "name": "failureReason",
              "type": "string"
            },
            {
              "internalType": "bytes32[]",
              "name": "marketplaceIds",
              "type": "bytes32[]"
            },
            {
              "internalType": "bytes32[]",
              "name": "marketIds",
              "type": "bytes32[]"
            },
            {
              "internalType": "bytes32[]",
              "name": "proxiedBets",
              "type": "bytes32[]"
            }
          ],
          "internalType": "struct PolyBet.BetSlip",
          "name": "",
          "type": "tuple"
        }
      ],
      "stateMutability": "view",
      "type": "function"
    },
    {
      "inputs": [
        {
          "internalType": "uint256",
          "name": "marketplaceId",
          "type": "uint256"
        }
      ],
      "name": "getMarketplace",
      "outputs": [
        {
          "components": [
            {
              "internalType": "uint256",
              "name": "warpRouterId",
              "type": "uint256"
            },
            {
              "internalType": "uint256",
              "name": "chainId",
              "type": "uint256"
            },
            {
              "internalType": "enum PolyBet.ChainFamily",
              "name": "chainFamily",
              "type": "uint8"
            },
            {
              "internalType": "string",
              "name": "name",
              "type": "string"
            },
            {
              "internalType": "string",
              "name": "marketplaceProxy",
              "type": "string"
            },
            {
              "internalType": "enum PolyBet.PricingStrategy",
              "name": "pricingStrategy",
              "type": "uint8"
            }
          ],
          "internalType": "struct PolyBet.Marketplace",
          "name": "",
          "type": "tuple"
        }
      ],
      "stateMutability": "view",
      "type": "function"
    },
    {
      "inputs": [
        {
          "internalType": "bytes32",
          "name": "betId",
          "type": "bytes32"
        }
      ],
      "name": "getProxiedBet",
      "outputs": [
        {
          "components": [
            {
              "internalType": "bytes32",
              "name": "id",
              "type": "bytes32"
            },
            {
              "internalType": "uint256",
              "name": "betSlipId",
              "type": "uint256"
            },
            {
              "internalType": "uint256",
              "name": "marketplaceId",
              "type": "uint256"
            },
            {
              "internalType": "uint256",
              "name": "marketId",
              "type": "uint256"
            },
            {
              "internalType": "uint256",
              "name": "optionIndex",
              "type": "uint256"
            },
            {
              "internalType": "uint256",
              "name": "minimumShares",
              "type": "uint256"
            },
            {
              "internalType": "uint256",
              "name": "blockTimestamp",
              "type": "uint256"
            },
            {
              "internalType": "uint256",
              "name": "originalCollateralAmount",
              "type": "uint256"
            },
            {
              "internalType": "uint256",
              "name": "finalCollateralAmount",
              "type": "uint256"
            },
            {
              "internalType": "uint256",
              "name": "sharesBought",
              "type": "uint256"
            },
            {
              "internalType": "uint256",
              "name": "sharesSold",
              "type": "uint256"
            },
            {
              "internalType": "enum PolyBet.BetOutcome",
              "name": "outcome",
              "type": "uint8"
            },
            {
              "internalType": "string",
              "name": "failureReason",
              "type": "string"
            }
          ],
          "internalType": "struct PolyBet.ProxiedBet",
          "name": "",
          "type": "tuple"
        }
      ],
      "stateMutability": "view",
      "type": "function"
    },
    {
      "inputs": [],
      "name": "getUserActiveBetslips",
      "outputs": [
        {
          "internalType": "uint256[]",
          "name": "",
          "type": "uint256[]"
        }
      ],
      "stateMutability": "view",
      "type": "function"
    },
    {
      "inputs": [
        {
          "internalType": "bytes",
          "name": "authToken",
          "type": "bytes"
        }
      ],
      "name": "getUserActiveBetslips",
      "outputs": [
        {
          "internalType": "uint256[]",
          "name": "",
          "type": "uint256[]"
        }
      ],
      "stateMutability": "view",
      "type": "function"
    },
    {
      "inputs": [
        {
          "internalType": "bytes",
          "name": "authToken",
          "type": "bytes"
        }
      ],
      "name": "getUserBalance",
      "outputs": [
        {
          "internalType": "uint256",
          "name": "",
          "type": "uint256"
        }
      ],
      "stateMutability": "view",
      "type": "function"
    },
    {
      "inputs": [],
      "name": "getUserBalance",
      "outputs": [
        {
          "internalType": "uint256",
          "name": "",
          "type": "uint256"
        }
      ],
      "stateMutability": "view",
      "type": "function"
    },
    {
      "inputs": [
        {
          "internalType": "bytes",
          "name": "authToken",
          "type": "bytes"
        }
      ],
      "name": "getUserClosedBets",
      "outputs": [
        {
          "internalType": "uint256[]",
          "name": "",
          "type": "uint256[]"
        }
      ],
      "stateMutability": "view",
      "type": "function"
    },
    {
      "inputs": [],
      "name": "getUserClosedBets",
      "outputs": [
        {
          "internalType": "uint256[]",
          "name": "",
          "type": "uint256[]"
        }
      ],
      "stateMutability": "view",
      "type": "function"
    },
    {
      "inputs": [
        {
          "internalType": "uint256",
          "name": "betSlipId",
          "type": "uint256"
        }
      ],
      "name": "initiateSellProxiedBets",
      "outputs": [],
      "stateMutability": "nonpayable",
      "type": "function"
    },
    {
      "inputs": [
        {
          "internalType": "string",
          "name": "siweMsg",
          "type": "string"
        },
        {
          "components": [
            {
              "internalType": "bytes32",
              "name": "r",
              "type": "bytes32"
            },
            {
              "internalType": "bytes32",
              "name": "s",
              "type": "bytes32"
            },
            {
              "internalType": "uint256",
              "name": "v",
              "type": "uint256"
            }
          ],
          "internalType": "struct SignatureRSV",
          "name": "sig",
          "type": "tuple"
        }
      ],
      "name": "login",
      "outputs": [
        {
          "internalType": "bytes",
          "name": "",
          "type": "bytes"
        }
      ],
      "stateMutability": "view",
      "type": "function"
    },
    {
      "inputs": [
        {
          "internalType": "uint256",
          "name": "",
          "type": "uint256"
        }
      ],
      "name": "marketplaces",
      "outputs": [
        {
          "internalType": "uint256",
          "name": "warpRouterId",
          "type": "uint256"
        },
        {
          "internalType": "uint256",
          "name": "chainId",
          "type": "uint256"
        },
        {
          "internalType": "enum PolyBet.ChainFamily",
          "name": "chainFamily",
          "type": "uint8"
        },
        {
          "internalType": "string",
          "name": "name",
          "type": "string"
        },
        {
          "internalType": "string",
          "name": "marketplaceProxy",
          "type": "string"
        },
        {
          "internalType": "enum PolyBet.PricingStrategy",
          "name": "pricingStrategy",
          "type": "uint8"
        }
      ],
      "stateMutability": "view",
      "type": "function"
    },
    {
      "inputs": [],
      "name": "musdcToken",
      "outputs": [
        {
          "internalType": "contract IERC20",
          "name": "",
          "type": "address"
        }
      ],
      "stateMutability": "view",
      "type": "function"
    },
    {
      "inputs": [],
      "name": "owner",
      "outputs": [
        {
          "internalType": "address",
          "name": "",
          "type": "address"
        }
      ],
      "stateMutability": "view",
      "type": "function"
    },
    {
      "inputs": [
        {
          "internalType": "enum PolyBet.BetSlipStrategy",
          "name": "strategy",
          "type": "uint8"
        },
        {
          "internalType": "uint256",
          "name": "totalCollateralAmount",
          "type": "uint256"
        },
        {
          "internalType": "uint256",
          "name": "outcomeIndex",
          "type": "uint256"
        },
        {
          "internalType": "bytes32[]",
          "name": "marketplaceIds",
          "type": "bytes32[]"
        },
        {
          "internalType": "bytes32[]",
          "name": "marketIds",
          "type": "bytes32[]"
        },
        {
          "internalType": "bool",
          "name": "instantArbitrage",
          "type": "bool"
        },
        {
          "internalType": "uint256",
          "name": "parentId",
          "type": "uint256"
        }
      ],
      "name": "placeBet",
      "outputs": [],
      "stateMutability": "nonpayable",
      "type": "function"
    },
    {
      "inputs": [
        {
          "internalType": "bytes32",
          "name": "",
          "type": "bytes32"
        }
      ],
      "name": "proxiedBets",
      "outputs": [
        {
          "internalType": "bytes32",
          "name": "id",
          "type": "bytes32"
        },
        {
          "internalType": "uint256",
          "name": "betSlipId",
          "type": "uint256"
        },
        {
          "internalType": "uint256",
          "name": "marketplaceId",
          "type": "uint256"
        },
        {
          "internalType": "uint256",
          "name": "marketId",
          "type": "uint256"
        },
        {
          "internalType": "uint256",
          "name": "optionIndex",
          "type": "uint256"
        },
        {
          "internalType": "uint256",
          "name": "minimumShares",
          "type": "uint256"
        },
        {
          "internalType": "uint256",
          "name": "blockTimestamp",
          "type": "uint256"
        },
        {
          "internalType": "uint256",
          "name": "originalCollateralAmount",
          "type": "uint256"
        },
        {
          "internalType": "uint256",
          "name": "finalCollateralAmount",
          "type": "uint256"
        },
        {
          "internalType": "uint256",
          "name": "sharesBought",
          "type": "uint256"
        },
        {
          "internalType": "uint256",
          "name": "sharesSold",
          "type": "uint256"
        },
        {
          "internalType": "enum PolyBet.BetOutcome",
          "name": "outcome",
          "type": "uint8"
        },
        {
          "internalType": "string",
          "name": "failureReason",
          "type": "string"
        }
      ],
      "stateMutability": "view",
      "type": "function"
    },
    {
      "inputs": [
        {
          "internalType": "bytes32",
          "name": "proxiedBetId",
          "type": "bytes32"
        },
        {
          "internalType": "enum PolyBet.BetOutcome",
          "name": "outcome",
          "type": "uint8"
        },
        {
          "internalType": "uint256",
          "name": "winningsCollateralValue",
          "type": "uint256"
        }
      ],
      "name": "recordProxiedBetClosed",
      "outputs": [],
      "stateMutability": "nonpayable",
      "type": "function"
    },
    {
      "inputs": [
        {
          "internalType": "uint256",
          "name": "betSlipId",
          "type": "uint256"
        },
        {
          "components": [
            {
              "internalType": "bytes32",
              "name": "id",
              "type": "bytes32"
            },
            {
              "internalType": "uint256",
              "name": "betSlipId",
              "type": "uint256"
            },
            {
              "internalType": "uint256",
              "name": "marketplaceId",
              "type": "uint256"
            },
            {
              "internalType": "uint256",
              "name": "marketId",
              "type": "uint256"
            },
            {
              "internalType": "uint256",
              "name": "optionIndex",
              "type": "uint256"
            },
            {
              "internalType": "uint256",
              "name": "minimumShares",
              "type": "uint256"
            },
            {
              "internalType": "uint256",
              "name": "blockTimestamp",
              "type": "uint256"
            },
            {
              "internalType": "uint256",
              "name": "originalCollateralAmount",
              "type": "uint256"
            },
            {
              "internalType": "uint256",
              "name": "finalCollateralAmount",
              "type": "uint256"
            },
            {
              "internalType": "uint256",
              "name": "sharesBought",
              "type": "uint256"
            },
            {
              "internalType": "uint256",
              "name": "sharesSold",
              "type": "uint256"
            },
            {
              "internalType": "enum PolyBet.BetOutcome",
              "name": "outcome",
              "type": "uint8"
            },
            {
              "internalType": "string",
              "name": "failureReason",
              "type": "string"
            }
          ],
          "internalType": "struct PolyBet.ProxiedBet",
          "name": "proxiedBet",
          "type": "tuple"
        }
      ],
      "name": "recordProxiedBetPlaced",
      "outputs": [],
      "stateMutability": "nonpayable",
      "type": "function"
    },
    {
      "inputs": [
        {
          "internalType": "bytes32",
          "name": "proxiedBetId",
          "type": "bytes32"
        },
        {
          "internalType": "uint256",
          "name": "sharesSold",
          "type": "uint256"
        },
        {
          "internalType": "uint256",
          "name": "sharesSoldCollateralValue",
          "type": "uint256"
        }
      ],
      "name": "recordProxiedBetSold",
      "outputs": [],
      "stateMutability": "nonpayable",
      "type": "function"
    },
    {
      "inputs": [],
      "name": "renounceOwnership",
      "outputs": [],
      "stateMutability": "nonpayable",
      "type": "function"
    },
    {
      "inputs": [],
      "name": "roflAppId",
      "outputs": [
        {
          "internalType": "bytes21",
          "name": "",
          "type": "bytes21"
        }
      ],
      "stateMutability": "view",
      "type": "function"
    },
    {
      "inputs": [
        {
          "internalType": "address",
          "name": "_musdcToken",
          "type": "address"
        }
      ],
      "name": "setCollateralToken",
      "outputs": [],
      "stateMutability": "nonpayable",
      "type": "function"
    },
    {
      "inputs": [
        {
          "internalType": "bytes21",
          "name": "appId",
          "type": "bytes21"
        }
      ],
      "name": "setRoflAppId",
      "outputs": [],
      "stateMutability": "nonpayable",
      "type": "function"
    },
    {
      "inputs": [
        {
          "internalType": "address",
          "name": "newOwner",
          "type": "address"
        }
      ],
      "name": "transferOwnership",
      "outputs": [],
      "stateMutability": "nonpayable",
      "type": "function"
    },
    {
      "inputs": [
        {
          "internalType": "uint256",
          "name": "betSlipId",
          "type": "uint256"
        },
        {
          "internalType": "enum PolyBet.BetSlipStatus",
          "name": "status",
          "type": "uint8"
        }
      ],
      "name": "updateBetSlipStatus",
      "outputs": [],
      "stateMutability": "nonpayable",
      "type": "function"
    },
    {
      "inputs": [
        {
          "internalType": "address",
          "name": "",
          "type": "address"
        },
        {
          "internalType": "uint256",
          "name": "",
          "type": "uint256"
        }
      ],
      "name": "userActiveBetSlips",
      "outputs": [
        {
          "internalType": "uint256",
          "name": "",
          "type": "uint256"
        }
      ],
      "stateMutability": "view",
      "type": "function"
    },
    {
      "inputs": [
        {
          "internalType": "address",
          "name": "",
          "type": "address"
        },
        {
          "internalType": "uint256",
          "name": "",
          "type": "uint256"
        }
      ],
      "name": "userClosedBetSlips",
      "outputs": [
        {
          "internalType": "uint256",
          "name": "",
          "type": "uint256"
        }
      ],
      "stateMutability": "view",
      "type": "function"
    },
    {
      "inputs": [
        {
          "internalType": "uint256",
          "name": "amount",
          "type": "uint256"
        }
      ],
      "name": "withdrawWinnings",
      "outputs": [],
      "stateMutability": "nonpayable",
      "type": "function"
    }
  ],
  "bytecode": "0x608060405234801561001057600080fd5b5060405180604001604052806007815260200166141bdb1e50995d60ca1b81525061005160206040518060200160405280600081525061007a60201b60201c565b61005a906101ba565b6002556001610069828261027a565b50610075905033610168565b6103b2565b60606000807301000000000000000000000000000000000000016001600160a01b031685856040516020016100b092919061035c565b60408051601f19818403018152908290526100ca91610396565b600060405180830381855afa9150503d8060008114610105576040519150601f19603f3d011682016040523d82523d6000602084013e61010a565b606091505b5091509150816101605760405162461bcd60e51b815260206004820152601360248201527f72616e646f6d42797465733a206661696c656400000000000000000000000000604482015260640160405180910390fd5b949350505050565b600380546001600160a01b038381166001600160a01b0319831681179093556040519116919082907f8be0079c531659141344cd1fd0a4f28419497f9722a3daafe3b4186f6b6457e090600090a35050565b805160208083015191908110156101db576000198160200360031b1b821691505b50919050565b634e487b7160e01b600052604160045260246000fd5b600181811c9082168061020b57607f821691505b6020821081036101db57634e487b7160e01b600052602260045260246000fd5b601f82111561027557806000526020600020601f840160051c810160208510156102525750805b601f840160051c820191505b81811015610272576000815560010161025e565b50505b505050565b81516001600160401b03811115610293576102936101e1565b6102a7816102a184546101f7565b8461022b565b6020601f8211600181146102db57600083156102c35750848201515b600019600385901b1c1916600184901b178455610272565b600084815260208120601f198516915b8281101561030b57878501518255602094850194600190920191016102eb565b50848210156103295786840151600019600387901b60f8161c191681555b50505050600190811b01905550565b60005b8381101561035357818101518382015260200161033b565b50506000910152565b8281526040602082015260008251806040840152610381816060850160208701610338565b601f01601f1916919091016060019392505050565b600082516103a8818460208701610338565b9190910192915050565b6155d9806103c16000396000f3fe608060405234801561001057600080fd5b50600436106101e55760003560e01c80637d5559d91161010f578063b76ebb56116100a2578063daee6fbc11610071578063daee6fbc1461045c578063f1b9ea171461046f578063f2fde38b1461048f578063f53aac2a146104a257600080fd5b8063b76ebb5614610424578063c2fb26a614610439578063d1d758cb14610441578063d69418f31461045457600080fd5b80639f88151e116100de5780639f88151e146103e3578063a81968f7146103f6578063a935ee0e14610409578063b7013dc11461041c57600080fd5b80637d5559d9146103735780637f476b6f146103865780638da5cb5b146103a6578063974d4ed8146103b757600080fd5b80632b64deec116101875780635023a0c9116101565780635023a0c91461031e57806358dee05414610345578063666181a914610358578063715018a61461036b57600080fd5b80632b64deec146102b35780632e5abd7b146102d85780633074eebc146102eb57806332d268a5146102fe57600080fd5b80631972033f116101c35780631972033f14610259578063212e94c91461026c57806329ec94421461027f5780632a6d3e9b146102a057600080fd5b806314794702146101ea57806315534b70146101ff578063181031b11461022f575b600080fd5b6101fd6101f836600461434c565b6104c2565b005b600454610212906001600160a01b031681565b6040516001600160a01b0390911681526020015b60405180910390f35b60055461023c9060581b81565b6040516affffffffffffffffffffff199091168152602001610226565b6101fd61026736600461434c565b6105b4565b6101fd61027a366004614379565b61073e565b61029261028d3660046143c4565b61092f565b604051908152602001610226565b6101fd6102ae3660046143f0565b610960565b6102c66102c136600461434c565b6109af565b604051610226969594939291906144ae565b6101fd6102e63660046144fe565b610b12565b6102926102f93660046143c4565b610c5b565b61031161030c36600461434c565b610c77565b604051610226919061457f565b61033161032c36600461434c565b610ee6565b604051610226989796959493929190614666565b6101fd610353366004614802565b610fd0565b6101fd610366366004614890565b6110cc565b6101fd611159565b6101fd6103813660046148ad565b61116d565b6103996103943660046149b1565b6112a8565b6040516102269190614a42565b6003546001600160a01b0316610212565b6103ca6103c536600461434c565b611629565b6040516102269d9c9b9a99989796959493929190614a65565b6102926103f1366004614ae1565b611724565b6101fd610404366004614bc4565b61174f565b6101fd610417366004614c72565b611b53565b610292611b8f565b61042c611bf2565b6040516102269190614ca0565b610399611ca0565b61042c61044f366004614ae1565b611d29565b61042c611da5565b61042c61046a366004614ae1565b611e51565b61048261047d36600461434c565b611ecb565b6040516102269190614ce3565b6101fd61049d366004614890565b612029565b6104b56104b036600461434c565b6120b6565b6040516102269190614d8b565b600081116105175760405162461bcd60e51b815260206004820152601d60248201527f616d6f756e74206d7573742062652067726561746572207468616e203000000060448201526064015b60405180910390fd5b336000908152600c60205260409020548111156105765760405162461bcd60e51b815260206004820152601460248201527f696e73756666696369656e742062616c616e6365000000000000000000000000604482015260640161050e565b336000908152600c602052604081208054839290610595908490614e18565b90915550506004546105b1906001600160a01b03163383612293565b50565b6105bc61233c565b600854811061060d5760405162461bcd60e51b815260206004820152601360248201527f696e76616c69642062657420736c697020696400000000000000000000000000604482015260640161050e565b60026008828154811061062257610622614e2b565b90600052602060002090600a020160050160019054906101000a900460ff16600581111561065257610652614424565b146106c45760405162461bcd60e51b8152602060048201526024808201527f63616e6e6f742063616e63656c206120626574207468617473206e6f7420706c60448201527f6163656400000000000000000000000000000000000000000000000000000000606482015260840161050e565b6003600882815481106106d9576106d9614e2b565b90600052602060002090600a020160050160016101000a81548160ff0219169083600581111561070b5761070b614424565b021790555060405181907f81eb4691b662c46a6dec13291164c2bec8b699c7596e4ab3d8f23ce01943647090600090a250565b61074661233c565b600082600781111561075a5761075a614424565b1415801561077a5750600382600781111561077757610777614424565b14155b6107c65760405162461bcd60e51b815260206004820152601e60248201527f6f7574636f6d652063616e6e6f74206265206e6f6e65206f7220736f6c640000604482015260640161050e565b60016000848152600d60205260409020600b015460ff1660078111156107ee576107ee614424565b1461083b5760405162461bcd60e51b815260206004820152601a60248201527f696e76616c6964206f7574636f6d65207472616e736974696f6e000000000000604482015260640161050e565b60055460581b6affffffffffffffffffffff191615610863576005546108639060581b612396565b6000838152600d60205260409020600b01805483919060ff1916600183600781111561089157610891614424565b021790555060008060006108a586856124d5565b9250925092506108b683838361259d565b600582015460ff1680156108db575060058560078111156108d9576108d9614424565b145b80156108e5575083155b156109275760058201805461ff00191661030017905560405183907f81eb4691b662c46a6dec13291164c2bec8b699c7596e4ab3d8f23ce01943647090600090a25b505050505050565b600b602052816000526040600020818154811061094b57600080fd5b90600052602060002001600091509150505481565b806008838154811061097457610974614e2b565b90600052602060002090600a020160050160016101000a81548160ff021916908360058111156109a6576109a6614424565b02179055505050565b600781815481106109bf57600080fd5b60009182526020909120600690910201805460018201546002830154600384018054939550919360ff909116929091906109f890614e41565b80601f0160208091040260200160405190810160405280929190818152602001828054610a2490614e41565b8015610a715780601f10610a4657610100808354040283529160200191610a71565b820191906000526020600020905b815481529060010190602001808311610a5457829003601f168201915b505050505090806004018054610a8690614e41565b80601f0160208091040260200160405190810160405280929190818152602001828054610ab290614e41565b8015610aff5780601f10610ad457610100808354040283529160200191610aff565b820191906000526020600020905b815481529060010190602001808311610ae257829003601f168201915b5050506005909301549192505060ff1686565b610b1a61233c565b60055460581b6affffffffffffffffffffff191615610b4257600554610b429060581b612396565b6000838152600d60205260408120600a018054849290610b63908490614e75565b90915550506000838152600d60205260409020600a8101546009909101541015610bf55760405162461bcd60e51b815260206004820152602360248201527f63616e6e6f742073656c6c206d6f726520736861726573207468616e20626f7560448201527f6768740000000000000000000000000000000000000000000000000000000000606482015260840161050e565b6000838152600d60205260409020600a81015460099091015403610c4c576000838152600d60205260408120600b01805460ff191660031790558080610c3b86856124d5565b92509250925061092783838361259d565b61092783826124d5565b505050565b600a602052816000526040600020818154811061094b57600080fd5b610c7f61419d565b60088281548110610c9257610c92614e2b565b60009182526020909120604080516101608101909152600a909202018054829060ff166001811115610cc657610cc6614424565b6001811115610cd757610cd7614424565b81526001820154602082015260028201546040820152600382015460608201526004820154608082015260058083015460ff808216151560a085015260c0909301926101009091041690811115610d3057610d30614424565b6005811115610d4157610d41614424565b8152602001600682018054610d5590614e41565b80601f0160208091040260200160405190810160405280929190818152602001828054610d8190614e41565b8015610dce5780601f10610da357610100808354040283529160200191610dce565b820191906000526020600020905b815481529060010190602001808311610db157829003601f168201915b5050505050815260200160078201805480602002602001604051908101604052809291908181526020018280548015610e2657602002820191906000526020600020905b815481526020019060010190808311610e12575b5050505050815260200160088201805480602002602001604051908101604052809291908181526020018280548015610e7e57602002820191906000526020600020905b815481526020019060010190808311610e6a575b5050505050815260200160098201805480602002602001604051908101604052809291908181526020018280548015610ed657602002820191906000526020600020905b815481526020019060010190808311610ec2575b5050505050815250509050919050565b60088181548110610ef657600080fd5b60009182526020909120600a9091020180546001820154600283015460038401546004850154600586015460068701805460ff978816995095979496939592948285169461010090930490921692610f4d90614e41565b80601f0160208091040260200160405190810160405280929190818152602001828054610f7990614e41565b8015610fc65780601f10610f9b57610100808354040283529160200191610fc6565b820191906000526020600020905b815481529060010190602001808311610fa957829003601f168201915b5050505050905088565b60076040518060c00160405280600081526020018667ffffffffffffffff16815260200185600181111561100657611006614424565b81526020810185905260408101849052606001600290528154600181810184556000938452602093849020835160069093020191825592820151818401556040820151600282018054939492939192909160ff191690838181111561106d5761106d614424565b0217905550606082015160038201906110869082614ecf565b506080820151600482019061109b9082614ecf565b5060a082015160058201805460ff191660018360028111156110bf576110bf614424565b0217905550505050505050565b6110d461233c565b6001600160a01b03811661112a5760405162461bcd60e51b815260206004820152601b60248201527f696e76616c6964204d5553444320746f6b656e20616464726573730000000000604482015260640161050e565b6004805473ffffffffffffffffffffffffffffffffffffffff19166001600160a01b0392909216919091179055565b61116161233c565b61116b60006126f6565b565b61117561233c565b60055460581b6affffffffffffffffffffff19161561119d5760055461119d9060581b612396565b600882815481106111b0576111b0614e2b565b6000918252602080832084516009600a9485029092018201805460018181018355918752848720019190915585518552600d8352604094859020865181559286015183820155938501516002830155606085015160038301556080850151600483015560a0850151600583015560c0850151600683015560e085015160078084019190915561010086015160088401556101208601519183019190915561014085015192820192909255610160840151600b82018054869593949293919260ff199091169190849081111561128757611287614424565b0217905550610180820151600c8201906112a19082614ecf565b5050505050565b60606112e56040518060a001604052806060815260200160006001600160a01b031681526020016000815260200160608152602001606081525090565b60006112f085612755565b868660405160200161130493929190614f8e565b60408051601f19818403018152828252805160208083019190912060008086528583018086529190915260ff89850135169385019390935287356060850152870135608084015292509060019060a0016020604051602081039080840390855afa158015611376573d6000803e3d6000fd5b5050604051601f1901516001600160a01b038116602086015291506000905061139f88886127f6565b9050468160a00151146113de576040517f362c833700000000000000000000000000000000000000000000000000000000815260040160405180910390fd5b60016040516113ed9190614fe2565b60405180910390208160000151805190602001201461141f5760405163283d62bd60e01b815260040160405180910390fd5b8051845260208101516001600160a01b0383811691161461146c576040517f05cc02e100000000000000000000000000000000000000000000000000000000815260040160405180910390fd5b610120810151511580159061148e575061148a816101200151612de7565b4211155b156114c5576040517f299d02f100000000000000000000000000000000000000000000000000000000815260040160405180910390fd5b61010081015151156114ec5760006114e1826101000151612de7565b6040860152506114ff565b6114f96201518042614e75565b60408501525b8360400151421061152357604051630b17115560e41b815260040160405180910390fd5b604081015160608501526101608101515167ffffffffffffffff81111561154c5761154c6146e8565b60405190808252806020026020018201604052801561157f57816020015b606081526020019060019003908161156a5790505b50608085015260005b816101600151518110156115de5781610160015181815181106115ad576115ad614e2b565b6020026020010151856080015182815181106115cb576115cb614e2b565b6020908102919091010152600101611588565b50600061161a6002546000801b876040516020016115fc9190615057565b60408051601f19818403018152602083019091526000825290612e56565b955050505050505b9392505050565b600d60205280600052604060002060009150905080600001549080600101549080600201549080600301549080600401549080600501549080600601549080600701549080600801549080600901549080600a01549080600b0160009054906101000a900460ff169080600c0180546116a190614e41565b80601f01602080910402602001604051908101604052809291908181526020018280546116cd90614e41565b801561171a5780601f106116ef5761010080835404028352916020019161171a565b820191906000526020600020905b8154815290600101906020018083116116fd57829003601f168201915b505050505090508d565b60008061173083612f48565b6001600160a01b03166000908152600c60205260409020549392505050565b82518451146117a05760405162461bcd60e51b815260206004820152601860248201527f6172726179206c656e67746873206d757374206d617463680000000000000000604482015260640161050e565b600086116118165760405162461bcd60e51b815260206004820152602860248201527f636f6c6c61746572616c20616d6f756e74206d7573742062652067726561746560448201527f72207468616e2030000000000000000000000000000000000000000000000000606482015260840161050e565b60005b84518110156118a057600085828151811061183657611836614e2b565b602002602001015160001c905060078054905081106118975760405162461bcd60e51b815260206004820152601660248201527f696e76616c6964206d61726b6574706c61636520494400000000000000000000604482015260640161050e565b50600101611819565b506004546118b9906001600160a01b0316333089612fc8565b60088054604080516101608101909152909190808a60018111156118df576118df614424565b81526020018981526020016000815260200188815260200184815260200185151581526020016000600581111561191857611918614424565b8152602001604051806020016040528060008152508152602001878152602001868152602001600067ffffffffffffffff811115611958576119586146e8565b604051908082528060200260200182016040528015611981578160200160208202803683370190505b509052815460018181018455600093845260209093208251600a90920201805492939092839160ff199091169083818111156119bf576119bf614424565b02179055506020820151600182015560408201516002820155606082015160038201556080820151600482015560a08201516005808301805492151560ff1984168117825560c086015193919261ff001990911661ffff199092169190911790610100908490811115611a3457611a34614424565b021790555060e08201516006820190611a4d9082614ecf565b506101008201518051611a6a91600784019160209091019061420b565b506101208201518051611a8791600884019160209091019061420b565b506101408201518051611aa491600984019160209091019061420b565b5050506000818152600960209081526040808320805473ffffffffffffffffffffffffffffffffffffffff1916339081179091558352600a8252822080546001810182559083529082200182905560068054899290611b04908490614e75565b92505081905550807fa40b3c87e86bd5f4b59c8ee5d83a7ced69629a25ee5627dccfa8918958b38dc488888888604051611b41949392919061511a565b60405180910390a25050505050505050565b611b5b61233c565b600580547fffffffffffffffffffffff0000000000000000000000000000000000000000001660589290921c919091179055565b600033611bde5760405162461bcd60e51b815260206004820152601760248201527f61757468656e7469636174696f6e207265717569726564000000000000000000604482015260640161050e565b50336000908152600c602052604090205490565b606033611c415760405162461bcd60e51b815260206004820152601760248201527f61757468656e7469636174696f6e207265717569726564000000000000000000604482015260640161050e565b336000908152600a602090815260409182902080548351818402810184019094528084529091830182828015611c9657602002820191906000526020600020905b815481526020019060010190808311611c82575b5050505050905090565b606060018054611caf90614e41565b80601f0160208091040260200160405190810160405280929190818152602001828054611cdb90614e41565b8015611c965780601f10611cfd57610100808354040283529160200191611c96565b820191906000526020600020905b815481529060010190602001808311611d0b57509395945050505050565b60606000611d3683612f48565b6001600160a01b0381166000908152600b60209081526040918290208054835181840281018401909452808452939450919290830182828015611d9857602002820191906000526020600020905b815481526020019060010190808311611d84575b5050505050915050919050565b606033611df45760405162461bcd60e51b815260206004820152601760248201527f61757468656e7469636174696f6e207265717569726564000000000000000000604482015260640161050e565b336000908152600b602090815260409182902080548351818402810184019094528084529091830182828015611c965760200282019190600052602060002090815481526020019060010190808311611c82575050505050905090565b60606000611e5e83612f48565b6001600160a01b0381166000908152600a60209081526040918290208054835181840281018401909452808452939450919290830182828015611d985760200282019190600052602060002090815481526020019060010190808311611d84575050505050915050919050565b611ed3614256565b600d6000838152602001908152602001600020604051806101a001604052908160008201548152602001600182015481526020016002820154815260200160038201548152602001600482015481526020016005820154815260200160068201548152602001600782015481526020016008820154815260200160098201548152602001600a8201548152602001600b820160009054906101000a900460ff166007811115611f8457611f84614424565b6007811115611f9557611f95614424565b8152602001600c82018054611fa990614e41565b80601f0160208091040260200160405190810160405280929190818152602001828054611fd590614e41565b8015610ed65780601f10611ff757610100808354040283529160200191610ed6565b820191906000526020600020905b81548152906001019060200180831161200557505050919092525091949350505050565b61203161233c565b6001600160a01b0381166120ad5760405162461bcd60e51b815260206004820152602660248201527f4f776e61626c653a206e6577206f776e657220697320746865207a65726f206160448201527f6464726573730000000000000000000000000000000000000000000000000000606482015260840161050e565b6105b1816126f6565b6120be6142d2565b600782815481106120d1576120d1614e2b565b90600052602060002090600602016040518060c001604052908160008201548152602001600182015481526020016002820160009054906101000a900460ff16600181111561212257612122614424565b600181111561213357612133614424565b815260200160038201805461214790614e41565b80601f016020809104026020016040519081016040528092919081815260200182805461217390614e41565b80156121c05780601f10612195576101008083540402835291602001916121c0565b820191906000526020600020905b8154815290600101906020018083116121a357829003601f168201915b505050505081526020016004820180546121d990614e41565b80601f016020809104026020016040519081016040528092919081815260200182805461220590614e41565b80156122525780601f1061222757610100808354040283529160200191612252565b820191906000526020600020905b81548152906001019060200180831161223557829003601f168201915b5050509183525050600582015460209091019060ff16600281111561227957612279614424565b600281111561228a5761228a614424565b90525092915050565b6040516001600160a01b038316602482015260448101829052610c569084907fa9059cbb00000000000000000000000000000000000000000000000000000000906064015b60408051601f198184030181529190526020810180517bffffffffffffffffffffffffffffffffffffffffffffffffffffffff167fffffffff000000000000000000000000000000000000000000000000000000009093169290921790915261301f565b6003546001600160a01b0316331461116b5760405162461bcd60e51b815260206004820181905260248201527f4f776e61626c653a2063616c6c6572206973206e6f7420746865206f776e6572604482015260640161050e565b6000806124316040518060400160405280601781526020017f726f666c2e4973417574686f72697a65644f726967696e0000000000000000008152508460405160200161241d91907f550000000000000000000000000000000000000000000000000000000000000081526affffffffffffffffffffff1991909116600182015260160190565b604051602081830303815290604052613107565b915091508167ffffffffffffffff16600014158061245157508051600114155b8061249e57508060008151811061246a5761246a614e2b565b6020910101516001600160f81b0319167ff50000000000000000000000000000000000000000000000000000000000000014155b15610c56576040517f6890282f00000000000000000000000000000000000000000000000000000000815260040160405180910390fd5b6000828152600d60209081526040808320600101548084526009909252822054600880549293926001600160a01b03909216918490811061251857612518614e2b565b90600052602060002090600a020191508382600201600082825461253c9190614e75565b90915550506000858152600d602052604081206008018054869290612562908490614e75565b90915550506001600160a01b0381166000908152600c60205260408120805486929061258f908490614e75565b925050819055509250925092565b60005b6009830154811015612601576125ef600d60008560090184815481106125c8576125c8614e2b565b600091825260208083209091015483528201929092526040019020600b015460ff166131f6565b6125f95750505050565b6001016125a0565b506001600160a01b0381166000908152600a60205260408120905b81548110156126c6578482828154811061263857612638614e2b565b9060005260206000200154036126be578154829061265890600190614e18565b8154811061266857612668614e2b565b906000526020600020015482828154811061268557612685614e2b565b9060005260206000200181905550818054806126a3576126a361514b565b600190038181906000526020600020016000905590556126c6565b60010161261c565b50506001600160a01b03166000908152600b60209081526040822080546001810182559083529120019190915550565b600380546001600160a01b0383811673ffffffffffffffffffffffffffffffffffffffff19831681179093556040519116919082907f8be0079c531659141344cd1fd0a4f28419497f9722a3daafe3b4186f6b6457e090600090a35050565b6060600061276283613230565b600101905060008167ffffffffffffffff811115612782576127826146e8565b6040519080825280601f01601f1916602001820160405280156127ac576020820181803683370190505b5090508181016020015b600019017f3031323334353637383961626364656600000000000000000000000000000000600a86061a8153600a85049450846127b6575b509392505050565b6128636040518061018001604052806060815260200160006001600160a01b03168152602001606081526020016060815260200160608152602001600081526020016060815260200160608152602001606081526020016060815260200160608152602001606081525090565b6128d06040518061018001604052806060815260200160006001600160a01b03168152602001606081526020016060815260200160608152602001600081526020016060815260200160608152602001606081526020016060815260200160608152602001606081525090565b60005b83811015612957578484828181106128ed576128ed614e2b565b909101356001600160f81b031916600160fd1b03905061294f5761294885858080601f016020809104026020016040519081016040528093929190818152602001838380828437600092018290525092508591506133129050565b8252612957565b6001016128d3565b612962603282614e75565b90506129c96129c486868080601f0160208091040260200160405190810160405280939291908181526020018383808284376000920191909152506129ae925060029150869050614e75565b9350836129bc602882614e75565b945084613312565b6133e9565b6001600160a01b031660208301526129e2600282614e75565b90508381108015612a1c5750848482818110612a0057612a00614e2b565b9050013560f81c60f81b6001600160f81b031916600560f91b14155b15612abb57805b84811015612ab957858582818110612a3d57612a3d614e2b565b909101356001600160f81b031916600560f91b039050612ab157612a9a86868080601f0160208091040260200160405190810160405280939291908181526020018383808284376000920191909152508692508591506133129050565b6040840152612aaa816001614e75565b9150612ab9565b600101612a23565b505b80612ac581615177565b915050612b0985856040518060400160405280600381526020017f555249000000000000000000000000000000000000000000000000000000000081525084613536565b836060018193508290525050612b5685856040518060400160405280600781526020017f56657273696f6e0000000000000000000000000000000000000000000000000081525084613536565b8360800181935082905250506060612ba586866040518060400160405280600881526020017f436861696e20494400000000000000000000000000000000000000000000000081525085613536565b92509050612bb281613752565b60a084015260408051808201909152600581527f4e6f6e63650000000000000000000000000000000000000000000000000000006020820152612bf9908790879085613536565b60c08501829052905190925060081115612c3f576040517fb4bc030c00000000000000000000000000000000000000000000000000000000815260040160405180910390fd5b612c8086866040518060400160405280600981526020017f497373756564204174000000000000000000000000000000000000000000000081525085613536565b8460e0018194508290525050612ccd86866040518060400160405280600f81526020017f45787069726174696f6e2054696d65000000000000000000000000000000000081525085613536565b84610100018194508290525050612d1b86866040518060400160405280600a81526020017f4e6f74204265666f72650000000000000000000000000000000000000000000081525085613536565b84610120018194508290525050612d6986866040518060400160405280600a81526020017f526571756573742049440000000000000000000000000000000000000000000081525085613536565b846101400181945082905250506000612db987876040518060400160405280600981526020017f5265736f7572636573000000000000000000000000000000000000000000000081525086613536565b915050828114612dda57612dce8787836137ac565b61016086019190915292505b5091925050505b92915050565b6000612de1612e01612dfc8460006004613312565b613752565b612e11612dfc8560056007613312565b612e21612dfc866008600a613312565b612e31612dfc87600b600d613312565b612e41612dfc88600e6010613312565b612e51612dfc8960116013613312565b613a9d565b60606000807301000000000000000000000000000000000000036001600160a01b031687878787604051602001612e909493929190615190565b60408051601f1981840301815290829052612eaa916151c1565b600060405180830381855afa9150503d8060008114612ee5576040519150601f19603f3d011682016040523d82523d6000602084013e612eea565b606091505b509150915081612f3c5760405162461bcd60e51b815260206004820152600f60248201527f656e63727970743a206661696c65640000000000000000000000000000000000604482015260640161050e565b9150505b949350505050565b80516020808301919091206000908152908190526040812054829060ff1615612f9d576040517f9ea6784800000000000000000000000000000000000000000000000000000000815260040160405180910390fd5b8251600003612faf5760009150612fc2565b6000612fba84613c50565b602001519250505b50919050565b6040516001600160a01b03808516602483015283166044820152606481018290526130199085907f23b872dd00000000000000000000000000000000000000000000000000000000906084016122d8565b50505050565b6000613074826040518060400160405280602081526020017f5361666545524332303a206c6f772d6c6576656c2063616c6c206661696c6564815250856001600160a01b0316613d2d9092919063ffffffff16565b905080516000148061309557508080602001905181019061309591906151dd565b610c565760405162461bcd60e51b815260206004820152602a60248201527f5361666545524332303a204552433230206f7065726174696f6e20646964206e60448201527f6f74207375636365656400000000000000000000000000000000000000000000606482015260840161050e565b600060606000807301000000000000000000000000000000000001036001600160a01b0316868660405160200161313f9291906151fa565b60408051601f1981840301815290829052613159916151c1565b600060405180830381855afa9150503d8060008114613194576040519150601f19603f3d011682016040523d82523d6000602084013e613199565b606091505b5091509150816131d5576040517f902e94f800000000000000000000000000000000000000000000000000000000815260040160405180910390fd5b808060200190518101906131e9919061524f565b9097909650945050505050565b60008082600781111561320b5761320b614424565b14158015612de15750600182600781111561322857613228614424565b141592915050565b6000807a184f03e93ff9f4daa797ed6e38ed64bf6a1f0100000000000000008310613279577a184f03e93ff9f4daa797ed6e38ed64bf6a1f010000000000000000830492506040015b6d04ee2d6d415b85acef810000000083106132a5576d04ee2d6d415b85acef8100000000830492506020015b662386f26fc1000083106132c357662386f26fc10000830492506010015b6305f5e10083106132db576305f5e100830492506008015b61271083106132ef57612710830492506004015b60648310613301576064830492506002015b600a8310612de15760010192915050565b606060006133208484614e18565b67ffffffffffffffff811115613338576133386146e8565b6040519080825280601f01601f191660200182016040528015613362576020820181803683370190505b509050835b83811080156133765750855181105b156133e05785818151811061338d5761338d614e2b565b01602001516001600160f81b031916826133a78784614e18565b815181106133b7576133b7614e2b565b60200101906001600160f81b031916908160001a905350806133d881615177565b915050613367565b50949350505050565b60008151602814613426576040517facf8696900000000000000000000000000000000000000000000000000000000815260040160405180910390fd5b60006002835161343691906152b4565b67ffffffffffffffff81111561344e5761344e6146e8565b6040519080825280601f01601f191660200182016040528015613478576020820181803683370190505b50905060005b6002845161348c91906152b4565b811015613522576134ca846134a28360026152c8565b6134ad906001614e75565b815181106134bd576134bd614e2b565b016020015160f81c613d3c565b6134d9856134ad8460026152c8565b6134e49060106152df565b6134ee91906152fb565b60f81b82828151811061350357613503614e2b565b60200101906001600160f81b031916908160001a90535060010161347e565b5061352c81615314565b60601c9392505050565b60606000825b8581101561366d5786868281811061355657613556614e2b565b909101356001600160f81b0319167f3a0000000000000000000000000000000000000000000000000000000000000003905061365b5784805190602001206135d788888080601f0160208091040260200160405190810160405280939291908181526020018383808284376000920191909152508992508691506133129050565b80519060200120146135fc575050604080516020810190915260008152905081613749565b8061360681615177565b9150508581108015613640575086868281811061362557613625614e2b565b9050013560f81c60f81b6001600160f81b031916600160fd1b145b15613653578061364f81615177565b9150505b80935061366d565b8061366581615177565b91505061353c565b858110156137015786868281811061368757613687614e2b565b909101356001600160f81b031916600560f91b0390506136f9576136e487878080601f0160208091040260200160405190810160405280939291908181526020018383808284376000920191909152508892508591506133129050565b6136ef826001614e75565b9250925050613749565b60010161366d565b61374487878080601f0160208091040260200160405190810160405280939291908181526020018383808284376000920191909152508892508591506133129050565b925090505b94509492505050565b600080805b83518110156137a557603084828151811061377457613774614e2b565b0160200151613786919060f81c614e18565b61379183600a6152c8565b61379b9190614e75565b9150600101613757565b5092915050565b6060600082815b6137be600187614e18565b8210156138b9578686838181106137d7576137d7614e2b565b9050013560f81c60f81b6001600160f81b031916602d60f81b14801561382f57508686613805846001614e75565b81811061381457613814614e2b565b9050013560f81c60f81b6001600160f81b031916600160fd1b145b156138535761383f600283614e75565b91508061384b81615177565b915050613858565b6138b9565b8582108015613890575086868381811061387457613874614e2b565b9050013560f81c60f81b6001600160f81b031916600a60f81b14155b156138a7578161389f81615177565b925050613858565b816138b181615177565b9250506137b3565b60008167ffffffffffffffff8111156138d4576138d46146e8565b60405190808252806020026020018201604052801561390757816020015b60608152602001906001900390816138f25790505b50905085925060005b61391b600189614e18565b841080156139295750828114155b15613a8f5788888581811061394057613940614e2b565b9050013560f81c60f81b6001600160f81b031916602d60f81b1480156139985750888861396e866001614e75565b81811061397d5761397d614e2b565b9050013560f81c60f81b6001600160f81b031916600160fd1b145b156139ab576139a8846002614e75565b96505b87841080156139e357508888858181106139c7576139c7614e2b565b9050013560f81c60f81b6001600160f81b031916600a60f81b14155b156139fa57836139f281615177565b9450506139ab565b613a3d89898080601f0160208091040260200160405190810160405280939291908181526020018383808284376000920191909152508b92508891506133129050565b828281518110613a4f57613a4f614e2b565b60200260200101819052508080613a6590615177565b915050878403613a7d5783613a7981615367565b9450505b83613a8781615177565b945050613910565b509791965090945050505050565b60006107b25b8761ffff168161ffff161015613aef57613abc81613ec8565b15613ad657613acf6301e2850083614e75565b9150613ae7565b613ae46301e1338083614e75565b91505b600101613aa3565b613af7614318565b601f8152613b0489613ec8565b15613b1557601d6020820152613b1d565b601c60208201525b601f60408201819052601e606083018190526080830182905260a0830181905260c0830182905260e0830182905261010083018190526101208301829052610140830152610160820152600191505b8760ff168261ffff161015613bca5780613b8760018461537e565b61ffff16600c8110613b9b57613b9b614e2b565b6020020151613bad9062015180615398565b613bbd9063ffffffff1684614e75565b9250600190910190613b6c565b613bd56001886153b7565b613be59060ff1662015180615398565b613bf59063ffffffff1684614e75565b9250613c0660ff8716610e10615398565b613c169063ffffffff1684614e75565b9250613c2660ff8616603c6153d0565b613c349061ffff1684614e75565b9250613c4360ff851684614e75565b9998505050505050505050565b613c8b6040518060a001604052806060815260200160006001600160a01b031681526020016000815260200160608152602001606081525090565b6000613cad6002546000801b8560405180602001604052806000815250613f27565b9050600081806020019051810190613cc5919061549b565b90506001604051613cd69190614fe2565b604051809103902081600001518051906020012014613d085760405163283d62bd60e01b815260040160405180910390fd5b428160400151101561162257604051630b17115560e41b815260040160405180910390fd5b6060612f40848460008561400d565b60007f300000000000000000000000000000000000000000000000000000000000000060f883901b6001600160f81b03191610801590613daa57507f390000000000000000000000000000000000000000000000000000000000000060f883901b6001600160f81b03191611155b15613dba57612de16030836153b7565b7f610000000000000000000000000000000000000000000000000000000000000060f883901b6001600160f81b03191610801590613e2657507f660000000000000000000000000000000000000000000000000000000000000060f883901b6001600160f81b03191611155b15613e42576061613e3883600a6152fb565b612de191906153b7565b7f410000000000000000000000000000000000000000000000000000000000000060f883901b6001600160f81b03191610801590613eae57507f460000000000000000000000000000000000000000000000000000000000000060f883901b6001600160f81b03191611155b15613ec0576041613e3883600a6152fb565b506000919050565b6000613ed560048361557f565b61ffff1615613ee657506000919050565b613ef160648361557f565b61ffff1615613f0257506001919050565b613f0e6101908361557f565b61ffff1615613f1f57506000919050565b506001919050565b60606000807301000000000000000000000000000000000000046001600160a01b031687878787604051602001613f619493929190615190565b60408051601f1981840301815290829052613f7b916151c1565b600060405180830381855afa9150503d8060008114613fb6576040519150601f19603f3d011682016040523d82523d6000602084013e613fbb565b606091505b509150915081612f3c5760405162461bcd60e51b815260206004820152600f60248201527f646563727970743a206661696c65640000000000000000000000000000000000604482015260640161050e565b6060824710156140855760405162461bcd60e51b815260206004820152602660248201527f416464726573733a20696e73756666696369656e742062616c616e636520666f60448201527f722063616c6c0000000000000000000000000000000000000000000000000000606482015260840161050e565b600080866001600160a01b031685876040516140a191906151c1565b60006040518083038185875af1925050503d80600081146140de576040519150601f19603f3d011682016040523d82523d6000602084013e6140e3565b606091505b50915091506140f4878383876140ff565b979650505050505050565b6060831561416e578251600003614167576001600160a01b0385163b6141675760405162461bcd60e51b815260206004820152601d60248201527f416464726573733a2063616c6c20746f206e6f6e2d636f6e7472616374000000604482015260640161050e565b5081612f40565b612f4083838151156141835781518083602001fd5b8060405162461bcd60e51b815260040161050e9190614a42565b604080516101608101909152806000815260200160008152602001600081526020016000815260200160008152602001600015158152602001600060058111156141e9576141e9614424565b8152602001606081526020016060815260200160608152602001606081525090565b828054828255906000526020600020908101928215614246579160200282015b8281111561424657825182559160200191906001019061422b565b50614252929150614337565b5090565b604051806101a001604052806000801916815260200160008152602001600081526020016000815260200160008152602001600081526020016000815260200160008152602001600081526020016000815260200160008152602001600060078111156142c5576142c5614424565b8152602001606081525090565b6040518060c001604052806000815260200160008152602001600060018111156142fe576142fe614424565b815260606020820181905260408201819052016000905290565b604051806101800160405280600c906020820280368337509192915050565b5b808211156142525760008155600101614338565b60006020828403121561435e57600080fd5b5035919050565b80356008811061437457600080fd5b919050565b60008060006060848603121561438e57600080fd5b8335925061439e60208501614365565b929592945050506040919091013590565b6001600160a01b03811681146105b157600080fd5b600080604083850312156143d757600080fd5b82356143e2816143af565b946020939093013593505050565b6000806040838503121561440357600080fd5b8235915060208301356006811061441957600080fd5b809150509250929050565b634e487b7160e01b600052602160045260246000fd5b600281106105b1576105b1614424565b60005b8381101561446557818101518382015260200161444d565b50506000910152565b6000815180845261448681602086016020860161444a565b601f01601f19169290920160200192915050565b600381106144aa576144aa614424565b9052565b8681528560208201526144c08561443a565b84604082015260c0606082015260006144dc60c083018661446e565b82810360808401526144ee818661446e565b9150506140f460a083018461449a565b60008060006060848603121561451357600080fd5b505081359360208301359350604090920135919050565b6144aa8161443a565b600681106144aa576144aa614424565b600081518084526020840193506020830160005b82811015614575578151865260209586019590910190600101614557565b5093949350505050565b6020815261459160208201835161452a565b602082015160408201526040820151606082015260608201516080820152608082015160a0820152600060a08301516145ce60c084018215159052565b5060c08301516145e160e0840182614533565b5060e08301516101606101008401526145fe61018084018261446e565b9050610100840151601f198483030161012085015261461d8282614543565b915050610120840151601f198483030161014085015261463d8282614543565b915050610140840151601f198483030161016085015261465d8282614543565b95945050505050565b61466f8961443a565b88815287602082015286604082015285606082015284608082015283151560a082015261469f60c0820184614533565b61010060e082015260006146b761010083018461446e565b9a9950505050505050505050565b67ffffffffffffffff811681146105b157600080fd5b600281106105b157600080fd5b634e487b7160e01b600052604160045260246000fd5b6040516101a0810167ffffffffffffffff81118282101715614722576147226146e8565b60405290565b60405160a0810167ffffffffffffffff81118282101715614722576147226146e8565b604051601f8201601f1916810167ffffffffffffffff81118282101715614774576147746146e8565b604052919050565b600067ffffffffffffffff821115614796576147966146e8565b50601f01601f191660200190565b60006147b76147b28461477c565b61474b565b90508281528383830111156147cb57600080fd5b828260208301376000602084830101529392505050565b600082601f8301126147f357600080fd5b611622838335602085016147a4565b6000806000806080858703121561481857600080fd5b8435614823816146c5565b93506020850135614833816146db565b9250604085013567ffffffffffffffff81111561484f57600080fd5b61485b878288016147e2565b925050606085013567ffffffffffffffff81111561487857600080fd5b614884878288016147e2565b91505092959194509250565b6000602082840312156148a257600080fd5b8135611622816143af565b600080604083850312156148c057600080fd5b82359150602083013567ffffffffffffffff8111156148de57600080fd5b83016101a081860312156148f157600080fd5b6148f96146fe565b813581526020808301359082015260408083013590820152606080830135908201526080808301359082015260a0808301359082015260c0808301359082015260e080830135908201526101008083013590820152610120808301359082015261014080830135908201526149716101608301614365565b61016082015261018082013567ffffffffffffffff81111561499257600080fd5b61499e878285016147e2565b6101808301525080925050509250929050565b600080600083850360808112156149c757600080fd5b843567ffffffffffffffff8111156149de57600080fd5b8501601f810187136149ef57600080fd5b803567ffffffffffffffff811115614a0657600080fd5b876020828401011115614a1857600080fd5b602091909101945092506060601f1982011215614a3457600080fd5b506020840190509250925092565b602081526000611622602083018461446e565b600881106144aa576144aa614424565b8d81528c60208201528b60408201528a60608201528960808201528860a08201528760c08201528660e0820152856101008201528461012082015283610140820152614ab5610160820184614a55565b6101a06101808201526000614ace6101a083018461446e565b9f9e505050505050505050505050505050565b600060208284031215614af357600080fd5b813567ffffffffffffffff811115614b0a57600080fd5b8201601f81018413614b1b57600080fd5b612f40848235602084016147a4565b600067ffffffffffffffff821115614b4457614b446146e8565b5060051b60200190565b600082601f830112614b5f57600080fd5b8135614b6d6147b282614b2a565b8082825260208201915060208360051b860101925085831115614b8f57600080fd5b602085015b83811015614bac578035835260209283019201614b94565b5095945050505050565b80151581146105b157600080fd5b600080600080600080600060e0888a031215614bdf57600080fd5b8735614bea816146db565b96506020880135955060408801359450606088013567ffffffffffffffff811115614c1457600080fd5b614c208a828b01614b4e565b945050608088013567ffffffffffffffff811115614c3d57600080fd5b614c498a828b01614b4e565b93505060a0880135614c5a81614bb6565b96999598509396929591949193505060c09091013590565b600060208284031215614c8457600080fd5b81356affffffffffffffffffffff198116811461162257600080fd5b602080825282518282018190526000918401906040840190835b81811015614cd8578351835260209384019390920191600101614cba565b509095945050505050565b6020815281516020820152602082015160408201526040820151606082015260608201516080820152608082015160a082015260a082015160c082015260c082015160e082015260e08201516101008201526101008201516101208201526101208201516101408201526101408201516101608201526000610160830151614d6f610180840182614a55565b506101808301516101a080840152612f406101c084018261446e565b60208152815160208201526020820151604082015260006040830151614db08161443a565b80606084015250606083015160c06080840152614dd060e084018261446e565b90506080840151601f198483030160a0850152614ded828261446e565b91505060a08401516127ee60c085018261449a565b634e487b7160e01b600052601160045260246000fd5b81810381811115612de157612de1614e02565b634e487b7160e01b600052603260045260246000fd5b600181811c90821680614e5557607f821691505b602082108103612fc257634e487b7160e01b600052602260045260246000fd5b80820180821115612de157612de1614e02565b601f821115610c5657806000526020600020601f840160051c81016020851015614eaf5750805b601f840160051c820191505b818110156112a15760008155600101614ebb565b815167ffffffffffffffff811115614ee957614ee96146e8565b614efd81614ef78454614e41565b84614e88565b6020601f821160018114614f315760008315614f195750848201515b600019600385901b1c1916600184901b1784556112a1565b600084815260208120601f198516915b82811015614f615787850151825560209485019460019092019101614f41565b5084821015614f7f5786840151600019600387901b60f8161c191681555b50505050600190811b01905550565b7f19457468657265756d205369676e6564204d6573736167653a0a000000000000815260008451614fc681601a85016020890161444a565b82018385601a83013760009301601a0192835250909392505050565b6000808354614ff081614e41565b600182168015615007576001811461501c5761504c565b60ff198316865281151582028601935061504c565b86600052602060002060005b8381101561504457815488820152600190910190602001615028565b505081860193505b509195945050505050565b602081526000825160a0602084015261507360c084018261446e565b90506001600160a01b036020850151166040840152604084015160608401526060840151601f198483030160808501526150ad828261446e565b6080860151858203601f190160a08701528051808352919350602090810192508084019190600582901b85010160005b8281101561510e57601f198683030184526150f982865161446e565b602095860195949094019391506001016150dd565b50979650505050505050565b8481528360208201526080604082015260006151396080830185614543565b82810360608401526140f48185614543565b634e487b7160e01b600052603160045260246000fd5b634e487b7160e01b600052601260045260246000fd5b60006001820161518957615189614e02565b5060010190565b8481528360208201526080604082015260006151af608083018561446e565b82810360608401526140f4818561446e565b600082516151d381846020870161444a565b9190910192915050565b6000602082840312156151ef57600080fd5b815161162281614bb6565b60408152600061520d604083018561446e565b828103602084015261465d818561446e565b600061522d6147b28461477c565b905082815283838301111561524157600080fd5b61162283602083018461444a565b6000806040838503121561526257600080fd5b825161526d816146c5565b602084015190925067ffffffffffffffff81111561528a57600080fd5b8301601f8101851361529b57600080fd5b6152aa8582516020840161521f565b9150509250929050565b6000826152c3576152c3615161565b500490565b8082028115828204841417612de157612de1614e02565b60ff81811683821602908116908181146137a5576137a5614e02565b60ff8181168382160190811115612de157612de1614e02565b805160208201516bffffffffffffffffffffffff19811691906014821015615360576bffffffffffffffffffffffff196bffffffffffffffffffffffff198360140360031b1b82161692505b5050919050565b60008161537657615376614e02565b506000190190565b61ffff8281168282160390811115612de157612de1614e02565b63ffffffff81811683821602908116908181146137a5576137a5614e02565b60ff8281168282160390811115612de157612de1614e02565b61ffff81811683821602908116908181146137a5576137a5614e02565b600082601f8301126153fe57600080fd5b6116228383516020850161521f565b8051614374816143af565b600082601f83011261542957600080fd5b81516154376147b282614b2a565b8082825260208201915060208360051b86010192508583111561545957600080fd5b602085015b83811015614bac57805167ffffffffffffffff81111561547d57600080fd5b61548c886020838a01016153ed565b8452506020928301920161545e565b6000602082840312156154ad57600080fd5b815167ffffffffffffffff8111156154c457600080fd5b820160a081850312156154d657600080fd5b6154de614728565b815167ffffffffffffffff8111156154f557600080fd5b615501868285016153ed565b8252506155106020830161540d565b602082015260408281015190820152606082015167ffffffffffffffff81111561553957600080fd5b615545868285016153ed565b606083015250608082015167ffffffffffffffff81111561556557600080fd5b61557186828501615418565b608083015250949350505050565b600061ffff83168061559357615593615161565b8061ffff8416069150509291505056fea26469706673582212201c11827a93c72224cd31a139f716d549f4067f28def9a780d284d2aa94ec844964736f6c634300081c0033",
  "linkReferences": {},
  "deployedLinkReferences": {}
}