{
  "_format": "hh-sol-artifact-1",
  "contractName": "PolyBet",
  "sourceName": "contracts/polybet.sol",
  "abi": [
    {
      "inputs": [],
      "stateMutability": "nonpayable",
      "type": "constructor"
    },
    {
      "inputs": [],
      "name": "A13e_RevokedAuthToken",
      "type": "error"
    },
    {
      "inputs": [],
      "name": "RoflOriginNotAuthorizedForApp",
      "type": "error"
    },
    {
      "inputs": [],
      "name": "SiweAuth_AddressMismatch",
      "type": "error"
    },
    {
      "inputs": [],
      "name": "SiweAuth_ChainIdMismatch",
      "type": "error"
    },
    {
      "inputs": [],
      "name": "SiweAuth_DomainMismatch",
      "type": "error"
    },
    {
      "inputs": [],
      "name": "SiweAuth_Expired",
      "type": "error"
    },
    {
      "inputs": [],
      "name": "SiweAuth_NotBeforeInFuture",
      "type": "error"
    },
    {
      "inputs": [],
      "name": "SiweParser_InvalidAddressLength",
      "type": "error"
    },
    {
      "inputs": [],
      "name": "SiweParser_InvalidNonce",
      "type": "error"
    },
    {
      "inputs": [],
      "name": "SubcallError",
      "type": "error"
    },
    {
      "anonymous": false,
      "inputs": [
        {
          "indexed": true,
          "internalType": "uint256",
          "name": "betId",
          "type": "uint256"
        },
        {
          "indexed": false,
          "internalType": "uint256",
          "name": "totalCollateralAmount",
          "type": "uint256"
        },
        {
          "indexed": false,
          "internalType": "uint256",
          "name": "outcomeIndex",
          "type": "uint256"
        },
        {
          "indexed": false,
          "internalType": "bytes32[]",
          "name": "marketplaceIds",
          "type": "bytes32[]"
        },
        {
          "indexed": false,
          "internalType": "bytes32[]",
          "name": "marketIds",
          "type": "bytes32[]"
        }
      ],
      "name": "BetSlipCreated",
      "type": "event"
    },
    {
      "anonymous": false,
      "inputs": [
        {
          "indexed": true,
          "internalType": "address",
          "name": "previousOwner",
          "type": "address"
        },
        {
          "indexed": true,
          "internalType": "address",
          "name": "newOwner",
          "type": "address"
        }
      ],
      "name": "OwnershipTransferred",
      "type": "event"
    },
    {
      "anonymous": false,
      "inputs": [
        {
          "indexed": true,
          "internalType": "bytes32",
          "name": "betId",
          "type": "bytes32"
        }
      ],
      "name": "ProxyBetSellingStateUpdate",
      "type": "event"
    },
    {
      "inputs": [
        {
          "internalType": "uint64",
          "name": "chainId",
          "type": "uint64"
        },
        {
          "internalType": "enum PolyBet.ChainFamily",
          "name": "family",
          "type": "uint8"
        },
        {
          "internalType": "string",
          "name": "name",
          "type": "string"
        },
        {
          "internalType": "string",
          "name": "marketplaceProxy",
          "type": "string"
        }
      ],
      "name": "addMarketplace",
      "outputs": [],
      "stateMutability": "nonpayable",
      "type": "function"
    },
    {
      "inputs": [
        {
          "internalType": "uint256",
          "name": "",
          "type": "uint256"
        }
      ],
      "name": "betSlips",
      "outputs": [
        {
          "internalType": "enum PolyBet.BetSlipStrategy",
          "name": "strategy",
          "type": "uint8"
        },
        {
          "internalType": "uint256",
          "name": "initialCollateral",
          "type": "uint256"
        },
        {
          "internalType": "uint256",
          "name": "finalCollateral",
          "type": "uint256"
        },
        {
          "internalType": "uint256",
          "name": "outcomeIndex",
          "type": "uint256"
        },
        {
          "internalType": "enum PolyBet.BetSlipStatus",
          "name": "status",
          "type": "uint8"
        },
        {
          "internalType": "string",
          "name": "failureReason",
          "type": "string"
        }
      ],
      "stateMutability": "view",
      "type": "function"
    },
    {
      "inputs": [],
      "name": "domain",
      "outputs": [
        {
          "internalType": "string",
          "name": "",
          "type": "string"
        }
      ],
      "stateMutability": "view",
      "type": "function"
    },
    {
      "inputs": [
        {
          "internalType": "uint256",
          "name": "betSlipId",
          "type": "uint256"
        }
      ],
      "name": "getBetSlip",
      "outputs": [
        {
          "components": [
            {
              "internalType": "enum PolyBet.BetSlipStrategy",
              "name": "strategy",
              "type": "uint8"
            },
            {
              "internalType": "uint256",
              "name": "initialCollateral",
              "type": "uint256"
            },
            {
              "internalType": "uint256",
              "name": "finalCollateral",
              "type": "uint256"
            },
            {
              "internalType": "uint256",
              "name": "outcomeIndex",
              "type": "uint256"
            },
            {
              "internalType": "enum PolyBet.BetSlipStatus",
              "name": "status",
              "type": "uint8"
            },
            {
              "internalType": "string",
              "name": "failureReason",
              "type": "string"
            },
            {
              "internalType": "bytes32[]",
              "name": "marketplaceIds",
              "type": "bytes32[]"
            },
            {
              "internalType": "bytes32[]",
              "name": "marketIds",
              "type": "bytes32[]"
            },
            {
              "internalType": "bytes32[]",
              "name": "proxiedBets",
              "type": "bytes32[]"
            }
          ],
          "internalType": "struct PolyBet.BetSlip",
          "name": "",
          "type": "tuple"
        }
      ],
      "stateMutability": "view",
      "type": "function"
    },
    {
      "inputs": [
        {
          "internalType": "uint256",
          "name": "marketplaceId",
          "type": "uint256"
        }
      ],
      "name": "getMarketplace",
      "outputs": [
        {
          "components": [
            {
              "internalType": "uint256",
              "name": "warpRouterId",
              "type": "uint256"
            },
            {
              "internalType": "uint256",
              "name": "chainId",
              "type": "uint256"
            },
            {
              "internalType": "enum PolyBet.ChainFamily",
              "name": "chainFamily",
              "type": "uint8"
            },
            {
              "internalType": "string",
              "name": "name",
              "type": "string"
            },
            {
              "internalType": "string",
              "name": "marketplaceProxy",
              "type": "string"
            },
            {
              "internalType": "enum PolyBet.PricingStrategy",
              "name": "pricingStrategy",
              "type": "uint8"
            }
          ],
          "internalType": "struct PolyBet.Marketplace",
          "name": "",
          "type": "tuple"
        }
      ],
      "stateMutability": "view",
      "type": "function"
    },
    {
      "inputs": [
        {
          "internalType": "bytes32",
          "name": "betId",
          "type": "bytes32"
        }
      ],
      "name": "getProxiedBet",
      "outputs": [
        {
          "components": [
            {
              "internalType": "bytes32",
              "name": "id",
              "type": "bytes32"
            },
            {
              "internalType": "uint256",
              "name": "betSlipId",
              "type": "uint256"
            },
            {
              "internalType": "uint256",
              "name": "marketplaceId",
              "type": "uint256"
            },
            {
              "internalType": "uint256",
              "name": "marketId",
              "type": "uint256"
            },
            {
              "internalType": "uint256",
              "name": "optionIndex",
              "type": "uint256"
            },
            {
              "internalType": "uint256",
              "name": "minimumShares",
              "type": "uint256"
            },
            {
              "internalType": "uint256",
              "name": "blockTimestamp",
              "type": "uint256"
            },
            {
              "internalType": "uint256",
              "name": "originalCollateralAmount",
              "type": "uint256"
            },
            {
              "internalType": "uint256",
              "name": "finalCollateralAmount",
              "type": "uint256"
            },
            {
              "internalType": "uint256",
              "name": "sharesBought",
              "type": "uint256"
            },
            {
              "internalType": "uint256",
              "name": "sharesSold",
              "type": "uint256"
            },
            {
              "internalType": "enum PolyBet.BetOutcome",
              "name": "outcome",
              "type": "uint8"
            },
            {
              "internalType": "string",
              "name": "failureReason",
              "type": "string"
            }
          ],
          "internalType": "struct PolyBet.ProxiedBet",
          "name": "",
          "type": "tuple"
        }
      ],
      "stateMutability": "view",
      "type": "function"
    },
    {
      "inputs": [],
      "name": "getUserActiveBetslips",
      "outputs": [
        {
          "internalType": "uint256[]",
          "name": "",
          "type": "uint256[]"
        }
      ],
      "stateMutability": "view",
      "type": "function"
    },
    {
      "inputs": [
        {
          "internalType": "bytes",
          "name": "authToken",
          "type": "bytes"
        }
      ],
      "name": "getUserActiveBetslips",
      "outputs": [
        {
          "internalType": "uint256[]",
          "name": "",
          "type": "uint256[]"
        }
      ],
      "stateMutability": "view",
      "type": "function"
    },
    {
      "inputs": [
        {
          "internalType": "bytes",
          "name": "authToken",
          "type": "bytes"
        }
      ],
      "name": "getUserBalance",
      "outputs": [
        {
          "internalType": "uint256",
          "name": "",
          "type": "uint256"
        }
      ],
      "stateMutability": "view",
      "type": "function"
    },
    {
      "inputs": [],
      "name": "getUserBalance",
      "outputs": [
        {
          "internalType": "uint256",
          "name": "",
          "type": "uint256"
        }
      ],
      "stateMutability": "view",
      "type": "function"
    },
    {
      "inputs": [
        {
          "internalType": "bytes",
          "name": "authToken",
          "type": "bytes"
        }
      ],
      "name": "getUserClosedBets",
      "outputs": [
        {
          "internalType": "uint256[]",
          "name": "",
          "type": "uint256[]"
        }
      ],
      "stateMutability": "view",
      "type": "function"
    },
    {
      "inputs": [],
      "name": "getUserClosedBets",
      "outputs": [
        {
          "internalType": "uint256[]",
          "name": "",
          "type": "uint256[]"
        }
      ],
      "stateMutability": "view",
      "type": "function"
    },
    {
      "inputs": [
        {
          "internalType": "bytes32",
          "name": "proxiedBetId",
          "type": "bytes32"
        }
      ],
      "name": "initiateSellProxiedBets",
      "outputs": [],
      "stateMutability": "nonpayable",
      "type": "function"
    },
    {
      "inputs": [
        {
          "internalType": "string",
          "name": "siweMsg",
          "type": "string"
        },
        {
          "components": [
            {
              "internalType": "bytes32",
              "name": "r",
              "type": "bytes32"
            },
            {
              "internalType": "bytes32",
              "name": "s",
              "type": "bytes32"
            },
            {
              "internalType": "uint256",
              "name": "v",
              "type": "uint256"
            }
          ],
          "internalType": "struct SignatureRSV",
          "name": "sig",
          "type": "tuple"
        }
      ],
      "name": "login",
      "outputs": [
        {
          "internalType": "bytes",
          "name": "",
          "type": "bytes"
        }
      ],
      "stateMutability": "view",
      "type": "function"
    },
    {
      "inputs": [
        {
          "internalType": "uint256",
          "name": "",
          "type": "uint256"
        }
      ],
      "name": "marketplaces",
      "outputs": [
        {
          "internalType": "uint256",
          "name": "warpRouterId",
          "type": "uint256"
        },
        {
          "internalType": "uint256",
          "name": "chainId",
          "type": "uint256"
        },
        {
          "internalType": "enum PolyBet.ChainFamily",
          "name": "chainFamily",
          "type": "uint8"
        },
        {
          "internalType": "string",
          "name": "name",
          "type": "string"
        },
        {
          "internalType": "string",
          "name": "marketplaceProxy",
          "type": "string"
        },
        {
          "internalType": "enum PolyBet.PricingStrategy",
          "name": "pricingStrategy",
          "type": "uint8"
        }
      ],
      "stateMutability": "view",
      "type": "function"
    },
    {
      "inputs": [],
      "name": "musdcToken",
      "outputs": [
        {
          "internalType": "contract IERC20",
          "name": "",
          "type": "address"
        }
      ],
      "stateMutability": "view",
      "type": "function"
    },
    {
      "inputs": [],
      "name": "owner",
      "outputs": [
        {
          "internalType": "address",
          "name": "",
          "type": "address"
        }
      ],
      "stateMutability": "view",
      "type": "function"
    },
    {
      "inputs": [
        {
          "internalType": "enum PolyBet.BetSlipStrategy",
          "name": "strategy",
          "type": "uint8"
        },
        {
          "internalType": "uint256",
          "name": "totalCollateralAmount",
          "type": "uint256"
        },
        {
          "internalType": "uint256",
          "name": "outcomeIndex",
          "type": "uint256"
        },
        {
          "internalType": "bytes32[]",
          "name": "marketplaceIds",
          "type": "bytes32[]"
        },
        {
          "internalType": "bytes32[]",
          "name": "marketIds",
          "type": "bytes32[]"
        }
      ],
      "name": "placeBet",
      "outputs": [],
      "stateMutability": "nonpayable",
      "type": "function"
    },
    {
      "inputs": [
        {
          "internalType": "bytes32",
          "name": "",
          "type": "bytes32"
        }
      ],
      "name": "proxiedBets",
      "outputs": [
        {
          "internalType": "bytes32",
          "name": "id",
          "type": "bytes32"
        },
        {
          "internalType": "uint256",
          "name": "betSlipId",
          "type": "uint256"
        },
        {
          "internalType": "uint256",
          "name": "marketplaceId",
          "type": "uint256"
        },
        {
          "internalType": "uint256",
          "name": "marketId",
          "type": "uint256"
        },
        {
          "internalType": "uint256",
          "name": "optionIndex",
          "type": "uint256"
        },
        {
          "internalType": "uint256",
          "name": "minimumShares",
          "type": "uint256"
        },
        {
          "internalType": "uint256",
          "name": "blockTimestamp",
          "type": "uint256"
        },
        {
          "internalType": "uint256",
          "name": "originalCollateralAmount",
          "type": "uint256"
        },
        {
          "internalType": "uint256",
          "name": "finalCollateralAmount",
          "type": "uint256"
        },
        {
          "internalType": "uint256",
          "name": "sharesBought",
          "type": "uint256"
        },
        {
          "internalType": "uint256",
          "name": "sharesSold",
          "type": "uint256"
        },
        {
          "internalType": "enum PolyBet.BetOutcome",
          "name": "outcome",
          "type": "uint8"
        },
        {
          "internalType": "string",
          "name": "failureReason",
          "type": "string"
        }
      ],
      "stateMutability": "view",
      "type": "function"
    },
    {
      "inputs": [
        {
          "internalType": "bytes32",
          "name": "proxiedBetId",
          "type": "bytes32"
        },
        {
          "internalType": "enum PolyBet.BetOutcome",
          "name": "outcome",
          "type": "uint8"
        },
        {
          "internalType": "uint256",
          "name": "winningsCollateralValue",
          "type": "uint256"
        }
      ],
      "name": "recordProxiedBetClosed",
      "outputs": [],
      "stateMutability": "nonpayable",
      "type": "function"
    },
    {
      "inputs": [
        {
          "internalType": "uint256",
          "name": "betSlipId",
          "type": "uint256"
        },
        {
          "components": [
            {
              "internalType": "bytes32",
              "name": "id",
              "type": "bytes32"
            },
            {
              "internalType": "uint256",
              "name": "betSlipId",
              "type": "uint256"
            },
            {
              "internalType": "uint256",
              "name": "marketplaceId",
              "type": "uint256"
            },
            {
              "internalType": "uint256",
              "name": "marketId",
              "type": "uint256"
            },
            {
              "internalType": "uint256",
              "name": "optionIndex",
              "type": "uint256"
            },
            {
              "internalType": "uint256",
              "name": "minimumShares",
              "type": "uint256"
            },
            {
              "internalType": "uint256",
              "name": "blockTimestamp",
              "type": "uint256"
            },
            {
              "internalType": "uint256",
              "name": "originalCollateralAmount",
              "type": "uint256"
            },
            {
              "internalType": "uint256",
              "name": "finalCollateralAmount",
              "type": "uint256"
            },
            {
              "internalType": "uint256",
              "name": "sharesBought",
              "type": "uint256"
            },
            {
              "internalType": "uint256",
              "name": "sharesSold",
              "type": "uint256"
            },
            {
              "internalType": "enum PolyBet.BetOutcome",
              "name": "outcome",
              "type": "uint8"
            },
            {
              "internalType": "string",
              "name": "failureReason",
              "type": "string"
            }
          ],
          "internalType": "struct PolyBet.ProxiedBet",
          "name": "proxiedBet",
          "type": "tuple"
        }
      ],
      "name": "recordProxiedBetPlaced",
      "outputs": [],
      "stateMutability": "nonpayable",
      "type": "function"
    },
    {
      "inputs": [
        {
          "internalType": "bytes32",
          "name": "proxiedBetId",
          "type": "bytes32"
        },
        {
          "internalType": "uint256",
          "name": "sharesSold",
          "type": "uint256"
        },
        {
          "internalType": "uint256",
          "name": "sharesSoldCollateralValue",
          "type": "uint256"
        }
      ],
      "name": "recordProxiedBetSold",
      "outputs": [],
      "stateMutability": "nonpayable",
      "type": "function"
    },
    {
      "inputs": [],
      "name": "renounceOwnership",
      "outputs": [],
      "stateMutability": "nonpayable",
      "type": "function"
    },
    {
      "inputs": [],
      "name": "roflAppId",
      "outputs": [
        {
          "internalType": "bytes21",
          "name": "",
          "type": "bytes21"
        }
      ],
      "stateMutability": "view",
      "type": "function"
    },
    {
      "inputs": [
        {
          "internalType": "address",
          "name": "_musdcToken",
          "type": "address"
        }
      ],
      "name": "setCollateralToken",
      "outputs": [],
      "stateMutability": "nonpayable",
      "type": "function"
    },
    {
      "inputs": [
        {
          "internalType": "bytes21",
          "name": "appId",
          "type": "bytes21"
        }
      ],
      "name": "setRoflAppId",
      "outputs": [],
      "stateMutability": "nonpayable",
      "type": "function"
    },
    {
      "inputs": [
        {
          "internalType": "address",
          "name": "newOwner",
          "type": "address"
        }
      ],
      "name": "transferOwnership",
      "outputs": [],
      "stateMutability": "nonpayable",
      "type": "function"
    },
    {
      "inputs": [
        {
          "internalType": "uint256",
          "name": "betSlipId",
          "type": "uint256"
        },
        {
          "internalType": "enum PolyBet.BetSlipStatus",
          "name": "status",
          "type": "uint8"
        }
      ],
      "name": "updateBetSlipStatus",
      "outputs": [],
      "stateMutability": "nonpayable",
      "type": "function"
    },
    {
      "inputs": [
        {
          "internalType": "address",
          "name": "",
          "type": "address"
        },
        {
          "internalType": "uint256",
          "name": "",
          "type": "uint256"
        }
      ],
      "name": "userActiveBetSlips",
      "outputs": [
        {
          "internalType": "uint256",
          "name": "",
          "type": "uint256"
        }
      ],
      "stateMutability": "view",
      "type": "function"
    },
    {
      "inputs": [
        {
          "internalType": "address",
          "name": "",
          "type": "address"
        },
        {
          "internalType": "uint256",
          "name": "",
          "type": "uint256"
        }
      ],
      "name": "userClosedBetSlips",
      "outputs": [
        {
          "internalType": "uint256",
          "name": "",
          "type": "uint256"
        }
      ],
      "stateMutability": "view",
      "type": "function"
    },
    {
      "inputs": [
        {
          "internalType": "uint256",
          "name": "amount",
          "type": "uint256"
        }
      ],
      "name": "withdrawWinnings",
      "outputs": [],
      "stateMutability": "nonpayable",
      "type": "function"
    }
  ],
  "bytecode": "0x608060405234801561001057600080fd5b5060405180604001604052806007815260200166141bdb1e50995d60ca1b81525061005160206040518060200160405280600081525061007a60201b60201c565b61005a906101ba565b6002556001610069828261027a565b50610075905033610168565b6103b2565b60606000807301000000000000000000000000000000000000016001600160a01b031685856040516020016100b092919061035c565b60408051601f19818403018152908290526100ca91610396565b600060405180830381855afa9150503d8060008114610105576040519150601f19603f3d011682016040523d82523d6000602084013e61010a565b606091505b5091509150816101605760405162461bcd60e51b815260206004820152601360248201527f72616e646f6d42797465733a206661696c656400000000000000000000000000604482015260640160405180910390fd5b949350505050565b600380546001600160a01b038381166001600160a01b0319831681179093556040519116919082907f8be0079c531659141344cd1fd0a4f28419497f9722a3daafe3b4186f6b6457e090600090a35050565b805160208083015191908110156101db576000198160200360031b1b821691505b50919050565b634e487b7160e01b600052604160045260246000fd5b600181811c9082168061020b57607f821691505b6020821081036101db57634e487b7160e01b600052602260045260246000fd5b601f82111561027557806000526020600020601f840160051c810160208510156102525750805b601f840160051c820191505b81811015610272576000815560010161025e565b50505b505050565b81516001600160401b03811115610293576102936101e1565b6102a7816102a184546101f7565b8461022b565b6020601f8211600181146102db57600083156102c35750848201515b600019600385901b1c1916600184901b178455610272565b600084815260208120601f198516915b8281101561030b57878501518255602094850194600190920191016102eb565b50848210156103295786840151600019600387901b60f8161c191681555b50505050600190811b01905550565b60005b8381101561035357818101518382015260200161033b565b50506000910152565b8281526040602082015260008251806040840152610381816060850160208701610338565b601f01601f1916919091016060019392505050565b600082516103a8818460208701610338565b9190910192915050565b6153b8806103c16000396000f3fe608060405234801561001057600080fd5b50600436106101e55760003560e01c80637f476b6f1161010f578063c2fb26a6116100a2578063e75a88a011610071578063e75a88a01461045a578063f1b9ea171461046d578063f2fde38b1461048d578063f53aac2a146104a057600080fd5b8063c2fb26a614610424578063d1d758cb1461042c578063d69418f31461043f578063daee6fbc1461044757600080fd5b80639f88151e116100de5780639f88151e146103e1578063a935ee0e146103f4578063b7013dc114610407578063b76ebb561461040f57600080fd5b80637f476b6f146103715780638da5cb5b146103915780638e032241146103a2578063974d4ed8146103b557600080fd5b80632e5abd7b1161018757806358dee0541161015657806358dee05414610330578063666181a914610343578063715018a6146103565780637d5559d91461035e57600080fd5b80632e5abd7b146102c55780633074eebc146102d857806332d268a5146102eb5780635023a0c91461030b57600080fd5b8063212e94c9116101c3578063212e94c91461025957806329ec94421461026c5780632a6d3e9b1461028d5780632b64deec146102a057600080fd5b806314794702146101ea57806315534b70146101ff578063181031b11461022f575b600080fd5b6101fd6101f8366004614187565b6104c0565b005b600454610212906001600160a01b031681565b6040516001600160a01b0390911681526020015b60405180910390f35b60055461023c9060581b81565b6040516affffffffffffffffffffff199091168152602001610226565b6101fd6102673660046141b4565b6105b2565b61027f61027a3660046141ff565b610732565b604051908152602001610226565b6101fd61029b36600461422b565b610763565b6102b36102ae366004614187565b6107b2565b604051610226969594939291906142e9565b6101fd6102d3366004614339565b610915565b61027f6102e63660046141ff565b610a4d565b6102fe6102f9366004614187565b610a69565b60405161022691906143ba565b61031e610319366004614187565b610cbe565b6040516102269695949392919061447f565b6101fd61033e366004614609565b610d99565b6101fd610351366004614697565b610e95565b6101fd610f22565b6101fd61036c3660046146b4565b610f36565b61038461037f3660046147b8565b61106a565b6040516102269190614849565b6003546001600160a01b0316610212565b6101fd6103b0366004614187565b6113eb565b6103c86103c3366004614187565b6114ae565b6040516102269d9c9b9a9998979695949392919061486c565b61027f6103ef3660046148e8565b6115a9565b6101fd610402366004614931565b6115d4565b61027f611610565b610417611673565b604051610226919061495f565b610384611721565b61041761043a3660046148e8565b6117aa565b610417611826565b6104176104553660046148e8565b6118d2565b6101fd610468366004614a2e565b61194c565b61048061047b366004614187565b611d16565b6040516102269190614abd565b6101fd61049b366004614697565b611e74565b6104b36104ae366004614187565b611f01565b6040516102269190614b65565b600081116105155760405162461bcd60e51b815260206004820152601d60248201527f616d6f756e74206d7573742062652067726561746572207468616e203000000060448201526064015b60405180910390fd5b336000908152600c60205260409020548111156105745760405162461bcd60e51b815260206004820152601460248201527f696e73756666696369656e742062616c616e6365000000000000000000000000604482015260640161050c565b336000908152600c602052604081208054839290610593908490614bf2565b90915550506004546105af906001600160a01b031633836120de565b50565b6105ba612187565b60008260088111156105ce576105ce61425f565b141580156105ee575060048260088111156105eb576105eb61425f565b14155b61063a5760405162461bcd60e51b815260206004820152601e60248201527f6f7574636f6d652063616e6e6f74206265206e6f6e65206f7220736f6c640000604482015260640161050c565b60016000848152600d60205260409020600b015460ff1660088111156106625761066261425f565b146106af5760405162461bcd60e51b815260206004820152601a60248201527f696e76616c6964206f7574636f6d65207472616e736974696f6e000000000000604482015260640161050c565b60055460581b6affffffffffffffffffffff1916156106d7576005546106d79060581b6121e1565b6000838152600d60205260409020600b01805483919060ff191660018360088111156107055761070561425f565b021790555060008060006107198685612320565b92509250925061072a8383836123e8565b505050505050565b600b602052816000526040600020818154811061074e57600080fd5b90600052602060002001600091509150505481565b806008838154811061077757610777614c05565b906000526020600020906009020160040160006101000a81548160ff021916908360048111156107a9576107a961425f565b02179055505050565b600781815481106107c257600080fd5b60009182526020909120600690910201805460018201546002830154600384018054939550919360ff909116929091906107fb90614c1b565b80601f016020809104026020016040519081016040528092919081815260200182805461082790614c1b565b80156108745780601f1061084957610100808354040283529160200191610874565b820191906000526020600020905b81548152906001019060200180831161085757829003601f168201915b50505050509080600401805461088990614c1b565b80601f01602080910402602001604051908101604052809291908181526020018280546108b590614c1b565b80156109025780601f106108d757610100808354040283529160200191610902565b820191906000526020600020905b8154815290600101906020018083116108e557829003601f168201915b5050506005909301549192505060ff1686565b61091d612187565b60055460581b6affffffffffffffffffffff191615610945576005546109459060581b6121e1565b6000838152600d60205260408120600a018054849290610966908490614c4f565b90915550506000838152600d60205260409020600a81015460099091015410156109f85760405162461bcd60e51b815260206004820152602360248201527f63616e6e6f742073656c6c206d6f726520736861726573207468616e20626f7560448201527f6768740000000000000000000000000000000000000000000000000000000000606482015260840161050c565b6000838152600d60205260409020600a81015460099091015403610a3e576000838152600d60205260408120600b01805460ff1916600417905580806107198685612320565b61072a8382612320565b505050565b600a602052816000526040600020818154811061074e57600080fd5b610a71613fe8565b60088281548110610a8457610a84614c05565b600091825260209091206040805161012081019091526009909202018054829060ff166001811115610ab857610ab861425f565b6001811115610ac957610ac961425f565b815260018201546020820152600282015460408201526003820154606082015260048083015460809092019160ff1690811115610b0857610b0861425f565b6004811115610b1957610b1961425f565b8152602001600582018054610b2d90614c1b565b80601f0160208091040260200160405190810160405280929190818152602001828054610b5990614c1b565b8015610ba65780601f10610b7b57610100808354040283529160200191610ba6565b820191906000526020600020905b815481529060010190602001808311610b8957829003601f168201915b5050505050815260200160068201805480602002602001604051908101604052809291908181526020018280548015610bfe57602002820191906000526020600020905b815481526020019060010190808311610bea575b5050505050815260200160078201805480602002602001604051908101604052809291908181526020018280548015610c5657602002820191906000526020600020905b815481526020019060010190808311610c42575b5050505050815260200160088201805480602002602001604051908101604052809291908181526020018280548015610cae57602002820191906000526020600020905b815481526020019060010190808311610c9a575b5050505050815250509050919050565b60088181548110610cce57600080fd5b600091825260209091206009909102018054600182015460028301546003840154600485015460058601805460ff9687169850949693959294929091169291610d1690614c1b565b80601f0160208091040260200160405190810160405280929190818152602001828054610d4290614c1b565b8015610d8f5780601f10610d6457610100808354040283529160200191610d8f565b820191906000526020600020905b815481529060010190602001808311610d7257829003601f168201915b5050505050905086565b60076040518060c00160405280600081526020018667ffffffffffffffff168152602001856001811115610dcf57610dcf61425f565b81526020810185905260408101849052606001600290528154600181810184556000938452602093849020835160069093020191825592820151818401556040820151600282018054939492939192909160ff1916908381811115610e3657610e3661425f565b021790555060608201516003820190610e4f9082614ca9565b5060808201516004820190610e649082614ca9565b5060a082015160058201805460ff19166001836002811115610e8857610e8861425f565b0217905550505050505050565b610e9d612187565b6001600160a01b038116610ef35760405162461bcd60e51b815260206004820152601b60248201527f696e76616c6964204d5553444320746f6b656e20616464726573730000000000604482015260640161050c565b6004805473ffffffffffffffffffffffffffffffffffffffff19166001600160a01b0392909216919091179055565b610f2a612187565b610f346000612541565b565b610f3e612187565b60055460581b6affffffffffffffffffffff191615610f6657600554610f669060581b6121e1565b60088281548110610f7957610f79614c05565b600091825260208083208451600860099485029092018201805460018181018355918752848720019190915585518552600d8352604094859020865181559286015183820155938501516002830155606085015160038301556080850151600483015560a0850151600583015560c0850151600683015560e085015160078301556101008501518282015561012085015192820192909255610140840151600a820155610160840151600b82018054869593949293919260ff19909116919084908111156110495761104961425f565b0217905550610180820151600c8201906110639082614ca9565b5050505050565b60606110a76040518060a001604052806060815260200160006001600160a01b031681526020016000815260200160608152602001606081525090565b60006110b2856125a0565b86866040516020016110c693929190614d68565b60408051601f19818403018152828252805160208083019190912060008086528583018086529190915260ff89850135169385019390935287356060850152870135608084015292509060019060a0016020604051602081039080840390855afa158015611138573d6000803e3d6000fd5b5050604051601f1901516001600160a01b03811660208601529150600090506111618888612641565b9050468160a00151146111a0576040517f362c833700000000000000000000000000000000000000000000000000000000815260040160405180910390fd5b60016040516111af9190614dbc565b6040518091039020816000015180519060200120146111e15760405163283d62bd60e01b815260040160405180910390fd5b8051845260208101516001600160a01b0383811691161461122e576040517f05cc02e100000000000000000000000000000000000000000000000000000000815260040160405180910390fd5b6101208101515115801590611250575061124c816101200151612c32565b4211155b15611287576040517f299d02f100000000000000000000000000000000000000000000000000000000815260040160405180910390fd5b61010081015151156112ae5760006112a3826101000151612c32565b6040860152506112c1565b6112bb6201518042614c4f565b60408501525b836040015142106112e557604051630b17115560e41b815260040160405180910390fd5b604081015160608501526101608101515167ffffffffffffffff81111561130e5761130e6144ef565b60405190808252806020026020018201604052801561134157816020015b606081526020019060019003908161132c5790505b50608085015260005b816101600151518110156113a057816101600151818151811061136f5761136f614c05565b60200260200101518560800151828151811061138d5761138d614c05565b602090810291909101015260010161134a565b5060006113dc6002546000801b876040516020016113be9190614e31565b60408051601f19818403018152602083019091526000825290612ca1565b955050505050505b9392505050565b6113f3612187565b60016000828152600d60205260409020600b015460ff16600881111561141b5761141b61425f565b146114685760405162461bcd60e51b815260206004820152601e60248201527f63616e6e6f742073656c6c20696e6163746976652070726f7879206265740000604482015260640161050c565b6000818152600d6020526040808220600b01805460ff191660031790555182917f828be99a2e041a34078aa5ab12ea9b20aa49c0d2197209a03713c5e015dc8e6991a250565b600d60205280600052604060002060009150905080600001549080600101549080600201549080600301549080600401549080600501549080600601549080600701549080600801549080600901549080600a01549080600b0160009054906101000a900460ff169080600c01805461152690614c1b565b80601f016020809104026020016040519081016040528092919081815260200182805461155290614c1b565b801561159f5780601f106115745761010080835404028352916020019161159f565b820191906000526020600020905b81548152906001019060200180831161158257829003601f168201915b505050505090508d565b6000806115b583612d93565b6001600160a01b03166000908152600c60205260409020549392505050565b6115dc612187565b600580547fffffffffffffffffffffff0000000000000000000000000000000000000000001660589290921c919091179055565b60003361165f5760405162461bcd60e51b815260206004820152601760248201527f61757468656e7469636174696f6e207265717569726564000000000000000000604482015260640161050c565b50336000908152600c602052604090205490565b6060336116c25760405162461bcd60e51b815260206004820152601760248201527f61757468656e7469636174696f6e207265717569726564000000000000000000604482015260640161050c565b336000908152600a60209081526040918290208054835181840281018401909452808452909183018282801561171757602002820191906000526020600020905b815481526020019060010190808311611703575b5050505050905090565b60606001805461173090614c1b565b80601f016020809104026020016040519081016040528092919081815260200182805461175c90614c1b565b80156117175780601f1061177e57610100808354040283529160200191611717565b820191906000526020600020905b81548152906001019060200180831161178c57509395945050505050565b606060006117b783612d93565b6001600160a01b0381166000908152600b6020908152604091829020805483518184028101840190945280845293945091929083018282801561181957602002820191906000526020600020905b815481526020019060010190808311611805575b5050505050915050919050565b6060336118755760405162461bcd60e51b815260206004820152601760248201527f61757468656e7469636174696f6e207265717569726564000000000000000000604482015260640161050c565b336000908152600b6020908152604091829020805483518184028101840190945280845290918301828280156117175760200282019190600052602060002090815481526020019060010190808311611703575050505050905090565b606060006118df83612d93565b6001600160a01b0381166000908152600a602090815260409182902080548351818402810184019094528084529394509192908301828280156118195760200282019190600052602060002090815481526020019060010190808311611805575050505050915050919050565b805182511461199d5760405162461bcd60e51b815260206004820152601860248201527f6172726179206c656e67746873206d757374206d617463680000000000000000604482015260640161050c565b60008411611a135760405162461bcd60e51b815260206004820152602860248201527f636f6c6c61746572616c20616d6f756e74206d7573742062652067726561746560448201527f72207468616e2030000000000000000000000000000000000000000000000000606482015260840161050c565b60005b8251811015611a9d576000838281518110611a3357611a33614c05565b602002602001015160001c90506007805490508110611a945760405162461bcd60e51b815260206004820152601660248201527f696e76616c6964206d61726b6574706c61636520494400000000000000000000604482015260640161050c565b50600101611a16565b50600454611ab6906001600160a01b0316333087612e13565b6008805460408051610120810190915290919080886001811115611adc57611adc61425f565b81526020018781526020016000815260200186815260200160006004811115611b0757611b0761425f565b8152602001604051806020016040528060008152508152602001858152602001848152602001600067ffffffffffffffff811115611b4757611b476144ef565b604051908082528060200260200182016040528015611b70578160200160208202803683370190505b509052815460018181018455600093845260209093208251600990920201805492939092839160ff19909116908381811115611bae57611bae61425f565b021790555060208201518160010155604082015181600201556060820151816003015560808201518160040160006101000a81548160ff02191690836004811115611bfb57611bfb61425f565b021790555060a08201516005820190611c149082614ca9565b5060c08201518051611c30916006840191602090910190614046565b5060e08201518051611c4c916007840191602090910190614046565b506101008201518051611c69916008840191602090910190614046565b5050506000818152600960209081526040808320805473ffffffffffffffffffffffffffffffffffffffff1916339081179091558352600a8252822080546001810182559083529082200182905560068054879290611cc9908490614c4f565b92505081905550807fa40b3c87e86bd5f4b59c8ee5d83a7ced69629a25ee5627dccfa8918958b38dc486868686604051611d069493929190614ef4565b60405180910390a2505050505050565b611d1e614091565b600d6000838152602001908152602001600020604051806101a001604052908160008201548152602001600182015481526020016002820154815260200160038201548152602001600482015481526020016005820154815260200160068201548152602001600782015481526020016008820154815260200160098201548152602001600a8201548152602001600b820160009054906101000a900460ff166008811115611dcf57611dcf61425f565b6008811115611de057611de061425f565b8152602001600c82018054611df490614c1b565b80601f0160208091040260200160405190810160405280929190818152602001828054611e2090614c1b565b8015610cae5780601f10611e4257610100808354040283529160200191610cae565b820191906000526020600020905b815481529060010190602001808311611e5057505050919092525091949350505050565b611e7c612187565b6001600160a01b038116611ef85760405162461bcd60e51b815260206004820152602660248201527f4f776e61626c653a206e6577206f776e657220697320746865207a65726f206160448201527f6464726573730000000000000000000000000000000000000000000000000000606482015260840161050c565b6105af81612541565b611f0961410d565b60078281548110611f1c57611f1c614c05565b90600052602060002090600602016040518060c001604052908160008201548152602001600182015481526020016002820160009054906101000a900460ff166001811115611f6d57611f6d61425f565b6001811115611f7e57611f7e61425f565b8152602001600382018054611f9290614c1b565b80601f0160208091040260200160405190810160405280929190818152602001828054611fbe90614c1b565b801561200b5780601f10611fe05761010080835404028352916020019161200b565b820191906000526020600020905b815481529060010190602001808311611fee57829003601f168201915b5050505050815260200160048201805461202490614c1b565b80601f016020809104026020016040519081016040528092919081815260200182805461205090614c1b565b801561209d5780601f106120725761010080835404028352916020019161209d565b820191906000526020600020905b81548152906001019060200180831161208057829003601f168201915b5050509183525050600582015460209091019060ff1660028111156120c4576120c461425f565b60028111156120d5576120d561425f565b90525092915050565b6040516001600160a01b038316602482015260448101829052610a489084907fa9059cbb00000000000000000000000000000000000000000000000000000000906064015b60408051601f198184030181529190526020810180517bffffffffffffffffffffffffffffffffffffffffffffffffffffffff167fffffffff0000000000000000000000000000000000000000000000000000000090931692909217909152612e6a565b6003546001600160a01b03163314610f345760405162461bcd60e51b815260206004820181905260248201527f4f776e61626c653a2063616c6c6572206973206e6f7420746865206f776e6572604482015260640161050c565b60008061227c6040518060400160405280601781526020017f726f666c2e4973417574686f72697a65644f726967696e0000000000000000008152508460405160200161226891907f550000000000000000000000000000000000000000000000000000000000000081526affffffffffffffffffffff1991909116600182015260160190565b604051602081830303815290604052612f52565b915091508167ffffffffffffffff16600014158061229c57508051600114155b806122e95750806000815181106122b5576122b5614c05565b6020910101516001600160f81b0319167ff50000000000000000000000000000000000000000000000000000000000000014155b15610a48576040517f6890282f00000000000000000000000000000000000000000000000000000000815260040160405180910390fd5b6000828152600d60209081526040808320600101548084526009909252822054600880549293926001600160a01b03909216918490811061236357612363614c05565b90600052602060002090600902019150838260020160008282546123879190614c4f565b90915550506000858152600d6020526040812060080180548692906123ad908490614c4f565b90915550506001600160a01b0381166000908152600c6020526040812080548692906123da908490614c4f565b925050819055509250925092565b60005b600883015481101561244c5761243a600d600085600801848154811061241357612413614c05565b600091825260208083209091015483528201929092526040019020600b015460ff16613041565b6124445750505050565b6001016123eb565b506001600160a01b0381166000908152600a60205260408120905b8154811015612511578482828154811061248357612483614c05565b90600052602060002001540361250957815482906124a390600190614bf2565b815481106124b3576124b3614c05565b90600052602060002001548282815481106124d0576124d0614c05565b9060005260206000200181905550818054806124ee576124ee614f25565b60019003818190600052602060002001600090559055612511565b600101612467565b50506001600160a01b03166000908152600b60209081526040822080546001810182559083529120019190915550565b600380546001600160a01b0383811673ffffffffffffffffffffffffffffffffffffffff19831681179093556040519116919082907f8be0079c531659141344cd1fd0a4f28419497f9722a3daafe3b4186f6b6457e090600090a35050565b606060006125ad8361307b565b600101905060008167ffffffffffffffff8111156125cd576125cd6144ef565b6040519080825280601f01601f1916602001820160405280156125f7576020820181803683370190505b5090508181016020015b600019017f3031323334353637383961626364656600000000000000000000000000000000600a86061a8153600a8504945084612601575b509392505050565b6126ae6040518061018001604052806060815260200160006001600160a01b03168152602001606081526020016060815260200160608152602001600081526020016060815260200160608152602001606081526020016060815260200160608152602001606081525090565b61271b6040518061018001604052806060815260200160006001600160a01b03168152602001606081526020016060815260200160608152602001600081526020016060815260200160608152602001606081526020016060815260200160608152602001606081525090565b60005b838110156127a25784848281811061273857612738614c05565b909101356001600160f81b031916600160fd1b03905061279a5761279385858080601f0160208091040260200160405190810160405280939291908181526020018383808284376000920182905250925085915061315d9050565b82526127a2565b60010161271e565b6127ad603282614c4f565b905061281461280f86868080601f0160208091040260200160405190810160405280939291908181526020018383808284376000920191909152506127f9925060029150869050614c4f565b935083612807602882614c4f565b94508461315d565b613234565b6001600160a01b0316602083015261282d600282614c4f565b90508381108015612867575084848281811061284b5761284b614c05565b9050013560f81c60f81b6001600160f81b031916600560f91b14155b1561290657805b848110156129045785858281811061288857612888614c05565b909101356001600160f81b031916600560f91b0390506128fc576128e586868080601f01602080910402602001604051908101604052809392919081815260200183838082843760009201919091525086925085915061315d9050565b60408401526128f5816001614c4f565b9150612904565b60010161286e565b505b8061291081614f51565b91505061295485856040518060400160405280600381526020017f555249000000000000000000000000000000000000000000000000000000000081525084613381565b8360600181935082905250506129a185856040518060400160405280600781526020017f56657273696f6e0000000000000000000000000000000000000000000000000081525084613381565b83608001819350829052505060606129f086866040518060400160405280600881526020017f436861696e20494400000000000000000000000000000000000000000000000081525085613381565b925090506129fd8161359d565b60a084015260408051808201909152600581527f4e6f6e63650000000000000000000000000000000000000000000000000000006020820152612a44908790879085613381565b60c08501829052905190925060081115612a8a576040517fb4bc030c00000000000000000000000000000000000000000000000000000000815260040160405180910390fd5b612acb86866040518060400160405280600981526020017f497373756564204174000000000000000000000000000000000000000000000081525085613381565b8460e0018194508290525050612b1886866040518060400160405280600f81526020017f45787069726174696f6e2054696d65000000000000000000000000000000000081525085613381565b84610100018194508290525050612b6686866040518060400160405280600a81526020017f4e6f74204265666f72650000000000000000000000000000000000000000000081525085613381565b84610120018194508290525050612bb486866040518060400160405280600a81526020017f526571756573742049440000000000000000000000000000000000000000000081525085613381565b846101400181945082905250506000612c0487876040518060400160405280600981526020017f5265736f7572636573000000000000000000000000000000000000000000000081525086613381565b915050828114612c2557612c198787836135f7565b61016086019190915292505b5091925050505b92915050565b6000612c2c612c4c612c47846000600461315d565b61359d565b612c5c612c47856005600761315d565b612c6c612c47866008600a61315d565b612c7c612c4787600b600d61315d565b612c8c612c4788600e601061315d565b612c9c612c47896011601361315d565b6138e8565b60606000807301000000000000000000000000000000000000036001600160a01b031687878787604051602001612cdb9493929190614f6a565b60408051601f1981840301815290829052612cf591614f9b565b600060405180830381855afa9150503d8060008114612d30576040519150601f19603f3d011682016040523d82523d6000602084013e612d35565b606091505b509150915081612d875760405162461bcd60e51b815260206004820152600f60248201527f656e63727970743a206661696c65640000000000000000000000000000000000604482015260640161050c565b9150505b949350505050565b80516020808301919091206000908152908190526040812054829060ff1615612de8576040517f9ea6784800000000000000000000000000000000000000000000000000000000815260040160405180910390fd5b8251600003612dfa5760009150612e0d565b6000612e0584613a9b565b602001519250505b50919050565b6040516001600160a01b0380851660248301528316604482015260648101829052612e649085907f23b872dd0000000000000000000000000000000000000000000000000000000090608401612123565b50505050565b6000612ebf826040518060400160405280602081526020017f5361666545524332303a206c6f772d6c6576656c2063616c6c206661696c6564815250856001600160a01b0316613b789092919063ffffffff16565b9050805160001480612ee0575080806020019051810190612ee09190614fb7565b610a485760405162461bcd60e51b815260206004820152602a60248201527f5361666545524332303a204552433230206f7065726174696f6e20646964206e60448201527f6f74207375636365656400000000000000000000000000000000000000000000606482015260840161050c565b600060606000807301000000000000000000000000000000000001036001600160a01b03168686604051602001612f8a929190614fd9565b60408051601f1981840301815290829052612fa491614f9b565b600060405180830381855afa9150503d8060008114612fdf576040519150601f19603f3d011682016040523d82523d6000602084013e612fe4565b606091505b509150915081613020576040517f902e94f800000000000000000000000000000000000000000000000000000000815260040160405180910390fd5b80806020019051810190613034919061502e565b9097909650945050505050565b6000808260088111156130565761305661425f565b14158015612c2c575060018260088111156130735761307361425f565b141592915050565b6000807a184f03e93ff9f4daa797ed6e38ed64bf6a1f01000000000000000083106130c4577a184f03e93ff9f4daa797ed6e38ed64bf6a1f010000000000000000830492506040015b6d04ee2d6d415b85acef810000000083106130f0576d04ee2d6d415b85acef8100000000830492506020015b662386f26fc10000831061310e57662386f26fc10000830492506010015b6305f5e1008310613126576305f5e100830492506008015b612710831061313a57612710830492506004015b6064831061314c576064830492506002015b600a8310612c2c5760010192915050565b6060600061316b8484614bf2565b67ffffffffffffffff811115613183576131836144ef565b6040519080825280601f01601f1916602001820160405280156131ad576020820181803683370190505b509050835b83811080156131c15750855181105b1561322b578581815181106131d8576131d8614c05565b01602001516001600160f81b031916826131f28784614bf2565b8151811061320257613202614c05565b60200101906001600160f81b031916908160001a9053508061322381614f51565b9150506131b2565b50949350505050565b60008151602814613271576040517facf8696900000000000000000000000000000000000000000000000000000000815260040160405180910390fd5b6000600283516132819190615093565b67ffffffffffffffff811115613299576132996144ef565b6040519080825280601f01601f1916602001820160405280156132c3576020820181803683370190505b50905060005b600284516132d79190615093565b81101561336d57613315846132ed8360026150a7565b6132f8906001614c4f565b8151811061330857613308614c05565b016020015160f81c613b87565b613324856132f88460026150a7565b61332f9060106150be565b61333991906150da565b60f81b82828151811061334e5761334e614c05565b60200101906001600160f81b031916908160001a9053506001016132c9565b50613377816150f3565b60601c9392505050565b60606000825b858110156134b8578686828181106133a1576133a1614c05565b909101356001600160f81b0319167f3a000000000000000000000000000000000000000000000000000000000000000390506134a657848051906020012061342288888080601f01602080910402602001604051908101604052809392919081815260200183838082843760009201919091525089925086915061315d9050565b8051906020012014613447575050604080516020810190915260008152905081613594565b8061345181614f51565b915050858110801561348b575086868281811061347057613470614c05565b9050013560f81c60f81b6001600160f81b031916600160fd1b145b1561349e578061349a81614f51565b9150505b8093506134b8565b806134b081614f51565b915050613387565b8581101561354c578686828181106134d2576134d2614c05565b909101356001600160f81b031916600560f91b0390506135445761352f87878080601f01602080910402602001604051908101604052809392919081815260200183838082843760009201919091525088925085915061315d9050565b61353a826001614c4f565b9250925050613594565b6001016134b8565b61358f87878080601f01602080910402602001604051908101604052809392919081815260200183838082843760009201919091525088925085915061315d9050565b925090505b94509492505050565b600080805b83518110156135f05760308482815181106135bf576135bf614c05565b01602001516135d1919060f81c614bf2565b6135dc83600a6150a7565b6135e69190614c4f565b91506001016135a2565b5092915050565b6060600082815b613609600187614bf2565b8210156137045786868381811061362257613622614c05565b9050013560f81c60f81b6001600160f81b031916602d60f81b14801561367a57508686613650846001614c4f565b81811061365f5761365f614c05565b9050013560f81c60f81b6001600160f81b031916600160fd1b145b1561369e5761368a600283614c4f565b91508061369681614f51565b9150506136a3565b613704565b85821080156136db57508686838181106136bf576136bf614c05565b9050013560f81c60f81b6001600160f81b031916600a60f81b14155b156136f257816136ea81614f51565b9250506136a3565b816136fc81614f51565b9250506135fe565b60008167ffffffffffffffff81111561371f5761371f6144ef565b60405190808252806020026020018201604052801561375257816020015b606081526020019060019003908161373d5790505b50905085925060005b613766600189614bf2565b841080156137745750828114155b156138da5788888581811061378b5761378b614c05565b9050013560f81c60f81b6001600160f81b031916602d60f81b1480156137e3575088886137b9866001614c4f565b8181106137c8576137c8614c05565b9050013560f81c60f81b6001600160f81b031916600160fd1b145b156137f6576137f3846002614c4f565b96505b878410801561382e575088888581811061381257613812614c05565b9050013560f81c60f81b6001600160f81b031916600a60f81b14155b15613845578361383d81614f51565b9450506137f6565b61388889898080601f0160208091040260200160405190810160405280939291908181526020018383808284376000920191909152508b925088915061315d9050565b82828151811061389a5761389a614c05565b602002602001018190525080806138b090614f51565b9150508784036138c857836138c481615146565b9450505b836138d281614f51565b94505061375b565b509791965090945050505050565b60006107b25b8761ffff168161ffff16101561393a5761390781613d13565b156139215761391a6301e2850083614c4f565b9150613932565b61392f6301e1338083614c4f565b91505b6001016138ee565b613942614153565b601f815261394f89613d13565b1561396057601d6020820152613968565b601c60208201525b601f60408201819052601e606083018190526080830182905260a0830181905260c0830182905260e0830182905261010083018190526101208301829052610140830152610160820152600191505b8760ff168261ffff161015613a1557806139d260018461515d565b61ffff16600c81106139e6576139e6614c05565b60200201516139f89062015180615177565b613a089063ffffffff1684614c4f565b92506001909101906139b7565b613a20600188615196565b613a309060ff1662015180615177565b613a409063ffffffff1684614c4f565b9250613a5160ff8716610e10615177565b613a619063ffffffff1684614c4f565b9250613a7160ff8616603c6151af565b613a7f9061ffff1684614c4f565b9250613a8e60ff851684614c4f565b9998505050505050505050565b613ad66040518060a001604052806060815260200160006001600160a01b031681526020016000815260200160608152602001606081525090565b6000613af86002546000801b8560405180602001604052806000815250613d72565b9050600081806020019051810190613b10919061527a565b90506001604051613b219190614dbc565b604051809103902081600001518051906020012014613b535760405163283d62bd60e01b815260040160405180910390fd5b42816040015110156113e457604051630b17115560e41b815260040160405180910390fd5b6060612d8b8484600085613e58565b60007f300000000000000000000000000000000000000000000000000000000000000060f883901b6001600160f81b03191610801590613bf557507f390000000000000000000000000000000000000000000000000000000000000060f883901b6001600160f81b03191611155b15613c0557612c2c603083615196565b7f610000000000000000000000000000000000000000000000000000000000000060f883901b6001600160f81b03191610801590613c7157507f660000000000000000000000000000000000000000000000000000000000000060f883901b6001600160f81b03191611155b15613c8d576061613c8383600a6150da565b612c2c9190615196565b7f410000000000000000000000000000000000000000000000000000000000000060f883901b6001600160f81b03191610801590613cf957507f460000000000000000000000000000000000000000000000000000000000000060f883901b6001600160f81b03191611155b15613d0b576041613c8383600a6150da565b506000919050565b6000613d2060048361535e565b61ffff1615613d3157506000919050565b613d3c60648361535e565b61ffff1615613d4d57506001919050565b613d596101908361535e565b61ffff1615613d6a57506000919050565b506001919050565b60606000807301000000000000000000000000000000000000046001600160a01b031687878787604051602001613dac9493929190614f6a565b60408051601f1981840301815290829052613dc691614f9b565b600060405180830381855afa9150503d8060008114613e01576040519150601f19603f3d011682016040523d82523d6000602084013e613e06565b606091505b509150915081612d875760405162461bcd60e51b815260206004820152600f60248201527f646563727970743a206661696c65640000000000000000000000000000000000604482015260640161050c565b606082471015613ed05760405162461bcd60e51b815260206004820152602660248201527f416464726573733a20696e73756666696369656e742062616c616e636520666f60448201527f722063616c6c0000000000000000000000000000000000000000000000000000606482015260840161050c565b600080866001600160a01b03168587604051613eec9190614f9b565b60006040518083038185875af1925050503d8060008114613f29576040519150601f19603f3d011682016040523d82523d6000602084013e613f2e565b606091505b5091509150613f3f87838387613f4a565b979650505050505050565b60608315613fb9578251600003613fb2576001600160a01b0385163b613fb25760405162461bcd60e51b815260206004820152601d60248201527f416464726573733a2063616c6c20746f206e6f6e2d636f6e7472616374000000604482015260640161050c565b5081612d8b565b612d8b8383815115613fce5781518083602001fd5b8060405162461bcd60e51b815260040161050c9190614849565b6040805161012081019091528060008152602001600081526020016000815260200160008152602001600060048111156140245761402461425f565b8152602001606081526020016060815260200160608152602001606081525090565b828054828255906000526020600020908101928215614081579160200282015b82811115614081578251825591602001919060010190614066565b5061408d929150614172565b5090565b604051806101a001604052806000801916815260200160008152602001600081526020016000815260200160008152602001600081526020016000815260200160008152602001600081526020016000815260200160008152602001600060088111156141005761410061425f565b8152602001606081525090565b6040518060c001604052806000815260200160008152602001600060018111156141395761413961425f565b815260606020820181905260408201819052016000905290565b604051806101800160405280600c906020820280368337509192915050565b5b8082111561408d5760008155600101614173565b60006020828403121561419957600080fd5b5035919050565b8035600981106141af57600080fd5b919050565b6000806000606084860312156141c957600080fd5b833592506141d9602085016141a0565b929592945050506040919091013590565b6001600160a01b03811681146105af57600080fd5b6000806040838503121561421257600080fd5b823561421d816141ea565b946020939093013593505050565b6000806040838503121561423e57600080fd5b8235915060208301356005811061425457600080fd5b809150509250929050565b634e487b7160e01b600052602160045260246000fd5b600281106105af576105af61425f565b60005b838110156142a0578181015183820152602001614288565b50506000910152565b600081518084526142c1816020860160208601614285565b601f01601f19169290920160200192915050565b600381106142e5576142e561425f565b9052565b8681528560208201526142fb85614275565b84604082015260c06060820152600061431760c08301866142a9565b828103608084015261432981866142a9565b915050613f3f60a08301846142d5565b60008060006060848603121561434e57600080fd5b505081359360208301359350604090920135919050565b6142e581614275565b600581106142e5576142e561425f565b600081518084526020840193506020830160005b828110156143b0578151865260209586019590910190600101614392565b5093949350505050565b602081526143cc602082018351614365565b602082015160408201526040820151606082015260608201516080820152600060808301516143fe60a084018261436e565b5060a083015161012060c084015261441a6101408401826142a9565b905060c0840151601f198483030160e0850152614437828261437e565b91505060e0840151601f1984830301610100850152614456828261437e565b915050610100840151601f1984830301610120850152614476828261437e565b95945050505050565b61448887614275565b8681528560208201528460408201528360608201526144aa608082018461436e565b60c060a082015260006144c060c08301846142a9565b98975050505050505050565b67ffffffffffffffff811681146105af57600080fd5b600281106105af57600080fd5b634e487b7160e01b600052604160045260246000fd5b6040516101a0810167ffffffffffffffff81118282101715614529576145296144ef565b60405290565b60405160a0810167ffffffffffffffff81118282101715614529576145296144ef565b604051601f8201601f1916810167ffffffffffffffff8111828210171561457b5761457b6144ef565b604052919050565b600067ffffffffffffffff82111561459d5761459d6144ef565b50601f01601f191660200190565b60006145be6145b984614583565b614552565b90508281528383830111156145d257600080fd5b828260208301376000602084830101529392505050565b600082601f8301126145fa57600080fd5b6113e4838335602085016145ab565b6000806000806080858703121561461f57600080fd5b843561462a816144cc565b9350602085013561463a816144e2565b9250604085013567ffffffffffffffff81111561465657600080fd5b614662878288016145e9565b925050606085013567ffffffffffffffff81111561467f57600080fd5b61468b878288016145e9565b91505092959194509250565b6000602082840312156146a957600080fd5b81356113e4816141ea565b600080604083850312156146c757600080fd5b82359150602083013567ffffffffffffffff8111156146e557600080fd5b83016101a081860312156146f857600080fd5b614700614505565b813581526020808301359082015260408083013590820152606080830135908201526080808301359082015260a0808301359082015260c0808301359082015260e0808301359082015261010080830135908201526101208083013590820152610140808301359082015261477861016083016141a0565b61016082015261018082013567ffffffffffffffff81111561479957600080fd5b6147a5878285016145e9565b6101808301525080925050509250929050565b600080600083850360808112156147ce57600080fd5b843567ffffffffffffffff8111156147e557600080fd5b8501601f810187136147f657600080fd5b803567ffffffffffffffff81111561480d57600080fd5b87602082840101111561481f57600080fd5b602091909101945092506060601f198201121561483b57600080fd5b506020840190509250925092565b6020815260006113e460208301846142a9565b600981106142e5576142e561425f565b8d81528c60208201528b60408201528a60608201528960808201528860a08201528760c08201528660e08201528561010082015284610120820152836101408201526148bc61016082018461485c565b6101a061018082015260006148d56101a08301846142a9565b9f9e505050505050505050505050505050565b6000602082840312156148fa57600080fd5b813567ffffffffffffffff81111561491157600080fd5b8201601f8101841361492257600080fd5b612d8b848235602084016145ab565b60006020828403121561494357600080fd5b81356affffffffffffffffffffff19811681146113e457600080fd5b602080825282518282018190526000918401906040840190835b81811015614997578351835260209384019390920191600101614979565b509095945050505050565b600067ffffffffffffffff8211156149bc576149bc6144ef565b5060051b60200190565b600082601f8301126149d757600080fd5b81356149e56145b9826149a2565b8082825260208201915060208360051b860101925085831115614a0757600080fd5b602085015b83811015614a24578035835260209283019201614a0c565b5095945050505050565b600080600080600060a08688031215614a4657600080fd5b8535614a51816144e2565b94506020860135935060408601359250606086013567ffffffffffffffff811115614a7b57600080fd5b614a87888289016149c6565b925050608086013567ffffffffffffffff811115614aa457600080fd5b614ab0888289016149c6565b9150509295509295909350565b6020815281516020820152602082015160408201526040820151606082015260608201516080820152608082015160a082015260a082015160c082015260c082015160e082015260e08201516101008201526101008201516101208201526101208201516101408201526101408201516101608201526000610160830151614b4961018084018261485c565b506101808301516101a080840152612d8b6101c08401826142a9565b60208152815160208201526020820151604082015260006040830151614b8a81614275565b80606084015250606083015160c06080840152614baa60e08401826142a9565b90506080840151601f198483030160a0850152614bc782826142a9565b91505060a084015161263960c08501826142d5565b634e487b7160e01b600052601160045260246000fd5b81810381811115612c2c57612c2c614bdc565b634e487b7160e01b600052603260045260246000fd5b600181811c90821680614c2f57607f821691505b602082108103612e0d57634e487b7160e01b600052602260045260246000fd5b80820180821115612c2c57612c2c614bdc565b601f821115610a4857806000526020600020601f840160051c81016020851015614c895750805b601f840160051c820191505b818110156110635760008155600101614c95565b815167ffffffffffffffff811115614cc357614cc36144ef565b614cd781614cd18454614c1b565b84614c62565b6020601f821160018114614d0b5760008315614cf35750848201515b600019600385901b1c1916600184901b178455611063565b600084815260208120601f198516915b82811015614d3b5787850151825560209485019460019092019101614d1b565b5084821015614d595786840151600019600387901b60f8161c191681555b50505050600190811b01905550565b7f19457468657265756d205369676e6564204d6573736167653a0a000000000000815260008451614da081601a850160208901614285565b82018385601a83013760009301601a0192835250909392505050565b6000808354614dca81614c1b565b600182168015614de15760018114614df657614e26565b60ff1983168652811515820286019350614e26565b86600052602060002060005b83811015614e1e57815488820152600190910190602001614e02565b505081860193505b509195945050505050565b602081526000825160a06020840152614e4d60c08401826142a9565b90506001600160a01b036020850151166040840152604084015160608401526060840151601f19848303016080850152614e8782826142a9565b6080860151858203601f190160a08701528051808352919350602090810192508084019190600582901b85010160005b82811015614ee857601f19868303018452614ed38286516142a9565b60209586019594909401939150600101614eb7565b50979650505050505050565b848152836020820152608060408201526000614f13608083018561437e565b8281036060840152613f3f818561437e565b634e487b7160e01b600052603160045260246000fd5b634e487b7160e01b600052601260045260246000fd5b600060018201614f6357614f63614bdc565b5060010190565b848152836020820152608060408201526000614f8960808301856142a9565b8281036060840152613f3f81856142a9565b60008251614fad818460208701614285565b9190910192915050565b600060208284031215614fc957600080fd5b815180151581146113e457600080fd5b604081526000614fec60408301856142a9565b828103602084015261447681856142a9565b600061500c6145b984614583565b905082815283838301111561502057600080fd5b6113e4836020830184614285565b6000806040838503121561504157600080fd5b825161504c816144cc565b602084015190925067ffffffffffffffff81111561506957600080fd5b8301601f8101851361507a57600080fd5b61508985825160208401614ffe565b9150509250929050565b6000826150a2576150a2614f3b565b500490565b8082028115828204841417612c2c57612c2c614bdc565b60ff81811683821602908116908181146135f0576135f0614bdc565b60ff8181168382160190811115612c2c57612c2c614bdc565b805160208201516bffffffffffffffffffffffff1981169190601482101561513f576bffffffffffffffffffffffff196bffffffffffffffffffffffff198360140360031b1b82161692505b5050919050565b60008161515557615155614bdc565b506000190190565b61ffff8281168282160390811115612c2c57612c2c614bdc565b63ffffffff81811683821602908116908181146135f0576135f0614bdc565b60ff8281168282160390811115612c2c57612c2c614bdc565b61ffff81811683821602908116908181146135f0576135f0614bdc565b600082601f8301126151dd57600080fd5b6113e483835160208501614ffe565b80516141af816141ea565b600082601f83011261520857600080fd5b81516152166145b9826149a2565b8082825260208201915060208360051b86010192508583111561523857600080fd5b602085015b83811015614a2457805167ffffffffffffffff81111561525c57600080fd5b61526b886020838a01016151cc565b8452506020928301920161523d565b60006020828403121561528c57600080fd5b815167ffffffffffffffff8111156152a357600080fd5b820160a081850312156152b557600080fd5b6152bd61452f565b815167ffffffffffffffff8111156152d457600080fd5b6152e0868285016151cc565b8252506152ef602083016151ec565b602082015260408281015190820152606082015167ffffffffffffffff81111561531857600080fd5b615324868285016151cc565b606083015250608082015167ffffffffffffffff81111561534457600080fd5b615350868285016151f7565b608083015250949350505050565b600061ffff83168061537257615372614f3b565b8061ffff8416069150509291505056fea2646970667358221220cea16568471ef633849378ffdc34f770c9dd27cedf1366a0218c275d0a864a9564736f6c634300081c0033",
  "linkReferences": {},
  "deployedLinkReferences": {}
}