{"contracts/polybet.sol":{"PolyBet":{"abi":[{"inputs":[],"stateMutability":"nonpayable","type":"constructor"},{"inputs":[],"name":"A13e_RevokedAuthToken","type":"error"},{"inputs":[],"name":"SiweAuth_AddressMismatch","type":"error"},{"inputs":[],"name":"SiweAuth_ChainIdMismatch","type":"error"},{"inputs":[],"name":"SiweAuth_DomainMismatch","type":"error"},{"inputs":[],"name":"SiweAuth_Expired","type":"error"},{"inputs":[],"name":"SiweAuth_NotBeforeInFuture","type":"error"},{"inputs":[],"name":"SiweParser_InvalidAddressLength","type":"error"},{"inputs":[],"name":"SiweParser_InvalidNonce","type":"error"},{"anonymous":false,"inputs":[{"indexed":true,"internalType":"uint256","name":"betId","type":"uint256"},{"indexed":false,"internalType":"uint256","name":"totalCollateralAmount","type":"uint256"},{"indexed":false,"internalType":"bytes32[]","name":"marketplaceIds","type":"bytes32[]"},{"indexed":false,"internalType":"bytes32[]","name":"marketIds","type":"bytes32[]"}],"name":"BetSlipCreated","type":"event"},{"inputs":[{"internalType":"uint64","name":"chainId","type":"uint64"},{"internalType":"enum PolyBet.ChainFamily","name":"family","type":"uint8"},{"internalType":"string","name":"name","type":"string"},{"internalType":"string","name":"marketplaceProxy","type":"string"}],"name":"addMarketplace","outputs":[],"stateMutability":"nonpayable","type":"function"},{"inputs":[{"internalType":"uint256","name":"","type":"uint256"}],"name":"betSlips","outputs":[{"internalType":"enum PolyBet.BetSlipStrategy","name":"strategy","type":"uint8"},{"internalType":"uint256","name":"initialCollateral","type":"uint256"},{"internalType":"uint256","name":"finalCollateral","type":"uint256"},{"internalType":"string","name":"failureReason","type":"string"},{"internalType":"enum PolyBet.BetOutcome","name":"outcome","type":"uint8"},{"internalType":"enum PolyBet.BetSlipStatus","name":"status","type":"uint8"}],"stateMutability":"view","type":"function"},{"inputs":[],"name":"domain","outputs":[{"internalType":"string","name":"","type":"string"}],"stateMutability":"view","type":"function"},{"inputs":[{"internalType":"uint256","name":"betSlipId","type":"uint256"}],"name":"getBetSlip","outputs":[{"components":[{"internalType":"enum PolyBet.BetSlipStrategy","name":"strategy","type":"uint8"},{"internalType":"uint256","name":"initialCollateral","type":"uint256"},{"internalType":"uint256","name":"finalCollateral","type":"uint256"},{"internalType":"string","name":"failureReason","type":"string"},{"internalType":"enum PolyBet.BetOutcome","name":"outcome","type":"uint8"},{"internalType":"enum PolyBet.BetSlipStatus","name":"status","type":"uint8"}],"internalType":"struct PolyBet.BetSlip","name":"","type":"tuple"}],"stateMutability":"view","type":"function"},{"inputs":[{"internalType":"uint256","name":"marketplaceId","type":"uint256"}],"name":"getMarketplace","outputs":[{"components":[{"internalType":"uint256","name":"warpRouterId","type":"uint256"},{"internalType":"uint256","name":"chainId","type":"uint256"},{"internalType":"enum PolyBet.ChainFamily","name":"chainFamily","type":"uint8"},{"internalType":"string","name":"name","type":"string"},{"internalType":"string","name":"marketplaceProxy","type":"string"},{"internalType":"enum PolyBet.PricingStrategy","name":"pricingStrategy","type":"uint8"}],"internalType":"struct PolyBet.Marketplace","name":"","type":"tuple"}],"stateMutability":"view","type":"function"},{"inputs":[{"internalType":"uint256","name":"betId","type":"uint256"}],"name":"getProxiedBet","outputs":[{"components":[{"internalType":"bytes32","name":"id","type":"bytes32"},{"internalType":"bytes32","name":"betSlipId","type":"bytes32"},{"internalType":"bytes32","name":"marketplaceId","type":"bytes32"},{"internalType":"bytes32","name":"marketId","type":"bytes32"},{"internalType":"uint256","name":"optionIndex","type":"uint256"},{"internalType":"uint256","name":"minimumShares","type":"uint256"},{"internalType":"uint256","name":"blockTimestamp","type":"uint256"},{"internalType":"uint256","name":"originalCollateralAmount","type":"uint256"},{"internalType":"uint256","name":"finalCollateralAmount","type":"uint256"},{"internalType":"uint256","name":"sharesBought","type":"uint256"},{"internalType":"uint256","name":"sharesSold","type":"uint256"},{"internalType":"enum PolyBet.BetOutcome","name":"outcome","type":"uint8"},{"internalType":"string","name":"failureReason","type":"string"}],"internalType":"struct PolyBet.ProxiedBet","name":"","type":"tuple"}],"stateMutability":"view","type":"function"},{"inputs":[],"name":"getUserActiveBetslips","outputs":[{"internalType":"uint256[]","name":"","type":"uint256[]"}],"stateMutability":"view","type":"function"},{"inputs":[{"internalType":"bytes","name":"authToken","type":"bytes"}],"name":"getUserActiveBetslips","outputs":[{"internalType":"uint256[]","name":"","type":"uint256[]"}],"stateMutability":"view","type":"function"},{"inputs":[{"internalType":"bytes","name":"authToken","type":"bytes"}],"name":"getUserBalance","outputs":[{"internalType":"uint256","name":"","type":"uint256"}],"stateMutability":"view","type":"function"},{"inputs":[],"name":"getUserBalance","outputs":[{"internalType":"uint256","name":"","type":"uint256"}],"stateMutability":"view","type":"function"},{"inputs":[{"internalType":"bytes","name":"authToken","type":"bytes"}],"name":"getUserClosedBets","outputs":[{"internalType":"uint256[]","name":"","type":"uint256[]"}],"stateMutability":"view","type":"function"},{"inputs":[],"name":"getUserClosedBets","outputs":[{"internalType":"uint256[]","name":"","type":"uint256[]"}],"stateMutability":"view","type":"function"},{"inputs":[{"internalType":"string","name":"siweMsg","type":"string"},{"components":[{"internalType":"bytes32","name":"r","type":"bytes32"},{"internalType":"bytes32","name":"s","type":"bytes32"},{"internalType":"uint256","name":"v","type":"uint256"}],"internalType":"struct SignatureRSV","name":"sig","type":"tuple"}],"name":"login","outputs":[{"internalType":"bytes","name":"","type":"bytes"}],"stateMutability":"view","type":"function"},{"inputs":[{"internalType":"uint256","name":"","type":"uint256"}],"name":"marketIdMapping","outputs":[{"internalType":"uint256","name":"","type":"uint256"}],"stateMutability":"view","type":"function"},{"inputs":[{"internalType":"uint256","name":"","type":"uint256"}],"name":"marketplaces","outputs":[{"internalType":"uint256","name":"warpRouterId","type":"uint256"},{"internalType":"uint256","name":"chainId","type":"uint256"},{"internalType":"enum PolyBet.ChainFamily","name":"chainFamily","type":"uint8"},{"internalType":"string","name":"name","type":"string"},{"internalType":"string","name":"marketplaceProxy","type":"string"},{"internalType":"enum PolyBet.PricingStrategy","name":"pricingStrategy","type":"uint8"}],"stateMutability":"view","type":"function"},{"inputs":[{"internalType":"enum PolyBet.BetSlipStrategy","name":"strategy","type":"uint8"},{"internalType":"uint256","name":"totalCollateralAmount","type":"uint256"},{"internalType":"bytes32[]","name":"marketplaceIds","type":"bytes32[]"},{"internalType":"bytes32[]","name":"marketIds","type":"bytes32[]"}],"name":"placeBet","outputs":[],"stateMutability":"nonpayable","type":"function"},{"inputs":[{"internalType":"uint256","name":"","type":"uint256"}],"name":"proxiedBets","outputs":[{"internalType":"bytes32","name":"id","type":"bytes32"},{"internalType":"bytes32","name":"betSlipId","type":"bytes32"},{"internalType":"bytes32","name":"marketplaceId","type":"bytes32"},{"internalType":"bytes32","name":"marketId","type":"bytes32"},{"internalType":"uint256","name":"optionIndex","type":"uint256"},{"internalType":"uint256","name":"minimumShares","type":"uint256"},{"internalType":"uint256","name":"blockTimestamp","type":"uint256"},{"internalType":"uint256","name":"originalCollateralAmount","type":"uint256"},{"internalType":"uint256","name":"finalCollateralAmount","type":"uint256"},{"internalType":"uint256","name":"sharesBought","type":"uint256"},{"internalType":"uint256","name":"sharesSold","type":"uint256"},{"internalType":"enum PolyBet.BetOutcome","name":"outcome","type":"uint8"},{"internalType":"string","name":"failureReason","type":"string"}],"stateMutability":"view","type":"function"},{"inputs":[{"internalType":"uint256","name":"betSlipId","type":"uint256"},{"internalType":"enum PolyBet.BetSlipStatus","name":"status","type":"uint8"}],"name":"updateBetSlipStatus","outputs":[],"stateMutability":"nonpayable","type":"function"},{"inputs":[{"internalType":"address","name":"","type":"address"},{"internalType":"uint256","name":"","type":"uint256"}],"name":"userActiveBetSlips","outputs":[{"internalType":"uint256","name":"","type":"uint256"}],"stateMutability":"view","type":"function"},{"inputs":[{"internalType":"address","name":"","type":"address"}],"name":"userBalances","outputs":[{"internalType":"uint256","name":"","type":"uint256"}],"stateMutability":"view","type":"function"},{"inputs":[{"internalType":"address","name":"","type":"address"},{"internalType":"uint256","name":"","type":"uint256"}],"name":"userClosedBetSlips","outputs":[{"internalType":"uint256","name":"","type":"uint256"}],"stateMutability":"view","type":"function"}],"evm":{"bytecode":{"linkReferences":{},"object":"608060405234801561001057600080fd5b5060405180604001604052806007815260200166141bdb1e50995d60ca1b81525061005160206040518060200160405280600081525061007060201b60201c565b61005a9061015e565b6002556001610069828261021e565b5050610356565b60606000807301000000000000000000000000000000000000016001600160a01b031685856040516020016100a6929190610300565b60408051601f19818403018152908290526100c09161033a565b600060405180830381855afa9150503d80600081146100fb576040519150601f19603f3d011682016040523d82523d6000602084013e610100565b606091505b5091509150816101565760405162461bcd60e51b815260206004820152601360248201527f72616e646f6d42797465733a206661696c656400000000000000000000000000604482015260640160405180910390fd5b949350505050565b8051602080830151919081101561017f576000198160200360031b1b821691505b50919050565b634e487b7160e01b600052604160045260246000fd5b600181811c908216806101af57607f821691505b60208210810361017f57634e487b7160e01b600052602260045260246000fd5b601f82111561021957806000526020600020601f840160051c810160208510156101f65750805b601f840160051c820191505b818110156102165760008155600101610202565b50505b505050565b81516001600160401b0381111561023757610237610185565b61024b81610245845461019b565b846101cf565b6020601f82116001811461027f57600083156102675750848201515b600019600385901b1c1916600184901b178455610216565b600084815260208120601f198516915b828110156102af578785015182556020948501946001909201910161028f565b50848210156102cd5786840151600019600387901b60f8161c191681555b50505050600190811b01905550565b60005b838110156102f75781810151838201526020016102df565b50506000910152565b82815260406020820152600082518060408401526103258160608501602087016102dc565b601f01601f1916919091016060019392505050565b6000825161034c8184602087016102dc565b9190910192915050565b61448a806103656000396000f3fe608060405234801561001057600080fd5b50600436106101775760003560e01c806376334f79116100d8578063b76ebb561161008c578063d69418f311610066578063d69418f314610351578063daee6fbc14610359578063f53aac2a1461036c57600080fd5b8063b76ebb5614610321578063c2fb26a614610336578063d1d758cb1461033e57600080fd5b80638e3ef384116100bd5780638e3ef384146102e65780639f88151e14610306578063b7013dc11461031957600080fd5b806376334f79146102b35780637f476b6f146102c657600080fd5b806332d268a51161012f5780635023a0c9116101145780635023a0c91461025b57806358dee0541461028057806360644d9c1461029357600080fd5b806332d268a51461020f5780634ffc1a001461022f57600080fd5b80632a6d3e9b116101605780632a6d3e9b146101c25780632b64deec146101d75780633074eebc146101fc57600080fd5b806326224c641461017c57806329ec9442146101af575b600080fd5b61019c61018a36600461330e565b600a6020526000908152604090205481565b6040519081526020015b60405180910390f35b61019c6101bd36600461332b565b61038c565b6101d56101d0366004613357565b6103bd565b005b6101ea6101e536600461338b565b610417565b6040516101a696959493929190613465565b61019c61020a36600461332b565b61057a565b61022261021d36600461338b565b610596565b6040516101a691906134e0565b61024261023d36600461338b565b61072a565b6040516101a69d9c9b9a9998979695949392919061354c565b61026e61026936600461338b565b610825565b6040516101a6969594939291906135c8565b6101d561028e36600461376a565b6108ee565b6102a66102a136600461338b565b610a3a565b6040516101a69190613805565b6101d56102c1366004613941565b610c08565b6102d96102d43660046139ba565b610e67565b6040516101a69190613a69565b61019c6102f436600461338b565b60056020526000908152604090205481565b61019c610314366004613a7c565b611299565b61019c6112d1565b61032961134e565b6040516101a69190613ac5565b6102d9611416565b61032961034c366004613a7c565b61149f565b610329611528565b610329610367366004613a7c565b6115ee565b61037f61037a36600461338b565b611675565b6040516101a69190613b08565b600960205281600052604060002081815481106103a857600080fd5b90600052602060002001600091509150505481565b60008281526007602052604090206004908101805483927fffffffffffffffffffffffffffffffffffffffffffffffffffffffffffff00ff9091169061010090849081111561040e5761040e6133a4565b02179055505050565b6004818154811061042757600080fd5b60009182526020909120600690910201805460018201546002830154600384018054939550919360ff9091169290919061046090613b9d565b80601f016020809104026020016040519081016040528092919081815260200182805461048c90613b9d565b80156104d95780601f106104ae576101008083540402835291602001916104d9565b820191906000526020600020905b8154815290600101906020018083116104bc57829003601f168201915b5050505050908060040180546104ee90613b9d565b80601f016020809104026020016040519081016040528092919081815260200182805461051a90613b9d565b80156105675780601f1061053c57610100808354040283529160200191610567565b820191906000526020600020905b81548152906001019060200180831161054a57829003601f168201915b5050506005909301549192505060ff1686565b600860205281600052604060002081815481106103a857600080fd5b6105cd6040805160c08101825260008082526020820181905291810182905260608082015290608082019081526020016000905290565b60008281526007602052604090819020815160c081019092528054829060ff1660018111156105fe576105fe6133a4565b600181111561060f5761060f6133a4565b8152602001600182015481526020016002820154815260200160038201805461063790613b9d565b80601f016020809104026020016040519081016040528092919081815260200182805461066390613b9d565b80156106b05780601f10610685576101008083540402835291602001916106b0565b820191906000526020600020905b81548152906001019060200180831161069357829003601f168201915b5050509183525050600482015460209091019060ff1660078111156106d7576106d76133a4565b60078111156106e8576106e86133a4565b81526020016004820160019054906101000a900460ff166004811115610710576107106133a4565b6004811115610721576107216133a4565b90525092915050565b600b60205280600052604060002060009150905080600001549080600101549080600201549080600301549080600401549080600501549080600601549080600701549080600801549080600901549080600a01549080600b0160009054906101000a900460ff169080600c0180546107a290613b9d565b80601f01602080910402602001604051908101604052809291908181526020018280546107ce90613b9d565b801561081b5780601f106107f05761010080835404028352916020019161081b565b820191906000526020600020905b8154815290600101906020018083116107fe57829003601f168201915b505050505090508d565b600760205260009081526040902080546001820154600283015460038401805460ff90941694929391929161085990613b9d565b80601f016020809104026020016040519081016040528092919081815260200182805461088590613b9d565b80156108d25780601f106108a7576101008083540402835291602001916108d2565b820191906000526020600020905b8154815290600101906020018083116108b557829003601f168201915b5050506004909301549192505060ff8082169161010090041686565b600380549060006108fe83613c19565b909155506040805160c0810182526000815267ffffffffffffffff871660208201526004918101866001811115610937576109376133a4565b8152602081018690526040810185905260600160029052815460018181018455600093845260209384902083516006909302019182559282015181840155604082015160028201805493949293919290917fffffffffffffffffffffffffffffffffffffffffffffffffffffffffffffff00169083818111156109bc576109bc6133a4565b0217905550606082015160038201906109d59082613ca0565b50608082015160048201906109ea9082613ca0565b5060a08201516005820180547fffffffffffffffffffffffffffffffffffffffffffffffffffffffffffffff00166001836002811115610a2c57610a2c6133a4565b021790555050505050505050565b610aa9604080516101a081018252600080825260208201819052918101829052606081018290526080810182905260a0810182905260c0810182905260e08101829052610100810182905261012081018290526101408101829052906101608201908152602001606081525090565b600b6000838152602001908152602001600020604051806101a001604052908160008201548152602001600182015481526020016002820154815260200160038201548152602001600482015481526020016005820154815260200160068201548152602001600782015481526020016008820154815260200160098201548152602001600a8201548152602001600b820160009054906101000a900460ff166007811115610b5a57610b5a6133a4565b6007811115610b6b57610b6b6133a4565b8152602001600c82018054610b7f90613b9d565b80601f0160208091040260200160405190810160405280929190818152602001828054610bab90613b9d565b8015610bf85780601f10610bcd57610100808354040283529160200191610bf8565b820191906000526020600020905b815481529060010190602001808311610bdb57829003601f168201915b5050505050815250509050919050565b8051825114610c78576040517f08c379a000000000000000000000000000000000000000000000000000000000815260206004820152601860248201527f4172726179206c656e67746873206d757374206d61746368000000000000000060448201526064015b60405180910390fd5b600680549081906000610c8a83613c19565b91905055506040518060c00160405280866001811115610cac57610cac6133a4565b81526020018581526020016000815260200160405180602001604052806000815250815260200160006007811115610ce657610ce66133a4565b81526020016000905260008281526007602052604090208151815482907fffffffffffffffffffffffffffffffffffffffffffffffffffffffffffffff001660018381811115610d3857610d386133a4565b0217905550602082015160018201556040820151600282015560608201516003820190610d659082613ca0565b5060808201516004820180547fffffffffffffffffffffffffffffffffffffffffffffffffffffffffffffff00166001836007811115610da757610da76133a4565b021790555060a08201518160040160016101000a81548160ff02191690836004811115610dd657610dd66133a4565b021790555050336000818152600860209081526040808320805460018101825590845282842001869055928252600a90529081208054879350909190610e1d908490613db9565b92505081905550807f9fb6826dd39ef8ac6b7906fe4c38f1fab9247f82abea744a0bbcd71dd24f6ebb858585604051610e5893929190613e08565b60405180910390a25050505050565b6060610eb16040518060a0016040528060608152602001600073ffffffffffffffffffffffffffffffffffffffff1681526020016000815260200160608152602001606081525090565b6000610ebc85611849565b8686604051602001610ed093929190613e33565b604080517fffffffffffffffffffffffffffffffffffffffffffffffffffffffffffffffe0818403018152828252805160208083019190912060008086528583018086529190915260ff89850135169385019390935287356060850152870135608084015292509060019060a0016020604051602081039080840390855afa158015610f60573d6000803e3d6000fd5b50506040517fffffffffffffffffffffffffffffffffffffffffffffffffffffffffffffffe0015173ffffffffffffffffffffffffffffffffffffffff81166020860152915060009050610fb48888611908565b9050468160a0015114610ff3576040517f362c833700000000000000000000000000000000000000000000000000000000815260040160405180910390fd5b60016040516110029190613e87565b60405180910390208160000151805190602001201461104d576040517f283d62bd00000000000000000000000000000000000000000000000000000000815260040160405180910390fd5b80518452602081015173ffffffffffffffffffffffffffffffffffffffff8381169116146110a7576040517f05cc02e100000000000000000000000000000000000000000000000000000000815260040160405180910390fd5b61012081015151158015906110c957506110c5816101200151611fbc565b4211155b15611100576040517f299d02f100000000000000000000000000000000000000000000000000000000815260040160405180910390fd5b610100810151511561112757600061111c826101000151611fbc565b60408601525061113a565b6111346201518042613db9565b60408501525b83604001514210611177576040517fb171155000000000000000000000000000000000000000000000000000000000815260040160405180910390fd5b604081015160608501526101608101515167ffffffffffffffff8111156111a0576111a061361f565b6040519080825280602002602001820160405280156111d357816020015b60608152602001906001900390816111be5790505b50608085015260005b8161016001515181101561123257816101600151818151811061120157611201613f1a565b60200260200101518560800151828151811061121f5761121f613f1a565b60209081029190910101526001016111dc565b50600061128c6002546000801b876040516020016112509190613f49565b604080517fffffffffffffffffffffffffffffffffffffffffffffffffffffffffffffffe081840301815260208301909152600082529061202b565b9998505050505050505050565b6000806112a583612160565b73ffffffffffffffffffffffffffffffffffffffff166000908152600a60205260409020549392505050565b60003361133a576040517f08c379a000000000000000000000000000000000000000000000000000000000815260206004820152601760248201527f41757468656e7469636174696f6e2072657175697265640000000000000000006044820152606401610c6f565b50336000908152600a602052604090205490565b6060336113b7576040517f08c379a000000000000000000000000000000000000000000000000000000000815260206004820152601760248201527f41757468656e7469636174696f6e2072657175697265640000000000000000006044820152606401610c6f565b336000908152600860209081526040918290208054835181840281018401909452808452909183018282801561140c57602002820191906000526020600020905b8154815260200190600101908083116113f8575b5050505050905090565b60606001805461142590613b9d565b80601f016020809104026020016040519081016040528092919081815260200182805461145190613b9d565b801561140c5780601f106114735761010080835404028352916020019161140c565b820191906000526020600020905b81548152906001019060200180831161148157509395945050505050565b606060006114ac83612160565b73ffffffffffffffffffffffffffffffffffffffff8116600090815260096020908152604091829020805483518184028101840190945280845293945091929083018282801561151b57602002820191906000526020600020905b815481526020019060010190808311611507575b5050505050915050919050565b606033611591576040517f08c379a000000000000000000000000000000000000000000000000000000000815260206004820152601760248201527f41757468656e7469636174696f6e2072657175697265640000000000000000006044820152606401610c6f565b336000908152600960209081526040918290208054835181840281018401909452808452909183018282801561140c57602002820191906000526020600020908154815260200190600101908083116113f8575050505050905090565b606060006115fb83612160565b73ffffffffffffffffffffffffffffffffffffffff8116600090815260086020908152604091829020805483518184028101840190945280845293945091929083018282801561151b5760200282019190600052602060002090815481526020019060010190808311611507575050505050915050919050565b61167d613284565b6004828154811061169057611690613f1a565b90600052602060002090600602016040518060c001604052908160008201548152602001600182015481526020016002820160009054906101000a900460ff1660018111156116e1576116e16133a4565b60018111156116f2576116f26133a4565b815260200160038201805461170690613b9d565b80601f016020809104026020016040519081016040528092919081815260200182805461173290613b9d565b801561177f5780601f106117545761010080835404028352916020019161177f565b820191906000526020600020905b81548152906001019060200180831161176257829003601f168201915b5050505050815260200160048201805461179890613b9d565b80601f01602080910402602001604051908101604052809291908181526020018280546117c490613b9d565b80156118115780601f106117e657610100808354040283529160200191611811565b820191906000526020600020905b8154815290600101906020018083116117f457829003601f168201915b5050509183525050600582015460209091019060ff166002811115611838576118386133a4565b6002811115610721576107216133a4565b60606000611856836121e0565b600101905060008167ffffffffffffffff8111156118765761187661361f565b6040519080825280601f01601f1916602001820160405280156118a0576020820181803683370190505b5090508181016020015b7fffffffffffffffffffffffffffffffffffffffffffffffffffffffffffffffff017f3031323334353637383961626364656600000000000000000000000000000000600a86061a8153600a85049450846118aa575b509392505050565b61198260405180610180016040528060608152602001600073ffffffffffffffffffffffffffffffffffffffff168152602001606081526020016060815260200160608152602001600081526020016060815260200160608152602001606081526020016060815260200160608152602001606081525090565b6119fc60405180610180016040528060608152602001600073ffffffffffffffffffffffffffffffffffffffff168152602001606081526020016060815260200160608152602001600081526020016060815260200160608152602001606081526020016060815260200160608152602001606081525090565b60005b83811015611ab757848482818110611a1957611a19613f1a565b909101357fff00000000000000000000000000000000000000000000000000000000000000167f2000000000000000000000000000000000000000000000000000000000000000039050611aaf57611aa885858080601f016020809104026020016040519081016040528093929190818152602001838380828437600092018290525092508591506122c29050565b8252611ab7565b6001016119ff565b611ac2603282613db9565b9050611b29611b2486868080601f016020809104026020016040519081016040528093929190818152602001838380828437600092019190915250611b0e925060029150869050613db9565b935083611b1c602882613db9565b9450846122c2565b6123c9565b73ffffffffffffffffffffffffffffffffffffffff166020830152611b4f600282613db9565b90508381108015611bbd5750848482818110611b6d57611b6d613f1a565b9050013560f81c60f81b7effffffffffffffffffffffffffffffffffffffffffffffffffffffffffffff19167f0a0000000000000000000000000000000000000000000000000000000000000014155b15611c9057805b84811015611c8e57858582818110611bde57611bde613f1a565b909101357fff00000000000000000000000000000000000000000000000000000000000000167f0a00000000000000000000000000000000000000000000000000000000000000039050611c8657611c6f86868080601f0160208091040260200160405190810160405280939291908181526020018383808284376000920191909152508692508591506122c29050565b6040840152611c7f816001613db9565b9150611c8e565b600101611bc4565b505b80611c9a81613c19565b915050611cde85856040518060400160405280600381526020017f55524900000000000000000000000000000000000000000000000000000000008152508461252e565b836060018193508290525050611d2b85856040518060400160405280600781526020017f56657273696f6e000000000000000000000000000000000000000000000000008152508461252e565b8360800181935082905250506060611d7a86866040518060400160405280600881526020017f436861696e2049440000000000000000000000000000000000000000000000008152508561252e565b92509050611d87816127ca565b60a084015260408051808201909152600581527f4e6f6e63650000000000000000000000000000000000000000000000000000006020820152611dce90879087908561252e565b60c08501829052905190925060081115611e14576040517fb4bc030c00000000000000000000000000000000000000000000000000000000815260040160405180910390fd5b611e5586866040518060400160405280600981526020017f49737375656420417400000000000000000000000000000000000000000000008152508561252e565b8460e0018194508290525050611ea286866040518060400160405280600f81526020017f45787069726174696f6e2054696d6500000000000000000000000000000000008152508561252e565b84610100018194508290525050611ef086866040518060400160405280600a81526020017f4e6f74204265666f7265000000000000000000000000000000000000000000008152508561252e565b84610120018194508290525050611f3e86866040518060400160405280600a81526020017f52657175657374204944000000000000000000000000000000000000000000008152508561252e565b846101400181945082905250506000611f8e87876040518060400160405280600981526020017f5265736f757263657300000000000000000000000000000000000000000000008152508661252e565b915050828114611faf57611fa3878783612824565b61016086019190915292505b5091925050505b92915050565b6000611fb6611fd6611fd184600060046122c2565b6127ca565b611fe6611fd185600560076122c2565b611ff6611fd1866008600a6122c2565b612006611fd187600b600d6122c2565b612016611fd188600e60106122c2565b612026611fd189601160136122c2565b612c15565b606060008073010000000000000000000000000000000000000373ffffffffffffffffffffffffffffffffffffffff168787878760405160200161207294939291906140a4565b604080517fffffffffffffffffffffffffffffffffffffffffffffffffffffffffffffffe0818403018152908290526120aa916140d5565b600060405180830381855afa9150503d80600081146120e5576040519150601f19603f3d011682016040523d82523d6000602084013e6120ea565b606091505b509150915081612156576040517f08c379a000000000000000000000000000000000000000000000000000000000815260206004820152600f60248201527f656e63727970743a206661696c656400000000000000000000000000000000006044820152606401610c6f565b9695505050505050565b80516020808301919091206000908152908190526040812054829060ff16156121b5576040517f9ea6784800000000000000000000000000000000000000000000000000000000815260040160405180910390fd5b82516000036121c757600091506121da565b60006121d284612dbb565b602001519250505b50919050565b6000807a184f03e93ff9f4daa797ed6e38ed64bf6a1f0100000000000000008310612229577a184f03e93ff9f4daa797ed6e38ed64bf6a1f010000000000000000830492506040015b6d04ee2d6d415b85acef81000000008310612255576d04ee2d6d415b85acef8100000000830492506020015b662386f26fc10000831061227357662386f26fc10000830492506010015b6305f5e100831061228b576305f5e100830492506008015b612710831061229f57612710830492506004015b606483106122b1576064830492506002015b600a8310611fb65760010192915050565b606060006122d084846140f1565b67ffffffffffffffff8111156122e8576122e861361f565b6040519080825280601f01601f191660200182016040528015612312576020820181803683370190505b509050835b83811080156123265750855181105b156123c05785818151811061233d5761233d613f1a565b01602001517fff00000000000000000000000000000000000000000000000000000000000000168261236f87846140f1565b8151811061237f5761237f613f1a565b60200101907effffffffffffffffffffffffffffffffffffffffffffffffffffffffffffff1916908160001a905350806123b881613c19565b915050612317565b50949350505050565b60008151602814612406576040517facf8696900000000000000000000000000000000000000000000000000000000815260040160405180910390fd5b6000600283516124169190614104565b67ffffffffffffffff81111561242e5761242e61361f565b6040519080825280601f01601f191660200182016040528015612458576020820181803683370190505b50905060005b6002845161246c9190614104565b81101561251a576124aa84612482836002614118565b61248d906001613db9565b8151811061249d5761249d613f1a565b016020015160f81c612ede565b6124b98561248d846002614118565b6124c490601061412f565b6124ce919061414b565b60f81b8282815181106124e3576124e3613f1a565b60200101907effffffffffffffffffffffffffffffffffffffffffffffffffffffffffffff1916908160001a90535060010161245e565b5061252481614164565b60601c9392505050565b60606000825b858110156126b15786868281811061254e5761254e613f1a565b909101357fff00000000000000000000000000000000000000000000000000000000000000167f3a0000000000000000000000000000000000000000000000000000000000000003905061269f5784805190602001206125e788888080601f0160208091040260200160405190810160405280939291908181526020018383808284376000920191909152508992508691506122c29050565b805190602001201461260c5750506040805160208101909152600081529050816127c1565b8061261681613c19565b9150508581108015612684575086868281811061263557612635613f1a565b9050013560f81c60f81b7effffffffffffffffffffffffffffffffffffffffffffffffffffffffffffff19167f2000000000000000000000000000000000000000000000000000000000000000145b15612697578061269381613c19565b9150505b8093506126b1565b806126a981613c19565b915050612534565b85811015612779578686828181106126cb576126cb613f1a565b909101357fff00000000000000000000000000000000000000000000000000000000000000167f0a000000000000000000000000000000000000000000000000000000000000000390506127715761275c87878080601f0160208091040260200160405190810160405280939291908181526020018383808284376000920191909152508892508591506122c29050565b612767826001613db9565b92509250506127c1565b6001016126b1565b6127bc87878080601f0160208091040260200160405190810160405280939291908181526020018383808284376000920191909152508892508591506122c29050565b925090505b94509492505050565b600080805b835181101561281d5760308482815181106127ec576127ec613f1a565b01602001516127fe919060f81c6140f1565b61280983600a614118565b6128139190613db9565b91506001016127cf565b5092915050565b6060600082815b6128366001876140f1565b8210156129b15786868381811061284f5761284f613f1a565b9050013560f81c60f81b7effffffffffffffffffffffffffffffffffffffffffffffffffffffffffffff19167f2d0000000000000000000000000000000000000000000000000000000000000014801561290f575086866128b1846001613db9565b8181106128c0576128c0613f1a565b9050013560f81c60f81b7effffffffffffffffffffffffffffffffffffffffffffffffffffffffffffff19167f2000000000000000000000000000000000000000000000000000000000000000145b156129335761291f600283613db9565b91508061292b81613c19565b915050612938565b6129b1565b8582108015612988575086868381811061295457612954613f1a565b9050013560f81c60f81b7effffffffffffffffffffffffffffffffffffffffffffffffffffffffffffff1916600a60f81b14155b1561299f578161299781613c19565b925050612938565b816129a981613c19565b92505061282b565b60008167ffffffffffffffff8111156129cc576129cc61361f565b6040519080825280602002602001820160405280156129ff57816020015b60608152602001906001900390816129ea5790505b50905085925060005b612a136001896140f1565b84108015612a215750828114155b15612c0757888885818110612a3857612a38613f1a565b9050013560f81c60f81b7effffffffffffffffffffffffffffffffffffffffffffffffffffffffffffff19167f2d00000000000000000000000000000000000000000000000000000000000000148015612af857508888612a9a866001613db9565b818110612aa957612aa9613f1a565b9050013560f81c60f81b7effffffffffffffffffffffffffffffffffffffffffffffffffffffffffffff19167f2000000000000000000000000000000000000000000000000000000000000000145b15612b0b57612b08846002613db9565b96505b8784108015612b5b5750888885818110612b2757612b27613f1a565b9050013560f81c60f81b7effffffffffffffffffffffffffffffffffffffffffffffffffffffffffffff1916600a60f81b14155b15612b725783612b6a81613c19565b945050612b0b565b612bb589898080601f0160208091040260200160405190810160405280939291908181526020018383808284376000920191909152508b92508891506122c29050565b828281518110612bc757612bc7613f1a565b60200260200101819052508080612bdd90613c19565b915050878403612bf55783612bf1816141d0565b9450505b83612bff81613c19565b945050612a08565b509791965090945050505050565b60006107b25b8761ffff168161ffff161015612c6757612c34816130fa565b15612c4e57612c476301e2850083613db9565b9150612c5f565b612c5c6301e1338083613db9565b91505b600101612c1b565b612c6f6132ca565b601f8152612c7c896130fa565b15612c8d57601d6020820152612c95565b601c60208201525b601f60408201819052601e606083018190526080830182905260a0830181905260c0830182905260e0830182905261010083018190526101208301829052610140830152610160820152600191505b8760ff168261ffff161015612d425780612cff600184614205565b61ffff16600c8110612d1357612d13613f1a565b6020020151612d25906201518061421f565b612d359063ffffffff1684613db9565b9250600190910190612ce4565b612d4d60018861423e565b612d5d9060ff166201518061421f565b612d6d9063ffffffff1684613db9565b9250612d7e60ff8716610e1061421f565b612d8e9063ffffffff1684613db9565b9250612d9e60ff8616603c614257565b612dac9061ffff1684613db9565b925061128c60ff851684613db9565b612e036040518060a0016040528060608152602001600073ffffffffffffffffffffffffffffffffffffffff1681526020016000815260200160608152602001606081525090565b6000612e256002546000801b8560405180602001604052806000815250613159565b9050600081806020019051810190612e3d919061434c565b90506001604051612e4e9190613e87565b604051809103902081600001518051906020012014612e99576040517f283d62bd00000000000000000000000000000000000000000000000000000000815260040160405180910390fd5b4281604001511015612ed7576040517fb171155000000000000000000000000000000000000000000000000000000000815260040160405180910390fd5b9392505050565b60007f300000000000000000000000000000000000000000000000000000000000000060f883901b7fff000000000000000000000000000000000000000000000000000000000000001610801590612f7c57507f390000000000000000000000000000000000000000000000000000000000000060f883901b7fff000000000000000000000000000000000000000000000000000000000000001611155b15612f8c57611fb660308361423e565b7f610000000000000000000000000000000000000000000000000000000000000060f883901b7fff00000000000000000000000000000000000000000000000000000000000000161080159061302857507f660000000000000000000000000000000000000000000000000000000000000060f883901b7fff000000000000000000000000000000000000000000000000000000000000001611155b1561304457606161303a83600a61414b565b611fb6919061423e565b7f410000000000000000000000000000000000000000000000000000000000000060f883901b7fff0000000000000000000000000000000000000000000000000000000000000016108015906130e057507f460000000000000000000000000000000000000000000000000000000000000060f883901b7fff000000000000000000000000000000000000000000000000000000000000001611155b156130f257604161303a83600a61414b565b506000919050565b6000613107600483614430565b61ffff161561311857506000919050565b613123606483614430565b61ffff161561313457506001919050565b61314061019083614430565b61ffff161561315157506000919050565b506001919050565b606060008073010000000000000000000000000000000000000473ffffffffffffffffffffffffffffffffffffffff16878787876040516020016131a094939291906140a4565b604080517fffffffffffffffffffffffffffffffffffffffffffffffffffffffffffffffe0818403018152908290526131d8916140d5565b600060405180830381855afa9150503d8060008114613213576040519150601f19603f3d011682016040523d82523d6000602084013e613218565b606091505b509150915081612156576040517f08c379a000000000000000000000000000000000000000000000000000000000815260206004820152600f60248201527f646563727970743a206661696c656400000000000000000000000000000000006044820152606401610c6f565b6040518060c001604052806000815260200160008152602001600060018111156132b0576132b06133a4565b815260606020820181905260408201819052016000905290565b604051806101800160405280600c906020820280368337509192915050565b73ffffffffffffffffffffffffffffffffffffffff8116811461330b57600080fd5b50565b60006020828403121561332057600080fd5b8135612ed7816132e9565b6000806040838503121561333e57600080fd5b8235613349816132e9565b946020939093013593505050565b6000806040838503121561336a57600080fd5b8235915060208301356005811061338057600080fd5b809150509250929050565b60006020828403121561339d57600080fd5b5035919050565b7f4e487b7100000000000000000000000000000000000000000000000000000000600052602160045260246000fd5b6002811061330b5761330b6133a4565b60005b838110156133fe5781810151838201526020016133e6565b50506000910152565b6000815180845261341f8160208601602086016133e3565b601f017fffffffffffffffffffffffffffffffffffffffffffffffffffffffffffffffe0169290920160200192915050565b60038110613461576134616133a4565b9052565b868152856020820152613477856133d3565b84604082015260c06060820152600061349360c0830186613407565b82810360808401526134a58186613407565b9150506134b560a0830184613451565b979650505050505050565b60088110613461576134616133a4565b60058110613461576134616133a4565b60208152600082516134f1816133d3565b806020840152506020830151604083015260408301516060830152606083015160c0608084015261352560e0840182613407565b9050608084015161353960a08501826134c0565b5060a084015161190060c08501826134d0565b8d81528c60208201528b60408201528a60608201528960808201528860a08201528760c08201528660e082015285610100820152846101208201528361014082015261359c6101608201846134c0565b6101a061018082015260006135b56101a0830184613407565b9f9e505050505050505050505050505050565b6135d1876133d3565b86815285602082015284604082015260c0606082015260006135f660c0830186613407565b905061360560808301856134c0565b6134b560a08301846134d0565b6002811061330b57600080fd5b7f4e487b7100000000000000000000000000000000000000000000000000000000600052604160045260246000fd5b60405160a0810167ffffffffffffffff811182821017156136715761367161361f565b60405290565b604051601f82017fffffffffffffffffffffffffffffffffffffffffffffffffffffffffffffffe016810167ffffffffffffffff811182821017156136be576136be61361f565b604052919050565b600067ffffffffffffffff8211156136e0576136e061361f565b50601f017fffffffffffffffffffffffffffffffffffffffffffffffffffffffffffffffe01660200190565b600061371f61371a846136c6565b613677565b905082815283838301111561373357600080fd5b828260208301376000602084830101529392505050565b600082601f83011261375b57600080fd5b612ed78383356020850161370c565b6000806000806080858703121561378057600080fd5b843567ffffffffffffffff8116811461379857600080fd5b935060208501356137a881613612565b9250604085013567ffffffffffffffff8111156137c457600080fd5b6137d08782880161374a565b925050606085013567ffffffffffffffff8111156137ed57600080fd5b6137f98782880161374a565b91505092959194509250565b6020815281516020820152602082015160408201526040820151606082015260608201516080820152608082015160a082015260a082015160c082015260c082015160e082015260e082015161010082015261010082015161012082015261012082015161014082015261014082015161016082015260006101608301516138916101808401826134c0565b506101808301516101a0808401526138ad6101c0840182613407565b949350505050565b600067ffffffffffffffff8211156138cf576138cf61361f565b5060051b60200190565b600082601f8301126138ea57600080fd5b81356138f861371a826138b5565b8082825260208201915060208360051b86010192508583111561391a57600080fd5b602085015b8381101561393757803583526020928301920161391f565b5095945050505050565b6000806000806080858703121561395757600080fd5b843561396281613612565b935060208501359250604085013567ffffffffffffffff81111561398557600080fd5b613991878288016138d9565b925050606085013567ffffffffffffffff8111156139ae57600080fd5b6137f9878288016138d9565b600080600083850360808112156139d057600080fd5b843567ffffffffffffffff8111156139e757600080fd5b8501601f810187136139f857600080fd5b803567ffffffffffffffff811115613a0f57600080fd5b876020828401011115613a2157600080fd5b6020919091019450925060607fffffffffffffffffffffffffffffffffffffffffffffffffffffffffffffffe082011215613a5b57600080fd5b506020840190509250925092565b602081526000612ed76020830184613407565b600060208284031215613a8e57600080fd5b813567ffffffffffffffff811115613aa557600080fd5b8201601f81018413613ab657600080fd5b6138ad8482356020840161370c565b602080825282518282018190526000918401906040840190835b81811015613afd578351835260209384019390920191600101613adf565b509095945050505050565b60208152815160208201526020820151604082015260006040830151613b2d816133d3565b80606084015250606083015160c06080840152613b4d60e0840182613407565b905060808401517fffffffffffffffffffffffffffffffffffffffffffffffffffffffffffffffe08483030160a0850152613b888282613407565b91505060a084015161190060c0850182613451565b600181811c90821680613bb157607f821691505b6020821081036121da577f4e487b7100000000000000000000000000000000000000000000000000000000600052602260045260246000fd5b7f4e487b7100000000000000000000000000000000000000000000000000000000600052601160045260246000fd5b60007fffffffffffffffffffffffffffffffffffffffffffffffffffffffffffffffff8203613c4a57613c4a613bea565b5060010190565b601f821115613c9b57806000526020600020601f840160051c81016020851015613c785750805b601f840160051c820191505b81811015613c985760008155600101613c84565b50505b505050565b815167ffffffffffffffff811115613cba57613cba61361f565b613cce81613cc88454613b9d565b84613c51565b6020601f821160018114613d205760008315613cea5750848201515b7fffffffffffffffffffffffffffffffffffffffffffffffffffffffffffffffff600385901b1c1916600184901b178455613c98565b6000848152602081207fffffffffffffffffffffffffffffffffffffffffffffffffffffffffffffffe08516915b82811015613d6e5787850151825560209485019460019092019101613d4e565b5084821015613daa57868401517fffffffffffffffffffffffffffffffffffffffffffffffffffffffffffffffff600387901b60f8161c191681555b50505050600190811b01905550565b80820180821115611fb657611fb6613bea565b600081518084526020840193506020830160005b82811015613dfe578151865260209586019590910190600101613de0565b5093949350505050565b838152606060208201526000613e216060830185613dcc565b82810360408401526121568185613dcc565b7f19457468657265756d205369676e6564204d6573736167653a0a000000000000815260008451613e6b81601a8501602089016133e3565b82018385601a83013760009301601a0192835250909392505050565b6000808354613e9581613b9d565b600182168015613eac5760018114613edf57613f0f565b7fffffffffffffffffffffffffffffffffffffffffffffffffffffffffffffff0083168652811515820286019350613f0f565b86600052602060002060005b83811015613f0757815488820152600190910190602001613eeb565b505081860193505b509195945050505050565b7f4e487b7100000000000000000000000000000000000000000000000000000000600052603260045260246000fd5b602081526000825160a06020840152613f6560c0840182613407565b905073ffffffffffffffffffffffffffffffffffffffff60208501511660408401526040840151606084015260608401517fffffffffffffffffffffffffffffffffffffffffffffffffffffffffffffffe0848303016080850152613fca8282613407565b91505060808401517fffffffffffffffffffffffffffffffffffffffffffffffffffffffffffffffe08483030160a085015281815180845260208401915060208160051b85010160208401935060005b82811015614069577fffffffffffffffffffffffffffffffffffffffffffffffffffffffffffffffe0868303018452614054828651613407565b6020958601959490940193915060010161401a565b50979650505050505050565b7f4e487b7100000000000000000000000000000000000000000000000000000000600052601260045260246000fd5b8481528360208201526080604082015260006140c36080830185613407565b82810360608401526134b58185613407565b600082516140e78184602087016133e3565b9190910192915050565b81810381811115611fb657611fb6613bea565b60008261411357614113614075565b500490565b8082028115828204841417611fb657611fb6613bea565b60ff818116838216029081169081811461281d5761281d613bea565b60ff8181168382160190811115611fb657611fb6613bea565b805160208201517fffffffffffffffffffffffffffffffffffffffff0000000000000000000000008116919060148210156141c9577fffffffffffffffffffffffffffffffffffffffff000000000000000000000000808360140360031b1b82161692505b5050919050565b6000816141df576141df613bea565b507fffffffffffffffffffffffffffffffffffffffffffffffffffffffffffffffff0190565b61ffff8281168282160390811115611fb657611fb6613bea565b63ffffffff818116838216029081169081811461281d5761281d613bea565b60ff8281168282160390811115611fb657611fb6613bea565b61ffff818116838216029081169081811461281d5761281d613bea565b600082601f83011261428557600080fd5b815161429361371a826136c6565b8181528460208386010111156142a857600080fd5b6138ad8260208301602087016133e3565b80516142c4816132e9565b919050565b600082601f8301126142da57600080fd5b81516142e861371a826138b5565b8082825260208201915060208360051b86010192508583111561430a57600080fd5b602085015b8381101561393757805167ffffffffffffffff81111561432e57600080fd5b61433d886020838a0101614274565b8452506020928301920161430f565b60006020828403121561435e57600080fd5b815167ffffffffffffffff81111561437557600080fd5b820160a0818503121561438757600080fd5b61438f61364e565b815167ffffffffffffffff8111156143a657600080fd5b6143b286828501614274565b8252506143c1602083016142b9565b602082015260408281015190820152606082015167ffffffffffffffff8111156143ea57600080fd5b6143f686828501614274565b606083015250608082015167ffffffffffffffff81111561441657600080fd5b614422868285016142c9565b608083015250949350505050565b600061ffff83168061444457614444614075565b8061ffff8416069150509291505056fea2646970667358221220477c058120a1fb63cc89e40cdd1b3a06e0cc2f08879a834b1e6c4b38225d2f2964736f6c634300081c0033","opcodes":"PUSH1 0x80 PUSH1 0x40 MSTORE CALLVALUE DUP1 ISZERO PUSH2 0x10 JUMPI PUSH1 0x0 DUP1 REVERT JUMPDEST POP PUSH1 0x40 MLOAD DUP1 PUSH1 0x40 ADD PUSH1 0x40 MSTORE DUP1 PUSH1 0x7 DUP2 MSTORE PUSH1 0x20 ADD PUSH7 0x141BDB1E50995D PUSH1 0xCA SHL DUP2 MSTORE POP PUSH2 0x51 PUSH1 0x20 PUSH1 0x40 MLOAD DUP1 PUSH1 0x20 ADD PUSH1 0x40 MSTORE DUP1 PUSH1 0x0 DUP2 MSTORE POP PUSH2 0x70 PUSH1 0x20 SHL PUSH1 0x20 SHR JUMP JUMPDEST PUSH2 0x5A SWAP1 PUSH2 0x15E JUMP JUMPDEST PUSH1 0x2 SSTORE PUSH1 0x1 PUSH2 0x69 DUP3 DUP3 PUSH2 0x21E JUMP JUMPDEST POP POP PUSH2 0x356 JUMP JUMPDEST PUSH1 0x60 PUSH1 0x0 DUP1 PUSH20 0x100000000000000000000000000000000000001 PUSH1 0x1 PUSH1 0x1 PUSH1 0xA0 SHL SUB AND DUP6 DUP6 PUSH1 0x40 MLOAD PUSH1 0x20 ADD PUSH2 0xA6 SWAP3 SWAP2 SWAP1 PUSH2 0x300 JUMP JUMPDEST PUSH1 0x40 DUP1 MLOAD PUSH1 0x1F NOT DUP2 DUP5 SUB ADD DUP2 MSTORE SWAP1 DUP3 SWAP1 MSTORE PUSH2 0xC0 SWAP2 PUSH2 0x33A JUMP JUMPDEST PUSH1 0x0 PUSH1 0x40 MLOAD DUP1 DUP4 SUB DUP2 DUP6 GAS STATICCALL SWAP2 POP POP RETURNDATASIZE DUP1 PUSH1 0x0 DUP2 EQ PUSH2 0xFB JUMPI PUSH1 0x40 MLOAD SWAP2 POP PUSH1 0x1F NOT PUSH1 0x3F RETURNDATASIZE ADD AND DUP3 ADD PUSH1 0x40 MSTORE RETURNDATASIZE DUP3 MSTORE RETURNDATASIZE PUSH1 0x0 PUSH1 0x20 DUP5 ADD RETURNDATACOPY PUSH2 0x100 JUMP JUMPDEST PUSH1 0x60 SWAP2 POP JUMPDEST POP SWAP2 POP SWAP2 POP DUP2 PUSH2 0x156 JUMPI PUSH1 0x40 MLOAD PUSH3 0x461BCD PUSH1 0xE5 SHL DUP2 MSTORE PUSH1 0x20 PUSH1 0x4 DUP3 ADD MSTORE PUSH1 0x13 PUSH1 0x24 DUP3 ADD MSTORE PUSH32 0x72616E646F6D42797465733A206661696C656400000000000000000000000000 PUSH1 0x44 DUP3 ADD MSTORE PUSH1 0x64 ADD PUSH1 0x40 MLOAD DUP1 SWAP2 SUB SWAP1 REVERT JUMPDEST SWAP5 SWAP4 POP POP POP POP JUMP JUMPDEST DUP1 MLOAD PUSH1 0x20 DUP1 DUP4 ADD MLOAD SWAP2 SWAP1 DUP2 LT ISZERO PUSH2 0x17F JUMPI PUSH1 0x0 NOT DUP2 PUSH1 0x20 SUB PUSH1 0x3 SHL SHL DUP3 AND SWAP2 POP JUMPDEST POP SWAP2 SWAP1 POP JUMP JUMPDEST PUSH4 0x4E487B71 PUSH1 0xE0 SHL PUSH1 0x0 MSTORE PUSH1 0x41 PUSH1 0x4 MSTORE PUSH1 0x24 PUSH1 0x0 REVERT JUMPDEST PUSH1 0x1 DUP2 DUP2 SHR SWAP1 DUP3 AND DUP1 PUSH2 0x1AF JUMPI PUSH1 0x7F DUP3 AND SWAP2 POP JUMPDEST PUSH1 0x20 DUP3 LT DUP2 SUB PUSH2 0x17F JUMPI PUSH4 0x4E487B71 PUSH1 0xE0 SHL PUSH1 0x0 MSTORE PUSH1 0x22 PUSH1 0x4 MSTORE PUSH1 0x24 PUSH1 0x0 REVERT JUMPDEST PUSH1 0x1F DUP3 GT ISZERO PUSH2 0x219 JUMPI DUP1 PUSH1 0x0 MSTORE PUSH1 0x20 PUSH1 0x0 KECCAK256 PUSH1 0x1F DUP5 ADD PUSH1 0x5 SHR DUP2 ADD PUSH1 0x20 DUP6 LT ISZERO PUSH2 0x1F6 JUMPI POP DUP1 JUMPDEST PUSH1 0x1F DUP5 ADD PUSH1 0x5 SHR DUP3 ADD SWAP2 POP JUMPDEST DUP2 DUP2 LT ISZERO PUSH2 0x216 JUMPI PUSH1 0x0 DUP2 SSTORE PUSH1 0x1 ADD PUSH2 0x202 JUMP JUMPDEST POP POP JUMPDEST POP POP POP JUMP JUMPDEST DUP2 MLOAD PUSH1 0x1 PUSH1 0x1 PUSH1 0x40 SHL SUB DUP2 GT ISZERO PUSH2 0x237 JUMPI PUSH2 0x237 PUSH2 0x185 JUMP JUMPDEST PUSH2 0x24B DUP2 PUSH2 0x245 DUP5 SLOAD PUSH2 0x19B JUMP JUMPDEST DUP5 PUSH2 0x1CF JUMP JUMPDEST PUSH1 0x20 PUSH1 0x1F DUP3 GT PUSH1 0x1 DUP2 EQ PUSH2 0x27F JUMPI PUSH1 0x0 DUP4 ISZERO PUSH2 0x267 JUMPI POP DUP5 DUP3 ADD MLOAD JUMPDEST PUSH1 0x0 NOT PUSH1 0x3 DUP6 SWAP1 SHL SHR NOT AND PUSH1 0x1 DUP5 SWAP1 SHL OR DUP5 SSTORE PUSH2 0x216 JUMP JUMPDEST PUSH1 0x0 DUP5 DUP2 MSTORE PUSH1 0x20 DUP2 KECCAK256 PUSH1 0x1F NOT DUP6 AND SWAP2 JUMPDEST DUP3 DUP2 LT ISZERO PUSH2 0x2AF JUMPI DUP8 DUP6 ADD MLOAD DUP3 SSTORE PUSH1 0x20 SWAP5 DUP6 ADD SWAP5 PUSH1 0x1 SWAP1 SWAP3 ADD SWAP2 ADD PUSH2 0x28F JUMP JUMPDEST POP DUP5 DUP3 LT ISZERO PUSH2 0x2CD JUMPI DUP7 DUP5 ADD MLOAD PUSH1 0x0 NOT PUSH1 0x3 DUP8 SWAP1 SHL PUSH1 0xF8 AND SHR NOT AND DUP2 SSTORE JUMPDEST POP POP POP POP PUSH1 0x1 SWAP1 DUP2 SHL ADD SWAP1 SSTORE POP JUMP JUMPDEST PUSH1 0x0 JUMPDEST DUP4 DUP2 LT ISZERO PUSH2 0x2F7 JUMPI DUP2 DUP2 ADD MLOAD DUP4 DUP3 ADD MSTORE PUSH1 0x20 ADD PUSH2 0x2DF JUMP JUMPDEST POP POP PUSH1 0x0 SWAP2 ADD MSTORE JUMP JUMPDEST DUP3 DUP2 MSTORE PUSH1 0x40 PUSH1 0x20 DUP3 ADD MSTORE PUSH1 0x0 DUP3 MLOAD DUP1 PUSH1 0x40 DUP5 ADD MSTORE PUSH2 0x325 DUP2 PUSH1 0x60 DUP6 ADD PUSH1 0x20 DUP8 ADD PUSH2 0x2DC JUMP JUMPDEST PUSH1 0x1F ADD PUSH1 0x1F NOT AND SWAP2 SWAP1 SWAP2 ADD PUSH1 0x60 ADD SWAP4 SWAP3 POP POP POP JUMP JUMPDEST PUSH1 0x0 DUP3 MLOAD PUSH2 0x34C DUP2 DUP5 PUSH1 0x20 DUP8 ADD PUSH2 0x2DC JUMP JUMPDEST SWAP2 SWAP1 SWAP2 ADD SWAP3 SWAP2 POP POP JUMP JUMPDEST PUSH2 0x448A DUP1 PUSH2 0x365 PUSH1 0x0 CODECOPY PUSH1 0x0 RETURN INVALID PUSH1 0x80 PUSH1 0x40 MSTORE CALLVALUE DUP1 ISZERO PUSH2 0x10 JUMPI PUSH1 0x0 DUP1 REVERT JUMPDEST POP PUSH1 0x4 CALLDATASIZE LT PUSH2 0x177 JUMPI PUSH1 0x0 CALLDATALOAD PUSH1 0xE0 SHR DUP1 PUSH4 0x76334F79 GT PUSH2 0xD8 JUMPI DUP1 PUSH4 0xB76EBB56 GT PUSH2 0x8C JUMPI DUP1 PUSH4 0xD69418F3 GT PUSH2 0x66 JUMPI DUP1 PUSH4 0xD69418F3 EQ PUSH2 0x351 JUMPI DUP1 PUSH4 0xDAEE6FBC EQ PUSH2 0x359 JUMPI DUP1 PUSH4 0xF53AAC2A EQ PUSH2 0x36C JUMPI PUSH1 0x0 DUP1 REVERT JUMPDEST DUP1 PUSH4 0xB76EBB56 EQ PUSH2 0x321 JUMPI DUP1 PUSH4 0xC2FB26A6 EQ PUSH2 0x336 JUMPI DUP1 PUSH4 0xD1D758CB EQ PUSH2 0x33E JUMPI PUSH1 0x0 DUP1 REVERT JUMPDEST DUP1 PUSH4 0x8E3EF384 GT PUSH2 0xBD JUMPI DUP1 PUSH4 0x8E3EF384 EQ PUSH2 0x2E6 JUMPI DUP1 PUSH4 0x9F88151E EQ PUSH2 0x306 JUMPI DUP1 PUSH4 0xB7013DC1 EQ PUSH2 0x319 JUMPI PUSH1 0x0 DUP1 REVERT JUMPDEST DUP1 PUSH4 0x76334F79 EQ PUSH2 0x2B3 JUMPI DUP1 PUSH4 0x7F476B6F EQ PUSH2 0x2C6 JUMPI PUSH1 0x0 DUP1 REVERT JUMPDEST DUP1 PUSH4 0x32D268A5 GT PUSH2 0x12F JUMPI DUP1 PUSH4 0x5023A0C9 GT PUSH2 0x114 JUMPI DUP1 PUSH4 0x5023A0C9 EQ PUSH2 0x25B JUMPI DUP1 PUSH4 0x58DEE054 EQ PUSH2 0x280 JUMPI DUP1 PUSH4 0x60644D9C EQ PUSH2 0x293 JUMPI PUSH1 0x0 DUP1 REVERT JUMPDEST DUP1 PUSH4 0x32D268A5 EQ PUSH2 0x20F JUMPI DUP1 PUSH4 0x4FFC1A00 EQ PUSH2 0x22F JUMPI PUSH1 0x0 DUP1 REVERT JUMPDEST DUP1 PUSH4 0x2A6D3E9B GT PUSH2 0x160 JUMPI DUP1 PUSH4 0x2A6D3E9B EQ PUSH2 0x1C2 JUMPI DUP1 PUSH4 0x2B64DEEC EQ PUSH2 0x1D7 JUMPI DUP1 PUSH4 0x3074EEBC EQ PUSH2 0x1FC JUMPI PUSH1 0x0 DUP1 REVERT JUMPDEST DUP1 PUSH4 0x26224C64 EQ PUSH2 0x17C JUMPI DUP1 PUSH4 0x29EC9442 EQ PUSH2 0x1AF JUMPI JUMPDEST PUSH1 0x0 DUP1 REVERT JUMPDEST PUSH2 0x19C PUSH2 0x18A CALLDATASIZE PUSH1 0x4 PUSH2 0x330E JUMP JUMPDEST PUSH1 0xA PUSH1 0x20 MSTORE PUSH1 0x0 SWAP1 DUP2 MSTORE PUSH1 0x40 SWAP1 KECCAK256 SLOAD DUP2 JUMP JUMPDEST PUSH1 0x40 MLOAD SWAP1 DUP2 MSTORE PUSH1 0x20 ADD JUMPDEST PUSH1 0x40 MLOAD DUP1 SWAP2 SUB SWAP1 RETURN JUMPDEST PUSH2 0x19C PUSH2 0x1BD CALLDATASIZE PUSH1 0x4 PUSH2 0x332B JUMP JUMPDEST PUSH2 0x38C JUMP JUMPDEST PUSH2 0x1D5 PUSH2 0x1D0 CALLDATASIZE PUSH1 0x4 PUSH2 0x3357 JUMP JUMPDEST PUSH2 0x3BD JUMP JUMPDEST STOP JUMPDEST PUSH2 0x1EA PUSH2 0x1E5 CALLDATASIZE PUSH1 0x4 PUSH2 0x338B JUMP JUMPDEST PUSH2 0x417 JUMP JUMPDEST PUSH1 0x40 MLOAD PUSH2 0x1A6 SWAP7 SWAP6 SWAP5 SWAP4 SWAP3 SWAP2 SWAP1 PUSH2 0x3465 JUMP JUMPDEST PUSH2 0x19C PUSH2 0x20A CALLDATASIZE PUSH1 0x4 PUSH2 0x332B JUMP JUMPDEST PUSH2 0x57A JUMP JUMPDEST PUSH2 0x222 PUSH2 0x21D CALLDATASIZE PUSH1 0x4 PUSH2 0x338B JUMP JUMPDEST PUSH2 0x596 JUMP JUMPDEST PUSH1 0x40 MLOAD PUSH2 0x1A6 SWAP2 SWAP1 PUSH2 0x34E0 JUMP JUMPDEST PUSH2 0x242 PUSH2 0x23D CALLDATASIZE PUSH1 0x4 PUSH2 0x338B JUMP JUMPDEST PUSH2 0x72A JUMP JUMPDEST PUSH1 0x40 MLOAD PUSH2 0x1A6 SWAP14 SWAP13 SWAP12 SWAP11 SWAP10 SWAP9 SWAP8 SWAP7 SWAP6 SWAP5 SWAP4 SWAP3 SWAP2 SWAP1 PUSH2 0x354C JUMP JUMPDEST PUSH2 0x26E PUSH2 0x269 CALLDATASIZE PUSH1 0x4 PUSH2 0x338B JUMP JUMPDEST PUSH2 0x825 JUMP JUMPDEST PUSH1 0x40 MLOAD PUSH2 0x1A6 SWAP7 SWAP6 SWAP5 SWAP4 SWAP3 SWAP2 SWAP1 PUSH2 0x35C8 JUMP JUMPDEST PUSH2 0x1D5 PUSH2 0x28E CALLDATASIZE PUSH1 0x4 PUSH2 0x376A JUMP JUMPDEST PUSH2 0x8EE JUMP JUMPDEST PUSH2 0x2A6 PUSH2 0x2A1 CALLDATASIZE PUSH1 0x4 PUSH2 0x338B JUMP JUMPDEST PUSH2 0xA3A JUMP JUMPDEST PUSH1 0x40 MLOAD PUSH2 0x1A6 SWAP2 SWAP1 PUSH2 0x3805 JUMP JUMPDEST PUSH2 0x1D5 PUSH2 0x2C1 CALLDATASIZE PUSH1 0x4 PUSH2 0x3941 JUMP JUMPDEST PUSH2 0xC08 JUMP JUMPDEST PUSH2 0x2D9 PUSH2 0x2D4 CALLDATASIZE PUSH1 0x4 PUSH2 0x39BA JUMP JUMPDEST PUSH2 0xE67 JUMP JUMPDEST PUSH1 0x40 MLOAD PUSH2 0x1A6 SWAP2 SWAP1 PUSH2 0x3A69 JUMP JUMPDEST PUSH2 0x19C PUSH2 0x2F4 CALLDATASIZE PUSH1 0x4 PUSH2 0x338B JUMP JUMPDEST PUSH1 0x5 PUSH1 0x20 MSTORE PUSH1 0x0 SWAP1 DUP2 MSTORE PUSH1 0x40 SWAP1 KECCAK256 SLOAD DUP2 JUMP JUMPDEST PUSH2 0x19C PUSH2 0x314 CALLDATASIZE PUSH1 0x4 PUSH2 0x3A7C JUMP JUMPDEST PUSH2 0x1299 JUMP JUMPDEST PUSH2 0x19C PUSH2 0x12D1 JUMP JUMPDEST PUSH2 0x329 PUSH2 0x134E JUMP JUMPDEST PUSH1 0x40 MLOAD PUSH2 0x1A6 SWAP2 SWAP1 PUSH2 0x3AC5 JUMP JUMPDEST PUSH2 0x2D9 PUSH2 0x1416 JUMP JUMPDEST PUSH2 0x329 PUSH2 0x34C CALLDATASIZE PUSH1 0x4 PUSH2 0x3A7C JUMP JUMPDEST PUSH2 0x149F JUMP JUMPDEST PUSH2 0x329 PUSH2 0x1528 JUMP JUMPDEST PUSH2 0x329 PUSH2 0x367 CALLDATASIZE PUSH1 0x4 PUSH2 0x3A7C JUMP JUMPDEST PUSH2 0x15EE JUMP JUMPDEST PUSH2 0x37F PUSH2 0x37A CALLDATASIZE PUSH1 0x4 PUSH2 0x338B JUMP JUMPDEST PUSH2 0x1675 JUMP JUMPDEST PUSH1 0x40 MLOAD PUSH2 0x1A6 SWAP2 SWAP1 PUSH2 0x3B08 JUMP JUMPDEST PUSH1 0x9 PUSH1 0x20 MSTORE DUP2 PUSH1 0x0 MSTORE PUSH1 0x40 PUSH1 0x0 KECCAK256 DUP2 DUP2 SLOAD DUP2 LT PUSH2 0x3A8 JUMPI PUSH1 0x0 DUP1 REVERT JUMPDEST SWAP1 PUSH1 0x0 MSTORE PUSH1 0x20 PUSH1 0x0 KECCAK256 ADD PUSH1 0x0 SWAP2 POP SWAP2 POP POP SLOAD DUP2 JUMP JUMPDEST PUSH1 0x0 DUP3 DUP2 MSTORE PUSH1 0x7 PUSH1 0x20 MSTORE PUSH1 0x40 SWAP1 KECCAK256 PUSH1 0x4 SWAP1 DUP2 ADD DUP1 SLOAD DUP4 SWAP3 PUSH32 0xFFFFFFFFFFFFFFFFFFFFFFFFFFFFFFFFFFFFFFFFFFFFFFFFFFFFFFFFFFFF00FF SWAP1 SWAP2 AND SWAP1 PUSH2 0x100 SWAP1 DUP5 SWAP1 DUP2 GT ISZERO PUSH2 0x40E JUMPI PUSH2 0x40E PUSH2 0x33A4 JUMP JUMPDEST MUL OR SWAP1 SSTORE POP POP POP JUMP JUMPDEST PUSH1 0x4 DUP2 DUP2 SLOAD DUP2 LT PUSH2 0x427 JUMPI PUSH1 0x0 DUP1 REVERT JUMPDEST PUSH1 0x0 SWAP2 DUP3 MSTORE PUSH1 0x20 SWAP1 SWAP2 KECCAK256 PUSH1 0x6 SWAP1 SWAP2 MUL ADD DUP1 SLOAD PUSH1 0x1 DUP3 ADD SLOAD PUSH1 0x2 DUP4 ADD SLOAD PUSH1 0x3 DUP5 ADD DUP1 SLOAD SWAP4 SWAP6 POP SWAP2 SWAP4 PUSH1 0xFF SWAP1 SWAP2 AND SWAP3 SWAP1 SWAP2 SWAP1 PUSH2 0x460 SWAP1 PUSH2 0x3B9D JUMP JUMPDEST DUP1 PUSH1 0x1F ADD PUSH1 0x20 DUP1 SWAP2 DIV MUL PUSH1 0x20 ADD PUSH1 0x40 MLOAD SWAP1 DUP2 ADD PUSH1 0x40 MSTORE DUP1 SWAP3 SWAP2 SWAP1 DUP2 DUP2 MSTORE PUSH1 0x20 ADD DUP3 DUP1 SLOAD PUSH2 0x48C SWAP1 PUSH2 0x3B9D JUMP JUMPDEST DUP1 ISZERO PUSH2 0x4D9 JUMPI DUP1 PUSH1 0x1F LT PUSH2 0x4AE JUMPI PUSH2 0x100 DUP1 DUP4 SLOAD DIV MUL DUP4 MSTORE SWAP2 PUSH1 0x20 ADD SWAP2 PUSH2 0x4D9 JUMP JUMPDEST DUP3 ADD SWAP2 SWAP1 PUSH1 0x0 MSTORE PUSH1 0x20 PUSH1 0x0 KECCAK256 SWAP1 JUMPDEST DUP2 SLOAD DUP2 MSTORE SWAP1 PUSH1 0x1 ADD SWAP1 PUSH1 0x20 ADD DUP1 DUP4 GT PUSH2 0x4BC JUMPI DUP3 SWAP1 SUB PUSH1 0x1F AND DUP3 ADD SWAP2 JUMPDEST POP POP POP POP POP SWAP1 DUP1 PUSH1 0x4 ADD DUP1 SLOAD PUSH2 0x4EE SWAP1 PUSH2 0x3B9D JUMP JUMPDEST DUP1 PUSH1 0x1F ADD PUSH1 0x20 DUP1 SWAP2 DIV MUL PUSH1 0x20 ADD PUSH1 0x40 MLOAD SWAP1 DUP2 ADD PUSH1 0x40 MSTORE DUP1 SWAP3 SWAP2 SWAP1 DUP2 DUP2 MSTORE PUSH1 0x20 ADD DUP3 DUP1 SLOAD PUSH2 0x51A SWAP1 PUSH2 0x3B9D JUMP JUMPDEST DUP1 ISZERO PUSH2 0x567 JUMPI DUP1 PUSH1 0x1F LT PUSH2 0x53C JUMPI PUSH2 0x100 DUP1 DUP4 SLOAD DIV MUL DUP4 MSTORE SWAP2 PUSH1 0x20 ADD SWAP2 PUSH2 0x567 JUMP JUMPDEST DUP3 ADD SWAP2 SWAP1 PUSH1 0x0 MSTORE PUSH1 0x20 PUSH1 0x0 KECCAK256 SWAP1 JUMPDEST DUP2 SLOAD DUP2 MSTORE SWAP1 PUSH1 0x1 ADD SWAP1 PUSH1 0x20 ADD DUP1 DUP4 GT PUSH2 0x54A JUMPI DUP3 SWAP1 SUB PUSH1 0x1F AND DUP3 ADD SWAP2 JUMPDEST POP POP POP PUSH1 0x5 SWAP1 SWAP4 ADD SLOAD SWAP2 SWAP3 POP POP PUSH1 0xFF AND DUP7 JUMP JUMPDEST PUSH1 0x8 PUSH1 0x20 MSTORE DUP2 PUSH1 0x0 MSTORE PUSH1 0x40 PUSH1 0x0 KECCAK256 DUP2 DUP2 SLOAD DUP2 LT PUSH2 0x3A8 JUMPI PUSH1 0x0 DUP1 REVERT JUMPDEST PUSH2 0x5CD PUSH1 0x40 DUP1 MLOAD PUSH1 0xC0 DUP2 ADD DUP3 MSTORE PUSH1 0x0 DUP1 DUP3 MSTORE PUSH1 0x20 DUP3 ADD DUP2 SWAP1 MSTORE SWAP2 DUP2 ADD DUP3 SWAP1 MSTORE PUSH1 0x60 DUP1 DUP3 ADD MSTORE SWAP1 PUSH1 0x80 DUP3 ADD SWAP1 DUP2 MSTORE PUSH1 0x20 ADD PUSH1 0x0 SWAP1 MSTORE SWAP1 JUMP JUMPDEST PUSH1 0x0 DUP3 DUP2 MSTORE PUSH1 0x7 PUSH1 0x20 MSTORE PUSH1 0x40 SWAP1 DUP2 SWAP1 KECCAK256 DUP2 MLOAD PUSH1 0xC0 DUP2 ADD SWAP1 SWAP3 MSTORE DUP1 SLOAD DUP3 SWAP1 PUSH1 0xFF AND PUSH1 0x1 DUP2 GT ISZERO PUSH2 0x5FE JUMPI PUSH2 0x5FE PUSH2 0x33A4 JUMP JUMPDEST PUSH1 0x1 DUP2 GT ISZERO PUSH2 0x60F JUMPI PUSH2 0x60F PUSH2 0x33A4 JUMP JUMPDEST DUP2 MSTORE PUSH1 0x20 ADD PUSH1 0x1 DUP3 ADD SLOAD DUP2 MSTORE PUSH1 0x20 ADD PUSH1 0x2 DUP3 ADD SLOAD DUP2 MSTORE PUSH1 0x20 ADD PUSH1 0x3 DUP3 ADD DUP1 SLOAD PUSH2 0x637 SWAP1 PUSH2 0x3B9D JUMP JUMPDEST DUP1 PUSH1 0x1F ADD PUSH1 0x20 DUP1 SWAP2 DIV MUL PUSH1 0x20 ADD PUSH1 0x40 MLOAD SWAP1 DUP2 ADD PUSH1 0x40 MSTORE DUP1 SWAP3 SWAP2 SWAP1 DUP2 DUP2 MSTORE PUSH1 0x20 ADD DUP3 DUP1 SLOAD PUSH2 0x663 SWAP1 PUSH2 0x3B9D JUMP JUMPDEST DUP1 ISZERO PUSH2 0x6B0 JUMPI DUP1 PUSH1 0x1F LT PUSH2 0x685 JUMPI PUSH2 0x100 DUP1 DUP4 SLOAD DIV MUL DUP4 MSTORE SWAP2 PUSH1 0x20 ADD SWAP2 PUSH2 0x6B0 JUMP JUMPDEST DUP3 ADD SWAP2 SWAP1 PUSH1 0x0 MSTORE PUSH1 0x20 PUSH1 0x0 KECCAK256 SWAP1 JUMPDEST DUP2 SLOAD DUP2 MSTORE SWAP1 PUSH1 0x1 ADD SWAP1 PUSH1 0x20 ADD DUP1 DUP4 GT PUSH2 0x693 JUMPI DUP3 SWAP1 SUB PUSH1 0x1F AND DUP3 ADD SWAP2 JUMPDEST POP POP POP SWAP2 DUP4 MSTORE POP POP PUSH1 0x4 DUP3 ADD SLOAD PUSH1 0x20 SWAP1 SWAP2 ADD SWAP1 PUSH1 0xFF AND PUSH1 0x7 DUP2 GT ISZERO PUSH2 0x6D7 JUMPI PUSH2 0x6D7 PUSH2 0x33A4 JUMP JUMPDEST PUSH1 0x7 DUP2 GT ISZERO PUSH2 0x6E8 JUMPI PUSH2 0x6E8 PUSH2 0x33A4 JUMP JUMPDEST DUP2 MSTORE PUSH1 0x20 ADD PUSH1 0x4 DUP3 ADD PUSH1 0x1 SWAP1 SLOAD SWAP1 PUSH2 0x100 EXP SWAP1 DIV PUSH1 0xFF AND PUSH1 0x4 DUP2 GT ISZERO PUSH2 0x710 JUMPI PUSH2 0x710 PUSH2 0x33A4 JUMP JUMPDEST PUSH1 0x4 DUP2 GT ISZERO PUSH2 0x721 JUMPI PUSH2 0x721 PUSH2 0x33A4 JUMP JUMPDEST SWAP1 MSTORE POP SWAP3 SWAP2 POP POP JUMP JUMPDEST PUSH1 0xB PUSH1 0x20 MSTORE DUP1 PUSH1 0x0 MSTORE PUSH1 0x40 PUSH1 0x0 KECCAK256 PUSH1 0x0 SWAP2 POP SWAP1 POP DUP1 PUSH1 0x0 ADD SLOAD SWAP1 DUP1 PUSH1 0x1 ADD SLOAD SWAP1 DUP1 PUSH1 0x2 ADD SLOAD SWAP1 DUP1 PUSH1 0x3 ADD SLOAD SWAP1 DUP1 PUSH1 0x4 ADD SLOAD SWAP1 DUP1 PUSH1 0x5 ADD SLOAD SWAP1 DUP1 PUSH1 0x6 ADD SLOAD SWAP1 DUP1 PUSH1 0x7 ADD SLOAD SWAP1 DUP1 PUSH1 0x8 ADD SLOAD SWAP1 DUP1 PUSH1 0x9 ADD SLOAD SWAP1 DUP1 PUSH1 0xA ADD SLOAD SWAP1 DUP1 PUSH1 0xB ADD PUSH1 0x0 SWAP1 SLOAD SWAP1 PUSH2 0x100 EXP SWAP1 DIV PUSH1 0xFF AND SWAP1 DUP1 PUSH1 0xC ADD DUP1 SLOAD PUSH2 0x7A2 SWAP1 PUSH2 0x3B9D JUMP JUMPDEST DUP1 PUSH1 0x1F ADD PUSH1 0x20 DUP1 SWAP2 DIV MUL PUSH1 0x20 ADD PUSH1 0x40 MLOAD SWAP1 DUP2 ADD PUSH1 0x40 MSTORE DUP1 SWAP3 SWAP2 SWAP1 DUP2 DUP2 MSTORE PUSH1 0x20 ADD DUP3 DUP1 SLOAD PUSH2 0x7CE SWAP1 PUSH2 0x3B9D JUMP JUMPDEST DUP1 ISZERO PUSH2 0x81B JUMPI DUP1 PUSH1 0x1F LT PUSH2 0x7F0 JUMPI PUSH2 0x100 DUP1 DUP4 SLOAD DIV MUL DUP4 MSTORE SWAP2 PUSH1 0x20 ADD SWAP2 PUSH2 0x81B JUMP JUMPDEST DUP3 ADD SWAP2 SWAP1 PUSH1 0x0 MSTORE PUSH1 0x20 PUSH1 0x0 KECCAK256 SWAP1 JUMPDEST DUP2 SLOAD DUP2 MSTORE SWAP1 PUSH1 0x1 ADD SWAP1 PUSH1 0x20 ADD DUP1 DUP4 GT PUSH2 0x7FE JUMPI DUP3 SWAP1 SUB PUSH1 0x1F AND DUP3 ADD SWAP2 JUMPDEST POP POP POP POP POP SWAP1 POP DUP14 JUMP JUMPDEST PUSH1 0x7 PUSH1 0x20 MSTORE PUSH1 0x0 SWAP1 DUP2 MSTORE PUSH1 0x40 SWAP1 KECCAK256 DUP1 SLOAD PUSH1 0x1 DUP3 ADD SLOAD PUSH1 0x2 DUP4 ADD SLOAD PUSH1 0x3 DUP5 ADD DUP1 SLOAD PUSH1 0xFF SWAP1 SWAP5 AND SWAP5 SWAP3 SWAP4 SWAP2 SWAP3 SWAP2 PUSH2 0x859 SWAP1 PUSH2 0x3B9D JUMP JUMPDEST DUP1 PUSH1 0x1F ADD PUSH1 0x20 DUP1 SWAP2 DIV MUL PUSH1 0x20 ADD PUSH1 0x40 MLOAD SWAP1 DUP2 ADD PUSH1 0x40 MSTORE DUP1 SWAP3 SWAP2 SWAP1 DUP2 DUP2 MSTORE PUSH1 0x20 ADD DUP3 DUP1 SLOAD PUSH2 0x885 SWAP1 PUSH2 0x3B9D JUMP JUMPDEST DUP1 ISZERO PUSH2 0x8D2 JUMPI DUP1 PUSH1 0x1F LT PUSH2 0x8A7 JUMPI PUSH2 0x100 DUP1 DUP4 SLOAD DIV MUL DUP4 MSTORE SWAP2 PUSH1 0x20 ADD SWAP2 PUSH2 0x8D2 JUMP JUMPDEST DUP3 ADD SWAP2 SWAP1 PUSH1 0x0 MSTORE PUSH1 0x20 PUSH1 0x0 KECCAK256 SWAP1 JUMPDEST DUP2 SLOAD DUP2 MSTORE SWAP1 PUSH1 0x1 ADD SWAP1 PUSH1 0x20 ADD DUP1 DUP4 GT PUSH2 0x8B5 JUMPI DUP3 SWAP1 SUB PUSH1 0x1F AND DUP3 ADD SWAP2 JUMPDEST POP POP POP PUSH1 0x4 SWAP1 SWAP4 ADD SLOAD SWAP2 SWAP3 POP POP PUSH1 0xFF DUP1 DUP3 AND SWAP2 PUSH2 0x100 SWAP1 DIV AND DUP7 JUMP JUMPDEST PUSH1 0x3 DUP1 SLOAD SWAP1 PUSH1 0x0 PUSH2 0x8FE DUP4 PUSH2 0x3C19 JUMP JUMPDEST SWAP1 SWAP2 SSTORE POP PUSH1 0x40 DUP1 MLOAD PUSH1 0xC0 DUP2 ADD DUP3 MSTORE PUSH1 0x0 DUP2 MSTORE PUSH8 0xFFFFFFFFFFFFFFFF DUP8 AND PUSH1 0x20 DUP3 ADD MSTORE PUSH1 0x4 SWAP2 DUP2 ADD DUP7 PUSH1 0x1 DUP2 GT ISZERO PUSH2 0x937 JUMPI PUSH2 0x937 PUSH2 0x33A4 JUMP JUMPDEST DUP2 MSTORE PUSH1 0x20 DUP2 ADD DUP7 SWAP1 MSTORE PUSH1 0x40 DUP2 ADD DUP6 SWAP1 MSTORE PUSH1 0x60 ADD PUSH1 0x2 SWAP1 MSTORE DUP2 SLOAD PUSH1 0x1 DUP2 DUP2 ADD DUP5 SSTORE PUSH1 0x0 SWAP4 DUP5 MSTORE PUSH1 0x20 SWAP4 DUP5 SWAP1 KECCAK256 DUP4 MLOAD PUSH1 0x6 SWAP1 SWAP4 MUL ADD SWAP2 DUP3 SSTORE SWAP3 DUP3 ADD MLOAD DUP2 DUP5 ADD SSTORE PUSH1 0x40 DUP3 ADD MLOAD PUSH1 0x2 DUP3 ADD DUP1 SLOAD SWAP4 SWAP5 SWAP3 SWAP4 SWAP2 SWAP3 SWAP1 SWAP2 PUSH32 0xFFFFFFFFFFFFFFFFFFFFFFFFFFFFFFFFFFFFFFFFFFFFFFFFFFFFFFFFFFFFFF00 AND SWAP1 DUP4 DUP2 DUP2 GT ISZERO PUSH2 0x9BC JUMPI PUSH2 0x9BC PUSH2 0x33A4 JUMP JUMPDEST MUL OR SWAP1 SSTORE POP PUSH1 0x60 DUP3 ADD MLOAD PUSH1 0x3 DUP3 ADD SWAP1 PUSH2 0x9D5 SWAP1 DUP3 PUSH2 0x3CA0 JUMP JUMPDEST POP PUSH1 0x80 DUP3 ADD MLOAD PUSH1 0x4 DUP3 ADD SWAP1 PUSH2 0x9EA SWAP1 DUP3 PUSH2 0x3CA0 JUMP JUMPDEST POP PUSH1 0xA0 DUP3 ADD MLOAD PUSH1 0x5 DUP3 ADD DUP1 SLOAD PUSH32 0xFFFFFFFFFFFFFFFFFFFFFFFFFFFFFFFFFFFFFFFFFFFFFFFFFFFFFFFFFFFFFF00 AND PUSH1 0x1 DUP4 PUSH1 0x2 DUP2 GT ISZERO PUSH2 0xA2C JUMPI PUSH2 0xA2C PUSH2 0x33A4 JUMP JUMPDEST MUL OR SWAP1 SSTORE POP POP POP POP POP POP POP POP JUMP JUMPDEST PUSH2 0xAA9 PUSH1 0x40 DUP1 MLOAD PUSH2 0x1A0 DUP2 ADD DUP3 MSTORE PUSH1 0x0 DUP1 DUP3 MSTORE PUSH1 0x20 DUP3 ADD DUP2 SWAP1 MSTORE SWAP2 DUP2 ADD DUP3 SWAP1 MSTORE PUSH1 0x60 DUP2 ADD DUP3 SWAP1 MSTORE PUSH1 0x80 DUP2 ADD DUP3 SWAP1 MSTORE PUSH1 0xA0 DUP2 ADD DUP3 SWAP1 MSTORE PUSH1 0xC0 DUP2 ADD DUP3 SWAP1 MSTORE PUSH1 0xE0 DUP2 ADD DUP3 SWAP1 MSTORE PUSH2 0x100 DUP2 ADD DUP3 SWAP1 MSTORE PUSH2 0x120 DUP2 ADD DUP3 SWAP1 MSTORE PUSH2 0x140 DUP2 ADD DUP3 SWAP1 MSTORE SWAP1 PUSH2 0x160 DUP3 ADD SWAP1 DUP2 MSTORE PUSH1 0x20 ADD PUSH1 0x60 DUP2 MSTORE POP SWAP1 JUMP JUMPDEST PUSH1 0xB PUSH1 0x0 DUP4 DUP2 MSTORE PUSH1 0x20 ADD SWAP1 DUP2 MSTORE PUSH1 0x20 ADD PUSH1 0x0 KECCAK256 PUSH1 0x40 MLOAD DUP1 PUSH2 0x1A0 ADD PUSH1 0x40 MSTORE SWAP1 DUP2 PUSH1 0x0 DUP3 ADD SLOAD DUP2 MSTORE PUSH1 0x20 ADD PUSH1 0x1 DUP3 ADD SLOAD DUP2 MSTORE PUSH1 0x20 ADD PUSH1 0x2 DUP3 ADD SLOAD DUP2 MSTORE PUSH1 0x20 ADD PUSH1 0x3 DUP3 ADD SLOAD DUP2 MSTORE PUSH1 0x20 ADD PUSH1 0x4 DUP3 ADD SLOAD DUP2 MSTORE PUSH1 0x20 ADD PUSH1 0x5 DUP3 ADD SLOAD DUP2 MSTORE PUSH1 0x20 ADD PUSH1 0x6 DUP3 ADD SLOAD DUP2 MSTORE PUSH1 0x20 ADD PUSH1 0x7 DUP3 ADD SLOAD DUP2 MSTORE PUSH1 0x20 ADD PUSH1 0x8 DUP3 ADD SLOAD DUP2 MSTORE PUSH1 0x20 ADD PUSH1 0x9 DUP3 ADD SLOAD DUP2 MSTORE PUSH1 0x20 ADD PUSH1 0xA DUP3 ADD SLOAD DUP2 MSTORE PUSH1 0x20 ADD PUSH1 0xB DUP3 ADD PUSH1 0x0 SWAP1 SLOAD SWAP1 PUSH2 0x100 EXP SWAP1 DIV PUSH1 0xFF AND PUSH1 0x7 DUP2 GT ISZERO PUSH2 0xB5A JUMPI PUSH2 0xB5A PUSH2 0x33A4 JUMP JUMPDEST PUSH1 0x7 DUP2 GT ISZERO PUSH2 0xB6B JUMPI PUSH2 0xB6B PUSH2 0x33A4 JUMP JUMPDEST DUP2 MSTORE PUSH1 0x20 ADD PUSH1 0xC DUP3 ADD DUP1 SLOAD PUSH2 0xB7F SWAP1 PUSH2 0x3B9D JUMP JUMPDEST DUP1 PUSH1 0x1F ADD PUSH1 0x20 DUP1 SWAP2 DIV MUL PUSH1 0x20 ADD PUSH1 0x40 MLOAD SWAP1 DUP2 ADD PUSH1 0x40 MSTORE DUP1 SWAP3 SWAP2 SWAP1 DUP2 DUP2 MSTORE PUSH1 0x20 ADD DUP3 DUP1 SLOAD PUSH2 0xBAB SWAP1 PUSH2 0x3B9D JUMP JUMPDEST DUP1 ISZERO PUSH2 0xBF8 JUMPI DUP1 PUSH1 0x1F LT PUSH2 0xBCD JUMPI PUSH2 0x100 DUP1 DUP4 SLOAD DIV MUL DUP4 MSTORE SWAP2 PUSH1 0x20 ADD SWAP2 PUSH2 0xBF8 JUMP JUMPDEST DUP3 ADD SWAP2 SWAP1 PUSH1 0x0 MSTORE PUSH1 0x20 PUSH1 0x0 KECCAK256 SWAP1 JUMPDEST DUP2 SLOAD DUP2 MSTORE SWAP1 PUSH1 0x1 ADD SWAP1 PUSH1 0x20 ADD DUP1 DUP4 GT PUSH2 0xBDB JUMPI DUP3 SWAP1 SUB PUSH1 0x1F AND DUP3 ADD SWAP2 JUMPDEST POP POP POP POP POP DUP2 MSTORE POP POP SWAP1 POP SWAP2 SWAP1 POP JUMP JUMPDEST DUP1 MLOAD DUP3 MLOAD EQ PUSH2 0xC78 JUMPI PUSH1 0x40 MLOAD PUSH32 0x8C379A000000000000000000000000000000000000000000000000000000000 DUP2 MSTORE PUSH1 0x20 PUSH1 0x4 DUP3 ADD MSTORE PUSH1 0x18 PUSH1 0x24 DUP3 ADD MSTORE PUSH32 0x4172726179206C656E67746873206D757374206D617463680000000000000000 PUSH1 0x44 DUP3 ADD MSTORE PUSH1 0x64 ADD JUMPDEST PUSH1 0x40 MLOAD DUP1 SWAP2 SUB SWAP1 REVERT JUMPDEST PUSH1 0x6 DUP1 SLOAD SWAP1 DUP2 SWAP1 PUSH1 0x0 PUSH2 0xC8A DUP4 PUSH2 0x3C19 JUMP JUMPDEST SWAP2 SWAP1 POP SSTORE POP PUSH1 0x40 MLOAD DUP1 PUSH1 0xC0 ADD PUSH1 0x40 MSTORE DUP1 DUP7 PUSH1 0x1 DUP2 GT ISZERO PUSH2 0xCAC JUMPI PUSH2 0xCAC PUSH2 0x33A4 JUMP JUMPDEST DUP2 MSTORE PUSH1 0x20 ADD DUP6 DUP2 MSTORE PUSH1 0x20 ADD PUSH1 0x0 DUP2 MSTORE PUSH1 0x20 ADD PUSH1 0x40 MLOAD DUP1 PUSH1 0x20 ADD PUSH1 0x40 MSTORE DUP1 PUSH1 0x0 DUP2 MSTORE POP DUP2 MSTORE PUSH1 0x20 ADD PUSH1 0x0 PUSH1 0x7 DUP2 GT ISZERO PUSH2 0xCE6 JUMPI PUSH2 0xCE6 PUSH2 0x33A4 JUMP JUMPDEST DUP2 MSTORE PUSH1 0x20 ADD PUSH1 0x0 SWAP1 MSTORE PUSH1 0x0 DUP3 DUP2 MSTORE PUSH1 0x7 PUSH1 0x20 MSTORE PUSH1 0x40 SWAP1 KECCAK256 DUP2 MLOAD DUP2 SLOAD DUP3 SWAP1 PUSH32 0xFFFFFFFFFFFFFFFFFFFFFFFFFFFFFFFFFFFFFFFFFFFFFFFFFFFFFFFFFFFFFF00 AND PUSH1 0x1 DUP4 DUP2 DUP2 GT ISZERO PUSH2 0xD38 JUMPI PUSH2 0xD38 PUSH2 0x33A4 JUMP JUMPDEST MUL OR SWAP1 SSTORE POP PUSH1 0x20 DUP3 ADD MLOAD PUSH1 0x1 DUP3 ADD SSTORE PUSH1 0x40 DUP3 ADD MLOAD PUSH1 0x2 DUP3 ADD SSTORE PUSH1 0x60 DUP3 ADD MLOAD PUSH1 0x3 DUP3 ADD SWAP1 PUSH2 0xD65 SWAP1 DUP3 PUSH2 0x3CA0 JUMP JUMPDEST POP PUSH1 0x80 DUP3 ADD MLOAD PUSH1 0x4 DUP3 ADD DUP1 SLOAD PUSH32 0xFFFFFFFFFFFFFFFFFFFFFFFFFFFFFFFFFFFFFFFFFFFFFFFFFFFFFFFFFFFFFF00 AND PUSH1 0x1 DUP4 PUSH1 0x7 DUP2 GT ISZERO PUSH2 0xDA7 JUMPI PUSH2 0xDA7 PUSH2 0x33A4 JUMP JUMPDEST MUL OR SWAP1 SSTORE POP PUSH1 0xA0 DUP3 ADD MLOAD DUP2 PUSH1 0x4 ADD PUSH1 0x1 PUSH2 0x100 EXP DUP2 SLOAD DUP2 PUSH1 0xFF MUL NOT AND SWAP1 DUP4 PUSH1 0x4 DUP2 GT ISZERO PUSH2 0xDD6 JUMPI PUSH2 0xDD6 PUSH2 0x33A4 JUMP JUMPDEST MUL OR SWAP1 SSTORE POP POP CALLER PUSH1 0x0 DUP2 DUP2 MSTORE PUSH1 0x8 PUSH1 0x20 SWAP1 DUP2 MSTORE PUSH1 0x40 DUP1 DUP4 KECCAK256 DUP1 SLOAD PUSH1 0x1 DUP2 ADD DUP3 SSTORE SWAP1 DUP5 MSTORE DUP3 DUP5 KECCAK256 ADD DUP7 SWAP1 SSTORE SWAP3 DUP3 MSTORE PUSH1 0xA SWAP1 MSTORE SWAP1 DUP2 KECCAK256 DUP1 SLOAD DUP8 SWAP4 POP SWAP1 SWAP2 SWAP1 PUSH2 0xE1D SWAP1 DUP5 SWAP1 PUSH2 0x3DB9 JUMP JUMPDEST SWAP3 POP POP DUP2 SWAP1 SSTORE POP DUP1 PUSH32 0x9FB6826DD39EF8AC6B7906FE4C38F1FAB9247F82ABEA744A0BBCD71DD24F6EBB DUP6 DUP6 DUP6 PUSH1 0x40 MLOAD PUSH2 0xE58 SWAP4 SWAP3 SWAP2 SWAP1 PUSH2 0x3E08 JUMP JUMPDEST PUSH1 0x40 MLOAD DUP1 SWAP2 SUB SWAP1 LOG2 POP POP POP POP POP JUMP JUMPDEST PUSH1 0x60 PUSH2 0xEB1 PUSH1 0x40 MLOAD DUP1 PUSH1 0xA0 ADD PUSH1 0x40 MSTORE DUP1 PUSH1 0x60 DUP2 MSTORE PUSH1 0x20 ADD PUSH1 0x0 PUSH20 0xFFFFFFFFFFFFFFFFFFFFFFFFFFFFFFFFFFFFFFFF AND DUP2 MSTORE PUSH1 0x20 ADD PUSH1 0x0 DUP2 MSTORE PUSH1 0x20 ADD PUSH1 0x60 DUP2 MSTORE PUSH1 0x20 ADD PUSH1 0x60 DUP2 MSTORE POP SWAP1 JUMP JUMPDEST PUSH1 0x0 PUSH2 0xEBC DUP6 PUSH2 0x1849 JUMP JUMPDEST DUP7 DUP7 PUSH1 0x40 MLOAD PUSH1 0x20 ADD PUSH2 0xED0 SWAP4 SWAP3 SWAP2 SWAP1 PUSH2 0x3E33 JUMP JUMPDEST PUSH1 0x40 DUP1 MLOAD PUSH32 0xFFFFFFFFFFFFFFFFFFFFFFFFFFFFFFFFFFFFFFFFFFFFFFFFFFFFFFFFFFFFFFE0 DUP2 DUP5 SUB ADD DUP2 MSTORE DUP3 DUP3 MSTORE DUP1 MLOAD PUSH1 0x20 DUP1 DUP4 ADD SWAP2 SWAP1 SWAP2 KECCAK256 PUSH1 0x0 DUP1 DUP7 MSTORE DUP6 DUP4 ADD DUP1 DUP7 MSTORE SWAP2 SWAP1 SWAP2 MSTORE PUSH1 0xFF DUP10 DUP6 ADD CALLDATALOAD AND SWAP4 DUP6 ADD SWAP4 SWAP1 SWAP4 MSTORE DUP8 CALLDATALOAD PUSH1 0x60 DUP6 ADD MSTORE DUP8 ADD CALLDATALOAD PUSH1 0x80 DUP5 ADD MSTORE SWAP3 POP SWAP1 PUSH1 0x1 SWAP1 PUSH1 0xA0 ADD PUSH1 0x20 PUSH1 0x40 MLOAD PUSH1 0x20 DUP2 SUB SWAP1 DUP1 DUP5 SUB SWAP1 DUP6 GAS STATICCALL ISZERO DUP1 ISZERO PUSH2 0xF60 JUMPI RETURNDATASIZE PUSH1 0x0 DUP1 RETURNDATACOPY RETURNDATASIZE PUSH1 0x0 REVERT JUMPDEST POP POP PUSH1 0x40 MLOAD PUSH32 0xFFFFFFFFFFFFFFFFFFFFFFFFFFFFFFFFFFFFFFFFFFFFFFFFFFFFFFFFFFFFFFE0 ADD MLOAD PUSH20 0xFFFFFFFFFFFFFFFFFFFFFFFFFFFFFFFFFFFFFFFF DUP2 AND PUSH1 0x20 DUP7 ADD MSTORE SWAP2 POP PUSH1 0x0 SWAP1 POP PUSH2 0xFB4 DUP9 DUP9 PUSH2 0x1908 JUMP JUMPDEST SWAP1 POP CHAINID DUP2 PUSH1 0xA0 ADD MLOAD EQ PUSH2 0xFF3 JUMPI PUSH1 0x40 MLOAD PUSH32 0x362C833700000000000000000000000000000000000000000000000000000000 DUP2 MSTORE PUSH1 0x4 ADD PUSH1 0x40 MLOAD DUP1 SWAP2 SUB SWAP1 REVERT JUMPDEST PUSH1 0x1 PUSH1 0x40 MLOAD PUSH2 0x1002 SWAP2 SWAP1 PUSH2 0x3E87 JUMP JUMPDEST PUSH1 0x40 MLOAD DUP1 SWAP2 SUB SWAP1 KECCAK256 DUP2 PUSH1 0x0 ADD MLOAD DUP1 MLOAD SWAP1 PUSH1 0x20 ADD KECCAK256 EQ PUSH2 0x104D JUMPI PUSH1 0x40 MLOAD PUSH32 0x283D62BD00000000000000000000000000000000000000000000000000000000 DUP2 MSTORE PUSH1 0x4 ADD PUSH1 0x40 MLOAD DUP1 SWAP2 SUB SWAP1 REVERT JUMPDEST DUP1 MLOAD DUP5 MSTORE PUSH1 0x20 DUP2 ADD MLOAD PUSH20 0xFFFFFFFFFFFFFFFFFFFFFFFFFFFFFFFFFFFFFFFF DUP4 DUP2 AND SWAP2 AND EQ PUSH2 0x10A7 JUMPI PUSH1 0x40 MLOAD PUSH32 0x5CC02E100000000000000000000000000000000000000000000000000000000 DUP2 MSTORE PUSH1 0x4 ADD PUSH1 0x40 MLOAD DUP1 SWAP2 SUB SWAP1 REVERT JUMPDEST PUSH2 0x120 DUP2 ADD MLOAD MLOAD ISZERO DUP1 ISZERO SWAP1 PUSH2 0x10C9 JUMPI POP PUSH2 0x10C5 DUP2 PUSH2 0x120 ADD MLOAD PUSH2 0x1FBC JUMP JUMPDEST TIMESTAMP GT ISZERO JUMPDEST ISZERO PUSH2 0x1100 JUMPI PUSH1 0x40 MLOAD PUSH32 0x299D02F100000000000000000000000000000000000000000000000000000000 DUP2 MSTORE PUSH1 0x4 ADD PUSH1 0x40 MLOAD DUP1 SWAP2 SUB SWAP1 REVERT JUMPDEST PUSH2 0x100 DUP2 ADD MLOAD MLOAD ISZERO PUSH2 0x1127 JUMPI PUSH1 0x0 PUSH2 0x111C DUP3 PUSH2 0x100 ADD MLOAD PUSH2 0x1FBC JUMP JUMPDEST PUSH1 0x40 DUP7 ADD MSTORE POP PUSH2 0x113A JUMP JUMPDEST PUSH2 0x1134 PUSH3 0x15180 TIMESTAMP PUSH2 0x3DB9 JUMP JUMPDEST PUSH1 0x40 DUP6 ADD MSTORE JUMPDEST DUP4 PUSH1 0x40 ADD MLOAD TIMESTAMP LT PUSH2 0x1177 JUMPI PUSH1 0x40 MLOAD PUSH32 0xB171155000000000000000000000000000000000000000000000000000000000 DUP2 MSTORE PUSH1 0x4 ADD PUSH1 0x40 MLOAD DUP1 SWAP2 SUB SWAP1 REVERT JUMPDEST PUSH1 0x40 DUP2 ADD MLOAD PUSH1 0x60 DUP6 ADD MSTORE PUSH2 0x160 DUP2 ADD MLOAD MLOAD PUSH8 0xFFFFFFFFFFFFFFFF DUP2 GT ISZERO PUSH2 0x11A0 JUMPI PUSH2 0x11A0 PUSH2 0x361F JUMP JUMPDEST PUSH1 0x40 MLOAD SWAP1 DUP1 DUP3 MSTORE DUP1 PUSH1 0x20 MUL PUSH1 0x20 ADD DUP3 ADD PUSH1 0x40 MSTORE DUP1 ISZERO PUSH2 0x11D3 JUMPI DUP2 PUSH1 0x20 ADD JUMPDEST PUSH1 0x60 DUP2 MSTORE PUSH1 0x20 ADD SWAP1 PUSH1 0x1 SWAP1 SUB SWAP1 DUP2 PUSH2 0x11BE JUMPI SWAP1 POP JUMPDEST POP PUSH1 0x80 DUP6 ADD MSTORE PUSH1 0x0 JUMPDEST DUP2 PUSH2 0x160 ADD MLOAD MLOAD DUP2 LT ISZERO PUSH2 0x1232 JUMPI DUP2 PUSH2 0x160 ADD MLOAD DUP2 DUP2 MLOAD DUP2 LT PUSH2 0x1201 JUMPI PUSH2 0x1201 PUSH2 0x3F1A JUMP JUMPDEST PUSH1 0x20 MUL PUSH1 0x20 ADD ADD MLOAD DUP6 PUSH1 0x80 ADD MLOAD DUP3 DUP2 MLOAD DUP2 LT PUSH2 0x121F JUMPI PUSH2 0x121F PUSH2 0x3F1A JUMP JUMPDEST PUSH1 0x20 SWAP1 DUP2 MUL SWAP2 SWAP1 SWAP2 ADD ADD MSTORE PUSH1 0x1 ADD PUSH2 0x11DC JUMP JUMPDEST POP PUSH1 0x0 PUSH2 0x128C PUSH1 0x2 SLOAD PUSH1 0x0 DUP1 SHL DUP8 PUSH1 0x40 MLOAD PUSH1 0x20 ADD PUSH2 0x1250 SWAP2 SWAP1 PUSH2 0x3F49 JUMP JUMPDEST PUSH1 0x40 DUP1 MLOAD PUSH32 0xFFFFFFFFFFFFFFFFFFFFFFFFFFFFFFFFFFFFFFFFFFFFFFFFFFFFFFFFFFFFFFE0 DUP2 DUP5 SUB ADD DUP2 MSTORE PUSH1 0x20 DUP4 ADD SWAP1 SWAP2 MSTORE PUSH1 0x0 DUP3 MSTORE SWAP1 PUSH2 0x202B JUMP JUMPDEST SWAP10 SWAP9 POP POP POP POP POP POP POP POP POP JUMP JUMPDEST PUSH1 0x0 DUP1 PUSH2 0x12A5 DUP4 PUSH2 0x2160 JUMP JUMPDEST PUSH20 0xFFFFFFFFFFFFFFFFFFFFFFFFFFFFFFFFFFFFFFFF AND PUSH1 0x0 SWAP1 DUP2 MSTORE PUSH1 0xA PUSH1 0x20 MSTORE PUSH1 0x40 SWAP1 KECCAK256 SLOAD SWAP4 SWAP3 POP POP POP JUMP JUMPDEST PUSH1 0x0 CALLER PUSH2 0x133A JUMPI PUSH1 0x40 MLOAD PUSH32 0x8C379A000000000000000000000000000000000000000000000000000000000 DUP2 MSTORE PUSH1 0x20 PUSH1 0x4 DUP3 ADD MSTORE PUSH1 0x17 PUSH1 0x24 DUP3 ADD MSTORE PUSH32 0x41757468656E7469636174696F6E207265717569726564000000000000000000 PUSH1 0x44 DUP3 ADD MSTORE PUSH1 0x64 ADD PUSH2 0xC6F JUMP JUMPDEST POP CALLER PUSH1 0x0 SWAP1 DUP2 MSTORE PUSH1 0xA PUSH1 0x20 MSTORE PUSH1 0x40 SWAP1 KECCAK256 SLOAD SWAP1 JUMP JUMPDEST PUSH1 0x60 CALLER PUSH2 0x13B7 JUMPI PUSH1 0x40 MLOAD PUSH32 0x8C379A000000000000000000000000000000000000000000000000000000000 DUP2 MSTORE PUSH1 0x20 PUSH1 0x4 DUP3 ADD MSTORE PUSH1 0x17 PUSH1 0x24 DUP3 ADD MSTORE PUSH32 0x41757468656E7469636174696F6E207265717569726564000000000000000000 PUSH1 0x44 DUP3 ADD MSTORE PUSH1 0x64 ADD PUSH2 0xC6F JUMP JUMPDEST CALLER PUSH1 0x0 SWAP1 DUP2 MSTORE PUSH1 0x8 PUSH1 0x20 SWAP1 DUP2 MSTORE PUSH1 0x40 SWAP2 DUP3 SWAP1 KECCAK256 DUP1 SLOAD DUP4 MLOAD DUP2 DUP5 MUL DUP2 ADD DUP5 ADD SWAP1 SWAP5 MSTORE DUP1 DUP5 MSTORE SWAP1 SWAP2 DUP4 ADD DUP3 DUP3 DUP1 ISZERO PUSH2 0x140C JUMPI PUSH1 0x20 MUL DUP3 ADD SWAP2 SWAP1 PUSH1 0x0 MSTORE PUSH1 0x20 PUSH1 0x0 KECCAK256 SWAP1 JUMPDEST DUP2 SLOAD DUP2 MSTORE PUSH1 0x20 ADD SWAP1 PUSH1 0x1 ADD SWAP1 DUP1 DUP4 GT PUSH2 0x13F8 JUMPI JUMPDEST POP POP POP POP POP SWAP1 POP SWAP1 JUMP JUMPDEST PUSH1 0x60 PUSH1 0x1 DUP1 SLOAD PUSH2 0x1425 SWAP1 PUSH2 0x3B9D JUMP JUMPDEST DUP1 PUSH1 0x1F ADD PUSH1 0x20 DUP1 SWAP2 DIV MUL PUSH1 0x20 ADD PUSH1 0x40 MLOAD SWAP1 DUP2 ADD PUSH1 0x40 MSTORE DUP1 SWAP3 SWAP2 SWAP1 DUP2 DUP2 MSTORE PUSH1 0x20 ADD DUP3 DUP1 SLOAD PUSH2 0x1451 SWAP1 PUSH2 0x3B9D JUMP JUMPDEST DUP1 ISZERO PUSH2 0x140C JUMPI DUP1 PUSH1 0x1F LT PUSH2 0x1473 JUMPI PUSH2 0x100 DUP1 DUP4 SLOAD DIV MUL DUP4 MSTORE SWAP2 PUSH1 0x20 ADD SWAP2 PUSH2 0x140C JUMP JUMPDEST DUP3 ADD SWAP2 SWAP1 PUSH1 0x0 MSTORE PUSH1 0x20 PUSH1 0x0 KECCAK256 SWAP1 JUMPDEST DUP2 SLOAD DUP2 MSTORE SWAP1 PUSH1 0x1 ADD SWAP1 PUSH1 0x20 ADD DUP1 DUP4 GT PUSH2 0x1481 JUMPI POP SWAP4 SWAP6 SWAP5 POP POP POP POP POP JUMP JUMPDEST PUSH1 0x60 PUSH1 0x0 PUSH2 0x14AC DUP4 PUSH2 0x2160 JUMP JUMPDEST PUSH20 0xFFFFFFFFFFFFFFFFFFFFFFFFFFFFFFFFFFFFFFFF DUP2 AND PUSH1 0x0 SWAP1 DUP2 MSTORE PUSH1 0x9 PUSH1 0x20 SWAP1 DUP2 MSTORE PUSH1 0x40 SWAP2 DUP3 SWAP1 KECCAK256 DUP1 SLOAD DUP4 MLOAD DUP2 DUP5 MUL DUP2 ADD DUP5 ADD SWAP1 SWAP5 MSTORE DUP1 DUP5 MSTORE SWAP4 SWAP5 POP SWAP2 SWAP3 SWAP1 DUP4 ADD DUP3 DUP3 DUP1 ISZERO PUSH2 0x151B JUMPI PUSH1 0x20 MUL DUP3 ADD SWAP2 SWAP1 PUSH1 0x0 MSTORE PUSH1 0x20 PUSH1 0x0 KECCAK256 SWAP1 JUMPDEST DUP2 SLOAD DUP2 MSTORE PUSH1 0x20 ADD SWAP1 PUSH1 0x1 ADD SWAP1 DUP1 DUP4 GT PUSH2 0x1507 JUMPI JUMPDEST POP POP POP POP POP SWAP2 POP POP SWAP2 SWAP1 POP JUMP JUMPDEST PUSH1 0x60 CALLER PUSH2 0x1591 JUMPI PUSH1 0x40 MLOAD PUSH32 0x8C379A000000000000000000000000000000000000000000000000000000000 DUP2 MSTORE PUSH1 0x20 PUSH1 0x4 DUP3 ADD MSTORE PUSH1 0x17 PUSH1 0x24 DUP3 ADD MSTORE PUSH32 0x41757468656E7469636174696F6E207265717569726564000000000000000000 PUSH1 0x44 DUP3 ADD MSTORE PUSH1 0x64 ADD PUSH2 0xC6F JUMP JUMPDEST CALLER PUSH1 0x0 SWAP1 DUP2 MSTORE PUSH1 0x9 PUSH1 0x20 SWAP1 DUP2 MSTORE PUSH1 0x40 SWAP2 DUP3 SWAP1 KECCAK256 DUP1 SLOAD DUP4 MLOAD DUP2 DUP5 MUL DUP2 ADD DUP5 ADD SWAP1 SWAP5 MSTORE DUP1 DUP5 MSTORE SWAP1 SWAP2 DUP4 ADD DUP3 DUP3 DUP1 ISZERO PUSH2 0x140C JUMPI PUSH1 0x20 MUL DUP3 ADD SWAP2 SWAP1 PUSH1 0x0 MSTORE PUSH1 0x20 PUSH1 0x0 KECCAK256 SWAP1 DUP2 SLOAD DUP2 MSTORE PUSH1 0x20 ADD SWAP1 PUSH1 0x1 ADD SWAP1 DUP1 DUP4 GT PUSH2 0x13F8 JUMPI POP POP POP POP POP SWAP1 POP SWAP1 JUMP JUMPDEST PUSH1 0x60 PUSH1 0x0 PUSH2 0x15FB DUP4 PUSH2 0x2160 JUMP JUMPDEST PUSH20 0xFFFFFFFFFFFFFFFFFFFFFFFFFFFFFFFFFFFFFFFF DUP2 AND PUSH1 0x0 SWAP1 DUP2 MSTORE PUSH1 0x8 PUSH1 0x20 SWAP1 DUP2 MSTORE PUSH1 0x40 SWAP2 DUP3 SWAP1 KECCAK256 DUP1 SLOAD DUP4 MLOAD DUP2 DUP5 MUL DUP2 ADD DUP5 ADD SWAP1 SWAP5 MSTORE DUP1 DUP5 MSTORE SWAP4 SWAP5 POP SWAP2 SWAP3 SWAP1 DUP4 ADD DUP3 DUP3 DUP1 ISZERO PUSH2 0x151B JUMPI PUSH1 0x20 MUL DUP3 ADD SWAP2 SWAP1 PUSH1 0x0 MSTORE PUSH1 0x20 PUSH1 0x0 KECCAK256 SWAP1 DUP2 SLOAD DUP2 MSTORE PUSH1 0x20 ADD SWAP1 PUSH1 0x1 ADD SWAP1 DUP1 DUP4 GT PUSH2 0x1507 JUMPI POP POP POP POP POP SWAP2 POP POP SWAP2 SWAP1 POP JUMP JUMPDEST PUSH2 0x167D PUSH2 0x3284 JUMP JUMPDEST PUSH1 0x4 DUP3 DUP2 SLOAD DUP2 LT PUSH2 0x1690 JUMPI PUSH2 0x1690 PUSH2 0x3F1A JUMP JUMPDEST SWAP1 PUSH1 0x0 MSTORE PUSH1 0x20 PUSH1 0x0 KECCAK256 SWAP1 PUSH1 0x6 MUL ADD PUSH1 0x40 MLOAD DUP1 PUSH1 0xC0 ADD PUSH1 0x40 MSTORE SWAP1 DUP2 PUSH1 0x0 DUP3 ADD SLOAD DUP2 MSTORE PUSH1 0x20 ADD PUSH1 0x1 DUP3 ADD SLOAD DUP2 MSTORE PUSH1 0x20 ADD PUSH1 0x2 DUP3 ADD PUSH1 0x0 SWAP1 SLOAD SWAP1 PUSH2 0x100 EXP SWAP1 DIV PUSH1 0xFF AND PUSH1 0x1 DUP2 GT ISZERO PUSH2 0x16E1 JUMPI PUSH2 0x16E1 PUSH2 0x33A4 JUMP JUMPDEST PUSH1 0x1 DUP2 GT ISZERO PUSH2 0x16F2 JUMPI PUSH2 0x16F2 PUSH2 0x33A4 JUMP JUMPDEST DUP2 MSTORE PUSH1 0x20 ADD PUSH1 0x3 DUP3 ADD DUP1 SLOAD PUSH2 0x1706 SWAP1 PUSH2 0x3B9D JUMP JUMPDEST DUP1 PUSH1 0x1F ADD PUSH1 0x20 DUP1 SWAP2 DIV MUL PUSH1 0x20 ADD PUSH1 0x40 MLOAD SWAP1 DUP2 ADD PUSH1 0x40 MSTORE DUP1 SWAP3 SWAP2 SWAP1 DUP2 DUP2 MSTORE PUSH1 0x20 ADD DUP3 DUP1 SLOAD PUSH2 0x1732 SWAP1 PUSH2 0x3B9D JUMP JUMPDEST DUP1 ISZERO PUSH2 0x177F JUMPI DUP1 PUSH1 0x1F LT PUSH2 0x1754 JUMPI PUSH2 0x100 DUP1 DUP4 SLOAD DIV MUL DUP4 MSTORE SWAP2 PUSH1 0x20 ADD SWAP2 PUSH2 0x177F JUMP JUMPDEST DUP3 ADD SWAP2 SWAP1 PUSH1 0x0 MSTORE PUSH1 0x20 PUSH1 0x0 KECCAK256 SWAP1 JUMPDEST DUP2 SLOAD DUP2 MSTORE SWAP1 PUSH1 0x1 ADD SWAP1 PUSH1 0x20 ADD DUP1 DUP4 GT PUSH2 0x1762 JUMPI DUP3 SWAP1 SUB PUSH1 0x1F AND DUP3 ADD SWAP2 JUMPDEST POP POP POP POP POP DUP2 MSTORE PUSH1 0x20 ADD PUSH1 0x4 DUP3 ADD DUP1 SLOAD PUSH2 0x1798 SWAP1 PUSH2 0x3B9D JUMP JUMPDEST DUP1 PUSH1 0x1F ADD PUSH1 0x20 DUP1 SWAP2 DIV MUL PUSH1 0x20 ADD PUSH1 0x40 MLOAD SWAP1 DUP2 ADD PUSH1 0x40 MSTORE DUP1 SWAP3 SWAP2 SWAP1 DUP2 DUP2 MSTORE PUSH1 0x20 ADD DUP3 DUP1 SLOAD PUSH2 0x17C4 SWAP1 PUSH2 0x3B9D JUMP JUMPDEST DUP1 ISZERO PUSH2 0x1811 JUMPI DUP1 PUSH1 0x1F LT PUSH2 0x17E6 JUMPI PUSH2 0x100 DUP1 DUP4 SLOAD DIV MUL DUP4 MSTORE SWAP2 PUSH1 0x20 ADD SWAP2 PUSH2 0x1811 JUMP JUMPDEST DUP3 ADD SWAP2 SWAP1 PUSH1 0x0 MSTORE PUSH1 0x20 PUSH1 0x0 KECCAK256 SWAP1 JUMPDEST DUP2 SLOAD DUP2 MSTORE SWAP1 PUSH1 0x1 ADD SWAP1 PUSH1 0x20 ADD DUP1 DUP4 GT PUSH2 0x17F4 JUMPI DUP3 SWAP1 SUB PUSH1 0x1F AND DUP3 ADD SWAP2 JUMPDEST POP POP POP SWAP2 DUP4 MSTORE POP POP PUSH1 0x5 DUP3 ADD SLOAD PUSH1 0x20 SWAP1 SWAP2 ADD SWAP1 PUSH1 0xFF AND PUSH1 0x2 DUP2 GT ISZERO PUSH2 0x1838 JUMPI PUSH2 0x1838 PUSH2 0x33A4 JUMP JUMPDEST PUSH1 0x2 DUP2 GT ISZERO PUSH2 0x721 JUMPI PUSH2 0x721 PUSH2 0x33A4 JUMP JUMPDEST PUSH1 0x60 PUSH1 0x0 PUSH2 0x1856 DUP4 PUSH2 0x21E0 JUMP JUMPDEST PUSH1 0x1 ADD SWAP1 POP PUSH1 0x0 DUP2 PUSH8 0xFFFFFFFFFFFFFFFF DUP2 GT ISZERO PUSH2 0x1876 JUMPI PUSH2 0x1876 PUSH2 0x361F JUMP JUMPDEST PUSH1 0x40 MLOAD SWAP1 DUP1 DUP3 MSTORE DUP1 PUSH1 0x1F ADD PUSH1 0x1F NOT AND PUSH1 0x20 ADD DUP3 ADD PUSH1 0x40 MSTORE DUP1 ISZERO PUSH2 0x18A0 JUMPI PUSH1 0x20 DUP3 ADD DUP2 DUP1 CALLDATASIZE DUP4 CALLDATACOPY ADD SWAP1 POP JUMPDEST POP SWAP1 POP DUP2 DUP2 ADD PUSH1 0x20 ADD JUMPDEST PUSH32 0xFFFFFFFFFFFFFFFFFFFFFFFFFFFFFFFFFFFFFFFFFFFFFFFFFFFFFFFFFFFFFFFF ADD PUSH32 0x3031323334353637383961626364656600000000000000000000000000000000 PUSH1 0xA DUP7 MOD BYTE DUP2 MSTORE8 PUSH1 0xA DUP6 DIV SWAP5 POP DUP5 PUSH2 0x18AA JUMPI JUMPDEST POP SWAP4 SWAP3 POP POP POP JUMP JUMPDEST PUSH2 0x1982 PUSH1 0x40 MLOAD DUP1 PUSH2 0x180 ADD PUSH1 0x40 MSTORE DUP1 PUSH1 0x60 DUP2 MSTORE PUSH1 0x20 ADD PUSH1 0x0 PUSH20 0xFFFFFFFFFFFFFFFFFFFFFFFFFFFFFFFFFFFFFFFF AND DUP2 MSTORE PUSH1 0x20 ADD PUSH1 0x60 DUP2 MSTORE PUSH1 0x20 ADD PUSH1 0x60 DUP2 MSTORE PUSH1 0x20 ADD PUSH1 0x60 DUP2 MSTORE PUSH1 0x20 ADD PUSH1 0x0 DUP2 MSTORE PUSH1 0x20 ADD PUSH1 0x60 DUP2 MSTORE PUSH1 0x20 ADD PUSH1 0x60 DUP2 MSTORE PUSH1 0x20 ADD PUSH1 0x60 DUP2 MSTORE PUSH1 0x20 ADD PUSH1 0x60 DUP2 MSTORE PUSH1 0x20 ADD PUSH1 0x60 DUP2 MSTORE PUSH1 0x20 ADD PUSH1 0x60 DUP2 MSTORE POP SWAP1 JUMP JUMPDEST PUSH2 0x19FC PUSH1 0x40 MLOAD DUP1 PUSH2 0x180 ADD PUSH1 0x40 MSTORE DUP1 PUSH1 0x60 DUP2 MSTORE PUSH1 0x20 ADD PUSH1 0x0 PUSH20 0xFFFFFFFFFFFFFFFFFFFFFFFFFFFFFFFFFFFFFFFF AND DUP2 MSTORE PUSH1 0x20 ADD PUSH1 0x60 DUP2 MSTORE PUSH1 0x20 ADD PUSH1 0x60 DUP2 MSTORE PUSH1 0x20 ADD PUSH1 0x60 DUP2 MSTORE PUSH1 0x20 ADD PUSH1 0x0 DUP2 MSTORE PUSH1 0x20 ADD PUSH1 0x60 DUP2 MSTORE PUSH1 0x20 ADD PUSH1 0x60 DUP2 MSTORE PUSH1 0x20 ADD PUSH1 0x60 DUP2 MSTORE PUSH1 0x20 ADD PUSH1 0x60 DUP2 MSTORE PUSH1 0x20 ADD PUSH1 0x60 DUP2 MSTORE PUSH1 0x20 ADD PUSH1 0x60 DUP2 MSTORE POP SWAP1 JUMP JUMPDEST PUSH1 0x0 JUMPDEST DUP4 DUP2 LT ISZERO PUSH2 0x1AB7 JUMPI DUP5 DUP5 DUP3 DUP2 DUP2 LT PUSH2 0x1A19 JUMPI PUSH2 0x1A19 PUSH2 0x3F1A JUMP JUMPDEST SWAP1 SWAP2 ADD CALLDATALOAD PUSH32 0xFF00000000000000000000000000000000000000000000000000000000000000 AND PUSH32 0x2000000000000000000000000000000000000000000000000000000000000000 SUB SWAP1 POP PUSH2 0x1AAF JUMPI PUSH2 0x1AA8 DUP6 DUP6 DUP1 DUP1 PUSH1 0x1F ADD PUSH1 0x20 DUP1 SWAP2 DIV MUL PUSH1 0x20 ADD PUSH1 0x40 MLOAD SWAP1 DUP2 ADD PUSH1 0x40 MSTORE DUP1 SWAP4 SWAP3 SWAP2 SWAP1 DUP2 DUP2 MSTORE PUSH1 0x20 ADD DUP4 DUP4 DUP1 DUP3 DUP5 CALLDATACOPY PUSH1 0x0 SWAP3 ADD DUP3 SWAP1 MSTORE POP SWAP3 POP DUP6 SWAP2 POP PUSH2 0x22C2 SWAP1 POP JUMP JUMPDEST DUP3 MSTORE PUSH2 0x1AB7 JUMP JUMPDEST PUSH1 0x1 ADD PUSH2 0x19FF JUMP JUMPDEST PUSH2 0x1AC2 PUSH1 0x32 DUP3 PUSH2 0x3DB9 JUMP JUMPDEST SWAP1 POP PUSH2 0x1B29 PUSH2 0x1B24 DUP7 DUP7 DUP1 DUP1 PUSH1 0x1F ADD PUSH1 0x20 DUP1 SWAP2 DIV MUL PUSH1 0x20 ADD PUSH1 0x40 MLOAD SWAP1 DUP2 ADD PUSH1 0x40 MSTORE DUP1 SWAP4 SWAP3 SWAP2 SWAP1 DUP2 DUP2 MSTORE PUSH1 0x20 ADD DUP4 DUP4 DUP1 DUP3 DUP5 CALLDATACOPY PUSH1 0x0 SWAP3 ADD SWAP2 SWAP1 SWAP2 MSTORE POP PUSH2 0x1B0E SWAP3 POP PUSH1 0x2 SWAP2 POP DUP7 SWAP1 POP PUSH2 0x3DB9 JUMP JUMPDEST SWAP4 POP DUP4 PUSH2 0x1B1C PUSH1 0x28 DUP3 PUSH2 0x3DB9 JUMP JUMPDEST SWAP5 POP DUP5 PUSH2 0x22C2 JUMP JUMPDEST PUSH2 0x23C9 JUMP JUMPDEST PUSH20 0xFFFFFFFFFFFFFFFFFFFFFFFFFFFFFFFFFFFFFFFF AND PUSH1 0x20 DUP4 ADD MSTORE PUSH2 0x1B4F PUSH1 0x2 DUP3 PUSH2 0x3DB9 JUMP JUMPDEST SWAP1 POP DUP4 DUP2 LT DUP1 ISZERO PUSH2 0x1BBD JUMPI POP DUP5 DUP5 DUP3 DUP2 DUP2 LT PUSH2 0x1B6D JUMPI PUSH2 0x1B6D PUSH2 0x3F1A JUMP JUMPDEST SWAP1 POP ADD CALLDATALOAD PUSH1 0xF8 SHR PUSH1 0xF8 SHL PUSH31 0xFFFFFFFFFFFFFFFFFFFFFFFFFFFFFFFFFFFFFFFFFFFFFFFFFFFFFFFFFFFFFF NOT AND PUSH32 0xA00000000000000000000000000000000000000000000000000000000000000 EQ ISZERO JUMPDEST ISZERO PUSH2 0x1C90 JUMPI DUP1 JUMPDEST DUP5 DUP2 LT ISZERO PUSH2 0x1C8E JUMPI DUP6 DUP6 DUP3 DUP2 DUP2 LT PUSH2 0x1BDE JUMPI PUSH2 0x1BDE PUSH2 0x3F1A JUMP JUMPDEST SWAP1 SWAP2 ADD CALLDATALOAD PUSH32 0xFF00000000000000000000000000000000000000000000000000000000000000 AND PUSH32 0xA00000000000000000000000000000000000000000000000000000000000000 SUB SWAP1 POP PUSH2 0x1C86 JUMPI PUSH2 0x1C6F DUP7 DUP7 DUP1 DUP1 PUSH1 0x1F ADD PUSH1 0x20 DUP1 SWAP2 DIV MUL PUSH1 0x20 ADD PUSH1 0x40 MLOAD SWAP1 DUP2 ADD PUSH1 0x40 MSTORE DUP1 SWAP4 SWAP3 SWAP2 SWAP1 DUP2 DUP2 MSTORE PUSH1 0x20 ADD DUP4 DUP4 DUP1 DUP3 DUP5 CALLDATACOPY PUSH1 0x0 SWAP3 ADD SWAP2 SWAP1 SWAP2 MSTORE POP DUP7 SWAP3 POP DUP6 SWAP2 POP PUSH2 0x22C2 SWAP1 POP JUMP JUMPDEST PUSH1 0x40 DUP5 ADD MSTORE PUSH2 0x1C7F DUP2 PUSH1 0x1 PUSH2 0x3DB9 JUMP JUMPDEST SWAP2 POP PUSH2 0x1C8E JUMP JUMPDEST PUSH1 0x1 ADD PUSH2 0x1BC4 JUMP JUMPDEST POP JUMPDEST DUP1 PUSH2 0x1C9A DUP2 PUSH2 0x3C19 JUMP JUMPDEST SWAP2 POP POP PUSH2 0x1CDE DUP6 DUP6 PUSH1 0x40 MLOAD DUP1 PUSH1 0x40 ADD PUSH1 0x40 MSTORE DUP1 PUSH1 0x3 DUP2 MSTORE PUSH1 0x20 ADD PUSH32 0x5552490000000000000000000000000000000000000000000000000000000000 DUP2 MSTORE POP DUP5 PUSH2 0x252E JUMP JUMPDEST DUP4 PUSH1 0x60 ADD DUP2 SWAP4 POP DUP3 SWAP1 MSTORE POP POP PUSH2 0x1D2B DUP6 DUP6 PUSH1 0x40 MLOAD DUP1 PUSH1 0x40 ADD PUSH1 0x40 MSTORE DUP1 PUSH1 0x7 DUP2 MSTORE PUSH1 0x20 ADD PUSH32 0x56657273696F6E00000000000000000000000000000000000000000000000000 DUP2 MSTORE POP DUP5 PUSH2 0x252E JUMP JUMPDEST DUP4 PUSH1 0x80 ADD DUP2 SWAP4 POP DUP3 SWAP1 MSTORE POP POP PUSH1 0x60 PUSH2 0x1D7A DUP7 DUP7 PUSH1 0x40 MLOAD DUP1 PUSH1 0x40 ADD PUSH1 0x40 MSTORE DUP1 PUSH1 0x8 DUP2 MSTORE PUSH1 0x20 ADD PUSH32 0x436861696E204944000000000000000000000000000000000000000000000000 DUP2 MSTORE POP DUP6 PUSH2 0x252E JUMP JUMPDEST SWAP3 POP SWAP1 POP PUSH2 0x1D87 DUP2 PUSH2 0x27CA JUMP JUMPDEST PUSH1 0xA0 DUP5 ADD MSTORE PUSH1 0x40 DUP1 MLOAD DUP1 DUP3 ADD SWAP1 SWAP2 MSTORE PUSH1 0x5 DUP2 MSTORE PUSH32 0x4E6F6E6365000000000000000000000000000000000000000000000000000000 PUSH1 0x20 DUP3 ADD MSTORE PUSH2 0x1DCE SWAP1 DUP8 SWAP1 DUP8 SWAP1 DUP6 PUSH2 0x252E JUMP JUMPDEST PUSH1 0xC0 DUP6 ADD DUP3 SWAP1 MSTORE SWAP1 MLOAD SWAP1 SWAP3 POP PUSH1 0x8 GT ISZERO PUSH2 0x1E14 JUMPI PUSH1 0x40 MLOAD PUSH32 0xB4BC030C00000000000000000000000000000000000000000000000000000000 DUP2 MSTORE PUSH1 0x4 ADD PUSH1 0x40 MLOAD DUP1 SWAP2 SUB SWAP1 REVERT JUMPDEST PUSH2 0x1E55 DUP7 DUP7 PUSH1 0x40 MLOAD DUP1 PUSH1 0x40 ADD PUSH1 0x40 MSTORE DUP1 PUSH1 0x9 DUP2 MSTORE PUSH1 0x20 ADD PUSH32 0x4973737565642041740000000000000000000000000000000000000000000000 DUP2 MSTORE POP DUP6 PUSH2 0x252E JUMP JUMPDEST DUP5 PUSH1 0xE0 ADD DUP2 SWAP5 POP DUP3 SWAP1 MSTORE POP POP PUSH2 0x1EA2 DUP7 DUP7 PUSH1 0x40 MLOAD DUP1 PUSH1 0x40 ADD PUSH1 0x40 MSTORE DUP1 PUSH1 0xF DUP2 MSTORE PUSH1 0x20 ADD PUSH32 0x45787069726174696F6E2054696D650000000000000000000000000000000000 DUP2 MSTORE POP DUP6 PUSH2 0x252E JUMP JUMPDEST DUP5 PUSH2 0x100 ADD DUP2 SWAP5 POP DUP3 SWAP1 MSTORE POP POP PUSH2 0x1EF0 DUP7 DUP7 PUSH1 0x40 MLOAD DUP1 PUSH1 0x40 ADD PUSH1 0x40 MSTORE DUP1 PUSH1 0xA DUP2 MSTORE PUSH1 0x20 ADD PUSH32 0x4E6F74204265666F726500000000000000000000000000000000000000000000 DUP2 MSTORE POP DUP6 PUSH2 0x252E JUMP JUMPDEST DUP5 PUSH2 0x120 ADD DUP2 SWAP5 POP DUP3 SWAP1 MSTORE POP POP PUSH2 0x1F3E DUP7 DUP7 PUSH1 0x40 MLOAD DUP1 PUSH1 0x40 ADD PUSH1 0x40 MSTORE DUP1 PUSH1 0xA DUP2 MSTORE PUSH1 0x20 ADD PUSH32 0x5265717565737420494400000000000000000000000000000000000000000000 DUP2 MSTORE POP DUP6 PUSH2 0x252E JUMP JUMPDEST DUP5 PUSH2 0x140 ADD DUP2 SWAP5 POP DUP3 SWAP1 MSTORE POP POP PUSH1 0x0 PUSH2 0x1F8E DUP8 DUP8 PUSH1 0x40 MLOAD DUP1 PUSH1 0x40 ADD PUSH1 0x40 MSTORE DUP1 PUSH1 0x9 DUP2 MSTORE PUSH1 0x20 ADD PUSH32 0x5265736F75726365730000000000000000000000000000000000000000000000 DUP2 MSTORE POP DUP7 PUSH2 0x252E JUMP JUMPDEST SWAP2 POP POP DUP3 DUP2 EQ PUSH2 0x1FAF JUMPI PUSH2 0x1FA3 DUP8 DUP8 DUP4 PUSH2 0x2824 JUMP JUMPDEST PUSH2 0x160 DUP7 ADD SWAP2 SWAP1 SWAP2 MSTORE SWAP3 POP JUMPDEST POP SWAP2 SWAP3 POP POP POP JUMPDEST SWAP3 SWAP2 POP POP JUMP JUMPDEST PUSH1 0x0 PUSH2 0x1FB6 PUSH2 0x1FD6 PUSH2 0x1FD1 DUP5 PUSH1 0x0 PUSH1 0x4 PUSH2 0x22C2 JUMP JUMPDEST PUSH2 0x27CA JUMP JUMPDEST PUSH2 0x1FE6 PUSH2 0x1FD1 DUP6 PUSH1 0x5 PUSH1 0x7 PUSH2 0x22C2 JUMP JUMPDEST PUSH2 0x1FF6 PUSH2 0x1FD1 DUP7 PUSH1 0x8 PUSH1 0xA PUSH2 0x22C2 JUMP JUMPDEST PUSH2 0x2006 PUSH2 0x1FD1 DUP8 PUSH1 0xB PUSH1 0xD PUSH2 0x22C2 JUMP JUMPDEST PUSH2 0x2016 PUSH2 0x1FD1 DUP9 PUSH1 0xE PUSH1 0x10 PUSH2 0x22C2 JUMP JUMPDEST PUSH2 0x2026 PUSH2 0x1FD1 DUP10 PUSH1 0x11 PUSH1 0x13 PUSH2 0x22C2 JUMP JUMPDEST PUSH2 0x2C15 JUMP JUMPDEST PUSH1 0x60 PUSH1 0x0 DUP1 PUSH20 0x100000000000000000000000000000000000003 PUSH20 0xFFFFFFFFFFFFFFFFFFFFFFFFFFFFFFFFFFFFFFFF AND DUP8 DUP8 DUP8 DUP8 PUSH1 0x40 MLOAD PUSH1 0x20 ADD PUSH2 0x2072 SWAP5 SWAP4 SWAP3 SWAP2 SWAP1 PUSH2 0x40A4 JUMP JUMPDEST PUSH1 0x40 DUP1 MLOAD PUSH32 0xFFFFFFFFFFFFFFFFFFFFFFFFFFFFFFFFFFFFFFFFFFFFFFFFFFFFFFFFFFFFFFE0 DUP2 DUP5 SUB ADD DUP2 MSTORE SWAP1 DUP3 SWAP1 MSTORE PUSH2 0x20AA SWAP2 PUSH2 0x40D5 JUMP JUMPDEST PUSH1 0x0 PUSH1 0x40 MLOAD DUP1 DUP4 SUB DUP2 DUP6 GAS STATICCALL SWAP2 POP POP RETURNDATASIZE DUP1 PUSH1 0x0 DUP2 EQ PUSH2 0x20E5 JUMPI PUSH1 0x40 MLOAD SWAP2 POP PUSH1 0x1F NOT PUSH1 0x3F RETURNDATASIZE ADD AND DUP3 ADD PUSH1 0x40 MSTORE RETURNDATASIZE DUP3 MSTORE RETURNDATASIZE PUSH1 0x0 PUSH1 0x20 DUP5 ADD RETURNDATACOPY PUSH2 0x20EA JUMP JUMPDEST PUSH1 0x60 SWAP2 POP JUMPDEST POP SWAP2 POP SWAP2 POP DUP2 PUSH2 0x2156 JUMPI PUSH1 0x40 MLOAD PUSH32 0x8C379A000000000000000000000000000000000000000000000000000000000 DUP2 MSTORE PUSH1 0x20 PUSH1 0x4 DUP3 ADD MSTORE PUSH1 0xF PUSH1 0x24 DUP3 ADD MSTORE PUSH32 0x656E63727970743A206661696C65640000000000000000000000000000000000 PUSH1 0x44 DUP3 ADD MSTORE PUSH1 0x64 ADD PUSH2 0xC6F JUMP JUMPDEST SWAP7 SWAP6 POP POP POP POP POP POP JUMP JUMPDEST DUP1 MLOAD PUSH1 0x20 DUP1 DUP4 ADD SWAP2 SWAP1 SWAP2 KECCAK256 PUSH1 0x0 SWAP1 DUP2 MSTORE SWAP1 DUP2 SWAP1 MSTORE PUSH1 0x40 DUP2 KECCAK256 SLOAD DUP3 SWAP1 PUSH1 0xFF AND ISZERO PUSH2 0x21B5 JUMPI PUSH1 0x40 MLOAD PUSH32 0x9EA6784800000000000000000000000000000000000000000000000000000000 DUP2 MSTORE PUSH1 0x4 ADD PUSH1 0x40 MLOAD DUP1 SWAP2 SUB SWAP1 REVERT JUMPDEST DUP3 MLOAD PUSH1 0x0 SUB PUSH2 0x21C7 JUMPI PUSH1 0x0 SWAP2 POP PUSH2 0x21DA JUMP JUMPDEST PUSH1 0x0 PUSH2 0x21D2 DUP5 PUSH2 0x2DBB JUMP JUMPDEST PUSH1 0x20 ADD MLOAD SWAP3 POP POP JUMPDEST POP SWAP2 SWAP1 POP JUMP JUMPDEST PUSH1 0x0 DUP1 PUSH27 0x184F03E93FF9F4DAA797ED6E38ED64BF6A1F010000000000000000 DUP4 LT PUSH2 0x2229 JUMPI PUSH27 0x184F03E93FF9F4DAA797ED6E38ED64BF6A1F010000000000000000 DUP4 DIV SWAP3 POP PUSH1 0x40 ADD JUMPDEST PUSH14 0x4EE2D6D415B85ACEF8100000000 DUP4 LT PUSH2 0x2255 JUMPI PUSH14 0x4EE2D6D415B85ACEF8100000000 DUP4 DIV SWAP3 POP PUSH1 0x20 ADD JUMPDEST PUSH7 0x2386F26FC10000 DUP4 LT PUSH2 0x2273 JUMPI PUSH7 0x2386F26FC10000 DUP4 DIV SWAP3 POP PUSH1 0x10 ADD JUMPDEST PUSH4 0x5F5E100 DUP4 LT PUSH2 0x228B JUMPI PUSH4 0x5F5E100 DUP4 DIV SWAP3 POP PUSH1 0x8 ADD JUMPDEST PUSH2 0x2710 DUP4 LT PUSH2 0x229F JUMPI PUSH2 0x2710 DUP4 DIV SWAP3 POP PUSH1 0x4 ADD JUMPDEST PUSH1 0x64 DUP4 LT PUSH2 0x22B1 JUMPI PUSH1 0x64 DUP4 DIV SWAP3 POP PUSH1 0x2 ADD JUMPDEST PUSH1 0xA DUP4 LT PUSH2 0x1FB6 JUMPI PUSH1 0x1 ADD SWAP3 SWAP2 POP POP JUMP JUMPDEST PUSH1 0x60 PUSH1 0x0 PUSH2 0x22D0 DUP5 DUP5 PUSH2 0x40F1 JUMP JUMPDEST PUSH8 0xFFFFFFFFFFFFFFFF DUP2 GT ISZERO PUSH2 0x22E8 JUMPI PUSH2 0x22E8 PUSH2 0x361F JUMP JUMPDEST PUSH1 0x40 MLOAD SWAP1 DUP1 DUP3 MSTORE DUP1 PUSH1 0x1F ADD PUSH1 0x1F NOT AND PUSH1 0x20 ADD DUP3 ADD PUSH1 0x40 MSTORE DUP1 ISZERO PUSH2 0x2312 JUMPI PUSH1 0x20 DUP3 ADD DUP2 DUP1 CALLDATASIZE DUP4 CALLDATACOPY ADD SWAP1 POP JUMPDEST POP SWAP1 POP DUP4 JUMPDEST DUP4 DUP2 LT DUP1 ISZERO PUSH2 0x2326 JUMPI POP DUP6 MLOAD DUP2 LT JUMPDEST ISZERO PUSH2 0x23C0 JUMPI DUP6 DUP2 DUP2 MLOAD DUP2 LT PUSH2 0x233D JUMPI PUSH2 0x233D PUSH2 0x3F1A JUMP JUMPDEST ADD PUSH1 0x20 ADD MLOAD PUSH32 0xFF00000000000000000000000000000000000000000000000000000000000000 AND DUP3 PUSH2 0x236F DUP8 DUP5 PUSH2 0x40F1 JUMP JUMPDEST DUP2 MLOAD DUP2 LT PUSH2 0x237F JUMPI PUSH2 0x237F PUSH2 0x3F1A JUMP JUMPDEST PUSH1 0x20 ADD ADD SWAP1 PUSH31 0xFFFFFFFFFFFFFFFFFFFFFFFFFFFFFFFFFFFFFFFFFFFFFFFFFFFFFFFFFFFFFF NOT AND SWAP1 DUP2 PUSH1 0x0 BYTE SWAP1 MSTORE8 POP DUP1 PUSH2 0x23B8 DUP2 PUSH2 0x3C19 JUMP JUMPDEST SWAP2 POP POP PUSH2 0x2317 JUMP JUMPDEST POP SWAP5 SWAP4 POP POP POP POP JUMP JUMPDEST PUSH1 0x0 DUP2 MLOAD PUSH1 0x28 EQ PUSH2 0x2406 JUMPI PUSH1 0x40 MLOAD PUSH32 0xACF8696900000000000000000000000000000000000000000000000000000000 DUP2 MSTORE PUSH1 0x4 ADD PUSH1 0x40 MLOAD DUP1 SWAP2 SUB SWAP1 REVERT JUMPDEST PUSH1 0x0 PUSH1 0x2 DUP4 MLOAD PUSH2 0x2416 SWAP2 SWAP1 PUSH2 0x4104 JUMP JUMPDEST PUSH8 0xFFFFFFFFFFFFFFFF DUP2 GT ISZERO PUSH2 0x242E JUMPI PUSH2 0x242E PUSH2 0x361F JUMP JUMPDEST PUSH1 0x40 MLOAD SWAP1 DUP1 DUP3 MSTORE DUP1 PUSH1 0x1F ADD PUSH1 0x1F NOT AND PUSH1 0x20 ADD DUP3 ADD PUSH1 0x40 MSTORE DUP1 ISZERO PUSH2 0x2458 JUMPI PUSH1 0x20 DUP3 ADD DUP2 DUP1 CALLDATASIZE DUP4 CALLDATACOPY ADD SWAP1 POP JUMPDEST POP SWAP1 POP PUSH1 0x0 JUMPDEST PUSH1 0x2 DUP5 MLOAD PUSH2 0x246C SWAP2 SWAP1 PUSH2 0x4104 JUMP JUMPDEST DUP2 LT ISZERO PUSH2 0x251A JUMPI PUSH2 0x24AA DUP5 PUSH2 0x2482 DUP4 PUSH1 0x2 PUSH2 0x4118 JUMP JUMPDEST PUSH2 0x248D SWAP1 PUSH1 0x1 PUSH2 0x3DB9 JUMP JUMPDEST DUP2 MLOAD DUP2 LT PUSH2 0x249D JUMPI PUSH2 0x249D PUSH2 0x3F1A JUMP JUMPDEST ADD PUSH1 0x20 ADD MLOAD PUSH1 0xF8 SHR PUSH2 0x2EDE JUMP JUMPDEST PUSH2 0x24B9 DUP6 PUSH2 0x248D DUP5 PUSH1 0x2 PUSH2 0x4118 JUMP JUMPDEST PUSH2 0x24C4 SWAP1 PUSH1 0x10 PUSH2 0x412F JUMP JUMPDEST PUSH2 0x24CE SWAP2 SWAP1 PUSH2 0x414B JUMP JUMPDEST PUSH1 0xF8 SHL DUP3 DUP3 DUP2 MLOAD DUP2 LT PUSH2 0x24E3 JUMPI PUSH2 0x24E3 PUSH2 0x3F1A JUMP JUMPDEST PUSH1 0x20 ADD ADD SWAP1 PUSH31 0xFFFFFFFFFFFFFFFFFFFFFFFFFFFFFFFFFFFFFFFFFFFFFFFFFFFFFFFFFFFFFF NOT AND SWAP1 DUP2 PUSH1 0x0 BYTE SWAP1 MSTORE8 POP PUSH1 0x1 ADD PUSH2 0x245E JUMP JUMPDEST POP PUSH2 0x2524 DUP2 PUSH2 0x4164 JUMP JUMPDEST PUSH1 0x60 SHR SWAP4 SWAP3 POP POP POP JUMP JUMPDEST PUSH1 0x60 PUSH1 0x0 DUP3 JUMPDEST DUP6 DUP2 LT ISZERO PUSH2 0x26B1 JUMPI DUP7 DUP7 DUP3 DUP2 DUP2 LT PUSH2 0x254E JUMPI PUSH2 0x254E PUSH2 0x3F1A JUMP JUMPDEST SWAP1 SWAP2 ADD CALLDATALOAD PUSH32 0xFF00000000000000000000000000000000000000000000000000000000000000 AND PUSH32 0x3A00000000000000000000000000000000000000000000000000000000000000 SUB SWAP1 POP PUSH2 0x269F JUMPI DUP5 DUP1 MLOAD SWAP1 PUSH1 0x20 ADD KECCAK256 PUSH2 0x25E7 DUP9 DUP9 DUP1 DUP1 PUSH1 0x1F ADD PUSH1 0x20 DUP1 SWAP2 DIV MUL PUSH1 0x20 ADD PUSH1 0x40 MLOAD SWAP1 DUP2 ADD PUSH1 0x40 MSTORE DUP1 SWAP4 SWAP3 SWAP2 SWAP1 DUP2 DUP2 MSTORE PUSH1 0x20 ADD DUP4 DUP4 DUP1 DUP3 DUP5 CALLDATACOPY PUSH1 0x0 SWAP3 ADD SWAP2 SWAP1 SWAP2 MSTORE POP DUP10 SWAP3 POP DUP7 SWAP2 POP PUSH2 0x22C2 SWAP1 POP JUMP JUMPDEST DUP1 MLOAD SWAP1 PUSH1 0x20 ADD KECCAK256 EQ PUSH2 0x260C JUMPI POP POP PUSH1 0x40 DUP1 MLOAD PUSH1 0x20 DUP2 ADD SWAP1 SWAP2 MSTORE PUSH1 0x0 DUP2 MSTORE SWAP1 POP DUP2 PUSH2 0x27C1 JUMP JUMPDEST DUP1 PUSH2 0x2616 DUP2 PUSH2 0x3C19 JUMP JUMPDEST SWAP2 POP POP DUP6 DUP2 LT DUP1 ISZERO PUSH2 0x2684 JUMPI POP DUP7 DUP7 DUP3 DUP2 DUP2 LT PUSH2 0x2635 JUMPI PUSH2 0x2635 PUSH2 0x3F1A JUMP JUMPDEST SWAP1 POP ADD CALLDATALOAD PUSH1 0xF8 SHR PUSH1 0xF8 SHL PUSH31 0xFFFFFFFFFFFFFFFFFFFFFFFFFFFFFFFFFFFFFFFFFFFFFFFFFFFFFFFFFFFFFF NOT AND PUSH32 0x2000000000000000000000000000000000000000000000000000000000000000 EQ JUMPDEST ISZERO PUSH2 0x2697 JUMPI DUP1 PUSH2 0x2693 DUP2 PUSH2 0x3C19 JUMP JUMPDEST SWAP2 POP POP JUMPDEST DUP1 SWAP4 POP PUSH2 0x26B1 JUMP JUMPDEST DUP1 PUSH2 0x26A9 DUP2 PUSH2 0x3C19 JUMP JUMPDEST SWAP2 POP POP PUSH2 0x2534 JUMP JUMPDEST DUP6 DUP2 LT ISZERO PUSH2 0x2779 JUMPI DUP7 DUP7 DUP3 DUP2 DUP2 LT PUSH2 0x26CB JUMPI PUSH2 0x26CB PUSH2 0x3F1A JUMP JUMPDEST SWAP1 SWAP2 ADD CALLDATALOAD PUSH32 0xFF00000000000000000000000000000000000000000000000000000000000000 AND PUSH32 0xA00000000000000000000000000000000000000000000000000000000000000 SUB SWAP1 POP PUSH2 0x2771 JUMPI PUSH2 0x275C DUP8 DUP8 DUP1 DUP1 PUSH1 0x1F ADD PUSH1 0x20 DUP1 SWAP2 DIV MUL PUSH1 0x20 ADD PUSH1 0x40 MLOAD SWAP1 DUP2 ADD PUSH1 0x40 MSTORE DUP1 SWAP4 SWAP3 SWAP2 SWAP1 DUP2 DUP2 MSTORE PUSH1 0x20 ADD DUP4 DUP4 DUP1 DUP3 DUP5 CALLDATACOPY PUSH1 0x0 SWAP3 ADD SWAP2 SWAP1 SWAP2 MSTORE POP DUP9 SWAP3 POP DUP6 SWAP2 POP PUSH2 0x22C2 SWAP1 POP JUMP JUMPDEST PUSH2 0x2767 DUP3 PUSH1 0x1 PUSH2 0x3DB9 JUMP JUMPDEST SWAP3 POP SWAP3 POP POP PUSH2 0x27C1 JUMP JUMPDEST PUSH1 0x1 ADD PUSH2 0x26B1 JUMP JUMPDEST PUSH2 0x27BC DUP8 DUP8 DUP1 DUP1 PUSH1 0x1F ADD PUSH1 0x20 DUP1 SWAP2 DIV MUL PUSH1 0x20 ADD PUSH1 0x40 MLOAD SWAP1 DUP2 ADD PUSH1 0x40 MSTORE DUP1 SWAP4 SWAP3 SWAP2 SWAP1 DUP2 DUP2 MSTORE PUSH1 0x20 ADD DUP4 DUP4 DUP1 DUP3 DUP5 CALLDATACOPY PUSH1 0x0 SWAP3 ADD SWAP2 SWAP1 SWAP2 MSTORE POP DUP9 SWAP3 POP DUP6 SWAP2 POP PUSH2 0x22C2 SWAP1 POP JUMP JUMPDEST SWAP3 POP SWAP1 POP JUMPDEST SWAP5 POP SWAP5 SWAP3 POP POP POP JUMP JUMPDEST PUSH1 0x0 DUP1 DUP1 JUMPDEST DUP4 MLOAD DUP2 LT ISZERO PUSH2 0x281D JUMPI PUSH1 0x30 DUP5 DUP3 DUP2 MLOAD DUP2 LT PUSH2 0x27EC JUMPI PUSH2 0x27EC PUSH2 0x3F1A JUMP JUMPDEST ADD PUSH1 0x20 ADD MLOAD PUSH2 0x27FE SWAP2 SWAP1 PUSH1 0xF8 SHR PUSH2 0x40F1 JUMP JUMPDEST PUSH2 0x2809 DUP4 PUSH1 0xA PUSH2 0x4118 JUMP JUMPDEST PUSH2 0x2813 SWAP2 SWAP1 PUSH2 0x3DB9 JUMP JUMPDEST SWAP2 POP PUSH1 0x1 ADD PUSH2 0x27CF JUMP JUMPDEST POP SWAP3 SWAP2 POP POP JUMP JUMPDEST PUSH1 0x60 PUSH1 0x0 DUP3 DUP2 JUMPDEST PUSH2 0x2836 PUSH1 0x1 DUP8 PUSH2 0x40F1 JUMP JUMPDEST DUP3 LT ISZERO PUSH2 0x29B1 JUMPI DUP7 DUP7 DUP4 DUP2 DUP2 LT PUSH2 0x284F JUMPI PUSH2 0x284F PUSH2 0x3F1A JUMP JUMPDEST SWAP1 POP ADD CALLDATALOAD PUSH1 0xF8 SHR PUSH1 0xF8 SHL PUSH31 0xFFFFFFFFFFFFFFFFFFFFFFFFFFFFFFFFFFFFFFFFFFFFFFFFFFFFFFFFFFFFFF NOT AND PUSH32 0x2D00000000000000000000000000000000000000000000000000000000000000 EQ DUP1 ISZERO PUSH2 0x290F JUMPI POP DUP7 DUP7 PUSH2 0x28B1 DUP5 PUSH1 0x1 PUSH2 0x3DB9 JUMP JUMPDEST DUP2 DUP2 LT PUSH2 0x28C0 JUMPI PUSH2 0x28C0 PUSH2 0x3F1A JUMP JUMPDEST SWAP1 POP ADD CALLDATALOAD PUSH1 0xF8 SHR PUSH1 0xF8 SHL PUSH31 0xFFFFFFFFFFFFFFFFFFFFFFFFFFFFFFFFFFFFFFFFFFFFFFFFFFFFFFFFFFFFFF NOT AND PUSH32 0x2000000000000000000000000000000000000000000000000000000000000000 EQ JUMPDEST ISZERO PUSH2 0x2933 JUMPI PUSH2 0x291F PUSH1 0x2 DUP4 PUSH2 0x3DB9 JUMP JUMPDEST SWAP2 POP DUP1 PUSH2 0x292B DUP2 PUSH2 0x3C19 JUMP JUMPDEST SWAP2 POP POP PUSH2 0x2938 JUMP JUMPDEST PUSH2 0x29B1 JUMP JUMPDEST DUP6 DUP3 LT DUP1 ISZERO PUSH2 0x2988 JUMPI POP DUP7 DUP7 DUP4 DUP2 DUP2 LT PUSH2 0x2954 JUMPI PUSH2 0x2954 PUSH2 0x3F1A JUMP JUMPDEST SWAP1 POP ADD CALLDATALOAD PUSH1 0xF8 SHR PUSH1 0xF8 SHL PUSH31 0xFFFFFFFFFFFFFFFFFFFFFFFFFFFFFFFFFFFFFFFFFFFFFFFFFFFFFFFFFFFFFF NOT AND PUSH1 0xA PUSH1 0xF8 SHL EQ ISZERO JUMPDEST ISZERO PUSH2 0x299F JUMPI DUP2 PUSH2 0x2997 DUP2 PUSH2 0x3C19 JUMP JUMPDEST SWAP3 POP POP PUSH2 0x2938 JUMP JUMPDEST DUP2 PUSH2 0x29A9 DUP2 PUSH2 0x3C19 JUMP JUMPDEST SWAP3 POP POP PUSH2 0x282B JUMP JUMPDEST PUSH1 0x0 DUP2 PUSH8 0xFFFFFFFFFFFFFFFF DUP2 GT ISZERO PUSH2 0x29CC JUMPI PUSH2 0x29CC PUSH2 0x361F JUMP JUMPDEST PUSH1 0x40 MLOAD SWAP1 DUP1 DUP3 MSTORE DUP1 PUSH1 0x20 MUL PUSH1 0x20 ADD DUP3 ADD PUSH1 0x40 MSTORE DUP1 ISZERO PUSH2 0x29FF JUMPI DUP2 PUSH1 0x20 ADD JUMPDEST PUSH1 0x60 DUP2 MSTORE PUSH1 0x20 ADD SWAP1 PUSH1 0x1 SWAP1 SUB SWAP1 DUP2 PUSH2 0x29EA JUMPI SWAP1 POP JUMPDEST POP SWAP1 POP DUP6 SWAP3 POP PUSH1 0x0 JUMPDEST PUSH2 0x2A13 PUSH1 0x1 DUP10 PUSH2 0x40F1 JUMP JUMPDEST DUP5 LT DUP1 ISZERO PUSH2 0x2A21 JUMPI POP DUP3 DUP2 EQ ISZERO JUMPDEST ISZERO PUSH2 0x2C07 JUMPI DUP9 DUP9 DUP6 DUP2 DUP2 LT PUSH2 0x2A38 JUMPI PUSH2 0x2A38 PUSH2 0x3F1A JUMP JUMPDEST SWAP1 POP ADD CALLDATALOAD PUSH1 0xF8 SHR PUSH1 0xF8 SHL PUSH31 0xFFFFFFFFFFFFFFFFFFFFFFFFFFFFFFFFFFFFFFFFFFFFFFFFFFFFFFFFFFFFFF NOT AND PUSH32 0x2D00000000000000000000000000000000000000000000000000000000000000 EQ DUP1 ISZERO PUSH2 0x2AF8 JUMPI POP DUP9 DUP9 PUSH2 0x2A9A DUP7 PUSH1 0x1 PUSH2 0x3DB9 JUMP JUMPDEST DUP2 DUP2 LT PUSH2 0x2AA9 JUMPI PUSH2 0x2AA9 PUSH2 0x3F1A JUMP JUMPDEST SWAP1 POP ADD CALLDATALOAD PUSH1 0xF8 SHR PUSH1 0xF8 SHL PUSH31 0xFFFFFFFFFFFFFFFFFFFFFFFFFFFFFFFFFFFFFFFFFFFFFFFFFFFFFFFFFFFFFF NOT AND PUSH32 0x2000000000000000000000000000000000000000000000000000000000000000 EQ JUMPDEST ISZERO PUSH2 0x2B0B JUMPI PUSH2 0x2B08 DUP5 PUSH1 0x2 PUSH2 0x3DB9 JUMP JUMPDEST SWAP7 POP JUMPDEST DUP8 DUP5 LT DUP1 ISZERO PUSH2 0x2B5B JUMPI POP DUP9 DUP9 DUP6 DUP2 DUP2 LT PUSH2 0x2B27 JUMPI PUSH2 0x2B27 PUSH2 0x3F1A JUMP JUMPDEST SWAP1 POP ADD CALLDATALOAD PUSH1 0xF8 SHR PUSH1 0xF8 SHL PUSH31 0xFFFFFFFFFFFFFFFFFFFFFFFFFFFFFFFFFFFFFFFFFFFFFFFFFFFFFFFFFFFFFF NOT AND PUSH1 0xA PUSH1 0xF8 SHL EQ ISZERO JUMPDEST ISZERO PUSH2 0x2B72 JUMPI DUP4 PUSH2 0x2B6A DUP2 PUSH2 0x3C19 JUMP JUMPDEST SWAP5 POP POP PUSH2 0x2B0B JUMP JUMPDEST PUSH2 0x2BB5 DUP10 DUP10 DUP1 DUP1 PUSH1 0x1F ADD PUSH1 0x20 DUP1 SWAP2 DIV MUL PUSH1 0x20 ADD PUSH1 0x40 MLOAD SWAP1 DUP2 ADD PUSH1 0x40 MSTORE DUP1 SWAP4 SWAP3 SWAP2 SWAP1 DUP2 DUP2 MSTORE PUSH1 0x20 ADD DUP4 DUP4 DUP1 DUP3 DUP5 CALLDATACOPY PUSH1 0x0 SWAP3 ADD SWAP2 SWAP1 SWAP2 MSTORE POP DUP12 SWAP3 POP DUP9 SWAP2 POP PUSH2 0x22C2 SWAP1 POP JUMP JUMPDEST DUP3 DUP3 DUP2 MLOAD DUP2 LT PUSH2 0x2BC7 JUMPI PUSH2 0x2BC7 PUSH2 0x3F1A JUMP JUMPDEST PUSH1 0x20 MUL PUSH1 0x20 ADD ADD DUP2 SWAP1 MSTORE POP DUP1 DUP1 PUSH2 0x2BDD SWAP1 PUSH2 0x3C19 JUMP JUMPDEST SWAP2 POP POP DUP8 DUP5 SUB PUSH2 0x2BF5 JUMPI DUP4 PUSH2 0x2BF1 DUP2 PUSH2 0x41D0 JUMP JUMPDEST SWAP5 POP POP JUMPDEST DUP4 PUSH2 0x2BFF DUP2 PUSH2 0x3C19 JUMP JUMPDEST SWAP5 POP POP PUSH2 0x2A08 JUMP JUMPDEST POP SWAP8 SWAP2 SWAP7 POP SWAP1 SWAP5 POP POP POP POP POP JUMP JUMPDEST PUSH1 0x0 PUSH2 0x7B2 JUMPDEST DUP8 PUSH2 0xFFFF AND DUP2 PUSH2 0xFFFF AND LT ISZERO PUSH2 0x2C67 JUMPI PUSH2 0x2C34 DUP2 PUSH2 0x30FA JUMP JUMPDEST ISZERO PUSH2 0x2C4E JUMPI PUSH2 0x2C47 PUSH4 0x1E28500 DUP4 PUSH2 0x3DB9 JUMP JUMPDEST SWAP2 POP PUSH2 0x2C5F JUMP JUMPDEST PUSH2 0x2C5C PUSH4 0x1E13380 DUP4 PUSH2 0x3DB9 JUMP JUMPDEST SWAP2 POP JUMPDEST PUSH1 0x1 ADD PUSH2 0x2C1B JUMP JUMPDEST PUSH2 0x2C6F PUSH2 0x32CA JUMP JUMPDEST PUSH1 0x1F DUP2 MSTORE PUSH2 0x2C7C DUP10 PUSH2 0x30FA JUMP JUMPDEST ISZERO PUSH2 0x2C8D JUMPI PUSH1 0x1D PUSH1 0x20 DUP3 ADD MSTORE PUSH2 0x2C95 JUMP JUMPDEST PUSH1 0x1C PUSH1 0x20 DUP3 ADD MSTORE JUMPDEST PUSH1 0x1F PUSH1 0x40 DUP3 ADD DUP2 SWAP1 MSTORE PUSH1 0x1E PUSH1 0x60 DUP4 ADD DUP2 SWAP1 MSTORE PUSH1 0x80 DUP4 ADD DUP3 SWAP1 MSTORE PUSH1 0xA0 DUP4 ADD DUP2 SWAP1 MSTORE PUSH1 0xC0 DUP4 ADD DUP3 SWAP1 MSTORE PUSH1 0xE0 DUP4 ADD DUP3 SWAP1 MSTORE PUSH2 0x100 DUP4 ADD DUP2 SWAP1 MSTORE PUSH2 0x120 DUP4 ADD DUP3 SWAP1 MSTORE PUSH2 0x140 DUP4 ADD MSTORE PUSH2 0x160 DUP3 ADD MSTORE PUSH1 0x1 SWAP2 POP JUMPDEST DUP8 PUSH1 0xFF AND DUP3 PUSH2 0xFFFF AND LT ISZERO PUSH2 0x2D42 JUMPI DUP1 PUSH2 0x2CFF PUSH1 0x1 DUP5 PUSH2 0x4205 JUMP JUMPDEST PUSH2 0xFFFF AND PUSH1 0xC DUP2 LT PUSH2 0x2D13 JUMPI PUSH2 0x2D13 PUSH2 0x3F1A JUMP JUMPDEST PUSH1 0x20 MUL ADD MLOAD PUSH2 0x2D25 SWAP1 PUSH3 0x15180 PUSH2 0x421F JUMP JUMPDEST PUSH2 0x2D35 SWAP1 PUSH4 0xFFFFFFFF AND DUP5 PUSH2 0x3DB9 JUMP JUMPDEST SWAP3 POP PUSH1 0x1 SWAP1 SWAP2 ADD SWAP1 PUSH2 0x2CE4 JUMP JUMPDEST PUSH2 0x2D4D PUSH1 0x1 DUP9 PUSH2 0x423E JUMP JUMPDEST PUSH2 0x2D5D SWAP1 PUSH1 0xFF AND PUSH3 0x15180 PUSH2 0x421F JUMP JUMPDEST PUSH2 0x2D6D SWAP1 PUSH4 0xFFFFFFFF AND DUP5 PUSH2 0x3DB9 JUMP JUMPDEST SWAP3 POP PUSH2 0x2D7E PUSH1 0xFF DUP8 AND PUSH2 0xE10 PUSH2 0x421F JUMP JUMPDEST PUSH2 0x2D8E SWAP1 PUSH4 0xFFFFFFFF AND DUP5 PUSH2 0x3DB9 JUMP JUMPDEST SWAP3 POP PUSH2 0x2D9E PUSH1 0xFF DUP7 AND PUSH1 0x3C PUSH2 0x4257 JUMP JUMPDEST PUSH2 0x2DAC SWAP1 PUSH2 0xFFFF AND DUP5 PUSH2 0x3DB9 JUMP JUMPDEST SWAP3 POP PUSH2 0x128C PUSH1 0xFF DUP6 AND DUP5 PUSH2 0x3DB9 JUMP JUMPDEST PUSH2 0x2E03 PUSH1 0x40 MLOAD DUP1 PUSH1 0xA0 ADD PUSH1 0x40 MSTORE DUP1 PUSH1 0x60 DUP2 MSTORE PUSH1 0x20 ADD PUSH1 0x0 PUSH20 0xFFFFFFFFFFFFFFFFFFFFFFFFFFFFFFFFFFFFFFFF AND DUP2 MSTORE PUSH1 0x20 ADD PUSH1 0x0 DUP2 MSTORE PUSH1 0x20 ADD PUSH1 0x60 DUP2 MSTORE PUSH1 0x20 ADD PUSH1 0x60 DUP2 MSTORE POP SWAP1 JUMP JUMPDEST PUSH1 0x0 PUSH2 0x2E25 PUSH1 0x2 SLOAD PUSH1 0x0 DUP1 SHL DUP6 PUSH1 0x40 MLOAD DUP1 PUSH1 0x20 ADD PUSH1 0x40 MSTORE DUP1 PUSH1 0x0 DUP2 MSTORE POP PUSH2 0x3159 JUMP JUMPDEST SWAP1 POP PUSH1 0x0 DUP2 DUP1 PUSH1 0x20 ADD SWAP1 MLOAD DUP2 ADD SWAP1 PUSH2 0x2E3D SWAP2 SWAP1 PUSH2 0x434C JUMP JUMPDEST SWAP1 POP PUSH1 0x1 PUSH1 0x40 MLOAD PUSH2 0x2E4E SWAP2 SWAP1 PUSH2 0x3E87 JUMP JUMPDEST PUSH1 0x40 MLOAD DUP1 SWAP2 SUB SWAP1 KECCAK256 DUP2 PUSH1 0x0 ADD MLOAD DUP1 MLOAD SWAP1 PUSH1 0x20 ADD KECCAK256 EQ PUSH2 0x2E99 JUMPI PUSH1 0x40 MLOAD PUSH32 0x283D62BD00000000000000000000000000000000000000000000000000000000 DUP2 MSTORE PUSH1 0x4 ADD PUSH1 0x40 MLOAD DUP1 SWAP2 SUB SWAP1 REVERT JUMPDEST TIMESTAMP DUP2 PUSH1 0x40 ADD MLOAD LT ISZERO PUSH2 0x2ED7 JUMPI PUSH1 0x40 MLOAD PUSH32 0xB171155000000000000000000000000000000000000000000000000000000000 DUP2 MSTORE PUSH1 0x4 ADD PUSH1 0x40 MLOAD DUP1 SWAP2 SUB SWAP1 REVERT JUMPDEST SWAP4 SWAP3 POP POP POP JUMP JUMPDEST PUSH1 0x0 PUSH32 0x3000000000000000000000000000000000000000000000000000000000000000 PUSH1 0xF8 DUP4 SWAP1 SHL PUSH32 0xFF00000000000000000000000000000000000000000000000000000000000000 AND LT DUP1 ISZERO SWAP1 PUSH2 0x2F7C JUMPI POP PUSH32 0x3900000000000000000000000000000000000000000000000000000000000000 PUSH1 0xF8 DUP4 SWAP1 SHL PUSH32 0xFF00000000000000000000000000000000000000000000000000000000000000 AND GT ISZERO JUMPDEST ISZERO PUSH2 0x2F8C JUMPI PUSH2 0x1FB6 PUSH1 0x30 DUP4 PUSH2 0x423E JUMP JUMPDEST PUSH32 0x6100000000000000000000000000000000000000000000000000000000000000 PUSH1 0xF8 DUP4 SWAP1 SHL PUSH32 0xFF00000000000000000000000000000000000000000000000000000000000000 AND LT DUP1 ISZERO SWAP1 PUSH2 0x3028 JUMPI POP PUSH32 0x6600000000000000000000000000000000000000000000000000000000000000 PUSH1 0xF8 DUP4 SWAP1 SHL PUSH32 0xFF00000000000000000000000000000000000000000000000000000000000000 AND GT ISZERO JUMPDEST ISZERO PUSH2 0x3044 JUMPI PUSH1 0x61 PUSH2 0x303A DUP4 PUSH1 0xA PUSH2 0x414B JUMP JUMPDEST PUSH2 0x1FB6 SWAP2 SWAP1 PUSH2 0x423E JUMP JUMPDEST PUSH32 0x4100000000000000000000000000000000000000000000000000000000000000 PUSH1 0xF8 DUP4 SWAP1 SHL PUSH32 0xFF00000000000000000000000000000000000000000000000000000000000000 AND LT DUP1 ISZERO SWAP1 PUSH2 0x30E0 JUMPI POP PUSH32 0x4600000000000000000000000000000000000000000000000000000000000000 PUSH1 0xF8 DUP4 SWAP1 SHL PUSH32 0xFF00000000000000000000000000000000000000000000000000000000000000 AND GT ISZERO JUMPDEST ISZERO PUSH2 0x30F2 JUMPI PUSH1 0x41 PUSH2 0x303A DUP4 PUSH1 0xA PUSH2 0x414B JUMP JUMPDEST POP PUSH1 0x0 SWAP2 SWAP1 POP JUMP JUMPDEST PUSH1 0x0 PUSH2 0x3107 PUSH1 0x4 DUP4 PUSH2 0x4430 JUMP JUMPDEST PUSH2 0xFFFF AND ISZERO PUSH2 0x3118 JUMPI POP PUSH1 0x0 SWAP2 SWAP1 POP JUMP JUMPDEST PUSH2 0x3123 PUSH1 0x64 DUP4 PUSH2 0x4430 JUMP JUMPDEST PUSH2 0xFFFF AND ISZERO PUSH2 0x3134 JUMPI POP PUSH1 0x1 SWAP2 SWAP1 POP JUMP JUMPDEST PUSH2 0x3140 PUSH2 0x190 DUP4 PUSH2 0x4430 JUMP JUMPDEST PUSH2 0xFFFF AND ISZERO PUSH2 0x3151 JUMPI POP PUSH1 0x0 SWAP2 SWAP1 POP JUMP JUMPDEST POP PUSH1 0x1 SWAP2 SWAP1 POP JUMP JUMPDEST PUSH1 0x60 PUSH1 0x0 DUP1 PUSH20 0x100000000000000000000000000000000000004 PUSH20 0xFFFFFFFFFFFFFFFFFFFFFFFFFFFFFFFFFFFFFFFF AND DUP8 DUP8 DUP8 DUP8 PUSH1 0x40 MLOAD PUSH1 0x20 ADD PUSH2 0x31A0 SWAP5 SWAP4 SWAP3 SWAP2 SWAP1 PUSH2 0x40A4 JUMP JUMPDEST PUSH1 0x40 DUP1 MLOAD PUSH32 0xFFFFFFFFFFFFFFFFFFFFFFFFFFFFFFFFFFFFFFFFFFFFFFFFFFFFFFFFFFFFFFE0 DUP2 DUP5 SUB ADD DUP2 MSTORE SWAP1 DUP3 SWAP1 MSTORE PUSH2 0x31D8 SWAP2 PUSH2 0x40D5 JUMP JUMPDEST PUSH1 0x0 PUSH1 0x40 MLOAD DUP1 DUP4 SUB DUP2 DUP6 GAS STATICCALL SWAP2 POP POP RETURNDATASIZE DUP1 PUSH1 0x0 DUP2 EQ PUSH2 0x3213 JUMPI PUSH1 0x40 MLOAD SWAP2 POP PUSH1 0x1F NOT PUSH1 0x3F RETURNDATASIZE ADD AND DUP3 ADD PUSH1 0x40 MSTORE RETURNDATASIZE DUP3 MSTORE RETURNDATASIZE PUSH1 0x0 PUSH1 0x20 DUP5 ADD RETURNDATACOPY PUSH2 0x3218 JUMP JUMPDEST PUSH1 0x60 SWAP2 POP JUMPDEST POP SWAP2 POP SWAP2 POP DUP2 PUSH2 0x2156 JUMPI PUSH1 0x40 MLOAD PUSH32 0x8C379A000000000000000000000000000000000000000000000000000000000 DUP2 MSTORE PUSH1 0x20 PUSH1 0x4 DUP3 ADD MSTORE PUSH1 0xF PUSH1 0x24 DUP3 ADD MSTORE PUSH32 0x646563727970743A206661696C65640000000000000000000000000000000000 PUSH1 0x44 DUP3 ADD MSTORE PUSH1 0x64 ADD PUSH2 0xC6F JUMP JUMPDEST PUSH1 0x40 MLOAD DUP1 PUSH1 0xC0 ADD PUSH1 0x40 MSTORE DUP1 PUSH1 0x0 DUP2 MSTORE PUSH1 0x20 ADD PUSH1 0x0 DUP2 MSTORE PUSH1 0x20 ADD PUSH1 0x0 PUSH1 0x1 DUP2 GT ISZERO PUSH2 0x32B0 JUMPI PUSH2 0x32B0 PUSH2 0x33A4 JUMP JUMPDEST DUP2 MSTORE PUSH1 0x60 PUSH1 0x20 DUP3 ADD DUP2 SWAP1 MSTORE PUSH1 0x40 DUP3 ADD DUP2 SWAP1 MSTORE ADD PUSH1 0x0 SWAP1 MSTORE SWAP1 JUMP JUMPDEST PUSH1 0x40 MLOAD DUP1 PUSH2 0x180 ADD PUSH1 0x40 MSTORE DUP1 PUSH1 0xC SWAP1 PUSH1 0x20 DUP3 MUL DUP1 CALLDATASIZE DUP4 CALLDATACOPY POP SWAP2 SWAP3 SWAP2 POP POP JUMP JUMPDEST PUSH20 0xFFFFFFFFFFFFFFFFFFFFFFFFFFFFFFFFFFFFFFFF DUP2 AND DUP2 EQ PUSH2 0x330B JUMPI PUSH1 0x0 DUP1 REVERT JUMPDEST POP JUMP JUMPDEST PUSH1 0x0 PUSH1 0x20 DUP3 DUP5 SUB SLT ISZERO PUSH2 0x3320 JUMPI PUSH1 0x0 DUP1 REVERT JUMPDEST DUP2 CALLDATALOAD PUSH2 0x2ED7 DUP2 PUSH2 0x32E9 JUMP JUMPDEST PUSH1 0x0 DUP1 PUSH1 0x40 DUP4 DUP6 SUB SLT ISZERO PUSH2 0x333E JUMPI PUSH1 0x0 DUP1 REVERT JUMPDEST DUP3 CALLDATALOAD PUSH2 0x3349 DUP2 PUSH2 0x32E9 JUMP JUMPDEST SWAP5 PUSH1 0x20 SWAP4 SWAP1 SWAP4 ADD CALLDATALOAD SWAP4 POP POP POP JUMP JUMPDEST PUSH1 0x0 DUP1 PUSH1 0x40 DUP4 DUP6 SUB SLT ISZERO PUSH2 0x336A JUMPI PUSH1 0x0 DUP1 REVERT JUMPDEST DUP3 CALLDATALOAD SWAP2 POP PUSH1 0x20 DUP4 ADD CALLDATALOAD PUSH1 0x5 DUP2 LT PUSH2 0x3380 JUMPI PUSH1 0x0 DUP1 REVERT JUMPDEST DUP1 SWAP2 POP POP SWAP3 POP SWAP3 SWAP1 POP JUMP JUMPDEST PUSH1 0x0 PUSH1 0x20 DUP3 DUP5 SUB SLT ISZERO PUSH2 0x339D JUMPI PUSH1 0x0 DUP1 REVERT JUMPDEST POP CALLDATALOAD SWAP2 SWAP1 POP JUMP JUMPDEST PUSH32 0x4E487B7100000000000000000000000000000000000000000000000000000000 PUSH1 0x0 MSTORE PUSH1 0x21 PUSH1 0x4 MSTORE PUSH1 0x24 PUSH1 0x0 REVERT JUMPDEST PUSH1 0x2 DUP2 LT PUSH2 0x330B JUMPI PUSH2 0x330B PUSH2 0x33A4 JUMP JUMPDEST PUSH1 0x0 JUMPDEST DUP4 DUP2 LT ISZERO PUSH2 0x33FE JUMPI DUP2 DUP2 ADD MLOAD DUP4 DUP3 ADD MSTORE PUSH1 0x20 ADD PUSH2 0x33E6 JUMP JUMPDEST POP POP PUSH1 0x0 SWAP2 ADD MSTORE JUMP JUMPDEST PUSH1 0x0 DUP2 MLOAD DUP1 DUP5 MSTORE PUSH2 0x341F DUP2 PUSH1 0x20 DUP7 ADD PUSH1 0x20 DUP7 ADD PUSH2 0x33E3 JUMP JUMPDEST PUSH1 0x1F ADD PUSH32 0xFFFFFFFFFFFFFFFFFFFFFFFFFFFFFFFFFFFFFFFFFFFFFFFFFFFFFFFFFFFFFFE0 AND SWAP3 SWAP1 SWAP3 ADD PUSH1 0x20 ADD SWAP3 SWAP2 POP POP JUMP JUMPDEST PUSH1 0x3 DUP2 LT PUSH2 0x3461 JUMPI PUSH2 0x3461 PUSH2 0x33A4 JUMP JUMPDEST SWAP1 MSTORE JUMP JUMPDEST DUP7 DUP2 MSTORE DUP6 PUSH1 0x20 DUP3 ADD MSTORE PUSH2 0x3477 DUP6 PUSH2 0x33D3 JUMP JUMPDEST DUP5 PUSH1 0x40 DUP3 ADD MSTORE PUSH1 0xC0 PUSH1 0x60 DUP3 ADD MSTORE PUSH1 0x0 PUSH2 0x3493 PUSH1 0xC0 DUP4 ADD DUP7 PUSH2 0x3407 JUMP JUMPDEST DUP3 DUP2 SUB PUSH1 0x80 DUP5 ADD MSTORE PUSH2 0x34A5 DUP2 DUP7 PUSH2 0x3407 JUMP JUMPDEST SWAP2 POP POP PUSH2 0x34B5 PUSH1 0xA0 DUP4 ADD DUP5 PUSH2 0x3451 JUMP JUMPDEST SWAP8 SWAP7 POP POP POP POP POP POP POP JUMP JUMPDEST PUSH1 0x8 DUP2 LT PUSH2 0x3461 JUMPI PUSH2 0x3461 PUSH2 0x33A4 JUMP JUMPDEST PUSH1 0x5 DUP2 LT PUSH2 0x3461 JUMPI PUSH2 0x3461 PUSH2 0x33A4 JUMP JUMPDEST PUSH1 0x20 DUP2 MSTORE PUSH1 0x0 DUP3 MLOAD PUSH2 0x34F1 DUP2 PUSH2 0x33D3 JUMP JUMPDEST DUP1 PUSH1 0x20 DUP5 ADD MSTORE POP PUSH1 0x20 DUP4 ADD MLOAD PUSH1 0x40 DUP4 ADD MSTORE PUSH1 0x40 DUP4 ADD MLOAD PUSH1 0x60 DUP4 ADD MSTORE PUSH1 0x60 DUP4 ADD MLOAD PUSH1 0xC0 PUSH1 0x80 DUP5 ADD MSTORE PUSH2 0x3525 PUSH1 0xE0 DUP5 ADD DUP3 PUSH2 0x3407 JUMP JUMPDEST SWAP1 POP PUSH1 0x80 DUP5 ADD MLOAD PUSH2 0x3539 PUSH1 0xA0 DUP6 ADD DUP3 PUSH2 0x34C0 JUMP JUMPDEST POP PUSH1 0xA0 DUP5 ADD MLOAD PUSH2 0x1900 PUSH1 0xC0 DUP6 ADD DUP3 PUSH2 0x34D0 JUMP JUMPDEST DUP14 DUP2 MSTORE DUP13 PUSH1 0x20 DUP3 ADD MSTORE DUP12 PUSH1 0x40 DUP3 ADD MSTORE DUP11 PUSH1 0x60 DUP3 ADD MSTORE DUP10 PUSH1 0x80 DUP3 ADD MSTORE DUP9 PUSH1 0xA0 DUP3 ADD MSTORE DUP8 PUSH1 0xC0 DUP3 ADD MSTORE DUP7 PUSH1 0xE0 DUP3 ADD MSTORE DUP6 PUSH2 0x100 DUP3 ADD MSTORE DUP5 PUSH2 0x120 DUP3 ADD MSTORE DUP4 PUSH2 0x140 DUP3 ADD MSTORE PUSH2 0x359C PUSH2 0x160 DUP3 ADD DUP5 PUSH2 0x34C0 JUMP JUMPDEST PUSH2 0x1A0 PUSH2 0x180 DUP3 ADD MSTORE PUSH1 0x0 PUSH2 0x35B5 PUSH2 0x1A0 DUP4 ADD DUP5 PUSH2 0x3407 JUMP JUMPDEST SWAP16 SWAP15 POP POP POP POP POP POP POP POP POP POP POP POP POP POP POP JUMP JUMPDEST PUSH2 0x35D1 DUP8 PUSH2 0x33D3 JUMP JUMPDEST DUP7 DUP2 MSTORE DUP6 PUSH1 0x20 DUP3 ADD MSTORE DUP5 PUSH1 0x40 DUP3 ADD MSTORE PUSH1 0xC0 PUSH1 0x60 DUP3 ADD MSTORE PUSH1 0x0 PUSH2 0x35F6 PUSH1 0xC0 DUP4 ADD DUP7 PUSH2 0x3407 JUMP JUMPDEST SWAP1 POP PUSH2 0x3605 PUSH1 0x80 DUP4 ADD DUP6 PUSH2 0x34C0 JUMP JUMPDEST PUSH2 0x34B5 PUSH1 0xA0 DUP4 ADD DUP5 PUSH2 0x34D0 JUMP JUMPDEST PUSH1 0x2 DUP2 LT PUSH2 0x330B JUMPI PUSH1 0x0 DUP1 REVERT JUMPDEST PUSH32 0x4E487B7100000000000000000000000000000000000000000000000000000000 PUSH1 0x0 MSTORE PUSH1 0x41 PUSH1 0x4 MSTORE PUSH1 0x24 PUSH1 0x0 REVERT JUMPDEST PUSH1 0x40 MLOAD PUSH1 0xA0 DUP2 ADD PUSH8 0xFFFFFFFFFFFFFFFF DUP2 GT DUP3 DUP3 LT OR ISZERO PUSH2 0x3671 JUMPI PUSH2 0x3671 PUSH2 0x361F JUMP JUMPDEST PUSH1 0x40 MSTORE SWAP1 JUMP JUMPDEST PUSH1 0x40 MLOAD PUSH1 0x1F DUP3 ADD PUSH32 0xFFFFFFFFFFFFFFFFFFFFFFFFFFFFFFFFFFFFFFFFFFFFFFFFFFFFFFFFFFFFFFE0 AND DUP2 ADD PUSH8 0xFFFFFFFFFFFFFFFF DUP2 GT DUP3 DUP3 LT OR ISZERO PUSH2 0x36BE JUMPI PUSH2 0x36BE PUSH2 0x361F JUMP JUMPDEST PUSH1 0x40 MSTORE SWAP2 SWAP1 POP JUMP JUMPDEST PUSH1 0x0 PUSH8 0xFFFFFFFFFFFFFFFF DUP3 GT ISZERO PUSH2 0x36E0 JUMPI PUSH2 0x36E0 PUSH2 0x361F JUMP JUMPDEST POP PUSH1 0x1F ADD PUSH32 0xFFFFFFFFFFFFFFFFFFFFFFFFFFFFFFFFFFFFFFFFFFFFFFFFFFFFFFFFFFFFFFE0 AND PUSH1 0x20 ADD SWAP1 JUMP JUMPDEST PUSH1 0x0 PUSH2 0x371F PUSH2 0x371A DUP5 PUSH2 0x36C6 JUMP JUMPDEST PUSH2 0x3677 JUMP JUMPDEST SWAP1 POP DUP3 DUP2 MSTORE DUP4 DUP4 DUP4 ADD GT ISZERO PUSH2 0x3733 JUMPI PUSH1 0x0 DUP1 REVERT JUMPDEST DUP3 DUP3 PUSH1 0x20 DUP4 ADD CALLDATACOPY PUSH1 0x0 PUSH1 0x20 DUP5 DUP4 ADD ADD MSTORE SWAP4 SWAP3 POP POP POP JUMP JUMPDEST PUSH1 0x0 DUP3 PUSH1 0x1F DUP4 ADD SLT PUSH2 0x375B JUMPI PUSH1 0x0 DUP1 REVERT JUMPDEST PUSH2 0x2ED7 DUP4 DUP4 CALLDATALOAD PUSH1 0x20 DUP6 ADD PUSH2 0x370C JUMP JUMPDEST PUSH1 0x0 DUP1 PUSH1 0x0 DUP1 PUSH1 0x80 DUP6 DUP8 SUB SLT ISZERO PUSH2 0x3780 JUMPI PUSH1 0x0 DUP1 REVERT JUMPDEST DUP5 CALLDATALOAD PUSH8 0xFFFFFFFFFFFFFFFF DUP2 AND DUP2 EQ PUSH2 0x3798 JUMPI PUSH1 0x0 DUP1 REVERT JUMPDEST SWAP4 POP PUSH1 0x20 DUP6 ADD CALLDATALOAD PUSH2 0x37A8 DUP2 PUSH2 0x3612 JUMP JUMPDEST SWAP3 POP PUSH1 0x40 DUP6 ADD CALLDATALOAD PUSH8 0xFFFFFFFFFFFFFFFF DUP2 GT ISZERO PUSH2 0x37C4 JUMPI PUSH1 0x0 DUP1 REVERT JUMPDEST PUSH2 0x37D0 DUP8 DUP3 DUP9 ADD PUSH2 0x374A JUMP JUMPDEST SWAP3 POP POP PUSH1 0x60 DUP6 ADD CALLDATALOAD PUSH8 0xFFFFFFFFFFFFFFFF DUP2 GT ISZERO PUSH2 0x37ED JUMPI PUSH1 0x0 DUP1 REVERT JUMPDEST PUSH2 0x37F9 DUP8 DUP3 DUP9 ADD PUSH2 0x374A JUMP JUMPDEST SWAP2 POP POP SWAP3 SWAP6 SWAP2 SWAP5 POP SWAP3 POP JUMP JUMPDEST PUSH1 0x20 DUP2 MSTORE DUP2 MLOAD PUSH1 0x20 DUP3 ADD MSTORE PUSH1 0x20 DUP3 ADD MLOAD PUSH1 0x40 DUP3 ADD MSTORE PUSH1 0x40 DUP3 ADD MLOAD PUSH1 0x60 DUP3 ADD MSTORE PUSH1 0x60 DUP3 ADD MLOAD PUSH1 0x80 DUP3 ADD MSTORE PUSH1 0x80 DUP3 ADD MLOAD PUSH1 0xA0 DUP3 ADD MSTORE PUSH1 0xA0 DUP3 ADD MLOAD PUSH1 0xC0 DUP3 ADD MSTORE PUSH1 0xC0 DUP3 ADD MLOAD PUSH1 0xE0 DUP3 ADD MSTORE PUSH1 0xE0 DUP3 ADD MLOAD PUSH2 0x100 DUP3 ADD MSTORE PUSH2 0x100 DUP3 ADD MLOAD PUSH2 0x120 DUP3 ADD MSTORE PUSH2 0x120 DUP3 ADD MLOAD PUSH2 0x140 DUP3 ADD MSTORE PUSH2 0x140 DUP3 ADD MLOAD PUSH2 0x160 DUP3 ADD MSTORE PUSH1 0x0 PUSH2 0x160 DUP4 ADD MLOAD PUSH2 0x3891 PUSH2 0x180 DUP5 ADD DUP3 PUSH2 0x34C0 JUMP JUMPDEST POP PUSH2 0x180 DUP4 ADD MLOAD PUSH2 0x1A0 DUP1 DUP5 ADD MSTORE PUSH2 0x38AD PUSH2 0x1C0 DUP5 ADD DUP3 PUSH2 0x3407 JUMP JUMPDEST SWAP5 SWAP4 POP POP POP POP JUMP JUMPDEST PUSH1 0x0 PUSH8 0xFFFFFFFFFFFFFFFF DUP3 GT ISZERO PUSH2 0x38CF JUMPI PUSH2 0x38CF PUSH2 0x361F JUMP JUMPDEST POP PUSH1 0x5 SHL PUSH1 0x20 ADD SWAP1 JUMP JUMPDEST PUSH1 0x0 DUP3 PUSH1 0x1F DUP4 ADD SLT PUSH2 0x38EA JUMPI PUSH1 0x0 DUP1 REVERT JUMPDEST DUP2 CALLDATALOAD PUSH2 0x38F8 PUSH2 0x371A DUP3 PUSH2 0x38B5 JUMP JUMPDEST DUP1 DUP3 DUP3 MSTORE PUSH1 0x20 DUP3 ADD SWAP2 POP PUSH1 0x20 DUP4 PUSH1 0x5 SHL DUP7 ADD ADD SWAP3 POP DUP6 DUP4 GT ISZERO PUSH2 0x391A JUMPI PUSH1 0x0 DUP1 REVERT JUMPDEST PUSH1 0x20 DUP6 ADD JUMPDEST DUP4 DUP2 LT ISZERO PUSH2 0x3937 JUMPI DUP1 CALLDATALOAD DUP4 MSTORE PUSH1 0x20 SWAP3 DUP4 ADD SWAP3 ADD PUSH2 0x391F JUMP JUMPDEST POP SWAP6 SWAP5 POP POP POP POP POP JUMP JUMPDEST PUSH1 0x0 DUP1 PUSH1 0x0 DUP1 PUSH1 0x80 DUP6 DUP8 SUB SLT ISZERO PUSH2 0x3957 JUMPI PUSH1 0x0 DUP1 REVERT JUMPDEST DUP5 CALLDATALOAD PUSH2 0x3962 DUP2 PUSH2 0x3612 JUMP JUMPDEST SWAP4 POP PUSH1 0x20 DUP6 ADD CALLDATALOAD SWAP3 POP PUSH1 0x40 DUP6 ADD CALLDATALOAD PUSH8 0xFFFFFFFFFFFFFFFF DUP2 GT ISZERO PUSH2 0x3985 JUMPI PUSH1 0x0 DUP1 REVERT JUMPDEST PUSH2 0x3991 DUP8 DUP3 DUP9 ADD PUSH2 0x38D9 JUMP JUMPDEST SWAP3 POP POP PUSH1 0x60 DUP6 ADD CALLDATALOAD PUSH8 0xFFFFFFFFFFFFFFFF DUP2 GT ISZERO PUSH2 0x39AE JUMPI PUSH1 0x0 DUP1 REVERT JUMPDEST PUSH2 0x37F9 DUP8 DUP3 DUP9 ADD PUSH2 0x38D9 JUMP JUMPDEST PUSH1 0x0 DUP1 PUSH1 0x0 DUP4 DUP6 SUB PUSH1 0x80 DUP2 SLT ISZERO PUSH2 0x39D0 JUMPI PUSH1 0x0 DUP1 REVERT JUMPDEST DUP5 CALLDATALOAD PUSH8 0xFFFFFFFFFFFFFFFF DUP2 GT ISZERO PUSH2 0x39E7 JUMPI PUSH1 0x0 DUP1 REVERT JUMPDEST DUP6 ADD PUSH1 0x1F DUP2 ADD DUP8 SGT PUSH2 0x39F8 JUMPI PUSH1 0x0 DUP1 REVERT JUMPDEST DUP1 CALLDATALOAD PUSH8 0xFFFFFFFFFFFFFFFF DUP2 GT ISZERO PUSH2 0x3A0F JUMPI PUSH1 0x0 DUP1 REVERT JUMPDEST DUP8 PUSH1 0x20 DUP3 DUP5 ADD ADD GT ISZERO PUSH2 0x3A21 JUMPI PUSH1 0x0 DUP1 REVERT JUMPDEST PUSH1 0x20 SWAP2 SWAP1 SWAP2 ADD SWAP5 POP SWAP3 POP PUSH1 0x60 PUSH32 0xFFFFFFFFFFFFFFFFFFFFFFFFFFFFFFFFFFFFFFFFFFFFFFFFFFFFFFFFFFFFFFE0 DUP3 ADD SLT ISZERO PUSH2 0x3A5B JUMPI PUSH1 0x0 DUP1 REVERT JUMPDEST POP PUSH1 0x20 DUP5 ADD SWAP1 POP SWAP3 POP SWAP3 POP SWAP3 JUMP JUMPDEST PUSH1 0x20 DUP2 MSTORE PUSH1 0x0 PUSH2 0x2ED7 PUSH1 0x20 DUP4 ADD DUP5 PUSH2 0x3407 JUMP JUMPDEST PUSH1 0x0 PUSH1 0x20 DUP3 DUP5 SUB SLT ISZERO PUSH2 0x3A8E JUMPI PUSH1 0x0 DUP1 REVERT JUMPDEST DUP2 CALLDATALOAD PUSH8 0xFFFFFFFFFFFFFFFF DUP2 GT ISZERO PUSH2 0x3AA5 JUMPI PUSH1 0x0 DUP1 REVERT JUMPDEST DUP3 ADD PUSH1 0x1F DUP2 ADD DUP5 SGT PUSH2 0x3AB6 JUMPI PUSH1 0x0 DUP1 REVERT JUMPDEST PUSH2 0x38AD DUP5 DUP3 CALLDATALOAD PUSH1 0x20 DUP5 ADD PUSH2 0x370C JUMP JUMPDEST PUSH1 0x20 DUP1 DUP3 MSTORE DUP3 MLOAD DUP3 DUP3 ADD DUP2 SWAP1 MSTORE PUSH1 0x0 SWAP2 DUP5 ADD SWAP1 PUSH1 0x40 DUP5 ADD SWAP1 DUP4 JUMPDEST DUP2 DUP2 LT ISZERO PUSH2 0x3AFD JUMPI DUP4 MLOAD DUP4 MSTORE PUSH1 0x20 SWAP4 DUP5 ADD SWAP4 SWAP1 SWAP3 ADD SWAP2 PUSH1 0x1 ADD PUSH2 0x3ADF JUMP JUMPDEST POP SWAP1 SWAP6 SWAP5 POP POP POP POP POP JUMP JUMPDEST PUSH1 0x20 DUP2 MSTORE DUP2 MLOAD PUSH1 0x20 DUP3 ADD MSTORE PUSH1 0x20 DUP3 ADD MLOAD PUSH1 0x40 DUP3 ADD MSTORE PUSH1 0x0 PUSH1 0x40 DUP4 ADD MLOAD PUSH2 0x3B2D DUP2 PUSH2 0x33D3 JUMP JUMPDEST DUP1 PUSH1 0x60 DUP5 ADD MSTORE POP PUSH1 0x60 DUP4 ADD MLOAD PUSH1 0xC0 PUSH1 0x80 DUP5 ADD MSTORE PUSH2 0x3B4D PUSH1 0xE0 DUP5 ADD DUP3 PUSH2 0x3407 JUMP JUMPDEST SWAP1 POP PUSH1 0x80 DUP5 ADD MLOAD PUSH32 0xFFFFFFFFFFFFFFFFFFFFFFFFFFFFFFFFFFFFFFFFFFFFFFFFFFFFFFFFFFFFFFE0 DUP5 DUP4 SUB ADD PUSH1 0xA0 DUP6 ADD MSTORE PUSH2 0x3B88 DUP3 DUP3 PUSH2 0x3407 JUMP JUMPDEST SWAP2 POP POP PUSH1 0xA0 DUP5 ADD MLOAD PUSH2 0x1900 PUSH1 0xC0 DUP6 ADD DUP3 PUSH2 0x3451 JUMP JUMPDEST PUSH1 0x1 DUP2 DUP2 SHR SWAP1 DUP3 AND DUP1 PUSH2 0x3BB1 JUMPI PUSH1 0x7F DUP3 AND SWAP2 POP JUMPDEST PUSH1 0x20 DUP3 LT DUP2 SUB PUSH2 0x21DA JUMPI PUSH32 0x4E487B7100000000000000000000000000000000000000000000000000000000 PUSH1 0x0 MSTORE PUSH1 0x22 PUSH1 0x4 MSTORE PUSH1 0x24 PUSH1 0x0 REVERT JUMPDEST PUSH32 0x4E487B7100000000000000000000000000000000000000000000000000000000 PUSH1 0x0 MSTORE PUSH1 0x11 PUSH1 0x4 MSTORE PUSH1 0x24 PUSH1 0x0 REVERT JUMPDEST PUSH1 0x0 PUSH32 0xFFFFFFFFFFFFFFFFFFFFFFFFFFFFFFFFFFFFFFFFFFFFFFFFFFFFFFFFFFFFFFFF DUP3 SUB PUSH2 0x3C4A JUMPI PUSH2 0x3C4A PUSH2 0x3BEA JUMP JUMPDEST POP PUSH1 0x1 ADD SWAP1 JUMP JUMPDEST PUSH1 0x1F DUP3 GT ISZERO PUSH2 0x3C9B JUMPI DUP1 PUSH1 0x0 MSTORE PUSH1 0x20 PUSH1 0x0 KECCAK256 PUSH1 0x1F DUP5 ADD PUSH1 0x5 SHR DUP2 ADD PUSH1 0x20 DUP6 LT ISZERO PUSH2 0x3C78 JUMPI POP DUP1 JUMPDEST PUSH1 0x1F DUP5 ADD PUSH1 0x5 SHR DUP3 ADD SWAP2 POP JUMPDEST DUP2 DUP2 LT ISZERO PUSH2 0x3C98 JUMPI PUSH1 0x0 DUP2 SSTORE PUSH1 0x1 ADD PUSH2 0x3C84 JUMP JUMPDEST POP POP JUMPDEST POP POP POP JUMP JUMPDEST DUP2 MLOAD PUSH8 0xFFFFFFFFFFFFFFFF DUP2 GT ISZERO PUSH2 0x3CBA JUMPI PUSH2 0x3CBA PUSH2 0x361F JUMP JUMPDEST PUSH2 0x3CCE DUP2 PUSH2 0x3CC8 DUP5 SLOAD PUSH2 0x3B9D JUMP JUMPDEST DUP5 PUSH2 0x3C51 JUMP JUMPDEST PUSH1 0x20 PUSH1 0x1F DUP3 GT PUSH1 0x1 DUP2 EQ PUSH2 0x3D20 JUMPI PUSH1 0x0 DUP4 ISZERO PUSH2 0x3CEA JUMPI POP DUP5 DUP3 ADD MLOAD JUMPDEST PUSH32 0xFFFFFFFFFFFFFFFFFFFFFFFFFFFFFFFFFFFFFFFFFFFFFFFFFFFFFFFFFFFFFFFF PUSH1 0x3 DUP6 SWAP1 SHL SHR NOT AND PUSH1 0x1 DUP5 SWAP1 SHL OR DUP5 SSTORE PUSH2 0x3C98 JUMP JUMPDEST PUSH1 0x0 DUP5 DUP2 MSTORE PUSH1 0x20 DUP2 KECCAK256 PUSH32 0xFFFFFFFFFFFFFFFFFFFFFFFFFFFFFFFFFFFFFFFFFFFFFFFFFFFFFFFFFFFFFFE0 DUP6 AND SWAP2 JUMPDEST DUP3 DUP2 LT ISZERO PUSH2 0x3D6E JUMPI DUP8 DUP6 ADD MLOAD DUP3 SSTORE PUSH1 0x20 SWAP5 DUP6 ADD SWAP5 PUSH1 0x1 SWAP1 SWAP3 ADD SWAP2 ADD PUSH2 0x3D4E JUMP JUMPDEST POP DUP5 DUP3 LT ISZERO PUSH2 0x3DAA JUMPI DUP7 DUP5 ADD MLOAD PUSH32 0xFFFFFFFFFFFFFFFFFFFFFFFFFFFFFFFFFFFFFFFFFFFFFFFFFFFFFFFFFFFFFFFF PUSH1 0x3 DUP8 SWAP1 SHL PUSH1 0xF8 AND SHR NOT AND DUP2 SSTORE JUMPDEST POP POP POP POP PUSH1 0x1 SWAP1 DUP2 SHL ADD SWAP1 SSTORE POP JUMP JUMPDEST DUP1 DUP3 ADD DUP1 DUP3 GT ISZERO PUSH2 0x1FB6 JUMPI PUSH2 0x1FB6 PUSH2 0x3BEA JUMP JUMPDEST PUSH1 0x0 DUP2 MLOAD DUP1 DUP5 MSTORE PUSH1 0x20 DUP5 ADD SWAP4 POP PUSH1 0x20 DUP4 ADD PUSH1 0x0 JUMPDEST DUP3 DUP2 LT ISZERO PUSH2 0x3DFE JUMPI DUP2 MLOAD DUP7 MSTORE PUSH1 0x20 SWAP6 DUP7 ADD SWAP6 SWAP1 SWAP2 ADD SWAP1 PUSH1 0x1 ADD PUSH2 0x3DE0 JUMP JUMPDEST POP SWAP4 SWAP5 SWAP4 POP POP POP POP JUMP JUMPDEST DUP4 DUP2 MSTORE PUSH1 0x60 PUSH1 0x20 DUP3 ADD MSTORE PUSH1 0x0 PUSH2 0x3E21 PUSH1 0x60 DUP4 ADD DUP6 PUSH2 0x3DCC JUMP JUMPDEST DUP3 DUP2 SUB PUSH1 0x40 DUP5 ADD MSTORE PUSH2 0x2156 DUP2 DUP6 PUSH2 0x3DCC JUMP JUMPDEST PUSH32 0x19457468657265756D205369676E6564204D6573736167653A0A000000000000 DUP2 MSTORE PUSH1 0x0 DUP5 MLOAD PUSH2 0x3E6B DUP2 PUSH1 0x1A DUP6 ADD PUSH1 0x20 DUP10 ADD PUSH2 0x33E3 JUMP JUMPDEST DUP3 ADD DUP4 DUP6 PUSH1 0x1A DUP4 ADD CALLDATACOPY PUSH1 0x0 SWAP4 ADD PUSH1 0x1A ADD SWAP3 DUP4 MSTORE POP SWAP1 SWAP4 SWAP3 POP POP POP JUMP JUMPDEST PUSH1 0x0 DUP1 DUP4 SLOAD PUSH2 0x3E95 DUP2 PUSH2 0x3B9D JUMP JUMPDEST PUSH1 0x1 DUP3 AND DUP1 ISZERO PUSH2 0x3EAC JUMPI PUSH1 0x1 DUP2 EQ PUSH2 0x3EDF JUMPI PUSH2 0x3F0F JUMP JUMPDEST PUSH32 0xFFFFFFFFFFFFFFFFFFFFFFFFFFFFFFFFFFFFFFFFFFFFFFFFFFFFFFFFFFFFFF00 DUP4 AND DUP7 MSTORE DUP2 ISZERO ISZERO DUP3 MUL DUP7 ADD SWAP4 POP PUSH2 0x3F0F JUMP JUMPDEST DUP7 PUSH1 0x0 MSTORE PUSH1 0x20 PUSH1 0x0 KECCAK256 PUSH1 0x0 JUMPDEST DUP4 DUP2 LT ISZERO PUSH2 0x3F07 JUMPI DUP2 SLOAD DUP9 DUP3 ADD MSTORE PUSH1 0x1 SWAP1 SWAP2 ADD SWAP1 PUSH1 0x20 ADD PUSH2 0x3EEB JUMP JUMPDEST POP POP DUP2 DUP7 ADD SWAP4 POP JUMPDEST POP SWAP2 SWAP6 SWAP5 POP POP POP POP POP JUMP JUMPDEST PUSH32 0x4E487B7100000000000000000000000000000000000000000000000000000000 PUSH1 0x0 MSTORE PUSH1 0x32 PUSH1 0x4 MSTORE PUSH1 0x24 PUSH1 0x0 REVERT JUMPDEST PUSH1 0x20 DUP2 MSTORE PUSH1 0x0 DUP3 MLOAD PUSH1 0xA0 PUSH1 0x20 DUP5 ADD MSTORE PUSH2 0x3F65 PUSH1 0xC0 DUP5 ADD DUP3 PUSH2 0x3407 JUMP JUMPDEST SWAP1 POP PUSH20 0xFFFFFFFFFFFFFFFFFFFFFFFFFFFFFFFFFFFFFFFF PUSH1 0x20 DUP6 ADD MLOAD AND PUSH1 0x40 DUP5 ADD MSTORE PUSH1 0x40 DUP5 ADD MLOAD PUSH1 0x60 DUP5 ADD MSTORE PUSH1 0x60 DUP5 ADD MLOAD PUSH32 0xFFFFFFFFFFFFFFFFFFFFFFFFFFFFFFFFFFFFFFFFFFFFFFFFFFFFFFFFFFFFFFE0 DUP5 DUP4 SUB ADD PUSH1 0x80 DUP6 ADD MSTORE PUSH2 0x3FCA DUP3 DUP3 PUSH2 0x3407 JUMP JUMPDEST SWAP2 POP POP PUSH1 0x80 DUP5 ADD MLOAD PUSH32 0xFFFFFFFFFFFFFFFFFFFFFFFFFFFFFFFFFFFFFFFFFFFFFFFFFFFFFFFFFFFFFFE0 DUP5 DUP4 SUB ADD PUSH1 0xA0 DUP6 ADD MSTORE DUP2 DUP2 MLOAD DUP1 DUP5 MSTORE PUSH1 0x20 DUP5 ADD SWAP2 POP PUSH1 0x20 DUP2 PUSH1 0x5 SHL DUP6 ADD ADD PUSH1 0x20 DUP5 ADD SWAP4 POP PUSH1 0x0 JUMPDEST DUP3 DUP2 LT ISZERO PUSH2 0x4069 JUMPI PUSH32 0xFFFFFFFFFFFFFFFFFFFFFFFFFFFFFFFFFFFFFFFFFFFFFFFFFFFFFFFFFFFFFFE0 DUP7 DUP4 SUB ADD DUP5 MSTORE PUSH2 0x4054 DUP3 DUP7 MLOAD PUSH2 0x3407 JUMP JUMPDEST PUSH1 0x20 SWAP6 DUP7 ADD SWAP6 SWAP5 SWAP1 SWAP5 ADD SWAP4 SWAP2 POP PUSH1 0x1 ADD PUSH2 0x401A JUMP JUMPDEST POP SWAP8 SWAP7 POP POP POP POP POP POP POP JUMP JUMPDEST PUSH32 0x4E487B7100000000000000000000000000000000000000000000000000000000 PUSH1 0x0 MSTORE PUSH1 0x12 PUSH1 0x4 MSTORE PUSH1 0x24 PUSH1 0x0 REVERT JUMPDEST DUP5 DUP2 MSTORE DUP4 PUSH1 0x20 DUP3 ADD MSTORE PUSH1 0x80 PUSH1 0x40 DUP3 ADD MSTORE PUSH1 0x0 PUSH2 0x40C3 PUSH1 0x80 DUP4 ADD DUP6 PUSH2 0x3407 JUMP JUMPDEST DUP3 DUP2 SUB PUSH1 0x60 DUP5 ADD MSTORE PUSH2 0x34B5 DUP2 DUP6 PUSH2 0x3407 JUMP JUMPDEST PUSH1 0x0 DUP3 MLOAD PUSH2 0x40E7 DUP2 DUP5 PUSH1 0x20 DUP8 ADD PUSH2 0x33E3 JUMP JUMPDEST SWAP2 SWAP1 SWAP2 ADD SWAP3 SWAP2 POP POP JUMP JUMPDEST DUP2 DUP2 SUB DUP2 DUP2 GT ISZERO PUSH2 0x1FB6 JUMPI PUSH2 0x1FB6 PUSH2 0x3BEA JUMP JUMPDEST PUSH1 0x0 DUP3 PUSH2 0x4113 JUMPI PUSH2 0x4113 PUSH2 0x4075 JUMP JUMPDEST POP DIV SWAP1 JUMP JUMPDEST DUP1 DUP3 MUL DUP2 ISZERO DUP3 DUP3 DIV DUP5 EQ OR PUSH2 0x1FB6 JUMPI PUSH2 0x1FB6 PUSH2 0x3BEA JUMP JUMPDEST PUSH1 0xFF DUP2 DUP2 AND DUP4 DUP3 AND MUL SWAP1 DUP2 AND SWAP1 DUP2 DUP2 EQ PUSH2 0x281D JUMPI PUSH2 0x281D PUSH2 0x3BEA JUMP JUMPDEST PUSH1 0xFF DUP2 DUP2 AND DUP4 DUP3 AND ADD SWAP1 DUP2 GT ISZERO PUSH2 0x1FB6 JUMPI PUSH2 0x1FB6 PUSH2 0x3BEA JUMP JUMPDEST DUP1 MLOAD PUSH1 0x20 DUP3 ADD MLOAD PUSH32 0xFFFFFFFFFFFFFFFFFFFFFFFFFFFFFFFFFFFFFFFF000000000000000000000000 DUP2 AND SWAP2 SWAP1 PUSH1 0x14 DUP3 LT ISZERO PUSH2 0x41C9 JUMPI PUSH32 0xFFFFFFFFFFFFFFFFFFFFFFFFFFFFFFFFFFFFFFFF000000000000000000000000 DUP1 DUP4 PUSH1 0x14 SUB PUSH1 0x3 SHL SHL DUP3 AND AND SWAP3 POP JUMPDEST POP POP SWAP2 SWAP1 POP JUMP JUMPDEST PUSH1 0x0 DUP2 PUSH2 0x41DF JUMPI PUSH2 0x41DF PUSH2 0x3BEA JUMP JUMPDEST POP PUSH32 0xFFFFFFFFFFFFFFFFFFFFFFFFFFFFFFFFFFFFFFFFFFFFFFFFFFFFFFFFFFFFFFFF ADD SWAP1 JUMP JUMPDEST PUSH2 0xFFFF DUP3 DUP2 AND DUP3 DUP3 AND SUB SWAP1 DUP2 GT ISZERO PUSH2 0x1FB6 JUMPI PUSH2 0x1FB6 PUSH2 0x3BEA JUMP JUMPDEST PUSH4 0xFFFFFFFF DUP2 DUP2 AND DUP4 DUP3 AND MUL SWAP1 DUP2 AND SWAP1 DUP2 DUP2 EQ PUSH2 0x281D JUMPI PUSH2 0x281D PUSH2 0x3BEA JUMP JUMPDEST PUSH1 0xFF DUP3 DUP2 AND DUP3 DUP3 AND SUB SWAP1 DUP2 GT ISZERO PUSH2 0x1FB6 JUMPI PUSH2 0x1FB6 PUSH2 0x3BEA JUMP JUMPDEST PUSH2 0xFFFF DUP2 DUP2 AND DUP4 DUP3 AND MUL SWAP1 DUP2 AND SWAP1 DUP2 DUP2 EQ PUSH2 0x281D JUMPI PUSH2 0x281D PUSH2 0x3BEA JUMP JUMPDEST PUSH1 0x0 DUP3 PUSH1 0x1F DUP4 ADD SLT PUSH2 0x4285 JUMPI PUSH1 0x0 DUP1 REVERT JUMPDEST DUP2 MLOAD PUSH2 0x4293 PUSH2 0x371A DUP3 PUSH2 0x36C6 JUMP JUMPDEST DUP2 DUP2 MSTORE DUP5 PUSH1 0x20 DUP4 DUP7 ADD ADD GT ISZERO PUSH2 0x42A8 JUMPI PUSH1 0x0 DUP1 REVERT JUMPDEST PUSH2 0x38AD DUP3 PUSH1 0x20 DUP4 ADD PUSH1 0x20 DUP8 ADD PUSH2 0x33E3 JUMP JUMPDEST DUP1 MLOAD PUSH2 0x42C4 DUP2 PUSH2 0x32E9 JUMP JUMPDEST SWAP2 SWAP1 POP JUMP JUMPDEST PUSH1 0x0 DUP3 PUSH1 0x1F DUP4 ADD SLT PUSH2 0x42DA JUMPI PUSH1 0x0 DUP1 REVERT JUMPDEST DUP2 MLOAD PUSH2 0x42E8 PUSH2 0x371A DUP3 PUSH2 0x38B5 JUMP JUMPDEST DUP1 DUP3 DUP3 MSTORE PUSH1 0x20 DUP3 ADD SWAP2 POP PUSH1 0x20 DUP4 PUSH1 0x5 SHL DUP7 ADD ADD SWAP3 POP DUP6 DUP4 GT ISZERO PUSH2 0x430A JUMPI PUSH1 0x0 DUP1 REVERT JUMPDEST PUSH1 0x20 DUP6 ADD JUMPDEST DUP4 DUP2 LT ISZERO PUSH2 0x3937 JUMPI DUP1 MLOAD PUSH8 0xFFFFFFFFFFFFFFFF DUP2 GT ISZERO PUSH2 0x432E JUMPI PUSH1 0x0 DUP1 REVERT JUMPDEST PUSH2 0x433D DUP9 PUSH1 0x20 DUP4 DUP11 ADD ADD PUSH2 0x4274 JUMP JUMPDEST DUP5 MSTORE POP PUSH1 0x20 SWAP3 DUP4 ADD SWAP3 ADD PUSH2 0x430F JUMP JUMPDEST PUSH1 0x0 PUSH1 0x20 DUP3 DUP5 SUB SLT ISZERO PUSH2 0x435E JUMPI PUSH1 0x0 DUP1 REVERT JUMPDEST DUP2 MLOAD PUSH8 0xFFFFFFFFFFFFFFFF DUP2 GT ISZERO PUSH2 0x4375 JUMPI PUSH1 0x0 DUP1 REVERT JUMPDEST DUP3 ADD PUSH1 0xA0 DUP2 DUP6 SUB SLT ISZERO PUSH2 0x4387 JUMPI PUSH1 0x0 DUP1 REVERT JUMPDEST PUSH2 0x438F PUSH2 0x364E JUMP JUMPDEST DUP2 MLOAD PUSH8 0xFFFFFFFFFFFFFFFF DUP2 GT ISZERO PUSH2 0x43A6 JUMPI PUSH1 0x0 DUP1 REVERT JUMPDEST PUSH2 0x43B2 DUP7 DUP3 DUP6 ADD PUSH2 0x4274 JUMP JUMPDEST DUP3 MSTORE POP PUSH2 0x43C1 PUSH1 0x20 DUP4 ADD PUSH2 0x42B9 JUMP JUMPDEST PUSH1 0x20 DUP3 ADD MSTORE PUSH1 0x40 DUP3 DUP2 ADD MLOAD SWAP1 DUP3 ADD MSTORE PUSH1 0x60 DUP3 ADD MLOAD PUSH8 0xFFFFFFFFFFFFFFFF DUP2 GT ISZERO PUSH2 0x43EA JUMPI PUSH1 0x0 DUP1 REVERT JUMPDEST PUSH2 0x43F6 DUP7 DUP3 DUP6 ADD PUSH2 0x4274 JUMP JUMPDEST PUSH1 0x60 DUP4 ADD MSTORE POP PUSH1 0x80 DUP3 ADD MLOAD PUSH8 0xFFFFFFFFFFFFFFFF DUP2 GT ISZERO PUSH2 0x4416 JUMPI PUSH1 0x0 DUP1 REVERT JUMPDEST PUSH2 0x4422 DUP7 DUP3 DUP6 ADD PUSH2 0x42C9 JUMP JUMPDEST PUSH1 0x80 DUP4 ADD MSTORE POP SWAP5 SWAP4 POP POP POP POP JUMP JUMPDEST PUSH1 0x0 PUSH2 0xFFFF DUP4 AND DUP1 PUSH2 0x4444 JUMPI PUSH2 0x4444 PUSH2 0x4075 JUMP JUMPDEST DUP1 PUSH2 0xFFFF DUP5 AND MOD SWAP2 POP POP SWAP3 SWAP2 POP POP JUMP INVALID LOG2 PUSH5 0x6970667358 0x22 SLT KECCAK256 SELFBALANCE PUSH29 0x58120A1FB63CC89E40CDD1B3A06E0CC2F08879A834B1E6C4B38225D2F 0x29 PUSH5 0x736F6C6343 STOP ADDMOD SHR STOP CALLER "},"methodIdentifiers":{"addMarketplace(uint64,uint8,string,string)":"58dee054","betSlips(uint256)":"5023a0c9","domain()":"c2fb26a6","getBetSlip(uint256)":"32d268a5","getMarketplace(uint256)":"f53aac2a","getProxiedBet(uint256)":"60644d9c","getUserActiveBetslips()":"b76ebb56","getUserActiveBetslips(bytes)":"daee6fbc","getUserBalance()":"b7013dc1","getUserBalance(bytes)":"9f88151e","getUserClosedBets()":"d69418f3","getUserClosedBets(bytes)":"d1d758cb","login(string,(bytes32,bytes32,uint256))":"7f476b6f","marketIdMapping(uint256)":"8e3ef384","marketplaces(uint256)":"2b64deec","placeBet(uint8,uint256,bytes32[],bytes32[])":"76334f79","proxiedBets(uint256)":"4ffc1a00","updateBetSlipStatus(uint256,uint8)":"2a6d3e9b","userActiveBetSlips(address,uint256)":"3074eebc","userBalances(address)":"26224c64","userClosedBetSlips(address,uint256)":"29ec9442"}}}}}