{"contracts/polybet.sol":{"PolyBet":{"abi":[{"inputs":[],"stateMutability":"nonpayable","type":"constructor"},{"inputs":[],"name":"A13e_RevokedAuthToken","type":"error"},{"inputs":[],"name":"RoflOriginNotAuthorizedForApp","type":"error"},{"inputs":[],"name":"SiweAuth_AddressMismatch","type":"error"},{"inputs":[],"name":"SiweAuth_ChainIdMismatch","type":"error"},{"inputs":[],"name":"SiweAuth_DomainMismatch","type":"error"},{"inputs":[],"name":"SiweAuth_Expired","type":"error"},{"inputs":[],"name":"SiweAuth_NotBeforeInFuture","type":"error"},{"inputs":[],"name":"SiweParser_InvalidAddressLength","type":"error"},{"inputs":[],"name":"SiweParser_InvalidNonce","type":"error"},{"inputs":[],"name":"SubcallError","type":"error"},{"anonymous":false,"inputs":[{"indexed":true,"internalType":"uint256","name":"betId","type":"uint256"},{"indexed":false,"internalType":"uint256","name":"totalCollateralAmount","type":"uint256"},{"indexed":false,"internalType":"uint256","name":"outcomeIndex","type":"uint256"},{"indexed":false,"internalType":"bytes32[]","name":"marketplaceIds","type":"bytes32[]"},{"indexed":false,"internalType":"bytes32[]","name":"marketIds","type":"bytes32[]"}],"name":"BetSlipCreated","type":"event"},{"anonymous":false,"inputs":[{"indexed":true,"internalType":"address","name":"previousOwner","type":"address"},{"indexed":true,"internalType":"address","name":"newOwner","type":"address"}],"name":"OwnershipTransferred","type":"event"},{"anonymous":false,"inputs":[{"indexed":true,"internalType":"bytes32","name":"betId","type":"bytes32"}],"name":"ProxyBetSellingStateUpdate","type":"event"},{"inputs":[{"internalType":"uint64","name":"chainId","type":"uint64"},{"internalType":"enum PolyBet.ChainFamily","name":"family","type":"uint8"},{"internalType":"string","name":"name","type":"string"},{"internalType":"string","name":"marketplaceProxy","type":"string"}],"name":"addMarketplace","outputs":[],"stateMutability":"nonpayable","type":"function"},{"inputs":[{"internalType":"uint256","name":"","type":"uint256"}],"name":"betSlips","outputs":[{"internalType":"enum PolyBet.BetSlipStrategy","name":"strategy","type":"uint8"},{"internalType":"uint256","name":"initialCollateral","type":"uint256"},{"internalType":"uint256","name":"finalCollateral","type":"uint256"},{"internalType":"uint256","name":"outcomeIndex","type":"uint256"},{"internalType":"enum PolyBet.BetSlipStatus","name":"status","type":"uint8"},{"internalType":"string","name":"failureReason","type":"string"}],"stateMutability":"view","type":"function"},{"inputs":[],"name":"domain","outputs":[{"internalType":"string","name":"","type":"string"}],"stateMutability":"view","type":"function"},{"inputs":[{"internalType":"uint256","name":"betSlipId","type":"uint256"}],"name":"getBetSlip","outputs":[{"components":[{"internalType":"enum PolyBet.BetSlipStrategy","name":"strategy","type":"uint8"},{"internalType":"uint256","name":"initialCollateral","type":"uint256"},{"internalType":"uint256","name":"finalCollateral","type":"uint256"},{"internalType":"uint256","name":"outcomeIndex","type":"uint256"},{"internalType":"enum PolyBet.BetSlipStatus","name":"status","type":"uint8"},{"internalType":"string","name":"failureReason","type":"string"},{"internalType":"bytes32[]","name":"marketplaceIds","type":"bytes32[]"},{"internalType":"bytes32[]","name":"marketIds","type":"bytes32[]"},{"internalType":"bytes32[]","name":"proxiedBets","type":"bytes32[]"}],"internalType":"struct PolyBet.BetSlip","name":"","type":"tuple"}],"stateMutability":"view","type":"function"},{"inputs":[{"internalType":"uint256","name":"marketplaceId","type":"uint256"}],"name":"getMarketplace","outputs":[{"components":[{"internalType":"uint256","name":"warpRouterId","type":"uint256"},{"internalType":"uint256","name":"chainId","type":"uint256"},{"internalType":"enum PolyBet.ChainFamily","name":"chainFamily","type":"uint8"},{"internalType":"string","name":"name","type":"string"},{"internalType":"string","name":"marketplaceProxy","type":"string"},{"internalType":"enum PolyBet.PricingStrategy","name":"pricingStrategy","type":"uint8"}],"internalType":"struct PolyBet.Marketplace","name":"","type":"tuple"}],"stateMutability":"view","type":"function"},{"inputs":[{"internalType":"bytes32","name":"betId","type":"bytes32"}],"name":"getProxiedBet","outputs":[{"components":[{"internalType":"bytes32","name":"id","type":"bytes32"},{"internalType":"uint256","name":"betSlipId","type":"uint256"},{"internalType":"uint256","name":"marketplaceId","type":"uint256"},{"internalType":"uint256","name":"marketId","type":"uint256"},{"internalType":"uint256","name":"optionIndex","type":"uint256"},{"internalType":"uint256","name":"minimumShares","type":"uint256"},{"internalType":"uint256","name":"blockTimestamp","type":"uint256"},{"internalType":"uint256","name":"originalCollateralAmount","type":"uint256"},{"internalType":"uint256","name":"finalCollateralAmount","type":"uint256"},{"internalType":"uint256","name":"sharesBought","type":"uint256"},{"internalType":"uint256","name":"sharesSold","type":"uint256"},{"internalType":"enum PolyBet.BetOutcome","name":"outcome","type":"uint8"},{"internalType":"string","name":"failureReason","type":"string"}],"internalType":"struct PolyBet.ProxiedBet","name":"","type":"tuple"}],"stateMutability":"view","type":"function"},{"inputs":[],"name":"getUserActiveBetslips","outputs":[{"internalType":"uint256[]","name":"","type":"uint256[]"}],"stateMutability":"view","type":"function"},{"inputs":[{"internalType":"bytes","name":"authToken","type":"bytes"}],"name":"getUserActiveBetslips","outputs":[{"internalType":"uint256[]","name":"","type":"uint256[]"}],"stateMutability":"view","type":"function"},{"inputs":[{"internalType":"bytes","name":"authToken","type":"bytes"}],"name":"getUserBalance","outputs":[{"internalType":"uint256","name":"","type":"uint256"}],"stateMutability":"view","type":"function"},{"inputs":[],"name":"getUserBalance","outputs":[{"internalType":"uint256","name":"","type":"uint256"}],"stateMutability":"view","type":"function"},{"inputs":[{"internalType":"bytes","name":"authToken","type":"bytes"}],"name":"getUserClosedBets","outputs":[{"internalType":"uint256[]","name":"","type":"uint256[]"}],"stateMutability":"view","type":"function"},{"inputs":[],"name":"getUserClosedBets","outputs":[{"internalType":"uint256[]","name":"","type":"uint256[]"}],"stateMutability":"view","type":"function"},{"inputs":[{"internalType":"bytes32","name":"proxiedBetId","type":"bytes32"}],"name":"initiateSellProxiedBets","outputs":[],"stateMutability":"nonpayable","type":"function"},{"inputs":[{"internalType":"string","name":"siweMsg","type":"string"},{"components":[{"internalType":"bytes32","name":"r","type":"bytes32"},{"internalType":"bytes32","name":"s","type":"bytes32"},{"internalType":"uint256","name":"v","type":"uint256"}],"internalType":"struct SignatureRSV","name":"sig","type":"tuple"}],"name":"login","outputs":[{"internalType":"bytes","name":"","type":"bytes"}],"stateMutability":"view","type":"function"},{"inputs":[{"internalType":"uint256","name":"","type":"uint256"}],"name":"marketplaces","outputs":[{"internalType":"uint256","name":"warpRouterId","type":"uint256"},{"internalType":"uint256","name":"chainId","type":"uint256"},{"internalType":"enum PolyBet.ChainFamily","name":"chainFamily","type":"uint8"},{"internalType":"string","name":"name","type":"string"},{"internalType":"string","name":"marketplaceProxy","type":"string"},{"internalType":"enum PolyBet.PricingStrategy","name":"pricingStrategy","type":"uint8"}],"stateMutability":"view","type":"function"},{"inputs":[],"name":"musdcToken","outputs":[{"internalType":"contract IERC20","name":"","type":"address"}],"stateMutability":"view","type":"function"},{"inputs":[],"name":"owner","outputs":[{"internalType":"address","name":"","type":"address"}],"stateMutability":"view","type":"function"},{"inputs":[{"internalType":"enum PolyBet.BetSlipStrategy","name":"strategy","type":"uint8"},{"internalType":"uint256","name":"totalCollateralAmount","type":"uint256"},{"internalType":"uint256","name":"outcomeIndex","type":"uint256"},{"internalType":"bytes32[]","name":"marketplaceIds","type":"bytes32[]"},{"internalType":"bytes32[]","name":"marketIds","type":"bytes32[]"}],"name":"placeBet","outputs":[],"stateMutability":"nonpayable","type":"function"},{"inputs":[{"internalType":"bytes32","name":"","type":"bytes32"}],"name":"proxiedBets","outputs":[{"internalType":"bytes32","name":"id","type":"bytes32"},{"internalType":"uint256","name":"betSlipId","type":"uint256"},{"internalType":"uint256","name":"marketplaceId","type":"uint256"},{"internalType":"uint256","name":"marketId","type":"uint256"},{"internalType":"uint256","name":"optionIndex","type":"uint256"},{"internalType":"uint256","name":"minimumShares","type":"uint256"},{"internalType":"uint256","name":"blockTimestamp","type":"uint256"},{"internalType":"uint256","name":"originalCollateralAmount","type":"uint256"},{"internalType":"uint256","name":"finalCollateralAmount","type":"uint256"},{"internalType":"uint256","name":"sharesBought","type":"uint256"},{"internalType":"uint256","name":"sharesSold","type":"uint256"},{"internalType":"enum PolyBet.BetOutcome","name":"outcome","type":"uint8"},{"internalType":"string","name":"failureReason","type":"string"}],"stateMutability":"view","type":"function"},{"inputs":[{"internalType":"bytes32","name":"proxiedBetId","type":"bytes32"},{"internalType":"enum PolyBet.BetOutcome","name":"outcome","type":"uint8"},{"internalType":"uint256","name":"winningsCollateralValue","type":"uint256"}],"name":"recordProxiedBetClosed","outputs":[],"stateMutability":"nonpayable","type":"function"},{"inputs":[{"internalType":"uint256","name":"betSlipId","type":"uint256"},{"components":[{"internalType":"bytes32","name":"id","type":"bytes32"},{"internalType":"uint256","name":"betSlipId","type":"uint256"},{"internalType":"uint256","name":"marketplaceId","type":"uint256"},{"internalType":"uint256","name":"marketId","type":"uint256"},{"internalType":"uint256","name":"optionIndex","type":"uint256"},{"internalType":"uint256","name":"minimumShares","type":"uint256"},{"internalType":"uint256","name":"blockTimestamp","type":"uint256"},{"internalType":"uint256","name":"originalCollateralAmount","type":"uint256"},{"internalType":"uint256","name":"finalCollateralAmount","type":"uint256"},{"internalType":"uint256","name":"sharesBought","type":"uint256"},{"internalType":"uint256","name":"sharesSold","type":"uint256"},{"internalType":"enum PolyBet.BetOutcome","name":"outcome","type":"uint8"},{"internalType":"string","name":"failureReason","type":"string"}],"internalType":"struct PolyBet.ProxiedBet","name":"proxiedBet","type":"tuple"}],"name":"recordProxiedBetPlaced","outputs":[],"stateMutability":"nonpayable","type":"function"},{"inputs":[{"internalType":"bytes32","name":"proxiedBetId","type":"bytes32"},{"internalType":"uint256","name":"sharesSold","type":"uint256"},{"internalType":"uint256","name":"sharesSoldCollateralValue","type":"uint256"}],"name":"recordProxiedBetSold","outputs":[],"stateMutability":"nonpayable","type":"function"},{"inputs":[],"name":"renounceOwnership","outputs":[],"stateMutability":"nonpayable","type":"function"},{"inputs":[],"name":"roflAppId","outputs":[{"internalType":"bytes21","name":"","type":"bytes21"}],"stateMutability":"view","type":"function"},{"inputs":[{"internalType":"address","name":"_musdcToken","type":"address"}],"name":"setCollateralToken","outputs":[],"stateMutability":"nonpayable","type":"function"},{"inputs":[{"internalType":"bytes21","name":"appId","type":"bytes21"}],"name":"setRoflAppId","outputs":[],"stateMutability":"nonpayable","type":"function"},{"inputs":[{"internalType":"address","name":"newOwner","type":"address"}],"name":"transferOwnership","outputs":[],"stateMutability":"nonpayable","type":"function"},{"inputs":[{"internalType":"uint256","name":"betSlipId","type":"uint256"},{"internalType":"enum PolyBet.BetSlipStatus","name":"status","type":"uint8"}],"name":"updateBetSlipStatus","outputs":[],"stateMutability":"nonpayable","type":"function"},{"inputs":[{"internalType":"address","name":"","type":"address"},{"internalType":"uint256","name":"","type":"uint256"}],"name":"userActiveBetSlips","outputs":[{"internalType":"uint256","name":"","type":"uint256"}],"stateMutability":"view","type":"function"},{"inputs":[{"internalType":"address","name":"","type":"address"},{"internalType":"uint256","name":"","type":"uint256"}],"name":"userClosedBetSlips","outputs":[{"internalType":"uint256","name":"","type":"uint256"}],"stateMutability":"view","type":"function"},{"inputs":[{"internalType":"uint256","name":"amount","type":"uint256"}],"name":"withdrawWinnings","outputs":[],"stateMutability":"nonpayable","type":"function"}],"evm":{"bytecode":{"linkReferences":{},"object":"608060405234801561001057600080fd5b5060405180604001604052806007815260200166141bdb1e50995d60ca1b81525061005160206040518060200160405280600081525061007a60201b60201c565b61005a906101ba565b6002556001610069828261027a565b50610075905033610168565b6103b2565b60606000807301000000000000000000000000000000000000016001600160a01b031685856040516020016100b092919061035c565b60408051601f19818403018152908290526100ca91610396565b600060405180830381855afa9150503d8060008114610105576040519150601f19603f3d011682016040523d82523d6000602084013e61010a565b606091505b5091509150816101605760405162461bcd60e51b815260206004820152601360248201527f72616e646f6d42797465733a206661696c656400000000000000000000000000604482015260640160405180910390fd5b949350505050565b600380546001600160a01b038381166001600160a01b0319831681179093556040519116919082907f8be0079c531659141344cd1fd0a4f28419497f9722a3daafe3b4186f6b6457e090600090a35050565b805160208083015191908110156101db576000198160200360031b1b821691505b50919050565b634e487b7160e01b600052604160045260246000fd5b600181811c9082168061020b57607f821691505b6020821081036101db57634e487b7160e01b600052602260045260246000fd5b601f82111561027557806000526020600020601f840160051c810160208510156102525750805b601f840160051c820191505b81811015610272576000815560010161025e565b50505b505050565b81516001600160401b03811115610293576102936101e1565b6102a7816102a184546101f7565b8461022b565b6020601f8211600181146102db57600083156102c35750848201515b600019600385901b1c1916600184901b178455610272565b600084815260208120601f198516915b8281101561030b57878501518255602094850194600190920191016102eb565b50848210156103295786840151600019600387901b60f8161c191681555b50505050600190811b01905550565b60005b8381101561035357818101518382015260200161033b565b50506000910152565b8281526040602082015260008251806040840152610381816060850160208701610338565b601f01601f1916919091016060019392505050565b600082516103a8818460208701610338565b9190910192915050565b6153b8806103c16000396000f3fe608060405234801561001057600080fd5b50600436106101e55760003560e01c80637f476b6f1161010f578063c2fb26a6116100a2578063e75a88a011610071578063e75a88a01461045a578063f1b9ea171461046d578063f2fde38b1461048d578063f53aac2a146104a057600080fd5b8063c2fb26a614610424578063d1d758cb1461042c578063d69418f31461043f578063daee6fbc1461044757600080fd5b80639f88151e116100de5780639f88151e146103e1578063a935ee0e146103f4578063b7013dc114610407578063b76ebb561461040f57600080fd5b80637f476b6f146103715780638da5cb5b146103915780638e032241146103a2578063974d4ed8146103b557600080fd5b80632e5abd7b1161018757806358dee0541161015657806358dee05414610330578063666181a914610343578063715018a6146103565780637d5559d91461035e57600080fd5b80632e5abd7b146102c55780633074eebc146102d857806332d268a5146102eb5780635023a0c91461030b57600080fd5b8063212e94c9116101c3578063212e94c91461025957806329ec94421461026c5780632a6d3e9b1461028d5780632b64deec146102a057600080fd5b806314794702146101ea57806315534b70146101ff578063181031b11461022f575b600080fd5b6101fd6101f8366004614187565b6104c0565b005b600454610212906001600160a01b031681565b6040516001600160a01b0390911681526020015b60405180910390f35b60055461023c9060581b81565b6040516affffffffffffffffffffff199091168152602001610226565b6101fd6102673660046141b4565b6105b2565b61027f61027a3660046141ff565b610732565b604051908152602001610226565b6101fd61029b36600461422b565b610763565b6102b36102ae366004614187565b6107b2565b604051610226969594939291906142e9565b6101fd6102d3366004614339565b610915565b61027f6102e63660046141ff565b610a4d565b6102fe6102f9366004614187565b610a69565b60405161022691906143ba565b61031e610319366004614187565b610cbe565b6040516102269695949392919061447f565b6101fd61033e366004614609565b610d99565b6101fd610351366004614697565b610e95565b6101fd610f22565b6101fd61036c3660046146b4565b610f36565b61038461037f3660046147b8565b61106a565b6040516102269190614849565b6003546001600160a01b0316610212565b6101fd6103b0366004614187565b6113eb565b6103c86103c3366004614187565b6114ae565b6040516102269d9c9b9a9998979695949392919061486c565b61027f6103ef3660046148e8565b6115a9565b6101fd610402366004614931565b6115d4565b61027f611610565b610417611673565b604051610226919061495f565b610384611721565b61041761043a3660046148e8565b6117aa565b610417611826565b6104176104553660046148e8565b6118d2565b6101fd610468366004614a2e565b61194c565b61048061047b366004614187565b611d16565b6040516102269190614abd565b6101fd61049b366004614697565b611e74565b6104b36104ae366004614187565b611f01565b6040516102269190614b65565b600081116105155760405162461bcd60e51b815260206004820152601d60248201527f616d6f756e74206d7573742062652067726561746572207468616e203000000060448201526064015b60405180910390fd5b336000908152600c60205260409020548111156105745760405162461bcd60e51b815260206004820152601460248201527f696e73756666696369656e742062616c616e6365000000000000000000000000604482015260640161050c565b336000908152600c602052604081208054839290610593908490614bf2565b90915550506004546105af906001600160a01b031633836120de565b50565b6105ba612187565b60008260088111156105ce576105ce61425f565b141580156105ee575060048260088111156105eb576105eb61425f565b14155b61063a5760405162461bcd60e51b815260206004820152601e60248201527f6f7574636f6d652063616e6e6f74206265206e6f6e65206f7220736f6c640000604482015260640161050c565b60016000848152600d60205260409020600b015460ff1660088111156106625761066261425f565b146106af5760405162461bcd60e51b815260206004820152601a60248201527f696e76616c6964206f7574636f6d65207472616e736974696f6e000000000000604482015260640161050c565b60055460581b6affffffffffffffffffffff1916156106d7576005546106d79060581b6121e1565b6000838152600d60205260409020600b01805483919060ff191660018360088111156107055761070561425f565b021790555060008060006107198685612320565b92509250925061072a8383836123e8565b505050505050565b600b602052816000526040600020818154811061074e57600080fd5b90600052602060002001600091509150505481565b806008838154811061077757610777614c05565b906000526020600020906009020160040160006101000a81548160ff021916908360048111156107a9576107a961425f565b02179055505050565b600781815481106107c257600080fd5b60009182526020909120600690910201805460018201546002830154600384018054939550919360ff909116929091906107fb90614c1b565b80601f016020809104026020016040519081016040528092919081815260200182805461082790614c1b565b80156108745780601f1061084957610100808354040283529160200191610874565b820191906000526020600020905b81548152906001019060200180831161085757829003601f168201915b50505050509080600401805461088990614c1b565b80601f01602080910402602001604051908101604052809291908181526020018280546108b590614c1b565b80156109025780601f106108d757610100808354040283529160200191610902565b820191906000526020600020905b8154815290600101906020018083116108e557829003601f168201915b5050506005909301549192505060ff1686565b61091d612187565b60055460581b6affffffffffffffffffffff191615610945576005546109459060581b6121e1565b6000838152600d60205260408120600a018054849290610966908490614c4f565b90915550506000838152600d60205260409020600a81015460099091015410156109f85760405162461bcd60e51b815260206004820152602360248201527f63616e6e6f742073656c6c206d6f726520736861726573207468616e20626f7560448201527f6768740000000000000000000000000000000000000000000000000000000000606482015260840161050c565b6000838152600d60205260409020600a81015460099091015403610a3e576000838152600d60205260408120600b01805460ff1916600417905580806107198685612320565b61072a8382612320565b505050565b600a602052816000526040600020818154811061074e57600080fd5b610a71613fe8565b60088281548110610a8457610a84614c05565b600091825260209091206040805161012081019091526009909202018054829060ff166001811115610ab857610ab861425f565b6001811115610ac957610ac961425f565b815260018201546020820152600282015460408201526003820154606082015260048083015460809092019160ff1690811115610b0857610b0861425f565b6004811115610b1957610b1961425f565b8152602001600582018054610b2d90614c1b565b80601f0160208091040260200160405190810160405280929190818152602001828054610b5990614c1b565b8015610ba65780601f10610b7b57610100808354040283529160200191610ba6565b820191906000526020600020905b815481529060010190602001808311610b8957829003601f168201915b5050505050815260200160068201805480602002602001604051908101604052809291908181526020018280548015610bfe57602002820191906000526020600020905b815481526020019060010190808311610bea575b5050505050815260200160078201805480602002602001604051908101604052809291908181526020018280548015610c5657602002820191906000526020600020905b815481526020019060010190808311610c42575b5050505050815260200160088201805480602002602001604051908101604052809291908181526020018280548015610cae57602002820191906000526020600020905b815481526020019060010190808311610c9a575b5050505050815250509050919050565b60088181548110610cce57600080fd5b600091825260209091206009909102018054600182015460028301546003840154600485015460058601805460ff9687169850949693959294929091169291610d1690614c1b565b80601f0160208091040260200160405190810160405280929190818152602001828054610d4290614c1b565b8015610d8f5780601f10610d6457610100808354040283529160200191610d8f565b820191906000526020600020905b815481529060010190602001808311610d7257829003601f168201915b5050505050905086565b60076040518060c00160405280600081526020018667ffffffffffffffff168152602001856001811115610dcf57610dcf61425f565b81526020810185905260408101849052606001600290528154600181810184556000938452602093849020835160069093020191825592820151818401556040820151600282018054939492939192909160ff1916908381811115610e3657610e3661425f565b021790555060608201516003820190610e4f9082614ca9565b5060808201516004820190610e649082614ca9565b5060a082015160058201805460ff19166001836002811115610e8857610e8861425f565b0217905550505050505050565b610e9d612187565b6001600160a01b038116610ef35760405162461bcd60e51b815260206004820152601b60248201527f696e76616c6964204d5553444320746f6b656e20616464726573730000000000604482015260640161050c565b6004805473ffffffffffffffffffffffffffffffffffffffff19166001600160a01b0392909216919091179055565b610f2a612187565b610f346000612541565b565b610f3e612187565b60055460581b6affffffffffffffffffffff191615610f6657600554610f669060581b6121e1565b60088281548110610f7957610f79614c05565b600091825260208083208451600860099485029092018201805460018181018355918752848720019190915585518552600d8352604094859020865181559286015183820155938501516002830155606085015160038301556080850151600483015560a0850151600583015560c0850151600683015560e085015160078301556101008501518282015561012085015192820192909255610140840151600a820155610160840151600b82018054869593949293919260ff19909116919084908111156110495761104961425f565b0217905550610180820151600c8201906110639082614ca9565b5050505050565b60606110a76040518060a001604052806060815260200160006001600160a01b031681526020016000815260200160608152602001606081525090565b60006110b2856125a0565b86866040516020016110c693929190614d68565b60408051601f19818403018152828252805160208083019190912060008086528583018086529190915260ff89850135169385019390935287356060850152870135608084015292509060019060a0016020604051602081039080840390855afa158015611138573d6000803e3d6000fd5b5050604051601f1901516001600160a01b03811660208601529150600090506111618888612641565b9050468160a00151146111a0576040517f362c833700000000000000000000000000000000000000000000000000000000815260040160405180910390fd5b60016040516111af9190614dbc565b6040518091039020816000015180519060200120146111e15760405163283d62bd60e01b815260040160405180910390fd5b8051845260208101516001600160a01b0383811691161461122e576040517f05cc02e100000000000000000000000000000000000000000000000000000000815260040160405180910390fd5b6101208101515115801590611250575061124c816101200151612c32565b4211155b15611287576040517f299d02f100000000000000000000000000000000000000000000000000000000815260040160405180910390fd5b61010081015151156112ae5760006112a3826101000151612c32565b6040860152506112c1565b6112bb6201518042614c4f565b60408501525b836040015142106112e557604051630b17115560e41b815260040160405180910390fd5b604081015160608501526101608101515167ffffffffffffffff81111561130e5761130e6144ef565b60405190808252806020026020018201604052801561134157816020015b606081526020019060019003908161132c5790505b50608085015260005b816101600151518110156113a057816101600151818151811061136f5761136f614c05565b60200260200101518560800151828151811061138d5761138d614c05565b602090810291909101015260010161134a565b5060006113dc6002546000801b876040516020016113be9190614e31565b60408051601f19818403018152602083019091526000825290612ca1565b955050505050505b9392505050565b6113f3612187565b60016000828152600d60205260409020600b015460ff16600881111561141b5761141b61425f565b146114685760405162461bcd60e51b815260206004820152601e60248201527f63616e6e6f742073656c6c20696e6163746976652070726f7879206265740000604482015260640161050c565b6000818152600d6020526040808220600b01805460ff191660031790555182917f828be99a2e041a34078aa5ab12ea9b20aa49c0d2197209a03713c5e015dc8e6991a250565b600d60205280600052604060002060009150905080600001549080600101549080600201549080600301549080600401549080600501549080600601549080600701549080600801549080600901549080600a01549080600b0160009054906101000a900460ff169080600c01805461152690614c1b565b80601f016020809104026020016040519081016040528092919081815260200182805461155290614c1b565b801561159f5780601f106115745761010080835404028352916020019161159f565b820191906000526020600020905b81548152906001019060200180831161158257829003601f168201915b505050505090508d565b6000806115b583612d93565b6001600160a01b03166000908152600c60205260409020549392505050565b6115dc612187565b600580547fffffffffffffffffffffff0000000000000000000000000000000000000000001660589290921c919091179055565b60003361165f5760405162461bcd60e51b815260206004820152601760248201527f61757468656e7469636174696f6e207265717569726564000000000000000000604482015260640161050c565b50336000908152600c602052604090205490565b6060336116c25760405162461bcd60e51b815260206004820152601760248201527f61757468656e7469636174696f6e207265717569726564000000000000000000604482015260640161050c565b336000908152600a60209081526040918290208054835181840281018401909452808452909183018282801561171757602002820191906000526020600020905b815481526020019060010190808311611703575b5050505050905090565b60606001805461173090614c1b565b80601f016020809104026020016040519081016040528092919081815260200182805461175c90614c1b565b80156117175780601f1061177e57610100808354040283529160200191611717565b820191906000526020600020905b81548152906001019060200180831161178c57509395945050505050565b606060006117b783612d93565b6001600160a01b0381166000908152600b6020908152604091829020805483518184028101840190945280845293945091929083018282801561181957602002820191906000526020600020905b815481526020019060010190808311611805575b5050505050915050919050565b6060336118755760405162461bcd60e51b815260206004820152601760248201527f61757468656e7469636174696f6e207265717569726564000000000000000000604482015260640161050c565b336000908152600b6020908152604091829020805483518184028101840190945280845290918301828280156117175760200282019190600052602060002090815481526020019060010190808311611703575050505050905090565b606060006118df83612d93565b6001600160a01b0381166000908152600a602090815260409182902080548351818402810184019094528084529394509192908301828280156118195760200282019190600052602060002090815481526020019060010190808311611805575050505050915050919050565b805182511461199d5760405162461bcd60e51b815260206004820152601860248201527f6172726179206c656e67746873206d757374206d617463680000000000000000604482015260640161050c565b60008411611a135760405162461bcd60e51b815260206004820152602860248201527f636f6c6c61746572616c20616d6f756e74206d7573742062652067726561746560448201527f72207468616e2030000000000000000000000000000000000000000000000000606482015260840161050c565b60005b8251811015611a9d576000838281518110611a3357611a33614c05565b602002602001015160001c90506007805490508110611a945760405162461bcd60e51b815260206004820152601660248201527f696e76616c6964206d61726b6574706c61636520494400000000000000000000604482015260640161050c565b50600101611a16565b50600454611ab6906001600160a01b0316333087612e13565b6008805460408051610120810190915290919080886001811115611adc57611adc61425f565b81526020018781526020016000815260200186815260200160006004811115611b0757611b0761425f565b8152602001604051806020016040528060008152508152602001858152602001848152602001600067ffffffffffffffff811115611b4757611b476144ef565b604051908082528060200260200182016040528015611b70578160200160208202803683370190505b509052815460018181018455600093845260209093208251600990920201805492939092839160ff19909116908381811115611bae57611bae61425f565b021790555060208201518160010155604082015181600201556060820151816003015560808201518160040160006101000a81548160ff02191690836004811115611bfb57611bfb61425f565b021790555060a08201516005820190611c149082614ca9565b5060c08201518051611c30916006840191602090910190614046565b5060e08201518051611c4c916007840191602090910190614046565b506101008201518051611c69916008840191602090910190614046565b5050506000818152600960209081526040808320805473ffffffffffffffffffffffffffffffffffffffff1916339081179091558352600a8252822080546001810182559083529082200182905560068054879290611cc9908490614c4f565b92505081905550807fa40b3c87e86bd5f4b59c8ee5d83a7ced69629a25ee5627dccfa8918958b38dc486868686604051611d069493929190614ef4565b60405180910390a2505050505050565b611d1e614091565b600d6000838152602001908152602001600020604051806101a001604052908160008201548152602001600182015481526020016002820154815260200160038201548152602001600482015481526020016005820154815260200160068201548152602001600782015481526020016008820154815260200160098201548152602001600a8201548152602001600b820160009054906101000a900460ff166008811115611dcf57611dcf61425f565b6008811115611de057611de061425f565b8152602001600c82018054611df490614c1b565b80601f0160208091040260200160405190810160405280929190818152602001828054611e2090614c1b565b8015610cae5780601f10611e4257610100808354040283529160200191610cae565b820191906000526020600020905b815481529060010190602001808311611e5057505050919092525091949350505050565b611e7c612187565b6001600160a01b038116611ef85760405162461bcd60e51b815260206004820152602660248201527f4f776e61626c653a206e6577206f776e657220697320746865207a65726f206160448201527f6464726573730000000000000000000000000000000000000000000000000000606482015260840161050c565b6105af81612541565b611f0961410d565b60078281548110611f1c57611f1c614c05565b90600052602060002090600602016040518060c001604052908160008201548152602001600182015481526020016002820160009054906101000a900460ff166001811115611f6d57611f6d61425f565b6001811115611f7e57611f7e61425f565b8152602001600382018054611f9290614c1b565b80601f0160208091040260200160405190810160405280929190818152602001828054611fbe90614c1b565b801561200b5780601f10611fe05761010080835404028352916020019161200b565b820191906000526020600020905b815481529060010190602001808311611fee57829003601f168201915b5050505050815260200160048201805461202490614c1b565b80601f016020809104026020016040519081016040528092919081815260200182805461205090614c1b565b801561209d5780601f106120725761010080835404028352916020019161209d565b820191906000526020600020905b81548152906001019060200180831161208057829003601f168201915b5050509183525050600582015460209091019060ff1660028111156120c4576120c461425f565b60028111156120d5576120d561425f565b90525092915050565b6040516001600160a01b038316602482015260448101829052610a489084907fa9059cbb00000000000000000000000000000000000000000000000000000000906064015b60408051601f198184030181529190526020810180517bffffffffffffffffffffffffffffffffffffffffffffffffffffffff167fffffffff0000000000000000000000000000000000000000000000000000000090931692909217909152612e6a565b6003546001600160a01b03163314610f345760405162461bcd60e51b815260206004820181905260248201527f4f776e61626c653a2063616c6c6572206973206e6f7420746865206f776e6572604482015260640161050c565b60008061227c6040518060400160405280601781526020017f726f666c2e4973417574686f72697a65644f726967696e0000000000000000008152508460405160200161226891907f550000000000000000000000000000000000000000000000000000000000000081526affffffffffffffffffffff1991909116600182015260160190565b604051602081830303815290604052612f52565b915091508167ffffffffffffffff16600014158061229c57508051600114155b806122e95750806000815181106122b5576122b5614c05565b6020910101516001600160f81b0319167ff50000000000000000000000000000000000000000000000000000000000000014155b15610a48576040517f6890282f00000000000000000000000000000000000000000000000000000000815260040160405180910390fd5b6000828152600d60209081526040808320600101548084526009909252822054600880549293926001600160a01b03909216918490811061236357612363614c05565b90600052602060002090600902019150838260020160008282546123879190614c4f565b90915550506000858152600d6020526040812060080180548692906123ad908490614c4f565b90915550506001600160a01b0381166000908152600c6020526040812080548692906123da908490614c4f565b925050819055509250925092565b60005b600883015481101561244c5761243a600d600085600801848154811061241357612413614c05565b600091825260208083209091015483528201929092526040019020600b015460ff16613041565b6124445750505050565b6001016123eb565b506001600160a01b0381166000908152600a60205260408120905b8154811015612511578482828154811061248357612483614c05565b90600052602060002001540361250957815482906124a390600190614bf2565b815481106124b3576124b3614c05565b90600052602060002001548282815481106124d0576124d0614c05565b9060005260206000200181905550818054806124ee576124ee614f25565b60019003818190600052602060002001600090559055612511565b600101612467565b50506001600160a01b03166000908152600b60209081526040822080546001810182559083529120019190915550565b600380546001600160a01b0383811673ffffffffffffffffffffffffffffffffffffffff19831681179093556040519116919082907f8be0079c531659141344cd1fd0a4f28419497f9722a3daafe3b4186f6b6457e090600090a35050565b606060006125ad8361307b565b600101905060008167ffffffffffffffff8111156125cd576125cd6144ef565b6040519080825280601f01601f1916602001820160405280156125f7576020820181803683370190505b5090508181016020015b600019017f3031323334353637383961626364656600000000000000000000000000000000600a86061a8153600a8504945084612601575b509392505050565b6126ae6040518061018001604052806060815260200160006001600160a01b03168152602001606081526020016060815260200160608152602001600081526020016060815260200160608152602001606081526020016060815260200160608152602001606081525090565b61271b6040518061018001604052806060815260200160006001600160a01b03168152602001606081526020016060815260200160608152602001600081526020016060815260200160608152602001606081526020016060815260200160608152602001606081525090565b60005b838110156127a25784848281811061273857612738614c05565b909101356001600160f81b031916600160fd1b03905061279a5761279385858080601f0160208091040260200160405190810160405280939291908181526020018383808284376000920182905250925085915061315d9050565b82526127a2565b60010161271e565b6127ad603282614c4f565b905061281461280f86868080601f0160208091040260200160405190810160405280939291908181526020018383808284376000920191909152506127f9925060029150869050614c4f565b935083612807602882614c4f565b94508461315d565b613234565b6001600160a01b0316602083015261282d600282614c4f565b90508381108015612867575084848281811061284b5761284b614c05565b9050013560f81c60f81b6001600160f81b031916600560f91b14155b1561290657805b848110156129045785858281811061288857612888614c05565b909101356001600160f81b031916600560f91b0390506128fc576128e586868080601f01602080910402602001604051908101604052809392919081815260200183838082843760009201919091525086925085915061315d9050565b60408401526128f5816001614c4f565b9150612904565b60010161286e565b505b8061291081614f51565b91505061295485856040518060400160405280600381526020017f555249000000000000000000000000000000000000000000000000000000000081525084613381565b8360600181935082905250506129a185856040518060400160405280600781526020017f56657273696f6e0000000000000000000000000000000000000000000000000081525084613381565b83608001819350829052505060606129f086866040518060400160405280600881526020017f436861696e20494400000000000000000000000000000000000000000000000081525085613381565b925090506129fd8161359d565b60a084015260408051808201909152600581527f4e6f6e63650000000000000000000000000000000000000000000000000000006020820152612a44908790879085613381565b60c08501829052905190925060081115612a8a576040517fb4bc030c00000000000000000000000000000000000000000000000000000000815260040160405180910390fd5b612acb86866040518060400160405280600981526020017f497373756564204174000000000000000000000000000000000000000000000081525085613381565b8460e0018194508290525050612b1886866040518060400160405280600f81526020017f45787069726174696f6e2054696d65000000000000000000000000000000000081525085613381565b84610100018194508290525050612b6686866040518060400160405280600a81526020017f4e6f74204265666f72650000000000000000000000000000000000000000000081525085613381565b84610120018194508290525050612bb486866040518060400160405280600a81526020017f526571756573742049440000000000000000000000000000000000000000000081525085613381565b846101400181945082905250506000612c0487876040518060400160405280600981526020017f5265736f7572636573000000000000000000000000000000000000000000000081525086613381565b915050828114612c2557612c198787836135f7565b61016086019190915292505b5091925050505b92915050565b6000612c2c612c4c612c47846000600461315d565b61359d565b612c5c612c47856005600761315d565b612c6c612c47866008600a61315d565b612c7c612c4787600b600d61315d565b612c8c612c4788600e601061315d565b612c9c612c47896011601361315d565b6138e8565b60606000807301000000000000000000000000000000000000036001600160a01b031687878787604051602001612cdb9493929190614f6a565b60408051601f1981840301815290829052612cf591614f9b565b600060405180830381855afa9150503d8060008114612d30576040519150601f19603f3d011682016040523d82523d6000602084013e612d35565b606091505b509150915081612d875760405162461bcd60e51b815260206004820152600f60248201527f656e63727970743a206661696c65640000000000000000000000000000000000604482015260640161050c565b9150505b949350505050565b80516020808301919091206000908152908190526040812054829060ff1615612de8576040517f9ea6784800000000000000000000000000000000000000000000000000000000815260040160405180910390fd5b8251600003612dfa5760009150612e0d565b6000612e0584613a9b565b602001519250505b50919050565b6040516001600160a01b0380851660248301528316604482015260648101829052612e649085907f23b872dd0000000000000000000000000000000000000000000000000000000090608401612123565b50505050565b6000612ebf826040518060400160405280602081526020017f5361666545524332303a206c6f772d6c6576656c2063616c6c206661696c6564815250856001600160a01b0316613b789092919063ffffffff16565b9050805160001480612ee0575080806020019051810190612ee09190614fb7565b610a485760405162461bcd60e51b815260206004820152602a60248201527f5361666545524332303a204552433230206f7065726174696f6e20646964206e60448201527f6f74207375636365656400000000000000000000000000000000000000000000606482015260840161050c565b600060606000807301000000000000000000000000000000000001036001600160a01b03168686604051602001612f8a929190614fd9565b60408051601f1981840301815290829052612fa491614f9b565b600060405180830381855afa9150503d8060008114612fdf576040519150601f19603f3d011682016040523d82523d6000602084013e612fe4565b606091505b509150915081613020576040517f902e94f800000000000000000000000000000000000000000000000000000000815260040160405180910390fd5b80806020019051810190613034919061502e565b9097909650945050505050565b6000808260088111156130565761305661425f565b14158015612c2c575060018260088111156130735761307361425f565b141592915050565b6000807a184f03e93ff9f4daa797ed6e38ed64bf6a1f01000000000000000083106130c4577a184f03e93ff9f4daa797ed6e38ed64bf6a1f010000000000000000830492506040015b6d04ee2d6d415b85acef810000000083106130f0576d04ee2d6d415b85acef8100000000830492506020015b662386f26fc10000831061310e57662386f26fc10000830492506010015b6305f5e1008310613126576305f5e100830492506008015b612710831061313a57612710830492506004015b6064831061314c576064830492506002015b600a8310612c2c5760010192915050565b6060600061316b8484614bf2565b67ffffffffffffffff811115613183576131836144ef565b6040519080825280601f01601f1916602001820160405280156131ad576020820181803683370190505b509050835b83811080156131c15750855181105b1561322b578581815181106131d8576131d8614c05565b01602001516001600160f81b031916826131f28784614bf2565b8151811061320257613202614c05565b60200101906001600160f81b031916908160001a9053508061322381614f51565b9150506131b2565b50949350505050565b60008151602814613271576040517facf8696900000000000000000000000000000000000000000000000000000000815260040160405180910390fd5b6000600283516132819190615093565b67ffffffffffffffff811115613299576132996144ef565b6040519080825280601f01601f1916602001820160405280156132c3576020820181803683370190505b50905060005b600284516132d79190615093565b81101561336d57613315846132ed8360026150a7565b6132f8906001614c4f565b8151811061330857613308614c05565b016020015160f81c613b87565b613324856132f88460026150a7565b61332f9060106150be565b61333991906150da565b60f81b82828151811061334e5761334e614c05565b60200101906001600160f81b031916908160001a9053506001016132c9565b50613377816150f3565b60601c9392505050565b60606000825b858110156134b8578686828181106133a1576133a1614c05565b909101356001600160f81b0319167f3a000000000000000000000000000000000000000000000000000000000000000390506134a657848051906020012061342288888080601f01602080910402602001604051908101604052809392919081815260200183838082843760009201919091525089925086915061315d9050565b8051906020012014613447575050604080516020810190915260008152905081613594565b8061345181614f51565b915050858110801561348b575086868281811061347057613470614c05565b9050013560f81c60f81b6001600160f81b031916600160fd1b145b1561349e578061349a81614f51565b9150505b8093506134b8565b806134b081614f51565b915050613387565b8581101561354c578686828181106134d2576134d2614c05565b909101356001600160f81b031916600560f91b0390506135445761352f87878080601f01602080910402602001604051908101604052809392919081815260200183838082843760009201919091525088925085915061315d9050565b61353a826001614c4f565b9250925050613594565b6001016134b8565b61358f87878080601f01602080910402602001604051908101604052809392919081815260200183838082843760009201919091525088925085915061315d9050565b925090505b94509492505050565b600080805b83518110156135f05760308482815181106135bf576135bf614c05565b01602001516135d1919060f81c614bf2565b6135dc83600a6150a7565b6135e69190614c4f565b91506001016135a2565b5092915050565b6060600082815b613609600187614bf2565b8210156137045786868381811061362257613622614c05565b9050013560f81c60f81b6001600160f81b031916602d60f81b14801561367a57508686613650846001614c4f565b81811061365f5761365f614c05565b9050013560f81c60f81b6001600160f81b031916600160fd1b145b1561369e5761368a600283614c4f565b91508061369681614f51565b9150506136a3565b613704565b85821080156136db57508686838181106136bf576136bf614c05565b9050013560f81c60f81b6001600160f81b031916600a60f81b14155b156136f257816136ea81614f51565b9250506136a3565b816136fc81614f51565b9250506135fe565b60008167ffffffffffffffff81111561371f5761371f6144ef565b60405190808252806020026020018201604052801561375257816020015b606081526020019060019003908161373d5790505b50905085925060005b613766600189614bf2565b841080156137745750828114155b156138da5788888581811061378b5761378b614c05565b9050013560f81c60f81b6001600160f81b031916602d60f81b1480156137e3575088886137b9866001614c4f565b8181106137c8576137c8614c05565b9050013560f81c60f81b6001600160f81b031916600160fd1b145b156137f6576137f3846002614c4f565b96505b878410801561382e575088888581811061381257613812614c05565b9050013560f81c60f81b6001600160f81b031916600a60f81b14155b15613845578361383d81614f51565b9450506137f6565b61388889898080601f0160208091040260200160405190810160405280939291908181526020018383808284376000920191909152508b925088915061315d9050565b82828151811061389a5761389a614c05565b602002602001018190525080806138b090614f51565b9150508784036138c857836138c481615146565b9450505b836138d281614f51565b94505061375b565b509791965090945050505050565b60006107b25b8761ffff168161ffff16101561393a5761390781613d13565b156139215761391a6301e2850083614c4f565b9150613932565b61392f6301e1338083614c4f565b91505b6001016138ee565b613942614153565b601f815261394f89613d13565b1561396057601d6020820152613968565b601c60208201525b601f60408201819052601e606083018190526080830182905260a0830181905260c0830182905260e0830182905261010083018190526101208301829052610140830152610160820152600191505b8760ff168261ffff161015613a1557806139d260018461515d565b61ffff16600c81106139e6576139e6614c05565b60200201516139f89062015180615177565b613a089063ffffffff1684614c4f565b92506001909101906139b7565b613a20600188615196565b613a309060ff1662015180615177565b613a409063ffffffff1684614c4f565b9250613a5160ff8716610e10615177565b613a619063ffffffff1684614c4f565b9250613a7160ff8616603c6151af565b613a7f9061ffff1684614c4f565b9250613a8e60ff851684614c4f565b9998505050505050505050565b613ad66040518060a001604052806060815260200160006001600160a01b031681526020016000815260200160608152602001606081525090565b6000613af86002546000801b8560405180602001604052806000815250613d72565b9050600081806020019051810190613b10919061527a565b90506001604051613b219190614dbc565b604051809103902081600001518051906020012014613b535760405163283d62bd60e01b815260040160405180910390fd5b42816040015110156113e457604051630b17115560e41b815260040160405180910390fd5b6060612d8b8484600085613e58565b60007f300000000000000000000000000000000000000000000000000000000000000060f883901b6001600160f81b03191610801590613bf557507f390000000000000000000000000000000000000000000000000000000000000060f883901b6001600160f81b03191611155b15613c0557612c2c603083615196565b7f610000000000000000000000000000000000000000000000000000000000000060f883901b6001600160f81b03191610801590613c7157507f660000000000000000000000000000000000000000000000000000000000000060f883901b6001600160f81b03191611155b15613c8d576061613c8383600a6150da565b612c2c9190615196565b7f410000000000000000000000000000000000000000000000000000000000000060f883901b6001600160f81b03191610801590613cf957507f460000000000000000000000000000000000000000000000000000000000000060f883901b6001600160f81b03191611155b15613d0b576041613c8383600a6150da565b506000919050565b6000613d2060048361535e565b61ffff1615613d3157506000919050565b613d3c60648361535e565b61ffff1615613d4d57506001919050565b613d596101908361535e565b61ffff1615613d6a57506000919050565b506001919050565b60606000807301000000000000000000000000000000000000046001600160a01b031687878787604051602001613dac9493929190614f6a565b60408051601f1981840301815290829052613dc691614f9b565b600060405180830381855afa9150503d8060008114613e01576040519150601f19603f3d011682016040523d82523d6000602084013e613e06565b606091505b509150915081612d875760405162461bcd60e51b815260206004820152600f60248201527f646563727970743a206661696c65640000000000000000000000000000000000604482015260640161050c565b606082471015613ed05760405162461bcd60e51b815260206004820152602660248201527f416464726573733a20696e73756666696369656e742062616c616e636520666f60448201527f722063616c6c0000000000000000000000000000000000000000000000000000606482015260840161050c565b600080866001600160a01b03168587604051613eec9190614f9b565b60006040518083038185875af1925050503d8060008114613f29576040519150601f19603f3d011682016040523d82523d6000602084013e613f2e565b606091505b5091509150613f3f87838387613f4a565b979650505050505050565b60608315613fb9578251600003613fb2576001600160a01b0385163b613fb25760405162461bcd60e51b815260206004820152601d60248201527f416464726573733a2063616c6c20746f206e6f6e2d636f6e7472616374000000604482015260640161050c565b5081612d8b565b612d8b8383815115613fce5781518083602001fd5b8060405162461bcd60e51b815260040161050c9190614849565b6040805161012081019091528060008152602001600081526020016000815260200160008152602001600060048111156140245761402461425f565b8152602001606081526020016060815260200160608152602001606081525090565b828054828255906000526020600020908101928215614081579160200282015b82811115614081578251825591602001919060010190614066565b5061408d929150614172565b5090565b604051806101a001604052806000801916815260200160008152602001600081526020016000815260200160008152602001600081526020016000815260200160008152602001600081526020016000815260200160008152602001600060088111156141005761410061425f565b8152602001606081525090565b6040518060c001604052806000815260200160008152602001600060018111156141395761413961425f565b815260606020820181905260408201819052016000905290565b604051806101800160405280600c906020820280368337509192915050565b5b8082111561408d5760008155600101614173565b60006020828403121561419957600080fd5b5035919050565b8035600981106141af57600080fd5b919050565b6000806000606084860312156141c957600080fd5b833592506141d9602085016141a0565b929592945050506040919091013590565b6001600160a01b03811681146105af57600080fd5b6000806040838503121561421257600080fd5b823561421d816141ea565b946020939093013593505050565b6000806040838503121561423e57600080fd5b8235915060208301356005811061425457600080fd5b809150509250929050565b634e487b7160e01b600052602160045260246000fd5b600281106105af576105af61425f565b60005b838110156142a0578181015183820152602001614288565b50506000910152565b600081518084526142c1816020860160208601614285565b601f01601f19169290920160200192915050565b600381106142e5576142e561425f565b9052565b8681528560208201526142fb85614275565b84604082015260c06060820152600061431760c08301866142a9565b828103608084015261432981866142a9565b915050613f3f60a08301846142d5565b60008060006060848603121561434e57600080fd5b505081359360208301359350604090920135919050565b6142e581614275565b600581106142e5576142e561425f565b600081518084526020840193506020830160005b828110156143b0578151865260209586019590910190600101614392565b5093949350505050565b602081526143cc602082018351614365565b602082015160408201526040820151606082015260608201516080820152600060808301516143fe60a084018261436e565b5060a083015161012060c084015261441a6101408401826142a9565b905060c0840151601f198483030160e0850152614437828261437e565b91505060e0840151601f1984830301610100850152614456828261437e565b915050610100840151601f1984830301610120850152614476828261437e565b95945050505050565b61448887614275565b8681528560208201528460408201528360608201526144aa608082018461436e565b60c060a082015260006144c060c08301846142a9565b98975050505050505050565b67ffffffffffffffff811681146105af57600080fd5b600281106105af57600080fd5b634e487b7160e01b600052604160045260246000fd5b6040516101a0810167ffffffffffffffff81118282101715614529576145296144ef565b60405290565b60405160a0810167ffffffffffffffff81118282101715614529576145296144ef565b604051601f8201601f1916810167ffffffffffffffff8111828210171561457b5761457b6144ef565b604052919050565b600067ffffffffffffffff82111561459d5761459d6144ef565b50601f01601f191660200190565b60006145be6145b984614583565b614552565b90508281528383830111156145d257600080fd5b828260208301376000602084830101529392505050565b600082601f8301126145fa57600080fd5b6113e4838335602085016145ab565b6000806000806080858703121561461f57600080fd5b843561462a816144cc565b9350602085013561463a816144e2565b9250604085013567ffffffffffffffff81111561465657600080fd5b614662878288016145e9565b925050606085013567ffffffffffffffff81111561467f57600080fd5b61468b878288016145e9565b91505092959194509250565b6000602082840312156146a957600080fd5b81356113e4816141ea565b600080604083850312156146c757600080fd5b82359150602083013567ffffffffffffffff8111156146e557600080fd5b83016101a081860312156146f857600080fd5b614700614505565b813581526020808301359082015260408083013590820152606080830135908201526080808301359082015260a0808301359082015260c0808301359082015260e0808301359082015261010080830135908201526101208083013590820152610140808301359082015261477861016083016141a0565b61016082015261018082013567ffffffffffffffff81111561479957600080fd5b6147a5878285016145e9565b6101808301525080925050509250929050565b600080600083850360808112156147ce57600080fd5b843567ffffffffffffffff8111156147e557600080fd5b8501601f810187136147f657600080fd5b803567ffffffffffffffff81111561480d57600080fd5b87602082840101111561481f57600080fd5b602091909101945092506060601f198201121561483b57600080fd5b506020840190509250925092565b6020815260006113e460208301846142a9565b600981106142e5576142e561425f565b8d81528c60208201528b60408201528a60608201528960808201528860a08201528760c08201528660e08201528561010082015284610120820152836101408201526148bc61016082018461485c565b6101a061018082015260006148d56101a08301846142a9565b9f9e505050505050505050505050505050565b6000602082840312156148fa57600080fd5b813567ffffffffffffffff81111561491157600080fd5b8201601f8101841361492257600080fd5b612d8b848235602084016145ab565b60006020828403121561494357600080fd5b81356affffffffffffffffffffff19811681146113e457600080fd5b602080825282518282018190526000918401906040840190835b81811015614997578351835260209384019390920191600101614979565b509095945050505050565b600067ffffffffffffffff8211156149bc576149bc6144ef565b5060051b60200190565b600082601f8301126149d757600080fd5b81356149e56145b9826149a2565b8082825260208201915060208360051b860101925085831115614a0757600080fd5b602085015b83811015614a24578035835260209283019201614a0c565b5095945050505050565b600080600080600060a08688031215614a4657600080fd5b8535614a51816144e2565b94506020860135935060408601359250606086013567ffffffffffffffff811115614a7b57600080fd5b614a87888289016149c6565b925050608086013567ffffffffffffffff811115614aa457600080fd5b614ab0888289016149c6565b9150509295509295909350565b6020815281516020820152602082015160408201526040820151606082015260608201516080820152608082015160a082015260a082015160c082015260c082015160e082015260e08201516101008201526101008201516101208201526101208201516101408201526101408201516101608201526000610160830151614b4961018084018261485c565b506101808301516101a080840152612d8b6101c08401826142a9565b60208152815160208201526020820151604082015260006040830151614b8a81614275565b80606084015250606083015160c06080840152614baa60e08401826142a9565b90506080840151601f198483030160a0850152614bc782826142a9565b91505060a084015161263960c08501826142d5565b634e487b7160e01b600052601160045260246000fd5b81810381811115612c2c57612c2c614bdc565b634e487b7160e01b600052603260045260246000fd5b600181811c90821680614c2f57607f821691505b602082108103612e0d57634e487b7160e01b600052602260045260246000fd5b80820180821115612c2c57612c2c614bdc565b601f821115610a4857806000526020600020601f840160051c81016020851015614c895750805b601f840160051c820191505b818110156110635760008155600101614c95565b815167ffffffffffffffff811115614cc357614cc36144ef565b614cd781614cd18454614c1b565b84614c62565b6020601f821160018114614d0b5760008315614cf35750848201515b600019600385901b1c1916600184901b178455611063565b600084815260208120601f198516915b82811015614d3b5787850151825560209485019460019092019101614d1b565b5084821015614d595786840151600019600387901b60f8161c191681555b50505050600190811b01905550565b7f19457468657265756d205369676e6564204d6573736167653a0a000000000000815260008451614da081601a850160208901614285565b82018385601a83013760009301601a0192835250909392505050565b6000808354614dca81614c1b565b600182168015614de15760018114614df657614e26565b60ff1983168652811515820286019350614e26565b86600052602060002060005b83811015614e1e57815488820152600190910190602001614e02565b505081860193505b509195945050505050565b602081526000825160a06020840152614e4d60c08401826142a9565b90506001600160a01b036020850151166040840152604084015160608401526060840151601f19848303016080850152614e8782826142a9565b6080860151858203601f190160a08701528051808352919350602090810192508084019190600582901b85010160005b82811015614ee857601f19868303018452614ed38286516142a9565b60209586019594909401939150600101614eb7565b50979650505050505050565b848152836020820152608060408201526000614f13608083018561437e565b8281036060840152613f3f818561437e565b634e487b7160e01b600052603160045260246000fd5b634e487b7160e01b600052601260045260246000fd5b600060018201614f6357614f63614bdc565b5060010190565b848152836020820152608060408201526000614f8960808301856142a9565b8281036060840152613f3f81856142a9565b60008251614fad818460208701614285565b9190910192915050565b600060208284031215614fc957600080fd5b815180151581146113e457600080fd5b604081526000614fec60408301856142a9565b828103602084015261447681856142a9565b600061500c6145b984614583565b905082815283838301111561502057600080fd5b6113e4836020830184614285565b6000806040838503121561504157600080fd5b825161504c816144cc565b602084015190925067ffffffffffffffff81111561506957600080fd5b8301601f8101851361507a57600080fd5b61508985825160208401614ffe565b9150509250929050565b6000826150a2576150a2614f3b565b500490565b8082028115828204841417612c2c57612c2c614bdc565b60ff81811683821602908116908181146135f0576135f0614bdc565b60ff8181168382160190811115612c2c57612c2c614bdc565b805160208201516bffffffffffffffffffffffff1981169190601482101561513f576bffffffffffffffffffffffff196bffffffffffffffffffffffff198360140360031b1b82161692505b5050919050565b60008161515557615155614bdc565b506000190190565b61ffff8281168282160390811115612c2c57612c2c614bdc565b63ffffffff81811683821602908116908181146135f0576135f0614bdc565b60ff8281168282160390811115612c2c57612c2c614bdc565b61ffff81811683821602908116908181146135f0576135f0614bdc565b600082601f8301126151dd57600080fd5b6113e483835160208501614ffe565b80516141af816141ea565b600082601f83011261520857600080fd5b81516152166145b9826149a2565b8082825260208201915060208360051b86010192508583111561523857600080fd5b602085015b83811015614a2457805167ffffffffffffffff81111561525c57600080fd5b61526b886020838a01016151cc565b8452506020928301920161523d565b60006020828403121561528c57600080fd5b815167ffffffffffffffff8111156152a357600080fd5b820160a081850312156152b557600080fd5b6152bd61452f565b815167ffffffffffffffff8111156152d457600080fd5b6152e0868285016151cc565b8252506152ef602083016151ec565b602082015260408281015190820152606082015167ffffffffffffffff81111561531857600080fd5b615324868285016151cc565b606083015250608082015167ffffffffffffffff81111561534457600080fd5b615350868285016151f7565b608083015250949350505050565b600061ffff83168061537257615372614f3b565b8061ffff8416069150509291505056fea2646970667358221220cea16568471ef633849378ffdc34f770c9dd27cedf1366a0218c275d0a864a9564736f6c634300081c0033","opcodes":"PUSH1 0x80 PUSH1 0x40 MSTORE CALLVALUE DUP1 ISZERO PUSH2 0x10 JUMPI PUSH1 0x0 DUP1 REVERT JUMPDEST POP PUSH1 0x40 MLOAD DUP1 PUSH1 0x40 ADD PUSH1 0x40 MSTORE DUP1 PUSH1 0x7 DUP2 MSTORE PUSH1 0x20 ADD PUSH7 0x141BDB1E50995D PUSH1 0xCA SHL DUP2 MSTORE POP PUSH2 0x51 PUSH1 0x20 PUSH1 0x40 MLOAD DUP1 PUSH1 0x20 ADD PUSH1 0x40 MSTORE DUP1 PUSH1 0x0 DUP2 MSTORE POP PUSH2 0x7A PUSH1 0x20 SHL PUSH1 0x20 SHR JUMP JUMPDEST PUSH2 0x5A SWAP1 PUSH2 0x1BA JUMP JUMPDEST PUSH1 0x2 SSTORE PUSH1 0x1 PUSH2 0x69 DUP3 DUP3 PUSH2 0x27A JUMP JUMPDEST POP PUSH2 0x75 SWAP1 POP CALLER PUSH2 0x168 JUMP JUMPDEST PUSH2 0x3B2 JUMP JUMPDEST PUSH1 0x60 PUSH1 0x0 DUP1 PUSH20 0x100000000000000000000000000000000000001 PUSH1 0x1 PUSH1 0x1 PUSH1 0xA0 SHL SUB AND DUP6 DUP6 PUSH1 0x40 MLOAD PUSH1 0x20 ADD PUSH2 0xB0 SWAP3 SWAP2 SWAP1 PUSH2 0x35C JUMP JUMPDEST PUSH1 0x40 DUP1 MLOAD PUSH1 0x1F NOT DUP2 DUP5 SUB ADD DUP2 MSTORE SWAP1 DUP3 SWAP1 MSTORE PUSH2 0xCA SWAP2 PUSH2 0x396 JUMP JUMPDEST PUSH1 0x0 PUSH1 0x40 MLOAD DUP1 DUP4 SUB DUP2 DUP6 GAS STATICCALL SWAP2 POP POP RETURNDATASIZE DUP1 PUSH1 0x0 DUP2 EQ PUSH2 0x105 JUMPI PUSH1 0x40 MLOAD SWAP2 POP PUSH1 0x1F NOT PUSH1 0x3F RETURNDATASIZE ADD AND DUP3 ADD PUSH1 0x40 MSTORE RETURNDATASIZE DUP3 MSTORE RETURNDATASIZE PUSH1 0x0 PUSH1 0x20 DUP5 ADD RETURNDATACOPY PUSH2 0x10A JUMP JUMPDEST PUSH1 0x60 SWAP2 POP JUMPDEST POP SWAP2 POP SWAP2 POP DUP2 PUSH2 0x160 JUMPI PUSH1 0x40 MLOAD PUSH3 0x461BCD PUSH1 0xE5 SHL DUP2 MSTORE PUSH1 0x20 PUSH1 0x4 DUP3 ADD MSTORE PUSH1 0x13 PUSH1 0x24 DUP3 ADD MSTORE PUSH32 0x72616E646F6D42797465733A206661696C656400000000000000000000000000 PUSH1 0x44 DUP3 ADD MSTORE PUSH1 0x64 ADD PUSH1 0x40 MLOAD DUP1 SWAP2 SUB SWAP1 REVERT JUMPDEST SWAP5 SWAP4 POP POP POP POP JUMP JUMPDEST PUSH1 0x3 DUP1 SLOAD PUSH1 0x1 PUSH1 0x1 PUSH1 0xA0 SHL SUB DUP4 DUP2 AND PUSH1 0x1 PUSH1 0x1 PUSH1 0xA0 SHL SUB NOT DUP4 AND DUP2 OR SWAP1 SWAP4 SSTORE PUSH1 0x40 MLOAD SWAP2 AND SWAP2 SWAP1 DUP3 SWAP1 PUSH32 0x8BE0079C531659141344CD1FD0A4F28419497F9722A3DAAFE3B4186F6B6457E0 SWAP1 PUSH1 0x0 SWAP1 LOG3 POP POP JUMP JUMPDEST DUP1 MLOAD PUSH1 0x20 DUP1 DUP4 ADD MLOAD SWAP2 SWAP1 DUP2 LT ISZERO PUSH2 0x1DB JUMPI PUSH1 0x0 NOT DUP2 PUSH1 0x20 SUB PUSH1 0x3 SHL SHL DUP3 AND SWAP2 POP JUMPDEST POP SWAP2 SWAP1 POP JUMP JUMPDEST PUSH4 0x4E487B71 PUSH1 0xE0 SHL PUSH1 0x0 MSTORE PUSH1 0x41 PUSH1 0x4 MSTORE PUSH1 0x24 PUSH1 0x0 REVERT JUMPDEST PUSH1 0x1 DUP2 DUP2 SHR SWAP1 DUP3 AND DUP1 PUSH2 0x20B JUMPI PUSH1 0x7F DUP3 AND SWAP2 POP JUMPDEST PUSH1 0x20 DUP3 LT DUP2 SUB PUSH2 0x1DB JUMPI PUSH4 0x4E487B71 PUSH1 0xE0 SHL PUSH1 0x0 MSTORE PUSH1 0x22 PUSH1 0x4 MSTORE PUSH1 0x24 PUSH1 0x0 REVERT JUMPDEST PUSH1 0x1F DUP3 GT ISZERO PUSH2 0x275 JUMPI DUP1 PUSH1 0x0 MSTORE PUSH1 0x20 PUSH1 0x0 KECCAK256 PUSH1 0x1F DUP5 ADD PUSH1 0x5 SHR DUP2 ADD PUSH1 0x20 DUP6 LT ISZERO PUSH2 0x252 JUMPI POP DUP1 JUMPDEST PUSH1 0x1F DUP5 ADD PUSH1 0x5 SHR DUP3 ADD SWAP2 POP JUMPDEST DUP2 DUP2 LT ISZERO PUSH2 0x272 JUMPI PUSH1 0x0 DUP2 SSTORE PUSH1 0x1 ADD PUSH2 0x25E JUMP JUMPDEST POP POP JUMPDEST POP POP POP JUMP JUMPDEST DUP2 MLOAD PUSH1 0x1 PUSH1 0x1 PUSH1 0x40 SHL SUB DUP2 GT ISZERO PUSH2 0x293 JUMPI PUSH2 0x293 PUSH2 0x1E1 JUMP JUMPDEST PUSH2 0x2A7 DUP2 PUSH2 0x2A1 DUP5 SLOAD PUSH2 0x1F7 JUMP JUMPDEST DUP5 PUSH2 0x22B JUMP JUMPDEST PUSH1 0x20 PUSH1 0x1F DUP3 GT PUSH1 0x1 DUP2 EQ PUSH2 0x2DB JUMPI PUSH1 0x0 DUP4 ISZERO PUSH2 0x2C3 JUMPI POP DUP5 DUP3 ADD MLOAD JUMPDEST PUSH1 0x0 NOT PUSH1 0x3 DUP6 SWAP1 SHL SHR NOT AND PUSH1 0x1 DUP5 SWAP1 SHL OR DUP5 SSTORE PUSH2 0x272 JUMP JUMPDEST PUSH1 0x0 DUP5 DUP2 MSTORE PUSH1 0x20 DUP2 KECCAK256 PUSH1 0x1F NOT DUP6 AND SWAP2 JUMPDEST DUP3 DUP2 LT ISZERO PUSH2 0x30B JUMPI DUP8 DUP6 ADD MLOAD DUP3 SSTORE PUSH1 0x20 SWAP5 DUP6 ADD SWAP5 PUSH1 0x1 SWAP1 SWAP3 ADD SWAP2 ADD PUSH2 0x2EB JUMP JUMPDEST POP DUP5 DUP3 LT ISZERO PUSH2 0x329 JUMPI DUP7 DUP5 ADD MLOAD PUSH1 0x0 NOT PUSH1 0x3 DUP8 SWAP1 SHL PUSH1 0xF8 AND SHR NOT AND DUP2 SSTORE JUMPDEST POP POP POP POP PUSH1 0x1 SWAP1 DUP2 SHL ADD SWAP1 SSTORE POP JUMP JUMPDEST PUSH1 0x0 JUMPDEST DUP4 DUP2 LT ISZERO PUSH2 0x353 JUMPI DUP2 DUP2 ADD MLOAD DUP4 DUP3 ADD MSTORE PUSH1 0x20 ADD PUSH2 0x33B JUMP JUMPDEST POP POP PUSH1 0x0 SWAP2 ADD MSTORE JUMP JUMPDEST DUP3 DUP2 MSTORE PUSH1 0x40 PUSH1 0x20 DUP3 ADD MSTORE PUSH1 0x0 DUP3 MLOAD DUP1 PUSH1 0x40 DUP5 ADD MSTORE PUSH2 0x381 DUP2 PUSH1 0x60 DUP6 ADD PUSH1 0x20 DUP8 ADD PUSH2 0x338 JUMP JUMPDEST PUSH1 0x1F ADD PUSH1 0x1F NOT AND SWAP2 SWAP1 SWAP2 ADD PUSH1 0x60 ADD SWAP4 SWAP3 POP POP POP JUMP JUMPDEST PUSH1 0x0 DUP3 MLOAD PUSH2 0x3A8 DUP2 DUP5 PUSH1 0x20 DUP8 ADD PUSH2 0x338 JUMP JUMPDEST SWAP2 SWAP1 SWAP2 ADD SWAP3 SWAP2 POP POP JUMP JUMPDEST PUSH2 0x53B8 DUP1 PUSH2 0x3C1 PUSH1 0x0 CODECOPY PUSH1 0x0 RETURN INVALID PUSH1 0x80 PUSH1 0x40 MSTORE CALLVALUE DUP1 ISZERO PUSH2 0x10 JUMPI PUSH1 0x0 DUP1 REVERT JUMPDEST POP PUSH1 0x4 CALLDATASIZE LT PUSH2 0x1E5 JUMPI PUSH1 0x0 CALLDATALOAD PUSH1 0xE0 SHR DUP1 PUSH4 0x7F476B6F GT PUSH2 0x10F JUMPI DUP1 PUSH4 0xC2FB26A6 GT PUSH2 0xA2 JUMPI DUP1 PUSH4 0xE75A88A0 GT PUSH2 0x71 JUMPI DUP1 PUSH4 0xE75A88A0 EQ PUSH2 0x45A JUMPI DUP1 PUSH4 0xF1B9EA17 EQ PUSH2 0x46D JUMPI DUP1 PUSH4 0xF2FDE38B EQ PUSH2 0x48D JUMPI DUP1 PUSH4 0xF53AAC2A EQ PUSH2 0x4A0 JUMPI PUSH1 0x0 DUP1 REVERT JUMPDEST DUP1 PUSH4 0xC2FB26A6 EQ PUSH2 0x424 JUMPI DUP1 PUSH4 0xD1D758CB EQ PUSH2 0x42C JUMPI DUP1 PUSH4 0xD69418F3 EQ PUSH2 0x43F JUMPI DUP1 PUSH4 0xDAEE6FBC EQ PUSH2 0x447 JUMPI PUSH1 0x0 DUP1 REVERT JUMPDEST DUP1 PUSH4 0x9F88151E GT PUSH2 0xDE JUMPI DUP1 PUSH4 0x9F88151E EQ PUSH2 0x3E1 JUMPI DUP1 PUSH4 0xA935EE0E EQ PUSH2 0x3F4 JUMPI DUP1 PUSH4 0xB7013DC1 EQ PUSH2 0x407 JUMPI DUP1 PUSH4 0xB76EBB56 EQ PUSH2 0x40F JUMPI PUSH1 0x0 DUP1 REVERT JUMPDEST DUP1 PUSH4 0x7F476B6F EQ PUSH2 0x371 JUMPI DUP1 PUSH4 0x8DA5CB5B EQ PUSH2 0x391 JUMPI DUP1 PUSH4 0x8E032241 EQ PUSH2 0x3A2 JUMPI DUP1 PUSH4 0x974D4ED8 EQ PUSH2 0x3B5 JUMPI PUSH1 0x0 DUP1 REVERT JUMPDEST DUP1 PUSH4 0x2E5ABD7B GT PUSH2 0x187 JUMPI DUP1 PUSH4 0x58DEE054 GT PUSH2 0x156 JUMPI DUP1 PUSH4 0x58DEE054 EQ PUSH2 0x330 JUMPI DUP1 PUSH4 0x666181A9 EQ PUSH2 0x343 JUMPI DUP1 PUSH4 0x715018A6 EQ PUSH2 0x356 JUMPI DUP1 PUSH4 0x7D5559D9 EQ PUSH2 0x35E JUMPI PUSH1 0x0 DUP1 REVERT JUMPDEST DUP1 PUSH4 0x2E5ABD7B EQ PUSH2 0x2C5 JUMPI DUP1 PUSH4 0x3074EEBC EQ PUSH2 0x2D8 JUMPI DUP1 PUSH4 0x32D268A5 EQ PUSH2 0x2EB JUMPI DUP1 PUSH4 0x5023A0C9 EQ PUSH2 0x30B JUMPI PUSH1 0x0 DUP1 REVERT JUMPDEST DUP1 PUSH4 0x212E94C9 GT PUSH2 0x1C3 JUMPI DUP1 PUSH4 0x212E94C9 EQ PUSH2 0x259 JUMPI DUP1 PUSH4 0x29EC9442 EQ PUSH2 0x26C JUMPI DUP1 PUSH4 0x2A6D3E9B EQ PUSH2 0x28D JUMPI DUP1 PUSH4 0x2B64DEEC EQ PUSH2 0x2A0 JUMPI PUSH1 0x0 DUP1 REVERT JUMPDEST DUP1 PUSH4 0x14794702 EQ PUSH2 0x1EA JUMPI DUP1 PUSH4 0x15534B70 EQ PUSH2 0x1FF JUMPI DUP1 PUSH4 0x181031B1 EQ PUSH2 0x22F JUMPI JUMPDEST PUSH1 0x0 DUP1 REVERT JUMPDEST PUSH2 0x1FD PUSH2 0x1F8 CALLDATASIZE PUSH1 0x4 PUSH2 0x4187 JUMP JUMPDEST PUSH2 0x4C0 JUMP JUMPDEST STOP JUMPDEST PUSH1 0x4 SLOAD PUSH2 0x212 SWAP1 PUSH1 0x1 PUSH1 0x1 PUSH1 0xA0 SHL SUB AND DUP2 JUMP JUMPDEST PUSH1 0x40 MLOAD PUSH1 0x1 PUSH1 0x1 PUSH1 0xA0 SHL SUB SWAP1 SWAP2 AND DUP2 MSTORE PUSH1 0x20 ADD JUMPDEST PUSH1 0x40 MLOAD DUP1 SWAP2 SUB SWAP1 RETURN JUMPDEST PUSH1 0x5 SLOAD PUSH2 0x23C SWAP1 PUSH1 0x58 SHL DUP2 JUMP JUMPDEST PUSH1 0x40 MLOAD PUSH11 0xFFFFFFFFFFFFFFFFFFFFFF NOT SWAP1 SWAP2 AND DUP2 MSTORE PUSH1 0x20 ADD PUSH2 0x226 JUMP JUMPDEST PUSH2 0x1FD PUSH2 0x267 CALLDATASIZE PUSH1 0x4 PUSH2 0x41B4 JUMP JUMPDEST PUSH2 0x5B2 JUMP JUMPDEST PUSH2 0x27F PUSH2 0x27A CALLDATASIZE PUSH1 0x4 PUSH2 0x41FF JUMP JUMPDEST PUSH2 0x732 JUMP JUMPDEST PUSH1 0x40 MLOAD SWAP1 DUP2 MSTORE PUSH1 0x20 ADD PUSH2 0x226 JUMP JUMPDEST PUSH2 0x1FD PUSH2 0x29B CALLDATASIZE PUSH1 0x4 PUSH2 0x422B JUMP JUMPDEST PUSH2 0x763 JUMP JUMPDEST PUSH2 0x2B3 PUSH2 0x2AE CALLDATASIZE PUSH1 0x4 PUSH2 0x4187 JUMP JUMPDEST PUSH2 0x7B2 JUMP JUMPDEST PUSH1 0x40 MLOAD PUSH2 0x226 SWAP7 SWAP6 SWAP5 SWAP4 SWAP3 SWAP2 SWAP1 PUSH2 0x42E9 JUMP JUMPDEST PUSH2 0x1FD PUSH2 0x2D3 CALLDATASIZE PUSH1 0x4 PUSH2 0x4339 JUMP JUMPDEST PUSH2 0x915 JUMP JUMPDEST PUSH2 0x27F PUSH2 0x2E6 CALLDATASIZE PUSH1 0x4 PUSH2 0x41FF JUMP JUMPDEST PUSH2 0xA4D JUMP JUMPDEST PUSH2 0x2FE PUSH2 0x2F9 CALLDATASIZE PUSH1 0x4 PUSH2 0x4187 JUMP JUMPDEST PUSH2 0xA69 JUMP JUMPDEST PUSH1 0x40 MLOAD PUSH2 0x226 SWAP2 SWAP1 PUSH2 0x43BA JUMP JUMPDEST PUSH2 0x31E PUSH2 0x319 CALLDATASIZE PUSH1 0x4 PUSH2 0x4187 JUMP JUMPDEST PUSH2 0xCBE JUMP JUMPDEST PUSH1 0x40 MLOAD PUSH2 0x226 SWAP7 SWAP6 SWAP5 SWAP4 SWAP3 SWAP2 SWAP1 PUSH2 0x447F JUMP JUMPDEST PUSH2 0x1FD PUSH2 0x33E CALLDATASIZE PUSH1 0x4 PUSH2 0x4609 JUMP JUMPDEST PUSH2 0xD99 JUMP JUMPDEST PUSH2 0x1FD PUSH2 0x351 CALLDATASIZE PUSH1 0x4 PUSH2 0x4697 JUMP JUMPDEST PUSH2 0xE95 JUMP JUMPDEST PUSH2 0x1FD PUSH2 0xF22 JUMP JUMPDEST PUSH2 0x1FD PUSH2 0x36C CALLDATASIZE PUSH1 0x4 PUSH2 0x46B4 JUMP JUMPDEST PUSH2 0xF36 JUMP JUMPDEST PUSH2 0x384 PUSH2 0x37F CALLDATASIZE PUSH1 0x4 PUSH2 0x47B8 JUMP JUMPDEST PUSH2 0x106A JUMP JUMPDEST PUSH1 0x40 MLOAD PUSH2 0x226 SWAP2 SWAP1 PUSH2 0x4849 JUMP JUMPDEST PUSH1 0x3 SLOAD PUSH1 0x1 PUSH1 0x1 PUSH1 0xA0 SHL SUB AND PUSH2 0x212 JUMP JUMPDEST PUSH2 0x1FD PUSH2 0x3B0 CALLDATASIZE PUSH1 0x4 PUSH2 0x4187 JUMP JUMPDEST PUSH2 0x13EB JUMP JUMPDEST PUSH2 0x3C8 PUSH2 0x3C3 CALLDATASIZE PUSH1 0x4 PUSH2 0x4187 JUMP JUMPDEST PUSH2 0x14AE JUMP JUMPDEST PUSH1 0x40 MLOAD PUSH2 0x226 SWAP14 SWAP13 SWAP12 SWAP11 SWAP10 SWAP9 SWAP8 SWAP7 SWAP6 SWAP5 SWAP4 SWAP3 SWAP2 SWAP1 PUSH2 0x486C JUMP JUMPDEST PUSH2 0x27F PUSH2 0x3EF CALLDATASIZE PUSH1 0x4 PUSH2 0x48E8 JUMP JUMPDEST PUSH2 0x15A9 JUMP JUMPDEST PUSH2 0x1FD PUSH2 0x402 CALLDATASIZE PUSH1 0x4 PUSH2 0x4931 JUMP JUMPDEST PUSH2 0x15D4 JUMP JUMPDEST PUSH2 0x27F PUSH2 0x1610 JUMP JUMPDEST PUSH2 0x417 PUSH2 0x1673 JUMP JUMPDEST PUSH1 0x40 MLOAD PUSH2 0x226 SWAP2 SWAP1 PUSH2 0x495F JUMP JUMPDEST PUSH2 0x384 PUSH2 0x1721 JUMP JUMPDEST PUSH2 0x417 PUSH2 0x43A CALLDATASIZE PUSH1 0x4 PUSH2 0x48E8 JUMP JUMPDEST PUSH2 0x17AA JUMP JUMPDEST PUSH2 0x417 PUSH2 0x1826 JUMP JUMPDEST PUSH2 0x417 PUSH2 0x455 CALLDATASIZE PUSH1 0x4 PUSH2 0x48E8 JUMP JUMPDEST PUSH2 0x18D2 JUMP JUMPDEST PUSH2 0x1FD PUSH2 0x468 CALLDATASIZE PUSH1 0x4 PUSH2 0x4A2E JUMP JUMPDEST PUSH2 0x194C JUMP JUMPDEST PUSH2 0x480 PUSH2 0x47B CALLDATASIZE PUSH1 0x4 PUSH2 0x4187 JUMP JUMPDEST PUSH2 0x1D16 JUMP JUMPDEST PUSH1 0x40 MLOAD PUSH2 0x226 SWAP2 SWAP1 PUSH2 0x4ABD JUMP JUMPDEST PUSH2 0x1FD PUSH2 0x49B CALLDATASIZE PUSH1 0x4 PUSH2 0x4697 JUMP JUMPDEST PUSH2 0x1E74 JUMP JUMPDEST PUSH2 0x4B3 PUSH2 0x4AE CALLDATASIZE PUSH1 0x4 PUSH2 0x4187 JUMP JUMPDEST PUSH2 0x1F01 JUMP JUMPDEST PUSH1 0x40 MLOAD PUSH2 0x226 SWAP2 SWAP1 PUSH2 0x4B65 JUMP JUMPDEST PUSH1 0x0 DUP2 GT PUSH2 0x515 JUMPI PUSH1 0x40 MLOAD PUSH3 0x461BCD PUSH1 0xE5 SHL DUP2 MSTORE PUSH1 0x20 PUSH1 0x4 DUP3 ADD MSTORE PUSH1 0x1D PUSH1 0x24 DUP3 ADD MSTORE PUSH32 0x616D6F756E74206D7573742062652067726561746572207468616E2030000000 PUSH1 0x44 DUP3 ADD MSTORE PUSH1 0x64 ADD JUMPDEST PUSH1 0x40 MLOAD DUP1 SWAP2 SUB SWAP1 REVERT JUMPDEST CALLER PUSH1 0x0 SWAP1 DUP2 MSTORE PUSH1 0xC PUSH1 0x20 MSTORE PUSH1 0x40 SWAP1 KECCAK256 SLOAD DUP2 GT ISZERO PUSH2 0x574 JUMPI PUSH1 0x40 MLOAD PUSH3 0x461BCD PUSH1 0xE5 SHL DUP2 MSTORE PUSH1 0x20 PUSH1 0x4 DUP3 ADD MSTORE PUSH1 0x14 PUSH1 0x24 DUP3 ADD MSTORE PUSH32 0x696E73756666696369656E742062616C616E6365000000000000000000000000 PUSH1 0x44 DUP3 ADD MSTORE PUSH1 0x64 ADD PUSH2 0x50C JUMP JUMPDEST CALLER PUSH1 0x0 SWAP1 DUP2 MSTORE PUSH1 0xC PUSH1 0x20 MSTORE PUSH1 0x40 DUP2 KECCAK256 DUP1 SLOAD DUP4 SWAP3 SWAP1 PUSH2 0x593 SWAP1 DUP5 SWAP1 PUSH2 0x4BF2 JUMP JUMPDEST SWAP1 SWAP2 SSTORE POP POP PUSH1 0x4 SLOAD PUSH2 0x5AF SWAP1 PUSH1 0x1 PUSH1 0x1 PUSH1 0xA0 SHL SUB AND CALLER DUP4 PUSH2 0x20DE JUMP JUMPDEST POP JUMP JUMPDEST PUSH2 0x5BA PUSH2 0x2187 JUMP JUMPDEST PUSH1 0x0 DUP3 PUSH1 0x8 DUP2 GT ISZERO PUSH2 0x5CE JUMPI PUSH2 0x5CE PUSH2 0x425F JUMP JUMPDEST EQ ISZERO DUP1 ISZERO PUSH2 0x5EE JUMPI POP PUSH1 0x4 DUP3 PUSH1 0x8 DUP2 GT ISZERO PUSH2 0x5EB JUMPI PUSH2 0x5EB PUSH2 0x425F JUMP JUMPDEST EQ ISZERO JUMPDEST PUSH2 0x63A JUMPI PUSH1 0x40 MLOAD PUSH3 0x461BCD PUSH1 0xE5 SHL DUP2 MSTORE PUSH1 0x20 PUSH1 0x4 DUP3 ADD MSTORE PUSH1 0x1E PUSH1 0x24 DUP3 ADD MSTORE PUSH32 0x6F7574636F6D652063616E6E6F74206265206E6F6E65206F7220736F6C640000 PUSH1 0x44 DUP3 ADD MSTORE PUSH1 0x64 ADD PUSH2 0x50C JUMP JUMPDEST PUSH1 0x1 PUSH1 0x0 DUP5 DUP2 MSTORE PUSH1 0xD PUSH1 0x20 MSTORE PUSH1 0x40 SWAP1 KECCAK256 PUSH1 0xB ADD SLOAD PUSH1 0xFF AND PUSH1 0x8 DUP2 GT ISZERO PUSH2 0x662 JUMPI PUSH2 0x662 PUSH2 0x425F JUMP JUMPDEST EQ PUSH2 0x6AF JUMPI PUSH1 0x40 MLOAD PUSH3 0x461BCD PUSH1 0xE5 SHL DUP2 MSTORE PUSH1 0x20 PUSH1 0x4 DUP3 ADD MSTORE PUSH1 0x1A PUSH1 0x24 DUP3 ADD MSTORE PUSH32 0x696E76616C6964206F7574636F6D65207472616E736974696F6E000000000000 PUSH1 0x44 DUP3 ADD MSTORE PUSH1 0x64 ADD PUSH2 0x50C JUMP JUMPDEST PUSH1 0x5 SLOAD PUSH1 0x58 SHL PUSH11 0xFFFFFFFFFFFFFFFFFFFFFF NOT AND ISZERO PUSH2 0x6D7 JUMPI PUSH1 0x5 SLOAD PUSH2 0x6D7 SWAP1 PUSH1 0x58 SHL PUSH2 0x21E1 JUMP JUMPDEST PUSH1 0x0 DUP4 DUP2 MSTORE PUSH1 0xD PUSH1 0x20 MSTORE PUSH1 0x40 SWAP1 KECCAK256 PUSH1 0xB ADD DUP1 SLOAD DUP4 SWAP2 SWAP1 PUSH1 0xFF NOT AND PUSH1 0x1 DUP4 PUSH1 0x8 DUP2 GT ISZERO PUSH2 0x705 JUMPI PUSH2 0x705 PUSH2 0x425F JUMP JUMPDEST MUL OR SWAP1 SSTORE POP PUSH1 0x0 DUP1 PUSH1 0x0 PUSH2 0x719 DUP7 DUP6 PUSH2 0x2320 JUMP JUMPDEST SWAP3 POP SWAP3 POP SWAP3 POP PUSH2 0x72A DUP4 DUP4 DUP4 PUSH2 0x23E8 JUMP JUMPDEST POP POP POP POP POP POP JUMP JUMPDEST PUSH1 0xB PUSH1 0x20 MSTORE DUP2 PUSH1 0x0 MSTORE PUSH1 0x40 PUSH1 0x0 KECCAK256 DUP2 DUP2 SLOAD DUP2 LT PUSH2 0x74E JUMPI PUSH1 0x0 DUP1 REVERT JUMPDEST SWAP1 PUSH1 0x0 MSTORE PUSH1 0x20 PUSH1 0x0 KECCAK256 ADD PUSH1 0x0 SWAP2 POP SWAP2 POP POP SLOAD DUP2 JUMP JUMPDEST DUP1 PUSH1 0x8 DUP4 DUP2 SLOAD DUP2 LT PUSH2 0x777 JUMPI PUSH2 0x777 PUSH2 0x4C05 JUMP JUMPDEST SWAP1 PUSH1 0x0 MSTORE PUSH1 0x20 PUSH1 0x0 KECCAK256 SWAP1 PUSH1 0x9 MUL ADD PUSH1 0x4 ADD PUSH1 0x0 PUSH2 0x100 EXP DUP2 SLOAD DUP2 PUSH1 0xFF MUL NOT AND SWAP1 DUP4 PUSH1 0x4 DUP2 GT ISZERO PUSH2 0x7A9 JUMPI PUSH2 0x7A9 PUSH2 0x425F JUMP JUMPDEST MUL OR SWAP1 SSTORE POP POP POP JUMP JUMPDEST PUSH1 0x7 DUP2 DUP2 SLOAD DUP2 LT PUSH2 0x7C2 JUMPI PUSH1 0x0 DUP1 REVERT JUMPDEST PUSH1 0x0 SWAP2 DUP3 MSTORE PUSH1 0x20 SWAP1 SWAP2 KECCAK256 PUSH1 0x6 SWAP1 SWAP2 MUL ADD DUP1 SLOAD PUSH1 0x1 DUP3 ADD SLOAD PUSH1 0x2 DUP4 ADD SLOAD PUSH1 0x3 DUP5 ADD DUP1 SLOAD SWAP4 SWAP6 POP SWAP2 SWAP4 PUSH1 0xFF SWAP1 SWAP2 AND SWAP3 SWAP1 SWAP2 SWAP1 PUSH2 0x7FB SWAP1 PUSH2 0x4C1B JUMP JUMPDEST DUP1 PUSH1 0x1F ADD PUSH1 0x20 DUP1 SWAP2 DIV MUL PUSH1 0x20 ADD PUSH1 0x40 MLOAD SWAP1 DUP2 ADD PUSH1 0x40 MSTORE DUP1 SWAP3 SWAP2 SWAP1 DUP2 DUP2 MSTORE PUSH1 0x20 ADD DUP3 DUP1 SLOAD PUSH2 0x827 SWAP1 PUSH2 0x4C1B JUMP JUMPDEST DUP1 ISZERO PUSH2 0x874 JUMPI DUP1 PUSH1 0x1F LT PUSH2 0x849 JUMPI PUSH2 0x100 DUP1 DUP4 SLOAD DIV MUL DUP4 MSTORE SWAP2 PUSH1 0x20 ADD SWAP2 PUSH2 0x874 JUMP JUMPDEST DUP3 ADD SWAP2 SWAP1 PUSH1 0x0 MSTORE PUSH1 0x20 PUSH1 0x0 KECCAK256 SWAP1 JUMPDEST DUP2 SLOAD DUP2 MSTORE SWAP1 PUSH1 0x1 ADD SWAP1 PUSH1 0x20 ADD DUP1 DUP4 GT PUSH2 0x857 JUMPI DUP3 SWAP1 SUB PUSH1 0x1F AND DUP3 ADD SWAP2 JUMPDEST POP POP POP POP POP SWAP1 DUP1 PUSH1 0x4 ADD DUP1 SLOAD PUSH2 0x889 SWAP1 PUSH2 0x4C1B JUMP JUMPDEST DUP1 PUSH1 0x1F ADD PUSH1 0x20 DUP1 SWAP2 DIV MUL PUSH1 0x20 ADD PUSH1 0x40 MLOAD SWAP1 DUP2 ADD PUSH1 0x40 MSTORE DUP1 SWAP3 SWAP2 SWAP1 DUP2 DUP2 MSTORE PUSH1 0x20 ADD DUP3 DUP1 SLOAD PUSH2 0x8B5 SWAP1 PUSH2 0x4C1B JUMP JUMPDEST DUP1 ISZERO PUSH2 0x902 JUMPI DUP1 PUSH1 0x1F LT PUSH2 0x8D7 JUMPI PUSH2 0x100 DUP1 DUP4 SLOAD DIV MUL DUP4 MSTORE SWAP2 PUSH1 0x20 ADD SWAP2 PUSH2 0x902 JUMP JUMPDEST DUP3 ADD SWAP2 SWAP1 PUSH1 0x0 MSTORE PUSH1 0x20 PUSH1 0x0 KECCAK256 SWAP1 JUMPDEST DUP2 SLOAD DUP2 MSTORE SWAP1 PUSH1 0x1 ADD SWAP1 PUSH1 0x20 ADD DUP1 DUP4 GT PUSH2 0x8E5 JUMPI DUP3 SWAP1 SUB PUSH1 0x1F AND DUP3 ADD SWAP2 JUMPDEST POP POP POP PUSH1 0x5 SWAP1 SWAP4 ADD SLOAD SWAP2 SWAP3 POP POP PUSH1 0xFF AND DUP7 JUMP JUMPDEST PUSH2 0x91D PUSH2 0x2187 JUMP JUMPDEST PUSH1 0x5 SLOAD PUSH1 0x58 SHL PUSH11 0xFFFFFFFFFFFFFFFFFFFFFF NOT AND ISZERO PUSH2 0x945 JUMPI PUSH1 0x5 SLOAD PUSH2 0x945 SWAP1 PUSH1 0x58 SHL PUSH2 0x21E1 JUMP JUMPDEST PUSH1 0x0 DUP4 DUP2 MSTORE PUSH1 0xD PUSH1 0x20 MSTORE PUSH1 0x40 DUP2 KECCAK256 PUSH1 0xA ADD DUP1 SLOAD DUP5 SWAP3 SWAP1 PUSH2 0x966 SWAP1 DUP5 SWAP1 PUSH2 0x4C4F JUMP JUMPDEST SWAP1 SWAP2 SSTORE POP POP PUSH1 0x0 DUP4 DUP2 MSTORE PUSH1 0xD PUSH1 0x20 MSTORE PUSH1 0x40 SWAP1 KECCAK256 PUSH1 0xA DUP2 ADD SLOAD PUSH1 0x9 SWAP1 SWAP2 ADD SLOAD LT ISZERO PUSH2 0x9F8 JUMPI PUSH1 0x40 MLOAD PUSH3 0x461BCD PUSH1 0xE5 SHL DUP2 MSTORE PUSH1 0x20 PUSH1 0x4 DUP3 ADD MSTORE PUSH1 0x23 PUSH1 0x24 DUP3 ADD MSTORE PUSH32 0x63616E6E6F742073656C6C206D6F726520736861726573207468616E20626F75 PUSH1 0x44 DUP3 ADD MSTORE PUSH32 0x6768740000000000000000000000000000000000000000000000000000000000 PUSH1 0x64 DUP3 ADD MSTORE PUSH1 0x84 ADD PUSH2 0x50C JUMP JUMPDEST PUSH1 0x0 DUP4 DUP2 MSTORE PUSH1 0xD PUSH1 0x20 MSTORE PUSH1 0x40 SWAP1 KECCAK256 PUSH1 0xA DUP2 ADD SLOAD PUSH1 0x9 SWAP1 SWAP2 ADD SLOAD SUB PUSH2 0xA3E JUMPI PUSH1 0x0 DUP4 DUP2 MSTORE PUSH1 0xD PUSH1 0x20 MSTORE PUSH1 0x40 DUP2 KECCAK256 PUSH1 0xB ADD DUP1 SLOAD PUSH1 0xFF NOT AND PUSH1 0x4 OR SWAP1 SSTORE DUP1 DUP1 PUSH2 0x719 DUP7 DUP6 PUSH2 0x2320 JUMP JUMPDEST PUSH2 0x72A DUP4 DUP3 PUSH2 0x2320 JUMP JUMPDEST POP POP POP JUMP JUMPDEST PUSH1 0xA PUSH1 0x20 MSTORE DUP2 PUSH1 0x0 MSTORE PUSH1 0x40 PUSH1 0x0 KECCAK256 DUP2 DUP2 SLOAD DUP2 LT PUSH2 0x74E JUMPI PUSH1 0x0 DUP1 REVERT JUMPDEST PUSH2 0xA71 PUSH2 0x3FE8 JUMP JUMPDEST PUSH1 0x8 DUP3 DUP2 SLOAD DUP2 LT PUSH2 0xA84 JUMPI PUSH2 0xA84 PUSH2 0x4C05 JUMP JUMPDEST PUSH1 0x0 SWAP2 DUP3 MSTORE PUSH1 0x20 SWAP1 SWAP2 KECCAK256 PUSH1 0x40 DUP1 MLOAD PUSH2 0x120 DUP2 ADD SWAP1 SWAP2 MSTORE PUSH1 0x9 SWAP1 SWAP3 MUL ADD DUP1 SLOAD DUP3 SWAP1 PUSH1 0xFF AND PUSH1 0x1 DUP2 GT ISZERO PUSH2 0xAB8 JUMPI PUSH2 0xAB8 PUSH2 0x425F JUMP JUMPDEST PUSH1 0x1 DUP2 GT ISZERO PUSH2 0xAC9 JUMPI PUSH2 0xAC9 PUSH2 0x425F JUMP JUMPDEST DUP2 MSTORE PUSH1 0x1 DUP3 ADD SLOAD PUSH1 0x20 DUP3 ADD MSTORE PUSH1 0x2 DUP3 ADD SLOAD PUSH1 0x40 DUP3 ADD MSTORE PUSH1 0x3 DUP3 ADD SLOAD PUSH1 0x60 DUP3 ADD MSTORE PUSH1 0x4 DUP1 DUP4 ADD SLOAD PUSH1 0x80 SWAP1 SWAP3 ADD SWAP2 PUSH1 0xFF AND SWAP1 DUP2 GT ISZERO PUSH2 0xB08 JUMPI PUSH2 0xB08 PUSH2 0x425F JUMP JUMPDEST PUSH1 0x4 DUP2 GT ISZERO PUSH2 0xB19 JUMPI PUSH2 0xB19 PUSH2 0x425F JUMP JUMPDEST DUP2 MSTORE PUSH1 0x20 ADD PUSH1 0x5 DUP3 ADD DUP1 SLOAD PUSH2 0xB2D SWAP1 PUSH2 0x4C1B JUMP JUMPDEST DUP1 PUSH1 0x1F ADD PUSH1 0x20 DUP1 SWAP2 DIV MUL PUSH1 0x20 ADD PUSH1 0x40 MLOAD SWAP1 DUP2 ADD PUSH1 0x40 MSTORE DUP1 SWAP3 SWAP2 SWAP1 DUP2 DUP2 MSTORE PUSH1 0x20 ADD DUP3 DUP1 SLOAD PUSH2 0xB59 SWAP1 PUSH2 0x4C1B JUMP JUMPDEST DUP1 ISZERO PUSH2 0xBA6 JUMPI DUP1 PUSH1 0x1F LT PUSH2 0xB7B JUMPI PUSH2 0x100 DUP1 DUP4 SLOAD DIV MUL DUP4 MSTORE SWAP2 PUSH1 0x20 ADD SWAP2 PUSH2 0xBA6 JUMP JUMPDEST DUP3 ADD SWAP2 SWAP1 PUSH1 0x0 MSTORE PUSH1 0x20 PUSH1 0x0 KECCAK256 SWAP1 JUMPDEST DUP2 SLOAD DUP2 MSTORE SWAP1 PUSH1 0x1 ADD SWAP1 PUSH1 0x20 ADD DUP1 DUP4 GT PUSH2 0xB89 JUMPI DUP3 SWAP1 SUB PUSH1 0x1F AND DUP3 ADD SWAP2 JUMPDEST POP POP POP POP POP DUP2 MSTORE PUSH1 0x20 ADD PUSH1 0x6 DUP3 ADD DUP1 SLOAD DUP1 PUSH1 0x20 MUL PUSH1 0x20 ADD PUSH1 0x40 MLOAD SWAP1 DUP2 ADD PUSH1 0x40 MSTORE DUP1 SWAP3 SWAP2 SWAP1 DUP2 DUP2 MSTORE PUSH1 0x20 ADD DUP3 DUP1 SLOAD DUP1 ISZERO PUSH2 0xBFE JUMPI PUSH1 0x20 MUL DUP3 ADD SWAP2 SWAP1 PUSH1 0x0 MSTORE PUSH1 0x20 PUSH1 0x0 KECCAK256 SWAP1 JUMPDEST DUP2 SLOAD DUP2 MSTORE PUSH1 0x20 ADD SWAP1 PUSH1 0x1 ADD SWAP1 DUP1 DUP4 GT PUSH2 0xBEA JUMPI JUMPDEST POP POP POP POP POP DUP2 MSTORE PUSH1 0x20 ADD PUSH1 0x7 DUP3 ADD DUP1 SLOAD DUP1 PUSH1 0x20 MUL PUSH1 0x20 ADD PUSH1 0x40 MLOAD SWAP1 DUP2 ADD PUSH1 0x40 MSTORE DUP1 SWAP3 SWAP2 SWAP1 DUP2 DUP2 MSTORE PUSH1 0x20 ADD DUP3 DUP1 SLOAD DUP1 ISZERO PUSH2 0xC56 JUMPI PUSH1 0x20 MUL DUP3 ADD SWAP2 SWAP1 PUSH1 0x0 MSTORE PUSH1 0x20 PUSH1 0x0 KECCAK256 SWAP1 JUMPDEST DUP2 SLOAD DUP2 MSTORE PUSH1 0x20 ADD SWAP1 PUSH1 0x1 ADD SWAP1 DUP1 DUP4 GT PUSH2 0xC42 JUMPI JUMPDEST POP POP POP POP POP DUP2 MSTORE PUSH1 0x20 ADD PUSH1 0x8 DUP3 ADD DUP1 SLOAD DUP1 PUSH1 0x20 MUL PUSH1 0x20 ADD PUSH1 0x40 MLOAD SWAP1 DUP2 ADD PUSH1 0x40 MSTORE DUP1 SWAP3 SWAP2 SWAP1 DUP2 DUP2 MSTORE PUSH1 0x20 ADD DUP3 DUP1 SLOAD DUP1 ISZERO PUSH2 0xCAE JUMPI PUSH1 0x20 MUL DUP3 ADD SWAP2 SWAP1 PUSH1 0x0 MSTORE PUSH1 0x20 PUSH1 0x0 KECCAK256 SWAP1 JUMPDEST DUP2 SLOAD DUP2 MSTORE PUSH1 0x20 ADD SWAP1 PUSH1 0x1 ADD SWAP1 DUP1 DUP4 GT PUSH2 0xC9A JUMPI JUMPDEST POP POP POP POP POP DUP2 MSTORE POP POP SWAP1 POP SWAP2 SWAP1 POP JUMP JUMPDEST PUSH1 0x8 DUP2 DUP2 SLOAD DUP2 LT PUSH2 0xCCE JUMPI PUSH1 0x0 DUP1 REVERT JUMPDEST PUSH1 0x0 SWAP2 DUP3 MSTORE PUSH1 0x20 SWAP1 SWAP2 KECCAK256 PUSH1 0x9 SWAP1 SWAP2 MUL ADD DUP1 SLOAD PUSH1 0x1 DUP3 ADD SLOAD PUSH1 0x2 DUP4 ADD SLOAD PUSH1 0x3 DUP5 ADD SLOAD PUSH1 0x4 DUP6 ADD SLOAD PUSH1 0x5 DUP7 ADD DUP1 SLOAD PUSH1 0xFF SWAP7 DUP8 AND SWAP9 POP SWAP5 SWAP7 SWAP4 SWAP6 SWAP3 SWAP5 SWAP3 SWAP1 SWAP2 AND SWAP3 SWAP2 PUSH2 0xD16 SWAP1 PUSH2 0x4C1B JUMP JUMPDEST DUP1 PUSH1 0x1F ADD PUSH1 0x20 DUP1 SWAP2 DIV MUL PUSH1 0x20 ADD PUSH1 0x40 MLOAD SWAP1 DUP2 ADD PUSH1 0x40 MSTORE DUP1 SWAP3 SWAP2 SWAP1 DUP2 DUP2 MSTORE PUSH1 0x20 ADD DUP3 DUP1 SLOAD PUSH2 0xD42 SWAP1 PUSH2 0x4C1B JUMP JUMPDEST DUP1 ISZERO PUSH2 0xD8F JUMPI DUP1 PUSH1 0x1F LT PUSH2 0xD64 JUMPI PUSH2 0x100 DUP1 DUP4 SLOAD DIV MUL DUP4 MSTORE SWAP2 PUSH1 0x20 ADD SWAP2 PUSH2 0xD8F JUMP JUMPDEST DUP3 ADD SWAP2 SWAP1 PUSH1 0x0 MSTORE PUSH1 0x20 PUSH1 0x0 KECCAK256 SWAP1 JUMPDEST DUP2 SLOAD DUP2 MSTORE SWAP1 PUSH1 0x1 ADD SWAP1 PUSH1 0x20 ADD DUP1 DUP4 GT PUSH2 0xD72 JUMPI DUP3 SWAP1 SUB PUSH1 0x1F AND DUP3 ADD SWAP2 JUMPDEST POP POP POP POP POP SWAP1 POP DUP7 JUMP JUMPDEST PUSH1 0x7 PUSH1 0x40 MLOAD DUP1 PUSH1 0xC0 ADD PUSH1 0x40 MSTORE DUP1 PUSH1 0x0 DUP2 MSTORE PUSH1 0x20 ADD DUP7 PUSH8 0xFFFFFFFFFFFFFFFF AND DUP2 MSTORE PUSH1 0x20 ADD DUP6 PUSH1 0x1 DUP2 GT ISZERO PUSH2 0xDCF JUMPI PUSH2 0xDCF PUSH2 0x425F JUMP JUMPDEST DUP2 MSTORE PUSH1 0x20 DUP2 ADD DUP6 SWAP1 MSTORE PUSH1 0x40 DUP2 ADD DUP5 SWAP1 MSTORE PUSH1 0x60 ADD PUSH1 0x2 SWAP1 MSTORE DUP2 SLOAD PUSH1 0x1 DUP2 DUP2 ADD DUP5 SSTORE PUSH1 0x0 SWAP4 DUP5 MSTORE PUSH1 0x20 SWAP4 DUP5 SWAP1 KECCAK256 DUP4 MLOAD PUSH1 0x6 SWAP1 SWAP4 MUL ADD SWAP2 DUP3 SSTORE SWAP3 DUP3 ADD MLOAD DUP2 DUP5 ADD SSTORE PUSH1 0x40 DUP3 ADD MLOAD PUSH1 0x2 DUP3 ADD DUP1 SLOAD SWAP4 SWAP5 SWAP3 SWAP4 SWAP2 SWAP3 SWAP1 SWAP2 PUSH1 0xFF NOT AND SWAP1 DUP4 DUP2 DUP2 GT ISZERO PUSH2 0xE36 JUMPI PUSH2 0xE36 PUSH2 0x425F JUMP JUMPDEST MUL OR SWAP1 SSTORE POP PUSH1 0x60 DUP3 ADD MLOAD PUSH1 0x3 DUP3 ADD SWAP1 PUSH2 0xE4F SWAP1 DUP3 PUSH2 0x4CA9 JUMP JUMPDEST POP PUSH1 0x80 DUP3 ADD MLOAD PUSH1 0x4 DUP3 ADD SWAP1 PUSH2 0xE64 SWAP1 DUP3 PUSH2 0x4CA9 JUMP JUMPDEST POP PUSH1 0xA0 DUP3 ADD MLOAD PUSH1 0x5 DUP3 ADD DUP1 SLOAD PUSH1 0xFF NOT AND PUSH1 0x1 DUP4 PUSH1 0x2 DUP2 GT ISZERO PUSH2 0xE88 JUMPI PUSH2 0xE88 PUSH2 0x425F JUMP JUMPDEST MUL OR SWAP1 SSTORE POP POP POP POP POP POP POP JUMP JUMPDEST PUSH2 0xE9D PUSH2 0x2187 JUMP JUMPDEST PUSH1 0x1 PUSH1 0x1 PUSH1 0xA0 SHL SUB DUP2 AND PUSH2 0xEF3 JUMPI PUSH1 0x40 MLOAD PUSH3 0x461BCD PUSH1 0xE5 SHL DUP2 MSTORE PUSH1 0x20 PUSH1 0x4 DUP3 ADD MSTORE PUSH1 0x1B PUSH1 0x24 DUP3 ADD MSTORE PUSH32 0x696E76616C6964204D5553444320746F6B656E20616464726573730000000000 PUSH1 0x44 DUP3 ADD MSTORE PUSH1 0x64 ADD PUSH2 0x50C JUMP JUMPDEST PUSH1 0x4 DUP1 SLOAD PUSH20 0xFFFFFFFFFFFFFFFFFFFFFFFFFFFFFFFFFFFFFFFF NOT AND PUSH1 0x1 PUSH1 0x1 PUSH1 0xA0 SHL SUB SWAP3 SWAP1 SWAP3 AND SWAP2 SWAP1 SWAP2 OR SWAP1 SSTORE JUMP JUMPDEST PUSH2 0xF2A PUSH2 0x2187 JUMP JUMPDEST PUSH2 0xF34 PUSH1 0x0 PUSH2 0x2541 JUMP JUMPDEST JUMP JUMPDEST PUSH2 0xF3E PUSH2 0x2187 JUMP JUMPDEST PUSH1 0x5 SLOAD PUSH1 0x58 SHL PUSH11 0xFFFFFFFFFFFFFFFFFFFFFF NOT AND ISZERO PUSH2 0xF66 JUMPI PUSH1 0x5 SLOAD PUSH2 0xF66 SWAP1 PUSH1 0x58 SHL PUSH2 0x21E1 JUMP JUMPDEST PUSH1 0x8 DUP3 DUP2 SLOAD DUP2 LT PUSH2 0xF79 JUMPI PUSH2 0xF79 PUSH2 0x4C05 JUMP JUMPDEST PUSH1 0x0 SWAP2 DUP3 MSTORE PUSH1 0x20 DUP1 DUP4 KECCAK256 DUP5 MLOAD PUSH1 0x8 PUSH1 0x9 SWAP5 DUP6 MUL SWAP1 SWAP3 ADD DUP3 ADD DUP1 SLOAD PUSH1 0x1 DUP2 DUP2 ADD DUP4 SSTORE SWAP2 DUP8 MSTORE DUP5 DUP8 KECCAK256 ADD SWAP2 SWAP1 SWAP2 SSTORE DUP6 MLOAD DUP6 MSTORE PUSH1 0xD DUP4 MSTORE PUSH1 0x40 SWAP5 DUP6 SWAP1 KECCAK256 DUP7 MLOAD DUP2 SSTORE SWAP3 DUP7 ADD MLOAD DUP4 DUP3 ADD SSTORE SWAP4 DUP6 ADD MLOAD PUSH1 0x2 DUP4 ADD SSTORE PUSH1 0x60 DUP6 ADD MLOAD PUSH1 0x3 DUP4 ADD SSTORE PUSH1 0x80 DUP6 ADD MLOAD PUSH1 0x4 DUP4 ADD SSTORE PUSH1 0xA0 DUP6 ADD MLOAD PUSH1 0x5 DUP4 ADD SSTORE PUSH1 0xC0 DUP6 ADD MLOAD PUSH1 0x6 DUP4 ADD SSTORE PUSH1 0xE0 DUP6 ADD MLOAD PUSH1 0x7 DUP4 ADD SSTORE PUSH2 0x100 DUP6 ADD MLOAD DUP3 DUP3 ADD SSTORE PUSH2 0x120 DUP6 ADD MLOAD SWAP3 DUP3 ADD SWAP3 SWAP1 SWAP3 SSTORE PUSH2 0x140 DUP5 ADD MLOAD PUSH1 0xA DUP3 ADD SSTORE PUSH2 0x160 DUP5 ADD MLOAD PUSH1 0xB DUP3 ADD DUP1 SLOAD DUP7 SWAP6 SWAP4 SWAP5 SWAP3 SWAP4 SWAP2 SWAP3 PUSH1 0xFF NOT SWAP1 SWAP2 AND SWAP2 SWAP1 DUP5 SWAP1 DUP2 GT ISZERO PUSH2 0x1049 JUMPI PUSH2 0x1049 PUSH2 0x425F JUMP JUMPDEST MUL OR SWAP1 SSTORE POP PUSH2 0x180 DUP3 ADD MLOAD PUSH1 0xC DUP3 ADD SWAP1 PUSH2 0x1063 SWAP1 DUP3 PUSH2 0x4CA9 JUMP JUMPDEST POP POP POP POP POP JUMP JUMPDEST PUSH1 0x60 PUSH2 0x10A7 PUSH1 0x40 MLOAD DUP1 PUSH1 0xA0 ADD PUSH1 0x40 MSTORE DUP1 PUSH1 0x60 DUP2 MSTORE PUSH1 0x20 ADD PUSH1 0x0 PUSH1 0x1 PUSH1 0x1 PUSH1 0xA0 SHL SUB AND DUP2 MSTORE PUSH1 0x20 ADD PUSH1 0x0 DUP2 MSTORE PUSH1 0x20 ADD PUSH1 0x60 DUP2 MSTORE PUSH1 0x20 ADD PUSH1 0x60 DUP2 MSTORE POP SWAP1 JUMP JUMPDEST PUSH1 0x0 PUSH2 0x10B2 DUP6 PUSH2 0x25A0 JUMP JUMPDEST DUP7 DUP7 PUSH1 0x40 MLOAD PUSH1 0x20 ADD PUSH2 0x10C6 SWAP4 SWAP3 SWAP2 SWAP1 PUSH2 0x4D68 JUMP JUMPDEST PUSH1 0x40 DUP1 MLOAD PUSH1 0x1F NOT DUP2 DUP5 SUB ADD DUP2 MSTORE DUP3 DUP3 MSTORE DUP1 MLOAD PUSH1 0x20 DUP1 DUP4 ADD SWAP2 SWAP1 SWAP2 KECCAK256 PUSH1 0x0 DUP1 DUP7 MSTORE DUP6 DUP4 ADD DUP1 DUP7 MSTORE SWAP2 SWAP1 SWAP2 MSTORE PUSH1 0xFF DUP10 DUP6 ADD CALLDATALOAD AND SWAP4 DUP6 ADD SWAP4 SWAP1 SWAP4 MSTORE DUP8 CALLDATALOAD PUSH1 0x60 DUP6 ADD MSTORE DUP8 ADD CALLDATALOAD PUSH1 0x80 DUP5 ADD MSTORE SWAP3 POP SWAP1 PUSH1 0x1 SWAP1 PUSH1 0xA0 ADD PUSH1 0x20 PUSH1 0x40 MLOAD PUSH1 0x20 DUP2 SUB SWAP1 DUP1 DUP5 SUB SWAP1 DUP6 GAS STATICCALL ISZERO DUP1 ISZERO PUSH2 0x1138 JUMPI RETURNDATASIZE PUSH1 0x0 DUP1 RETURNDATACOPY RETURNDATASIZE PUSH1 0x0 REVERT JUMPDEST POP POP PUSH1 0x40 MLOAD PUSH1 0x1F NOT ADD MLOAD PUSH1 0x1 PUSH1 0x1 PUSH1 0xA0 SHL SUB DUP2 AND PUSH1 0x20 DUP7 ADD MSTORE SWAP2 POP PUSH1 0x0 SWAP1 POP PUSH2 0x1161 DUP9 DUP9 PUSH2 0x2641 JUMP JUMPDEST SWAP1 POP CHAINID DUP2 PUSH1 0xA0 ADD MLOAD EQ PUSH2 0x11A0 JUMPI PUSH1 0x40 MLOAD PUSH32 0x362C833700000000000000000000000000000000000000000000000000000000 DUP2 MSTORE PUSH1 0x4 ADD PUSH1 0x40 MLOAD DUP1 SWAP2 SUB SWAP1 REVERT JUMPDEST PUSH1 0x1 PUSH1 0x40 MLOAD PUSH2 0x11AF SWAP2 SWAP1 PUSH2 0x4DBC JUMP JUMPDEST PUSH1 0x40 MLOAD DUP1 SWAP2 SUB SWAP1 KECCAK256 DUP2 PUSH1 0x0 ADD MLOAD DUP1 MLOAD SWAP1 PUSH1 0x20 ADD KECCAK256 EQ PUSH2 0x11E1 JUMPI PUSH1 0x40 MLOAD PUSH4 0x283D62BD PUSH1 0xE0 SHL DUP2 MSTORE PUSH1 0x4 ADD PUSH1 0x40 MLOAD DUP1 SWAP2 SUB SWAP1 REVERT JUMPDEST DUP1 MLOAD DUP5 MSTORE PUSH1 0x20 DUP2 ADD MLOAD PUSH1 0x1 PUSH1 0x1 PUSH1 0xA0 SHL SUB DUP4 DUP2 AND SWAP2 AND EQ PUSH2 0x122E JUMPI PUSH1 0x40 MLOAD PUSH32 0x5CC02E100000000000000000000000000000000000000000000000000000000 DUP2 MSTORE PUSH1 0x4 ADD PUSH1 0x40 MLOAD DUP1 SWAP2 SUB SWAP1 REVERT JUMPDEST PUSH2 0x120 DUP2 ADD MLOAD MLOAD ISZERO DUP1 ISZERO SWAP1 PUSH2 0x1250 JUMPI POP PUSH2 0x124C DUP2 PUSH2 0x120 ADD MLOAD PUSH2 0x2C32 JUMP JUMPDEST TIMESTAMP GT ISZERO JUMPDEST ISZERO PUSH2 0x1287 JUMPI PUSH1 0x40 MLOAD PUSH32 0x299D02F100000000000000000000000000000000000000000000000000000000 DUP2 MSTORE PUSH1 0x4 ADD PUSH1 0x40 MLOAD DUP1 SWAP2 SUB SWAP1 REVERT JUMPDEST PUSH2 0x100 DUP2 ADD MLOAD MLOAD ISZERO PUSH2 0x12AE JUMPI PUSH1 0x0 PUSH2 0x12A3 DUP3 PUSH2 0x100 ADD MLOAD PUSH2 0x2C32 JUMP JUMPDEST PUSH1 0x40 DUP7 ADD MSTORE POP PUSH2 0x12C1 JUMP JUMPDEST PUSH2 0x12BB PUSH3 0x15180 TIMESTAMP PUSH2 0x4C4F JUMP JUMPDEST PUSH1 0x40 DUP6 ADD MSTORE JUMPDEST DUP4 PUSH1 0x40 ADD MLOAD TIMESTAMP LT PUSH2 0x12E5 JUMPI PUSH1 0x40 MLOAD PUSH4 0xB171155 PUSH1 0xE4 SHL DUP2 MSTORE PUSH1 0x4 ADD PUSH1 0x40 MLOAD DUP1 SWAP2 SUB SWAP1 REVERT JUMPDEST PUSH1 0x40 DUP2 ADD MLOAD PUSH1 0x60 DUP6 ADD MSTORE PUSH2 0x160 DUP2 ADD MLOAD MLOAD PUSH8 0xFFFFFFFFFFFFFFFF DUP2 GT ISZERO PUSH2 0x130E JUMPI PUSH2 0x130E PUSH2 0x44EF JUMP JUMPDEST PUSH1 0x40 MLOAD SWAP1 DUP1 DUP3 MSTORE DUP1 PUSH1 0x20 MUL PUSH1 0x20 ADD DUP3 ADD PUSH1 0x40 MSTORE DUP1 ISZERO PUSH2 0x1341 JUMPI DUP2 PUSH1 0x20 ADD JUMPDEST PUSH1 0x60 DUP2 MSTORE PUSH1 0x20 ADD SWAP1 PUSH1 0x1 SWAP1 SUB SWAP1 DUP2 PUSH2 0x132C JUMPI SWAP1 POP JUMPDEST POP PUSH1 0x80 DUP6 ADD MSTORE PUSH1 0x0 JUMPDEST DUP2 PUSH2 0x160 ADD MLOAD MLOAD DUP2 LT ISZERO PUSH2 0x13A0 JUMPI DUP2 PUSH2 0x160 ADD MLOAD DUP2 DUP2 MLOAD DUP2 LT PUSH2 0x136F JUMPI PUSH2 0x136F PUSH2 0x4C05 JUMP JUMPDEST PUSH1 0x20 MUL PUSH1 0x20 ADD ADD MLOAD DUP6 PUSH1 0x80 ADD MLOAD DUP3 DUP2 MLOAD DUP2 LT PUSH2 0x138D JUMPI PUSH2 0x138D PUSH2 0x4C05 JUMP JUMPDEST PUSH1 0x20 SWAP1 DUP2 MUL SWAP2 SWAP1 SWAP2 ADD ADD MSTORE PUSH1 0x1 ADD PUSH2 0x134A JUMP JUMPDEST POP PUSH1 0x0 PUSH2 0x13DC PUSH1 0x2 SLOAD PUSH1 0x0 DUP1 SHL DUP8 PUSH1 0x40 MLOAD PUSH1 0x20 ADD PUSH2 0x13BE SWAP2 SWAP1 PUSH2 0x4E31 JUMP JUMPDEST PUSH1 0x40 DUP1 MLOAD PUSH1 0x1F NOT DUP2 DUP5 SUB ADD DUP2 MSTORE PUSH1 0x20 DUP4 ADD SWAP1 SWAP2 MSTORE PUSH1 0x0 DUP3 MSTORE SWAP1 PUSH2 0x2CA1 JUMP JUMPDEST SWAP6 POP POP POP POP POP POP JUMPDEST SWAP4 SWAP3 POP POP POP JUMP JUMPDEST PUSH2 0x13F3 PUSH2 0x2187 JUMP JUMPDEST PUSH1 0x1 PUSH1 0x0 DUP3 DUP2 MSTORE PUSH1 0xD PUSH1 0x20 MSTORE PUSH1 0x40 SWAP1 KECCAK256 PUSH1 0xB ADD SLOAD PUSH1 0xFF AND PUSH1 0x8 DUP2 GT ISZERO PUSH2 0x141B JUMPI PUSH2 0x141B PUSH2 0x425F JUMP JUMPDEST EQ PUSH2 0x1468 JUMPI PUSH1 0x40 MLOAD PUSH3 0x461BCD PUSH1 0xE5 SHL DUP2 MSTORE PUSH1 0x20 PUSH1 0x4 DUP3 ADD MSTORE PUSH1 0x1E PUSH1 0x24 DUP3 ADD MSTORE PUSH32 0x63616E6E6F742073656C6C20696E6163746976652070726F7879206265740000 PUSH1 0x44 DUP3 ADD MSTORE PUSH1 0x64 ADD PUSH2 0x50C JUMP JUMPDEST PUSH1 0x0 DUP2 DUP2 MSTORE PUSH1 0xD PUSH1 0x20 MSTORE PUSH1 0x40 DUP1 DUP3 KECCAK256 PUSH1 0xB ADD DUP1 SLOAD PUSH1 0xFF NOT AND PUSH1 0x3 OR SWAP1 SSTORE MLOAD DUP3 SWAP2 PUSH32 0x828BE99A2E041A34078AA5AB12EA9B20AA49C0D2197209A03713C5E015DC8E69 SWAP2 LOG2 POP JUMP JUMPDEST PUSH1 0xD PUSH1 0x20 MSTORE DUP1 PUSH1 0x0 MSTORE PUSH1 0x40 PUSH1 0x0 KECCAK256 PUSH1 0x0 SWAP2 POP SWAP1 POP DUP1 PUSH1 0x0 ADD SLOAD SWAP1 DUP1 PUSH1 0x1 ADD SLOAD SWAP1 DUP1 PUSH1 0x2 ADD SLOAD SWAP1 DUP1 PUSH1 0x3 ADD SLOAD SWAP1 DUP1 PUSH1 0x4 ADD SLOAD SWAP1 DUP1 PUSH1 0x5 ADD SLOAD SWAP1 DUP1 PUSH1 0x6 ADD SLOAD SWAP1 DUP1 PUSH1 0x7 ADD SLOAD SWAP1 DUP1 PUSH1 0x8 ADD SLOAD SWAP1 DUP1 PUSH1 0x9 ADD SLOAD SWAP1 DUP1 PUSH1 0xA ADD SLOAD SWAP1 DUP1 PUSH1 0xB ADD PUSH1 0x0 SWAP1 SLOAD SWAP1 PUSH2 0x100 EXP SWAP1 DIV PUSH1 0xFF AND SWAP1 DUP1 PUSH1 0xC ADD DUP1 SLOAD PUSH2 0x1526 SWAP1 PUSH2 0x4C1B JUMP JUMPDEST DUP1 PUSH1 0x1F ADD PUSH1 0x20 DUP1 SWAP2 DIV MUL PUSH1 0x20 ADD PUSH1 0x40 MLOAD SWAP1 DUP2 ADD PUSH1 0x40 MSTORE DUP1 SWAP3 SWAP2 SWAP1 DUP2 DUP2 MSTORE PUSH1 0x20 ADD DUP3 DUP1 SLOAD PUSH2 0x1552 SWAP1 PUSH2 0x4C1B JUMP JUMPDEST DUP1 ISZERO PUSH2 0x159F JUMPI DUP1 PUSH1 0x1F LT PUSH2 0x1574 JUMPI PUSH2 0x100 DUP1 DUP4 SLOAD DIV MUL DUP4 MSTORE SWAP2 PUSH1 0x20 ADD SWAP2 PUSH2 0x159F JUMP JUMPDEST DUP3 ADD SWAP2 SWAP1 PUSH1 0x0 MSTORE PUSH1 0x20 PUSH1 0x0 KECCAK256 SWAP1 JUMPDEST DUP2 SLOAD DUP2 MSTORE SWAP1 PUSH1 0x1 ADD SWAP1 PUSH1 0x20 ADD DUP1 DUP4 GT PUSH2 0x1582 JUMPI DUP3 SWAP1 SUB PUSH1 0x1F AND DUP3 ADD SWAP2 JUMPDEST POP POP POP POP POP SWAP1 POP DUP14 JUMP JUMPDEST PUSH1 0x0 DUP1 PUSH2 0x15B5 DUP4 PUSH2 0x2D93 JUMP JUMPDEST PUSH1 0x1 PUSH1 0x1 PUSH1 0xA0 SHL SUB AND PUSH1 0x0 SWAP1 DUP2 MSTORE PUSH1 0xC PUSH1 0x20 MSTORE PUSH1 0x40 SWAP1 KECCAK256 SLOAD SWAP4 SWAP3 POP POP POP JUMP JUMPDEST PUSH2 0x15DC PUSH2 0x2187 JUMP JUMPDEST PUSH1 0x5 DUP1 SLOAD PUSH32 0xFFFFFFFFFFFFFFFFFFFFFF000000000000000000000000000000000000000000 AND PUSH1 0x58 SWAP3 SWAP1 SWAP3 SHR SWAP2 SWAP1 SWAP2 OR SWAP1 SSTORE JUMP JUMPDEST PUSH1 0x0 CALLER PUSH2 0x165F JUMPI PUSH1 0x40 MLOAD PUSH3 0x461BCD PUSH1 0xE5 SHL DUP2 MSTORE PUSH1 0x20 PUSH1 0x4 DUP3 ADD MSTORE PUSH1 0x17 PUSH1 0x24 DUP3 ADD MSTORE PUSH32 0x61757468656E7469636174696F6E207265717569726564000000000000000000 PUSH1 0x44 DUP3 ADD MSTORE PUSH1 0x64 ADD PUSH2 0x50C JUMP JUMPDEST POP CALLER PUSH1 0x0 SWAP1 DUP2 MSTORE PUSH1 0xC PUSH1 0x20 MSTORE PUSH1 0x40 SWAP1 KECCAK256 SLOAD SWAP1 JUMP JUMPDEST PUSH1 0x60 CALLER PUSH2 0x16C2 JUMPI PUSH1 0x40 MLOAD PUSH3 0x461BCD PUSH1 0xE5 SHL DUP2 MSTORE PUSH1 0x20 PUSH1 0x4 DUP3 ADD MSTORE PUSH1 0x17 PUSH1 0x24 DUP3 ADD MSTORE PUSH32 0x61757468656E7469636174696F6E207265717569726564000000000000000000 PUSH1 0x44 DUP3 ADD MSTORE PUSH1 0x64 ADD PUSH2 0x50C JUMP JUMPDEST CALLER PUSH1 0x0 SWAP1 DUP2 MSTORE PUSH1 0xA PUSH1 0x20 SWAP1 DUP2 MSTORE PUSH1 0x40 SWAP2 DUP3 SWAP1 KECCAK256 DUP1 SLOAD DUP4 MLOAD DUP2 DUP5 MUL DUP2 ADD DUP5 ADD SWAP1 SWAP5 MSTORE DUP1 DUP5 MSTORE SWAP1 SWAP2 DUP4 ADD DUP3 DUP3 DUP1 ISZERO PUSH2 0x1717 JUMPI PUSH1 0x20 MUL DUP3 ADD SWAP2 SWAP1 PUSH1 0x0 MSTORE PUSH1 0x20 PUSH1 0x0 KECCAK256 SWAP1 JUMPDEST DUP2 SLOAD DUP2 MSTORE PUSH1 0x20 ADD SWAP1 PUSH1 0x1 ADD SWAP1 DUP1 DUP4 GT PUSH2 0x1703 JUMPI JUMPDEST POP POP POP POP POP SWAP1 POP SWAP1 JUMP JUMPDEST PUSH1 0x60 PUSH1 0x1 DUP1 SLOAD PUSH2 0x1730 SWAP1 PUSH2 0x4C1B JUMP JUMPDEST DUP1 PUSH1 0x1F ADD PUSH1 0x20 DUP1 SWAP2 DIV MUL PUSH1 0x20 ADD PUSH1 0x40 MLOAD SWAP1 DUP2 ADD PUSH1 0x40 MSTORE DUP1 SWAP3 SWAP2 SWAP1 DUP2 DUP2 MSTORE PUSH1 0x20 ADD DUP3 DUP1 SLOAD PUSH2 0x175C SWAP1 PUSH2 0x4C1B JUMP JUMPDEST DUP1 ISZERO PUSH2 0x1717 JUMPI DUP1 PUSH1 0x1F LT PUSH2 0x177E JUMPI PUSH2 0x100 DUP1 DUP4 SLOAD DIV MUL DUP4 MSTORE SWAP2 PUSH1 0x20 ADD SWAP2 PUSH2 0x1717 JUMP JUMPDEST DUP3 ADD SWAP2 SWAP1 PUSH1 0x0 MSTORE PUSH1 0x20 PUSH1 0x0 KECCAK256 SWAP1 JUMPDEST DUP2 SLOAD DUP2 MSTORE SWAP1 PUSH1 0x1 ADD SWAP1 PUSH1 0x20 ADD DUP1 DUP4 GT PUSH2 0x178C JUMPI POP SWAP4 SWAP6 SWAP5 POP POP POP POP POP JUMP JUMPDEST PUSH1 0x60 PUSH1 0x0 PUSH2 0x17B7 DUP4 PUSH2 0x2D93 JUMP JUMPDEST PUSH1 0x1 PUSH1 0x1 PUSH1 0xA0 SHL SUB DUP2 AND PUSH1 0x0 SWAP1 DUP2 MSTORE PUSH1 0xB PUSH1 0x20 SWAP1 DUP2 MSTORE PUSH1 0x40 SWAP2 DUP3 SWAP1 KECCAK256 DUP1 SLOAD DUP4 MLOAD DUP2 DUP5 MUL DUP2 ADD DUP5 ADD SWAP1 SWAP5 MSTORE DUP1 DUP5 MSTORE SWAP4 SWAP5 POP SWAP2 SWAP3 SWAP1 DUP4 ADD DUP3 DUP3 DUP1 ISZERO PUSH2 0x1819 JUMPI PUSH1 0x20 MUL DUP3 ADD SWAP2 SWAP1 PUSH1 0x0 MSTORE PUSH1 0x20 PUSH1 0x0 KECCAK256 SWAP1 JUMPDEST DUP2 SLOAD DUP2 MSTORE PUSH1 0x20 ADD SWAP1 PUSH1 0x1 ADD SWAP1 DUP1 DUP4 GT PUSH2 0x1805 JUMPI JUMPDEST POP POP POP POP POP SWAP2 POP POP SWAP2 SWAP1 POP JUMP JUMPDEST PUSH1 0x60 CALLER PUSH2 0x1875 JUMPI PUSH1 0x40 MLOAD PUSH3 0x461BCD PUSH1 0xE5 SHL DUP2 MSTORE PUSH1 0x20 PUSH1 0x4 DUP3 ADD MSTORE PUSH1 0x17 PUSH1 0x24 DUP3 ADD MSTORE PUSH32 0x61757468656E7469636174696F6E207265717569726564000000000000000000 PUSH1 0x44 DUP3 ADD MSTORE PUSH1 0x64 ADD PUSH2 0x50C JUMP JUMPDEST CALLER PUSH1 0x0 SWAP1 DUP2 MSTORE PUSH1 0xB PUSH1 0x20 SWAP1 DUP2 MSTORE PUSH1 0x40 SWAP2 DUP3 SWAP1 KECCAK256 DUP1 SLOAD DUP4 MLOAD DUP2 DUP5 MUL DUP2 ADD DUP5 ADD SWAP1 SWAP5 MSTORE DUP1 DUP5 MSTORE SWAP1 SWAP2 DUP4 ADD DUP3 DUP3 DUP1 ISZERO PUSH2 0x1717 JUMPI PUSH1 0x20 MUL DUP3 ADD SWAP2 SWAP1 PUSH1 0x0 MSTORE PUSH1 0x20 PUSH1 0x0 KECCAK256 SWAP1 DUP2 SLOAD DUP2 MSTORE PUSH1 0x20 ADD SWAP1 PUSH1 0x1 ADD SWAP1 DUP1 DUP4 GT PUSH2 0x1703 JUMPI POP POP POP POP POP SWAP1 POP SWAP1 JUMP JUMPDEST PUSH1 0x60 PUSH1 0x0 PUSH2 0x18DF DUP4 PUSH2 0x2D93 JUMP JUMPDEST PUSH1 0x1 PUSH1 0x1 PUSH1 0xA0 SHL SUB DUP2 AND PUSH1 0x0 SWAP1 DUP2 MSTORE PUSH1 0xA PUSH1 0x20 SWAP1 DUP2 MSTORE PUSH1 0x40 SWAP2 DUP3 SWAP1 KECCAK256 DUP1 SLOAD DUP4 MLOAD DUP2 DUP5 MUL DUP2 ADD DUP5 ADD SWAP1 SWAP5 MSTORE DUP1 DUP5 MSTORE SWAP4 SWAP5 POP SWAP2 SWAP3 SWAP1 DUP4 ADD DUP3 DUP3 DUP1 ISZERO PUSH2 0x1819 JUMPI PUSH1 0x20 MUL DUP3 ADD SWAP2 SWAP1 PUSH1 0x0 MSTORE PUSH1 0x20 PUSH1 0x0 KECCAK256 SWAP1 DUP2 SLOAD DUP2 MSTORE PUSH1 0x20 ADD SWAP1 PUSH1 0x1 ADD SWAP1 DUP1 DUP4 GT PUSH2 0x1805 JUMPI POP POP POP POP POP SWAP2 POP POP SWAP2 SWAP1 POP JUMP JUMPDEST DUP1 MLOAD DUP3 MLOAD EQ PUSH2 0x199D JUMPI PUSH1 0x40 MLOAD PUSH3 0x461BCD PUSH1 0xE5 SHL DUP2 MSTORE PUSH1 0x20 PUSH1 0x4 DUP3 ADD MSTORE PUSH1 0x18 PUSH1 0x24 DUP3 ADD MSTORE PUSH32 0x6172726179206C656E67746873206D757374206D617463680000000000000000 PUSH1 0x44 DUP3 ADD MSTORE PUSH1 0x64 ADD PUSH2 0x50C JUMP JUMPDEST PUSH1 0x0 DUP5 GT PUSH2 0x1A13 JUMPI PUSH1 0x40 MLOAD PUSH3 0x461BCD PUSH1 0xE5 SHL DUP2 MSTORE PUSH1 0x20 PUSH1 0x4 DUP3 ADD MSTORE PUSH1 0x28 PUSH1 0x24 DUP3 ADD MSTORE PUSH32 0x636F6C6C61746572616C20616D6F756E74206D75737420626520677265617465 PUSH1 0x44 DUP3 ADD MSTORE PUSH32 0x72207468616E2030000000000000000000000000000000000000000000000000 PUSH1 0x64 DUP3 ADD MSTORE PUSH1 0x84 ADD PUSH2 0x50C JUMP JUMPDEST PUSH1 0x0 JUMPDEST DUP3 MLOAD DUP2 LT ISZERO PUSH2 0x1A9D JUMPI PUSH1 0x0 DUP4 DUP3 DUP2 MLOAD DUP2 LT PUSH2 0x1A33 JUMPI PUSH2 0x1A33 PUSH2 0x4C05 JUMP JUMPDEST PUSH1 0x20 MUL PUSH1 0x20 ADD ADD MLOAD PUSH1 0x0 SHR SWAP1 POP PUSH1 0x7 DUP1 SLOAD SWAP1 POP DUP2 LT PUSH2 0x1A94 JUMPI PUSH1 0x40 MLOAD PUSH3 0x461BCD PUSH1 0xE5 SHL DUP2 MSTORE PUSH1 0x20 PUSH1 0x4 DUP3 ADD MSTORE PUSH1 0x16 PUSH1 0x24 DUP3 ADD MSTORE PUSH32 0x696E76616C6964206D61726B6574706C61636520494400000000000000000000 PUSH1 0x44 DUP3 ADD MSTORE PUSH1 0x64 ADD PUSH2 0x50C JUMP JUMPDEST POP PUSH1 0x1 ADD PUSH2 0x1A16 JUMP JUMPDEST POP PUSH1 0x4 SLOAD PUSH2 0x1AB6 SWAP1 PUSH1 0x1 PUSH1 0x1 PUSH1 0xA0 SHL SUB AND CALLER ADDRESS DUP8 PUSH2 0x2E13 JUMP JUMPDEST PUSH1 0x8 DUP1 SLOAD PUSH1 0x40 DUP1 MLOAD PUSH2 0x120 DUP2 ADD SWAP1 SWAP2 MSTORE SWAP1 SWAP2 SWAP1 DUP1 DUP9 PUSH1 0x1 DUP2 GT ISZERO PUSH2 0x1ADC JUMPI PUSH2 0x1ADC PUSH2 0x425F JUMP JUMPDEST DUP2 MSTORE PUSH1 0x20 ADD DUP8 DUP2 MSTORE PUSH1 0x20 ADD PUSH1 0x0 DUP2 MSTORE PUSH1 0x20 ADD DUP7 DUP2 MSTORE PUSH1 0x20 ADD PUSH1 0x0 PUSH1 0x4 DUP2 GT ISZERO PUSH2 0x1B07 JUMPI PUSH2 0x1B07 PUSH2 0x425F JUMP JUMPDEST DUP2 MSTORE PUSH1 0x20 ADD PUSH1 0x40 MLOAD DUP1 PUSH1 0x20 ADD PUSH1 0x40 MSTORE DUP1 PUSH1 0x0 DUP2 MSTORE POP DUP2 MSTORE PUSH1 0x20 ADD DUP6 DUP2 MSTORE PUSH1 0x20 ADD DUP5 DUP2 MSTORE PUSH1 0x20 ADD PUSH1 0x0 PUSH8 0xFFFFFFFFFFFFFFFF DUP2 GT ISZERO PUSH2 0x1B47 JUMPI PUSH2 0x1B47 PUSH2 0x44EF JUMP JUMPDEST PUSH1 0x40 MLOAD SWAP1 DUP1 DUP3 MSTORE DUP1 PUSH1 0x20 MUL PUSH1 0x20 ADD DUP3 ADD PUSH1 0x40 MSTORE DUP1 ISZERO PUSH2 0x1B70 JUMPI DUP2 PUSH1 0x20 ADD PUSH1 0x20 DUP3 MUL DUP1 CALLDATASIZE DUP4 CALLDATACOPY ADD SWAP1 POP JUMPDEST POP SWAP1 MSTORE DUP2 SLOAD PUSH1 0x1 DUP2 DUP2 ADD DUP5 SSTORE PUSH1 0x0 SWAP4 DUP5 MSTORE PUSH1 0x20 SWAP1 SWAP4 KECCAK256 DUP3 MLOAD PUSH1 0x9 SWAP1 SWAP3 MUL ADD DUP1 SLOAD SWAP3 SWAP4 SWAP1 SWAP3 DUP4 SWAP2 PUSH1 0xFF NOT SWAP1 SWAP2 AND SWAP1 DUP4 DUP2 DUP2 GT ISZERO PUSH2 0x1BAE JUMPI PUSH2 0x1BAE PUSH2 0x425F JUMP JUMPDEST MUL OR SWAP1 SSTORE POP PUSH1 0x20 DUP3 ADD MLOAD DUP2 PUSH1 0x1 ADD SSTORE PUSH1 0x40 DUP3 ADD MLOAD DUP2 PUSH1 0x2 ADD SSTORE PUSH1 0x60 DUP3 ADD MLOAD DUP2 PUSH1 0x3 ADD SSTORE PUSH1 0x80 DUP3 ADD MLOAD DUP2 PUSH1 0x4 ADD PUSH1 0x0 PUSH2 0x100 EXP DUP2 SLOAD DUP2 PUSH1 0xFF MUL NOT AND SWAP1 DUP4 PUSH1 0x4 DUP2 GT ISZERO PUSH2 0x1BFB JUMPI PUSH2 0x1BFB PUSH2 0x425F JUMP JUMPDEST MUL OR SWAP1 SSTORE POP PUSH1 0xA0 DUP3 ADD MLOAD PUSH1 0x5 DUP3 ADD SWAP1 PUSH2 0x1C14 SWAP1 DUP3 PUSH2 0x4CA9 JUMP JUMPDEST POP PUSH1 0xC0 DUP3 ADD MLOAD DUP1 MLOAD PUSH2 0x1C30 SWAP2 PUSH1 0x6 DUP5 ADD SWAP2 PUSH1 0x20 SWAP1 SWAP2 ADD SWAP1 PUSH2 0x4046 JUMP JUMPDEST POP PUSH1 0xE0 DUP3 ADD MLOAD DUP1 MLOAD PUSH2 0x1C4C SWAP2 PUSH1 0x7 DUP5 ADD SWAP2 PUSH1 0x20 SWAP1 SWAP2 ADD SWAP1 PUSH2 0x4046 JUMP JUMPDEST POP PUSH2 0x100 DUP3 ADD MLOAD DUP1 MLOAD PUSH2 0x1C69 SWAP2 PUSH1 0x8 DUP5 ADD SWAP2 PUSH1 0x20 SWAP1 SWAP2 ADD SWAP1 PUSH2 0x4046 JUMP JUMPDEST POP POP POP PUSH1 0x0 DUP2 DUP2 MSTORE PUSH1 0x9 PUSH1 0x20 SWAP1 DUP2 MSTORE PUSH1 0x40 DUP1 DUP4 KECCAK256 DUP1 SLOAD PUSH20 0xFFFFFFFFFFFFFFFFFFFFFFFFFFFFFFFFFFFFFFFF NOT AND CALLER SWAP1 DUP2 OR SWAP1 SWAP2 SSTORE DUP4 MSTORE PUSH1 0xA DUP3 MSTORE DUP3 KECCAK256 DUP1 SLOAD PUSH1 0x1 DUP2 ADD DUP3 SSTORE SWAP1 DUP4 MSTORE SWAP1 DUP3 KECCAK256 ADD DUP3 SWAP1 SSTORE PUSH1 0x6 DUP1 SLOAD DUP8 SWAP3 SWAP1 PUSH2 0x1CC9 SWAP1 DUP5 SWAP1 PUSH2 0x4C4F JUMP JUMPDEST SWAP3 POP POP DUP2 SWAP1 SSTORE POP DUP1 PUSH32 0xA40B3C87E86BD5F4B59C8EE5D83A7CED69629A25EE5627DCCFA8918958B38DC4 DUP7 DUP7 DUP7 DUP7 PUSH1 0x40 MLOAD PUSH2 0x1D06 SWAP5 SWAP4 SWAP3 SWAP2 SWAP1 PUSH2 0x4EF4 JUMP JUMPDEST PUSH1 0x40 MLOAD DUP1 SWAP2 SUB SWAP1 LOG2 POP POP POP POP POP POP JUMP JUMPDEST PUSH2 0x1D1E PUSH2 0x4091 JUMP JUMPDEST PUSH1 0xD PUSH1 0x0 DUP4 DUP2 MSTORE PUSH1 0x20 ADD SWAP1 DUP2 MSTORE PUSH1 0x20 ADD PUSH1 0x0 KECCAK256 PUSH1 0x40 MLOAD DUP1 PUSH2 0x1A0 ADD PUSH1 0x40 MSTORE SWAP1 DUP2 PUSH1 0x0 DUP3 ADD SLOAD DUP2 MSTORE PUSH1 0x20 ADD PUSH1 0x1 DUP3 ADD SLOAD DUP2 MSTORE PUSH1 0x20 ADD PUSH1 0x2 DUP3 ADD SLOAD DUP2 MSTORE PUSH1 0x20 ADD PUSH1 0x3 DUP3 ADD SLOAD DUP2 MSTORE PUSH1 0x20 ADD PUSH1 0x4 DUP3 ADD SLOAD DUP2 MSTORE PUSH1 0x20 ADD PUSH1 0x5 DUP3 ADD SLOAD DUP2 MSTORE PUSH1 0x20 ADD PUSH1 0x6 DUP3 ADD SLOAD DUP2 MSTORE PUSH1 0x20 ADD PUSH1 0x7 DUP3 ADD SLOAD DUP2 MSTORE PUSH1 0x20 ADD PUSH1 0x8 DUP3 ADD SLOAD DUP2 MSTORE PUSH1 0x20 ADD PUSH1 0x9 DUP3 ADD SLOAD DUP2 MSTORE PUSH1 0x20 ADD PUSH1 0xA DUP3 ADD SLOAD DUP2 MSTORE PUSH1 0x20 ADD PUSH1 0xB DUP3 ADD PUSH1 0x0 SWAP1 SLOAD SWAP1 PUSH2 0x100 EXP SWAP1 DIV PUSH1 0xFF AND PUSH1 0x8 DUP2 GT ISZERO PUSH2 0x1DCF JUMPI PUSH2 0x1DCF PUSH2 0x425F JUMP JUMPDEST PUSH1 0x8 DUP2 GT ISZERO PUSH2 0x1DE0 JUMPI PUSH2 0x1DE0 PUSH2 0x425F JUMP JUMPDEST DUP2 MSTORE PUSH1 0x20 ADD PUSH1 0xC DUP3 ADD DUP1 SLOAD PUSH2 0x1DF4 SWAP1 PUSH2 0x4C1B JUMP JUMPDEST DUP1 PUSH1 0x1F ADD PUSH1 0x20 DUP1 SWAP2 DIV MUL PUSH1 0x20 ADD PUSH1 0x40 MLOAD SWAP1 DUP2 ADD PUSH1 0x40 MSTORE DUP1 SWAP3 SWAP2 SWAP1 DUP2 DUP2 MSTORE PUSH1 0x20 ADD DUP3 DUP1 SLOAD PUSH2 0x1E20 SWAP1 PUSH2 0x4C1B JUMP JUMPDEST DUP1 ISZERO PUSH2 0xCAE JUMPI DUP1 PUSH1 0x1F LT PUSH2 0x1E42 JUMPI PUSH2 0x100 DUP1 DUP4 SLOAD DIV MUL DUP4 MSTORE SWAP2 PUSH1 0x20 ADD SWAP2 PUSH2 0xCAE JUMP JUMPDEST DUP3 ADD SWAP2 SWAP1 PUSH1 0x0 MSTORE PUSH1 0x20 PUSH1 0x0 KECCAK256 SWAP1 JUMPDEST DUP2 SLOAD DUP2 MSTORE SWAP1 PUSH1 0x1 ADD SWAP1 PUSH1 0x20 ADD DUP1 DUP4 GT PUSH2 0x1E50 JUMPI POP POP POP SWAP2 SWAP1 SWAP3 MSTORE POP SWAP2 SWAP5 SWAP4 POP POP POP POP JUMP JUMPDEST PUSH2 0x1E7C PUSH2 0x2187 JUMP JUMPDEST PUSH1 0x1 PUSH1 0x1 PUSH1 0xA0 SHL SUB DUP2 AND PUSH2 0x1EF8 JUMPI PUSH1 0x40 MLOAD PUSH3 0x461BCD PUSH1 0xE5 SHL DUP2 MSTORE PUSH1 0x20 PUSH1 0x4 DUP3 ADD MSTORE PUSH1 0x26 PUSH1 0x24 DUP3 ADD MSTORE PUSH32 0x4F776E61626C653A206E6577206F776E657220697320746865207A65726F2061 PUSH1 0x44 DUP3 ADD MSTORE PUSH32 0x6464726573730000000000000000000000000000000000000000000000000000 PUSH1 0x64 DUP3 ADD MSTORE PUSH1 0x84 ADD PUSH2 0x50C JUMP JUMPDEST PUSH2 0x5AF DUP2 PUSH2 0x2541 JUMP JUMPDEST PUSH2 0x1F09 PUSH2 0x410D JUMP JUMPDEST PUSH1 0x7 DUP3 DUP2 SLOAD DUP2 LT PUSH2 0x1F1C JUMPI PUSH2 0x1F1C PUSH2 0x4C05 JUMP JUMPDEST SWAP1 PUSH1 0x0 MSTORE PUSH1 0x20 PUSH1 0x0 KECCAK256 SWAP1 PUSH1 0x6 MUL ADD PUSH1 0x40 MLOAD DUP1 PUSH1 0xC0 ADD PUSH1 0x40 MSTORE SWAP1 DUP2 PUSH1 0x0 DUP3 ADD SLOAD DUP2 MSTORE PUSH1 0x20 ADD PUSH1 0x1 DUP3 ADD SLOAD DUP2 MSTORE PUSH1 0x20 ADD PUSH1 0x2 DUP3 ADD PUSH1 0x0 SWAP1 SLOAD SWAP1 PUSH2 0x100 EXP SWAP1 DIV PUSH1 0xFF AND PUSH1 0x1 DUP2 GT ISZERO PUSH2 0x1F6D JUMPI PUSH2 0x1F6D PUSH2 0x425F JUMP JUMPDEST PUSH1 0x1 DUP2 GT ISZERO PUSH2 0x1F7E JUMPI PUSH2 0x1F7E PUSH2 0x425F JUMP JUMPDEST DUP2 MSTORE PUSH1 0x20 ADD PUSH1 0x3 DUP3 ADD DUP1 SLOAD PUSH2 0x1F92 SWAP1 PUSH2 0x4C1B JUMP JUMPDEST DUP1 PUSH1 0x1F ADD PUSH1 0x20 DUP1 SWAP2 DIV MUL PUSH1 0x20 ADD PUSH1 0x40 MLOAD SWAP1 DUP2 ADD PUSH1 0x40 MSTORE DUP1 SWAP3 SWAP2 SWAP1 DUP2 DUP2 MSTORE PUSH1 0x20 ADD DUP3 DUP1 SLOAD PUSH2 0x1FBE SWAP1 PUSH2 0x4C1B JUMP JUMPDEST DUP1 ISZERO PUSH2 0x200B JUMPI DUP1 PUSH1 0x1F LT PUSH2 0x1FE0 JUMPI PUSH2 0x100 DUP1 DUP4 SLOAD DIV MUL DUP4 MSTORE SWAP2 PUSH1 0x20 ADD SWAP2 PUSH2 0x200B JUMP JUMPDEST DUP3 ADD SWAP2 SWAP1 PUSH1 0x0 MSTORE PUSH1 0x20 PUSH1 0x0 KECCAK256 SWAP1 JUMPDEST DUP2 SLOAD DUP2 MSTORE SWAP1 PUSH1 0x1 ADD SWAP1 PUSH1 0x20 ADD DUP1 DUP4 GT PUSH2 0x1FEE JUMPI DUP3 SWAP1 SUB PUSH1 0x1F AND DUP3 ADD SWAP2 JUMPDEST POP POP POP POP POP DUP2 MSTORE PUSH1 0x20 ADD PUSH1 0x4 DUP3 ADD DUP1 SLOAD PUSH2 0x2024 SWAP1 PUSH2 0x4C1B JUMP JUMPDEST DUP1 PUSH1 0x1F ADD PUSH1 0x20 DUP1 SWAP2 DIV MUL PUSH1 0x20 ADD PUSH1 0x40 MLOAD SWAP1 DUP2 ADD PUSH1 0x40 MSTORE DUP1 SWAP3 SWAP2 SWAP1 DUP2 DUP2 MSTORE PUSH1 0x20 ADD DUP3 DUP1 SLOAD PUSH2 0x2050 SWAP1 PUSH2 0x4C1B JUMP JUMPDEST DUP1 ISZERO PUSH2 0x209D JUMPI DUP1 PUSH1 0x1F LT PUSH2 0x2072 JUMPI PUSH2 0x100 DUP1 DUP4 SLOAD DIV MUL DUP4 MSTORE SWAP2 PUSH1 0x20 ADD SWAP2 PUSH2 0x209D JUMP JUMPDEST DUP3 ADD SWAP2 SWAP1 PUSH1 0x0 MSTORE PUSH1 0x20 PUSH1 0x0 KECCAK256 SWAP1 JUMPDEST DUP2 SLOAD DUP2 MSTORE SWAP1 PUSH1 0x1 ADD SWAP1 PUSH1 0x20 ADD DUP1 DUP4 GT PUSH2 0x2080 JUMPI DUP3 SWAP1 SUB PUSH1 0x1F AND DUP3 ADD SWAP2 JUMPDEST POP POP POP SWAP2 DUP4 MSTORE POP POP PUSH1 0x5 DUP3 ADD SLOAD PUSH1 0x20 SWAP1 SWAP2 ADD SWAP1 PUSH1 0xFF AND PUSH1 0x2 DUP2 GT ISZERO PUSH2 0x20C4 JUMPI PUSH2 0x20C4 PUSH2 0x425F JUMP JUMPDEST PUSH1 0x2 DUP2 GT ISZERO PUSH2 0x20D5 JUMPI PUSH2 0x20D5 PUSH2 0x425F JUMP JUMPDEST SWAP1 MSTORE POP SWAP3 SWAP2 POP POP JUMP JUMPDEST PUSH1 0x40 MLOAD PUSH1 0x1 PUSH1 0x1 PUSH1 0xA0 SHL SUB DUP4 AND PUSH1 0x24 DUP3 ADD MSTORE PUSH1 0x44 DUP2 ADD DUP3 SWAP1 MSTORE PUSH2 0xA48 SWAP1 DUP5 SWAP1 PUSH32 0xA9059CBB00000000000000000000000000000000000000000000000000000000 SWAP1 PUSH1 0x64 ADD JUMPDEST PUSH1 0x40 DUP1 MLOAD PUSH1 0x1F NOT DUP2 DUP5 SUB ADD DUP2 MSTORE SWAP2 SWAP1 MSTORE PUSH1 0x20 DUP2 ADD DUP1 MLOAD PUSH28 0xFFFFFFFFFFFFFFFFFFFFFFFFFFFFFFFFFFFFFFFFFFFFFFFFFFFFFFFF AND PUSH32 0xFFFFFFFF00000000000000000000000000000000000000000000000000000000 SWAP1 SWAP4 AND SWAP3 SWAP1 SWAP3 OR SWAP1 SWAP2 MSTORE PUSH2 0x2E6A JUMP JUMPDEST PUSH1 0x3 SLOAD PUSH1 0x1 PUSH1 0x1 PUSH1 0xA0 SHL SUB AND CALLER EQ PUSH2 0xF34 JUMPI PUSH1 0x40 MLOAD PUSH3 0x461BCD PUSH1 0xE5 SHL DUP2 MSTORE PUSH1 0x20 PUSH1 0x4 DUP3 ADD DUP2 SWAP1 MSTORE PUSH1 0x24 DUP3 ADD MSTORE PUSH32 0x4F776E61626C653A2063616C6C6572206973206E6F7420746865206F776E6572 PUSH1 0x44 DUP3 ADD MSTORE PUSH1 0x64 ADD PUSH2 0x50C JUMP JUMPDEST PUSH1 0x0 DUP1 PUSH2 0x227C PUSH1 0x40 MLOAD DUP1 PUSH1 0x40 ADD PUSH1 0x40 MSTORE DUP1 PUSH1 0x17 DUP2 MSTORE PUSH1 0x20 ADD PUSH32 0x726F666C2E4973417574686F72697A65644F726967696E000000000000000000 DUP2 MSTORE POP DUP5 PUSH1 0x40 MLOAD PUSH1 0x20 ADD PUSH2 0x2268 SWAP2 SWAP1 PUSH32 0x5500000000000000000000000000000000000000000000000000000000000000 DUP2 MSTORE PUSH11 0xFFFFFFFFFFFFFFFFFFFFFF NOT SWAP2 SWAP1 SWAP2 AND PUSH1 0x1 DUP3 ADD MSTORE PUSH1 0x16 ADD SWAP1 JUMP JUMPDEST PUSH1 0x40 MLOAD PUSH1 0x20 DUP2 DUP4 SUB SUB DUP2 MSTORE SWAP1 PUSH1 0x40 MSTORE PUSH2 0x2F52 JUMP JUMPDEST SWAP2 POP SWAP2 POP DUP2 PUSH8 0xFFFFFFFFFFFFFFFF AND PUSH1 0x0 EQ ISZERO DUP1 PUSH2 0x229C JUMPI POP DUP1 MLOAD PUSH1 0x1 EQ ISZERO JUMPDEST DUP1 PUSH2 0x22E9 JUMPI POP DUP1 PUSH1 0x0 DUP2 MLOAD DUP2 LT PUSH2 0x22B5 JUMPI PUSH2 0x22B5 PUSH2 0x4C05 JUMP JUMPDEST PUSH1 0x20 SWAP2 ADD ADD MLOAD PUSH1 0x1 PUSH1 0x1 PUSH1 0xF8 SHL SUB NOT AND PUSH32 0xF500000000000000000000000000000000000000000000000000000000000000 EQ ISZERO JUMPDEST ISZERO PUSH2 0xA48 JUMPI PUSH1 0x40 MLOAD PUSH32 0x6890282F00000000000000000000000000000000000000000000000000000000 DUP2 MSTORE PUSH1 0x4 ADD PUSH1 0x40 MLOAD DUP1 SWAP2 SUB SWAP1 REVERT JUMPDEST PUSH1 0x0 DUP3 DUP2 MSTORE PUSH1 0xD PUSH1 0x20 SWAP1 DUP2 MSTORE PUSH1 0x40 DUP1 DUP4 KECCAK256 PUSH1 0x1 ADD SLOAD DUP1 DUP5 MSTORE PUSH1 0x9 SWAP1 SWAP3 MSTORE DUP3 KECCAK256 SLOAD PUSH1 0x8 DUP1 SLOAD SWAP3 SWAP4 SWAP3 PUSH1 0x1 PUSH1 0x1 PUSH1 0xA0 SHL SUB SWAP1 SWAP3 AND SWAP2 DUP5 SWAP1 DUP2 LT PUSH2 0x2363 JUMPI PUSH2 0x2363 PUSH2 0x4C05 JUMP JUMPDEST SWAP1 PUSH1 0x0 MSTORE PUSH1 0x20 PUSH1 0x0 KECCAK256 SWAP1 PUSH1 0x9 MUL ADD SWAP2 POP DUP4 DUP3 PUSH1 0x2 ADD PUSH1 0x0 DUP3 DUP3 SLOAD PUSH2 0x2387 SWAP2 SWAP1 PUSH2 0x4C4F JUMP JUMPDEST SWAP1 SWAP2 SSTORE POP POP PUSH1 0x0 DUP6 DUP2 MSTORE PUSH1 0xD PUSH1 0x20 MSTORE PUSH1 0x40 DUP2 KECCAK256 PUSH1 0x8 ADD DUP1 SLOAD DUP7 SWAP3 SWAP1 PUSH2 0x23AD SWAP1 DUP5 SWAP1 PUSH2 0x4C4F JUMP JUMPDEST SWAP1 SWAP2 SSTORE POP POP PUSH1 0x1 PUSH1 0x1 PUSH1 0xA0 SHL SUB DUP2 AND PUSH1 0x0 SWAP1 DUP2 MSTORE PUSH1 0xC PUSH1 0x20 MSTORE PUSH1 0x40 DUP2 KECCAK256 DUP1 SLOAD DUP7 SWAP3 SWAP1 PUSH2 0x23DA SWAP1 DUP5 SWAP1 PUSH2 0x4C4F JUMP JUMPDEST SWAP3 POP POP DUP2 SWAP1 SSTORE POP SWAP3 POP SWAP3 POP SWAP3 JUMP JUMPDEST PUSH1 0x0 JUMPDEST PUSH1 0x8 DUP4 ADD SLOAD DUP2 LT ISZERO PUSH2 0x244C JUMPI PUSH2 0x243A PUSH1 0xD PUSH1 0x0 DUP6 PUSH1 0x8 ADD DUP5 DUP2 SLOAD DUP2 LT PUSH2 0x2413 JUMPI PUSH2 0x2413 PUSH2 0x4C05 JUMP JUMPDEST PUSH1 0x0 SWAP2 DUP3 MSTORE PUSH1 0x20 DUP1 DUP4 KECCAK256 SWAP1 SWAP2 ADD SLOAD DUP4 MSTORE DUP3 ADD SWAP3 SWAP1 SWAP3 MSTORE PUSH1 0x40 ADD SWAP1 KECCAK256 PUSH1 0xB ADD SLOAD PUSH1 0xFF AND PUSH2 0x3041 JUMP JUMPDEST PUSH2 0x2444 JUMPI POP POP POP POP JUMP JUMPDEST PUSH1 0x1 ADD PUSH2 0x23EB JUMP JUMPDEST POP PUSH1 0x1 PUSH1 0x1 PUSH1 0xA0 SHL SUB DUP2 AND PUSH1 0x0 SWAP1 DUP2 MSTORE PUSH1 0xA PUSH1 0x20 MSTORE PUSH1 0x40 DUP2 KECCAK256 SWAP1 JUMPDEST DUP2 SLOAD DUP2 LT ISZERO PUSH2 0x2511 JUMPI DUP5 DUP3 DUP3 DUP2 SLOAD DUP2 LT PUSH2 0x2483 JUMPI PUSH2 0x2483 PUSH2 0x4C05 JUMP JUMPDEST SWAP1 PUSH1 0x0 MSTORE PUSH1 0x20 PUSH1 0x0 KECCAK256 ADD SLOAD SUB PUSH2 0x2509 JUMPI DUP2 SLOAD DUP3 SWAP1 PUSH2 0x24A3 SWAP1 PUSH1 0x1 SWAP1 PUSH2 0x4BF2 JUMP JUMPDEST DUP2 SLOAD DUP2 LT PUSH2 0x24B3 JUMPI PUSH2 0x24B3 PUSH2 0x4C05 JUMP JUMPDEST SWAP1 PUSH1 0x0 MSTORE PUSH1 0x20 PUSH1 0x0 KECCAK256 ADD SLOAD DUP3 DUP3 DUP2 SLOAD DUP2 LT PUSH2 0x24D0 JUMPI PUSH2 0x24D0 PUSH2 0x4C05 JUMP JUMPDEST SWAP1 PUSH1 0x0 MSTORE PUSH1 0x20 PUSH1 0x0 KECCAK256 ADD DUP2 SWAP1 SSTORE POP DUP2 DUP1 SLOAD DUP1 PUSH2 0x24EE JUMPI PUSH2 0x24EE PUSH2 0x4F25 JUMP JUMPDEST PUSH1 0x1 SWAP1 SUB DUP2 DUP2 SWAP1 PUSH1 0x0 MSTORE PUSH1 0x20 PUSH1 0x0 KECCAK256 ADD PUSH1 0x0 SWAP1 SSTORE SWAP1 SSTORE PUSH2 0x2511 JUMP JUMPDEST PUSH1 0x1 ADD PUSH2 0x2467 JUMP JUMPDEST POP POP PUSH1 0x1 PUSH1 0x1 PUSH1 0xA0 SHL SUB AND PUSH1 0x0 SWAP1 DUP2 MSTORE PUSH1 0xB PUSH1 0x20 SWAP1 DUP2 MSTORE PUSH1 0x40 DUP3 KECCAK256 DUP1 SLOAD PUSH1 0x1 DUP2 ADD DUP3 SSTORE SWAP1 DUP4 MSTORE SWAP2 KECCAK256 ADD SWAP2 SWAP1 SWAP2 SSTORE POP JUMP JUMPDEST PUSH1 0x3 DUP1 SLOAD PUSH1 0x1 PUSH1 0x1 PUSH1 0xA0 SHL SUB DUP4 DUP2 AND PUSH20 0xFFFFFFFFFFFFFFFFFFFFFFFFFFFFFFFFFFFFFFFF NOT DUP4 AND DUP2 OR SWAP1 SWAP4 SSTORE PUSH1 0x40 MLOAD SWAP2 AND SWAP2 SWAP1 DUP3 SWAP1 PUSH32 0x8BE0079C531659141344CD1FD0A4F28419497F9722A3DAAFE3B4186F6B6457E0 SWAP1 PUSH1 0x0 SWAP1 LOG3 POP POP JUMP JUMPDEST PUSH1 0x60 PUSH1 0x0 PUSH2 0x25AD DUP4 PUSH2 0x307B JUMP JUMPDEST PUSH1 0x1 ADD SWAP1 POP PUSH1 0x0 DUP2 PUSH8 0xFFFFFFFFFFFFFFFF DUP2 GT ISZERO PUSH2 0x25CD JUMPI PUSH2 0x25CD PUSH2 0x44EF JUMP JUMPDEST PUSH1 0x40 MLOAD SWAP1 DUP1 DUP3 MSTORE DUP1 PUSH1 0x1F ADD PUSH1 0x1F NOT AND PUSH1 0x20 ADD DUP3 ADD PUSH1 0x40 MSTORE DUP1 ISZERO PUSH2 0x25F7 JUMPI PUSH1 0x20 DUP3 ADD DUP2 DUP1 CALLDATASIZE DUP4 CALLDATACOPY ADD SWAP1 POP JUMPDEST POP SWAP1 POP DUP2 DUP2 ADD PUSH1 0x20 ADD JUMPDEST PUSH1 0x0 NOT ADD PUSH32 0x3031323334353637383961626364656600000000000000000000000000000000 PUSH1 0xA DUP7 MOD BYTE DUP2 MSTORE8 PUSH1 0xA DUP6 DIV SWAP5 POP DUP5 PUSH2 0x2601 JUMPI JUMPDEST POP SWAP4 SWAP3 POP POP POP JUMP JUMPDEST PUSH2 0x26AE PUSH1 0x40 MLOAD DUP1 PUSH2 0x180 ADD PUSH1 0x40 MSTORE DUP1 PUSH1 0x60 DUP2 MSTORE PUSH1 0x20 ADD PUSH1 0x0 PUSH1 0x1 PUSH1 0x1 PUSH1 0xA0 SHL SUB AND DUP2 MSTORE PUSH1 0x20 ADD PUSH1 0x60 DUP2 MSTORE PUSH1 0x20 ADD PUSH1 0x60 DUP2 MSTORE PUSH1 0x20 ADD PUSH1 0x60 DUP2 MSTORE PUSH1 0x20 ADD PUSH1 0x0 DUP2 MSTORE PUSH1 0x20 ADD PUSH1 0x60 DUP2 MSTORE PUSH1 0x20 ADD PUSH1 0x60 DUP2 MSTORE PUSH1 0x20 ADD PUSH1 0x60 DUP2 MSTORE PUSH1 0x20 ADD PUSH1 0x60 DUP2 MSTORE PUSH1 0x20 ADD PUSH1 0x60 DUP2 MSTORE PUSH1 0x20 ADD PUSH1 0x60 DUP2 MSTORE POP SWAP1 JUMP JUMPDEST PUSH2 0x271B PUSH1 0x40 MLOAD DUP1 PUSH2 0x180 ADD PUSH1 0x40 MSTORE DUP1 PUSH1 0x60 DUP2 MSTORE PUSH1 0x20 ADD PUSH1 0x0 PUSH1 0x1 PUSH1 0x1 PUSH1 0xA0 SHL SUB AND DUP2 MSTORE PUSH1 0x20 ADD PUSH1 0x60 DUP2 MSTORE PUSH1 0x20 ADD PUSH1 0x60 DUP2 MSTORE PUSH1 0x20 ADD PUSH1 0x60 DUP2 MSTORE PUSH1 0x20 ADD PUSH1 0x0 DUP2 MSTORE PUSH1 0x20 ADD PUSH1 0x60 DUP2 MSTORE PUSH1 0x20 ADD PUSH1 0x60 DUP2 MSTORE PUSH1 0x20 ADD PUSH1 0x60 DUP2 MSTORE PUSH1 0x20 ADD PUSH1 0x60 DUP2 MSTORE PUSH1 0x20 ADD PUSH1 0x60 DUP2 MSTORE PUSH1 0x20 ADD PUSH1 0x60 DUP2 MSTORE POP SWAP1 JUMP JUMPDEST PUSH1 0x0 JUMPDEST DUP4 DUP2 LT ISZERO PUSH2 0x27A2 JUMPI DUP5 DUP5 DUP3 DUP2 DUP2 LT PUSH2 0x2738 JUMPI PUSH2 0x2738 PUSH2 0x4C05 JUMP JUMPDEST SWAP1 SWAP2 ADD CALLDATALOAD PUSH1 0x1 PUSH1 0x1 PUSH1 0xF8 SHL SUB NOT AND PUSH1 0x1 PUSH1 0xFD SHL SUB SWAP1 POP PUSH2 0x279A JUMPI PUSH2 0x2793 DUP6 DUP6 DUP1 DUP1 PUSH1 0x1F ADD PUSH1 0x20 DUP1 SWAP2 DIV MUL PUSH1 0x20 ADD PUSH1 0x40 MLOAD SWAP1 DUP2 ADD PUSH1 0x40 MSTORE DUP1 SWAP4 SWAP3 SWAP2 SWAP1 DUP2 DUP2 MSTORE PUSH1 0x20 ADD DUP4 DUP4 DUP1 DUP3 DUP5 CALLDATACOPY PUSH1 0x0 SWAP3 ADD DUP3 SWAP1 MSTORE POP SWAP3 POP DUP6 SWAP2 POP PUSH2 0x315D SWAP1 POP JUMP JUMPDEST DUP3 MSTORE PUSH2 0x27A2 JUMP JUMPDEST PUSH1 0x1 ADD PUSH2 0x271E JUMP JUMPDEST PUSH2 0x27AD PUSH1 0x32 DUP3 PUSH2 0x4C4F JUMP JUMPDEST SWAP1 POP PUSH2 0x2814 PUSH2 0x280F DUP7 DUP7 DUP1 DUP1 PUSH1 0x1F ADD PUSH1 0x20 DUP1 SWAP2 DIV MUL PUSH1 0x20 ADD PUSH1 0x40 MLOAD SWAP1 DUP2 ADD PUSH1 0x40 MSTORE DUP1 SWAP4 SWAP3 SWAP2 SWAP1 DUP2 DUP2 MSTORE PUSH1 0x20 ADD DUP4 DUP4 DUP1 DUP3 DUP5 CALLDATACOPY PUSH1 0x0 SWAP3 ADD SWAP2 SWAP1 SWAP2 MSTORE POP PUSH2 0x27F9 SWAP3 POP PUSH1 0x2 SWAP2 POP DUP7 SWAP1 POP PUSH2 0x4C4F JUMP JUMPDEST SWAP4 POP DUP4 PUSH2 0x2807 PUSH1 0x28 DUP3 PUSH2 0x4C4F JUMP JUMPDEST SWAP5 POP DUP5 PUSH2 0x315D JUMP JUMPDEST PUSH2 0x3234 JUMP JUMPDEST PUSH1 0x1 PUSH1 0x1 PUSH1 0xA0 SHL SUB AND PUSH1 0x20 DUP4 ADD MSTORE PUSH2 0x282D PUSH1 0x2 DUP3 PUSH2 0x4C4F JUMP JUMPDEST SWAP1 POP DUP4 DUP2 LT DUP1 ISZERO PUSH2 0x2867 JUMPI POP DUP5 DUP5 DUP3 DUP2 DUP2 LT PUSH2 0x284B JUMPI PUSH2 0x284B PUSH2 0x4C05 JUMP JUMPDEST SWAP1 POP ADD CALLDATALOAD PUSH1 0xF8 SHR PUSH1 0xF8 SHL PUSH1 0x1 PUSH1 0x1 PUSH1 0xF8 SHL SUB NOT AND PUSH1 0x5 PUSH1 0xF9 SHL EQ ISZERO JUMPDEST ISZERO PUSH2 0x2906 JUMPI DUP1 JUMPDEST DUP5 DUP2 LT ISZERO PUSH2 0x2904 JUMPI DUP6 DUP6 DUP3 DUP2 DUP2 LT PUSH2 0x2888 JUMPI PUSH2 0x2888 PUSH2 0x4C05 JUMP JUMPDEST SWAP1 SWAP2 ADD CALLDATALOAD PUSH1 0x1 PUSH1 0x1 PUSH1 0xF8 SHL SUB NOT AND PUSH1 0x5 PUSH1 0xF9 SHL SUB SWAP1 POP PUSH2 0x28FC JUMPI PUSH2 0x28E5 DUP7 DUP7 DUP1 DUP1 PUSH1 0x1F ADD PUSH1 0x20 DUP1 SWAP2 DIV MUL PUSH1 0x20 ADD PUSH1 0x40 MLOAD SWAP1 DUP2 ADD PUSH1 0x40 MSTORE DUP1 SWAP4 SWAP3 SWAP2 SWAP1 DUP2 DUP2 MSTORE PUSH1 0x20 ADD DUP4 DUP4 DUP1 DUP3 DUP5 CALLDATACOPY PUSH1 0x0 SWAP3 ADD SWAP2 SWAP1 SWAP2 MSTORE POP DUP7 SWAP3 POP DUP6 SWAP2 POP PUSH2 0x315D SWAP1 POP JUMP JUMPDEST PUSH1 0x40 DUP5 ADD MSTORE PUSH2 0x28F5 DUP2 PUSH1 0x1 PUSH2 0x4C4F JUMP JUMPDEST SWAP2 POP PUSH2 0x2904 JUMP JUMPDEST PUSH1 0x1 ADD PUSH2 0x286E JUMP JUMPDEST POP JUMPDEST DUP1 PUSH2 0x2910 DUP2 PUSH2 0x4F51 JUMP JUMPDEST SWAP2 POP POP PUSH2 0x2954 DUP6 DUP6 PUSH1 0x40 MLOAD DUP1 PUSH1 0x40 ADD PUSH1 0x40 MSTORE DUP1 PUSH1 0x3 DUP2 MSTORE PUSH1 0x20 ADD PUSH32 0x5552490000000000000000000000000000000000000000000000000000000000 DUP2 MSTORE POP DUP5 PUSH2 0x3381 JUMP JUMPDEST DUP4 PUSH1 0x60 ADD DUP2 SWAP4 POP DUP3 SWAP1 MSTORE POP POP PUSH2 0x29A1 DUP6 DUP6 PUSH1 0x40 MLOAD DUP1 PUSH1 0x40 ADD PUSH1 0x40 MSTORE DUP1 PUSH1 0x7 DUP2 MSTORE PUSH1 0x20 ADD PUSH32 0x56657273696F6E00000000000000000000000000000000000000000000000000 DUP2 MSTORE POP DUP5 PUSH2 0x3381 JUMP JUMPDEST DUP4 PUSH1 0x80 ADD DUP2 SWAP4 POP DUP3 SWAP1 MSTORE POP POP PUSH1 0x60 PUSH2 0x29F0 DUP7 DUP7 PUSH1 0x40 MLOAD DUP1 PUSH1 0x40 ADD PUSH1 0x40 MSTORE DUP1 PUSH1 0x8 DUP2 MSTORE PUSH1 0x20 ADD PUSH32 0x436861696E204944000000000000000000000000000000000000000000000000 DUP2 MSTORE POP DUP6 PUSH2 0x3381 JUMP JUMPDEST SWAP3 POP SWAP1 POP PUSH2 0x29FD DUP2 PUSH2 0x359D JUMP JUMPDEST PUSH1 0xA0 DUP5 ADD MSTORE PUSH1 0x40 DUP1 MLOAD DUP1 DUP3 ADD SWAP1 SWAP2 MSTORE PUSH1 0x5 DUP2 MSTORE PUSH32 0x4E6F6E6365000000000000000000000000000000000000000000000000000000 PUSH1 0x20 DUP3 ADD MSTORE PUSH2 0x2A44 SWAP1 DUP8 SWAP1 DUP8 SWAP1 DUP6 PUSH2 0x3381 JUMP JUMPDEST PUSH1 0xC0 DUP6 ADD DUP3 SWAP1 MSTORE SWAP1 MLOAD SWAP1 SWAP3 POP PUSH1 0x8 GT ISZERO PUSH2 0x2A8A JUMPI PUSH1 0x40 MLOAD PUSH32 0xB4BC030C00000000000000000000000000000000000000000000000000000000 DUP2 MSTORE PUSH1 0x4 ADD PUSH1 0x40 MLOAD DUP1 SWAP2 SUB SWAP1 REVERT JUMPDEST PUSH2 0x2ACB DUP7 DUP7 PUSH1 0x40 MLOAD DUP1 PUSH1 0x40 ADD PUSH1 0x40 MSTORE DUP1 PUSH1 0x9 DUP2 MSTORE PUSH1 0x20 ADD PUSH32 0x4973737565642041740000000000000000000000000000000000000000000000 DUP2 MSTORE POP DUP6 PUSH2 0x3381 JUMP JUMPDEST DUP5 PUSH1 0xE0 ADD DUP2 SWAP5 POP DUP3 SWAP1 MSTORE POP POP PUSH2 0x2B18 DUP7 DUP7 PUSH1 0x40 MLOAD DUP1 PUSH1 0x40 ADD PUSH1 0x40 MSTORE DUP1 PUSH1 0xF DUP2 MSTORE PUSH1 0x20 ADD PUSH32 0x45787069726174696F6E2054696D650000000000000000000000000000000000 DUP2 MSTORE POP DUP6 PUSH2 0x3381 JUMP JUMPDEST DUP5 PUSH2 0x100 ADD DUP2 SWAP5 POP DUP3 SWAP1 MSTORE POP POP PUSH2 0x2B66 DUP7 DUP7 PUSH1 0x40 MLOAD DUP1 PUSH1 0x40 ADD PUSH1 0x40 MSTORE DUP1 PUSH1 0xA DUP2 MSTORE PUSH1 0x20 ADD PUSH32 0x4E6F74204265666F726500000000000000000000000000000000000000000000 DUP2 MSTORE POP DUP6 PUSH2 0x3381 JUMP JUMPDEST DUP5 PUSH2 0x120 ADD DUP2 SWAP5 POP DUP3 SWAP1 MSTORE POP POP PUSH2 0x2BB4 DUP7 DUP7 PUSH1 0x40 MLOAD DUP1 PUSH1 0x40 ADD PUSH1 0x40 MSTORE DUP1 PUSH1 0xA DUP2 MSTORE PUSH1 0x20 ADD PUSH32 0x5265717565737420494400000000000000000000000000000000000000000000 DUP2 MSTORE POP DUP6 PUSH2 0x3381 JUMP JUMPDEST DUP5 PUSH2 0x140 ADD DUP2 SWAP5 POP DUP3 SWAP1 MSTORE POP POP PUSH1 0x0 PUSH2 0x2C04 DUP8 DUP8 PUSH1 0x40 MLOAD DUP1 PUSH1 0x40 ADD PUSH1 0x40 MSTORE DUP1 PUSH1 0x9 DUP2 MSTORE PUSH1 0x20 ADD PUSH32 0x5265736F75726365730000000000000000000000000000000000000000000000 DUP2 MSTORE POP DUP7 PUSH2 0x3381 JUMP JUMPDEST SWAP2 POP POP DUP3 DUP2 EQ PUSH2 0x2C25 JUMPI PUSH2 0x2C19 DUP8 DUP8 DUP4 PUSH2 0x35F7 JUMP JUMPDEST PUSH2 0x160 DUP7 ADD SWAP2 SWAP1 SWAP2 MSTORE SWAP3 POP JUMPDEST POP SWAP2 SWAP3 POP POP POP JUMPDEST SWAP3 SWAP2 POP POP JUMP JUMPDEST PUSH1 0x0 PUSH2 0x2C2C PUSH2 0x2C4C PUSH2 0x2C47 DUP5 PUSH1 0x0 PUSH1 0x4 PUSH2 0x315D JUMP JUMPDEST PUSH2 0x359D JUMP JUMPDEST PUSH2 0x2C5C PUSH2 0x2C47 DUP6 PUSH1 0x5 PUSH1 0x7 PUSH2 0x315D JUMP JUMPDEST PUSH2 0x2C6C PUSH2 0x2C47 DUP7 PUSH1 0x8 PUSH1 0xA PUSH2 0x315D JUMP JUMPDEST PUSH2 0x2C7C PUSH2 0x2C47 DUP8 PUSH1 0xB PUSH1 0xD PUSH2 0x315D JUMP JUMPDEST PUSH2 0x2C8C PUSH2 0x2C47 DUP9 PUSH1 0xE PUSH1 0x10 PUSH2 0x315D JUMP JUMPDEST PUSH2 0x2C9C PUSH2 0x2C47 DUP10 PUSH1 0x11 PUSH1 0x13 PUSH2 0x315D JUMP JUMPDEST PUSH2 0x38E8 JUMP JUMPDEST PUSH1 0x60 PUSH1 0x0 DUP1 PUSH20 0x100000000000000000000000000000000000003 PUSH1 0x1 PUSH1 0x1 PUSH1 0xA0 SHL SUB AND DUP8 DUP8 DUP8 DUP8 PUSH1 0x40 MLOAD PUSH1 0x20 ADD PUSH2 0x2CDB SWAP5 SWAP4 SWAP3 SWAP2 SWAP1 PUSH2 0x4F6A JUMP JUMPDEST PUSH1 0x40 DUP1 MLOAD PUSH1 0x1F NOT DUP2 DUP5 SUB ADD DUP2 MSTORE SWAP1 DUP3 SWAP1 MSTORE PUSH2 0x2CF5 SWAP2 PUSH2 0x4F9B JUMP JUMPDEST PUSH1 0x0 PUSH1 0x40 MLOAD DUP1 DUP4 SUB DUP2 DUP6 GAS STATICCALL SWAP2 POP POP RETURNDATASIZE DUP1 PUSH1 0x0 DUP2 EQ PUSH2 0x2D30 JUMPI PUSH1 0x40 MLOAD SWAP2 POP PUSH1 0x1F NOT PUSH1 0x3F RETURNDATASIZE ADD AND DUP3 ADD PUSH1 0x40 MSTORE RETURNDATASIZE DUP3 MSTORE RETURNDATASIZE PUSH1 0x0 PUSH1 0x20 DUP5 ADD RETURNDATACOPY PUSH2 0x2D35 JUMP JUMPDEST PUSH1 0x60 SWAP2 POP JUMPDEST POP SWAP2 POP SWAP2 POP DUP2 PUSH2 0x2D87 JUMPI PUSH1 0x40 MLOAD PUSH3 0x461BCD PUSH1 0xE5 SHL DUP2 MSTORE PUSH1 0x20 PUSH1 0x4 DUP3 ADD MSTORE PUSH1 0xF PUSH1 0x24 DUP3 ADD MSTORE PUSH32 0x656E63727970743A206661696C65640000000000000000000000000000000000 PUSH1 0x44 DUP3 ADD MSTORE PUSH1 0x64 ADD PUSH2 0x50C JUMP JUMPDEST SWAP2 POP POP JUMPDEST SWAP5 SWAP4 POP POP POP POP JUMP JUMPDEST DUP1 MLOAD PUSH1 0x20 DUP1 DUP4 ADD SWAP2 SWAP1 SWAP2 KECCAK256 PUSH1 0x0 SWAP1 DUP2 MSTORE SWAP1 DUP2 SWAP1 MSTORE PUSH1 0x40 DUP2 KECCAK256 SLOAD DUP3 SWAP1 PUSH1 0xFF AND ISZERO PUSH2 0x2DE8 JUMPI PUSH1 0x40 MLOAD PUSH32 0x9EA6784800000000000000000000000000000000000000000000000000000000 DUP2 MSTORE PUSH1 0x4 ADD PUSH1 0x40 MLOAD DUP1 SWAP2 SUB SWAP1 REVERT JUMPDEST DUP3 MLOAD PUSH1 0x0 SUB PUSH2 0x2DFA JUMPI PUSH1 0x0 SWAP2 POP PUSH2 0x2E0D JUMP JUMPDEST PUSH1 0x0 PUSH2 0x2E05 DUP5 PUSH2 0x3A9B JUMP JUMPDEST PUSH1 0x20 ADD MLOAD SWAP3 POP POP JUMPDEST POP SWAP2 SWAP1 POP JUMP JUMPDEST PUSH1 0x40 MLOAD PUSH1 0x1 PUSH1 0x1 PUSH1 0xA0 SHL SUB DUP1 DUP6 AND PUSH1 0x24 DUP4 ADD MSTORE DUP4 AND PUSH1 0x44 DUP3 ADD MSTORE PUSH1 0x64 DUP2 ADD DUP3 SWAP1 MSTORE PUSH2 0x2E64 SWAP1 DUP6 SWAP1 PUSH32 0x23B872DD00000000000000000000000000000000000000000000000000000000 SWAP1 PUSH1 0x84 ADD PUSH2 0x2123 JUMP JUMPDEST POP POP POP POP JUMP JUMPDEST PUSH1 0x0 PUSH2 0x2EBF DUP3 PUSH1 0x40 MLOAD DUP1 PUSH1 0x40 ADD PUSH1 0x40 MSTORE DUP1 PUSH1 0x20 DUP2 MSTORE PUSH1 0x20 ADD PUSH32 0x5361666545524332303A206C6F772D6C6576656C2063616C6C206661696C6564 DUP2 MSTORE POP DUP6 PUSH1 0x1 PUSH1 0x1 PUSH1 0xA0 SHL SUB AND PUSH2 0x3B78 SWAP1 SWAP3 SWAP2 SWAP1 PUSH4 0xFFFFFFFF AND JUMP JUMPDEST SWAP1 POP DUP1 MLOAD PUSH1 0x0 EQ DUP1 PUSH2 0x2EE0 JUMPI POP DUP1 DUP1 PUSH1 0x20 ADD SWAP1 MLOAD DUP2 ADD SWAP1 PUSH2 0x2EE0 SWAP2 SWAP1 PUSH2 0x4FB7 JUMP JUMPDEST PUSH2 0xA48 JUMPI PUSH1 0x40 MLOAD PUSH3 0x461BCD PUSH1 0xE5 SHL DUP2 MSTORE PUSH1 0x20 PUSH1 0x4 DUP3 ADD MSTORE PUSH1 0x2A PUSH1 0x24 DUP3 ADD MSTORE PUSH32 0x5361666545524332303A204552433230206F7065726174696F6E20646964206E PUSH1 0x44 DUP3 ADD MSTORE PUSH32 0x6F74207375636365656400000000000000000000000000000000000000000000 PUSH1 0x64 DUP3 ADD MSTORE PUSH1 0x84 ADD PUSH2 0x50C JUMP JUMPDEST PUSH1 0x0 PUSH1 0x60 PUSH1 0x0 DUP1 PUSH20 0x100000000000000000000000000000000000103 PUSH1 0x1 PUSH1 0x1 PUSH1 0xA0 SHL SUB AND DUP7 DUP7 PUSH1 0x40 MLOAD PUSH1 0x20 ADD PUSH2 0x2F8A SWAP3 SWAP2 SWAP1 PUSH2 0x4FD9 JUMP JUMPDEST PUSH1 0x40 DUP1 MLOAD PUSH1 0x1F NOT DUP2 DUP5 SUB ADD DUP2 MSTORE SWAP1 DUP3 SWAP1 MSTORE PUSH2 0x2FA4 SWAP2 PUSH2 0x4F9B JUMP JUMPDEST PUSH1 0x0 PUSH1 0x40 MLOAD DUP1 DUP4 SUB DUP2 DUP6 GAS STATICCALL SWAP2 POP POP RETURNDATASIZE DUP1 PUSH1 0x0 DUP2 EQ PUSH2 0x2FDF JUMPI PUSH1 0x40 MLOAD SWAP2 POP PUSH1 0x1F NOT PUSH1 0x3F RETURNDATASIZE ADD AND DUP3 ADD PUSH1 0x40 MSTORE RETURNDATASIZE DUP3 MSTORE RETURNDATASIZE PUSH1 0x0 PUSH1 0x20 DUP5 ADD RETURNDATACOPY PUSH2 0x2FE4 JUMP JUMPDEST PUSH1 0x60 SWAP2 POP JUMPDEST POP SWAP2 POP SWAP2 POP DUP2 PUSH2 0x3020 JUMPI PUSH1 0x40 MLOAD PUSH32 0x902E94F800000000000000000000000000000000000000000000000000000000 DUP2 MSTORE PUSH1 0x4 ADD PUSH1 0x40 MLOAD DUP1 SWAP2 SUB SWAP1 REVERT JUMPDEST DUP1 DUP1 PUSH1 0x20 ADD SWAP1 MLOAD DUP2 ADD SWAP1 PUSH2 0x3034 SWAP2 SWAP1 PUSH2 0x502E JUMP JUMPDEST SWAP1 SWAP8 SWAP1 SWAP7 POP SWAP5 POP POP POP POP POP JUMP JUMPDEST PUSH1 0x0 DUP1 DUP3 PUSH1 0x8 DUP2 GT ISZERO PUSH2 0x3056 JUMPI PUSH2 0x3056 PUSH2 0x425F JUMP JUMPDEST EQ ISZERO DUP1 ISZERO PUSH2 0x2C2C JUMPI POP PUSH1 0x1 DUP3 PUSH1 0x8 DUP2 GT ISZERO PUSH2 0x3073 JUMPI PUSH2 0x3073 PUSH2 0x425F JUMP JUMPDEST EQ ISZERO SWAP3 SWAP2 POP POP JUMP JUMPDEST PUSH1 0x0 DUP1 PUSH27 0x184F03E93FF9F4DAA797ED6E38ED64BF6A1F010000000000000000 DUP4 LT PUSH2 0x30C4 JUMPI PUSH27 0x184F03E93FF9F4DAA797ED6E38ED64BF6A1F010000000000000000 DUP4 DIV SWAP3 POP PUSH1 0x40 ADD JUMPDEST PUSH14 0x4EE2D6D415B85ACEF8100000000 DUP4 LT PUSH2 0x30F0 JUMPI PUSH14 0x4EE2D6D415B85ACEF8100000000 DUP4 DIV SWAP3 POP PUSH1 0x20 ADD JUMPDEST PUSH7 0x2386F26FC10000 DUP4 LT PUSH2 0x310E JUMPI PUSH7 0x2386F26FC10000 DUP4 DIV SWAP3 POP PUSH1 0x10 ADD JUMPDEST PUSH4 0x5F5E100 DUP4 LT PUSH2 0x3126 JUMPI PUSH4 0x5F5E100 DUP4 DIV SWAP3 POP PUSH1 0x8 ADD JUMPDEST PUSH2 0x2710 DUP4 LT PUSH2 0x313A JUMPI PUSH2 0x2710 DUP4 DIV SWAP3 POP PUSH1 0x4 ADD JUMPDEST PUSH1 0x64 DUP4 LT PUSH2 0x314C JUMPI PUSH1 0x64 DUP4 DIV SWAP3 POP PUSH1 0x2 ADD JUMPDEST PUSH1 0xA DUP4 LT PUSH2 0x2C2C JUMPI PUSH1 0x1 ADD SWAP3 SWAP2 POP POP JUMP JUMPDEST PUSH1 0x60 PUSH1 0x0 PUSH2 0x316B DUP5 DUP5 PUSH2 0x4BF2 JUMP JUMPDEST PUSH8 0xFFFFFFFFFFFFFFFF DUP2 GT ISZERO PUSH2 0x3183 JUMPI PUSH2 0x3183 PUSH2 0x44EF JUMP JUMPDEST PUSH1 0x40 MLOAD SWAP1 DUP1 DUP3 MSTORE DUP1 PUSH1 0x1F ADD PUSH1 0x1F NOT AND PUSH1 0x20 ADD DUP3 ADD PUSH1 0x40 MSTORE DUP1 ISZERO PUSH2 0x31AD JUMPI PUSH1 0x20 DUP3 ADD DUP2 DUP1 CALLDATASIZE DUP4 CALLDATACOPY ADD SWAP1 POP JUMPDEST POP SWAP1 POP DUP4 JUMPDEST DUP4 DUP2 LT DUP1 ISZERO PUSH2 0x31C1 JUMPI POP DUP6 MLOAD DUP2 LT JUMPDEST ISZERO PUSH2 0x322B JUMPI DUP6 DUP2 DUP2 MLOAD DUP2 LT PUSH2 0x31D8 JUMPI PUSH2 0x31D8 PUSH2 0x4C05 JUMP JUMPDEST ADD PUSH1 0x20 ADD MLOAD PUSH1 0x1 PUSH1 0x1 PUSH1 0xF8 SHL SUB NOT AND DUP3 PUSH2 0x31F2 DUP8 DUP5 PUSH2 0x4BF2 JUMP JUMPDEST DUP2 MLOAD DUP2 LT PUSH2 0x3202 JUMPI PUSH2 0x3202 PUSH2 0x4C05 JUMP JUMPDEST PUSH1 0x20 ADD ADD SWAP1 PUSH1 0x1 PUSH1 0x1 PUSH1 0xF8 SHL SUB NOT AND SWAP1 DUP2 PUSH1 0x0 BYTE SWAP1 MSTORE8 POP DUP1 PUSH2 0x3223 DUP2 PUSH2 0x4F51 JUMP JUMPDEST SWAP2 POP POP PUSH2 0x31B2 JUMP JUMPDEST POP SWAP5 SWAP4 POP POP POP POP JUMP JUMPDEST PUSH1 0x0 DUP2 MLOAD PUSH1 0x28 EQ PUSH2 0x3271 JUMPI PUSH1 0x40 MLOAD PUSH32 0xACF8696900000000000000000000000000000000000000000000000000000000 DUP2 MSTORE PUSH1 0x4 ADD PUSH1 0x40 MLOAD DUP1 SWAP2 SUB SWAP1 REVERT JUMPDEST PUSH1 0x0 PUSH1 0x2 DUP4 MLOAD PUSH2 0x3281 SWAP2 SWAP1 PUSH2 0x5093 JUMP JUMPDEST PUSH8 0xFFFFFFFFFFFFFFFF DUP2 GT ISZERO PUSH2 0x3299 JUMPI PUSH2 0x3299 PUSH2 0x44EF JUMP JUMPDEST PUSH1 0x40 MLOAD SWAP1 DUP1 DUP3 MSTORE DUP1 PUSH1 0x1F ADD PUSH1 0x1F NOT AND PUSH1 0x20 ADD DUP3 ADD PUSH1 0x40 MSTORE DUP1 ISZERO PUSH2 0x32C3 JUMPI PUSH1 0x20 DUP3 ADD DUP2 DUP1 CALLDATASIZE DUP4 CALLDATACOPY ADD SWAP1 POP JUMPDEST POP SWAP1 POP PUSH1 0x0 JUMPDEST PUSH1 0x2 DUP5 MLOAD PUSH2 0x32D7 SWAP2 SWAP1 PUSH2 0x5093 JUMP JUMPDEST DUP2 LT ISZERO PUSH2 0x336D JUMPI PUSH2 0x3315 DUP5 PUSH2 0x32ED DUP4 PUSH1 0x2 PUSH2 0x50A7 JUMP JUMPDEST PUSH2 0x32F8 SWAP1 PUSH1 0x1 PUSH2 0x4C4F JUMP JUMPDEST DUP2 MLOAD DUP2 LT PUSH2 0x3308 JUMPI PUSH2 0x3308 PUSH2 0x4C05 JUMP JUMPDEST ADD PUSH1 0x20 ADD MLOAD PUSH1 0xF8 SHR PUSH2 0x3B87 JUMP JUMPDEST PUSH2 0x3324 DUP6 PUSH2 0x32F8 DUP5 PUSH1 0x2 PUSH2 0x50A7 JUMP JUMPDEST PUSH2 0x332F SWAP1 PUSH1 0x10 PUSH2 0x50BE JUMP JUMPDEST PUSH2 0x3339 SWAP2 SWAP1 PUSH2 0x50DA JUMP JUMPDEST PUSH1 0xF8 SHL DUP3 DUP3 DUP2 MLOAD DUP2 LT PUSH2 0x334E JUMPI PUSH2 0x334E PUSH2 0x4C05 JUMP JUMPDEST PUSH1 0x20 ADD ADD SWAP1 PUSH1 0x1 PUSH1 0x1 PUSH1 0xF8 SHL SUB NOT AND SWAP1 DUP2 PUSH1 0x0 BYTE SWAP1 MSTORE8 POP PUSH1 0x1 ADD PUSH2 0x32C9 JUMP JUMPDEST POP PUSH2 0x3377 DUP2 PUSH2 0x50F3 JUMP JUMPDEST PUSH1 0x60 SHR SWAP4 SWAP3 POP POP POP JUMP JUMPDEST PUSH1 0x60 PUSH1 0x0 DUP3 JUMPDEST DUP6 DUP2 LT ISZERO PUSH2 0x34B8 JUMPI DUP7 DUP7 DUP3 DUP2 DUP2 LT PUSH2 0x33A1 JUMPI PUSH2 0x33A1 PUSH2 0x4C05 JUMP JUMPDEST SWAP1 SWAP2 ADD CALLDATALOAD PUSH1 0x1 PUSH1 0x1 PUSH1 0xF8 SHL SUB NOT AND PUSH32 0x3A00000000000000000000000000000000000000000000000000000000000000 SUB SWAP1 POP PUSH2 0x34A6 JUMPI DUP5 DUP1 MLOAD SWAP1 PUSH1 0x20 ADD KECCAK256 PUSH2 0x3422 DUP9 DUP9 DUP1 DUP1 PUSH1 0x1F ADD PUSH1 0x20 DUP1 SWAP2 DIV MUL PUSH1 0x20 ADD PUSH1 0x40 MLOAD SWAP1 DUP2 ADD PUSH1 0x40 MSTORE DUP1 SWAP4 SWAP3 SWAP2 SWAP1 DUP2 DUP2 MSTORE PUSH1 0x20 ADD DUP4 DUP4 DUP1 DUP3 DUP5 CALLDATACOPY PUSH1 0x0 SWAP3 ADD SWAP2 SWAP1 SWAP2 MSTORE POP DUP10 SWAP3 POP DUP7 SWAP2 POP PUSH2 0x315D SWAP1 POP JUMP JUMPDEST DUP1 MLOAD SWAP1 PUSH1 0x20 ADD KECCAK256 EQ PUSH2 0x3447 JUMPI POP POP PUSH1 0x40 DUP1 MLOAD PUSH1 0x20 DUP2 ADD SWAP1 SWAP2 MSTORE PUSH1 0x0 DUP2 MSTORE SWAP1 POP DUP2 PUSH2 0x3594 JUMP JUMPDEST DUP1 PUSH2 0x3451 DUP2 PUSH2 0x4F51 JUMP JUMPDEST SWAP2 POP POP DUP6 DUP2 LT DUP1 ISZERO PUSH2 0x348B JUMPI POP DUP7 DUP7 DUP3 DUP2 DUP2 LT PUSH2 0x3470 JUMPI PUSH2 0x3470 PUSH2 0x4C05 JUMP JUMPDEST SWAP1 POP ADD CALLDATALOAD PUSH1 0xF8 SHR PUSH1 0xF8 SHL PUSH1 0x1 PUSH1 0x1 PUSH1 0xF8 SHL SUB NOT AND PUSH1 0x1 PUSH1 0xFD SHL EQ JUMPDEST ISZERO PUSH2 0x349E JUMPI DUP1 PUSH2 0x349A DUP2 PUSH2 0x4F51 JUMP JUMPDEST SWAP2 POP POP JUMPDEST DUP1 SWAP4 POP PUSH2 0x34B8 JUMP JUMPDEST DUP1 PUSH2 0x34B0 DUP2 PUSH2 0x4F51 JUMP JUMPDEST SWAP2 POP POP PUSH2 0x3387 JUMP JUMPDEST DUP6 DUP2 LT ISZERO PUSH2 0x354C JUMPI DUP7 DUP7 DUP3 DUP2 DUP2 LT PUSH2 0x34D2 JUMPI PUSH2 0x34D2 PUSH2 0x4C05 JUMP JUMPDEST SWAP1 SWAP2 ADD CALLDATALOAD PUSH1 0x1 PUSH1 0x1 PUSH1 0xF8 SHL SUB NOT AND PUSH1 0x5 PUSH1 0xF9 SHL SUB SWAP1 POP PUSH2 0x3544 JUMPI PUSH2 0x352F DUP8 DUP8 DUP1 DUP1 PUSH1 0x1F ADD PUSH1 0x20 DUP1 SWAP2 DIV MUL PUSH1 0x20 ADD PUSH1 0x40 MLOAD SWAP1 DUP2 ADD PUSH1 0x40 MSTORE DUP1 SWAP4 SWAP3 SWAP2 SWAP1 DUP2 DUP2 MSTORE PUSH1 0x20 ADD DUP4 DUP4 DUP1 DUP3 DUP5 CALLDATACOPY PUSH1 0x0 SWAP3 ADD SWAP2 SWAP1 SWAP2 MSTORE POP DUP9 SWAP3 POP DUP6 SWAP2 POP PUSH2 0x315D SWAP1 POP JUMP JUMPDEST PUSH2 0x353A DUP3 PUSH1 0x1 PUSH2 0x4C4F JUMP JUMPDEST SWAP3 POP SWAP3 POP POP PUSH2 0x3594 JUMP JUMPDEST PUSH1 0x1 ADD PUSH2 0x34B8 JUMP JUMPDEST PUSH2 0x358F DUP8 DUP8 DUP1 DUP1 PUSH1 0x1F ADD PUSH1 0x20 DUP1 SWAP2 DIV MUL PUSH1 0x20 ADD PUSH1 0x40 MLOAD SWAP1 DUP2 ADD PUSH1 0x40 MSTORE DUP1 SWAP4 SWAP3 SWAP2 SWAP1 DUP2 DUP2 MSTORE PUSH1 0x20 ADD DUP4 DUP4 DUP1 DUP3 DUP5 CALLDATACOPY PUSH1 0x0 SWAP3 ADD SWAP2 SWAP1 SWAP2 MSTORE POP DUP9 SWAP3 POP DUP6 SWAP2 POP PUSH2 0x315D SWAP1 POP JUMP JUMPDEST SWAP3 POP SWAP1 POP JUMPDEST SWAP5 POP SWAP5 SWAP3 POP POP POP JUMP JUMPDEST PUSH1 0x0 DUP1 DUP1 JUMPDEST DUP4 MLOAD DUP2 LT ISZERO PUSH2 0x35F0 JUMPI PUSH1 0x30 DUP5 DUP3 DUP2 MLOAD DUP2 LT PUSH2 0x35BF JUMPI PUSH2 0x35BF PUSH2 0x4C05 JUMP JUMPDEST ADD PUSH1 0x20 ADD MLOAD PUSH2 0x35D1 SWAP2 SWAP1 PUSH1 0xF8 SHR PUSH2 0x4BF2 JUMP JUMPDEST PUSH2 0x35DC DUP4 PUSH1 0xA PUSH2 0x50A7 JUMP JUMPDEST PUSH2 0x35E6 SWAP2 SWAP1 PUSH2 0x4C4F JUMP JUMPDEST SWAP2 POP PUSH1 0x1 ADD PUSH2 0x35A2 JUMP JUMPDEST POP SWAP3 SWAP2 POP POP JUMP JUMPDEST PUSH1 0x60 PUSH1 0x0 DUP3 DUP2 JUMPDEST PUSH2 0x3609 PUSH1 0x1 DUP8 PUSH2 0x4BF2 JUMP JUMPDEST DUP3 LT ISZERO PUSH2 0x3704 JUMPI DUP7 DUP7 DUP4 DUP2 DUP2 LT PUSH2 0x3622 JUMPI PUSH2 0x3622 PUSH2 0x4C05 JUMP JUMPDEST SWAP1 POP ADD CALLDATALOAD PUSH1 0xF8 SHR PUSH1 0xF8 SHL PUSH1 0x1 PUSH1 0x1 PUSH1 0xF8 SHL SUB NOT AND PUSH1 0x2D PUSH1 0xF8 SHL EQ DUP1 ISZERO PUSH2 0x367A JUMPI POP DUP7 DUP7 PUSH2 0x3650 DUP5 PUSH1 0x1 PUSH2 0x4C4F JUMP JUMPDEST DUP2 DUP2 LT PUSH2 0x365F JUMPI PUSH2 0x365F PUSH2 0x4C05 JUMP JUMPDEST SWAP1 POP ADD CALLDATALOAD PUSH1 0xF8 SHR PUSH1 0xF8 SHL PUSH1 0x1 PUSH1 0x1 PUSH1 0xF8 SHL SUB NOT AND PUSH1 0x1 PUSH1 0xFD SHL EQ JUMPDEST ISZERO PUSH2 0x369E JUMPI PUSH2 0x368A PUSH1 0x2 DUP4 PUSH2 0x4C4F JUMP JUMPDEST SWAP2 POP DUP1 PUSH2 0x3696 DUP2 PUSH2 0x4F51 JUMP JUMPDEST SWAP2 POP POP PUSH2 0x36A3 JUMP JUMPDEST PUSH2 0x3704 JUMP JUMPDEST DUP6 DUP3 LT DUP1 ISZERO PUSH2 0x36DB JUMPI POP DUP7 DUP7 DUP4 DUP2 DUP2 LT PUSH2 0x36BF JUMPI PUSH2 0x36BF PUSH2 0x4C05 JUMP JUMPDEST SWAP1 POP ADD CALLDATALOAD PUSH1 0xF8 SHR PUSH1 0xF8 SHL PUSH1 0x1 PUSH1 0x1 PUSH1 0xF8 SHL SUB NOT AND PUSH1 0xA PUSH1 0xF8 SHL EQ ISZERO JUMPDEST ISZERO PUSH2 0x36F2 JUMPI DUP2 PUSH2 0x36EA DUP2 PUSH2 0x4F51 JUMP JUMPDEST SWAP3 POP POP PUSH2 0x36A3 JUMP JUMPDEST DUP2 PUSH2 0x36FC DUP2 PUSH2 0x4F51 JUMP JUMPDEST SWAP3 POP POP PUSH2 0x35FE JUMP JUMPDEST PUSH1 0x0 DUP2 PUSH8 0xFFFFFFFFFFFFFFFF DUP2 GT ISZERO PUSH2 0x371F JUMPI PUSH2 0x371F PUSH2 0x44EF JUMP JUMPDEST PUSH1 0x40 MLOAD SWAP1 DUP1 DUP3 MSTORE DUP1 PUSH1 0x20 MUL PUSH1 0x20 ADD DUP3 ADD PUSH1 0x40 MSTORE DUP1 ISZERO PUSH2 0x3752 JUMPI DUP2 PUSH1 0x20 ADD JUMPDEST PUSH1 0x60 DUP2 MSTORE PUSH1 0x20 ADD SWAP1 PUSH1 0x1 SWAP1 SUB SWAP1 DUP2 PUSH2 0x373D JUMPI SWAP1 POP JUMPDEST POP SWAP1 POP DUP6 SWAP3 POP PUSH1 0x0 JUMPDEST PUSH2 0x3766 PUSH1 0x1 DUP10 PUSH2 0x4BF2 JUMP JUMPDEST DUP5 LT DUP1 ISZERO PUSH2 0x3774 JUMPI POP DUP3 DUP2 EQ ISZERO JUMPDEST ISZERO PUSH2 0x38DA JUMPI DUP9 DUP9 DUP6 DUP2 DUP2 LT PUSH2 0x378B JUMPI PUSH2 0x378B PUSH2 0x4C05 JUMP JUMPDEST SWAP1 POP ADD CALLDATALOAD PUSH1 0xF8 SHR PUSH1 0xF8 SHL PUSH1 0x1 PUSH1 0x1 PUSH1 0xF8 SHL SUB NOT AND PUSH1 0x2D PUSH1 0xF8 SHL EQ DUP1 ISZERO PUSH2 0x37E3 JUMPI POP DUP9 DUP9 PUSH2 0x37B9 DUP7 PUSH1 0x1 PUSH2 0x4C4F JUMP JUMPDEST DUP2 DUP2 LT PUSH2 0x37C8 JUMPI PUSH2 0x37C8 PUSH2 0x4C05 JUMP JUMPDEST SWAP1 POP ADD CALLDATALOAD PUSH1 0xF8 SHR PUSH1 0xF8 SHL PUSH1 0x1 PUSH1 0x1 PUSH1 0xF8 SHL SUB NOT AND PUSH1 0x1 PUSH1 0xFD SHL EQ JUMPDEST ISZERO PUSH2 0x37F6 JUMPI PUSH2 0x37F3 DUP5 PUSH1 0x2 PUSH2 0x4C4F JUMP JUMPDEST SWAP7 POP JUMPDEST DUP8 DUP5 LT DUP1 ISZERO PUSH2 0x382E JUMPI POP DUP9 DUP9 DUP6 DUP2 DUP2 LT PUSH2 0x3812 JUMPI PUSH2 0x3812 PUSH2 0x4C05 JUMP JUMPDEST SWAP1 POP ADD CALLDATALOAD PUSH1 0xF8 SHR PUSH1 0xF8 SHL PUSH1 0x1 PUSH1 0x1 PUSH1 0xF8 SHL SUB NOT AND PUSH1 0xA PUSH1 0xF8 SHL EQ ISZERO JUMPDEST ISZERO PUSH2 0x3845 JUMPI DUP4 PUSH2 0x383D DUP2 PUSH2 0x4F51 JUMP JUMPDEST SWAP5 POP POP PUSH2 0x37F6 JUMP JUMPDEST PUSH2 0x3888 DUP10 DUP10 DUP1 DUP1 PUSH1 0x1F ADD PUSH1 0x20 DUP1 SWAP2 DIV MUL PUSH1 0x20 ADD PUSH1 0x40 MLOAD SWAP1 DUP2 ADD PUSH1 0x40 MSTORE DUP1 SWAP4 SWAP3 SWAP2 SWAP1 DUP2 DUP2 MSTORE PUSH1 0x20 ADD DUP4 DUP4 DUP1 DUP3 DUP5 CALLDATACOPY PUSH1 0x0 SWAP3 ADD SWAP2 SWAP1 SWAP2 MSTORE POP DUP12 SWAP3 POP DUP9 SWAP2 POP PUSH2 0x315D SWAP1 POP JUMP JUMPDEST DUP3 DUP3 DUP2 MLOAD DUP2 LT PUSH2 0x389A JUMPI PUSH2 0x389A PUSH2 0x4C05 JUMP JUMPDEST PUSH1 0x20 MUL PUSH1 0x20 ADD ADD DUP2 SWAP1 MSTORE POP DUP1 DUP1 PUSH2 0x38B0 SWAP1 PUSH2 0x4F51 JUMP JUMPDEST SWAP2 POP POP DUP8 DUP5 SUB PUSH2 0x38C8 JUMPI DUP4 PUSH2 0x38C4 DUP2 PUSH2 0x5146 JUMP JUMPDEST SWAP5 POP POP JUMPDEST DUP4 PUSH2 0x38D2 DUP2 PUSH2 0x4F51 JUMP JUMPDEST SWAP5 POP POP PUSH2 0x375B JUMP JUMPDEST POP SWAP8 SWAP2 SWAP7 POP SWAP1 SWAP5 POP POP POP POP POP JUMP JUMPDEST PUSH1 0x0 PUSH2 0x7B2 JUMPDEST DUP8 PUSH2 0xFFFF AND DUP2 PUSH2 0xFFFF AND LT ISZERO PUSH2 0x393A JUMPI PUSH2 0x3907 DUP2 PUSH2 0x3D13 JUMP JUMPDEST ISZERO PUSH2 0x3921 JUMPI PUSH2 0x391A PUSH4 0x1E28500 DUP4 PUSH2 0x4C4F JUMP JUMPDEST SWAP2 POP PUSH2 0x3932 JUMP JUMPDEST PUSH2 0x392F PUSH4 0x1E13380 DUP4 PUSH2 0x4C4F JUMP JUMPDEST SWAP2 POP JUMPDEST PUSH1 0x1 ADD PUSH2 0x38EE JUMP JUMPDEST PUSH2 0x3942 PUSH2 0x4153 JUMP JUMPDEST PUSH1 0x1F DUP2 MSTORE PUSH2 0x394F DUP10 PUSH2 0x3D13 JUMP JUMPDEST ISZERO PUSH2 0x3960 JUMPI PUSH1 0x1D PUSH1 0x20 DUP3 ADD MSTORE PUSH2 0x3968 JUMP JUMPDEST PUSH1 0x1C PUSH1 0x20 DUP3 ADD MSTORE JUMPDEST PUSH1 0x1F PUSH1 0x40 DUP3 ADD DUP2 SWAP1 MSTORE PUSH1 0x1E PUSH1 0x60 DUP4 ADD DUP2 SWAP1 MSTORE PUSH1 0x80 DUP4 ADD DUP3 SWAP1 MSTORE PUSH1 0xA0 DUP4 ADD DUP2 SWAP1 MSTORE PUSH1 0xC0 DUP4 ADD DUP3 SWAP1 MSTORE PUSH1 0xE0 DUP4 ADD DUP3 SWAP1 MSTORE PUSH2 0x100 DUP4 ADD DUP2 SWAP1 MSTORE PUSH2 0x120 DUP4 ADD DUP3 SWAP1 MSTORE PUSH2 0x140 DUP4 ADD MSTORE PUSH2 0x160 DUP3 ADD MSTORE PUSH1 0x1 SWAP2 POP JUMPDEST DUP8 PUSH1 0xFF AND DUP3 PUSH2 0xFFFF AND LT ISZERO PUSH2 0x3A15 JUMPI DUP1 PUSH2 0x39D2 PUSH1 0x1 DUP5 PUSH2 0x515D JUMP JUMPDEST PUSH2 0xFFFF AND PUSH1 0xC DUP2 LT PUSH2 0x39E6 JUMPI PUSH2 0x39E6 PUSH2 0x4C05 JUMP JUMPDEST PUSH1 0x20 MUL ADD MLOAD PUSH2 0x39F8 SWAP1 PUSH3 0x15180 PUSH2 0x5177 JUMP JUMPDEST PUSH2 0x3A08 SWAP1 PUSH4 0xFFFFFFFF AND DUP5 PUSH2 0x4C4F JUMP JUMPDEST SWAP3 POP PUSH1 0x1 SWAP1 SWAP2 ADD SWAP1 PUSH2 0x39B7 JUMP JUMPDEST PUSH2 0x3A20 PUSH1 0x1 DUP9 PUSH2 0x5196 JUMP JUMPDEST PUSH2 0x3A30 SWAP1 PUSH1 0xFF AND PUSH3 0x15180 PUSH2 0x5177 JUMP JUMPDEST PUSH2 0x3A40 SWAP1 PUSH4 0xFFFFFFFF AND DUP5 PUSH2 0x4C4F JUMP JUMPDEST SWAP3 POP PUSH2 0x3A51 PUSH1 0xFF DUP8 AND PUSH2 0xE10 PUSH2 0x5177 JUMP JUMPDEST PUSH2 0x3A61 SWAP1 PUSH4 0xFFFFFFFF AND DUP5 PUSH2 0x4C4F JUMP JUMPDEST SWAP3 POP PUSH2 0x3A71 PUSH1 0xFF DUP7 AND PUSH1 0x3C PUSH2 0x51AF JUMP JUMPDEST PUSH2 0x3A7F SWAP1 PUSH2 0xFFFF AND DUP5 PUSH2 0x4C4F JUMP JUMPDEST SWAP3 POP PUSH2 0x3A8E PUSH1 0xFF DUP6 AND DUP5 PUSH2 0x4C4F JUMP JUMPDEST SWAP10 SWAP9 POP POP POP POP POP POP POP POP POP JUMP JUMPDEST PUSH2 0x3AD6 PUSH1 0x40 MLOAD DUP1 PUSH1 0xA0 ADD PUSH1 0x40 MSTORE DUP1 PUSH1 0x60 DUP2 MSTORE PUSH1 0x20 ADD PUSH1 0x0 PUSH1 0x1 PUSH1 0x1 PUSH1 0xA0 SHL SUB AND DUP2 MSTORE PUSH1 0x20 ADD PUSH1 0x0 DUP2 MSTORE PUSH1 0x20 ADD PUSH1 0x60 DUP2 MSTORE PUSH1 0x20 ADD PUSH1 0x60 DUP2 MSTORE POP SWAP1 JUMP JUMPDEST PUSH1 0x0 PUSH2 0x3AF8 PUSH1 0x2 SLOAD PUSH1 0x0 DUP1 SHL DUP6 PUSH1 0x40 MLOAD DUP1 PUSH1 0x20 ADD PUSH1 0x40 MSTORE DUP1 PUSH1 0x0 DUP2 MSTORE POP PUSH2 0x3D72 JUMP JUMPDEST SWAP1 POP PUSH1 0x0 DUP2 DUP1 PUSH1 0x20 ADD SWAP1 MLOAD DUP2 ADD SWAP1 PUSH2 0x3B10 SWAP2 SWAP1 PUSH2 0x527A JUMP JUMPDEST SWAP1 POP PUSH1 0x1 PUSH1 0x40 MLOAD PUSH2 0x3B21 SWAP2 SWAP1 PUSH2 0x4DBC JUMP JUMPDEST PUSH1 0x40 MLOAD DUP1 SWAP2 SUB SWAP1 KECCAK256 DUP2 PUSH1 0x0 ADD MLOAD DUP1 MLOAD SWAP1 PUSH1 0x20 ADD KECCAK256 EQ PUSH2 0x3B53 JUMPI PUSH1 0x40 MLOAD PUSH4 0x283D62BD PUSH1 0xE0 SHL DUP2 MSTORE PUSH1 0x4 ADD PUSH1 0x40 MLOAD DUP1 SWAP2 SUB SWAP1 REVERT JUMPDEST TIMESTAMP DUP2 PUSH1 0x40 ADD MLOAD LT ISZERO PUSH2 0x13E4 JUMPI PUSH1 0x40 MLOAD PUSH4 0xB171155 PUSH1 0xE4 SHL DUP2 MSTORE PUSH1 0x4 ADD PUSH1 0x40 MLOAD DUP1 SWAP2 SUB SWAP1 REVERT JUMPDEST PUSH1 0x60 PUSH2 0x2D8B DUP5 DUP5 PUSH1 0x0 DUP6 PUSH2 0x3E58 JUMP JUMPDEST PUSH1 0x0 PUSH32 0x3000000000000000000000000000000000000000000000000000000000000000 PUSH1 0xF8 DUP4 SWAP1 SHL PUSH1 0x1 PUSH1 0x1 PUSH1 0xF8 SHL SUB NOT AND LT DUP1 ISZERO SWAP1 PUSH2 0x3BF5 JUMPI POP PUSH32 0x3900000000000000000000000000000000000000000000000000000000000000 PUSH1 0xF8 DUP4 SWAP1 SHL PUSH1 0x1 PUSH1 0x1 PUSH1 0xF8 SHL SUB NOT AND GT ISZERO JUMPDEST ISZERO PUSH2 0x3C05 JUMPI PUSH2 0x2C2C PUSH1 0x30 DUP4 PUSH2 0x5196 JUMP JUMPDEST PUSH32 0x6100000000000000000000000000000000000000000000000000000000000000 PUSH1 0xF8 DUP4 SWAP1 SHL PUSH1 0x1 PUSH1 0x1 PUSH1 0xF8 SHL SUB NOT AND LT DUP1 ISZERO SWAP1 PUSH2 0x3C71 JUMPI POP PUSH32 0x6600000000000000000000000000000000000000000000000000000000000000 PUSH1 0xF8 DUP4 SWAP1 SHL PUSH1 0x1 PUSH1 0x1 PUSH1 0xF8 SHL SUB NOT AND GT ISZERO JUMPDEST ISZERO PUSH2 0x3C8D JUMPI PUSH1 0x61 PUSH2 0x3C83 DUP4 PUSH1 0xA PUSH2 0x50DA JUMP JUMPDEST PUSH2 0x2C2C SWAP2 SWAP1 PUSH2 0x5196 JUMP JUMPDEST PUSH32 0x4100000000000000000000000000000000000000000000000000000000000000 PUSH1 0xF8 DUP4 SWAP1 SHL PUSH1 0x1 PUSH1 0x1 PUSH1 0xF8 SHL SUB NOT AND LT DUP1 ISZERO SWAP1 PUSH2 0x3CF9 JUMPI POP PUSH32 0x4600000000000000000000000000000000000000000000000000000000000000 PUSH1 0xF8 DUP4 SWAP1 SHL PUSH1 0x1 PUSH1 0x1 PUSH1 0xF8 SHL SUB NOT AND GT ISZERO JUMPDEST ISZERO PUSH2 0x3D0B JUMPI PUSH1 0x41 PUSH2 0x3C83 DUP4 PUSH1 0xA PUSH2 0x50DA JUMP JUMPDEST POP PUSH1 0x0 SWAP2 SWAP1 POP JUMP JUMPDEST PUSH1 0x0 PUSH2 0x3D20 PUSH1 0x4 DUP4 PUSH2 0x535E JUMP JUMPDEST PUSH2 0xFFFF AND ISZERO PUSH2 0x3D31 JUMPI POP PUSH1 0x0 SWAP2 SWAP1 POP JUMP JUMPDEST PUSH2 0x3D3C PUSH1 0x64 DUP4 PUSH2 0x535E JUMP JUMPDEST PUSH2 0xFFFF AND ISZERO PUSH2 0x3D4D JUMPI POP PUSH1 0x1 SWAP2 SWAP1 POP JUMP JUMPDEST PUSH2 0x3D59 PUSH2 0x190 DUP4 PUSH2 0x535E JUMP JUMPDEST PUSH2 0xFFFF AND ISZERO PUSH2 0x3D6A JUMPI POP PUSH1 0x0 SWAP2 SWAP1 POP JUMP JUMPDEST POP PUSH1 0x1 SWAP2 SWAP1 POP JUMP JUMPDEST PUSH1 0x60 PUSH1 0x0 DUP1 PUSH20 0x100000000000000000000000000000000000004 PUSH1 0x1 PUSH1 0x1 PUSH1 0xA0 SHL SUB AND DUP8 DUP8 DUP8 DUP8 PUSH1 0x40 MLOAD PUSH1 0x20 ADD PUSH2 0x3DAC SWAP5 SWAP4 SWAP3 SWAP2 SWAP1 PUSH2 0x4F6A JUMP JUMPDEST PUSH1 0x40 DUP1 MLOAD PUSH1 0x1F NOT DUP2 DUP5 SUB ADD DUP2 MSTORE SWAP1 DUP3 SWAP1 MSTORE PUSH2 0x3DC6 SWAP2 PUSH2 0x4F9B JUMP JUMPDEST PUSH1 0x0 PUSH1 0x40 MLOAD DUP1 DUP4 SUB DUP2 DUP6 GAS STATICCALL SWAP2 POP POP RETURNDATASIZE DUP1 PUSH1 0x0 DUP2 EQ PUSH2 0x3E01 JUMPI PUSH1 0x40 MLOAD SWAP2 POP PUSH1 0x1F NOT PUSH1 0x3F RETURNDATASIZE ADD AND DUP3 ADD PUSH1 0x40 MSTORE RETURNDATASIZE DUP3 MSTORE RETURNDATASIZE PUSH1 0x0 PUSH1 0x20 DUP5 ADD RETURNDATACOPY PUSH2 0x3E06 JUMP JUMPDEST PUSH1 0x60 SWAP2 POP JUMPDEST POP SWAP2 POP SWAP2 POP DUP2 PUSH2 0x2D87 JUMPI PUSH1 0x40 MLOAD PUSH3 0x461BCD PUSH1 0xE5 SHL DUP2 MSTORE PUSH1 0x20 PUSH1 0x4 DUP3 ADD MSTORE PUSH1 0xF PUSH1 0x24 DUP3 ADD MSTORE PUSH32 0x646563727970743A206661696C65640000000000000000000000000000000000 PUSH1 0x44 DUP3 ADD MSTORE PUSH1 0x64 ADD PUSH2 0x50C JUMP JUMPDEST PUSH1 0x60 DUP3 SELFBALANCE LT ISZERO PUSH2 0x3ED0 JUMPI PUSH1 0x40 MLOAD PUSH3 0x461BCD PUSH1 0xE5 SHL DUP2 MSTORE PUSH1 0x20 PUSH1 0x4 DUP3 ADD MSTORE PUSH1 0x26 PUSH1 0x24 DUP3 ADD MSTORE PUSH32 0x416464726573733A20696E73756666696369656E742062616C616E636520666F PUSH1 0x44 DUP3 ADD MSTORE PUSH32 0x722063616C6C0000000000000000000000000000000000000000000000000000 PUSH1 0x64 DUP3 ADD MSTORE PUSH1 0x84 ADD PUSH2 0x50C JUMP JUMPDEST PUSH1 0x0 DUP1 DUP7 PUSH1 0x1 PUSH1 0x1 PUSH1 0xA0 SHL SUB AND DUP6 DUP8 PUSH1 0x40 MLOAD PUSH2 0x3EEC SWAP2 SWAP1 PUSH2 0x4F9B JUMP JUMPDEST PUSH1 0x0 PUSH1 0x40 MLOAD DUP1 DUP4 SUB DUP2 DUP6 DUP8 GAS CALL SWAP3 POP POP POP RETURNDATASIZE DUP1 PUSH1 0x0 DUP2 EQ PUSH2 0x3F29 JUMPI PUSH1 0x40 MLOAD SWAP2 POP PUSH1 0x1F NOT PUSH1 0x3F RETURNDATASIZE ADD AND DUP3 ADD PUSH1 0x40 MSTORE RETURNDATASIZE DUP3 MSTORE RETURNDATASIZE PUSH1 0x0 PUSH1 0x20 DUP5 ADD RETURNDATACOPY PUSH2 0x3F2E JUMP JUMPDEST PUSH1 0x60 SWAP2 POP JUMPDEST POP SWAP2 POP SWAP2 POP PUSH2 0x3F3F DUP8 DUP4 DUP4 DUP8 PUSH2 0x3F4A JUMP JUMPDEST SWAP8 SWAP7 POP POP POP POP POP POP POP JUMP JUMPDEST PUSH1 0x60 DUP4 ISZERO PUSH2 0x3FB9 JUMPI DUP3 MLOAD PUSH1 0x0 SUB PUSH2 0x3FB2 JUMPI PUSH1 0x1 PUSH1 0x1 PUSH1 0xA0 SHL SUB DUP6 AND EXTCODESIZE PUSH2 0x3FB2 JUMPI PUSH1 0x40 MLOAD PUSH3 0x461BCD PUSH1 0xE5 SHL DUP2 MSTORE PUSH1 0x20 PUSH1 0x4 DUP3 ADD MSTORE PUSH1 0x1D PUSH1 0x24 DUP3 ADD MSTORE PUSH32 0x416464726573733A2063616C6C20746F206E6F6E2D636F6E7472616374000000 PUSH1 0x44 DUP3 ADD MSTORE PUSH1 0x64 ADD PUSH2 0x50C JUMP JUMPDEST POP DUP2 PUSH2 0x2D8B JUMP JUMPDEST PUSH2 0x2D8B DUP4 DUP4 DUP2 MLOAD ISZERO PUSH2 0x3FCE JUMPI DUP2 MLOAD DUP1 DUP4 PUSH1 0x20 ADD REVERT JUMPDEST DUP1 PUSH1 0x40 MLOAD PUSH3 0x461BCD PUSH1 0xE5 SHL DUP2 MSTORE PUSH1 0x4 ADD PUSH2 0x50C SWAP2 SWAP1 PUSH2 0x4849 JUMP JUMPDEST PUSH1 0x40 DUP1 MLOAD PUSH2 0x120 DUP2 ADD SWAP1 SWAP2 MSTORE DUP1 PUSH1 0x0 DUP2 MSTORE PUSH1 0x20 ADD PUSH1 0x0 DUP2 MSTORE PUSH1 0x20 ADD PUSH1 0x0 DUP2 MSTORE PUSH1 0x20 ADD PUSH1 0x0 DUP2 MSTORE PUSH1 0x20 ADD PUSH1 0x0 PUSH1 0x4 DUP2 GT ISZERO PUSH2 0x4024 JUMPI PUSH2 0x4024 PUSH2 0x425F JUMP JUMPDEST DUP2 MSTORE PUSH1 0x20 ADD PUSH1 0x60 DUP2 MSTORE PUSH1 0x20 ADD PUSH1 0x60 DUP2 MSTORE PUSH1 0x20 ADD PUSH1 0x60 DUP2 MSTORE PUSH1 0x20 ADD PUSH1 0x60 DUP2 MSTORE POP SWAP1 JUMP JUMPDEST DUP3 DUP1 SLOAD DUP3 DUP3 SSTORE SWAP1 PUSH1 0x0 MSTORE PUSH1 0x20 PUSH1 0x0 KECCAK256 SWAP1 DUP2 ADD SWAP3 DUP3 ISZERO PUSH2 0x4081 JUMPI SWAP2 PUSH1 0x20 MUL DUP3 ADD JUMPDEST DUP3 DUP2 GT ISZERO PUSH2 0x4081 JUMPI DUP3 MLOAD DUP3 SSTORE SWAP2 PUSH1 0x20 ADD SWAP2 SWAP1 PUSH1 0x1 ADD SWAP1 PUSH2 0x4066 JUMP JUMPDEST POP PUSH2 0x408D SWAP3 SWAP2 POP PUSH2 0x4172 JUMP JUMPDEST POP SWAP1 JUMP JUMPDEST PUSH1 0x40 MLOAD DUP1 PUSH2 0x1A0 ADD PUSH1 0x40 MSTORE DUP1 PUSH1 0x0 DUP1 NOT AND DUP2 MSTORE PUSH1 0x20 ADD PUSH1 0x0 DUP2 MSTORE PUSH1 0x20 ADD PUSH1 0x0 DUP2 MSTORE PUSH1 0x20 ADD PUSH1 0x0 DUP2 MSTORE PUSH1 0x20 ADD PUSH1 0x0 DUP2 MSTORE PUSH1 0x20 ADD PUSH1 0x0 DUP2 MSTORE PUSH1 0x20 ADD PUSH1 0x0 DUP2 MSTORE PUSH1 0x20 ADD PUSH1 0x0 DUP2 MSTORE PUSH1 0x20 ADD PUSH1 0x0 DUP2 MSTORE PUSH1 0x20 ADD PUSH1 0x0 DUP2 MSTORE PUSH1 0x20 ADD PUSH1 0x0 DUP2 MSTORE PUSH1 0x20 ADD PUSH1 0x0 PUSH1 0x8 DUP2 GT ISZERO PUSH2 0x4100 JUMPI PUSH2 0x4100 PUSH2 0x425F JUMP JUMPDEST DUP2 MSTORE PUSH1 0x20 ADD PUSH1 0x60 DUP2 MSTORE POP SWAP1 JUMP JUMPDEST PUSH1 0x40 MLOAD DUP1 PUSH1 0xC0 ADD PUSH1 0x40 MSTORE DUP1 PUSH1 0x0 DUP2 MSTORE PUSH1 0x20 ADD PUSH1 0x0 DUP2 MSTORE PUSH1 0x20 ADD PUSH1 0x0 PUSH1 0x1 DUP2 GT ISZERO PUSH2 0x4139 JUMPI PUSH2 0x4139 PUSH2 0x425F JUMP JUMPDEST DUP2 MSTORE PUSH1 0x60 PUSH1 0x20 DUP3 ADD DUP2 SWAP1 MSTORE PUSH1 0x40 DUP3 ADD DUP2 SWAP1 MSTORE ADD PUSH1 0x0 SWAP1 MSTORE SWAP1 JUMP JUMPDEST PUSH1 0x40 MLOAD DUP1 PUSH2 0x180 ADD PUSH1 0x40 MSTORE DUP1 PUSH1 0xC SWAP1 PUSH1 0x20 DUP3 MUL DUP1 CALLDATASIZE DUP4 CALLDATACOPY POP SWAP2 SWAP3 SWAP2 POP POP JUMP JUMPDEST JUMPDEST DUP1 DUP3 GT ISZERO PUSH2 0x408D JUMPI PUSH1 0x0 DUP2 SSTORE PUSH1 0x1 ADD PUSH2 0x4173 JUMP JUMPDEST PUSH1 0x0 PUSH1 0x20 DUP3 DUP5 SUB SLT ISZERO PUSH2 0x4199 JUMPI PUSH1 0x0 DUP1 REVERT JUMPDEST POP CALLDATALOAD SWAP2 SWAP1 POP JUMP JUMPDEST DUP1 CALLDATALOAD PUSH1 0x9 DUP2 LT PUSH2 0x41AF JUMPI PUSH1 0x0 DUP1 REVERT JUMPDEST SWAP2 SWAP1 POP JUMP JUMPDEST PUSH1 0x0 DUP1 PUSH1 0x0 PUSH1 0x60 DUP5 DUP7 SUB SLT ISZERO PUSH2 0x41C9 JUMPI PUSH1 0x0 DUP1 REVERT JUMPDEST DUP4 CALLDATALOAD SWAP3 POP PUSH2 0x41D9 PUSH1 0x20 DUP6 ADD PUSH2 0x41A0 JUMP JUMPDEST SWAP3 SWAP6 SWAP3 SWAP5 POP POP POP PUSH1 0x40 SWAP2 SWAP1 SWAP2 ADD CALLDATALOAD SWAP1 JUMP JUMPDEST PUSH1 0x1 PUSH1 0x1 PUSH1 0xA0 SHL SUB DUP2 AND DUP2 EQ PUSH2 0x5AF JUMPI PUSH1 0x0 DUP1 REVERT JUMPDEST PUSH1 0x0 DUP1 PUSH1 0x40 DUP4 DUP6 SUB SLT ISZERO PUSH2 0x4212 JUMPI PUSH1 0x0 DUP1 REVERT JUMPDEST DUP3 CALLDATALOAD PUSH2 0x421D DUP2 PUSH2 0x41EA JUMP JUMPDEST SWAP5 PUSH1 0x20 SWAP4 SWAP1 SWAP4 ADD CALLDATALOAD SWAP4 POP POP POP JUMP JUMPDEST PUSH1 0x0 DUP1 PUSH1 0x40 DUP4 DUP6 SUB SLT ISZERO PUSH2 0x423E JUMPI PUSH1 0x0 DUP1 REVERT JUMPDEST DUP3 CALLDATALOAD SWAP2 POP PUSH1 0x20 DUP4 ADD CALLDATALOAD PUSH1 0x5 DUP2 LT PUSH2 0x4254 JUMPI PUSH1 0x0 DUP1 REVERT JUMPDEST DUP1 SWAP2 POP POP SWAP3 POP SWAP3 SWAP1 POP JUMP JUMPDEST PUSH4 0x4E487B71 PUSH1 0xE0 SHL PUSH1 0x0 MSTORE PUSH1 0x21 PUSH1 0x4 MSTORE PUSH1 0x24 PUSH1 0x0 REVERT JUMPDEST PUSH1 0x2 DUP2 LT PUSH2 0x5AF JUMPI PUSH2 0x5AF PUSH2 0x425F JUMP JUMPDEST PUSH1 0x0 JUMPDEST DUP4 DUP2 LT ISZERO PUSH2 0x42A0 JUMPI DUP2 DUP2 ADD MLOAD DUP4 DUP3 ADD MSTORE PUSH1 0x20 ADD PUSH2 0x4288 JUMP JUMPDEST POP POP PUSH1 0x0 SWAP2 ADD MSTORE JUMP JUMPDEST PUSH1 0x0 DUP2 MLOAD DUP1 DUP5 MSTORE PUSH2 0x42C1 DUP2 PUSH1 0x20 DUP7 ADD PUSH1 0x20 DUP7 ADD PUSH2 0x4285 JUMP JUMPDEST PUSH1 0x1F ADD PUSH1 0x1F NOT AND SWAP3 SWAP1 SWAP3 ADD PUSH1 0x20 ADD SWAP3 SWAP2 POP POP JUMP JUMPDEST PUSH1 0x3 DUP2 LT PUSH2 0x42E5 JUMPI PUSH2 0x42E5 PUSH2 0x425F JUMP JUMPDEST SWAP1 MSTORE JUMP JUMPDEST DUP7 DUP2 MSTORE DUP6 PUSH1 0x20 DUP3 ADD MSTORE PUSH2 0x42FB DUP6 PUSH2 0x4275 JUMP JUMPDEST DUP5 PUSH1 0x40 DUP3 ADD MSTORE PUSH1 0xC0 PUSH1 0x60 DUP3 ADD MSTORE PUSH1 0x0 PUSH2 0x4317 PUSH1 0xC0 DUP4 ADD DUP7 PUSH2 0x42A9 JUMP JUMPDEST DUP3 DUP2 SUB PUSH1 0x80 DUP5 ADD MSTORE PUSH2 0x4329 DUP2 DUP7 PUSH2 0x42A9 JUMP JUMPDEST SWAP2 POP POP PUSH2 0x3F3F PUSH1 0xA0 DUP4 ADD DUP5 PUSH2 0x42D5 JUMP JUMPDEST PUSH1 0x0 DUP1 PUSH1 0x0 PUSH1 0x60 DUP5 DUP7 SUB SLT ISZERO PUSH2 0x434E JUMPI PUSH1 0x0 DUP1 REVERT JUMPDEST POP POP DUP2 CALLDATALOAD SWAP4 PUSH1 0x20 DUP4 ADD CALLDATALOAD SWAP4 POP PUSH1 0x40 SWAP1 SWAP3 ADD CALLDATALOAD SWAP2 SWAP1 POP JUMP JUMPDEST PUSH2 0x42E5 DUP2 PUSH2 0x4275 JUMP JUMPDEST PUSH1 0x5 DUP2 LT PUSH2 0x42E5 JUMPI PUSH2 0x42E5 PUSH2 0x425F JUMP JUMPDEST PUSH1 0x0 DUP2 MLOAD DUP1 DUP5 MSTORE PUSH1 0x20 DUP5 ADD SWAP4 POP PUSH1 0x20 DUP4 ADD PUSH1 0x0 JUMPDEST DUP3 DUP2 LT ISZERO PUSH2 0x43B0 JUMPI DUP2 MLOAD DUP7 MSTORE PUSH1 0x20 SWAP6 DUP7 ADD SWAP6 SWAP1 SWAP2 ADD SWAP1 PUSH1 0x1 ADD PUSH2 0x4392 JUMP JUMPDEST POP SWAP4 SWAP5 SWAP4 POP POP POP POP JUMP JUMPDEST PUSH1 0x20 DUP2 MSTORE PUSH2 0x43CC PUSH1 0x20 DUP3 ADD DUP4 MLOAD PUSH2 0x4365 JUMP JUMPDEST PUSH1 0x20 DUP3 ADD MLOAD PUSH1 0x40 DUP3 ADD MSTORE PUSH1 0x40 DUP3 ADD MLOAD PUSH1 0x60 DUP3 ADD MSTORE PUSH1 0x60 DUP3 ADD MLOAD PUSH1 0x80 DUP3 ADD MSTORE PUSH1 0x0 PUSH1 0x80 DUP4 ADD MLOAD PUSH2 0x43FE PUSH1 0xA0 DUP5 ADD DUP3 PUSH2 0x436E JUMP JUMPDEST POP PUSH1 0xA0 DUP4 ADD MLOAD PUSH2 0x120 PUSH1 0xC0 DUP5 ADD MSTORE PUSH2 0x441A PUSH2 0x140 DUP5 ADD DUP3 PUSH2 0x42A9 JUMP JUMPDEST SWAP1 POP PUSH1 0xC0 DUP5 ADD MLOAD PUSH1 0x1F NOT DUP5 DUP4 SUB ADD PUSH1 0xE0 DUP6 ADD MSTORE PUSH2 0x4437 DUP3 DUP3 PUSH2 0x437E JUMP JUMPDEST SWAP2 POP POP PUSH1 0xE0 DUP5 ADD MLOAD PUSH1 0x1F NOT DUP5 DUP4 SUB ADD PUSH2 0x100 DUP6 ADD MSTORE PUSH2 0x4456 DUP3 DUP3 PUSH2 0x437E JUMP JUMPDEST SWAP2 POP POP PUSH2 0x100 DUP5 ADD MLOAD PUSH1 0x1F NOT DUP5 DUP4 SUB ADD PUSH2 0x120 DUP6 ADD MSTORE PUSH2 0x4476 DUP3 DUP3 PUSH2 0x437E JUMP JUMPDEST SWAP6 SWAP5 POP POP POP POP POP JUMP JUMPDEST PUSH2 0x4488 DUP8 PUSH2 0x4275 JUMP JUMPDEST DUP7 DUP2 MSTORE DUP6 PUSH1 0x20 DUP3 ADD MSTORE DUP5 PUSH1 0x40 DUP3 ADD MSTORE DUP4 PUSH1 0x60 DUP3 ADD MSTORE PUSH2 0x44AA PUSH1 0x80 DUP3 ADD DUP5 PUSH2 0x436E JUMP JUMPDEST PUSH1 0xC0 PUSH1 0xA0 DUP3 ADD MSTORE PUSH1 0x0 PUSH2 0x44C0 PUSH1 0xC0 DUP4 ADD DUP5 PUSH2 0x42A9 JUMP JUMPDEST SWAP9 SWAP8 POP POP POP POP POP POP POP POP JUMP JUMPDEST PUSH8 0xFFFFFFFFFFFFFFFF DUP2 AND DUP2 EQ PUSH2 0x5AF JUMPI PUSH1 0x0 DUP1 REVERT JUMPDEST PUSH1 0x2 DUP2 LT PUSH2 0x5AF JUMPI PUSH1 0x0 DUP1 REVERT JUMPDEST PUSH4 0x4E487B71 PUSH1 0xE0 SHL PUSH1 0x0 MSTORE PUSH1 0x41 PUSH1 0x4 MSTORE PUSH1 0x24 PUSH1 0x0 REVERT JUMPDEST PUSH1 0x40 MLOAD PUSH2 0x1A0 DUP2 ADD PUSH8 0xFFFFFFFFFFFFFFFF DUP2 GT DUP3 DUP3 LT OR ISZERO PUSH2 0x4529 JUMPI PUSH2 0x4529 PUSH2 0x44EF JUMP JUMPDEST PUSH1 0x40 MSTORE SWAP1 JUMP JUMPDEST PUSH1 0x40 MLOAD PUSH1 0xA0 DUP2 ADD PUSH8 0xFFFFFFFFFFFFFFFF DUP2 GT DUP3 DUP3 LT OR ISZERO PUSH2 0x4529 JUMPI PUSH2 0x4529 PUSH2 0x44EF JUMP JUMPDEST PUSH1 0x40 MLOAD PUSH1 0x1F DUP3 ADD PUSH1 0x1F NOT AND DUP2 ADD PUSH8 0xFFFFFFFFFFFFFFFF DUP2 GT DUP3 DUP3 LT OR ISZERO PUSH2 0x457B JUMPI PUSH2 0x457B PUSH2 0x44EF JUMP JUMPDEST PUSH1 0x40 MSTORE SWAP2 SWAP1 POP JUMP JUMPDEST PUSH1 0x0 PUSH8 0xFFFFFFFFFFFFFFFF DUP3 GT ISZERO PUSH2 0x459D JUMPI PUSH2 0x459D PUSH2 0x44EF JUMP JUMPDEST POP PUSH1 0x1F ADD PUSH1 0x1F NOT AND PUSH1 0x20 ADD SWAP1 JUMP JUMPDEST PUSH1 0x0 PUSH2 0x45BE PUSH2 0x45B9 DUP5 PUSH2 0x4583 JUMP JUMPDEST PUSH2 0x4552 JUMP JUMPDEST SWAP1 POP DUP3 DUP2 MSTORE DUP4 DUP4 DUP4 ADD GT ISZERO PUSH2 0x45D2 JUMPI PUSH1 0x0 DUP1 REVERT JUMPDEST DUP3 DUP3 PUSH1 0x20 DUP4 ADD CALLDATACOPY PUSH1 0x0 PUSH1 0x20 DUP5 DUP4 ADD ADD MSTORE SWAP4 SWAP3 POP POP POP JUMP JUMPDEST PUSH1 0x0 DUP3 PUSH1 0x1F DUP4 ADD SLT PUSH2 0x45FA JUMPI PUSH1 0x0 DUP1 REVERT JUMPDEST PUSH2 0x13E4 DUP4 DUP4 CALLDATALOAD PUSH1 0x20 DUP6 ADD PUSH2 0x45AB JUMP JUMPDEST PUSH1 0x0 DUP1 PUSH1 0x0 DUP1 PUSH1 0x80 DUP6 DUP8 SUB SLT ISZERO PUSH2 0x461F JUMPI PUSH1 0x0 DUP1 REVERT JUMPDEST DUP5 CALLDATALOAD PUSH2 0x462A DUP2 PUSH2 0x44CC JUMP JUMPDEST SWAP4 POP PUSH1 0x20 DUP6 ADD CALLDATALOAD PUSH2 0x463A DUP2 PUSH2 0x44E2 JUMP JUMPDEST SWAP3 POP PUSH1 0x40 DUP6 ADD CALLDATALOAD PUSH8 0xFFFFFFFFFFFFFFFF DUP2 GT ISZERO PUSH2 0x4656 JUMPI PUSH1 0x0 DUP1 REVERT JUMPDEST PUSH2 0x4662 DUP8 DUP3 DUP9 ADD PUSH2 0x45E9 JUMP JUMPDEST SWAP3 POP POP PUSH1 0x60 DUP6 ADD CALLDATALOAD PUSH8 0xFFFFFFFFFFFFFFFF DUP2 GT ISZERO PUSH2 0x467F JUMPI PUSH1 0x0 DUP1 REVERT JUMPDEST PUSH2 0x468B DUP8 DUP3 DUP9 ADD PUSH2 0x45E9 JUMP JUMPDEST SWAP2 POP POP SWAP3 SWAP6 SWAP2 SWAP5 POP SWAP3 POP JUMP JUMPDEST PUSH1 0x0 PUSH1 0x20 DUP3 DUP5 SUB SLT ISZERO PUSH2 0x46A9 JUMPI PUSH1 0x0 DUP1 REVERT JUMPDEST DUP2 CALLDATALOAD PUSH2 0x13E4 DUP2 PUSH2 0x41EA JUMP JUMPDEST PUSH1 0x0 DUP1 PUSH1 0x40 DUP4 DUP6 SUB SLT ISZERO PUSH2 0x46C7 JUMPI PUSH1 0x0 DUP1 REVERT JUMPDEST DUP3 CALLDATALOAD SWAP2 POP PUSH1 0x20 DUP4 ADD CALLDATALOAD PUSH8 0xFFFFFFFFFFFFFFFF DUP2 GT ISZERO PUSH2 0x46E5 JUMPI PUSH1 0x0 DUP1 REVERT JUMPDEST DUP4 ADD PUSH2 0x1A0 DUP2 DUP7 SUB SLT ISZERO PUSH2 0x46F8 JUMPI PUSH1 0x0 DUP1 REVERT JUMPDEST PUSH2 0x4700 PUSH2 0x4505 JUMP JUMPDEST DUP2 CALLDATALOAD DUP2 MSTORE PUSH1 0x20 DUP1 DUP4 ADD CALLDATALOAD SWAP1 DUP3 ADD MSTORE PUSH1 0x40 DUP1 DUP4 ADD CALLDATALOAD SWAP1 DUP3 ADD MSTORE PUSH1 0x60 DUP1 DUP4 ADD CALLDATALOAD SWAP1 DUP3 ADD MSTORE PUSH1 0x80 DUP1 DUP4 ADD CALLDATALOAD SWAP1 DUP3 ADD MSTORE PUSH1 0xA0 DUP1 DUP4 ADD CALLDATALOAD SWAP1 DUP3 ADD MSTORE PUSH1 0xC0 DUP1 DUP4 ADD CALLDATALOAD SWAP1 DUP3 ADD MSTORE PUSH1 0xE0 DUP1 DUP4 ADD CALLDATALOAD SWAP1 DUP3 ADD MSTORE PUSH2 0x100 DUP1 DUP4 ADD CALLDATALOAD SWAP1 DUP3 ADD MSTORE PUSH2 0x120 DUP1 DUP4 ADD CALLDATALOAD SWAP1 DUP3 ADD MSTORE PUSH2 0x140 DUP1 DUP4 ADD CALLDATALOAD SWAP1 DUP3 ADD MSTORE PUSH2 0x4778 PUSH2 0x160 DUP4 ADD PUSH2 0x41A0 JUMP JUMPDEST PUSH2 0x160 DUP3 ADD MSTORE PUSH2 0x180 DUP3 ADD CALLDATALOAD PUSH8 0xFFFFFFFFFFFFFFFF DUP2 GT ISZERO PUSH2 0x4799 JUMPI PUSH1 0x0 DUP1 REVERT JUMPDEST PUSH2 0x47A5 DUP8 DUP3 DUP6 ADD PUSH2 0x45E9 JUMP JUMPDEST PUSH2 0x180 DUP4 ADD MSTORE POP DUP1 SWAP3 POP POP POP SWAP3 POP SWAP3 SWAP1 POP JUMP JUMPDEST PUSH1 0x0 DUP1 PUSH1 0x0 DUP4 DUP6 SUB PUSH1 0x80 DUP2 SLT ISZERO PUSH2 0x47CE JUMPI PUSH1 0x0 DUP1 REVERT JUMPDEST DUP5 CALLDATALOAD PUSH8 0xFFFFFFFFFFFFFFFF DUP2 GT ISZERO PUSH2 0x47E5 JUMPI PUSH1 0x0 DUP1 REVERT JUMPDEST DUP6 ADD PUSH1 0x1F DUP2 ADD DUP8 SGT PUSH2 0x47F6 JUMPI PUSH1 0x0 DUP1 REVERT JUMPDEST DUP1 CALLDATALOAD PUSH8 0xFFFFFFFFFFFFFFFF DUP2 GT ISZERO PUSH2 0x480D JUMPI PUSH1 0x0 DUP1 REVERT JUMPDEST DUP8 PUSH1 0x20 DUP3 DUP5 ADD ADD GT ISZERO PUSH2 0x481F JUMPI PUSH1 0x0 DUP1 REVERT JUMPDEST PUSH1 0x20 SWAP2 SWAP1 SWAP2 ADD SWAP5 POP SWAP3 POP PUSH1 0x60 PUSH1 0x1F NOT DUP3 ADD SLT ISZERO PUSH2 0x483B JUMPI PUSH1 0x0 DUP1 REVERT JUMPDEST POP PUSH1 0x20 DUP5 ADD SWAP1 POP SWAP3 POP SWAP3 POP SWAP3 JUMP JUMPDEST PUSH1 0x20 DUP2 MSTORE PUSH1 0x0 PUSH2 0x13E4 PUSH1 0x20 DUP4 ADD DUP5 PUSH2 0x42A9 JUMP JUMPDEST PUSH1 0x9 DUP2 LT PUSH2 0x42E5 JUMPI PUSH2 0x42E5 PUSH2 0x425F JUMP JUMPDEST DUP14 DUP2 MSTORE DUP13 PUSH1 0x20 DUP3 ADD MSTORE DUP12 PUSH1 0x40 DUP3 ADD MSTORE DUP11 PUSH1 0x60 DUP3 ADD MSTORE DUP10 PUSH1 0x80 DUP3 ADD MSTORE DUP9 PUSH1 0xA0 DUP3 ADD MSTORE DUP8 PUSH1 0xC0 DUP3 ADD MSTORE DUP7 PUSH1 0xE0 DUP3 ADD MSTORE DUP6 PUSH2 0x100 DUP3 ADD MSTORE DUP5 PUSH2 0x120 DUP3 ADD MSTORE DUP4 PUSH2 0x140 DUP3 ADD MSTORE PUSH2 0x48BC PUSH2 0x160 DUP3 ADD DUP5 PUSH2 0x485C JUMP JUMPDEST PUSH2 0x1A0 PUSH2 0x180 DUP3 ADD MSTORE PUSH1 0x0 PUSH2 0x48D5 PUSH2 0x1A0 DUP4 ADD DUP5 PUSH2 0x42A9 JUMP JUMPDEST SWAP16 SWAP15 POP POP POP POP POP POP POP POP POP POP POP POP POP POP POP JUMP JUMPDEST PUSH1 0x0 PUSH1 0x20 DUP3 DUP5 SUB SLT ISZERO PUSH2 0x48FA JUMPI PUSH1 0x0 DUP1 REVERT JUMPDEST DUP2 CALLDATALOAD PUSH8 0xFFFFFFFFFFFFFFFF DUP2 GT ISZERO PUSH2 0x4911 JUMPI PUSH1 0x0 DUP1 REVERT JUMPDEST DUP3 ADD PUSH1 0x1F DUP2 ADD DUP5 SGT PUSH2 0x4922 JUMPI PUSH1 0x0 DUP1 REVERT JUMPDEST PUSH2 0x2D8B DUP5 DUP3 CALLDATALOAD PUSH1 0x20 DUP5 ADD PUSH2 0x45AB JUMP JUMPDEST PUSH1 0x0 PUSH1 0x20 DUP3 DUP5 SUB SLT ISZERO PUSH2 0x4943 JUMPI PUSH1 0x0 DUP1 REVERT JUMPDEST DUP2 CALLDATALOAD PUSH11 0xFFFFFFFFFFFFFFFFFFFFFF NOT DUP2 AND DUP2 EQ PUSH2 0x13E4 JUMPI PUSH1 0x0 DUP1 REVERT JUMPDEST PUSH1 0x20 DUP1 DUP3 MSTORE DUP3 MLOAD DUP3 DUP3 ADD DUP2 SWAP1 MSTORE PUSH1 0x0 SWAP2 DUP5 ADD SWAP1 PUSH1 0x40 DUP5 ADD SWAP1 DUP4 JUMPDEST DUP2 DUP2 LT ISZERO PUSH2 0x4997 JUMPI DUP4 MLOAD DUP4 MSTORE PUSH1 0x20 SWAP4 DUP5 ADD SWAP4 SWAP1 SWAP3 ADD SWAP2 PUSH1 0x1 ADD PUSH2 0x4979 JUMP JUMPDEST POP SWAP1 SWAP6 SWAP5 POP POP POP POP POP JUMP JUMPDEST PUSH1 0x0 PUSH8 0xFFFFFFFFFFFFFFFF DUP3 GT ISZERO PUSH2 0x49BC JUMPI PUSH2 0x49BC PUSH2 0x44EF JUMP JUMPDEST POP PUSH1 0x5 SHL PUSH1 0x20 ADD SWAP1 JUMP JUMPDEST PUSH1 0x0 DUP3 PUSH1 0x1F DUP4 ADD SLT PUSH2 0x49D7 JUMPI PUSH1 0x0 DUP1 REVERT JUMPDEST DUP2 CALLDATALOAD PUSH2 0x49E5 PUSH2 0x45B9 DUP3 PUSH2 0x49A2 JUMP JUMPDEST DUP1 DUP3 DUP3 MSTORE PUSH1 0x20 DUP3 ADD SWAP2 POP PUSH1 0x20 DUP4 PUSH1 0x5 SHL DUP7 ADD ADD SWAP3 POP DUP6 DUP4 GT ISZERO PUSH2 0x4A07 JUMPI PUSH1 0x0 DUP1 REVERT JUMPDEST PUSH1 0x20 DUP6 ADD JUMPDEST DUP4 DUP2 LT ISZERO PUSH2 0x4A24 JUMPI DUP1 CALLDATALOAD DUP4 MSTORE PUSH1 0x20 SWAP3 DUP4 ADD SWAP3 ADD PUSH2 0x4A0C JUMP JUMPDEST POP SWAP6 SWAP5 POP POP POP POP POP JUMP JUMPDEST PUSH1 0x0 DUP1 PUSH1 0x0 DUP1 PUSH1 0x0 PUSH1 0xA0 DUP7 DUP9 SUB SLT ISZERO PUSH2 0x4A46 JUMPI PUSH1 0x0 DUP1 REVERT JUMPDEST DUP6 CALLDATALOAD PUSH2 0x4A51 DUP2 PUSH2 0x44E2 JUMP JUMPDEST SWAP5 POP PUSH1 0x20 DUP7 ADD CALLDATALOAD SWAP4 POP PUSH1 0x40 DUP7 ADD CALLDATALOAD SWAP3 POP PUSH1 0x60 DUP7 ADD CALLDATALOAD PUSH8 0xFFFFFFFFFFFFFFFF DUP2 GT ISZERO PUSH2 0x4A7B JUMPI PUSH1 0x0 DUP1 REVERT JUMPDEST PUSH2 0x4A87 DUP9 DUP3 DUP10 ADD PUSH2 0x49C6 JUMP JUMPDEST SWAP3 POP POP PUSH1 0x80 DUP7 ADD CALLDATALOAD PUSH8 0xFFFFFFFFFFFFFFFF DUP2 GT ISZERO PUSH2 0x4AA4 JUMPI PUSH1 0x0 DUP1 REVERT JUMPDEST PUSH2 0x4AB0 DUP9 DUP3 DUP10 ADD PUSH2 0x49C6 JUMP JUMPDEST SWAP2 POP POP SWAP3 SWAP6 POP SWAP3 SWAP6 SWAP1 SWAP4 POP JUMP JUMPDEST PUSH1 0x20 DUP2 MSTORE DUP2 MLOAD PUSH1 0x20 DUP3 ADD MSTORE PUSH1 0x20 DUP3 ADD MLOAD PUSH1 0x40 DUP3 ADD MSTORE PUSH1 0x40 DUP3 ADD MLOAD PUSH1 0x60 DUP3 ADD MSTORE PUSH1 0x60 DUP3 ADD MLOAD PUSH1 0x80 DUP3 ADD MSTORE PUSH1 0x80 DUP3 ADD MLOAD PUSH1 0xA0 DUP3 ADD MSTORE PUSH1 0xA0 DUP3 ADD MLOAD PUSH1 0xC0 DUP3 ADD MSTORE PUSH1 0xC0 DUP3 ADD MLOAD PUSH1 0xE0 DUP3 ADD MSTORE PUSH1 0xE0 DUP3 ADD MLOAD PUSH2 0x100 DUP3 ADD MSTORE PUSH2 0x100 DUP3 ADD MLOAD PUSH2 0x120 DUP3 ADD MSTORE PUSH2 0x120 DUP3 ADD MLOAD PUSH2 0x140 DUP3 ADD MSTORE PUSH2 0x140 DUP3 ADD MLOAD PUSH2 0x160 DUP3 ADD MSTORE PUSH1 0x0 PUSH2 0x160 DUP4 ADD MLOAD PUSH2 0x4B49 PUSH2 0x180 DUP5 ADD DUP3 PUSH2 0x485C JUMP JUMPDEST POP PUSH2 0x180 DUP4 ADD MLOAD PUSH2 0x1A0 DUP1 DUP5 ADD MSTORE PUSH2 0x2D8B PUSH2 0x1C0 DUP5 ADD DUP3 PUSH2 0x42A9 JUMP JUMPDEST PUSH1 0x20 DUP2 MSTORE DUP2 MLOAD PUSH1 0x20 DUP3 ADD MSTORE PUSH1 0x20 DUP3 ADD MLOAD PUSH1 0x40 DUP3 ADD MSTORE PUSH1 0x0 PUSH1 0x40 DUP4 ADD MLOAD PUSH2 0x4B8A DUP2 PUSH2 0x4275 JUMP JUMPDEST DUP1 PUSH1 0x60 DUP5 ADD MSTORE POP PUSH1 0x60 DUP4 ADD MLOAD PUSH1 0xC0 PUSH1 0x80 DUP5 ADD MSTORE PUSH2 0x4BAA PUSH1 0xE0 DUP5 ADD DUP3 PUSH2 0x42A9 JUMP JUMPDEST SWAP1 POP PUSH1 0x80 DUP5 ADD MLOAD PUSH1 0x1F NOT DUP5 DUP4 SUB ADD PUSH1 0xA0 DUP6 ADD MSTORE PUSH2 0x4BC7 DUP3 DUP3 PUSH2 0x42A9 JUMP JUMPDEST SWAP2 POP POP PUSH1 0xA0 DUP5 ADD MLOAD PUSH2 0x2639 PUSH1 0xC0 DUP6 ADD DUP3 PUSH2 0x42D5 JUMP JUMPDEST PUSH4 0x4E487B71 PUSH1 0xE0 SHL PUSH1 0x0 MSTORE PUSH1 0x11 PUSH1 0x4 MSTORE PUSH1 0x24 PUSH1 0x0 REVERT JUMPDEST DUP2 DUP2 SUB DUP2 DUP2 GT ISZERO PUSH2 0x2C2C JUMPI PUSH2 0x2C2C PUSH2 0x4BDC JUMP JUMPDEST PUSH4 0x4E487B71 PUSH1 0xE0 SHL PUSH1 0x0 MSTORE PUSH1 0x32 PUSH1 0x4 MSTORE PUSH1 0x24 PUSH1 0x0 REVERT JUMPDEST PUSH1 0x1 DUP2 DUP2 SHR SWAP1 DUP3 AND DUP1 PUSH2 0x4C2F JUMPI PUSH1 0x7F DUP3 AND SWAP2 POP JUMPDEST PUSH1 0x20 DUP3 LT DUP2 SUB PUSH2 0x2E0D JUMPI PUSH4 0x4E487B71 PUSH1 0xE0 SHL PUSH1 0x0 MSTORE PUSH1 0x22 PUSH1 0x4 MSTORE PUSH1 0x24 PUSH1 0x0 REVERT JUMPDEST DUP1 DUP3 ADD DUP1 DUP3 GT ISZERO PUSH2 0x2C2C JUMPI PUSH2 0x2C2C PUSH2 0x4BDC JUMP JUMPDEST PUSH1 0x1F DUP3 GT ISZERO PUSH2 0xA48 JUMPI DUP1 PUSH1 0x0 MSTORE PUSH1 0x20 PUSH1 0x0 KECCAK256 PUSH1 0x1F DUP5 ADD PUSH1 0x5 SHR DUP2 ADD PUSH1 0x20 DUP6 LT ISZERO PUSH2 0x4C89 JUMPI POP DUP1 JUMPDEST PUSH1 0x1F DUP5 ADD PUSH1 0x5 SHR DUP3 ADD SWAP2 POP JUMPDEST DUP2 DUP2 LT ISZERO PUSH2 0x1063 JUMPI PUSH1 0x0 DUP2 SSTORE PUSH1 0x1 ADD PUSH2 0x4C95 JUMP JUMPDEST DUP2 MLOAD PUSH8 0xFFFFFFFFFFFFFFFF DUP2 GT ISZERO PUSH2 0x4CC3 JUMPI PUSH2 0x4CC3 PUSH2 0x44EF JUMP JUMPDEST PUSH2 0x4CD7 DUP2 PUSH2 0x4CD1 DUP5 SLOAD PUSH2 0x4C1B JUMP JUMPDEST DUP5 PUSH2 0x4C62 JUMP JUMPDEST PUSH1 0x20 PUSH1 0x1F DUP3 GT PUSH1 0x1 DUP2 EQ PUSH2 0x4D0B JUMPI PUSH1 0x0 DUP4 ISZERO PUSH2 0x4CF3 JUMPI POP DUP5 DUP3 ADD MLOAD JUMPDEST PUSH1 0x0 NOT PUSH1 0x3 DUP6 SWAP1 SHL SHR NOT AND PUSH1 0x1 DUP5 SWAP1 SHL OR DUP5 SSTORE PUSH2 0x1063 JUMP JUMPDEST PUSH1 0x0 DUP5 DUP2 MSTORE PUSH1 0x20 DUP2 KECCAK256 PUSH1 0x1F NOT DUP6 AND SWAP2 JUMPDEST DUP3 DUP2 LT ISZERO PUSH2 0x4D3B JUMPI DUP8 DUP6 ADD MLOAD DUP3 SSTORE PUSH1 0x20 SWAP5 DUP6 ADD SWAP5 PUSH1 0x1 SWAP1 SWAP3 ADD SWAP2 ADD PUSH2 0x4D1B JUMP JUMPDEST POP DUP5 DUP3 LT ISZERO PUSH2 0x4D59 JUMPI DUP7 DUP5 ADD MLOAD PUSH1 0x0 NOT PUSH1 0x3 DUP8 SWAP1 SHL PUSH1 0xF8 AND SHR NOT AND DUP2 SSTORE JUMPDEST POP POP POP POP PUSH1 0x1 SWAP1 DUP2 SHL ADD SWAP1 SSTORE POP JUMP JUMPDEST PUSH32 0x19457468657265756D205369676E6564204D6573736167653A0A000000000000 DUP2 MSTORE PUSH1 0x0 DUP5 MLOAD PUSH2 0x4DA0 DUP2 PUSH1 0x1A DUP6 ADD PUSH1 0x20 DUP10 ADD PUSH2 0x4285 JUMP JUMPDEST DUP3 ADD DUP4 DUP6 PUSH1 0x1A DUP4 ADD CALLDATACOPY PUSH1 0x0 SWAP4 ADD PUSH1 0x1A ADD SWAP3 DUP4 MSTORE POP SWAP1 SWAP4 SWAP3 POP POP POP JUMP JUMPDEST PUSH1 0x0 DUP1 DUP4 SLOAD PUSH2 0x4DCA DUP2 PUSH2 0x4C1B JUMP JUMPDEST PUSH1 0x1 DUP3 AND DUP1 ISZERO PUSH2 0x4DE1 JUMPI PUSH1 0x1 DUP2 EQ PUSH2 0x4DF6 JUMPI PUSH2 0x4E26 JUMP JUMPDEST PUSH1 0xFF NOT DUP4 AND DUP7 MSTORE DUP2 ISZERO ISZERO DUP3 MUL DUP7 ADD SWAP4 POP PUSH2 0x4E26 JUMP JUMPDEST DUP7 PUSH1 0x0 MSTORE PUSH1 0x20 PUSH1 0x0 KECCAK256 PUSH1 0x0 JUMPDEST DUP4 DUP2 LT ISZERO PUSH2 0x4E1E JUMPI DUP2 SLOAD DUP9 DUP3 ADD MSTORE PUSH1 0x1 SWAP1 SWAP2 ADD SWAP1 PUSH1 0x20 ADD PUSH2 0x4E02 JUMP JUMPDEST POP POP DUP2 DUP7 ADD SWAP4 POP JUMPDEST POP SWAP2 SWAP6 SWAP5 POP POP POP POP POP JUMP JUMPDEST PUSH1 0x20 DUP2 MSTORE PUSH1 0x0 DUP3 MLOAD PUSH1 0xA0 PUSH1 0x20 DUP5 ADD MSTORE PUSH2 0x4E4D PUSH1 0xC0 DUP5 ADD DUP3 PUSH2 0x42A9 JUMP JUMPDEST SWAP1 POP PUSH1 0x1 PUSH1 0x1 PUSH1 0xA0 SHL SUB PUSH1 0x20 DUP6 ADD MLOAD AND PUSH1 0x40 DUP5 ADD MSTORE PUSH1 0x40 DUP5 ADD MLOAD PUSH1 0x60 DUP5 ADD MSTORE PUSH1 0x60 DUP5 ADD MLOAD PUSH1 0x1F NOT DUP5 DUP4 SUB ADD PUSH1 0x80 DUP6 ADD MSTORE PUSH2 0x4E87 DUP3 DUP3 PUSH2 0x42A9 JUMP JUMPDEST PUSH1 0x80 DUP7 ADD MLOAD DUP6 DUP3 SUB PUSH1 0x1F NOT ADD PUSH1 0xA0 DUP8 ADD MSTORE DUP1 MLOAD DUP1 DUP4 MSTORE SWAP2 SWAP4 POP PUSH1 0x20 SWAP1 DUP2 ADD SWAP3 POP DUP1 DUP5 ADD SWAP2 SWAP1 PUSH1 0x5 DUP3 SWAP1 SHL DUP6 ADD ADD PUSH1 0x0 JUMPDEST DUP3 DUP2 LT ISZERO PUSH2 0x4EE8 JUMPI PUSH1 0x1F NOT DUP7 DUP4 SUB ADD DUP5 MSTORE PUSH2 0x4ED3 DUP3 DUP7 MLOAD PUSH2 0x42A9 JUMP JUMPDEST PUSH1 0x20 SWAP6 DUP7 ADD SWAP6 SWAP5 SWAP1 SWAP5 ADD SWAP4 SWAP2 POP PUSH1 0x1 ADD PUSH2 0x4EB7 JUMP JUMPDEST POP SWAP8 SWAP7 POP POP POP POP POP POP POP JUMP JUMPDEST DUP5 DUP2 MSTORE DUP4 PUSH1 0x20 DUP3 ADD MSTORE PUSH1 0x80 PUSH1 0x40 DUP3 ADD MSTORE PUSH1 0x0 PUSH2 0x4F13 PUSH1 0x80 DUP4 ADD DUP6 PUSH2 0x437E JUMP JUMPDEST DUP3 DUP2 SUB PUSH1 0x60 DUP5 ADD MSTORE PUSH2 0x3F3F DUP2 DUP6 PUSH2 0x437E JUMP JUMPDEST PUSH4 0x4E487B71 PUSH1 0xE0 SHL PUSH1 0x0 MSTORE PUSH1 0x31 PUSH1 0x4 MSTORE PUSH1 0x24 PUSH1 0x0 REVERT JUMPDEST PUSH4 0x4E487B71 PUSH1 0xE0 SHL PUSH1 0x0 MSTORE PUSH1 0x12 PUSH1 0x4 MSTORE PUSH1 0x24 PUSH1 0x0 REVERT JUMPDEST PUSH1 0x0 PUSH1 0x1 DUP3 ADD PUSH2 0x4F63 JUMPI PUSH2 0x4F63 PUSH2 0x4BDC JUMP JUMPDEST POP PUSH1 0x1 ADD SWAP1 JUMP JUMPDEST DUP5 DUP2 MSTORE DUP4 PUSH1 0x20 DUP3 ADD MSTORE PUSH1 0x80 PUSH1 0x40 DUP3 ADD MSTORE PUSH1 0x0 PUSH2 0x4F89 PUSH1 0x80 DUP4 ADD DUP6 PUSH2 0x42A9 JUMP JUMPDEST DUP3 DUP2 SUB PUSH1 0x60 DUP5 ADD MSTORE PUSH2 0x3F3F DUP2 DUP6 PUSH2 0x42A9 JUMP JUMPDEST PUSH1 0x0 DUP3 MLOAD PUSH2 0x4FAD DUP2 DUP5 PUSH1 0x20 DUP8 ADD PUSH2 0x4285 JUMP JUMPDEST SWAP2 SWAP1 SWAP2 ADD SWAP3 SWAP2 POP POP JUMP JUMPDEST PUSH1 0x0 PUSH1 0x20 DUP3 DUP5 SUB SLT ISZERO PUSH2 0x4FC9 JUMPI PUSH1 0x0 DUP1 REVERT JUMPDEST DUP2 MLOAD DUP1 ISZERO ISZERO DUP2 EQ PUSH2 0x13E4 JUMPI PUSH1 0x0 DUP1 REVERT JUMPDEST PUSH1 0x40 DUP2 MSTORE PUSH1 0x0 PUSH2 0x4FEC PUSH1 0x40 DUP4 ADD DUP6 PUSH2 0x42A9 JUMP JUMPDEST DUP3 DUP2 SUB PUSH1 0x20 DUP5 ADD MSTORE PUSH2 0x4476 DUP2 DUP6 PUSH2 0x42A9 JUMP JUMPDEST PUSH1 0x0 PUSH2 0x500C PUSH2 0x45B9 DUP5 PUSH2 0x4583 JUMP JUMPDEST SWAP1 POP DUP3 DUP2 MSTORE DUP4 DUP4 DUP4 ADD GT ISZERO PUSH2 0x5020 JUMPI PUSH1 0x0 DUP1 REVERT JUMPDEST PUSH2 0x13E4 DUP4 PUSH1 0x20 DUP4 ADD DUP5 PUSH2 0x4285 JUMP JUMPDEST PUSH1 0x0 DUP1 PUSH1 0x40 DUP4 DUP6 SUB SLT ISZERO PUSH2 0x5041 JUMPI PUSH1 0x0 DUP1 REVERT JUMPDEST DUP3 MLOAD PUSH2 0x504C DUP2 PUSH2 0x44CC JUMP JUMPDEST PUSH1 0x20 DUP5 ADD MLOAD SWAP1 SWAP3 POP PUSH8 0xFFFFFFFFFFFFFFFF DUP2 GT ISZERO PUSH2 0x5069 JUMPI PUSH1 0x0 DUP1 REVERT JUMPDEST DUP4 ADD PUSH1 0x1F DUP2 ADD DUP6 SGT PUSH2 0x507A JUMPI PUSH1 0x0 DUP1 REVERT JUMPDEST PUSH2 0x5089 DUP6 DUP3 MLOAD PUSH1 0x20 DUP5 ADD PUSH2 0x4FFE JUMP JUMPDEST SWAP2 POP POP SWAP3 POP SWAP3 SWAP1 POP JUMP JUMPDEST PUSH1 0x0 DUP3 PUSH2 0x50A2 JUMPI PUSH2 0x50A2 PUSH2 0x4F3B JUMP JUMPDEST POP DIV SWAP1 JUMP JUMPDEST DUP1 DUP3 MUL DUP2 ISZERO DUP3 DUP3 DIV DUP5 EQ OR PUSH2 0x2C2C JUMPI PUSH2 0x2C2C PUSH2 0x4BDC JUMP JUMPDEST PUSH1 0xFF DUP2 DUP2 AND DUP4 DUP3 AND MUL SWAP1 DUP2 AND SWAP1 DUP2 DUP2 EQ PUSH2 0x35F0 JUMPI PUSH2 0x35F0 PUSH2 0x4BDC JUMP JUMPDEST PUSH1 0xFF DUP2 DUP2 AND DUP4 DUP3 AND ADD SWAP1 DUP2 GT ISZERO PUSH2 0x2C2C JUMPI PUSH2 0x2C2C PUSH2 0x4BDC JUMP JUMPDEST DUP1 MLOAD PUSH1 0x20 DUP3 ADD MLOAD PUSH12 0xFFFFFFFFFFFFFFFFFFFFFFFF NOT DUP2 AND SWAP2 SWAP1 PUSH1 0x14 DUP3 LT ISZERO PUSH2 0x513F JUMPI PUSH12 0xFFFFFFFFFFFFFFFFFFFFFFFF NOT PUSH12 0xFFFFFFFFFFFFFFFFFFFFFFFF NOT DUP4 PUSH1 0x14 SUB PUSH1 0x3 SHL SHL DUP3 AND AND SWAP3 POP JUMPDEST POP POP SWAP2 SWAP1 POP JUMP JUMPDEST PUSH1 0x0 DUP2 PUSH2 0x5155 JUMPI PUSH2 0x5155 PUSH2 0x4BDC JUMP JUMPDEST POP PUSH1 0x0 NOT ADD SWAP1 JUMP JUMPDEST PUSH2 0xFFFF DUP3 DUP2 AND DUP3 DUP3 AND SUB SWAP1 DUP2 GT ISZERO PUSH2 0x2C2C JUMPI PUSH2 0x2C2C PUSH2 0x4BDC JUMP JUMPDEST PUSH4 0xFFFFFFFF DUP2 DUP2 AND DUP4 DUP3 AND MUL SWAP1 DUP2 AND SWAP1 DUP2 DUP2 EQ PUSH2 0x35F0 JUMPI PUSH2 0x35F0 PUSH2 0x4BDC JUMP JUMPDEST PUSH1 0xFF DUP3 DUP2 AND DUP3 DUP3 AND SUB SWAP1 DUP2 GT ISZERO PUSH2 0x2C2C JUMPI PUSH2 0x2C2C PUSH2 0x4BDC JUMP JUMPDEST PUSH2 0xFFFF DUP2 DUP2 AND DUP4 DUP3 AND MUL SWAP1 DUP2 AND SWAP1 DUP2 DUP2 EQ PUSH2 0x35F0 JUMPI PUSH2 0x35F0 PUSH2 0x4BDC JUMP JUMPDEST PUSH1 0x0 DUP3 PUSH1 0x1F DUP4 ADD SLT PUSH2 0x51DD JUMPI PUSH1 0x0 DUP1 REVERT JUMPDEST PUSH2 0x13E4 DUP4 DUP4 MLOAD PUSH1 0x20 DUP6 ADD PUSH2 0x4FFE JUMP JUMPDEST DUP1 MLOAD PUSH2 0x41AF DUP2 PUSH2 0x41EA JUMP JUMPDEST PUSH1 0x0 DUP3 PUSH1 0x1F DUP4 ADD SLT PUSH2 0x5208 JUMPI PUSH1 0x0 DUP1 REVERT JUMPDEST DUP2 MLOAD PUSH2 0x5216 PUSH2 0x45B9 DUP3 PUSH2 0x49A2 JUMP JUMPDEST DUP1 DUP3 DUP3 MSTORE PUSH1 0x20 DUP3 ADD SWAP2 POP PUSH1 0x20 DUP4 PUSH1 0x5 SHL DUP7 ADD ADD SWAP3 POP DUP6 DUP4 GT ISZERO PUSH2 0x5238 JUMPI PUSH1 0x0 DUP1 REVERT JUMPDEST PUSH1 0x20 DUP6 ADD JUMPDEST DUP4 DUP2 LT ISZERO PUSH2 0x4A24 JUMPI DUP1 MLOAD PUSH8 0xFFFFFFFFFFFFFFFF DUP2 GT ISZERO PUSH2 0x525C JUMPI PUSH1 0x0 DUP1 REVERT JUMPDEST PUSH2 0x526B DUP9 PUSH1 0x20 DUP4 DUP11 ADD ADD PUSH2 0x51CC JUMP JUMPDEST DUP5 MSTORE POP PUSH1 0x20 SWAP3 DUP4 ADD SWAP3 ADD PUSH2 0x523D JUMP JUMPDEST PUSH1 0x0 PUSH1 0x20 DUP3 DUP5 SUB SLT ISZERO PUSH2 0x528C JUMPI PUSH1 0x0 DUP1 REVERT JUMPDEST DUP2 MLOAD PUSH8 0xFFFFFFFFFFFFFFFF DUP2 GT ISZERO PUSH2 0x52A3 JUMPI PUSH1 0x0 DUP1 REVERT JUMPDEST DUP3 ADD PUSH1 0xA0 DUP2 DUP6 SUB SLT ISZERO PUSH2 0x52B5 JUMPI PUSH1 0x0 DUP1 REVERT JUMPDEST PUSH2 0x52BD PUSH2 0x452F JUMP JUMPDEST DUP2 MLOAD PUSH8 0xFFFFFFFFFFFFFFFF DUP2 GT ISZERO PUSH2 0x52D4 JUMPI PUSH1 0x0 DUP1 REVERT JUMPDEST PUSH2 0x52E0 DUP7 DUP3 DUP6 ADD PUSH2 0x51CC JUMP JUMPDEST DUP3 MSTORE POP PUSH2 0x52EF PUSH1 0x20 DUP4 ADD PUSH2 0x51EC JUMP JUMPDEST PUSH1 0x20 DUP3 ADD MSTORE PUSH1 0x40 DUP3 DUP2 ADD MLOAD SWAP1 DUP3 ADD MSTORE PUSH1 0x60 DUP3 ADD MLOAD PUSH8 0xFFFFFFFFFFFFFFFF DUP2 GT ISZERO PUSH2 0x5318 JUMPI PUSH1 0x0 DUP1 REVERT JUMPDEST PUSH2 0x5324 DUP7 DUP3 DUP6 ADD PUSH2 0x51CC JUMP JUMPDEST PUSH1 0x60 DUP4 ADD MSTORE POP PUSH1 0x80 DUP3 ADD MLOAD PUSH8 0xFFFFFFFFFFFFFFFF DUP2 GT ISZERO PUSH2 0x5344 JUMPI PUSH1 0x0 DUP1 REVERT JUMPDEST PUSH2 0x5350 DUP7 DUP3 DUP6 ADD PUSH2 0x51F7 JUMP JUMPDEST PUSH1 0x80 DUP4 ADD MSTORE POP SWAP5 SWAP4 POP POP POP POP JUMP JUMPDEST PUSH1 0x0 PUSH2 0xFFFF DUP4 AND DUP1 PUSH2 0x5372 JUMPI PUSH2 0x5372 PUSH2 0x4F3B JUMP JUMPDEST DUP1 PUSH2 0xFFFF DUP5 AND MOD SWAP2 POP POP SWAP3 SWAP2 POP POP JUMP INVALID LOG2 PUSH5 0x6970667358 0x22 SLT KECCAK256 0xCE LOG1 PUSH6 0x68471EF63384 SWAP4 PUSH25 0xFFDC34F770C9DD27CEDF1366A0218C275D0A864A9564736F6C PUSH4 0x4300081C STOP CALLER "},"methodIdentifiers":{"addMarketplace(uint64,uint8,string,string)":"58dee054","betSlips(uint256)":"5023a0c9","domain()":"c2fb26a6","getBetSlip(uint256)":"32d268a5","getMarketplace(uint256)":"f53aac2a","getProxiedBet(bytes32)":"f1b9ea17","getUserActiveBetslips()":"b76ebb56","getUserActiveBetslips(bytes)":"daee6fbc","getUserBalance()":"b7013dc1","getUserBalance(bytes)":"9f88151e","getUserClosedBets()":"d69418f3","getUserClosedBets(bytes)":"d1d758cb","initiateSellProxiedBets(bytes32)":"8e032241","login(string,(bytes32,bytes32,uint256))":"7f476b6f","marketplaces(uint256)":"2b64deec","musdcToken()":"15534b70","owner()":"8da5cb5b","placeBet(uint8,uint256,uint256,bytes32[],bytes32[])":"e75a88a0","proxiedBets(bytes32)":"974d4ed8","recordProxiedBetClosed(bytes32,uint8,uint256)":"212e94c9","recordProxiedBetPlaced(uint256,(bytes32,uint256,uint256,uint256,uint256,uint256,uint256,uint256,uint256,uint256,uint256,uint8,string))":"7d5559d9","recordProxiedBetSold(bytes32,uint256,uint256)":"2e5abd7b","renounceOwnership()":"715018a6","roflAppId()":"181031b1","setCollateralToken(address)":"666181a9","setRoflAppId(bytes21)":"a935ee0e","transferOwnership(address)":"f2fde38b","updateBetSlipStatus(uint256,uint8)":"2a6d3e9b","userActiveBetSlips(address,uint256)":"3074eebc","userClosedBetSlips(address,uint256)":"29ec9442","withdrawWinnings(uint256)":"14794702"}}}}}