{"contracts/polybet.sol":{"PolyBet":{"abi":[{"inputs":[],"stateMutability":"nonpayable","type":"constructor"},{"inputs":[],"name":"A13e_RevokedAuthToken","type":"error"},{"inputs":[],"name":"RoflOriginNotAuthorizedForApp","type":"error"},{"inputs":[],"name":"SiweAuth_AddressMismatch","type":"error"},{"inputs":[],"name":"SiweAuth_ChainIdMismatch","type":"error"},{"inputs":[],"name":"SiweAuth_DomainMismatch","type":"error"},{"inputs":[],"name":"SiweAuth_Expired","type":"error"},{"inputs":[],"name":"SiweAuth_NotBeforeInFuture","type":"error"},{"inputs":[],"name":"SiweParser_InvalidAddressLength","type":"error"},{"inputs":[],"name":"SiweParser_InvalidNonce","type":"error"},{"inputs":[],"name":"SubcallError","type":"error"},{"anonymous":false,"inputs":[{"indexed":true,"internalType":"uint256","name":"betId","type":"uint256"},{"indexed":false,"internalType":"uint256","name":"totalCollateralAmount","type":"uint256"},{"indexed":false,"internalType":"uint256","name":"outcomeIndex","type":"uint256"},{"indexed":false,"internalType":"bytes32[]","name":"marketplaceIds","type":"bytes32[]"},{"indexed":false,"internalType":"bytes32[]","name":"marketIds","type":"bytes32[]"}],"name":"BetSlipCreated","type":"event"},{"anonymous":false,"inputs":[{"indexed":true,"internalType":"uint256","name":"betId","type":"uint256"}],"name":"BetSlipSellingStateUpdate","type":"event"},{"anonymous":false,"inputs":[{"indexed":true,"internalType":"address","name":"previousOwner","type":"address"},{"indexed":true,"internalType":"address","name":"newOwner","type":"address"}],"name":"OwnershipTransferred","type":"event"},{"inputs":[{"internalType":"uint64","name":"chainId","type":"uint64"},{"internalType":"enum PolyBet.ChainFamily","name":"family","type":"uint8"},{"internalType":"string","name":"name","type":"string"},{"internalType":"string","name":"marketplaceProxy","type":"string"}],"name":"addMarketplace","outputs":[],"stateMutability":"nonpayable","type":"function"},{"inputs":[{"internalType":"uint256","name":"","type":"uint256"}],"name":"betSlips","outputs":[{"internalType":"enum PolyBet.BetSlipStrategy","name":"strategy","type":"uint8"},{"internalType":"uint256","name":"initialCollateral","type":"uint256"},{"internalType":"uint256","name":"finalCollateral","type":"uint256"},{"internalType":"uint256","name":"outcomeIndex","type":"uint256"},{"internalType":"enum PolyBet.BetSlipStatus","name":"status","type":"uint8"},{"internalType":"string","name":"failureReason","type":"string"}],"stateMutability":"view","type":"function"},{"inputs":[],"name":"domain","outputs":[{"internalType":"string","name":"","type":"string"}],"stateMutability":"view","type":"function"},{"inputs":[{"internalType":"uint256","name":"betSlipId","type":"uint256"}],"name":"getBetSlip","outputs":[{"components":[{"internalType":"enum PolyBet.BetSlipStrategy","name":"strategy","type":"uint8"},{"internalType":"uint256","name":"initialCollateral","type":"uint256"},{"internalType":"uint256","name":"finalCollateral","type":"uint256"},{"internalType":"uint256","name":"outcomeIndex","type":"uint256"},{"internalType":"enum PolyBet.BetSlipStatus","name":"status","type":"uint8"},{"internalType":"string","name":"failureReason","type":"string"},{"internalType":"bytes32[]","name":"marketplaceIds","type":"bytes32[]"},{"internalType":"bytes32[]","name":"marketIds","type":"bytes32[]"},{"internalType":"bytes32[]","name":"proxiedBets","type":"bytes32[]"}],"internalType":"struct PolyBet.BetSlip","name":"","type":"tuple"}],"stateMutability":"view","type":"function"},{"inputs":[{"internalType":"uint256","name":"marketplaceId","type":"uint256"}],"name":"getMarketplace","outputs":[{"components":[{"internalType":"uint256","name":"warpRouterId","type":"uint256"},{"internalType":"uint256","name":"chainId","type":"uint256"},{"internalType":"enum PolyBet.ChainFamily","name":"chainFamily","type":"uint8"},{"internalType":"string","name":"name","type":"string"},{"internalType":"string","name":"marketplaceProxy","type":"string"},{"internalType":"enum PolyBet.PricingStrategy","name":"pricingStrategy","type":"uint8"}],"internalType":"struct PolyBet.Marketplace","name":"","type":"tuple"}],"stateMutability":"view","type":"function"},{"inputs":[{"internalType":"bytes32","name":"betId","type":"bytes32"}],"name":"getProxiedBet","outputs":[{"components":[{"internalType":"bytes32","name":"id","type":"bytes32"},{"internalType":"uint256","name":"betSlipId","type":"uint256"},{"internalType":"uint256","name":"marketplaceId","type":"uint256"},{"internalType":"uint256","name":"marketId","type":"uint256"},{"internalType":"uint256","name":"optionIndex","type":"uint256"},{"internalType":"uint256","name":"minimumShares","type":"uint256"},{"internalType":"uint256","name":"blockTimestamp","type":"uint256"},{"internalType":"uint256","name":"originalCollateralAmount","type":"uint256"},{"internalType":"uint256","name":"finalCollateralAmount","type":"uint256"},{"internalType":"uint256","name":"sharesBought","type":"uint256"},{"internalType":"uint256","name":"sharesSold","type":"uint256"},{"internalType":"enum PolyBet.BetOutcome","name":"outcome","type":"uint8"},{"internalType":"string","name":"failureReason","type":"string"}],"internalType":"struct PolyBet.ProxiedBet","name":"","type":"tuple"}],"stateMutability":"view","type":"function"},{"inputs":[],"name":"getUserActiveBetslips","outputs":[{"internalType":"uint256[]","name":"","type":"uint256[]"}],"stateMutability":"view","type":"function"},{"inputs":[{"internalType":"bytes","name":"authToken","type":"bytes"}],"name":"getUserActiveBetslips","outputs":[{"internalType":"uint256[]","name":"","type":"uint256[]"}],"stateMutability":"view","type":"function"},{"inputs":[{"internalType":"bytes","name":"authToken","type":"bytes"}],"name":"getUserBalance","outputs":[{"internalType":"uint256","name":"","type":"uint256"}],"stateMutability":"view","type":"function"},{"inputs":[],"name":"getUserBalance","outputs":[{"internalType":"uint256","name":"","type":"uint256"}],"stateMutability":"view","type":"function"},{"inputs":[{"internalType":"bytes","name":"authToken","type":"bytes"}],"name":"getUserClosedBets","outputs":[{"internalType":"uint256[]","name":"","type":"uint256[]"}],"stateMutability":"view","type":"function"},{"inputs":[],"name":"getUserClosedBets","outputs":[{"internalType":"uint256[]","name":"","type":"uint256[]"}],"stateMutability":"view","type":"function"},{"inputs":[{"internalType":"uint256","name":"betSlipId","type":"uint256"}],"name":"initiateSellProxiedBets","outputs":[],"stateMutability":"nonpayable","type":"function"},{"inputs":[{"internalType":"string","name":"siweMsg","type":"string"},{"components":[{"internalType":"bytes32","name":"r","type":"bytes32"},{"internalType":"bytes32","name":"s","type":"bytes32"},{"internalType":"uint256","name":"v","type":"uint256"}],"internalType":"struct SignatureRSV","name":"sig","type":"tuple"}],"name":"login","outputs":[{"internalType":"bytes","name":"","type":"bytes"}],"stateMutability":"view","type":"function"},{"inputs":[{"internalType":"uint256","name":"","type":"uint256"}],"name":"marketplaces","outputs":[{"internalType":"uint256","name":"warpRouterId","type":"uint256"},{"internalType":"uint256","name":"chainId","type":"uint256"},{"internalType":"enum PolyBet.ChainFamily","name":"chainFamily","type":"uint8"},{"internalType":"string","name":"name","type":"string"},{"internalType":"string","name":"marketplaceProxy","type":"string"},{"internalType":"enum PolyBet.PricingStrategy","name":"pricingStrategy","type":"uint8"}],"stateMutability":"view","type":"function"},{"inputs":[],"name":"musdcToken","outputs":[{"internalType":"contract IERC20","name":"","type":"address"}],"stateMutability":"view","type":"function"},{"inputs":[],"name":"owner","outputs":[{"internalType":"address","name":"","type":"address"}],"stateMutability":"view","type":"function"},{"inputs":[{"internalType":"enum PolyBet.BetSlipStrategy","name":"strategy","type":"uint8"},{"internalType":"uint256","name":"totalCollateralAmount","type":"uint256"},{"internalType":"uint256","name":"outcomeIndex","type":"uint256"},{"internalType":"bytes32[]","name":"marketplaceIds","type":"bytes32[]"},{"internalType":"bytes32[]","name":"marketIds","type":"bytes32[]"}],"name":"placeBet","outputs":[],"stateMutability":"nonpayable","type":"function"},{"inputs":[{"internalType":"bytes32","name":"","type":"bytes32"}],"name":"proxiedBets","outputs":[{"internalType":"bytes32","name":"id","type":"bytes32"},{"internalType":"uint256","name":"betSlipId","type":"uint256"},{"internalType":"uint256","name":"marketplaceId","type":"uint256"},{"internalType":"uint256","name":"marketId","type":"uint256"},{"internalType":"uint256","name":"optionIndex","type":"uint256"},{"internalType":"uint256","name":"minimumShares","type":"uint256"},{"internalType":"uint256","name":"blockTimestamp","type":"uint256"},{"internalType":"uint256","name":"originalCollateralAmount","type":"uint256"},{"internalType":"uint256","name":"finalCollateralAmount","type":"uint256"},{"internalType":"uint256","name":"sharesBought","type":"uint256"},{"internalType":"uint256","name":"sharesSold","type":"uint256"},{"internalType":"enum PolyBet.BetOutcome","name":"outcome","type":"uint8"},{"internalType":"string","name":"failureReason","type":"string"}],"stateMutability":"view","type":"function"},{"inputs":[{"internalType":"bytes32","name":"proxiedBetId","type":"bytes32"},{"internalType":"enum PolyBet.BetOutcome","name":"outcome","type":"uint8"},{"internalType":"uint256","name":"winningsCollateralValue","type":"uint256"}],"name":"recordProxiedBetClosed","outputs":[],"stateMutability":"nonpayable","type":"function"},{"inputs":[{"internalType":"uint256","name":"betSlipId","type":"uint256"},{"components":[{"internalType":"bytes32","name":"id","type":"bytes32"},{"internalType":"uint256","name":"betSlipId","type":"uint256"},{"internalType":"uint256","name":"marketplaceId","type":"uint256"},{"internalType":"uint256","name":"marketId","type":"uint256"},{"internalType":"uint256","name":"optionIndex","type":"uint256"},{"internalType":"uint256","name":"minimumShares","type":"uint256"},{"internalType":"uint256","name":"blockTimestamp","type":"uint256"},{"internalType":"uint256","name":"originalCollateralAmount","type":"uint256"},{"internalType":"uint256","name":"finalCollateralAmount","type":"uint256"},{"internalType":"uint256","name":"sharesBought","type":"uint256"},{"internalType":"uint256","name":"sharesSold","type":"uint256"},{"internalType":"enum PolyBet.BetOutcome","name":"outcome","type":"uint8"},{"internalType":"string","name":"failureReason","type":"string"}],"internalType":"struct PolyBet.ProxiedBet","name":"proxiedBet","type":"tuple"}],"name":"recordProxiedBetPlaced","outputs":[],"stateMutability":"nonpayable","type":"function"},{"inputs":[{"internalType":"bytes32","name":"proxiedBetId","type":"bytes32"},{"internalType":"uint256","name":"sharesSold","type":"uint256"},{"internalType":"uint256","name":"sharesSoldCollateralValue","type":"uint256"}],"name":"recordProxiedBetSold","outputs":[],"stateMutability":"nonpayable","type":"function"},{"inputs":[],"name":"renounceOwnership","outputs":[],"stateMutability":"nonpayable","type":"function"},{"inputs":[],"name":"roflAppId","outputs":[{"internalType":"bytes21","name":"","type":"bytes21"}],"stateMutability":"view","type":"function"},{"inputs":[{"internalType":"address","name":"_musdcToken","type":"address"}],"name":"setCollateralToken","outputs":[],"stateMutability":"nonpayable","type":"function"},{"inputs":[{"internalType":"bytes21","name":"appId","type":"bytes21"}],"name":"setRoflAppId","outputs":[],"stateMutability":"nonpayable","type":"function"},{"inputs":[{"internalType":"address","name":"newOwner","type":"address"}],"name":"transferOwnership","outputs":[],"stateMutability":"nonpayable","type":"function"},{"inputs":[{"internalType":"uint256","name":"betSlipId","type":"uint256"},{"internalType":"enum PolyBet.BetSlipStatus","name":"status","type":"uint8"}],"name":"updateBetSlipStatus","outputs":[],"stateMutability":"nonpayable","type":"function"},{"inputs":[{"internalType":"address","name":"","type":"address"},{"internalType":"uint256","name":"","type":"uint256"}],"name":"userActiveBetSlips","outputs":[{"internalType":"uint256","name":"","type":"uint256"}],"stateMutability":"view","type":"function"},{"inputs":[{"internalType":"address","name":"","type":"address"},{"internalType":"uint256","name":"","type":"uint256"}],"name":"userClosedBetSlips","outputs":[{"internalType":"uint256","name":"","type":"uint256"}],"stateMutability":"view","type":"function"},{"inputs":[{"internalType":"uint256","name":"amount","type":"uint256"}],"name":"withdrawWinnings","outputs":[],"stateMutability":"nonpayable","type":"function"}],"evm":{"bytecode":{"linkReferences":{},"object":"608060405234801561001057600080fd5b5060405180604001604052806007815260200166141bdb1e50995d60ca1b81525061005160206040518060200160405280600081525061007a60201b60201c565b61005a906101ba565b6002556001610069828261027a565b50610075905033610168565b6103b2565b60606000807301000000000000000000000000000000000000016001600160a01b031685856040516020016100b092919061035c565b60408051601f19818403018152908290526100ca91610396565b600060405180830381855afa9150503d8060008114610105576040519150601f19603f3d011682016040523d82523d6000602084013e61010a565b606091505b5091509150816101605760405162461bcd60e51b815260206004820152601360248201527f72616e646f6d42797465733a206661696c656400000000000000000000000000604482015260640160405180910390fd5b949350505050565b600380546001600160a01b038381166001600160a01b0319831681179093556040519116919082907f8be0079c531659141344cd1fd0a4f28419497f9722a3daafe3b4186f6b6457e090600090a35050565b805160208083015191908110156101db576000198160200360031b1b821691505b50919050565b634e487b7160e01b600052604160045260246000fd5b600181811c9082168061020b57607f821691505b6020821081036101db57634e487b7160e01b600052602260045260246000fd5b601f82111561027557806000526020600020601f840160051c810160208510156102525750805b601f840160051c820191505b81811015610272576000815560010161025e565b50505b505050565b81516001600160401b03811115610293576102936101e1565b6102a7816102a184546101f7565b8461022b565b6020601f8211600181146102db57600083156102c35750848201515b600019600385901b1c1916600184901b178455610272565b600084815260208120601f198516915b8281101561030b57878501518255602094850194600190920191016102eb565b50848210156103295786840151600019600387901b60f8161c191681555b50505050600190811b01905550565b60005b8381101561035357818101518382015260200161033b565b50506000910152565b8281526040602082015260008251806040840152610381816060850160208701610338565b601f01601f1916919091016060019392505050565b600082516103a8818460208701610338565b9190910192915050565b615474806103c16000396000f3fe608060405234801561001057600080fd5b50600436106101e55760003560e01c80637d5559d91161010f578063c2fb26a6116100a2578063e75a88a011610071578063e75a88a01461045a578063f1b9ea171461046d578063f2fde38b1461048d578063f53aac2a146104a057600080fd5b8063c2fb26a614610424578063d1d758cb1461042c578063d69418f31461043f578063daee6fbc1461044757600080fd5b80639f88151e116100de5780639f88151e146103e1578063a935ee0e146103f4578063b7013dc114610407578063b76ebb561461040f57600080fd5b80637d5559d9146103715780637f476b6f146103845780638da5cb5b146103a4578063974d4ed8146103b557600080fd5b80632b64deec116101875780635023a0c9116101565780635023a0c91461031e57806358dee05414610343578063666181a914610356578063715018a61461036957600080fd5b80632b64deec146102b35780632e5abd7b146102d85780633074eebc146102eb57806332d268a5146102fe57600080fd5b80631972033f116101c35780631972033f14610259578063212e94c91461026c57806329ec94421461027f5780632a6d3e9b146102a057600080fd5b806314794702146101ea57806315534b70146101ff578063181031b11461022f575b600080fd5b6101fd6101f8366004614243565b6104c0565b005b600454610212906001600160a01b031681565b6040516001600160a01b0390911681526020015b60405180910390f35b60055461023c9060581b81565b6040516affffffffffffffffffffff199091168152602001610226565b6101fd610267366004614243565b6105b2565b6101fd61027a366004614270565b61072f565b61029261028d3660046142bb565b6108af565b604051908152602001610226565b6101fd6102ae3660046142e7565b6108e0565b6102c66102c1366004614243565b61092a565b604051610226969594939291906143a5565b6101fd6102e63660046143f5565b610a8d565b6102926102f93660046142bb565b610bc5565b61031161030c366004614243565b610be1565b6040516102269190614476565b61033161032c366004614243565b610e36565b6040516102269695949392919061453b565b6101fd6103513660046146c5565b610f11565b6101fd610364366004614753565b61100d565b6101fd61109a565b6101fd61037f366004614770565b6110ae565b610397610392366004614874565b6111e9565b6040516102269190614905565b6003546001600160a01b0316610212565b6103c86103c3366004614243565b61156a565b6040516102269d9c9b9a99989796959493929190614928565b6102926103ef3660046149a4565b611665565b6101fd6104023660046149ed565b611690565b6102926116cc565b61041761172f565b6040516102269190614a1b565b6103976117dd565b61041761043a3660046149a4565b611866565b6104176118e2565b6104176104553660046149a4565b61198e565b6101fd610468366004614aea565b611a08565b61048061047b366004614243565b611dd2565b6040516102269190614b79565b6101fd61049b366004614753565b611f30565b6104b36104ae366004614243565b611fbd565b6040516102269190614c21565b600081116105155760405162461bcd60e51b815260206004820152601d60248201527f616d6f756e74206d7573742062652067726561746572207468616e203000000060448201526064015b60405180910390fd5b336000908152600c60205260409020548111156105745760405162461bcd60e51b815260206004820152601460248201527f696e73756666696369656e742062616c616e6365000000000000000000000000604482015260640161050c565b336000908152600c602052604081208054839290610593908490614cae565b90915550506004546105af906001600160a01b0316338361219a565b50565b6105ba612243565b600854811061060b5760405162461bcd60e51b815260206004820152601360248201527f696e76616c69642062657420736c697020696400000000000000000000000000604482015260640161050c565b60026008828154811061062057610620614cc1565b600091825260209091206004600990920201015460ff1660058111156106485761064861431b565b146106ba5760405162461bcd60e51b8152602060048201526024808201527f63616e6e6f742063616e63656c206120626574207468617473206e6f7420706c60448201527f6163656400000000000000000000000000000000000000000000000000000000606482015260840161050c565b6003600882815481106106cf576106cf614cc1565b60009182526020909120600460099092020101805460ff191660018360058111156106fc576106fc61431b565b021790555060405181907f81eb4691b662c46a6dec13291164c2bec8b699c7596e4ab3d8f23ce01943647090600090a250565b610737612243565b600082600781111561074b5761074b61431b565b1415801561076b575060038260078111156107685761076861431b565b14155b6107b75760405162461bcd60e51b815260206004820152601e60248201527f6f7574636f6d652063616e6e6f74206265206e6f6e65206f7220736f6c640000604482015260640161050c565b60016000848152600d60205260409020600b015460ff1660078111156107df576107df61431b565b1461082c5760405162461bcd60e51b815260206004820152601a60248201527f696e76616c6964206f7574636f6d65207472616e736974696f6e000000000000604482015260640161050c565b60055460581b6affffffffffffffffffffff191615610854576005546108549060581b61229d565b6000838152600d60205260409020600b01805483919060ff191660018360078111156108825761088261431b565b0217905550600080600061089686856123dc565b9250925092506108a78383836124a4565b505050505050565b600b60205281600052604060002081815481106108cb57600080fd5b90600052602060002001600091509150505481565b80600883815481106108f4576108f4614cc1565b60009182526020909120600460099092020101805460ff191660018360058111156109215761092161431b565b02179055505050565b6007818154811061093a57600080fd5b60009182526020909120600690910201805460018201546002830154600384018054939550919360ff9091169290919061097390614cd7565b80601f016020809104026020016040519081016040528092919081815260200182805461099f90614cd7565b80156109ec5780601f106109c1576101008083540402835291602001916109ec565b820191906000526020600020905b8154815290600101906020018083116109cf57829003601f168201915b505050505090806004018054610a0190614cd7565b80601f0160208091040260200160405190810160405280929190818152602001828054610a2d90614cd7565b8015610a7a5780601f10610a4f57610100808354040283529160200191610a7a565b820191906000526020600020905b815481529060010190602001808311610a5d57829003601f168201915b5050506005909301549192505060ff1686565b610a95612243565b60055460581b6affffffffffffffffffffff191615610abd57600554610abd9060581b61229d565b6000838152600d60205260408120600a018054849290610ade908490614d0b565b90915550506000838152600d60205260409020600a8101546009909101541015610b705760405162461bcd60e51b815260206004820152602360248201527f63616e6e6f742073656c6c206d6f726520736861726573207468616e20626f7560448201527f6768740000000000000000000000000000000000000000000000000000000000606482015260840161050c565b6000838152600d60205260409020600a81015460099091015403610bb6576000838152600d60205260408120600b01805460ff19166003179055808061089686856123dc565b6108a783826123dc565b505050565b600a60205281600052604060002081815481106108cb57600080fd5b610be96140a4565b60088281548110610bfc57610bfc614cc1565b600091825260209091206040805161012081019091526009909202018054829060ff166001811115610c3057610c3061431b565b6001811115610c4157610c4161431b565b8152600182015460208201526002820154604082015260038201546060820152600482015460809091019060ff166005811115610c8057610c8061431b565b6005811115610c9157610c9161431b565b8152602001600582018054610ca590614cd7565b80601f0160208091040260200160405190810160405280929190818152602001828054610cd190614cd7565b8015610d1e5780601f10610cf357610100808354040283529160200191610d1e565b820191906000526020600020905b815481529060010190602001808311610d0157829003601f168201915b5050505050815260200160068201805480602002602001604051908101604052809291908181526020018280548015610d7657602002820191906000526020600020905b815481526020019060010190808311610d62575b5050505050815260200160078201805480602002602001604051908101604052809291908181526020018280548015610dce57602002820191906000526020600020905b815481526020019060010190808311610dba575b5050505050815260200160088201805480602002602001604051908101604052809291908181526020018280548015610e2657602002820191906000526020600020905b815481526020019060010190808311610e12575b5050505050815250509050919050565b60088181548110610e4657600080fd5b600091825260209091206009909102018054600182015460028301546003840154600485015460058601805460ff9687169850949693959294929091169291610e8e90614cd7565b80601f0160208091040260200160405190810160405280929190818152602001828054610eba90614cd7565b8015610f075780601f10610edc57610100808354040283529160200191610f07565b820191906000526020600020905b815481529060010190602001808311610eea57829003601f168201915b5050505050905086565b60076040518060c00160405280600081526020018667ffffffffffffffff168152602001856001811115610f4757610f4761431b565b81526020810185905260408101849052606001600290528154600181810184556000938452602093849020835160069093020191825592820151818401556040820151600282018054939492939192909160ff1916908381811115610fae57610fae61431b565b021790555060608201516003820190610fc79082614d65565b5060808201516004820190610fdc9082614d65565b5060a082015160058201805460ff191660018360028111156110005761100061431b565b0217905550505050505050565b611015612243565b6001600160a01b03811661106b5760405162461bcd60e51b815260206004820152601b60248201527f696e76616c6964204d5553444320746f6b656e20616464726573730000000000604482015260640161050c565b6004805473ffffffffffffffffffffffffffffffffffffffff19166001600160a01b0392909216919091179055565b6110a2612243565b6110ac60006125fd565b565b6110b6612243565b60055460581b6affffffffffffffffffffff1916156110de576005546110de9060581b61229d565b600882815481106110f1576110f1614cc1565b600091825260208083208451600860099485029092018201805460018181018355918752848720019190915585518552600d8352604094859020865181559286015183820155938501516002830155606085015160038301556080850151600483015560a0850151600583015560c0850151600683015560e08501516007808401919091556101008601519183019190915561012085015192820192909255610140840151600a820155610160840151600b82018054869593949293919260ff19909116919084908111156111c8576111c861431b565b0217905550610180820151600c8201906111e29082614d65565b5050505050565b60606112266040518060a001604052806060815260200160006001600160a01b031681526020016000815260200160608152602001606081525090565b60006112318561265c565b868660405160200161124593929190614e24565b60408051601f19818403018152828252805160208083019190912060008086528583018086529190915260ff89850135169385019390935287356060850152870135608084015292509060019060a0016020604051602081039080840390855afa1580156112b7573d6000803e3d6000fd5b5050604051601f1901516001600160a01b03811660208601529150600090506112e088886126fd565b9050468160a001511461131f576040517f362c833700000000000000000000000000000000000000000000000000000000815260040160405180910390fd5b600160405161132e9190614e78565b6040518091039020816000015180519060200120146113605760405163283d62bd60e01b815260040160405180910390fd5b8051845260208101516001600160a01b038381169116146113ad576040517f05cc02e100000000000000000000000000000000000000000000000000000000815260040160405180910390fd5b61012081015151158015906113cf57506113cb816101200151612cee565b4211155b15611406576040517f299d02f100000000000000000000000000000000000000000000000000000000815260040160405180910390fd5b610100810151511561142d576000611422826101000151612cee565b604086015250611440565b61143a6201518042614d0b565b60408501525b8360400151421061146457604051630b17115560e41b815260040160405180910390fd5b604081015160608501526101608101515167ffffffffffffffff81111561148d5761148d6145ab565b6040519080825280602002602001820160405280156114c057816020015b60608152602001906001900390816114ab5790505b50608085015260005b8161016001515181101561151f5781610160015181815181106114ee576114ee614cc1565b60200260200101518560800151828151811061150c5761150c614cc1565b60209081029190910101526001016114c9565b50600061155b6002546000801b8760405160200161153d9190614eed565b60408051601f19818403018152602083019091526000825290612d5d565b955050505050505b9392505050565b600d60205280600052604060002060009150905080600001549080600101549080600201549080600301549080600401549080600501549080600601549080600701549080600801549080600901549080600a01549080600b0160009054906101000a900460ff169080600c0180546115e290614cd7565b80601f016020809104026020016040519081016040528092919081815260200182805461160e90614cd7565b801561165b5780601f106116305761010080835404028352916020019161165b565b820191906000526020600020905b81548152906001019060200180831161163e57829003601f168201915b505050505090508d565b60008061167183612e4f565b6001600160a01b03166000908152600c60205260409020549392505050565b611698612243565b600580547fffffffffffffffffffffff0000000000000000000000000000000000000000001660589290921c919091179055565b60003361171b5760405162461bcd60e51b815260206004820152601760248201527f61757468656e7469636174696f6e207265717569726564000000000000000000604482015260640161050c565b50336000908152600c602052604090205490565b60603361177e5760405162461bcd60e51b815260206004820152601760248201527f61757468656e7469636174696f6e207265717569726564000000000000000000604482015260640161050c565b336000908152600a6020908152604091829020805483518184028101840190945280845290918301828280156117d357602002820191906000526020600020905b8154815260200190600101908083116117bf575b5050505050905090565b6060600180546117ec90614cd7565b80601f016020809104026020016040519081016040528092919081815260200182805461181890614cd7565b80156117d35780601f1061183a576101008083540402835291602001916117d3565b820191906000526020600020905b81548152906001019060200180831161184857509395945050505050565b6060600061187383612e4f565b6001600160a01b0381166000908152600b602090815260409182902080548351818402810184019094528084529394509192908301828280156118d557602002820191906000526020600020905b8154815260200190600101908083116118c1575b5050505050915050919050565b6060336119315760405162461bcd60e51b815260206004820152601760248201527f61757468656e7469636174696f6e207265717569726564000000000000000000604482015260640161050c565b336000908152600b6020908152604091829020805483518184028101840190945280845290918301828280156117d357602002820191906000526020600020908154815260200190600101908083116117bf575050505050905090565b6060600061199b83612e4f565b6001600160a01b0381166000908152600a602090815260409182902080548351818402810184019094528084529394509192908301828280156118d557602002820191906000526020600020908154815260200190600101908083116118c1575050505050915050919050565b8051825114611a595760405162461bcd60e51b815260206004820152601860248201527f6172726179206c656e67746873206d757374206d617463680000000000000000604482015260640161050c565b60008411611acf5760405162461bcd60e51b815260206004820152602860248201527f636f6c6c61746572616c20616d6f756e74206d7573742062652067726561746560448201527f72207468616e2030000000000000000000000000000000000000000000000000606482015260840161050c565b60005b8251811015611b59576000838281518110611aef57611aef614cc1565b602002602001015160001c90506007805490508110611b505760405162461bcd60e51b815260206004820152601660248201527f696e76616c6964206d61726b6574706c61636520494400000000000000000000604482015260640161050c565b50600101611ad2565b50600454611b72906001600160a01b0316333087612ecf565b6008805460408051610120810190915290919080886001811115611b9857611b9861431b565b81526020018781526020016000815260200186815260200160006005811115611bc357611bc361431b565b8152602001604051806020016040528060008152508152602001858152602001848152602001600067ffffffffffffffff811115611c0357611c036145ab565b604051908082528060200260200182016040528015611c2c578160200160208202803683370190505b509052815460018181018455600093845260209093208251600990920201805492939092839160ff19909116908381811115611c6a57611c6a61431b565b021790555060208201518160010155604082015181600201556060820151816003015560808201518160040160006101000a81548160ff02191690836005811115611cb757611cb761431b565b021790555060a08201516005820190611cd09082614d65565b5060c08201518051611cec916006840191602090910190614102565b5060e08201518051611d08916007840191602090910190614102565b506101008201518051611d25916008840191602090910190614102565b5050506000818152600960209081526040808320805473ffffffffffffffffffffffffffffffffffffffff1916339081179091558352600a8252822080546001810182559083529082200182905560068054879290611d85908490614d0b565b92505081905550807fa40b3c87e86bd5f4b59c8ee5d83a7ced69629a25ee5627dccfa8918958b38dc486868686604051611dc29493929190614fb0565b60405180910390a2505050505050565b611dda61414d565b600d6000838152602001908152602001600020604051806101a001604052908160008201548152602001600182015481526020016002820154815260200160038201548152602001600482015481526020016005820154815260200160068201548152602001600782015481526020016008820154815260200160098201548152602001600a8201548152602001600b820160009054906101000a900460ff166007811115611e8b57611e8b61431b565b6007811115611e9c57611e9c61431b565b8152602001600c82018054611eb090614cd7565b80601f0160208091040260200160405190810160405280929190818152602001828054611edc90614cd7565b8015610e265780601f10611efe57610100808354040283529160200191610e26565b820191906000526020600020905b815481529060010190602001808311611f0c57505050919092525091949350505050565b611f38612243565b6001600160a01b038116611fb45760405162461bcd60e51b815260206004820152602660248201527f4f776e61626c653a206e6577206f776e657220697320746865207a65726f206160448201527f6464726573730000000000000000000000000000000000000000000000000000606482015260840161050c565b6105af816125fd565b611fc56141c9565b60078281548110611fd857611fd8614cc1565b90600052602060002090600602016040518060c001604052908160008201548152602001600182015481526020016002820160009054906101000a900460ff1660018111156120295761202961431b565b600181111561203a5761203a61431b565b815260200160038201805461204e90614cd7565b80601f016020809104026020016040519081016040528092919081815260200182805461207a90614cd7565b80156120c75780601f1061209c576101008083540402835291602001916120c7565b820191906000526020600020905b8154815290600101906020018083116120aa57829003601f168201915b505050505081526020016004820180546120e090614cd7565b80601f016020809104026020016040519081016040528092919081815260200182805461210c90614cd7565b80156121595780601f1061212e57610100808354040283529160200191612159565b820191906000526020600020905b81548152906001019060200180831161213c57829003601f168201915b5050509183525050600582015460209091019060ff1660028111156121805761218061431b565b60028111156121915761219161431b565b90525092915050565b6040516001600160a01b038316602482015260448101829052610bc09084907fa9059cbb00000000000000000000000000000000000000000000000000000000906064015b60408051601f198184030181529190526020810180517bffffffffffffffffffffffffffffffffffffffffffffffffffffffff167fffffffff0000000000000000000000000000000000000000000000000000000090931692909217909152612f26565b6003546001600160a01b031633146110ac5760405162461bcd60e51b815260206004820181905260248201527f4f776e61626c653a2063616c6c6572206973206e6f7420746865206f776e6572604482015260640161050c565b6000806123386040518060400160405280601781526020017f726f666c2e4973417574686f72697a65644f726967696e0000000000000000008152508460405160200161232491907f550000000000000000000000000000000000000000000000000000000000000081526affffffffffffffffffffff1991909116600182015260160190565b60405160208183030381529060405261300e565b915091508167ffffffffffffffff16600014158061235857508051600114155b806123a557508060008151811061237157612371614cc1565b6020910101516001600160f81b0319167ff50000000000000000000000000000000000000000000000000000000000000014155b15610bc0576040517f6890282f00000000000000000000000000000000000000000000000000000000815260040160405180910390fd5b6000828152600d60209081526040808320600101548084526009909252822054600880549293926001600160a01b03909216918490811061241f5761241f614cc1565b90600052602060002090600902019150838260020160008282546124439190614d0b565b90915550506000858152600d602052604081206008018054869290612469908490614d0b565b90915550506001600160a01b0381166000908152600c602052604081208054869290612496908490614d0b565b925050819055509250925092565b60005b6008830154811015612508576124f6600d60008560080184815481106124cf576124cf614cc1565b600091825260208083209091015483528201929092526040019020600b015460ff166130fd565b6125005750505050565b6001016124a7565b506001600160a01b0381166000908152600a60205260408120905b81548110156125cd578482828154811061253f5761253f614cc1565b9060005260206000200154036125c5578154829061255f90600190614cae565b8154811061256f5761256f614cc1565b906000526020600020015482828154811061258c5761258c614cc1565b9060005260206000200181905550818054806125aa576125aa614fe1565b600190038181906000526020600020016000905590556125cd565b600101612523565b50506001600160a01b03166000908152600b60209081526040822080546001810182559083529120019190915550565b600380546001600160a01b0383811673ffffffffffffffffffffffffffffffffffffffff19831681179093556040519116919082907f8be0079c531659141344cd1fd0a4f28419497f9722a3daafe3b4186f6b6457e090600090a35050565b6060600061266983613137565b600101905060008167ffffffffffffffff811115612689576126896145ab565b6040519080825280601f01601f1916602001820160405280156126b3576020820181803683370190505b5090508181016020015b600019017f3031323334353637383961626364656600000000000000000000000000000000600a86061a8153600a85049450846126bd575b509392505050565b61276a6040518061018001604052806060815260200160006001600160a01b03168152602001606081526020016060815260200160608152602001600081526020016060815260200160608152602001606081526020016060815260200160608152602001606081525090565b6127d76040518061018001604052806060815260200160006001600160a01b03168152602001606081526020016060815260200160608152602001600081526020016060815260200160608152602001606081526020016060815260200160608152602001606081525090565b60005b8381101561285e578484828181106127f4576127f4614cc1565b909101356001600160f81b031916600160fd1b0390506128565761284f85858080601f016020809104026020016040519081016040528093929190818152602001838380828437600092018290525092508591506132199050565b825261285e565b6001016127da565b612869603282614d0b565b90506128d06128cb86868080601f0160208091040260200160405190810160405280939291908181526020018383808284376000920191909152506128b5925060029150869050614d0b565b9350836128c3602882614d0b565b945084613219565b6132f0565b6001600160a01b031660208301526128e9600282614d0b565b90508381108015612923575084848281811061290757612907614cc1565b9050013560f81c60f81b6001600160f81b031916600560f91b14155b156129c257805b848110156129c05785858281811061294457612944614cc1565b909101356001600160f81b031916600560f91b0390506129b8576129a186868080601f0160208091040260200160405190810160405280939291908181526020018383808284376000920191909152508692508591506132199050565b60408401526129b1816001614d0b565b91506129c0565b60010161292a565b505b806129cc8161500d565b915050612a1085856040518060400160405280600381526020017f55524900000000000000000000000000000000000000000000000000000000008152508461343d565b836060018193508290525050612a5d85856040518060400160405280600781526020017f56657273696f6e000000000000000000000000000000000000000000000000008152508461343d565b8360800181935082905250506060612aac86866040518060400160405280600881526020017f436861696e2049440000000000000000000000000000000000000000000000008152508561343d565b92509050612ab981613659565b60a084015260408051808201909152600581527f4e6f6e63650000000000000000000000000000000000000000000000000000006020820152612b0090879087908561343d565b60c08501829052905190925060081115612b46576040517fb4bc030c00000000000000000000000000000000000000000000000000000000815260040160405180910390fd5b612b8786866040518060400160405280600981526020017f49737375656420417400000000000000000000000000000000000000000000008152508561343d565b8460e0018194508290525050612bd486866040518060400160405280600f81526020017f45787069726174696f6e2054696d6500000000000000000000000000000000008152508561343d565b84610100018194508290525050612c2286866040518060400160405280600a81526020017f4e6f74204265666f7265000000000000000000000000000000000000000000008152508561343d565b84610120018194508290525050612c7086866040518060400160405280600a81526020017f52657175657374204944000000000000000000000000000000000000000000008152508561343d565b846101400181945082905250506000612cc087876040518060400160405280600981526020017f5265736f757263657300000000000000000000000000000000000000000000008152508661343d565b915050828114612ce157612cd58787836136b3565b61016086019190915292505b5091925050505b92915050565b6000612ce8612d08612d038460006004613219565b613659565b612d18612d038560056007613219565b612d28612d03866008600a613219565b612d38612d0387600b600d613219565b612d48612d0388600e6010613219565b612d58612d038960116013613219565b6139a4565b60606000807301000000000000000000000000000000000000036001600160a01b031687878787604051602001612d979493929190615026565b60408051601f1981840301815290829052612db191615057565b600060405180830381855afa9150503d8060008114612dec576040519150601f19603f3d011682016040523d82523d6000602084013e612df1565b606091505b509150915081612e435760405162461bcd60e51b815260206004820152600f60248201527f656e63727970743a206661696c65640000000000000000000000000000000000604482015260640161050c565b9150505b949350505050565b80516020808301919091206000908152908190526040812054829060ff1615612ea4576040517f9ea6784800000000000000000000000000000000000000000000000000000000815260040160405180910390fd5b8251600003612eb65760009150612ec9565b6000612ec184613b57565b602001519250505b50919050565b6040516001600160a01b0380851660248301528316604482015260648101829052612f209085907f23b872dd00000000000000000000000000000000000000000000000000000000906084016121df565b50505050565b6000612f7b826040518060400160405280602081526020017f5361666545524332303a206c6f772d6c6576656c2063616c6c206661696c6564815250856001600160a01b0316613c349092919063ffffffff16565b9050805160001480612f9c575080806020019051810190612f9c9190615073565b610bc05760405162461bcd60e51b815260206004820152602a60248201527f5361666545524332303a204552433230206f7065726174696f6e20646964206e60448201527f6f74207375636365656400000000000000000000000000000000000000000000606482015260840161050c565b600060606000807301000000000000000000000000000000000001036001600160a01b03168686604051602001613046929190615095565b60408051601f198184030181529082905261306091615057565b600060405180830381855afa9150503d806000811461309b576040519150601f19603f3d011682016040523d82523d6000602084013e6130a0565b606091505b5091509150816130dc576040517f902e94f800000000000000000000000000000000000000000000000000000000815260040160405180910390fd5b808060200190518101906130f091906150ea565b9097909650945050505050565b6000808260078111156131125761311261431b565b14158015612ce85750600182600781111561312f5761312f61431b565b141592915050565b6000807a184f03e93ff9f4daa797ed6e38ed64bf6a1f0100000000000000008310613180577a184f03e93ff9f4daa797ed6e38ed64bf6a1f010000000000000000830492506040015b6d04ee2d6d415b85acef810000000083106131ac576d04ee2d6d415b85acef8100000000830492506020015b662386f26fc1000083106131ca57662386f26fc10000830492506010015b6305f5e10083106131e2576305f5e100830492506008015b61271083106131f657612710830492506004015b60648310613208576064830492506002015b600a8310612ce85760010192915050565b606060006132278484614cae565b67ffffffffffffffff81111561323f5761323f6145ab565b6040519080825280601f01601f191660200182016040528015613269576020820181803683370190505b509050835b838110801561327d5750855181105b156132e75785818151811061329457613294614cc1565b01602001516001600160f81b031916826132ae8784614cae565b815181106132be576132be614cc1565b60200101906001600160f81b031916908160001a905350806132df8161500d565b91505061326e565b50949350505050565b6000815160281461332d576040517facf8696900000000000000000000000000000000000000000000000000000000815260040160405180910390fd5b60006002835161333d919061514f565b67ffffffffffffffff811115613355576133556145ab565b6040519080825280601f01601f19166020018201604052801561337f576020820181803683370190505b50905060005b60028451613393919061514f565b811015613429576133d1846133a9836002615163565b6133b4906001614d0b565b815181106133c4576133c4614cc1565b016020015160f81c613c43565b6133e0856133b4846002615163565b6133eb90601061517a565b6133f59190615196565b60f81b82828151811061340a5761340a614cc1565b60200101906001600160f81b031916908160001a905350600101613385565b50613433816151af565b60601c9392505050565b60606000825b858110156135745786868281811061345d5761345d614cc1565b909101356001600160f81b0319167f3a000000000000000000000000000000000000000000000000000000000000000390506135625784805190602001206134de88888080601f0160208091040260200160405190810160405280939291908181526020018383808284376000920191909152508992508691506132199050565b8051906020012014613503575050604080516020810190915260008152905081613650565b8061350d8161500d565b9150508581108015613547575086868281811061352c5761352c614cc1565b9050013560f81c60f81b6001600160f81b031916600160fd1b145b1561355a57806135568161500d565b9150505b809350613574565b8061356c8161500d565b915050613443565b858110156136085786868281811061358e5761358e614cc1565b909101356001600160f81b031916600560f91b039050613600576135eb87878080601f0160208091040260200160405190810160405280939291908181526020018383808284376000920191909152508892508591506132199050565b6135f6826001614d0b565b9250925050613650565b600101613574565b61364b87878080601f0160208091040260200160405190810160405280939291908181526020018383808284376000920191909152508892508591506132199050565b925090505b94509492505050565b600080805b83518110156136ac57603084828151811061367b5761367b614cc1565b016020015161368d919060f81c614cae565b61369883600a615163565b6136a29190614d0b565b915060010161365e565b5092915050565b6060600082815b6136c5600187614cae565b8210156137c0578686838181106136de576136de614cc1565b9050013560f81c60f81b6001600160f81b031916602d60f81b1480156137365750868661370c846001614d0b565b81811061371b5761371b614cc1565b9050013560f81c60f81b6001600160f81b031916600160fd1b145b1561375a57613746600283614d0b565b9150806137528161500d565b91505061375f565b6137c0565b8582108015613797575086868381811061377b5761377b614cc1565b9050013560f81c60f81b6001600160f81b031916600a60f81b14155b156137ae57816137a68161500d565b92505061375f565b816137b88161500d565b9250506136ba565b60008167ffffffffffffffff8111156137db576137db6145ab565b60405190808252806020026020018201604052801561380e57816020015b60608152602001906001900390816137f95790505b50905085925060005b613822600189614cae565b841080156138305750828114155b156139965788888581811061384757613847614cc1565b9050013560f81c60f81b6001600160f81b031916602d60f81b14801561389f57508888613875866001614d0b565b81811061388457613884614cc1565b9050013560f81c60f81b6001600160f81b031916600160fd1b145b156138b2576138af846002614d0b565b96505b87841080156138ea57508888858181106138ce576138ce614cc1565b9050013560f81c60f81b6001600160f81b031916600a60f81b14155b1561390157836138f98161500d565b9450506138b2565b61394489898080601f0160208091040260200160405190810160405280939291908181526020018383808284376000920191909152508b92508891506132199050565b82828151811061395657613956614cc1565b6020026020010181905250808061396c9061500d565b915050878403613984578361398081615202565b9450505b8361398e8161500d565b945050613817565b509791965090945050505050565b60006107b25b8761ffff168161ffff1610156139f6576139c381613dcf565b156139dd576139d66301e2850083614d0b565b91506139ee565b6139eb6301e1338083614d0b565b91505b6001016139aa565b6139fe61420f565b601f8152613a0b89613dcf565b15613a1c57601d6020820152613a24565b601c60208201525b601f60408201819052601e606083018190526080830182905260a0830181905260c0830182905260e0830182905261010083018190526101208301829052610140830152610160820152600191505b8760ff168261ffff161015613ad15780613a8e600184615219565b61ffff16600c8110613aa257613aa2614cc1565b6020020151613ab49062015180615233565b613ac49063ffffffff1684614d0b565b9250600190910190613a73565b613adc600188615252565b613aec9060ff1662015180615233565b613afc9063ffffffff1684614d0b565b9250613b0d60ff8716610e10615233565b613b1d9063ffffffff1684614d0b565b9250613b2d60ff8616603c61526b565b613b3b9061ffff1684614d0b565b9250613b4a60ff851684614d0b565b9998505050505050505050565b613b926040518060a001604052806060815260200160006001600160a01b031681526020016000815260200160608152602001606081525090565b6000613bb46002546000801b8560405180602001604052806000815250613e2e565b9050600081806020019051810190613bcc9190615336565b90506001604051613bdd9190614e78565b604051809103902081600001518051906020012014613c0f5760405163283d62bd60e01b815260040160405180910390fd5b428160400151101561156357604051630b17115560e41b815260040160405180910390fd5b6060612e478484600085613f14565b60007f300000000000000000000000000000000000000000000000000000000000000060f883901b6001600160f81b03191610801590613cb157507f390000000000000000000000000000000000000000000000000000000000000060f883901b6001600160f81b03191611155b15613cc157612ce8603083615252565b7f610000000000000000000000000000000000000000000000000000000000000060f883901b6001600160f81b03191610801590613d2d57507f660000000000000000000000000000000000000000000000000000000000000060f883901b6001600160f81b03191611155b15613d49576061613d3f83600a615196565b612ce89190615252565b7f410000000000000000000000000000000000000000000000000000000000000060f883901b6001600160f81b03191610801590613db557507f460000000000000000000000000000000000000000000000000000000000000060f883901b6001600160f81b03191611155b15613dc7576041613d3f83600a615196565b506000919050565b6000613ddc60048361541a565b61ffff1615613ded57506000919050565b613df860648361541a565b61ffff1615613e0957506001919050565b613e156101908361541a565b61ffff1615613e2657506000919050565b506001919050565b60606000807301000000000000000000000000000000000000046001600160a01b031687878787604051602001613e689493929190615026565b60408051601f1981840301815290829052613e8291615057565b600060405180830381855afa9150503d8060008114613ebd576040519150601f19603f3d011682016040523d82523d6000602084013e613ec2565b606091505b509150915081612e435760405162461bcd60e51b815260206004820152600f60248201527f646563727970743a206661696c65640000000000000000000000000000000000604482015260640161050c565b606082471015613f8c5760405162461bcd60e51b815260206004820152602660248201527f416464726573733a20696e73756666696369656e742062616c616e636520666f60448201527f722063616c6c0000000000000000000000000000000000000000000000000000606482015260840161050c565b600080866001600160a01b03168587604051613fa89190615057565b60006040518083038185875af1925050503d8060008114613fe5576040519150601f19603f3d011682016040523d82523d6000602084013e613fea565b606091505b5091509150613ffb87838387614006565b979650505050505050565b6060831561407557825160000361406e576001600160a01b0385163b61406e5760405162461bcd60e51b815260206004820152601d60248201527f416464726573733a2063616c6c20746f206e6f6e2d636f6e7472616374000000604482015260640161050c565b5081612e47565b612e47838381511561408a5781518083602001fd5b8060405162461bcd60e51b815260040161050c9190614905565b6040805161012081019091528060008152602001600081526020016000815260200160008152602001600060058111156140e0576140e061431b565b8152602001606081526020016060815260200160608152602001606081525090565b82805482825590600052602060002090810192821561413d579160200282015b8281111561413d578251825591602001919060010190614122565b5061414992915061422e565b5090565b604051806101a001604052806000801916815260200160008152602001600081526020016000815260200160008152602001600081526020016000815260200160008152602001600081526020016000815260200160008152602001600060078111156141bc576141bc61431b565b8152602001606081525090565b6040518060c001604052806000815260200160008152602001600060018111156141f5576141f561431b565b815260606020820181905260408201819052016000905290565b604051806101800160405280600c906020820280368337509192915050565b5b80821115614149576000815560010161422f565b60006020828403121561425557600080fd5b5035919050565b80356008811061426b57600080fd5b919050565b60008060006060848603121561428557600080fd5b833592506142956020850161425c565b929592945050506040919091013590565b6001600160a01b03811681146105af57600080fd5b600080604083850312156142ce57600080fd5b82356142d9816142a6565b946020939093013593505050565b600080604083850312156142fa57600080fd5b8235915060208301356006811061431057600080fd5b809150509250929050565b634e487b7160e01b600052602160045260246000fd5b600281106105af576105af61431b565b60005b8381101561435c578181015183820152602001614344565b50506000910152565b6000815180845261437d816020860160208601614341565b601f01601f19169290920160200192915050565b600381106143a1576143a161431b565b9052565b8681528560208201526143b785614331565b84604082015260c0606082015260006143d360c0830186614365565b82810360808401526143e58186614365565b915050613ffb60a0830184614391565b60008060006060848603121561440a57600080fd5b505081359360208301359350604090920135919050565b6143a181614331565b600681106143a1576143a161431b565b600081518084526020840193506020830160005b8281101561446c57815186526020958601959091019060010161444e565b5093949350505050565b60208152614488602082018351614421565b602082015160408201526040820151606082015260608201516080820152600060808301516144ba60a084018261442a565b5060a083015161012060c08401526144d6610140840182614365565b905060c0840151601f198483030160e08501526144f3828261443a565b91505060e0840151601f1984830301610100850152614512828261443a565b915050610100840151601f1984830301610120850152614532828261443a565b95945050505050565b61454487614331565b868152856020820152846040820152836060820152614566608082018461442a565b60c060a0820152600061457c60c0830184614365565b98975050505050505050565b67ffffffffffffffff811681146105af57600080fd5b600281106105af57600080fd5b634e487b7160e01b600052604160045260246000fd5b6040516101a0810167ffffffffffffffff811182821017156145e5576145e56145ab565b60405290565b60405160a0810167ffffffffffffffff811182821017156145e5576145e56145ab565b604051601f8201601f1916810167ffffffffffffffff81118282101715614637576146376145ab565b604052919050565b600067ffffffffffffffff821115614659576146596145ab565b50601f01601f191660200190565b600061467a6146758461463f565b61460e565b905082815283838301111561468e57600080fd5b828260208301376000602084830101529392505050565b600082601f8301126146b657600080fd5b61156383833560208501614667565b600080600080608085870312156146db57600080fd5b84356146e681614588565b935060208501356146f68161459e565b9250604085013567ffffffffffffffff81111561471257600080fd5b61471e878288016146a5565b925050606085013567ffffffffffffffff81111561473b57600080fd5b614747878288016146a5565b91505092959194509250565b60006020828403121561476557600080fd5b8135611563816142a6565b6000806040838503121561478357600080fd5b82359150602083013567ffffffffffffffff8111156147a157600080fd5b83016101a081860312156147b457600080fd5b6147bc6145c1565b813581526020808301359082015260408083013590820152606080830135908201526080808301359082015260a0808301359082015260c0808301359082015260e08083013590820152610100808301359082015261012080830135908201526101408083013590820152614834610160830161425c565b61016082015261018082013567ffffffffffffffff81111561485557600080fd5b614861878285016146a5565b6101808301525080925050509250929050565b6000806000838503608081121561488a57600080fd5b843567ffffffffffffffff8111156148a157600080fd5b8501601f810187136148b257600080fd5b803567ffffffffffffffff8111156148c957600080fd5b8760208284010111156148db57600080fd5b602091909101945092506060601f19820112156148f757600080fd5b506020840190509250925092565b6020815260006115636020830184614365565b600881106143a1576143a161431b565b8d81528c60208201528b60408201528a60608201528960808201528860a08201528760c08201528660e0820152856101008201528461012082015283610140820152614978610160820184614918565b6101a061018082015260006149916101a0830184614365565b9f9e505050505050505050505050505050565b6000602082840312156149b657600080fd5b813567ffffffffffffffff8111156149cd57600080fd5b8201601f810184136149de57600080fd5b612e4784823560208401614667565b6000602082840312156149ff57600080fd5b81356affffffffffffffffffffff198116811461156357600080fd5b602080825282518282018190526000918401906040840190835b81811015614a53578351835260209384019390920191600101614a35565b509095945050505050565b600067ffffffffffffffff821115614a7857614a786145ab565b5060051b60200190565b600082601f830112614a9357600080fd5b8135614aa161467582614a5e565b8082825260208201915060208360051b860101925085831115614ac357600080fd5b602085015b83811015614ae0578035835260209283019201614ac8565b5095945050505050565b600080600080600060a08688031215614b0257600080fd5b8535614b0d8161459e565b94506020860135935060408601359250606086013567ffffffffffffffff811115614b3757600080fd5b614b4388828901614a82565b925050608086013567ffffffffffffffff811115614b6057600080fd5b614b6c88828901614a82565b9150509295509295909350565b6020815281516020820152602082015160408201526040820151606082015260608201516080820152608082015160a082015260a082015160c082015260c082015160e082015260e08201516101008201526101008201516101208201526101208201516101408201526101408201516101608201526000610160830151614c05610180840182614918565b506101808301516101a080840152612e476101c0840182614365565b60208152815160208201526020820151604082015260006040830151614c4681614331565b80606084015250606083015160c06080840152614c6660e0840182614365565b90506080840151601f198483030160a0850152614c838282614365565b91505060a08401516126f560c0850182614391565b634e487b7160e01b600052601160045260246000fd5b81810381811115612ce857612ce8614c98565b634e487b7160e01b600052603260045260246000fd5b600181811c90821680614ceb57607f821691505b602082108103612ec957634e487b7160e01b600052602260045260246000fd5b80820180821115612ce857612ce8614c98565b601f821115610bc057806000526020600020601f840160051c81016020851015614d455750805b601f840160051c820191505b818110156111e25760008155600101614d51565b815167ffffffffffffffff811115614d7f57614d7f6145ab565b614d9381614d8d8454614cd7565b84614d1e565b6020601f821160018114614dc75760008315614daf5750848201515b600019600385901b1c1916600184901b1784556111e2565b600084815260208120601f198516915b82811015614df75787850151825560209485019460019092019101614dd7565b5084821015614e155786840151600019600387901b60f8161c191681555b50505050600190811b01905550565b7f19457468657265756d205369676e6564204d6573736167653a0a000000000000815260008451614e5c81601a850160208901614341565b82018385601a83013760009301601a0192835250909392505050565b6000808354614e8681614cd7565b600182168015614e9d5760018114614eb257614ee2565b60ff1983168652811515820286019350614ee2565b86600052602060002060005b83811015614eda57815488820152600190910190602001614ebe565b505081860193505b509195945050505050565b602081526000825160a06020840152614f0960c0840182614365565b90506001600160a01b036020850151166040840152604084015160608401526060840151601f19848303016080850152614f438282614365565b6080860151858203601f190160a08701528051808352919350602090810192508084019190600582901b85010160005b82811015614fa457601f19868303018452614f8f828651614365565b60209586019594909401939150600101614f73565b50979650505050505050565b848152836020820152608060408201526000614fcf608083018561443a565b8281036060840152613ffb818561443a565b634e487b7160e01b600052603160045260246000fd5b634e487b7160e01b600052601260045260246000fd5b60006001820161501f5761501f614c98565b5060010190565b8481528360208201526080604082015260006150456080830185614365565b8281036060840152613ffb8185614365565b60008251615069818460208701614341565b9190910192915050565b60006020828403121561508557600080fd5b8151801515811461156357600080fd5b6040815260006150a86040830185614365565b82810360208401526145328185614365565b60006150c86146758461463f565b90508281528383830111156150dc57600080fd5b611563836020830184614341565b600080604083850312156150fd57600080fd5b825161510881614588565b602084015190925067ffffffffffffffff81111561512557600080fd5b8301601f8101851361513657600080fd5b615145858251602084016150ba565b9150509250929050565b60008261515e5761515e614ff7565b500490565b8082028115828204841417612ce857612ce8614c98565b60ff81811683821602908116908181146136ac576136ac614c98565b60ff8181168382160190811115612ce857612ce8614c98565b805160208201516bffffffffffffffffffffffff198116919060148210156151fb576bffffffffffffffffffffffff196bffffffffffffffffffffffff198360140360031b1b82161692505b5050919050565b60008161521157615211614c98565b506000190190565b61ffff8281168282160390811115612ce857612ce8614c98565b63ffffffff81811683821602908116908181146136ac576136ac614c98565b60ff8281168282160390811115612ce857612ce8614c98565b61ffff81811683821602908116908181146136ac576136ac614c98565b600082601f83011261529957600080fd5b611563838351602085016150ba565b805161426b816142a6565b600082601f8301126152c457600080fd5b81516152d261467582614a5e565b8082825260208201915060208360051b8601019250858311156152f457600080fd5b602085015b83811015614ae057805167ffffffffffffffff81111561531857600080fd5b615327886020838a0101615288565b845250602092830192016152f9565b60006020828403121561534857600080fd5b815167ffffffffffffffff81111561535f57600080fd5b820160a0818503121561537157600080fd5b6153796145eb565b815167ffffffffffffffff81111561539057600080fd5b61539c86828501615288565b8252506153ab602083016152a8565b602082015260408281015190820152606082015167ffffffffffffffff8111156153d457600080fd5b6153e086828501615288565b606083015250608082015167ffffffffffffffff81111561540057600080fd5b61540c868285016152b3565b608083015250949350505050565b600061ffff83168061542e5761542e614ff7565b8061ffff8416069150509291505056fea26469706673582212208840b671026861f302a89ae47a084c766c895a958b22b30a48db945f49acd90064736f6c634300081c0033","opcodes":"PUSH1 0x80 PUSH1 0x40 MSTORE CALLVALUE DUP1 ISZERO PUSH2 0x10 JUMPI PUSH1 0x0 DUP1 REVERT JUMPDEST POP PUSH1 0x40 MLOAD DUP1 PUSH1 0x40 ADD PUSH1 0x40 MSTORE DUP1 PUSH1 0x7 DUP2 MSTORE PUSH1 0x20 ADD PUSH7 0x141BDB1E50995D PUSH1 0xCA SHL DUP2 MSTORE POP PUSH2 0x51 PUSH1 0x20 PUSH1 0x40 MLOAD DUP1 PUSH1 0x20 ADD PUSH1 0x40 MSTORE DUP1 PUSH1 0x0 DUP2 MSTORE POP PUSH2 0x7A PUSH1 0x20 SHL PUSH1 0x20 SHR JUMP JUMPDEST PUSH2 0x5A SWAP1 PUSH2 0x1BA JUMP JUMPDEST PUSH1 0x2 SSTORE PUSH1 0x1 PUSH2 0x69 DUP3 DUP3 PUSH2 0x27A JUMP JUMPDEST POP PUSH2 0x75 SWAP1 POP CALLER PUSH2 0x168 JUMP JUMPDEST PUSH2 0x3B2 JUMP JUMPDEST PUSH1 0x60 PUSH1 0x0 DUP1 PUSH20 0x100000000000000000000000000000000000001 PUSH1 0x1 PUSH1 0x1 PUSH1 0xA0 SHL SUB AND DUP6 DUP6 PUSH1 0x40 MLOAD PUSH1 0x20 ADD PUSH2 0xB0 SWAP3 SWAP2 SWAP1 PUSH2 0x35C JUMP JUMPDEST PUSH1 0x40 DUP1 MLOAD PUSH1 0x1F NOT DUP2 DUP5 SUB ADD DUP2 MSTORE SWAP1 DUP3 SWAP1 MSTORE PUSH2 0xCA SWAP2 PUSH2 0x396 JUMP JUMPDEST PUSH1 0x0 PUSH1 0x40 MLOAD DUP1 DUP4 SUB DUP2 DUP6 GAS STATICCALL SWAP2 POP POP RETURNDATASIZE DUP1 PUSH1 0x0 DUP2 EQ PUSH2 0x105 JUMPI PUSH1 0x40 MLOAD SWAP2 POP PUSH1 0x1F NOT PUSH1 0x3F RETURNDATASIZE ADD AND DUP3 ADD PUSH1 0x40 MSTORE RETURNDATASIZE DUP3 MSTORE RETURNDATASIZE PUSH1 0x0 PUSH1 0x20 DUP5 ADD RETURNDATACOPY PUSH2 0x10A JUMP JUMPDEST PUSH1 0x60 SWAP2 POP JUMPDEST POP SWAP2 POP SWAP2 POP DUP2 PUSH2 0x160 JUMPI PUSH1 0x40 MLOAD PUSH3 0x461BCD PUSH1 0xE5 SHL DUP2 MSTORE PUSH1 0x20 PUSH1 0x4 DUP3 ADD MSTORE PUSH1 0x13 PUSH1 0x24 DUP3 ADD MSTORE PUSH32 0x72616E646F6D42797465733A206661696C656400000000000000000000000000 PUSH1 0x44 DUP3 ADD MSTORE PUSH1 0x64 ADD PUSH1 0x40 MLOAD DUP1 SWAP2 SUB SWAP1 REVERT JUMPDEST SWAP5 SWAP4 POP POP POP POP JUMP JUMPDEST PUSH1 0x3 DUP1 SLOAD PUSH1 0x1 PUSH1 0x1 PUSH1 0xA0 SHL SUB DUP4 DUP2 AND PUSH1 0x1 PUSH1 0x1 PUSH1 0xA0 SHL SUB NOT DUP4 AND DUP2 OR SWAP1 SWAP4 SSTORE PUSH1 0x40 MLOAD SWAP2 AND SWAP2 SWAP1 DUP3 SWAP1 PUSH32 0x8BE0079C531659141344CD1FD0A4F28419497F9722A3DAAFE3B4186F6B6457E0 SWAP1 PUSH1 0x0 SWAP1 LOG3 POP POP JUMP JUMPDEST DUP1 MLOAD PUSH1 0x20 DUP1 DUP4 ADD MLOAD SWAP2 SWAP1 DUP2 LT ISZERO PUSH2 0x1DB JUMPI PUSH1 0x0 NOT DUP2 PUSH1 0x20 SUB PUSH1 0x3 SHL SHL DUP3 AND SWAP2 POP JUMPDEST POP SWAP2 SWAP1 POP JUMP JUMPDEST PUSH4 0x4E487B71 PUSH1 0xE0 SHL PUSH1 0x0 MSTORE PUSH1 0x41 PUSH1 0x4 MSTORE PUSH1 0x24 PUSH1 0x0 REVERT JUMPDEST PUSH1 0x1 DUP2 DUP2 SHR SWAP1 DUP3 AND DUP1 PUSH2 0x20B JUMPI PUSH1 0x7F DUP3 AND SWAP2 POP JUMPDEST PUSH1 0x20 DUP3 LT DUP2 SUB PUSH2 0x1DB JUMPI PUSH4 0x4E487B71 PUSH1 0xE0 SHL PUSH1 0x0 MSTORE PUSH1 0x22 PUSH1 0x4 MSTORE PUSH1 0x24 PUSH1 0x0 REVERT JUMPDEST PUSH1 0x1F DUP3 GT ISZERO PUSH2 0x275 JUMPI DUP1 PUSH1 0x0 MSTORE PUSH1 0x20 PUSH1 0x0 KECCAK256 PUSH1 0x1F DUP5 ADD PUSH1 0x5 SHR DUP2 ADD PUSH1 0x20 DUP6 LT ISZERO PUSH2 0x252 JUMPI POP DUP1 JUMPDEST PUSH1 0x1F DUP5 ADD PUSH1 0x5 SHR DUP3 ADD SWAP2 POP JUMPDEST DUP2 DUP2 LT ISZERO PUSH2 0x272 JUMPI PUSH1 0x0 DUP2 SSTORE PUSH1 0x1 ADD PUSH2 0x25E JUMP JUMPDEST POP POP JUMPDEST POP POP POP JUMP JUMPDEST DUP2 MLOAD PUSH1 0x1 PUSH1 0x1 PUSH1 0x40 SHL SUB DUP2 GT ISZERO PUSH2 0x293 JUMPI PUSH2 0x293 PUSH2 0x1E1 JUMP JUMPDEST PUSH2 0x2A7 DUP2 PUSH2 0x2A1 DUP5 SLOAD PUSH2 0x1F7 JUMP JUMPDEST DUP5 PUSH2 0x22B JUMP JUMPDEST PUSH1 0x20 PUSH1 0x1F DUP3 GT PUSH1 0x1 DUP2 EQ PUSH2 0x2DB JUMPI PUSH1 0x0 DUP4 ISZERO PUSH2 0x2C3 JUMPI POP DUP5 DUP3 ADD MLOAD JUMPDEST PUSH1 0x0 NOT PUSH1 0x3 DUP6 SWAP1 SHL SHR NOT AND PUSH1 0x1 DUP5 SWAP1 SHL OR DUP5 SSTORE PUSH2 0x272 JUMP JUMPDEST PUSH1 0x0 DUP5 DUP2 MSTORE PUSH1 0x20 DUP2 KECCAK256 PUSH1 0x1F NOT DUP6 AND SWAP2 JUMPDEST DUP3 DUP2 LT ISZERO PUSH2 0x30B JUMPI DUP8 DUP6 ADD MLOAD DUP3 SSTORE PUSH1 0x20 SWAP5 DUP6 ADD SWAP5 PUSH1 0x1 SWAP1 SWAP3 ADD SWAP2 ADD PUSH2 0x2EB JUMP JUMPDEST POP DUP5 DUP3 LT ISZERO PUSH2 0x329 JUMPI DUP7 DUP5 ADD MLOAD PUSH1 0x0 NOT PUSH1 0x3 DUP8 SWAP1 SHL PUSH1 0xF8 AND SHR NOT AND DUP2 SSTORE JUMPDEST POP POP POP POP PUSH1 0x1 SWAP1 DUP2 SHL ADD SWAP1 SSTORE POP JUMP JUMPDEST PUSH1 0x0 JUMPDEST DUP4 DUP2 LT ISZERO PUSH2 0x353 JUMPI DUP2 DUP2 ADD MLOAD DUP4 DUP3 ADD MSTORE PUSH1 0x20 ADD PUSH2 0x33B JUMP JUMPDEST POP POP PUSH1 0x0 SWAP2 ADD MSTORE JUMP JUMPDEST DUP3 DUP2 MSTORE PUSH1 0x40 PUSH1 0x20 DUP3 ADD MSTORE PUSH1 0x0 DUP3 MLOAD DUP1 PUSH1 0x40 DUP5 ADD MSTORE PUSH2 0x381 DUP2 PUSH1 0x60 DUP6 ADD PUSH1 0x20 DUP8 ADD PUSH2 0x338 JUMP JUMPDEST PUSH1 0x1F ADD PUSH1 0x1F NOT AND SWAP2 SWAP1 SWAP2 ADD PUSH1 0x60 ADD SWAP4 SWAP3 POP POP POP JUMP JUMPDEST PUSH1 0x0 DUP3 MLOAD PUSH2 0x3A8 DUP2 DUP5 PUSH1 0x20 DUP8 ADD PUSH2 0x338 JUMP JUMPDEST SWAP2 SWAP1 SWAP2 ADD SWAP3 SWAP2 POP POP JUMP JUMPDEST PUSH2 0x5474 DUP1 PUSH2 0x3C1 PUSH1 0x0 CODECOPY PUSH1 0x0 RETURN INVALID PUSH1 0x80 PUSH1 0x40 MSTORE CALLVALUE DUP1 ISZERO PUSH2 0x10 JUMPI PUSH1 0x0 DUP1 REVERT JUMPDEST POP PUSH1 0x4 CALLDATASIZE LT PUSH2 0x1E5 JUMPI PUSH1 0x0 CALLDATALOAD PUSH1 0xE0 SHR DUP1 PUSH4 0x7D5559D9 GT PUSH2 0x10F JUMPI DUP1 PUSH4 0xC2FB26A6 GT PUSH2 0xA2 JUMPI DUP1 PUSH4 0xE75A88A0 GT PUSH2 0x71 JUMPI DUP1 PUSH4 0xE75A88A0 EQ PUSH2 0x45A JUMPI DUP1 PUSH4 0xF1B9EA17 EQ PUSH2 0x46D JUMPI DUP1 PUSH4 0xF2FDE38B EQ PUSH2 0x48D JUMPI DUP1 PUSH4 0xF53AAC2A EQ PUSH2 0x4A0 JUMPI PUSH1 0x0 DUP1 REVERT JUMPDEST DUP1 PUSH4 0xC2FB26A6 EQ PUSH2 0x424 JUMPI DUP1 PUSH4 0xD1D758CB EQ PUSH2 0x42C JUMPI DUP1 PUSH4 0xD69418F3 EQ PUSH2 0x43F JUMPI DUP1 PUSH4 0xDAEE6FBC EQ PUSH2 0x447 JUMPI PUSH1 0x0 DUP1 REVERT JUMPDEST DUP1 PUSH4 0x9F88151E GT PUSH2 0xDE JUMPI DUP1 PUSH4 0x9F88151E EQ PUSH2 0x3E1 JUMPI DUP1 PUSH4 0xA935EE0E EQ PUSH2 0x3F4 JUMPI DUP1 PUSH4 0xB7013DC1 EQ PUSH2 0x407 JUMPI DUP1 PUSH4 0xB76EBB56 EQ PUSH2 0x40F JUMPI PUSH1 0x0 DUP1 REVERT JUMPDEST DUP1 PUSH4 0x7D5559D9 EQ PUSH2 0x371 JUMPI DUP1 PUSH4 0x7F476B6F EQ PUSH2 0x384 JUMPI DUP1 PUSH4 0x8DA5CB5B EQ PUSH2 0x3A4 JUMPI DUP1 PUSH4 0x974D4ED8 EQ PUSH2 0x3B5 JUMPI PUSH1 0x0 DUP1 REVERT JUMPDEST DUP1 PUSH4 0x2B64DEEC GT PUSH2 0x187 JUMPI DUP1 PUSH4 0x5023A0C9 GT PUSH2 0x156 JUMPI DUP1 PUSH4 0x5023A0C9 EQ PUSH2 0x31E JUMPI DUP1 PUSH4 0x58DEE054 EQ PUSH2 0x343 JUMPI DUP1 PUSH4 0x666181A9 EQ PUSH2 0x356 JUMPI DUP1 PUSH4 0x715018A6 EQ PUSH2 0x369 JUMPI PUSH1 0x0 DUP1 REVERT JUMPDEST DUP1 PUSH4 0x2B64DEEC EQ PUSH2 0x2B3 JUMPI DUP1 PUSH4 0x2E5ABD7B EQ PUSH2 0x2D8 JUMPI DUP1 PUSH4 0x3074EEBC EQ PUSH2 0x2EB JUMPI DUP1 PUSH4 0x32D268A5 EQ PUSH2 0x2FE JUMPI PUSH1 0x0 DUP1 REVERT JUMPDEST DUP1 PUSH4 0x1972033F GT PUSH2 0x1C3 JUMPI DUP1 PUSH4 0x1972033F EQ PUSH2 0x259 JUMPI DUP1 PUSH4 0x212E94C9 EQ PUSH2 0x26C JUMPI DUP1 PUSH4 0x29EC9442 EQ PUSH2 0x27F JUMPI DUP1 PUSH4 0x2A6D3E9B EQ PUSH2 0x2A0 JUMPI PUSH1 0x0 DUP1 REVERT JUMPDEST DUP1 PUSH4 0x14794702 EQ PUSH2 0x1EA JUMPI DUP1 PUSH4 0x15534B70 EQ PUSH2 0x1FF JUMPI DUP1 PUSH4 0x181031B1 EQ PUSH2 0x22F JUMPI JUMPDEST PUSH1 0x0 DUP1 REVERT JUMPDEST PUSH2 0x1FD PUSH2 0x1F8 CALLDATASIZE PUSH1 0x4 PUSH2 0x4243 JUMP JUMPDEST PUSH2 0x4C0 JUMP JUMPDEST STOP JUMPDEST PUSH1 0x4 SLOAD PUSH2 0x212 SWAP1 PUSH1 0x1 PUSH1 0x1 PUSH1 0xA0 SHL SUB AND DUP2 JUMP JUMPDEST PUSH1 0x40 MLOAD PUSH1 0x1 PUSH1 0x1 PUSH1 0xA0 SHL SUB SWAP1 SWAP2 AND DUP2 MSTORE PUSH1 0x20 ADD JUMPDEST PUSH1 0x40 MLOAD DUP1 SWAP2 SUB SWAP1 RETURN JUMPDEST PUSH1 0x5 SLOAD PUSH2 0x23C SWAP1 PUSH1 0x58 SHL DUP2 JUMP JUMPDEST PUSH1 0x40 MLOAD PUSH11 0xFFFFFFFFFFFFFFFFFFFFFF NOT SWAP1 SWAP2 AND DUP2 MSTORE PUSH1 0x20 ADD PUSH2 0x226 JUMP JUMPDEST PUSH2 0x1FD PUSH2 0x267 CALLDATASIZE PUSH1 0x4 PUSH2 0x4243 JUMP JUMPDEST PUSH2 0x5B2 JUMP JUMPDEST PUSH2 0x1FD PUSH2 0x27A CALLDATASIZE PUSH1 0x4 PUSH2 0x4270 JUMP JUMPDEST PUSH2 0x72F JUMP JUMPDEST PUSH2 0x292 PUSH2 0x28D CALLDATASIZE PUSH1 0x4 PUSH2 0x42BB JUMP JUMPDEST PUSH2 0x8AF JUMP JUMPDEST PUSH1 0x40 MLOAD SWAP1 DUP2 MSTORE PUSH1 0x20 ADD PUSH2 0x226 JUMP JUMPDEST PUSH2 0x1FD PUSH2 0x2AE CALLDATASIZE PUSH1 0x4 PUSH2 0x42E7 JUMP JUMPDEST PUSH2 0x8E0 JUMP JUMPDEST PUSH2 0x2C6 PUSH2 0x2C1 CALLDATASIZE PUSH1 0x4 PUSH2 0x4243 JUMP JUMPDEST PUSH2 0x92A JUMP JUMPDEST PUSH1 0x40 MLOAD PUSH2 0x226 SWAP7 SWAP6 SWAP5 SWAP4 SWAP3 SWAP2 SWAP1 PUSH2 0x43A5 JUMP JUMPDEST PUSH2 0x1FD PUSH2 0x2E6 CALLDATASIZE PUSH1 0x4 PUSH2 0x43F5 JUMP JUMPDEST PUSH2 0xA8D JUMP JUMPDEST PUSH2 0x292 PUSH2 0x2F9 CALLDATASIZE PUSH1 0x4 PUSH2 0x42BB JUMP JUMPDEST PUSH2 0xBC5 JUMP JUMPDEST PUSH2 0x311 PUSH2 0x30C CALLDATASIZE PUSH1 0x4 PUSH2 0x4243 JUMP JUMPDEST PUSH2 0xBE1 JUMP JUMPDEST PUSH1 0x40 MLOAD PUSH2 0x226 SWAP2 SWAP1 PUSH2 0x4476 JUMP JUMPDEST PUSH2 0x331 PUSH2 0x32C CALLDATASIZE PUSH1 0x4 PUSH2 0x4243 JUMP JUMPDEST PUSH2 0xE36 JUMP JUMPDEST PUSH1 0x40 MLOAD PUSH2 0x226 SWAP7 SWAP6 SWAP5 SWAP4 SWAP3 SWAP2 SWAP1 PUSH2 0x453B JUMP JUMPDEST PUSH2 0x1FD PUSH2 0x351 CALLDATASIZE PUSH1 0x4 PUSH2 0x46C5 JUMP JUMPDEST PUSH2 0xF11 JUMP JUMPDEST PUSH2 0x1FD PUSH2 0x364 CALLDATASIZE PUSH1 0x4 PUSH2 0x4753 JUMP JUMPDEST PUSH2 0x100D JUMP JUMPDEST PUSH2 0x1FD PUSH2 0x109A JUMP JUMPDEST PUSH2 0x1FD PUSH2 0x37F CALLDATASIZE PUSH1 0x4 PUSH2 0x4770 JUMP JUMPDEST PUSH2 0x10AE JUMP JUMPDEST PUSH2 0x397 PUSH2 0x392 CALLDATASIZE PUSH1 0x4 PUSH2 0x4874 JUMP JUMPDEST PUSH2 0x11E9 JUMP JUMPDEST PUSH1 0x40 MLOAD PUSH2 0x226 SWAP2 SWAP1 PUSH2 0x4905 JUMP JUMPDEST PUSH1 0x3 SLOAD PUSH1 0x1 PUSH1 0x1 PUSH1 0xA0 SHL SUB AND PUSH2 0x212 JUMP JUMPDEST PUSH2 0x3C8 PUSH2 0x3C3 CALLDATASIZE PUSH1 0x4 PUSH2 0x4243 JUMP JUMPDEST PUSH2 0x156A JUMP JUMPDEST PUSH1 0x40 MLOAD PUSH2 0x226 SWAP14 SWAP13 SWAP12 SWAP11 SWAP10 SWAP9 SWAP8 SWAP7 SWAP6 SWAP5 SWAP4 SWAP3 SWAP2 SWAP1 PUSH2 0x4928 JUMP JUMPDEST PUSH2 0x292 PUSH2 0x3EF CALLDATASIZE PUSH1 0x4 PUSH2 0x49A4 JUMP JUMPDEST PUSH2 0x1665 JUMP JUMPDEST PUSH2 0x1FD PUSH2 0x402 CALLDATASIZE PUSH1 0x4 PUSH2 0x49ED JUMP JUMPDEST PUSH2 0x1690 JUMP JUMPDEST PUSH2 0x292 PUSH2 0x16CC JUMP JUMPDEST PUSH2 0x417 PUSH2 0x172F JUMP JUMPDEST PUSH1 0x40 MLOAD PUSH2 0x226 SWAP2 SWAP1 PUSH2 0x4A1B JUMP JUMPDEST PUSH2 0x397 PUSH2 0x17DD JUMP JUMPDEST PUSH2 0x417 PUSH2 0x43A CALLDATASIZE PUSH1 0x4 PUSH2 0x49A4 JUMP JUMPDEST PUSH2 0x1866 JUMP JUMPDEST PUSH2 0x417 PUSH2 0x18E2 JUMP JUMPDEST PUSH2 0x417 PUSH2 0x455 CALLDATASIZE PUSH1 0x4 PUSH2 0x49A4 JUMP JUMPDEST PUSH2 0x198E JUMP JUMPDEST PUSH2 0x1FD PUSH2 0x468 CALLDATASIZE PUSH1 0x4 PUSH2 0x4AEA JUMP JUMPDEST PUSH2 0x1A08 JUMP JUMPDEST PUSH2 0x480 PUSH2 0x47B CALLDATASIZE PUSH1 0x4 PUSH2 0x4243 JUMP JUMPDEST PUSH2 0x1DD2 JUMP JUMPDEST PUSH1 0x40 MLOAD PUSH2 0x226 SWAP2 SWAP1 PUSH2 0x4B79 JUMP JUMPDEST PUSH2 0x1FD PUSH2 0x49B CALLDATASIZE PUSH1 0x4 PUSH2 0x4753 JUMP JUMPDEST PUSH2 0x1F30 JUMP JUMPDEST PUSH2 0x4B3 PUSH2 0x4AE CALLDATASIZE PUSH1 0x4 PUSH2 0x4243 JUMP JUMPDEST PUSH2 0x1FBD JUMP JUMPDEST PUSH1 0x40 MLOAD PUSH2 0x226 SWAP2 SWAP1 PUSH2 0x4C21 JUMP JUMPDEST PUSH1 0x0 DUP2 GT PUSH2 0x515 JUMPI PUSH1 0x40 MLOAD PUSH3 0x461BCD PUSH1 0xE5 SHL DUP2 MSTORE PUSH1 0x20 PUSH1 0x4 DUP3 ADD MSTORE PUSH1 0x1D PUSH1 0x24 DUP3 ADD MSTORE PUSH32 0x616D6F756E74206D7573742062652067726561746572207468616E2030000000 PUSH1 0x44 DUP3 ADD MSTORE PUSH1 0x64 ADD JUMPDEST PUSH1 0x40 MLOAD DUP1 SWAP2 SUB SWAP1 REVERT JUMPDEST CALLER PUSH1 0x0 SWAP1 DUP2 MSTORE PUSH1 0xC PUSH1 0x20 MSTORE PUSH1 0x40 SWAP1 KECCAK256 SLOAD DUP2 GT ISZERO PUSH2 0x574 JUMPI PUSH1 0x40 MLOAD PUSH3 0x461BCD PUSH1 0xE5 SHL DUP2 MSTORE PUSH1 0x20 PUSH1 0x4 DUP3 ADD MSTORE PUSH1 0x14 PUSH1 0x24 DUP3 ADD MSTORE PUSH32 0x696E73756666696369656E742062616C616E6365000000000000000000000000 PUSH1 0x44 DUP3 ADD MSTORE PUSH1 0x64 ADD PUSH2 0x50C JUMP JUMPDEST CALLER PUSH1 0x0 SWAP1 DUP2 MSTORE PUSH1 0xC PUSH1 0x20 MSTORE PUSH1 0x40 DUP2 KECCAK256 DUP1 SLOAD DUP4 SWAP3 SWAP1 PUSH2 0x593 SWAP1 DUP5 SWAP1 PUSH2 0x4CAE JUMP JUMPDEST SWAP1 SWAP2 SSTORE POP POP PUSH1 0x4 SLOAD PUSH2 0x5AF SWAP1 PUSH1 0x1 PUSH1 0x1 PUSH1 0xA0 SHL SUB AND CALLER DUP4 PUSH2 0x219A JUMP JUMPDEST POP JUMP JUMPDEST PUSH2 0x5BA PUSH2 0x2243 JUMP JUMPDEST PUSH1 0x8 SLOAD DUP2 LT PUSH2 0x60B JUMPI PUSH1 0x40 MLOAD PUSH3 0x461BCD PUSH1 0xE5 SHL DUP2 MSTORE PUSH1 0x20 PUSH1 0x4 DUP3 ADD MSTORE PUSH1 0x13 PUSH1 0x24 DUP3 ADD MSTORE PUSH32 0x696E76616C69642062657420736C697020696400000000000000000000000000 PUSH1 0x44 DUP3 ADD MSTORE PUSH1 0x64 ADD PUSH2 0x50C JUMP JUMPDEST PUSH1 0x2 PUSH1 0x8 DUP3 DUP2 SLOAD DUP2 LT PUSH2 0x620 JUMPI PUSH2 0x620 PUSH2 0x4CC1 JUMP JUMPDEST PUSH1 0x0 SWAP2 DUP3 MSTORE PUSH1 0x20 SWAP1 SWAP2 KECCAK256 PUSH1 0x4 PUSH1 0x9 SWAP1 SWAP3 MUL ADD ADD SLOAD PUSH1 0xFF AND PUSH1 0x5 DUP2 GT ISZERO PUSH2 0x648 JUMPI PUSH2 0x648 PUSH2 0x431B JUMP JUMPDEST EQ PUSH2 0x6BA JUMPI PUSH1 0x40 MLOAD PUSH3 0x461BCD PUSH1 0xE5 SHL DUP2 MSTORE PUSH1 0x20 PUSH1 0x4 DUP3 ADD MSTORE PUSH1 0x24 DUP1 DUP3 ADD MSTORE PUSH32 0x63616E6E6F742063616E63656C206120626574207468617473206E6F7420706C PUSH1 0x44 DUP3 ADD MSTORE PUSH32 0x6163656400000000000000000000000000000000000000000000000000000000 PUSH1 0x64 DUP3 ADD MSTORE PUSH1 0x84 ADD PUSH2 0x50C JUMP JUMPDEST PUSH1 0x3 PUSH1 0x8 DUP3 DUP2 SLOAD DUP2 LT PUSH2 0x6CF JUMPI PUSH2 0x6CF PUSH2 0x4CC1 JUMP JUMPDEST PUSH1 0x0 SWAP2 DUP3 MSTORE PUSH1 0x20 SWAP1 SWAP2 KECCAK256 PUSH1 0x4 PUSH1 0x9 SWAP1 SWAP3 MUL ADD ADD DUP1 SLOAD PUSH1 0xFF NOT AND PUSH1 0x1 DUP4 PUSH1 0x5 DUP2 GT ISZERO PUSH2 0x6FC JUMPI PUSH2 0x6FC PUSH2 0x431B JUMP JUMPDEST MUL OR SWAP1 SSTORE POP PUSH1 0x40 MLOAD DUP2 SWAP1 PUSH32 0x81EB4691B662C46A6DEC13291164C2BEC8B699C7596E4AB3D8F23CE019436470 SWAP1 PUSH1 0x0 SWAP1 LOG2 POP JUMP JUMPDEST PUSH2 0x737 PUSH2 0x2243 JUMP JUMPDEST PUSH1 0x0 DUP3 PUSH1 0x7 DUP2 GT ISZERO PUSH2 0x74B JUMPI PUSH2 0x74B PUSH2 0x431B JUMP JUMPDEST EQ ISZERO DUP1 ISZERO PUSH2 0x76B JUMPI POP PUSH1 0x3 DUP3 PUSH1 0x7 DUP2 GT ISZERO PUSH2 0x768 JUMPI PUSH2 0x768 PUSH2 0x431B JUMP JUMPDEST EQ ISZERO JUMPDEST PUSH2 0x7B7 JUMPI PUSH1 0x40 MLOAD PUSH3 0x461BCD PUSH1 0xE5 SHL DUP2 MSTORE PUSH1 0x20 PUSH1 0x4 DUP3 ADD MSTORE PUSH1 0x1E PUSH1 0x24 DUP3 ADD MSTORE PUSH32 0x6F7574636F6D652063616E6E6F74206265206E6F6E65206F7220736F6C640000 PUSH1 0x44 DUP3 ADD MSTORE PUSH1 0x64 ADD PUSH2 0x50C JUMP JUMPDEST PUSH1 0x1 PUSH1 0x0 DUP5 DUP2 MSTORE PUSH1 0xD PUSH1 0x20 MSTORE PUSH1 0x40 SWAP1 KECCAK256 PUSH1 0xB ADD SLOAD PUSH1 0xFF AND PUSH1 0x7 DUP2 GT ISZERO PUSH2 0x7DF JUMPI PUSH2 0x7DF PUSH2 0x431B JUMP JUMPDEST EQ PUSH2 0x82C JUMPI PUSH1 0x40 MLOAD PUSH3 0x461BCD PUSH1 0xE5 SHL DUP2 MSTORE PUSH1 0x20 PUSH1 0x4 DUP3 ADD MSTORE PUSH1 0x1A PUSH1 0x24 DUP3 ADD MSTORE PUSH32 0x696E76616C6964206F7574636F6D65207472616E736974696F6E000000000000 PUSH1 0x44 DUP3 ADD MSTORE PUSH1 0x64 ADD PUSH2 0x50C JUMP JUMPDEST PUSH1 0x5 SLOAD PUSH1 0x58 SHL PUSH11 0xFFFFFFFFFFFFFFFFFFFFFF NOT AND ISZERO PUSH2 0x854 JUMPI PUSH1 0x5 SLOAD PUSH2 0x854 SWAP1 PUSH1 0x58 SHL PUSH2 0x229D JUMP JUMPDEST PUSH1 0x0 DUP4 DUP2 MSTORE PUSH1 0xD PUSH1 0x20 MSTORE PUSH1 0x40 SWAP1 KECCAK256 PUSH1 0xB ADD DUP1 SLOAD DUP4 SWAP2 SWAP1 PUSH1 0xFF NOT AND PUSH1 0x1 DUP4 PUSH1 0x7 DUP2 GT ISZERO PUSH2 0x882 JUMPI PUSH2 0x882 PUSH2 0x431B JUMP JUMPDEST MUL OR SWAP1 SSTORE POP PUSH1 0x0 DUP1 PUSH1 0x0 PUSH2 0x896 DUP7 DUP6 PUSH2 0x23DC JUMP JUMPDEST SWAP3 POP SWAP3 POP SWAP3 POP PUSH2 0x8A7 DUP4 DUP4 DUP4 PUSH2 0x24A4 JUMP JUMPDEST POP POP POP POP POP POP JUMP JUMPDEST PUSH1 0xB PUSH1 0x20 MSTORE DUP2 PUSH1 0x0 MSTORE PUSH1 0x40 PUSH1 0x0 KECCAK256 DUP2 DUP2 SLOAD DUP2 LT PUSH2 0x8CB JUMPI PUSH1 0x0 DUP1 REVERT JUMPDEST SWAP1 PUSH1 0x0 MSTORE PUSH1 0x20 PUSH1 0x0 KECCAK256 ADD PUSH1 0x0 SWAP2 POP SWAP2 POP POP SLOAD DUP2 JUMP JUMPDEST DUP1 PUSH1 0x8 DUP4 DUP2 SLOAD DUP2 LT PUSH2 0x8F4 JUMPI PUSH2 0x8F4 PUSH2 0x4CC1 JUMP JUMPDEST PUSH1 0x0 SWAP2 DUP3 MSTORE PUSH1 0x20 SWAP1 SWAP2 KECCAK256 PUSH1 0x4 PUSH1 0x9 SWAP1 SWAP3 MUL ADD ADD DUP1 SLOAD PUSH1 0xFF NOT AND PUSH1 0x1 DUP4 PUSH1 0x5 DUP2 GT ISZERO PUSH2 0x921 JUMPI PUSH2 0x921 PUSH2 0x431B JUMP JUMPDEST MUL OR SWAP1 SSTORE POP POP POP JUMP JUMPDEST PUSH1 0x7 DUP2 DUP2 SLOAD DUP2 LT PUSH2 0x93A JUMPI PUSH1 0x0 DUP1 REVERT JUMPDEST PUSH1 0x0 SWAP2 DUP3 MSTORE PUSH1 0x20 SWAP1 SWAP2 KECCAK256 PUSH1 0x6 SWAP1 SWAP2 MUL ADD DUP1 SLOAD PUSH1 0x1 DUP3 ADD SLOAD PUSH1 0x2 DUP4 ADD SLOAD PUSH1 0x3 DUP5 ADD DUP1 SLOAD SWAP4 SWAP6 POP SWAP2 SWAP4 PUSH1 0xFF SWAP1 SWAP2 AND SWAP3 SWAP1 SWAP2 SWAP1 PUSH2 0x973 SWAP1 PUSH2 0x4CD7 JUMP JUMPDEST DUP1 PUSH1 0x1F ADD PUSH1 0x20 DUP1 SWAP2 DIV MUL PUSH1 0x20 ADD PUSH1 0x40 MLOAD SWAP1 DUP2 ADD PUSH1 0x40 MSTORE DUP1 SWAP3 SWAP2 SWAP1 DUP2 DUP2 MSTORE PUSH1 0x20 ADD DUP3 DUP1 SLOAD PUSH2 0x99F SWAP1 PUSH2 0x4CD7 JUMP JUMPDEST DUP1 ISZERO PUSH2 0x9EC JUMPI DUP1 PUSH1 0x1F LT PUSH2 0x9C1 JUMPI PUSH2 0x100 DUP1 DUP4 SLOAD DIV MUL DUP4 MSTORE SWAP2 PUSH1 0x20 ADD SWAP2 PUSH2 0x9EC JUMP JUMPDEST DUP3 ADD SWAP2 SWAP1 PUSH1 0x0 MSTORE PUSH1 0x20 PUSH1 0x0 KECCAK256 SWAP1 JUMPDEST DUP2 SLOAD DUP2 MSTORE SWAP1 PUSH1 0x1 ADD SWAP1 PUSH1 0x20 ADD DUP1 DUP4 GT PUSH2 0x9CF JUMPI DUP3 SWAP1 SUB PUSH1 0x1F AND DUP3 ADD SWAP2 JUMPDEST POP POP POP POP POP SWAP1 DUP1 PUSH1 0x4 ADD DUP1 SLOAD PUSH2 0xA01 SWAP1 PUSH2 0x4CD7 JUMP JUMPDEST DUP1 PUSH1 0x1F ADD PUSH1 0x20 DUP1 SWAP2 DIV MUL PUSH1 0x20 ADD PUSH1 0x40 MLOAD SWAP1 DUP2 ADD PUSH1 0x40 MSTORE DUP1 SWAP3 SWAP2 SWAP1 DUP2 DUP2 MSTORE PUSH1 0x20 ADD DUP3 DUP1 SLOAD PUSH2 0xA2D SWAP1 PUSH2 0x4CD7 JUMP JUMPDEST DUP1 ISZERO PUSH2 0xA7A JUMPI DUP1 PUSH1 0x1F LT PUSH2 0xA4F JUMPI PUSH2 0x100 DUP1 DUP4 SLOAD DIV MUL DUP4 MSTORE SWAP2 PUSH1 0x20 ADD SWAP2 PUSH2 0xA7A JUMP JUMPDEST DUP3 ADD SWAP2 SWAP1 PUSH1 0x0 MSTORE PUSH1 0x20 PUSH1 0x0 KECCAK256 SWAP1 JUMPDEST DUP2 SLOAD DUP2 MSTORE SWAP1 PUSH1 0x1 ADD SWAP1 PUSH1 0x20 ADD DUP1 DUP4 GT PUSH2 0xA5D JUMPI DUP3 SWAP1 SUB PUSH1 0x1F AND DUP3 ADD SWAP2 JUMPDEST POP POP POP PUSH1 0x5 SWAP1 SWAP4 ADD SLOAD SWAP2 SWAP3 POP POP PUSH1 0xFF AND DUP7 JUMP JUMPDEST PUSH2 0xA95 PUSH2 0x2243 JUMP JUMPDEST PUSH1 0x5 SLOAD PUSH1 0x58 SHL PUSH11 0xFFFFFFFFFFFFFFFFFFFFFF NOT AND ISZERO PUSH2 0xABD JUMPI PUSH1 0x5 SLOAD PUSH2 0xABD SWAP1 PUSH1 0x58 SHL PUSH2 0x229D JUMP JUMPDEST PUSH1 0x0 DUP4 DUP2 MSTORE PUSH1 0xD PUSH1 0x20 MSTORE PUSH1 0x40 DUP2 KECCAK256 PUSH1 0xA ADD DUP1 SLOAD DUP5 SWAP3 SWAP1 PUSH2 0xADE SWAP1 DUP5 SWAP1 PUSH2 0x4D0B JUMP JUMPDEST SWAP1 SWAP2 SSTORE POP POP PUSH1 0x0 DUP4 DUP2 MSTORE PUSH1 0xD PUSH1 0x20 MSTORE PUSH1 0x40 SWAP1 KECCAK256 PUSH1 0xA DUP2 ADD SLOAD PUSH1 0x9 SWAP1 SWAP2 ADD SLOAD LT ISZERO PUSH2 0xB70 JUMPI PUSH1 0x40 MLOAD PUSH3 0x461BCD PUSH1 0xE5 SHL DUP2 MSTORE PUSH1 0x20 PUSH1 0x4 DUP3 ADD MSTORE PUSH1 0x23 PUSH1 0x24 DUP3 ADD MSTORE PUSH32 0x63616E6E6F742073656C6C206D6F726520736861726573207468616E20626F75 PUSH1 0x44 DUP3 ADD MSTORE PUSH32 0x6768740000000000000000000000000000000000000000000000000000000000 PUSH1 0x64 DUP3 ADD MSTORE PUSH1 0x84 ADD PUSH2 0x50C JUMP JUMPDEST PUSH1 0x0 DUP4 DUP2 MSTORE PUSH1 0xD PUSH1 0x20 MSTORE PUSH1 0x40 SWAP1 KECCAK256 PUSH1 0xA DUP2 ADD SLOAD PUSH1 0x9 SWAP1 SWAP2 ADD SLOAD SUB PUSH2 0xBB6 JUMPI PUSH1 0x0 DUP4 DUP2 MSTORE PUSH1 0xD PUSH1 0x20 MSTORE PUSH1 0x40 DUP2 KECCAK256 PUSH1 0xB ADD DUP1 SLOAD PUSH1 0xFF NOT AND PUSH1 0x3 OR SWAP1 SSTORE DUP1 DUP1 PUSH2 0x896 DUP7 DUP6 PUSH2 0x23DC JUMP JUMPDEST PUSH2 0x8A7 DUP4 DUP3 PUSH2 0x23DC JUMP JUMPDEST POP POP POP JUMP JUMPDEST PUSH1 0xA PUSH1 0x20 MSTORE DUP2 PUSH1 0x0 MSTORE PUSH1 0x40 PUSH1 0x0 KECCAK256 DUP2 DUP2 SLOAD DUP2 LT PUSH2 0x8CB JUMPI PUSH1 0x0 DUP1 REVERT JUMPDEST PUSH2 0xBE9 PUSH2 0x40A4 JUMP JUMPDEST PUSH1 0x8 DUP3 DUP2 SLOAD DUP2 LT PUSH2 0xBFC JUMPI PUSH2 0xBFC PUSH2 0x4CC1 JUMP JUMPDEST PUSH1 0x0 SWAP2 DUP3 MSTORE PUSH1 0x20 SWAP1 SWAP2 KECCAK256 PUSH1 0x40 DUP1 MLOAD PUSH2 0x120 DUP2 ADD SWAP1 SWAP2 MSTORE PUSH1 0x9 SWAP1 SWAP3 MUL ADD DUP1 SLOAD DUP3 SWAP1 PUSH1 0xFF AND PUSH1 0x1 DUP2 GT ISZERO PUSH2 0xC30 JUMPI PUSH2 0xC30 PUSH2 0x431B JUMP JUMPDEST PUSH1 0x1 DUP2 GT ISZERO PUSH2 0xC41 JUMPI PUSH2 0xC41 PUSH2 0x431B JUMP JUMPDEST DUP2 MSTORE PUSH1 0x1 DUP3 ADD SLOAD PUSH1 0x20 DUP3 ADD MSTORE PUSH1 0x2 DUP3 ADD SLOAD PUSH1 0x40 DUP3 ADD MSTORE PUSH1 0x3 DUP3 ADD SLOAD PUSH1 0x60 DUP3 ADD MSTORE PUSH1 0x4 DUP3 ADD SLOAD PUSH1 0x80 SWAP1 SWAP2 ADD SWAP1 PUSH1 0xFF AND PUSH1 0x5 DUP2 GT ISZERO PUSH2 0xC80 JUMPI PUSH2 0xC80 PUSH2 0x431B JUMP JUMPDEST PUSH1 0x5 DUP2 GT ISZERO PUSH2 0xC91 JUMPI PUSH2 0xC91 PUSH2 0x431B JUMP JUMPDEST DUP2 MSTORE PUSH1 0x20 ADD PUSH1 0x5 DUP3 ADD DUP1 SLOAD PUSH2 0xCA5 SWAP1 PUSH2 0x4CD7 JUMP JUMPDEST DUP1 PUSH1 0x1F ADD PUSH1 0x20 DUP1 SWAP2 DIV MUL PUSH1 0x20 ADD PUSH1 0x40 MLOAD SWAP1 DUP2 ADD PUSH1 0x40 MSTORE DUP1 SWAP3 SWAP2 SWAP1 DUP2 DUP2 MSTORE PUSH1 0x20 ADD DUP3 DUP1 SLOAD PUSH2 0xCD1 SWAP1 PUSH2 0x4CD7 JUMP JUMPDEST DUP1 ISZERO PUSH2 0xD1E JUMPI DUP1 PUSH1 0x1F LT PUSH2 0xCF3 JUMPI PUSH2 0x100 DUP1 DUP4 SLOAD DIV MUL DUP4 MSTORE SWAP2 PUSH1 0x20 ADD SWAP2 PUSH2 0xD1E JUMP JUMPDEST DUP3 ADD SWAP2 SWAP1 PUSH1 0x0 MSTORE PUSH1 0x20 PUSH1 0x0 KECCAK256 SWAP1 JUMPDEST DUP2 SLOAD DUP2 MSTORE SWAP1 PUSH1 0x1 ADD SWAP1 PUSH1 0x20 ADD DUP1 DUP4 GT PUSH2 0xD01 JUMPI DUP3 SWAP1 SUB PUSH1 0x1F AND DUP3 ADD SWAP2 JUMPDEST POP POP POP POP POP DUP2 MSTORE PUSH1 0x20 ADD PUSH1 0x6 DUP3 ADD DUP1 SLOAD DUP1 PUSH1 0x20 MUL PUSH1 0x20 ADD PUSH1 0x40 MLOAD SWAP1 DUP2 ADD PUSH1 0x40 MSTORE DUP1 SWAP3 SWAP2 SWAP1 DUP2 DUP2 MSTORE PUSH1 0x20 ADD DUP3 DUP1 SLOAD DUP1 ISZERO PUSH2 0xD76 JUMPI PUSH1 0x20 MUL DUP3 ADD SWAP2 SWAP1 PUSH1 0x0 MSTORE PUSH1 0x20 PUSH1 0x0 KECCAK256 SWAP1 JUMPDEST DUP2 SLOAD DUP2 MSTORE PUSH1 0x20 ADD SWAP1 PUSH1 0x1 ADD SWAP1 DUP1 DUP4 GT PUSH2 0xD62 JUMPI JUMPDEST POP POP POP POP POP DUP2 MSTORE PUSH1 0x20 ADD PUSH1 0x7 DUP3 ADD DUP1 SLOAD DUP1 PUSH1 0x20 MUL PUSH1 0x20 ADD PUSH1 0x40 MLOAD SWAP1 DUP2 ADD PUSH1 0x40 MSTORE DUP1 SWAP3 SWAP2 SWAP1 DUP2 DUP2 MSTORE PUSH1 0x20 ADD DUP3 DUP1 SLOAD DUP1 ISZERO PUSH2 0xDCE JUMPI PUSH1 0x20 MUL DUP3 ADD SWAP2 SWAP1 PUSH1 0x0 MSTORE PUSH1 0x20 PUSH1 0x0 KECCAK256 SWAP1 JUMPDEST DUP2 SLOAD DUP2 MSTORE PUSH1 0x20 ADD SWAP1 PUSH1 0x1 ADD SWAP1 DUP1 DUP4 GT PUSH2 0xDBA JUMPI JUMPDEST POP POP POP POP POP DUP2 MSTORE PUSH1 0x20 ADD PUSH1 0x8 DUP3 ADD DUP1 SLOAD DUP1 PUSH1 0x20 MUL PUSH1 0x20 ADD PUSH1 0x40 MLOAD SWAP1 DUP2 ADD PUSH1 0x40 MSTORE DUP1 SWAP3 SWAP2 SWAP1 DUP2 DUP2 MSTORE PUSH1 0x20 ADD DUP3 DUP1 SLOAD DUP1 ISZERO PUSH2 0xE26 JUMPI PUSH1 0x20 MUL DUP3 ADD SWAP2 SWAP1 PUSH1 0x0 MSTORE PUSH1 0x20 PUSH1 0x0 KECCAK256 SWAP1 JUMPDEST DUP2 SLOAD DUP2 MSTORE PUSH1 0x20 ADD SWAP1 PUSH1 0x1 ADD SWAP1 DUP1 DUP4 GT PUSH2 0xE12 JUMPI JUMPDEST POP POP POP POP POP DUP2 MSTORE POP POP SWAP1 POP SWAP2 SWAP1 POP JUMP JUMPDEST PUSH1 0x8 DUP2 DUP2 SLOAD DUP2 LT PUSH2 0xE46 JUMPI PUSH1 0x0 DUP1 REVERT JUMPDEST PUSH1 0x0 SWAP2 DUP3 MSTORE PUSH1 0x20 SWAP1 SWAP2 KECCAK256 PUSH1 0x9 SWAP1 SWAP2 MUL ADD DUP1 SLOAD PUSH1 0x1 DUP3 ADD SLOAD PUSH1 0x2 DUP4 ADD SLOAD PUSH1 0x3 DUP5 ADD SLOAD PUSH1 0x4 DUP6 ADD SLOAD PUSH1 0x5 DUP7 ADD DUP1 SLOAD PUSH1 0xFF SWAP7 DUP8 AND SWAP9 POP SWAP5 SWAP7 SWAP4 SWAP6 SWAP3 SWAP5 SWAP3 SWAP1 SWAP2 AND SWAP3 SWAP2 PUSH2 0xE8E SWAP1 PUSH2 0x4CD7 JUMP JUMPDEST DUP1 PUSH1 0x1F ADD PUSH1 0x20 DUP1 SWAP2 DIV MUL PUSH1 0x20 ADD PUSH1 0x40 MLOAD SWAP1 DUP2 ADD PUSH1 0x40 MSTORE DUP1 SWAP3 SWAP2 SWAP1 DUP2 DUP2 MSTORE PUSH1 0x20 ADD DUP3 DUP1 SLOAD PUSH2 0xEBA SWAP1 PUSH2 0x4CD7 JUMP JUMPDEST DUP1 ISZERO PUSH2 0xF07 JUMPI DUP1 PUSH1 0x1F LT PUSH2 0xEDC JUMPI PUSH2 0x100 DUP1 DUP4 SLOAD DIV MUL DUP4 MSTORE SWAP2 PUSH1 0x20 ADD SWAP2 PUSH2 0xF07 JUMP JUMPDEST DUP3 ADD SWAP2 SWAP1 PUSH1 0x0 MSTORE PUSH1 0x20 PUSH1 0x0 KECCAK256 SWAP1 JUMPDEST DUP2 SLOAD DUP2 MSTORE SWAP1 PUSH1 0x1 ADD SWAP1 PUSH1 0x20 ADD DUP1 DUP4 GT PUSH2 0xEEA JUMPI DUP3 SWAP1 SUB PUSH1 0x1F AND DUP3 ADD SWAP2 JUMPDEST POP POP POP POP POP SWAP1 POP DUP7 JUMP JUMPDEST PUSH1 0x7 PUSH1 0x40 MLOAD DUP1 PUSH1 0xC0 ADD PUSH1 0x40 MSTORE DUP1 PUSH1 0x0 DUP2 MSTORE PUSH1 0x20 ADD DUP7 PUSH8 0xFFFFFFFFFFFFFFFF AND DUP2 MSTORE PUSH1 0x20 ADD DUP6 PUSH1 0x1 DUP2 GT ISZERO PUSH2 0xF47 JUMPI PUSH2 0xF47 PUSH2 0x431B JUMP JUMPDEST DUP2 MSTORE PUSH1 0x20 DUP2 ADD DUP6 SWAP1 MSTORE PUSH1 0x40 DUP2 ADD DUP5 SWAP1 MSTORE PUSH1 0x60 ADD PUSH1 0x2 SWAP1 MSTORE DUP2 SLOAD PUSH1 0x1 DUP2 DUP2 ADD DUP5 SSTORE PUSH1 0x0 SWAP4 DUP5 MSTORE PUSH1 0x20 SWAP4 DUP5 SWAP1 KECCAK256 DUP4 MLOAD PUSH1 0x6 SWAP1 SWAP4 MUL ADD SWAP2 DUP3 SSTORE SWAP3 DUP3 ADD MLOAD DUP2 DUP5 ADD SSTORE PUSH1 0x40 DUP3 ADD MLOAD PUSH1 0x2 DUP3 ADD DUP1 SLOAD SWAP4 SWAP5 SWAP3 SWAP4 SWAP2 SWAP3 SWAP1 SWAP2 PUSH1 0xFF NOT AND SWAP1 DUP4 DUP2 DUP2 GT ISZERO PUSH2 0xFAE JUMPI PUSH2 0xFAE PUSH2 0x431B JUMP JUMPDEST MUL OR SWAP1 SSTORE POP PUSH1 0x60 DUP3 ADD MLOAD PUSH1 0x3 DUP3 ADD SWAP1 PUSH2 0xFC7 SWAP1 DUP3 PUSH2 0x4D65 JUMP JUMPDEST POP PUSH1 0x80 DUP3 ADD MLOAD PUSH1 0x4 DUP3 ADD SWAP1 PUSH2 0xFDC SWAP1 DUP3 PUSH2 0x4D65 JUMP JUMPDEST POP PUSH1 0xA0 DUP3 ADD MLOAD PUSH1 0x5 DUP3 ADD DUP1 SLOAD PUSH1 0xFF NOT AND PUSH1 0x1 DUP4 PUSH1 0x2 DUP2 GT ISZERO PUSH2 0x1000 JUMPI PUSH2 0x1000 PUSH2 0x431B JUMP JUMPDEST MUL OR SWAP1 SSTORE POP POP POP POP POP POP POP JUMP JUMPDEST PUSH2 0x1015 PUSH2 0x2243 JUMP JUMPDEST PUSH1 0x1 PUSH1 0x1 PUSH1 0xA0 SHL SUB DUP2 AND PUSH2 0x106B JUMPI PUSH1 0x40 MLOAD PUSH3 0x461BCD PUSH1 0xE5 SHL DUP2 MSTORE PUSH1 0x20 PUSH1 0x4 DUP3 ADD MSTORE PUSH1 0x1B PUSH1 0x24 DUP3 ADD MSTORE PUSH32 0x696E76616C6964204D5553444320746F6B656E20616464726573730000000000 PUSH1 0x44 DUP3 ADD MSTORE PUSH1 0x64 ADD PUSH2 0x50C JUMP JUMPDEST PUSH1 0x4 DUP1 SLOAD PUSH20 0xFFFFFFFFFFFFFFFFFFFFFFFFFFFFFFFFFFFFFFFF NOT AND PUSH1 0x1 PUSH1 0x1 PUSH1 0xA0 SHL SUB SWAP3 SWAP1 SWAP3 AND SWAP2 SWAP1 SWAP2 OR SWAP1 SSTORE JUMP JUMPDEST PUSH2 0x10A2 PUSH2 0x2243 JUMP JUMPDEST PUSH2 0x10AC PUSH1 0x0 PUSH2 0x25FD JUMP JUMPDEST JUMP JUMPDEST PUSH2 0x10B6 PUSH2 0x2243 JUMP JUMPDEST PUSH1 0x5 SLOAD PUSH1 0x58 SHL PUSH11 0xFFFFFFFFFFFFFFFFFFFFFF NOT AND ISZERO PUSH2 0x10DE JUMPI PUSH1 0x5 SLOAD PUSH2 0x10DE SWAP1 PUSH1 0x58 SHL PUSH2 0x229D JUMP JUMPDEST PUSH1 0x8 DUP3 DUP2 SLOAD DUP2 LT PUSH2 0x10F1 JUMPI PUSH2 0x10F1 PUSH2 0x4CC1 JUMP JUMPDEST PUSH1 0x0 SWAP2 DUP3 MSTORE PUSH1 0x20 DUP1 DUP4 KECCAK256 DUP5 MLOAD PUSH1 0x8 PUSH1 0x9 SWAP5 DUP6 MUL SWAP1 SWAP3 ADD DUP3 ADD DUP1 SLOAD PUSH1 0x1 DUP2 DUP2 ADD DUP4 SSTORE SWAP2 DUP8 MSTORE DUP5 DUP8 KECCAK256 ADD SWAP2 SWAP1 SWAP2 SSTORE DUP6 MLOAD DUP6 MSTORE PUSH1 0xD DUP4 MSTORE PUSH1 0x40 SWAP5 DUP6 SWAP1 KECCAK256 DUP7 MLOAD DUP2 SSTORE SWAP3 DUP7 ADD MLOAD DUP4 DUP3 ADD SSTORE SWAP4 DUP6 ADD MLOAD PUSH1 0x2 DUP4 ADD SSTORE PUSH1 0x60 DUP6 ADD MLOAD PUSH1 0x3 DUP4 ADD SSTORE PUSH1 0x80 DUP6 ADD MLOAD PUSH1 0x4 DUP4 ADD SSTORE PUSH1 0xA0 DUP6 ADD MLOAD PUSH1 0x5 DUP4 ADD SSTORE PUSH1 0xC0 DUP6 ADD MLOAD PUSH1 0x6 DUP4 ADD SSTORE PUSH1 0xE0 DUP6 ADD MLOAD PUSH1 0x7 DUP1 DUP5 ADD SWAP2 SWAP1 SWAP2 SSTORE PUSH2 0x100 DUP7 ADD MLOAD SWAP2 DUP4 ADD SWAP2 SWAP1 SWAP2 SSTORE PUSH2 0x120 DUP6 ADD MLOAD SWAP3 DUP3 ADD SWAP3 SWAP1 SWAP3 SSTORE PUSH2 0x140 DUP5 ADD MLOAD PUSH1 0xA DUP3 ADD SSTORE PUSH2 0x160 DUP5 ADD MLOAD PUSH1 0xB DUP3 ADD DUP1 SLOAD DUP7 SWAP6 SWAP4 SWAP5 SWAP3 SWAP4 SWAP2 SWAP3 PUSH1 0xFF NOT SWAP1 SWAP2 AND SWAP2 SWAP1 DUP5 SWAP1 DUP2 GT ISZERO PUSH2 0x11C8 JUMPI PUSH2 0x11C8 PUSH2 0x431B JUMP JUMPDEST MUL OR SWAP1 SSTORE POP PUSH2 0x180 DUP3 ADD MLOAD PUSH1 0xC DUP3 ADD SWAP1 PUSH2 0x11E2 SWAP1 DUP3 PUSH2 0x4D65 JUMP JUMPDEST POP POP POP POP POP JUMP JUMPDEST PUSH1 0x60 PUSH2 0x1226 PUSH1 0x40 MLOAD DUP1 PUSH1 0xA0 ADD PUSH1 0x40 MSTORE DUP1 PUSH1 0x60 DUP2 MSTORE PUSH1 0x20 ADD PUSH1 0x0 PUSH1 0x1 PUSH1 0x1 PUSH1 0xA0 SHL SUB AND DUP2 MSTORE PUSH1 0x20 ADD PUSH1 0x0 DUP2 MSTORE PUSH1 0x20 ADD PUSH1 0x60 DUP2 MSTORE PUSH1 0x20 ADD PUSH1 0x60 DUP2 MSTORE POP SWAP1 JUMP JUMPDEST PUSH1 0x0 PUSH2 0x1231 DUP6 PUSH2 0x265C JUMP JUMPDEST DUP7 DUP7 PUSH1 0x40 MLOAD PUSH1 0x20 ADD PUSH2 0x1245 SWAP4 SWAP3 SWAP2 SWAP1 PUSH2 0x4E24 JUMP JUMPDEST PUSH1 0x40 DUP1 MLOAD PUSH1 0x1F NOT DUP2 DUP5 SUB ADD DUP2 MSTORE DUP3 DUP3 MSTORE DUP1 MLOAD PUSH1 0x20 DUP1 DUP4 ADD SWAP2 SWAP1 SWAP2 KECCAK256 PUSH1 0x0 DUP1 DUP7 MSTORE DUP6 DUP4 ADD DUP1 DUP7 MSTORE SWAP2 SWAP1 SWAP2 MSTORE PUSH1 0xFF DUP10 DUP6 ADD CALLDATALOAD AND SWAP4 DUP6 ADD SWAP4 SWAP1 SWAP4 MSTORE DUP8 CALLDATALOAD PUSH1 0x60 DUP6 ADD MSTORE DUP8 ADD CALLDATALOAD PUSH1 0x80 DUP5 ADD MSTORE SWAP3 POP SWAP1 PUSH1 0x1 SWAP1 PUSH1 0xA0 ADD PUSH1 0x20 PUSH1 0x40 MLOAD PUSH1 0x20 DUP2 SUB SWAP1 DUP1 DUP5 SUB SWAP1 DUP6 GAS STATICCALL ISZERO DUP1 ISZERO PUSH2 0x12B7 JUMPI RETURNDATASIZE PUSH1 0x0 DUP1 RETURNDATACOPY RETURNDATASIZE PUSH1 0x0 REVERT JUMPDEST POP POP PUSH1 0x40 MLOAD PUSH1 0x1F NOT ADD MLOAD PUSH1 0x1 PUSH1 0x1 PUSH1 0xA0 SHL SUB DUP2 AND PUSH1 0x20 DUP7 ADD MSTORE SWAP2 POP PUSH1 0x0 SWAP1 POP PUSH2 0x12E0 DUP9 DUP9 PUSH2 0x26FD JUMP JUMPDEST SWAP1 POP CHAINID DUP2 PUSH1 0xA0 ADD MLOAD EQ PUSH2 0x131F JUMPI PUSH1 0x40 MLOAD PUSH32 0x362C833700000000000000000000000000000000000000000000000000000000 DUP2 MSTORE PUSH1 0x4 ADD PUSH1 0x40 MLOAD DUP1 SWAP2 SUB SWAP1 REVERT JUMPDEST PUSH1 0x1 PUSH1 0x40 MLOAD PUSH2 0x132E SWAP2 SWAP1 PUSH2 0x4E78 JUMP JUMPDEST PUSH1 0x40 MLOAD DUP1 SWAP2 SUB SWAP1 KECCAK256 DUP2 PUSH1 0x0 ADD MLOAD DUP1 MLOAD SWAP1 PUSH1 0x20 ADD KECCAK256 EQ PUSH2 0x1360 JUMPI PUSH1 0x40 MLOAD PUSH4 0x283D62BD PUSH1 0xE0 SHL DUP2 MSTORE PUSH1 0x4 ADD PUSH1 0x40 MLOAD DUP1 SWAP2 SUB SWAP1 REVERT JUMPDEST DUP1 MLOAD DUP5 MSTORE PUSH1 0x20 DUP2 ADD MLOAD PUSH1 0x1 PUSH1 0x1 PUSH1 0xA0 SHL SUB DUP4 DUP2 AND SWAP2 AND EQ PUSH2 0x13AD JUMPI PUSH1 0x40 MLOAD PUSH32 0x5CC02E100000000000000000000000000000000000000000000000000000000 DUP2 MSTORE PUSH1 0x4 ADD PUSH1 0x40 MLOAD DUP1 SWAP2 SUB SWAP1 REVERT JUMPDEST PUSH2 0x120 DUP2 ADD MLOAD MLOAD ISZERO DUP1 ISZERO SWAP1 PUSH2 0x13CF JUMPI POP PUSH2 0x13CB DUP2 PUSH2 0x120 ADD MLOAD PUSH2 0x2CEE JUMP JUMPDEST TIMESTAMP GT ISZERO JUMPDEST ISZERO PUSH2 0x1406 JUMPI PUSH1 0x40 MLOAD PUSH32 0x299D02F100000000000000000000000000000000000000000000000000000000 DUP2 MSTORE PUSH1 0x4 ADD PUSH1 0x40 MLOAD DUP1 SWAP2 SUB SWAP1 REVERT JUMPDEST PUSH2 0x100 DUP2 ADD MLOAD MLOAD ISZERO PUSH2 0x142D JUMPI PUSH1 0x0 PUSH2 0x1422 DUP3 PUSH2 0x100 ADD MLOAD PUSH2 0x2CEE JUMP JUMPDEST PUSH1 0x40 DUP7 ADD MSTORE POP PUSH2 0x1440 JUMP JUMPDEST PUSH2 0x143A PUSH3 0x15180 TIMESTAMP PUSH2 0x4D0B JUMP JUMPDEST PUSH1 0x40 DUP6 ADD MSTORE JUMPDEST DUP4 PUSH1 0x40 ADD MLOAD TIMESTAMP LT PUSH2 0x1464 JUMPI PUSH1 0x40 MLOAD PUSH4 0xB171155 PUSH1 0xE4 SHL DUP2 MSTORE PUSH1 0x4 ADD PUSH1 0x40 MLOAD DUP1 SWAP2 SUB SWAP1 REVERT JUMPDEST PUSH1 0x40 DUP2 ADD MLOAD PUSH1 0x60 DUP6 ADD MSTORE PUSH2 0x160 DUP2 ADD MLOAD MLOAD PUSH8 0xFFFFFFFFFFFFFFFF DUP2 GT ISZERO PUSH2 0x148D JUMPI PUSH2 0x148D PUSH2 0x45AB JUMP JUMPDEST PUSH1 0x40 MLOAD SWAP1 DUP1 DUP3 MSTORE DUP1 PUSH1 0x20 MUL PUSH1 0x20 ADD DUP3 ADD PUSH1 0x40 MSTORE DUP1 ISZERO PUSH2 0x14C0 JUMPI DUP2 PUSH1 0x20 ADD JUMPDEST PUSH1 0x60 DUP2 MSTORE PUSH1 0x20 ADD SWAP1 PUSH1 0x1 SWAP1 SUB SWAP1 DUP2 PUSH2 0x14AB JUMPI SWAP1 POP JUMPDEST POP PUSH1 0x80 DUP6 ADD MSTORE PUSH1 0x0 JUMPDEST DUP2 PUSH2 0x160 ADD MLOAD MLOAD DUP2 LT ISZERO PUSH2 0x151F JUMPI DUP2 PUSH2 0x160 ADD MLOAD DUP2 DUP2 MLOAD DUP2 LT PUSH2 0x14EE JUMPI PUSH2 0x14EE PUSH2 0x4CC1 JUMP JUMPDEST PUSH1 0x20 MUL PUSH1 0x20 ADD ADD MLOAD DUP6 PUSH1 0x80 ADD MLOAD DUP3 DUP2 MLOAD DUP2 LT PUSH2 0x150C JUMPI PUSH2 0x150C PUSH2 0x4CC1 JUMP JUMPDEST PUSH1 0x20 SWAP1 DUP2 MUL SWAP2 SWAP1 SWAP2 ADD ADD MSTORE PUSH1 0x1 ADD PUSH2 0x14C9 JUMP JUMPDEST POP PUSH1 0x0 PUSH2 0x155B PUSH1 0x2 SLOAD PUSH1 0x0 DUP1 SHL DUP8 PUSH1 0x40 MLOAD PUSH1 0x20 ADD PUSH2 0x153D SWAP2 SWAP1 PUSH2 0x4EED JUMP JUMPDEST PUSH1 0x40 DUP1 MLOAD PUSH1 0x1F NOT DUP2 DUP5 SUB ADD DUP2 MSTORE PUSH1 0x20 DUP4 ADD SWAP1 SWAP2 MSTORE PUSH1 0x0 DUP3 MSTORE SWAP1 PUSH2 0x2D5D JUMP JUMPDEST SWAP6 POP POP POP POP POP POP JUMPDEST SWAP4 SWAP3 POP POP POP JUMP JUMPDEST PUSH1 0xD PUSH1 0x20 MSTORE DUP1 PUSH1 0x0 MSTORE PUSH1 0x40 PUSH1 0x0 KECCAK256 PUSH1 0x0 SWAP2 POP SWAP1 POP DUP1 PUSH1 0x0 ADD SLOAD SWAP1 DUP1 PUSH1 0x1 ADD SLOAD SWAP1 DUP1 PUSH1 0x2 ADD SLOAD SWAP1 DUP1 PUSH1 0x3 ADD SLOAD SWAP1 DUP1 PUSH1 0x4 ADD SLOAD SWAP1 DUP1 PUSH1 0x5 ADD SLOAD SWAP1 DUP1 PUSH1 0x6 ADD SLOAD SWAP1 DUP1 PUSH1 0x7 ADD SLOAD SWAP1 DUP1 PUSH1 0x8 ADD SLOAD SWAP1 DUP1 PUSH1 0x9 ADD SLOAD SWAP1 DUP1 PUSH1 0xA ADD SLOAD SWAP1 DUP1 PUSH1 0xB ADD PUSH1 0x0 SWAP1 SLOAD SWAP1 PUSH2 0x100 EXP SWAP1 DIV PUSH1 0xFF AND SWAP1 DUP1 PUSH1 0xC ADD DUP1 SLOAD PUSH2 0x15E2 SWAP1 PUSH2 0x4CD7 JUMP JUMPDEST DUP1 PUSH1 0x1F ADD PUSH1 0x20 DUP1 SWAP2 DIV MUL PUSH1 0x20 ADD PUSH1 0x40 MLOAD SWAP1 DUP2 ADD PUSH1 0x40 MSTORE DUP1 SWAP3 SWAP2 SWAP1 DUP2 DUP2 MSTORE PUSH1 0x20 ADD DUP3 DUP1 SLOAD PUSH2 0x160E SWAP1 PUSH2 0x4CD7 JUMP JUMPDEST DUP1 ISZERO PUSH2 0x165B JUMPI DUP1 PUSH1 0x1F LT PUSH2 0x1630 JUMPI PUSH2 0x100 DUP1 DUP4 SLOAD DIV MUL DUP4 MSTORE SWAP2 PUSH1 0x20 ADD SWAP2 PUSH2 0x165B JUMP JUMPDEST DUP3 ADD SWAP2 SWAP1 PUSH1 0x0 MSTORE PUSH1 0x20 PUSH1 0x0 KECCAK256 SWAP1 JUMPDEST DUP2 SLOAD DUP2 MSTORE SWAP1 PUSH1 0x1 ADD SWAP1 PUSH1 0x20 ADD DUP1 DUP4 GT PUSH2 0x163E JUMPI DUP3 SWAP1 SUB PUSH1 0x1F AND DUP3 ADD SWAP2 JUMPDEST POP POP POP POP POP SWAP1 POP DUP14 JUMP JUMPDEST PUSH1 0x0 DUP1 PUSH2 0x1671 DUP4 PUSH2 0x2E4F JUMP JUMPDEST PUSH1 0x1 PUSH1 0x1 PUSH1 0xA0 SHL SUB AND PUSH1 0x0 SWAP1 DUP2 MSTORE PUSH1 0xC PUSH1 0x20 MSTORE PUSH1 0x40 SWAP1 KECCAK256 SLOAD SWAP4 SWAP3 POP POP POP JUMP JUMPDEST PUSH2 0x1698 PUSH2 0x2243 JUMP JUMPDEST PUSH1 0x5 DUP1 SLOAD PUSH32 0xFFFFFFFFFFFFFFFFFFFFFF000000000000000000000000000000000000000000 AND PUSH1 0x58 SWAP3 SWAP1 SWAP3 SHR SWAP2 SWAP1 SWAP2 OR SWAP1 SSTORE JUMP JUMPDEST PUSH1 0x0 CALLER PUSH2 0x171B JUMPI PUSH1 0x40 MLOAD PUSH3 0x461BCD PUSH1 0xE5 SHL DUP2 MSTORE PUSH1 0x20 PUSH1 0x4 DUP3 ADD MSTORE PUSH1 0x17 PUSH1 0x24 DUP3 ADD MSTORE PUSH32 0x61757468656E7469636174696F6E207265717569726564000000000000000000 PUSH1 0x44 DUP3 ADD MSTORE PUSH1 0x64 ADD PUSH2 0x50C JUMP JUMPDEST POP CALLER PUSH1 0x0 SWAP1 DUP2 MSTORE PUSH1 0xC PUSH1 0x20 MSTORE PUSH1 0x40 SWAP1 KECCAK256 SLOAD SWAP1 JUMP JUMPDEST PUSH1 0x60 CALLER PUSH2 0x177E JUMPI PUSH1 0x40 MLOAD PUSH3 0x461BCD PUSH1 0xE5 SHL DUP2 MSTORE PUSH1 0x20 PUSH1 0x4 DUP3 ADD MSTORE PUSH1 0x17 PUSH1 0x24 DUP3 ADD MSTORE PUSH32 0x61757468656E7469636174696F6E207265717569726564000000000000000000 PUSH1 0x44 DUP3 ADD MSTORE PUSH1 0x64 ADD PUSH2 0x50C JUMP JUMPDEST CALLER PUSH1 0x0 SWAP1 DUP2 MSTORE PUSH1 0xA PUSH1 0x20 SWAP1 DUP2 MSTORE PUSH1 0x40 SWAP2 DUP3 SWAP1 KECCAK256 DUP1 SLOAD DUP4 MLOAD DUP2 DUP5 MUL DUP2 ADD DUP5 ADD SWAP1 SWAP5 MSTORE DUP1 DUP5 MSTORE SWAP1 SWAP2 DUP4 ADD DUP3 DUP3 DUP1 ISZERO PUSH2 0x17D3 JUMPI PUSH1 0x20 MUL DUP3 ADD SWAP2 SWAP1 PUSH1 0x0 MSTORE PUSH1 0x20 PUSH1 0x0 KECCAK256 SWAP1 JUMPDEST DUP2 SLOAD DUP2 MSTORE PUSH1 0x20 ADD SWAP1 PUSH1 0x1 ADD SWAP1 DUP1 DUP4 GT PUSH2 0x17BF JUMPI JUMPDEST POP POP POP POP POP SWAP1 POP SWAP1 JUMP JUMPDEST PUSH1 0x60 PUSH1 0x1 DUP1 SLOAD PUSH2 0x17EC SWAP1 PUSH2 0x4CD7 JUMP JUMPDEST DUP1 PUSH1 0x1F ADD PUSH1 0x20 DUP1 SWAP2 DIV MUL PUSH1 0x20 ADD PUSH1 0x40 MLOAD SWAP1 DUP2 ADD PUSH1 0x40 MSTORE DUP1 SWAP3 SWAP2 SWAP1 DUP2 DUP2 MSTORE PUSH1 0x20 ADD DUP3 DUP1 SLOAD PUSH2 0x1818 SWAP1 PUSH2 0x4CD7 JUMP JUMPDEST DUP1 ISZERO PUSH2 0x17D3 JUMPI DUP1 PUSH1 0x1F LT PUSH2 0x183A JUMPI PUSH2 0x100 DUP1 DUP4 SLOAD DIV MUL DUP4 MSTORE SWAP2 PUSH1 0x20 ADD SWAP2 PUSH2 0x17D3 JUMP JUMPDEST DUP3 ADD SWAP2 SWAP1 PUSH1 0x0 MSTORE PUSH1 0x20 PUSH1 0x0 KECCAK256 SWAP1 JUMPDEST DUP2 SLOAD DUP2 MSTORE SWAP1 PUSH1 0x1 ADD SWAP1 PUSH1 0x20 ADD DUP1 DUP4 GT PUSH2 0x1848 JUMPI POP SWAP4 SWAP6 SWAP5 POP POP POP POP POP JUMP JUMPDEST PUSH1 0x60 PUSH1 0x0 PUSH2 0x1873 DUP4 PUSH2 0x2E4F JUMP JUMPDEST PUSH1 0x1 PUSH1 0x1 PUSH1 0xA0 SHL SUB DUP2 AND PUSH1 0x0 SWAP1 DUP2 MSTORE PUSH1 0xB PUSH1 0x20 SWAP1 DUP2 MSTORE PUSH1 0x40 SWAP2 DUP3 SWAP1 KECCAK256 DUP1 SLOAD DUP4 MLOAD DUP2 DUP5 MUL DUP2 ADD DUP5 ADD SWAP1 SWAP5 MSTORE DUP1 DUP5 MSTORE SWAP4 SWAP5 POP SWAP2 SWAP3 SWAP1 DUP4 ADD DUP3 DUP3 DUP1 ISZERO PUSH2 0x18D5 JUMPI PUSH1 0x20 MUL DUP3 ADD SWAP2 SWAP1 PUSH1 0x0 MSTORE PUSH1 0x20 PUSH1 0x0 KECCAK256 SWAP1 JUMPDEST DUP2 SLOAD DUP2 MSTORE PUSH1 0x20 ADD SWAP1 PUSH1 0x1 ADD SWAP1 DUP1 DUP4 GT PUSH2 0x18C1 JUMPI JUMPDEST POP POP POP POP POP SWAP2 POP POP SWAP2 SWAP1 POP JUMP JUMPDEST PUSH1 0x60 CALLER PUSH2 0x1931 JUMPI PUSH1 0x40 MLOAD PUSH3 0x461BCD PUSH1 0xE5 SHL DUP2 MSTORE PUSH1 0x20 PUSH1 0x4 DUP3 ADD MSTORE PUSH1 0x17 PUSH1 0x24 DUP3 ADD MSTORE PUSH32 0x61757468656E7469636174696F6E207265717569726564000000000000000000 PUSH1 0x44 DUP3 ADD MSTORE PUSH1 0x64 ADD PUSH2 0x50C JUMP JUMPDEST CALLER PUSH1 0x0 SWAP1 DUP2 MSTORE PUSH1 0xB PUSH1 0x20 SWAP1 DUP2 MSTORE PUSH1 0x40 SWAP2 DUP3 SWAP1 KECCAK256 DUP1 SLOAD DUP4 MLOAD DUP2 DUP5 MUL DUP2 ADD DUP5 ADD SWAP1 SWAP5 MSTORE DUP1 DUP5 MSTORE SWAP1 SWAP2 DUP4 ADD DUP3 DUP3 DUP1 ISZERO PUSH2 0x17D3 JUMPI PUSH1 0x20 MUL DUP3 ADD SWAP2 SWAP1 PUSH1 0x0 MSTORE PUSH1 0x20 PUSH1 0x0 KECCAK256 SWAP1 DUP2 SLOAD DUP2 MSTORE PUSH1 0x20 ADD SWAP1 PUSH1 0x1 ADD SWAP1 DUP1 DUP4 GT PUSH2 0x17BF JUMPI POP POP POP POP POP SWAP1 POP SWAP1 JUMP JUMPDEST PUSH1 0x60 PUSH1 0x0 PUSH2 0x199B DUP4 PUSH2 0x2E4F JUMP JUMPDEST PUSH1 0x1 PUSH1 0x1 PUSH1 0xA0 SHL SUB DUP2 AND PUSH1 0x0 SWAP1 DUP2 MSTORE PUSH1 0xA PUSH1 0x20 SWAP1 DUP2 MSTORE PUSH1 0x40 SWAP2 DUP3 SWAP1 KECCAK256 DUP1 SLOAD DUP4 MLOAD DUP2 DUP5 MUL DUP2 ADD DUP5 ADD SWAP1 SWAP5 MSTORE DUP1 DUP5 MSTORE SWAP4 SWAP5 POP SWAP2 SWAP3 SWAP1 DUP4 ADD DUP3 DUP3 DUP1 ISZERO PUSH2 0x18D5 JUMPI PUSH1 0x20 MUL DUP3 ADD SWAP2 SWAP1 PUSH1 0x0 MSTORE PUSH1 0x20 PUSH1 0x0 KECCAK256 SWAP1 DUP2 SLOAD DUP2 MSTORE PUSH1 0x20 ADD SWAP1 PUSH1 0x1 ADD SWAP1 DUP1 DUP4 GT PUSH2 0x18C1 JUMPI POP POP POP POP POP SWAP2 POP POP SWAP2 SWAP1 POP JUMP JUMPDEST DUP1 MLOAD DUP3 MLOAD EQ PUSH2 0x1A59 JUMPI PUSH1 0x40 MLOAD PUSH3 0x461BCD PUSH1 0xE5 SHL DUP2 MSTORE PUSH1 0x20 PUSH1 0x4 DUP3 ADD MSTORE PUSH1 0x18 PUSH1 0x24 DUP3 ADD MSTORE PUSH32 0x6172726179206C656E67746873206D757374206D617463680000000000000000 PUSH1 0x44 DUP3 ADD MSTORE PUSH1 0x64 ADD PUSH2 0x50C JUMP JUMPDEST PUSH1 0x0 DUP5 GT PUSH2 0x1ACF JUMPI PUSH1 0x40 MLOAD PUSH3 0x461BCD PUSH1 0xE5 SHL DUP2 MSTORE PUSH1 0x20 PUSH1 0x4 DUP3 ADD MSTORE PUSH1 0x28 PUSH1 0x24 DUP3 ADD MSTORE PUSH32 0x636F6C6C61746572616C20616D6F756E74206D75737420626520677265617465 PUSH1 0x44 DUP3 ADD MSTORE PUSH32 0x72207468616E2030000000000000000000000000000000000000000000000000 PUSH1 0x64 DUP3 ADD MSTORE PUSH1 0x84 ADD PUSH2 0x50C JUMP JUMPDEST PUSH1 0x0 JUMPDEST DUP3 MLOAD DUP2 LT ISZERO PUSH2 0x1B59 JUMPI PUSH1 0x0 DUP4 DUP3 DUP2 MLOAD DUP2 LT PUSH2 0x1AEF JUMPI PUSH2 0x1AEF PUSH2 0x4CC1 JUMP JUMPDEST PUSH1 0x20 MUL PUSH1 0x20 ADD ADD MLOAD PUSH1 0x0 SHR SWAP1 POP PUSH1 0x7 DUP1 SLOAD SWAP1 POP DUP2 LT PUSH2 0x1B50 JUMPI PUSH1 0x40 MLOAD PUSH3 0x461BCD PUSH1 0xE5 SHL DUP2 MSTORE PUSH1 0x20 PUSH1 0x4 DUP3 ADD MSTORE PUSH1 0x16 PUSH1 0x24 DUP3 ADD MSTORE PUSH32 0x696E76616C6964206D61726B6574706C61636520494400000000000000000000 PUSH1 0x44 DUP3 ADD MSTORE PUSH1 0x64 ADD PUSH2 0x50C JUMP JUMPDEST POP PUSH1 0x1 ADD PUSH2 0x1AD2 JUMP JUMPDEST POP PUSH1 0x4 SLOAD PUSH2 0x1B72 SWAP1 PUSH1 0x1 PUSH1 0x1 PUSH1 0xA0 SHL SUB AND CALLER ADDRESS DUP8 PUSH2 0x2ECF JUMP JUMPDEST PUSH1 0x8 DUP1 SLOAD PUSH1 0x40 DUP1 MLOAD PUSH2 0x120 DUP2 ADD SWAP1 SWAP2 MSTORE SWAP1 SWAP2 SWAP1 DUP1 DUP9 PUSH1 0x1 DUP2 GT ISZERO PUSH2 0x1B98 JUMPI PUSH2 0x1B98 PUSH2 0x431B JUMP JUMPDEST DUP2 MSTORE PUSH1 0x20 ADD DUP8 DUP2 MSTORE PUSH1 0x20 ADD PUSH1 0x0 DUP2 MSTORE PUSH1 0x20 ADD DUP7 DUP2 MSTORE PUSH1 0x20 ADD PUSH1 0x0 PUSH1 0x5 DUP2 GT ISZERO PUSH2 0x1BC3 JUMPI PUSH2 0x1BC3 PUSH2 0x431B JUMP JUMPDEST DUP2 MSTORE PUSH1 0x20 ADD PUSH1 0x40 MLOAD DUP1 PUSH1 0x20 ADD PUSH1 0x40 MSTORE DUP1 PUSH1 0x0 DUP2 MSTORE POP DUP2 MSTORE PUSH1 0x20 ADD DUP6 DUP2 MSTORE PUSH1 0x20 ADD DUP5 DUP2 MSTORE PUSH1 0x20 ADD PUSH1 0x0 PUSH8 0xFFFFFFFFFFFFFFFF DUP2 GT ISZERO PUSH2 0x1C03 JUMPI PUSH2 0x1C03 PUSH2 0x45AB JUMP JUMPDEST PUSH1 0x40 MLOAD SWAP1 DUP1 DUP3 MSTORE DUP1 PUSH1 0x20 MUL PUSH1 0x20 ADD DUP3 ADD PUSH1 0x40 MSTORE DUP1 ISZERO PUSH2 0x1C2C JUMPI DUP2 PUSH1 0x20 ADD PUSH1 0x20 DUP3 MUL DUP1 CALLDATASIZE DUP4 CALLDATACOPY ADD SWAP1 POP JUMPDEST POP SWAP1 MSTORE DUP2 SLOAD PUSH1 0x1 DUP2 DUP2 ADD DUP5 SSTORE PUSH1 0x0 SWAP4 DUP5 MSTORE PUSH1 0x20 SWAP1 SWAP4 KECCAK256 DUP3 MLOAD PUSH1 0x9 SWAP1 SWAP3 MUL ADD DUP1 SLOAD SWAP3 SWAP4 SWAP1 SWAP3 DUP4 SWAP2 PUSH1 0xFF NOT SWAP1 SWAP2 AND SWAP1 DUP4 DUP2 DUP2 GT ISZERO PUSH2 0x1C6A JUMPI PUSH2 0x1C6A PUSH2 0x431B JUMP JUMPDEST MUL OR SWAP1 SSTORE POP PUSH1 0x20 DUP3 ADD MLOAD DUP2 PUSH1 0x1 ADD SSTORE PUSH1 0x40 DUP3 ADD MLOAD DUP2 PUSH1 0x2 ADD SSTORE PUSH1 0x60 DUP3 ADD MLOAD DUP2 PUSH1 0x3 ADD SSTORE PUSH1 0x80 DUP3 ADD MLOAD DUP2 PUSH1 0x4 ADD PUSH1 0x0 PUSH2 0x100 EXP DUP2 SLOAD DUP2 PUSH1 0xFF MUL NOT AND SWAP1 DUP4 PUSH1 0x5 DUP2 GT ISZERO PUSH2 0x1CB7 JUMPI PUSH2 0x1CB7 PUSH2 0x431B JUMP JUMPDEST MUL OR SWAP1 SSTORE POP PUSH1 0xA0 DUP3 ADD MLOAD PUSH1 0x5 DUP3 ADD SWAP1 PUSH2 0x1CD0 SWAP1 DUP3 PUSH2 0x4D65 JUMP JUMPDEST POP PUSH1 0xC0 DUP3 ADD MLOAD DUP1 MLOAD PUSH2 0x1CEC SWAP2 PUSH1 0x6 DUP5 ADD SWAP2 PUSH1 0x20 SWAP1 SWAP2 ADD SWAP1 PUSH2 0x4102 JUMP JUMPDEST POP PUSH1 0xE0 DUP3 ADD MLOAD DUP1 MLOAD PUSH2 0x1D08 SWAP2 PUSH1 0x7 DUP5 ADD SWAP2 PUSH1 0x20 SWAP1 SWAP2 ADD SWAP1 PUSH2 0x4102 JUMP JUMPDEST POP PUSH2 0x100 DUP3 ADD MLOAD DUP1 MLOAD PUSH2 0x1D25 SWAP2 PUSH1 0x8 DUP5 ADD SWAP2 PUSH1 0x20 SWAP1 SWAP2 ADD SWAP1 PUSH2 0x4102 JUMP JUMPDEST POP POP POP PUSH1 0x0 DUP2 DUP2 MSTORE PUSH1 0x9 PUSH1 0x20 SWAP1 DUP2 MSTORE PUSH1 0x40 DUP1 DUP4 KECCAK256 DUP1 SLOAD PUSH20 0xFFFFFFFFFFFFFFFFFFFFFFFFFFFFFFFFFFFFFFFF NOT AND CALLER SWAP1 DUP2 OR SWAP1 SWAP2 SSTORE DUP4 MSTORE PUSH1 0xA DUP3 MSTORE DUP3 KECCAK256 DUP1 SLOAD PUSH1 0x1 DUP2 ADD DUP3 SSTORE SWAP1 DUP4 MSTORE SWAP1 DUP3 KECCAK256 ADD DUP3 SWAP1 SSTORE PUSH1 0x6 DUP1 SLOAD DUP8 SWAP3 SWAP1 PUSH2 0x1D85 SWAP1 DUP5 SWAP1 PUSH2 0x4D0B JUMP JUMPDEST SWAP3 POP POP DUP2 SWAP1 SSTORE POP DUP1 PUSH32 0xA40B3C87E86BD5F4B59C8EE5D83A7CED69629A25EE5627DCCFA8918958B38DC4 DUP7 DUP7 DUP7 DUP7 PUSH1 0x40 MLOAD PUSH2 0x1DC2 SWAP5 SWAP4 SWAP3 SWAP2 SWAP1 PUSH2 0x4FB0 JUMP JUMPDEST PUSH1 0x40 MLOAD DUP1 SWAP2 SUB SWAP1 LOG2 POP POP POP POP POP POP JUMP JUMPDEST PUSH2 0x1DDA PUSH2 0x414D JUMP JUMPDEST PUSH1 0xD PUSH1 0x0 DUP4 DUP2 MSTORE PUSH1 0x20 ADD SWAP1 DUP2 MSTORE PUSH1 0x20 ADD PUSH1 0x0 KECCAK256 PUSH1 0x40 MLOAD DUP1 PUSH2 0x1A0 ADD PUSH1 0x40 MSTORE SWAP1 DUP2 PUSH1 0x0 DUP3 ADD SLOAD DUP2 MSTORE PUSH1 0x20 ADD PUSH1 0x1 DUP3 ADD SLOAD DUP2 MSTORE PUSH1 0x20 ADD PUSH1 0x2 DUP3 ADD SLOAD DUP2 MSTORE PUSH1 0x20 ADD PUSH1 0x3 DUP3 ADD SLOAD DUP2 MSTORE PUSH1 0x20 ADD PUSH1 0x4 DUP3 ADD SLOAD DUP2 MSTORE PUSH1 0x20 ADD PUSH1 0x5 DUP3 ADD SLOAD DUP2 MSTORE PUSH1 0x20 ADD PUSH1 0x6 DUP3 ADD SLOAD DUP2 MSTORE PUSH1 0x20 ADD PUSH1 0x7 DUP3 ADD SLOAD DUP2 MSTORE PUSH1 0x20 ADD PUSH1 0x8 DUP3 ADD SLOAD DUP2 MSTORE PUSH1 0x20 ADD PUSH1 0x9 DUP3 ADD SLOAD DUP2 MSTORE PUSH1 0x20 ADD PUSH1 0xA DUP3 ADD SLOAD DUP2 MSTORE PUSH1 0x20 ADD PUSH1 0xB DUP3 ADD PUSH1 0x0 SWAP1 SLOAD SWAP1 PUSH2 0x100 EXP SWAP1 DIV PUSH1 0xFF AND PUSH1 0x7 DUP2 GT ISZERO PUSH2 0x1E8B JUMPI PUSH2 0x1E8B PUSH2 0x431B JUMP JUMPDEST PUSH1 0x7 DUP2 GT ISZERO PUSH2 0x1E9C JUMPI PUSH2 0x1E9C PUSH2 0x431B JUMP JUMPDEST DUP2 MSTORE PUSH1 0x20 ADD PUSH1 0xC DUP3 ADD DUP1 SLOAD PUSH2 0x1EB0 SWAP1 PUSH2 0x4CD7 JUMP JUMPDEST DUP1 PUSH1 0x1F ADD PUSH1 0x20 DUP1 SWAP2 DIV MUL PUSH1 0x20 ADD PUSH1 0x40 MLOAD SWAP1 DUP2 ADD PUSH1 0x40 MSTORE DUP1 SWAP3 SWAP2 SWAP1 DUP2 DUP2 MSTORE PUSH1 0x20 ADD DUP3 DUP1 SLOAD PUSH2 0x1EDC SWAP1 PUSH2 0x4CD7 JUMP JUMPDEST DUP1 ISZERO PUSH2 0xE26 JUMPI DUP1 PUSH1 0x1F LT PUSH2 0x1EFE JUMPI PUSH2 0x100 DUP1 DUP4 SLOAD DIV MUL DUP4 MSTORE SWAP2 PUSH1 0x20 ADD SWAP2 PUSH2 0xE26 JUMP JUMPDEST DUP3 ADD SWAP2 SWAP1 PUSH1 0x0 MSTORE PUSH1 0x20 PUSH1 0x0 KECCAK256 SWAP1 JUMPDEST DUP2 SLOAD DUP2 MSTORE SWAP1 PUSH1 0x1 ADD SWAP1 PUSH1 0x20 ADD DUP1 DUP4 GT PUSH2 0x1F0C JUMPI POP POP POP SWAP2 SWAP1 SWAP3 MSTORE POP SWAP2 SWAP5 SWAP4 POP POP POP POP JUMP JUMPDEST PUSH2 0x1F38 PUSH2 0x2243 JUMP JUMPDEST PUSH1 0x1 PUSH1 0x1 PUSH1 0xA0 SHL SUB DUP2 AND PUSH2 0x1FB4 JUMPI PUSH1 0x40 MLOAD PUSH3 0x461BCD PUSH1 0xE5 SHL DUP2 MSTORE PUSH1 0x20 PUSH1 0x4 DUP3 ADD MSTORE PUSH1 0x26 PUSH1 0x24 DUP3 ADD MSTORE PUSH32 0x4F776E61626C653A206E6577206F776E657220697320746865207A65726F2061 PUSH1 0x44 DUP3 ADD MSTORE PUSH32 0x6464726573730000000000000000000000000000000000000000000000000000 PUSH1 0x64 DUP3 ADD MSTORE PUSH1 0x84 ADD PUSH2 0x50C JUMP JUMPDEST PUSH2 0x5AF DUP2 PUSH2 0x25FD JUMP JUMPDEST PUSH2 0x1FC5 PUSH2 0x41C9 JUMP JUMPDEST PUSH1 0x7 DUP3 DUP2 SLOAD DUP2 LT PUSH2 0x1FD8 JUMPI PUSH2 0x1FD8 PUSH2 0x4CC1 JUMP JUMPDEST SWAP1 PUSH1 0x0 MSTORE PUSH1 0x20 PUSH1 0x0 KECCAK256 SWAP1 PUSH1 0x6 MUL ADD PUSH1 0x40 MLOAD DUP1 PUSH1 0xC0 ADD PUSH1 0x40 MSTORE SWAP1 DUP2 PUSH1 0x0 DUP3 ADD SLOAD DUP2 MSTORE PUSH1 0x20 ADD PUSH1 0x1 DUP3 ADD SLOAD DUP2 MSTORE PUSH1 0x20 ADD PUSH1 0x2 DUP3 ADD PUSH1 0x0 SWAP1 SLOAD SWAP1 PUSH2 0x100 EXP SWAP1 DIV PUSH1 0xFF AND PUSH1 0x1 DUP2 GT ISZERO PUSH2 0x2029 JUMPI PUSH2 0x2029 PUSH2 0x431B JUMP JUMPDEST PUSH1 0x1 DUP2 GT ISZERO PUSH2 0x203A JUMPI PUSH2 0x203A PUSH2 0x431B JUMP JUMPDEST DUP2 MSTORE PUSH1 0x20 ADD PUSH1 0x3 DUP3 ADD DUP1 SLOAD PUSH2 0x204E SWAP1 PUSH2 0x4CD7 JUMP JUMPDEST DUP1 PUSH1 0x1F ADD PUSH1 0x20 DUP1 SWAP2 DIV MUL PUSH1 0x20 ADD PUSH1 0x40 MLOAD SWAP1 DUP2 ADD PUSH1 0x40 MSTORE DUP1 SWAP3 SWAP2 SWAP1 DUP2 DUP2 MSTORE PUSH1 0x20 ADD DUP3 DUP1 SLOAD PUSH2 0x207A SWAP1 PUSH2 0x4CD7 JUMP JUMPDEST DUP1 ISZERO PUSH2 0x20C7 JUMPI DUP1 PUSH1 0x1F LT PUSH2 0x209C JUMPI PUSH2 0x100 DUP1 DUP4 SLOAD DIV MUL DUP4 MSTORE SWAP2 PUSH1 0x20 ADD SWAP2 PUSH2 0x20C7 JUMP JUMPDEST DUP3 ADD SWAP2 SWAP1 PUSH1 0x0 MSTORE PUSH1 0x20 PUSH1 0x0 KECCAK256 SWAP1 JUMPDEST DUP2 SLOAD DUP2 MSTORE SWAP1 PUSH1 0x1 ADD SWAP1 PUSH1 0x20 ADD DUP1 DUP4 GT PUSH2 0x20AA JUMPI DUP3 SWAP1 SUB PUSH1 0x1F AND DUP3 ADD SWAP2 JUMPDEST POP POP POP POP POP DUP2 MSTORE PUSH1 0x20 ADD PUSH1 0x4 DUP3 ADD DUP1 SLOAD PUSH2 0x20E0 SWAP1 PUSH2 0x4CD7 JUMP JUMPDEST DUP1 PUSH1 0x1F ADD PUSH1 0x20 DUP1 SWAP2 DIV MUL PUSH1 0x20 ADD PUSH1 0x40 MLOAD SWAP1 DUP2 ADD PUSH1 0x40 MSTORE DUP1 SWAP3 SWAP2 SWAP1 DUP2 DUP2 MSTORE PUSH1 0x20 ADD DUP3 DUP1 SLOAD PUSH2 0x210C SWAP1 PUSH2 0x4CD7 JUMP JUMPDEST DUP1 ISZERO PUSH2 0x2159 JUMPI DUP1 PUSH1 0x1F LT PUSH2 0x212E JUMPI PUSH2 0x100 DUP1 DUP4 SLOAD DIV MUL DUP4 MSTORE SWAP2 PUSH1 0x20 ADD SWAP2 PUSH2 0x2159 JUMP JUMPDEST DUP3 ADD SWAP2 SWAP1 PUSH1 0x0 MSTORE PUSH1 0x20 PUSH1 0x0 KECCAK256 SWAP1 JUMPDEST DUP2 SLOAD DUP2 MSTORE SWAP1 PUSH1 0x1 ADD SWAP1 PUSH1 0x20 ADD DUP1 DUP4 GT PUSH2 0x213C JUMPI DUP3 SWAP1 SUB PUSH1 0x1F AND DUP3 ADD SWAP2 JUMPDEST POP POP POP SWAP2 DUP4 MSTORE POP POP PUSH1 0x5 DUP3 ADD SLOAD PUSH1 0x20 SWAP1 SWAP2 ADD SWAP1 PUSH1 0xFF AND PUSH1 0x2 DUP2 GT ISZERO PUSH2 0x2180 JUMPI PUSH2 0x2180 PUSH2 0x431B JUMP JUMPDEST PUSH1 0x2 DUP2 GT ISZERO PUSH2 0x2191 JUMPI PUSH2 0x2191 PUSH2 0x431B JUMP JUMPDEST SWAP1 MSTORE POP SWAP3 SWAP2 POP POP JUMP JUMPDEST PUSH1 0x40 MLOAD PUSH1 0x1 PUSH1 0x1 PUSH1 0xA0 SHL SUB DUP4 AND PUSH1 0x24 DUP3 ADD MSTORE PUSH1 0x44 DUP2 ADD DUP3 SWAP1 MSTORE PUSH2 0xBC0 SWAP1 DUP5 SWAP1 PUSH32 0xA9059CBB00000000000000000000000000000000000000000000000000000000 SWAP1 PUSH1 0x64 ADD JUMPDEST PUSH1 0x40 DUP1 MLOAD PUSH1 0x1F NOT DUP2 DUP5 SUB ADD DUP2 MSTORE SWAP2 SWAP1 MSTORE PUSH1 0x20 DUP2 ADD DUP1 MLOAD PUSH28 0xFFFFFFFFFFFFFFFFFFFFFFFFFFFFFFFFFFFFFFFFFFFFFFFFFFFFFFFF AND PUSH32 0xFFFFFFFF00000000000000000000000000000000000000000000000000000000 SWAP1 SWAP4 AND SWAP3 SWAP1 SWAP3 OR SWAP1 SWAP2 MSTORE PUSH2 0x2F26 JUMP JUMPDEST PUSH1 0x3 SLOAD PUSH1 0x1 PUSH1 0x1 PUSH1 0xA0 SHL SUB AND CALLER EQ PUSH2 0x10AC JUMPI PUSH1 0x40 MLOAD PUSH3 0x461BCD PUSH1 0xE5 SHL DUP2 MSTORE PUSH1 0x20 PUSH1 0x4 DUP3 ADD DUP2 SWAP1 MSTORE PUSH1 0x24 DUP3 ADD MSTORE PUSH32 0x4F776E61626C653A2063616C6C6572206973206E6F7420746865206F776E6572 PUSH1 0x44 DUP3 ADD MSTORE PUSH1 0x64 ADD PUSH2 0x50C JUMP JUMPDEST PUSH1 0x0 DUP1 PUSH2 0x2338 PUSH1 0x40 MLOAD DUP1 PUSH1 0x40 ADD PUSH1 0x40 MSTORE DUP1 PUSH1 0x17 DUP2 MSTORE PUSH1 0x20 ADD PUSH32 0x726F666C2E4973417574686F72697A65644F726967696E000000000000000000 DUP2 MSTORE POP DUP5 PUSH1 0x40 MLOAD PUSH1 0x20 ADD PUSH2 0x2324 SWAP2 SWAP1 PUSH32 0x5500000000000000000000000000000000000000000000000000000000000000 DUP2 MSTORE PUSH11 0xFFFFFFFFFFFFFFFFFFFFFF NOT SWAP2 SWAP1 SWAP2 AND PUSH1 0x1 DUP3 ADD MSTORE PUSH1 0x16 ADD SWAP1 JUMP JUMPDEST PUSH1 0x40 MLOAD PUSH1 0x20 DUP2 DUP4 SUB SUB DUP2 MSTORE SWAP1 PUSH1 0x40 MSTORE PUSH2 0x300E JUMP JUMPDEST SWAP2 POP SWAP2 POP DUP2 PUSH8 0xFFFFFFFFFFFFFFFF AND PUSH1 0x0 EQ ISZERO DUP1 PUSH2 0x2358 JUMPI POP DUP1 MLOAD PUSH1 0x1 EQ ISZERO JUMPDEST DUP1 PUSH2 0x23A5 JUMPI POP DUP1 PUSH1 0x0 DUP2 MLOAD DUP2 LT PUSH2 0x2371 JUMPI PUSH2 0x2371 PUSH2 0x4CC1 JUMP JUMPDEST PUSH1 0x20 SWAP2 ADD ADD MLOAD PUSH1 0x1 PUSH1 0x1 PUSH1 0xF8 SHL SUB NOT AND PUSH32 0xF500000000000000000000000000000000000000000000000000000000000000 EQ ISZERO JUMPDEST ISZERO PUSH2 0xBC0 JUMPI PUSH1 0x40 MLOAD PUSH32 0x6890282F00000000000000000000000000000000000000000000000000000000 DUP2 MSTORE PUSH1 0x4 ADD PUSH1 0x40 MLOAD DUP1 SWAP2 SUB SWAP1 REVERT JUMPDEST PUSH1 0x0 DUP3 DUP2 MSTORE PUSH1 0xD PUSH1 0x20 SWAP1 DUP2 MSTORE PUSH1 0x40 DUP1 DUP4 KECCAK256 PUSH1 0x1 ADD SLOAD DUP1 DUP5 MSTORE PUSH1 0x9 SWAP1 SWAP3 MSTORE DUP3 KECCAK256 SLOAD PUSH1 0x8 DUP1 SLOAD SWAP3 SWAP4 SWAP3 PUSH1 0x1 PUSH1 0x1 PUSH1 0xA0 SHL SUB SWAP1 SWAP3 AND SWAP2 DUP5 SWAP1 DUP2 LT PUSH2 0x241F JUMPI PUSH2 0x241F PUSH2 0x4CC1 JUMP JUMPDEST SWAP1 PUSH1 0x0 MSTORE PUSH1 0x20 PUSH1 0x0 KECCAK256 SWAP1 PUSH1 0x9 MUL ADD SWAP2 POP DUP4 DUP3 PUSH1 0x2 ADD PUSH1 0x0 DUP3 DUP3 SLOAD PUSH2 0x2443 SWAP2 SWAP1 PUSH2 0x4D0B JUMP JUMPDEST SWAP1 SWAP2 SSTORE POP POP PUSH1 0x0 DUP6 DUP2 MSTORE PUSH1 0xD PUSH1 0x20 MSTORE PUSH1 0x40 DUP2 KECCAK256 PUSH1 0x8 ADD DUP1 SLOAD DUP7 SWAP3 SWAP1 PUSH2 0x2469 SWAP1 DUP5 SWAP1 PUSH2 0x4D0B JUMP JUMPDEST SWAP1 SWAP2 SSTORE POP POP PUSH1 0x1 PUSH1 0x1 PUSH1 0xA0 SHL SUB DUP2 AND PUSH1 0x0 SWAP1 DUP2 MSTORE PUSH1 0xC PUSH1 0x20 MSTORE PUSH1 0x40 DUP2 KECCAK256 DUP1 SLOAD DUP7 SWAP3 SWAP1 PUSH2 0x2496 SWAP1 DUP5 SWAP1 PUSH2 0x4D0B JUMP JUMPDEST SWAP3 POP POP DUP2 SWAP1 SSTORE POP SWAP3 POP SWAP3 POP SWAP3 JUMP JUMPDEST PUSH1 0x0 JUMPDEST PUSH1 0x8 DUP4 ADD SLOAD DUP2 LT ISZERO PUSH2 0x2508 JUMPI PUSH2 0x24F6 PUSH1 0xD PUSH1 0x0 DUP6 PUSH1 0x8 ADD DUP5 DUP2 SLOAD DUP2 LT PUSH2 0x24CF JUMPI PUSH2 0x24CF PUSH2 0x4CC1 JUMP JUMPDEST PUSH1 0x0 SWAP2 DUP3 MSTORE PUSH1 0x20 DUP1 DUP4 KECCAK256 SWAP1 SWAP2 ADD SLOAD DUP4 MSTORE DUP3 ADD SWAP3 SWAP1 SWAP3 MSTORE PUSH1 0x40 ADD SWAP1 KECCAK256 PUSH1 0xB ADD SLOAD PUSH1 0xFF AND PUSH2 0x30FD JUMP JUMPDEST PUSH2 0x2500 JUMPI POP POP POP POP JUMP JUMPDEST PUSH1 0x1 ADD PUSH2 0x24A7 JUMP JUMPDEST POP PUSH1 0x1 PUSH1 0x1 PUSH1 0xA0 SHL SUB DUP2 AND PUSH1 0x0 SWAP1 DUP2 MSTORE PUSH1 0xA PUSH1 0x20 MSTORE PUSH1 0x40 DUP2 KECCAK256 SWAP1 JUMPDEST DUP2 SLOAD DUP2 LT ISZERO PUSH2 0x25CD JUMPI DUP5 DUP3 DUP3 DUP2 SLOAD DUP2 LT PUSH2 0x253F JUMPI PUSH2 0x253F PUSH2 0x4CC1 JUMP JUMPDEST SWAP1 PUSH1 0x0 MSTORE PUSH1 0x20 PUSH1 0x0 KECCAK256 ADD SLOAD SUB PUSH2 0x25C5 JUMPI DUP2 SLOAD DUP3 SWAP1 PUSH2 0x255F SWAP1 PUSH1 0x1 SWAP1 PUSH2 0x4CAE JUMP JUMPDEST DUP2 SLOAD DUP2 LT PUSH2 0x256F JUMPI PUSH2 0x256F PUSH2 0x4CC1 JUMP JUMPDEST SWAP1 PUSH1 0x0 MSTORE PUSH1 0x20 PUSH1 0x0 KECCAK256 ADD SLOAD DUP3 DUP3 DUP2 SLOAD DUP2 LT PUSH2 0x258C JUMPI PUSH2 0x258C PUSH2 0x4CC1 JUMP JUMPDEST SWAP1 PUSH1 0x0 MSTORE PUSH1 0x20 PUSH1 0x0 KECCAK256 ADD DUP2 SWAP1 SSTORE POP DUP2 DUP1 SLOAD DUP1 PUSH2 0x25AA JUMPI PUSH2 0x25AA PUSH2 0x4FE1 JUMP JUMPDEST PUSH1 0x1 SWAP1 SUB DUP2 DUP2 SWAP1 PUSH1 0x0 MSTORE PUSH1 0x20 PUSH1 0x0 KECCAK256 ADD PUSH1 0x0 SWAP1 SSTORE SWAP1 SSTORE PUSH2 0x25CD JUMP JUMPDEST PUSH1 0x1 ADD PUSH2 0x2523 JUMP JUMPDEST POP POP PUSH1 0x1 PUSH1 0x1 PUSH1 0xA0 SHL SUB AND PUSH1 0x0 SWAP1 DUP2 MSTORE PUSH1 0xB PUSH1 0x20 SWAP1 DUP2 MSTORE PUSH1 0x40 DUP3 KECCAK256 DUP1 SLOAD PUSH1 0x1 DUP2 ADD DUP3 SSTORE SWAP1 DUP4 MSTORE SWAP2 KECCAK256 ADD SWAP2 SWAP1 SWAP2 SSTORE POP JUMP JUMPDEST PUSH1 0x3 DUP1 SLOAD PUSH1 0x1 PUSH1 0x1 PUSH1 0xA0 SHL SUB DUP4 DUP2 AND PUSH20 0xFFFFFFFFFFFFFFFFFFFFFFFFFFFFFFFFFFFFFFFF NOT DUP4 AND DUP2 OR SWAP1 SWAP4 SSTORE PUSH1 0x40 MLOAD SWAP2 AND SWAP2 SWAP1 DUP3 SWAP1 PUSH32 0x8BE0079C531659141344CD1FD0A4F28419497F9722A3DAAFE3B4186F6B6457E0 SWAP1 PUSH1 0x0 SWAP1 LOG3 POP POP JUMP JUMPDEST PUSH1 0x60 PUSH1 0x0 PUSH2 0x2669 DUP4 PUSH2 0x3137 JUMP JUMPDEST PUSH1 0x1 ADD SWAP1 POP PUSH1 0x0 DUP2 PUSH8 0xFFFFFFFFFFFFFFFF DUP2 GT ISZERO PUSH2 0x2689 JUMPI PUSH2 0x2689 PUSH2 0x45AB JUMP JUMPDEST PUSH1 0x40 MLOAD SWAP1 DUP1 DUP3 MSTORE DUP1 PUSH1 0x1F ADD PUSH1 0x1F NOT AND PUSH1 0x20 ADD DUP3 ADD PUSH1 0x40 MSTORE DUP1 ISZERO PUSH2 0x26B3 JUMPI PUSH1 0x20 DUP3 ADD DUP2 DUP1 CALLDATASIZE DUP4 CALLDATACOPY ADD SWAP1 POP JUMPDEST POP SWAP1 POP DUP2 DUP2 ADD PUSH1 0x20 ADD JUMPDEST PUSH1 0x0 NOT ADD PUSH32 0x3031323334353637383961626364656600000000000000000000000000000000 PUSH1 0xA DUP7 MOD BYTE DUP2 MSTORE8 PUSH1 0xA DUP6 DIV SWAP5 POP DUP5 PUSH2 0x26BD JUMPI JUMPDEST POP SWAP4 SWAP3 POP POP POP JUMP JUMPDEST PUSH2 0x276A PUSH1 0x40 MLOAD DUP1 PUSH2 0x180 ADD PUSH1 0x40 MSTORE DUP1 PUSH1 0x60 DUP2 MSTORE PUSH1 0x20 ADD PUSH1 0x0 PUSH1 0x1 PUSH1 0x1 PUSH1 0xA0 SHL SUB AND DUP2 MSTORE PUSH1 0x20 ADD PUSH1 0x60 DUP2 MSTORE PUSH1 0x20 ADD PUSH1 0x60 DUP2 MSTORE PUSH1 0x20 ADD PUSH1 0x60 DUP2 MSTORE PUSH1 0x20 ADD PUSH1 0x0 DUP2 MSTORE PUSH1 0x20 ADD PUSH1 0x60 DUP2 MSTORE PUSH1 0x20 ADD PUSH1 0x60 DUP2 MSTORE PUSH1 0x20 ADD PUSH1 0x60 DUP2 MSTORE PUSH1 0x20 ADD PUSH1 0x60 DUP2 MSTORE PUSH1 0x20 ADD PUSH1 0x60 DUP2 MSTORE PUSH1 0x20 ADD PUSH1 0x60 DUP2 MSTORE POP SWAP1 JUMP JUMPDEST PUSH2 0x27D7 PUSH1 0x40 MLOAD DUP1 PUSH2 0x180 ADD PUSH1 0x40 MSTORE DUP1 PUSH1 0x60 DUP2 MSTORE PUSH1 0x20 ADD PUSH1 0x0 PUSH1 0x1 PUSH1 0x1 PUSH1 0xA0 SHL SUB AND DUP2 MSTORE PUSH1 0x20 ADD PUSH1 0x60 DUP2 MSTORE PUSH1 0x20 ADD PUSH1 0x60 DUP2 MSTORE PUSH1 0x20 ADD PUSH1 0x60 DUP2 MSTORE PUSH1 0x20 ADD PUSH1 0x0 DUP2 MSTORE PUSH1 0x20 ADD PUSH1 0x60 DUP2 MSTORE PUSH1 0x20 ADD PUSH1 0x60 DUP2 MSTORE PUSH1 0x20 ADD PUSH1 0x60 DUP2 MSTORE PUSH1 0x20 ADD PUSH1 0x60 DUP2 MSTORE PUSH1 0x20 ADD PUSH1 0x60 DUP2 MSTORE PUSH1 0x20 ADD PUSH1 0x60 DUP2 MSTORE POP SWAP1 JUMP JUMPDEST PUSH1 0x0 JUMPDEST DUP4 DUP2 LT ISZERO PUSH2 0x285E JUMPI DUP5 DUP5 DUP3 DUP2 DUP2 LT PUSH2 0x27F4 JUMPI PUSH2 0x27F4 PUSH2 0x4CC1 JUMP JUMPDEST SWAP1 SWAP2 ADD CALLDATALOAD PUSH1 0x1 PUSH1 0x1 PUSH1 0xF8 SHL SUB NOT AND PUSH1 0x1 PUSH1 0xFD SHL SUB SWAP1 POP PUSH2 0x2856 JUMPI PUSH2 0x284F DUP6 DUP6 DUP1 DUP1 PUSH1 0x1F ADD PUSH1 0x20 DUP1 SWAP2 DIV MUL PUSH1 0x20 ADD PUSH1 0x40 MLOAD SWAP1 DUP2 ADD PUSH1 0x40 MSTORE DUP1 SWAP4 SWAP3 SWAP2 SWAP1 DUP2 DUP2 MSTORE PUSH1 0x20 ADD DUP4 DUP4 DUP1 DUP3 DUP5 CALLDATACOPY PUSH1 0x0 SWAP3 ADD DUP3 SWAP1 MSTORE POP SWAP3 POP DUP6 SWAP2 POP PUSH2 0x3219 SWAP1 POP JUMP JUMPDEST DUP3 MSTORE PUSH2 0x285E JUMP JUMPDEST PUSH1 0x1 ADD PUSH2 0x27DA JUMP JUMPDEST PUSH2 0x2869 PUSH1 0x32 DUP3 PUSH2 0x4D0B JUMP JUMPDEST SWAP1 POP PUSH2 0x28D0 PUSH2 0x28CB DUP7 DUP7 DUP1 DUP1 PUSH1 0x1F ADD PUSH1 0x20 DUP1 SWAP2 DIV MUL PUSH1 0x20 ADD PUSH1 0x40 MLOAD SWAP1 DUP2 ADD PUSH1 0x40 MSTORE DUP1 SWAP4 SWAP3 SWAP2 SWAP1 DUP2 DUP2 MSTORE PUSH1 0x20 ADD DUP4 DUP4 DUP1 DUP3 DUP5 CALLDATACOPY PUSH1 0x0 SWAP3 ADD SWAP2 SWAP1 SWAP2 MSTORE POP PUSH2 0x28B5 SWAP3 POP PUSH1 0x2 SWAP2 POP DUP7 SWAP1 POP PUSH2 0x4D0B JUMP JUMPDEST SWAP4 POP DUP4 PUSH2 0x28C3 PUSH1 0x28 DUP3 PUSH2 0x4D0B JUMP JUMPDEST SWAP5 POP DUP5 PUSH2 0x3219 JUMP JUMPDEST PUSH2 0x32F0 JUMP JUMPDEST PUSH1 0x1 PUSH1 0x1 PUSH1 0xA0 SHL SUB AND PUSH1 0x20 DUP4 ADD MSTORE PUSH2 0x28E9 PUSH1 0x2 DUP3 PUSH2 0x4D0B JUMP JUMPDEST SWAP1 POP DUP4 DUP2 LT DUP1 ISZERO PUSH2 0x2923 JUMPI POP DUP5 DUP5 DUP3 DUP2 DUP2 LT PUSH2 0x2907 JUMPI PUSH2 0x2907 PUSH2 0x4CC1 JUMP JUMPDEST SWAP1 POP ADD CALLDATALOAD PUSH1 0xF8 SHR PUSH1 0xF8 SHL PUSH1 0x1 PUSH1 0x1 PUSH1 0xF8 SHL SUB NOT AND PUSH1 0x5 PUSH1 0xF9 SHL EQ ISZERO JUMPDEST ISZERO PUSH2 0x29C2 JUMPI DUP1 JUMPDEST DUP5 DUP2 LT ISZERO PUSH2 0x29C0 JUMPI DUP6 DUP6 DUP3 DUP2 DUP2 LT PUSH2 0x2944 JUMPI PUSH2 0x2944 PUSH2 0x4CC1 JUMP JUMPDEST SWAP1 SWAP2 ADD CALLDATALOAD PUSH1 0x1 PUSH1 0x1 PUSH1 0xF8 SHL SUB NOT AND PUSH1 0x5 PUSH1 0xF9 SHL SUB SWAP1 POP PUSH2 0x29B8 JUMPI PUSH2 0x29A1 DUP7 DUP7 DUP1 DUP1 PUSH1 0x1F ADD PUSH1 0x20 DUP1 SWAP2 DIV MUL PUSH1 0x20 ADD PUSH1 0x40 MLOAD SWAP1 DUP2 ADD PUSH1 0x40 MSTORE DUP1 SWAP4 SWAP3 SWAP2 SWAP1 DUP2 DUP2 MSTORE PUSH1 0x20 ADD DUP4 DUP4 DUP1 DUP3 DUP5 CALLDATACOPY PUSH1 0x0 SWAP3 ADD SWAP2 SWAP1 SWAP2 MSTORE POP DUP7 SWAP3 POP DUP6 SWAP2 POP PUSH2 0x3219 SWAP1 POP JUMP JUMPDEST PUSH1 0x40 DUP5 ADD MSTORE PUSH2 0x29B1 DUP2 PUSH1 0x1 PUSH2 0x4D0B JUMP JUMPDEST SWAP2 POP PUSH2 0x29C0 JUMP JUMPDEST PUSH1 0x1 ADD PUSH2 0x292A JUMP JUMPDEST POP JUMPDEST DUP1 PUSH2 0x29CC DUP2 PUSH2 0x500D JUMP JUMPDEST SWAP2 POP POP PUSH2 0x2A10 DUP6 DUP6 PUSH1 0x40 MLOAD DUP1 PUSH1 0x40 ADD PUSH1 0x40 MSTORE DUP1 PUSH1 0x3 DUP2 MSTORE PUSH1 0x20 ADD PUSH32 0x5552490000000000000000000000000000000000000000000000000000000000 DUP2 MSTORE POP DUP5 PUSH2 0x343D JUMP JUMPDEST DUP4 PUSH1 0x60 ADD DUP2 SWAP4 POP DUP3 SWAP1 MSTORE POP POP PUSH2 0x2A5D DUP6 DUP6 PUSH1 0x40 MLOAD DUP1 PUSH1 0x40 ADD PUSH1 0x40 MSTORE DUP1 PUSH1 0x7 DUP2 MSTORE PUSH1 0x20 ADD PUSH32 0x56657273696F6E00000000000000000000000000000000000000000000000000 DUP2 MSTORE POP DUP5 PUSH2 0x343D JUMP JUMPDEST DUP4 PUSH1 0x80 ADD DUP2 SWAP4 POP DUP3 SWAP1 MSTORE POP POP PUSH1 0x60 PUSH2 0x2AAC DUP7 DUP7 PUSH1 0x40 MLOAD DUP1 PUSH1 0x40 ADD PUSH1 0x40 MSTORE DUP1 PUSH1 0x8 DUP2 MSTORE PUSH1 0x20 ADD PUSH32 0x436861696E204944000000000000000000000000000000000000000000000000 DUP2 MSTORE POP DUP6 PUSH2 0x343D JUMP JUMPDEST SWAP3 POP SWAP1 POP PUSH2 0x2AB9 DUP2 PUSH2 0x3659 JUMP JUMPDEST PUSH1 0xA0 DUP5 ADD MSTORE PUSH1 0x40 DUP1 MLOAD DUP1 DUP3 ADD SWAP1 SWAP2 MSTORE PUSH1 0x5 DUP2 MSTORE PUSH32 0x4E6F6E6365000000000000000000000000000000000000000000000000000000 PUSH1 0x20 DUP3 ADD MSTORE PUSH2 0x2B00 SWAP1 DUP8 SWAP1 DUP8 SWAP1 DUP6 PUSH2 0x343D JUMP JUMPDEST PUSH1 0xC0 DUP6 ADD DUP3 SWAP1 MSTORE SWAP1 MLOAD SWAP1 SWAP3 POP PUSH1 0x8 GT ISZERO PUSH2 0x2B46 JUMPI PUSH1 0x40 MLOAD PUSH32 0xB4BC030C00000000000000000000000000000000000000000000000000000000 DUP2 MSTORE PUSH1 0x4 ADD PUSH1 0x40 MLOAD DUP1 SWAP2 SUB SWAP1 REVERT JUMPDEST PUSH2 0x2B87 DUP7 DUP7 PUSH1 0x40 MLOAD DUP1 PUSH1 0x40 ADD PUSH1 0x40 MSTORE DUP1 PUSH1 0x9 DUP2 MSTORE PUSH1 0x20 ADD PUSH32 0x4973737565642041740000000000000000000000000000000000000000000000 DUP2 MSTORE POP DUP6 PUSH2 0x343D JUMP JUMPDEST DUP5 PUSH1 0xE0 ADD DUP2 SWAP5 POP DUP3 SWAP1 MSTORE POP POP PUSH2 0x2BD4 DUP7 DUP7 PUSH1 0x40 MLOAD DUP1 PUSH1 0x40 ADD PUSH1 0x40 MSTORE DUP1 PUSH1 0xF DUP2 MSTORE PUSH1 0x20 ADD PUSH32 0x45787069726174696F6E2054696D650000000000000000000000000000000000 DUP2 MSTORE POP DUP6 PUSH2 0x343D JUMP JUMPDEST DUP5 PUSH2 0x100 ADD DUP2 SWAP5 POP DUP3 SWAP1 MSTORE POP POP PUSH2 0x2C22 DUP7 DUP7 PUSH1 0x40 MLOAD DUP1 PUSH1 0x40 ADD PUSH1 0x40 MSTORE DUP1 PUSH1 0xA DUP2 MSTORE PUSH1 0x20 ADD PUSH32 0x4E6F74204265666F726500000000000000000000000000000000000000000000 DUP2 MSTORE POP DUP6 PUSH2 0x343D JUMP JUMPDEST DUP5 PUSH2 0x120 ADD DUP2 SWAP5 POP DUP3 SWAP1 MSTORE POP POP PUSH2 0x2C70 DUP7 DUP7 PUSH1 0x40 MLOAD DUP1 PUSH1 0x40 ADD PUSH1 0x40 MSTORE DUP1 PUSH1 0xA DUP2 MSTORE PUSH1 0x20 ADD PUSH32 0x5265717565737420494400000000000000000000000000000000000000000000 DUP2 MSTORE POP DUP6 PUSH2 0x343D JUMP JUMPDEST DUP5 PUSH2 0x140 ADD DUP2 SWAP5 POP DUP3 SWAP1 MSTORE POP POP PUSH1 0x0 PUSH2 0x2CC0 DUP8 DUP8 PUSH1 0x40 MLOAD DUP1 PUSH1 0x40 ADD PUSH1 0x40 MSTORE DUP1 PUSH1 0x9 DUP2 MSTORE PUSH1 0x20 ADD PUSH32 0x5265736F75726365730000000000000000000000000000000000000000000000 DUP2 MSTORE POP DUP7 PUSH2 0x343D JUMP JUMPDEST SWAP2 POP POP DUP3 DUP2 EQ PUSH2 0x2CE1 JUMPI PUSH2 0x2CD5 DUP8 DUP8 DUP4 PUSH2 0x36B3 JUMP JUMPDEST PUSH2 0x160 DUP7 ADD SWAP2 SWAP1 SWAP2 MSTORE SWAP3 POP JUMPDEST POP SWAP2 SWAP3 POP POP POP JUMPDEST SWAP3 SWAP2 POP POP JUMP JUMPDEST PUSH1 0x0 PUSH2 0x2CE8 PUSH2 0x2D08 PUSH2 0x2D03 DUP5 PUSH1 0x0 PUSH1 0x4 PUSH2 0x3219 JUMP JUMPDEST PUSH2 0x3659 JUMP JUMPDEST PUSH2 0x2D18 PUSH2 0x2D03 DUP6 PUSH1 0x5 PUSH1 0x7 PUSH2 0x3219 JUMP JUMPDEST PUSH2 0x2D28 PUSH2 0x2D03 DUP7 PUSH1 0x8 PUSH1 0xA PUSH2 0x3219 JUMP JUMPDEST PUSH2 0x2D38 PUSH2 0x2D03 DUP8 PUSH1 0xB PUSH1 0xD PUSH2 0x3219 JUMP JUMPDEST PUSH2 0x2D48 PUSH2 0x2D03 DUP9 PUSH1 0xE PUSH1 0x10 PUSH2 0x3219 JUMP JUMPDEST PUSH2 0x2D58 PUSH2 0x2D03 DUP10 PUSH1 0x11 PUSH1 0x13 PUSH2 0x3219 JUMP JUMPDEST PUSH2 0x39A4 JUMP JUMPDEST PUSH1 0x60 PUSH1 0x0 DUP1 PUSH20 0x100000000000000000000000000000000000003 PUSH1 0x1 PUSH1 0x1 PUSH1 0xA0 SHL SUB AND DUP8 DUP8 DUP8 DUP8 PUSH1 0x40 MLOAD PUSH1 0x20 ADD PUSH2 0x2D97 SWAP5 SWAP4 SWAP3 SWAP2 SWAP1 PUSH2 0x5026 JUMP JUMPDEST PUSH1 0x40 DUP1 MLOAD PUSH1 0x1F NOT DUP2 DUP5 SUB ADD DUP2 MSTORE SWAP1 DUP3 SWAP1 MSTORE PUSH2 0x2DB1 SWAP2 PUSH2 0x5057 JUMP JUMPDEST PUSH1 0x0 PUSH1 0x40 MLOAD DUP1 DUP4 SUB DUP2 DUP6 GAS STATICCALL SWAP2 POP POP RETURNDATASIZE DUP1 PUSH1 0x0 DUP2 EQ PUSH2 0x2DEC JUMPI PUSH1 0x40 MLOAD SWAP2 POP PUSH1 0x1F NOT PUSH1 0x3F RETURNDATASIZE ADD AND DUP3 ADD PUSH1 0x40 MSTORE RETURNDATASIZE DUP3 MSTORE RETURNDATASIZE PUSH1 0x0 PUSH1 0x20 DUP5 ADD RETURNDATACOPY PUSH2 0x2DF1 JUMP JUMPDEST PUSH1 0x60 SWAP2 POP JUMPDEST POP SWAP2 POP SWAP2 POP DUP2 PUSH2 0x2E43 JUMPI PUSH1 0x40 MLOAD PUSH3 0x461BCD PUSH1 0xE5 SHL DUP2 MSTORE PUSH1 0x20 PUSH1 0x4 DUP3 ADD MSTORE PUSH1 0xF PUSH1 0x24 DUP3 ADD MSTORE PUSH32 0x656E63727970743A206661696C65640000000000000000000000000000000000 PUSH1 0x44 DUP3 ADD MSTORE PUSH1 0x64 ADD PUSH2 0x50C JUMP JUMPDEST SWAP2 POP POP JUMPDEST SWAP5 SWAP4 POP POP POP POP JUMP JUMPDEST DUP1 MLOAD PUSH1 0x20 DUP1 DUP4 ADD SWAP2 SWAP1 SWAP2 KECCAK256 PUSH1 0x0 SWAP1 DUP2 MSTORE SWAP1 DUP2 SWAP1 MSTORE PUSH1 0x40 DUP2 KECCAK256 SLOAD DUP3 SWAP1 PUSH1 0xFF AND ISZERO PUSH2 0x2EA4 JUMPI PUSH1 0x40 MLOAD PUSH32 0x9EA6784800000000000000000000000000000000000000000000000000000000 DUP2 MSTORE PUSH1 0x4 ADD PUSH1 0x40 MLOAD DUP1 SWAP2 SUB SWAP1 REVERT JUMPDEST DUP3 MLOAD PUSH1 0x0 SUB PUSH2 0x2EB6 JUMPI PUSH1 0x0 SWAP2 POP PUSH2 0x2EC9 JUMP JUMPDEST PUSH1 0x0 PUSH2 0x2EC1 DUP5 PUSH2 0x3B57 JUMP JUMPDEST PUSH1 0x20 ADD MLOAD SWAP3 POP POP JUMPDEST POP SWAP2 SWAP1 POP JUMP JUMPDEST PUSH1 0x40 MLOAD PUSH1 0x1 PUSH1 0x1 PUSH1 0xA0 SHL SUB DUP1 DUP6 AND PUSH1 0x24 DUP4 ADD MSTORE DUP4 AND PUSH1 0x44 DUP3 ADD MSTORE PUSH1 0x64 DUP2 ADD DUP3 SWAP1 MSTORE PUSH2 0x2F20 SWAP1 DUP6 SWAP1 PUSH32 0x23B872DD00000000000000000000000000000000000000000000000000000000 SWAP1 PUSH1 0x84 ADD PUSH2 0x21DF JUMP JUMPDEST POP POP POP POP JUMP JUMPDEST PUSH1 0x0 PUSH2 0x2F7B DUP3 PUSH1 0x40 MLOAD DUP1 PUSH1 0x40 ADD PUSH1 0x40 MSTORE DUP1 PUSH1 0x20 DUP2 MSTORE PUSH1 0x20 ADD PUSH32 0x5361666545524332303A206C6F772D6C6576656C2063616C6C206661696C6564 DUP2 MSTORE POP DUP6 PUSH1 0x1 PUSH1 0x1 PUSH1 0xA0 SHL SUB AND PUSH2 0x3C34 SWAP1 SWAP3 SWAP2 SWAP1 PUSH4 0xFFFFFFFF AND JUMP JUMPDEST SWAP1 POP DUP1 MLOAD PUSH1 0x0 EQ DUP1 PUSH2 0x2F9C JUMPI POP DUP1 DUP1 PUSH1 0x20 ADD SWAP1 MLOAD DUP2 ADD SWAP1 PUSH2 0x2F9C SWAP2 SWAP1 PUSH2 0x5073 JUMP JUMPDEST PUSH2 0xBC0 JUMPI PUSH1 0x40 MLOAD PUSH3 0x461BCD PUSH1 0xE5 SHL DUP2 MSTORE PUSH1 0x20 PUSH1 0x4 DUP3 ADD MSTORE PUSH1 0x2A PUSH1 0x24 DUP3 ADD MSTORE PUSH32 0x5361666545524332303A204552433230206F7065726174696F6E20646964206E PUSH1 0x44 DUP3 ADD MSTORE PUSH32 0x6F74207375636365656400000000000000000000000000000000000000000000 PUSH1 0x64 DUP3 ADD MSTORE PUSH1 0x84 ADD PUSH2 0x50C JUMP JUMPDEST PUSH1 0x0 PUSH1 0x60 PUSH1 0x0 DUP1 PUSH20 0x100000000000000000000000000000000000103 PUSH1 0x1 PUSH1 0x1 PUSH1 0xA0 SHL SUB AND DUP7 DUP7 PUSH1 0x40 MLOAD PUSH1 0x20 ADD PUSH2 0x3046 SWAP3 SWAP2 SWAP1 PUSH2 0x5095 JUMP JUMPDEST PUSH1 0x40 DUP1 MLOAD PUSH1 0x1F NOT DUP2 DUP5 SUB ADD DUP2 MSTORE SWAP1 DUP3 SWAP1 MSTORE PUSH2 0x3060 SWAP2 PUSH2 0x5057 JUMP JUMPDEST PUSH1 0x0 PUSH1 0x40 MLOAD DUP1 DUP4 SUB DUP2 DUP6 GAS STATICCALL SWAP2 POP POP RETURNDATASIZE DUP1 PUSH1 0x0 DUP2 EQ PUSH2 0x309B JUMPI PUSH1 0x40 MLOAD SWAP2 POP PUSH1 0x1F NOT PUSH1 0x3F RETURNDATASIZE ADD AND DUP3 ADD PUSH1 0x40 MSTORE RETURNDATASIZE DUP3 MSTORE RETURNDATASIZE PUSH1 0x0 PUSH1 0x20 DUP5 ADD RETURNDATACOPY PUSH2 0x30A0 JUMP JUMPDEST PUSH1 0x60 SWAP2 POP JUMPDEST POP SWAP2 POP SWAP2 POP DUP2 PUSH2 0x30DC JUMPI PUSH1 0x40 MLOAD PUSH32 0x902E94F800000000000000000000000000000000000000000000000000000000 DUP2 MSTORE PUSH1 0x4 ADD PUSH1 0x40 MLOAD DUP1 SWAP2 SUB SWAP1 REVERT JUMPDEST DUP1 DUP1 PUSH1 0x20 ADD SWAP1 MLOAD DUP2 ADD SWAP1 PUSH2 0x30F0 SWAP2 SWAP1 PUSH2 0x50EA JUMP JUMPDEST SWAP1 SWAP8 SWAP1 SWAP7 POP SWAP5 POP POP POP POP POP JUMP JUMPDEST PUSH1 0x0 DUP1 DUP3 PUSH1 0x7 DUP2 GT ISZERO PUSH2 0x3112 JUMPI PUSH2 0x3112 PUSH2 0x431B JUMP JUMPDEST EQ ISZERO DUP1 ISZERO PUSH2 0x2CE8 JUMPI POP PUSH1 0x1 DUP3 PUSH1 0x7 DUP2 GT ISZERO PUSH2 0x312F JUMPI PUSH2 0x312F PUSH2 0x431B JUMP JUMPDEST EQ ISZERO SWAP3 SWAP2 POP POP JUMP JUMPDEST PUSH1 0x0 DUP1 PUSH27 0x184F03E93FF9F4DAA797ED6E38ED64BF6A1F010000000000000000 DUP4 LT PUSH2 0x3180 JUMPI PUSH27 0x184F03E93FF9F4DAA797ED6E38ED64BF6A1F010000000000000000 DUP4 DIV SWAP3 POP PUSH1 0x40 ADD JUMPDEST PUSH14 0x4EE2D6D415B85ACEF8100000000 DUP4 LT PUSH2 0x31AC JUMPI PUSH14 0x4EE2D6D415B85ACEF8100000000 DUP4 DIV SWAP3 POP PUSH1 0x20 ADD JUMPDEST PUSH7 0x2386F26FC10000 DUP4 LT PUSH2 0x31CA JUMPI PUSH7 0x2386F26FC10000 DUP4 DIV SWAP3 POP PUSH1 0x10 ADD JUMPDEST PUSH4 0x5F5E100 DUP4 LT PUSH2 0x31E2 JUMPI PUSH4 0x5F5E100 DUP4 DIV SWAP3 POP PUSH1 0x8 ADD JUMPDEST PUSH2 0x2710 DUP4 LT PUSH2 0x31F6 JUMPI PUSH2 0x2710 DUP4 DIV SWAP3 POP PUSH1 0x4 ADD JUMPDEST PUSH1 0x64 DUP4 LT PUSH2 0x3208 JUMPI PUSH1 0x64 DUP4 DIV SWAP3 POP PUSH1 0x2 ADD JUMPDEST PUSH1 0xA DUP4 LT PUSH2 0x2CE8 JUMPI PUSH1 0x1 ADD SWAP3 SWAP2 POP POP JUMP JUMPDEST PUSH1 0x60 PUSH1 0x0 PUSH2 0x3227 DUP5 DUP5 PUSH2 0x4CAE JUMP JUMPDEST PUSH8 0xFFFFFFFFFFFFFFFF DUP2 GT ISZERO PUSH2 0x323F JUMPI PUSH2 0x323F PUSH2 0x45AB JUMP JUMPDEST PUSH1 0x40 MLOAD SWAP1 DUP1 DUP3 MSTORE DUP1 PUSH1 0x1F ADD PUSH1 0x1F NOT AND PUSH1 0x20 ADD DUP3 ADD PUSH1 0x40 MSTORE DUP1 ISZERO PUSH2 0x3269 JUMPI PUSH1 0x20 DUP3 ADD DUP2 DUP1 CALLDATASIZE DUP4 CALLDATACOPY ADD SWAP1 POP JUMPDEST POP SWAP1 POP DUP4 JUMPDEST DUP4 DUP2 LT DUP1 ISZERO PUSH2 0x327D JUMPI POP DUP6 MLOAD DUP2 LT JUMPDEST ISZERO PUSH2 0x32E7 JUMPI DUP6 DUP2 DUP2 MLOAD DUP2 LT PUSH2 0x3294 JUMPI PUSH2 0x3294 PUSH2 0x4CC1 JUMP JUMPDEST ADD PUSH1 0x20 ADD MLOAD PUSH1 0x1 PUSH1 0x1 PUSH1 0xF8 SHL SUB NOT AND DUP3 PUSH2 0x32AE DUP8 DUP5 PUSH2 0x4CAE JUMP JUMPDEST DUP2 MLOAD DUP2 LT PUSH2 0x32BE JUMPI PUSH2 0x32BE PUSH2 0x4CC1 JUMP JUMPDEST PUSH1 0x20 ADD ADD SWAP1 PUSH1 0x1 PUSH1 0x1 PUSH1 0xF8 SHL SUB NOT AND SWAP1 DUP2 PUSH1 0x0 BYTE SWAP1 MSTORE8 POP DUP1 PUSH2 0x32DF DUP2 PUSH2 0x500D JUMP JUMPDEST SWAP2 POP POP PUSH2 0x326E JUMP JUMPDEST POP SWAP5 SWAP4 POP POP POP POP JUMP JUMPDEST PUSH1 0x0 DUP2 MLOAD PUSH1 0x28 EQ PUSH2 0x332D JUMPI PUSH1 0x40 MLOAD PUSH32 0xACF8696900000000000000000000000000000000000000000000000000000000 DUP2 MSTORE PUSH1 0x4 ADD PUSH1 0x40 MLOAD DUP1 SWAP2 SUB SWAP1 REVERT JUMPDEST PUSH1 0x0 PUSH1 0x2 DUP4 MLOAD PUSH2 0x333D SWAP2 SWAP1 PUSH2 0x514F JUMP JUMPDEST PUSH8 0xFFFFFFFFFFFFFFFF DUP2 GT ISZERO PUSH2 0x3355 JUMPI PUSH2 0x3355 PUSH2 0x45AB JUMP JUMPDEST PUSH1 0x40 MLOAD SWAP1 DUP1 DUP3 MSTORE DUP1 PUSH1 0x1F ADD PUSH1 0x1F NOT AND PUSH1 0x20 ADD DUP3 ADD PUSH1 0x40 MSTORE DUP1 ISZERO PUSH2 0x337F JUMPI PUSH1 0x20 DUP3 ADD DUP2 DUP1 CALLDATASIZE DUP4 CALLDATACOPY ADD SWAP1 POP JUMPDEST POP SWAP1 POP PUSH1 0x0 JUMPDEST PUSH1 0x2 DUP5 MLOAD PUSH2 0x3393 SWAP2 SWAP1 PUSH2 0x514F JUMP JUMPDEST DUP2 LT ISZERO PUSH2 0x3429 JUMPI PUSH2 0x33D1 DUP5 PUSH2 0x33A9 DUP4 PUSH1 0x2 PUSH2 0x5163 JUMP JUMPDEST PUSH2 0x33B4 SWAP1 PUSH1 0x1 PUSH2 0x4D0B JUMP JUMPDEST DUP2 MLOAD DUP2 LT PUSH2 0x33C4 JUMPI PUSH2 0x33C4 PUSH2 0x4CC1 JUMP JUMPDEST ADD PUSH1 0x20 ADD MLOAD PUSH1 0xF8 SHR PUSH2 0x3C43 JUMP JUMPDEST PUSH2 0x33E0 DUP6 PUSH2 0x33B4 DUP5 PUSH1 0x2 PUSH2 0x5163 JUMP JUMPDEST PUSH2 0x33EB SWAP1 PUSH1 0x10 PUSH2 0x517A JUMP JUMPDEST PUSH2 0x33F5 SWAP2 SWAP1 PUSH2 0x5196 JUMP JUMPDEST PUSH1 0xF8 SHL DUP3 DUP3 DUP2 MLOAD DUP2 LT PUSH2 0x340A JUMPI PUSH2 0x340A PUSH2 0x4CC1 JUMP JUMPDEST PUSH1 0x20 ADD ADD SWAP1 PUSH1 0x1 PUSH1 0x1 PUSH1 0xF8 SHL SUB NOT AND SWAP1 DUP2 PUSH1 0x0 BYTE SWAP1 MSTORE8 POP PUSH1 0x1 ADD PUSH2 0x3385 JUMP JUMPDEST POP PUSH2 0x3433 DUP2 PUSH2 0x51AF JUMP JUMPDEST PUSH1 0x60 SHR SWAP4 SWAP3 POP POP POP JUMP JUMPDEST PUSH1 0x60 PUSH1 0x0 DUP3 JUMPDEST DUP6 DUP2 LT ISZERO PUSH2 0x3574 JUMPI DUP7 DUP7 DUP3 DUP2 DUP2 LT PUSH2 0x345D JUMPI PUSH2 0x345D PUSH2 0x4CC1 JUMP JUMPDEST SWAP1 SWAP2 ADD CALLDATALOAD PUSH1 0x1 PUSH1 0x1 PUSH1 0xF8 SHL SUB NOT AND PUSH32 0x3A00000000000000000000000000000000000000000000000000000000000000 SUB SWAP1 POP PUSH2 0x3562 JUMPI DUP5 DUP1 MLOAD SWAP1 PUSH1 0x20 ADD KECCAK256 PUSH2 0x34DE DUP9 DUP9 DUP1 DUP1 PUSH1 0x1F ADD PUSH1 0x20 DUP1 SWAP2 DIV MUL PUSH1 0x20 ADD PUSH1 0x40 MLOAD SWAP1 DUP2 ADD PUSH1 0x40 MSTORE DUP1 SWAP4 SWAP3 SWAP2 SWAP1 DUP2 DUP2 MSTORE PUSH1 0x20 ADD DUP4 DUP4 DUP1 DUP3 DUP5 CALLDATACOPY PUSH1 0x0 SWAP3 ADD SWAP2 SWAP1 SWAP2 MSTORE POP DUP10 SWAP3 POP DUP7 SWAP2 POP PUSH2 0x3219 SWAP1 POP JUMP JUMPDEST DUP1 MLOAD SWAP1 PUSH1 0x20 ADD KECCAK256 EQ PUSH2 0x3503 JUMPI POP POP PUSH1 0x40 DUP1 MLOAD PUSH1 0x20 DUP2 ADD SWAP1 SWAP2 MSTORE PUSH1 0x0 DUP2 MSTORE SWAP1 POP DUP2 PUSH2 0x3650 JUMP JUMPDEST DUP1 PUSH2 0x350D DUP2 PUSH2 0x500D JUMP JUMPDEST SWAP2 POP POP DUP6 DUP2 LT DUP1 ISZERO PUSH2 0x3547 JUMPI POP DUP7 DUP7 DUP3 DUP2 DUP2 LT PUSH2 0x352C JUMPI PUSH2 0x352C PUSH2 0x4CC1 JUMP JUMPDEST SWAP1 POP ADD CALLDATALOAD PUSH1 0xF8 SHR PUSH1 0xF8 SHL PUSH1 0x1 PUSH1 0x1 PUSH1 0xF8 SHL SUB NOT AND PUSH1 0x1 PUSH1 0xFD SHL EQ JUMPDEST ISZERO PUSH2 0x355A JUMPI DUP1 PUSH2 0x3556 DUP2 PUSH2 0x500D JUMP JUMPDEST SWAP2 POP POP JUMPDEST DUP1 SWAP4 POP PUSH2 0x3574 JUMP JUMPDEST DUP1 PUSH2 0x356C DUP2 PUSH2 0x500D JUMP JUMPDEST SWAP2 POP POP PUSH2 0x3443 JUMP JUMPDEST DUP6 DUP2 LT ISZERO PUSH2 0x3608 JUMPI DUP7 DUP7 DUP3 DUP2 DUP2 LT PUSH2 0x358E JUMPI PUSH2 0x358E PUSH2 0x4CC1 JUMP JUMPDEST SWAP1 SWAP2 ADD CALLDATALOAD PUSH1 0x1 PUSH1 0x1 PUSH1 0xF8 SHL SUB NOT AND PUSH1 0x5 PUSH1 0xF9 SHL SUB SWAP1 POP PUSH2 0x3600 JUMPI PUSH2 0x35EB DUP8 DUP8 DUP1 DUP1 PUSH1 0x1F ADD PUSH1 0x20 DUP1 SWAP2 DIV MUL PUSH1 0x20 ADD PUSH1 0x40 MLOAD SWAP1 DUP2 ADD PUSH1 0x40 MSTORE DUP1 SWAP4 SWAP3 SWAP2 SWAP1 DUP2 DUP2 MSTORE PUSH1 0x20 ADD DUP4 DUP4 DUP1 DUP3 DUP5 CALLDATACOPY PUSH1 0x0 SWAP3 ADD SWAP2 SWAP1 SWAP2 MSTORE POP DUP9 SWAP3 POP DUP6 SWAP2 POP PUSH2 0x3219 SWAP1 POP JUMP JUMPDEST PUSH2 0x35F6 DUP3 PUSH1 0x1 PUSH2 0x4D0B JUMP JUMPDEST SWAP3 POP SWAP3 POP POP PUSH2 0x3650 JUMP JUMPDEST PUSH1 0x1 ADD PUSH2 0x3574 JUMP JUMPDEST PUSH2 0x364B DUP8 DUP8 DUP1 DUP1 PUSH1 0x1F ADD PUSH1 0x20 DUP1 SWAP2 DIV MUL PUSH1 0x20 ADD PUSH1 0x40 MLOAD SWAP1 DUP2 ADD PUSH1 0x40 MSTORE DUP1 SWAP4 SWAP3 SWAP2 SWAP1 DUP2 DUP2 MSTORE PUSH1 0x20 ADD DUP4 DUP4 DUP1 DUP3 DUP5 CALLDATACOPY PUSH1 0x0 SWAP3 ADD SWAP2 SWAP1 SWAP2 MSTORE POP DUP9 SWAP3 POP DUP6 SWAP2 POP PUSH2 0x3219 SWAP1 POP JUMP JUMPDEST SWAP3 POP SWAP1 POP JUMPDEST SWAP5 POP SWAP5 SWAP3 POP POP POP JUMP JUMPDEST PUSH1 0x0 DUP1 DUP1 JUMPDEST DUP4 MLOAD DUP2 LT ISZERO PUSH2 0x36AC JUMPI PUSH1 0x30 DUP5 DUP3 DUP2 MLOAD DUP2 LT PUSH2 0x367B JUMPI PUSH2 0x367B PUSH2 0x4CC1 JUMP JUMPDEST ADD PUSH1 0x20 ADD MLOAD PUSH2 0x368D SWAP2 SWAP1 PUSH1 0xF8 SHR PUSH2 0x4CAE JUMP JUMPDEST PUSH2 0x3698 DUP4 PUSH1 0xA PUSH2 0x5163 JUMP JUMPDEST PUSH2 0x36A2 SWAP2 SWAP1 PUSH2 0x4D0B JUMP JUMPDEST SWAP2 POP PUSH1 0x1 ADD PUSH2 0x365E JUMP JUMPDEST POP SWAP3 SWAP2 POP POP JUMP JUMPDEST PUSH1 0x60 PUSH1 0x0 DUP3 DUP2 JUMPDEST PUSH2 0x36C5 PUSH1 0x1 DUP8 PUSH2 0x4CAE JUMP JUMPDEST DUP3 LT ISZERO PUSH2 0x37C0 JUMPI DUP7 DUP7 DUP4 DUP2 DUP2 LT PUSH2 0x36DE JUMPI PUSH2 0x36DE PUSH2 0x4CC1 JUMP JUMPDEST SWAP1 POP ADD CALLDATALOAD PUSH1 0xF8 SHR PUSH1 0xF8 SHL PUSH1 0x1 PUSH1 0x1 PUSH1 0xF8 SHL SUB NOT AND PUSH1 0x2D PUSH1 0xF8 SHL EQ DUP1 ISZERO PUSH2 0x3736 JUMPI POP DUP7 DUP7 PUSH2 0x370C DUP5 PUSH1 0x1 PUSH2 0x4D0B JUMP JUMPDEST DUP2 DUP2 LT PUSH2 0x371B JUMPI PUSH2 0x371B PUSH2 0x4CC1 JUMP JUMPDEST SWAP1 POP ADD CALLDATALOAD PUSH1 0xF8 SHR PUSH1 0xF8 SHL PUSH1 0x1 PUSH1 0x1 PUSH1 0xF8 SHL SUB NOT AND PUSH1 0x1 PUSH1 0xFD SHL EQ JUMPDEST ISZERO PUSH2 0x375A JUMPI PUSH2 0x3746 PUSH1 0x2 DUP4 PUSH2 0x4D0B JUMP JUMPDEST SWAP2 POP DUP1 PUSH2 0x3752 DUP2 PUSH2 0x500D JUMP JUMPDEST SWAP2 POP POP PUSH2 0x375F JUMP JUMPDEST PUSH2 0x37C0 JUMP JUMPDEST DUP6 DUP3 LT DUP1 ISZERO PUSH2 0x3797 JUMPI POP DUP7 DUP7 DUP4 DUP2 DUP2 LT PUSH2 0x377B JUMPI PUSH2 0x377B PUSH2 0x4CC1 JUMP JUMPDEST SWAP1 POP ADD CALLDATALOAD PUSH1 0xF8 SHR PUSH1 0xF8 SHL PUSH1 0x1 PUSH1 0x1 PUSH1 0xF8 SHL SUB NOT AND PUSH1 0xA PUSH1 0xF8 SHL EQ ISZERO JUMPDEST ISZERO PUSH2 0x37AE JUMPI DUP2 PUSH2 0x37A6 DUP2 PUSH2 0x500D JUMP JUMPDEST SWAP3 POP POP PUSH2 0x375F JUMP JUMPDEST DUP2 PUSH2 0x37B8 DUP2 PUSH2 0x500D JUMP JUMPDEST SWAP3 POP POP PUSH2 0x36BA JUMP JUMPDEST PUSH1 0x0 DUP2 PUSH8 0xFFFFFFFFFFFFFFFF DUP2 GT ISZERO PUSH2 0x37DB JUMPI PUSH2 0x37DB PUSH2 0x45AB JUMP JUMPDEST PUSH1 0x40 MLOAD SWAP1 DUP1 DUP3 MSTORE DUP1 PUSH1 0x20 MUL PUSH1 0x20 ADD DUP3 ADD PUSH1 0x40 MSTORE DUP1 ISZERO PUSH2 0x380E JUMPI DUP2 PUSH1 0x20 ADD JUMPDEST PUSH1 0x60 DUP2 MSTORE PUSH1 0x20 ADD SWAP1 PUSH1 0x1 SWAP1 SUB SWAP1 DUP2 PUSH2 0x37F9 JUMPI SWAP1 POP JUMPDEST POP SWAP1 POP DUP6 SWAP3 POP PUSH1 0x0 JUMPDEST PUSH2 0x3822 PUSH1 0x1 DUP10 PUSH2 0x4CAE JUMP JUMPDEST DUP5 LT DUP1 ISZERO PUSH2 0x3830 JUMPI POP DUP3 DUP2 EQ ISZERO JUMPDEST ISZERO PUSH2 0x3996 JUMPI DUP9 DUP9 DUP6 DUP2 DUP2 LT PUSH2 0x3847 JUMPI PUSH2 0x3847 PUSH2 0x4CC1 JUMP JUMPDEST SWAP1 POP ADD CALLDATALOAD PUSH1 0xF8 SHR PUSH1 0xF8 SHL PUSH1 0x1 PUSH1 0x1 PUSH1 0xF8 SHL SUB NOT AND PUSH1 0x2D PUSH1 0xF8 SHL EQ DUP1 ISZERO PUSH2 0x389F JUMPI POP DUP9 DUP9 PUSH2 0x3875 DUP7 PUSH1 0x1 PUSH2 0x4D0B JUMP JUMPDEST DUP2 DUP2 LT PUSH2 0x3884 JUMPI PUSH2 0x3884 PUSH2 0x4CC1 JUMP JUMPDEST SWAP1 POP ADD CALLDATALOAD PUSH1 0xF8 SHR PUSH1 0xF8 SHL PUSH1 0x1 PUSH1 0x1 PUSH1 0xF8 SHL SUB NOT AND PUSH1 0x1 PUSH1 0xFD SHL EQ JUMPDEST ISZERO PUSH2 0x38B2 JUMPI PUSH2 0x38AF DUP5 PUSH1 0x2 PUSH2 0x4D0B JUMP JUMPDEST SWAP7 POP JUMPDEST DUP8 DUP5 LT DUP1 ISZERO PUSH2 0x38EA JUMPI POP DUP9 DUP9 DUP6 DUP2 DUP2 LT PUSH2 0x38CE JUMPI PUSH2 0x38CE PUSH2 0x4CC1 JUMP JUMPDEST SWAP1 POP ADD CALLDATALOAD PUSH1 0xF8 SHR PUSH1 0xF8 SHL PUSH1 0x1 PUSH1 0x1 PUSH1 0xF8 SHL SUB NOT AND PUSH1 0xA PUSH1 0xF8 SHL EQ ISZERO JUMPDEST ISZERO PUSH2 0x3901 JUMPI DUP4 PUSH2 0x38F9 DUP2 PUSH2 0x500D JUMP JUMPDEST SWAP5 POP POP PUSH2 0x38B2 JUMP JUMPDEST PUSH2 0x3944 DUP10 DUP10 DUP1 DUP1 PUSH1 0x1F ADD PUSH1 0x20 DUP1 SWAP2 DIV MUL PUSH1 0x20 ADD PUSH1 0x40 MLOAD SWAP1 DUP2 ADD PUSH1 0x40 MSTORE DUP1 SWAP4 SWAP3 SWAP2 SWAP1 DUP2 DUP2 MSTORE PUSH1 0x20 ADD DUP4 DUP4 DUP1 DUP3 DUP5 CALLDATACOPY PUSH1 0x0 SWAP3 ADD SWAP2 SWAP1 SWAP2 MSTORE POP DUP12 SWAP3 POP DUP9 SWAP2 POP PUSH2 0x3219 SWAP1 POP JUMP JUMPDEST DUP3 DUP3 DUP2 MLOAD DUP2 LT PUSH2 0x3956 JUMPI PUSH2 0x3956 PUSH2 0x4CC1 JUMP JUMPDEST PUSH1 0x20 MUL PUSH1 0x20 ADD ADD DUP2 SWAP1 MSTORE POP DUP1 DUP1 PUSH2 0x396C SWAP1 PUSH2 0x500D JUMP JUMPDEST SWAP2 POP POP DUP8 DUP5 SUB PUSH2 0x3984 JUMPI DUP4 PUSH2 0x3980 DUP2 PUSH2 0x5202 JUMP JUMPDEST SWAP5 POP POP JUMPDEST DUP4 PUSH2 0x398E DUP2 PUSH2 0x500D JUMP JUMPDEST SWAP5 POP POP PUSH2 0x3817 JUMP JUMPDEST POP SWAP8 SWAP2 SWAP7 POP SWAP1 SWAP5 POP POP POP POP POP JUMP JUMPDEST PUSH1 0x0 PUSH2 0x7B2 JUMPDEST DUP8 PUSH2 0xFFFF AND DUP2 PUSH2 0xFFFF AND LT ISZERO PUSH2 0x39F6 JUMPI PUSH2 0x39C3 DUP2 PUSH2 0x3DCF JUMP JUMPDEST ISZERO PUSH2 0x39DD JUMPI PUSH2 0x39D6 PUSH4 0x1E28500 DUP4 PUSH2 0x4D0B JUMP JUMPDEST SWAP2 POP PUSH2 0x39EE JUMP JUMPDEST PUSH2 0x39EB PUSH4 0x1E13380 DUP4 PUSH2 0x4D0B JUMP JUMPDEST SWAP2 POP JUMPDEST PUSH1 0x1 ADD PUSH2 0x39AA JUMP JUMPDEST PUSH2 0x39FE PUSH2 0x420F JUMP JUMPDEST PUSH1 0x1F DUP2 MSTORE PUSH2 0x3A0B DUP10 PUSH2 0x3DCF JUMP JUMPDEST ISZERO PUSH2 0x3A1C JUMPI PUSH1 0x1D PUSH1 0x20 DUP3 ADD MSTORE PUSH2 0x3A24 JUMP JUMPDEST PUSH1 0x1C PUSH1 0x20 DUP3 ADD MSTORE JUMPDEST PUSH1 0x1F PUSH1 0x40 DUP3 ADD DUP2 SWAP1 MSTORE PUSH1 0x1E PUSH1 0x60 DUP4 ADD DUP2 SWAP1 MSTORE PUSH1 0x80 DUP4 ADD DUP3 SWAP1 MSTORE PUSH1 0xA0 DUP4 ADD DUP2 SWAP1 MSTORE PUSH1 0xC0 DUP4 ADD DUP3 SWAP1 MSTORE PUSH1 0xE0 DUP4 ADD DUP3 SWAP1 MSTORE PUSH2 0x100 DUP4 ADD DUP2 SWAP1 MSTORE PUSH2 0x120 DUP4 ADD DUP3 SWAP1 MSTORE PUSH2 0x140 DUP4 ADD MSTORE PUSH2 0x160 DUP3 ADD MSTORE PUSH1 0x1 SWAP2 POP JUMPDEST DUP8 PUSH1 0xFF AND DUP3 PUSH2 0xFFFF AND LT ISZERO PUSH2 0x3AD1 JUMPI DUP1 PUSH2 0x3A8E PUSH1 0x1 DUP5 PUSH2 0x5219 JUMP JUMPDEST PUSH2 0xFFFF AND PUSH1 0xC DUP2 LT PUSH2 0x3AA2 JUMPI PUSH2 0x3AA2 PUSH2 0x4CC1 JUMP JUMPDEST PUSH1 0x20 MUL ADD MLOAD PUSH2 0x3AB4 SWAP1 PUSH3 0x15180 PUSH2 0x5233 JUMP JUMPDEST PUSH2 0x3AC4 SWAP1 PUSH4 0xFFFFFFFF AND DUP5 PUSH2 0x4D0B JUMP JUMPDEST SWAP3 POP PUSH1 0x1 SWAP1 SWAP2 ADD SWAP1 PUSH2 0x3A73 JUMP JUMPDEST PUSH2 0x3ADC PUSH1 0x1 DUP9 PUSH2 0x5252 JUMP JUMPDEST PUSH2 0x3AEC SWAP1 PUSH1 0xFF AND PUSH3 0x15180 PUSH2 0x5233 JUMP JUMPDEST PUSH2 0x3AFC SWAP1 PUSH4 0xFFFFFFFF AND DUP5 PUSH2 0x4D0B JUMP JUMPDEST SWAP3 POP PUSH2 0x3B0D PUSH1 0xFF DUP8 AND PUSH2 0xE10 PUSH2 0x5233 JUMP JUMPDEST PUSH2 0x3B1D SWAP1 PUSH4 0xFFFFFFFF AND DUP5 PUSH2 0x4D0B JUMP JUMPDEST SWAP3 POP PUSH2 0x3B2D PUSH1 0xFF DUP7 AND PUSH1 0x3C PUSH2 0x526B JUMP JUMPDEST PUSH2 0x3B3B SWAP1 PUSH2 0xFFFF AND DUP5 PUSH2 0x4D0B JUMP JUMPDEST SWAP3 POP PUSH2 0x3B4A PUSH1 0xFF DUP6 AND DUP5 PUSH2 0x4D0B JUMP JUMPDEST SWAP10 SWAP9 POP POP POP POP POP POP POP POP POP JUMP JUMPDEST PUSH2 0x3B92 PUSH1 0x40 MLOAD DUP1 PUSH1 0xA0 ADD PUSH1 0x40 MSTORE DUP1 PUSH1 0x60 DUP2 MSTORE PUSH1 0x20 ADD PUSH1 0x0 PUSH1 0x1 PUSH1 0x1 PUSH1 0xA0 SHL SUB AND DUP2 MSTORE PUSH1 0x20 ADD PUSH1 0x0 DUP2 MSTORE PUSH1 0x20 ADD PUSH1 0x60 DUP2 MSTORE PUSH1 0x20 ADD PUSH1 0x60 DUP2 MSTORE POP SWAP1 JUMP JUMPDEST PUSH1 0x0 PUSH2 0x3BB4 PUSH1 0x2 SLOAD PUSH1 0x0 DUP1 SHL DUP6 PUSH1 0x40 MLOAD DUP1 PUSH1 0x20 ADD PUSH1 0x40 MSTORE DUP1 PUSH1 0x0 DUP2 MSTORE POP PUSH2 0x3E2E JUMP JUMPDEST SWAP1 POP PUSH1 0x0 DUP2 DUP1 PUSH1 0x20 ADD SWAP1 MLOAD DUP2 ADD SWAP1 PUSH2 0x3BCC SWAP2 SWAP1 PUSH2 0x5336 JUMP JUMPDEST SWAP1 POP PUSH1 0x1 PUSH1 0x40 MLOAD PUSH2 0x3BDD SWAP2 SWAP1 PUSH2 0x4E78 JUMP JUMPDEST PUSH1 0x40 MLOAD DUP1 SWAP2 SUB SWAP1 KECCAK256 DUP2 PUSH1 0x0 ADD MLOAD DUP1 MLOAD SWAP1 PUSH1 0x20 ADD KECCAK256 EQ PUSH2 0x3C0F JUMPI PUSH1 0x40 MLOAD PUSH4 0x283D62BD PUSH1 0xE0 SHL DUP2 MSTORE PUSH1 0x4 ADD PUSH1 0x40 MLOAD DUP1 SWAP2 SUB SWAP1 REVERT JUMPDEST TIMESTAMP DUP2 PUSH1 0x40 ADD MLOAD LT ISZERO PUSH2 0x1563 JUMPI PUSH1 0x40 MLOAD PUSH4 0xB171155 PUSH1 0xE4 SHL DUP2 MSTORE PUSH1 0x4 ADD PUSH1 0x40 MLOAD DUP1 SWAP2 SUB SWAP1 REVERT JUMPDEST PUSH1 0x60 PUSH2 0x2E47 DUP5 DUP5 PUSH1 0x0 DUP6 PUSH2 0x3F14 JUMP JUMPDEST PUSH1 0x0 PUSH32 0x3000000000000000000000000000000000000000000000000000000000000000 PUSH1 0xF8 DUP4 SWAP1 SHL PUSH1 0x1 PUSH1 0x1 PUSH1 0xF8 SHL SUB NOT AND LT DUP1 ISZERO SWAP1 PUSH2 0x3CB1 JUMPI POP PUSH32 0x3900000000000000000000000000000000000000000000000000000000000000 PUSH1 0xF8 DUP4 SWAP1 SHL PUSH1 0x1 PUSH1 0x1 PUSH1 0xF8 SHL SUB NOT AND GT ISZERO JUMPDEST ISZERO PUSH2 0x3CC1 JUMPI PUSH2 0x2CE8 PUSH1 0x30 DUP4 PUSH2 0x5252 JUMP JUMPDEST PUSH32 0x6100000000000000000000000000000000000000000000000000000000000000 PUSH1 0xF8 DUP4 SWAP1 SHL PUSH1 0x1 PUSH1 0x1 PUSH1 0xF8 SHL SUB NOT AND LT DUP1 ISZERO SWAP1 PUSH2 0x3D2D JUMPI POP PUSH32 0x6600000000000000000000000000000000000000000000000000000000000000 PUSH1 0xF8 DUP4 SWAP1 SHL PUSH1 0x1 PUSH1 0x1 PUSH1 0xF8 SHL SUB NOT AND GT ISZERO JUMPDEST ISZERO PUSH2 0x3D49 JUMPI PUSH1 0x61 PUSH2 0x3D3F DUP4 PUSH1 0xA PUSH2 0x5196 JUMP JUMPDEST PUSH2 0x2CE8 SWAP2 SWAP1 PUSH2 0x5252 JUMP JUMPDEST PUSH32 0x4100000000000000000000000000000000000000000000000000000000000000 PUSH1 0xF8 DUP4 SWAP1 SHL PUSH1 0x1 PUSH1 0x1 PUSH1 0xF8 SHL SUB NOT AND LT DUP1 ISZERO SWAP1 PUSH2 0x3DB5 JUMPI POP PUSH32 0x4600000000000000000000000000000000000000000000000000000000000000 PUSH1 0xF8 DUP4 SWAP1 SHL PUSH1 0x1 PUSH1 0x1 PUSH1 0xF8 SHL SUB NOT AND GT ISZERO JUMPDEST ISZERO PUSH2 0x3DC7 JUMPI PUSH1 0x41 PUSH2 0x3D3F DUP4 PUSH1 0xA PUSH2 0x5196 JUMP JUMPDEST POP PUSH1 0x0 SWAP2 SWAP1 POP JUMP JUMPDEST PUSH1 0x0 PUSH2 0x3DDC PUSH1 0x4 DUP4 PUSH2 0x541A JUMP JUMPDEST PUSH2 0xFFFF AND ISZERO PUSH2 0x3DED JUMPI POP PUSH1 0x0 SWAP2 SWAP1 POP JUMP JUMPDEST PUSH2 0x3DF8 PUSH1 0x64 DUP4 PUSH2 0x541A JUMP JUMPDEST PUSH2 0xFFFF AND ISZERO PUSH2 0x3E09 JUMPI POP PUSH1 0x1 SWAP2 SWAP1 POP JUMP JUMPDEST PUSH2 0x3E15 PUSH2 0x190 DUP4 PUSH2 0x541A JUMP JUMPDEST PUSH2 0xFFFF AND ISZERO PUSH2 0x3E26 JUMPI POP PUSH1 0x0 SWAP2 SWAP1 POP JUMP JUMPDEST POP PUSH1 0x1 SWAP2 SWAP1 POP JUMP JUMPDEST PUSH1 0x60 PUSH1 0x0 DUP1 PUSH20 0x100000000000000000000000000000000000004 PUSH1 0x1 PUSH1 0x1 PUSH1 0xA0 SHL SUB AND DUP8 DUP8 DUP8 DUP8 PUSH1 0x40 MLOAD PUSH1 0x20 ADD PUSH2 0x3E68 SWAP5 SWAP4 SWAP3 SWAP2 SWAP1 PUSH2 0x5026 JUMP JUMPDEST PUSH1 0x40 DUP1 MLOAD PUSH1 0x1F NOT DUP2 DUP5 SUB ADD DUP2 MSTORE SWAP1 DUP3 SWAP1 MSTORE PUSH2 0x3E82 SWAP2 PUSH2 0x5057 JUMP JUMPDEST PUSH1 0x0 PUSH1 0x40 MLOAD DUP1 DUP4 SUB DUP2 DUP6 GAS STATICCALL SWAP2 POP POP RETURNDATASIZE DUP1 PUSH1 0x0 DUP2 EQ PUSH2 0x3EBD JUMPI PUSH1 0x40 MLOAD SWAP2 POP PUSH1 0x1F NOT PUSH1 0x3F RETURNDATASIZE ADD AND DUP3 ADD PUSH1 0x40 MSTORE RETURNDATASIZE DUP3 MSTORE RETURNDATASIZE PUSH1 0x0 PUSH1 0x20 DUP5 ADD RETURNDATACOPY PUSH2 0x3EC2 JUMP JUMPDEST PUSH1 0x60 SWAP2 POP JUMPDEST POP SWAP2 POP SWAP2 POP DUP2 PUSH2 0x2E43 JUMPI PUSH1 0x40 MLOAD PUSH3 0x461BCD PUSH1 0xE5 SHL DUP2 MSTORE PUSH1 0x20 PUSH1 0x4 DUP3 ADD MSTORE PUSH1 0xF PUSH1 0x24 DUP3 ADD MSTORE PUSH32 0x646563727970743A206661696C65640000000000000000000000000000000000 PUSH1 0x44 DUP3 ADD MSTORE PUSH1 0x64 ADD PUSH2 0x50C JUMP JUMPDEST PUSH1 0x60 DUP3 SELFBALANCE LT ISZERO PUSH2 0x3F8C JUMPI PUSH1 0x40 MLOAD PUSH3 0x461BCD PUSH1 0xE5 SHL DUP2 MSTORE PUSH1 0x20 PUSH1 0x4 DUP3 ADD MSTORE PUSH1 0x26 PUSH1 0x24 DUP3 ADD MSTORE PUSH32 0x416464726573733A20696E73756666696369656E742062616C616E636520666F PUSH1 0x44 DUP3 ADD MSTORE PUSH32 0x722063616C6C0000000000000000000000000000000000000000000000000000 PUSH1 0x64 DUP3 ADD MSTORE PUSH1 0x84 ADD PUSH2 0x50C JUMP JUMPDEST PUSH1 0x0 DUP1 DUP7 PUSH1 0x1 PUSH1 0x1 PUSH1 0xA0 SHL SUB AND DUP6 DUP8 PUSH1 0x40 MLOAD PUSH2 0x3FA8 SWAP2 SWAP1 PUSH2 0x5057 JUMP JUMPDEST PUSH1 0x0 PUSH1 0x40 MLOAD DUP1 DUP4 SUB DUP2 DUP6 DUP8 GAS CALL SWAP3 POP POP POP RETURNDATASIZE DUP1 PUSH1 0x0 DUP2 EQ PUSH2 0x3FE5 JUMPI PUSH1 0x40 MLOAD SWAP2 POP PUSH1 0x1F NOT PUSH1 0x3F RETURNDATASIZE ADD AND DUP3 ADD PUSH1 0x40 MSTORE RETURNDATASIZE DUP3 MSTORE RETURNDATASIZE PUSH1 0x0 PUSH1 0x20 DUP5 ADD RETURNDATACOPY PUSH2 0x3FEA JUMP JUMPDEST PUSH1 0x60 SWAP2 POP JUMPDEST POP SWAP2 POP SWAP2 POP PUSH2 0x3FFB DUP8 DUP4 DUP4 DUP8 PUSH2 0x4006 JUMP JUMPDEST SWAP8 SWAP7 POP POP POP POP POP POP POP JUMP JUMPDEST PUSH1 0x60 DUP4 ISZERO PUSH2 0x4075 JUMPI DUP3 MLOAD PUSH1 0x0 SUB PUSH2 0x406E JUMPI PUSH1 0x1 PUSH1 0x1 PUSH1 0xA0 SHL SUB DUP6 AND EXTCODESIZE PUSH2 0x406E JUMPI PUSH1 0x40 MLOAD PUSH3 0x461BCD PUSH1 0xE5 SHL DUP2 MSTORE PUSH1 0x20 PUSH1 0x4 DUP3 ADD MSTORE PUSH1 0x1D PUSH1 0x24 DUP3 ADD MSTORE PUSH32 0x416464726573733A2063616C6C20746F206E6F6E2D636F6E7472616374000000 PUSH1 0x44 DUP3 ADD MSTORE PUSH1 0x64 ADD PUSH2 0x50C JUMP JUMPDEST POP DUP2 PUSH2 0x2E47 JUMP JUMPDEST PUSH2 0x2E47 DUP4 DUP4 DUP2 MLOAD ISZERO PUSH2 0x408A JUMPI DUP2 MLOAD DUP1 DUP4 PUSH1 0x20 ADD REVERT JUMPDEST DUP1 PUSH1 0x40 MLOAD PUSH3 0x461BCD PUSH1 0xE5 SHL DUP2 MSTORE PUSH1 0x4 ADD PUSH2 0x50C SWAP2 SWAP1 PUSH2 0x4905 JUMP JUMPDEST PUSH1 0x40 DUP1 MLOAD PUSH2 0x120 DUP2 ADD SWAP1 SWAP2 MSTORE DUP1 PUSH1 0x0 DUP2 MSTORE PUSH1 0x20 ADD PUSH1 0x0 DUP2 MSTORE PUSH1 0x20 ADD PUSH1 0x0 DUP2 MSTORE PUSH1 0x20 ADD PUSH1 0x0 DUP2 MSTORE PUSH1 0x20 ADD PUSH1 0x0 PUSH1 0x5 DUP2 GT ISZERO PUSH2 0x40E0 JUMPI PUSH2 0x40E0 PUSH2 0x431B JUMP JUMPDEST DUP2 MSTORE PUSH1 0x20 ADD PUSH1 0x60 DUP2 MSTORE PUSH1 0x20 ADD PUSH1 0x60 DUP2 MSTORE PUSH1 0x20 ADD PUSH1 0x60 DUP2 MSTORE PUSH1 0x20 ADD PUSH1 0x60 DUP2 MSTORE POP SWAP1 JUMP JUMPDEST DUP3 DUP1 SLOAD DUP3 DUP3 SSTORE SWAP1 PUSH1 0x0 MSTORE PUSH1 0x20 PUSH1 0x0 KECCAK256 SWAP1 DUP2 ADD SWAP3 DUP3 ISZERO PUSH2 0x413D JUMPI SWAP2 PUSH1 0x20 MUL DUP3 ADD JUMPDEST DUP3 DUP2 GT ISZERO PUSH2 0x413D JUMPI DUP3 MLOAD DUP3 SSTORE SWAP2 PUSH1 0x20 ADD SWAP2 SWAP1 PUSH1 0x1 ADD SWAP1 PUSH2 0x4122 JUMP JUMPDEST POP PUSH2 0x4149 SWAP3 SWAP2 POP PUSH2 0x422E JUMP JUMPDEST POP SWAP1 JUMP JUMPDEST PUSH1 0x40 MLOAD DUP1 PUSH2 0x1A0 ADD PUSH1 0x40 MSTORE DUP1 PUSH1 0x0 DUP1 NOT AND DUP2 MSTORE PUSH1 0x20 ADD PUSH1 0x0 DUP2 MSTORE PUSH1 0x20 ADD PUSH1 0x0 DUP2 MSTORE PUSH1 0x20 ADD PUSH1 0x0 DUP2 MSTORE PUSH1 0x20 ADD PUSH1 0x0 DUP2 MSTORE PUSH1 0x20 ADD PUSH1 0x0 DUP2 MSTORE PUSH1 0x20 ADD PUSH1 0x0 DUP2 MSTORE PUSH1 0x20 ADD PUSH1 0x0 DUP2 MSTORE PUSH1 0x20 ADD PUSH1 0x0 DUP2 MSTORE PUSH1 0x20 ADD PUSH1 0x0 DUP2 MSTORE PUSH1 0x20 ADD PUSH1 0x0 DUP2 MSTORE PUSH1 0x20 ADD PUSH1 0x0 PUSH1 0x7 DUP2 GT ISZERO PUSH2 0x41BC JUMPI PUSH2 0x41BC PUSH2 0x431B JUMP JUMPDEST DUP2 MSTORE PUSH1 0x20 ADD PUSH1 0x60 DUP2 MSTORE POP SWAP1 JUMP JUMPDEST PUSH1 0x40 MLOAD DUP1 PUSH1 0xC0 ADD PUSH1 0x40 MSTORE DUP1 PUSH1 0x0 DUP2 MSTORE PUSH1 0x20 ADD PUSH1 0x0 DUP2 MSTORE PUSH1 0x20 ADD PUSH1 0x0 PUSH1 0x1 DUP2 GT ISZERO PUSH2 0x41F5 JUMPI PUSH2 0x41F5 PUSH2 0x431B JUMP JUMPDEST DUP2 MSTORE PUSH1 0x60 PUSH1 0x20 DUP3 ADD DUP2 SWAP1 MSTORE PUSH1 0x40 DUP3 ADD DUP2 SWAP1 MSTORE ADD PUSH1 0x0 SWAP1 MSTORE SWAP1 JUMP JUMPDEST PUSH1 0x40 MLOAD DUP1 PUSH2 0x180 ADD PUSH1 0x40 MSTORE DUP1 PUSH1 0xC SWAP1 PUSH1 0x20 DUP3 MUL DUP1 CALLDATASIZE DUP4 CALLDATACOPY POP SWAP2 SWAP3 SWAP2 POP POP JUMP JUMPDEST JUMPDEST DUP1 DUP3 GT ISZERO PUSH2 0x4149 JUMPI PUSH1 0x0 DUP2 SSTORE PUSH1 0x1 ADD PUSH2 0x422F JUMP JUMPDEST PUSH1 0x0 PUSH1 0x20 DUP3 DUP5 SUB SLT ISZERO PUSH2 0x4255 JUMPI PUSH1 0x0 DUP1 REVERT JUMPDEST POP CALLDATALOAD SWAP2 SWAP1 POP JUMP JUMPDEST DUP1 CALLDATALOAD PUSH1 0x8 DUP2 LT PUSH2 0x426B JUMPI PUSH1 0x0 DUP1 REVERT JUMPDEST SWAP2 SWAP1 POP JUMP JUMPDEST PUSH1 0x0 DUP1 PUSH1 0x0 PUSH1 0x60 DUP5 DUP7 SUB SLT ISZERO PUSH2 0x4285 JUMPI PUSH1 0x0 DUP1 REVERT JUMPDEST DUP4 CALLDATALOAD SWAP3 POP PUSH2 0x4295 PUSH1 0x20 DUP6 ADD PUSH2 0x425C JUMP JUMPDEST SWAP3 SWAP6 SWAP3 SWAP5 POP POP POP PUSH1 0x40 SWAP2 SWAP1 SWAP2 ADD CALLDATALOAD SWAP1 JUMP JUMPDEST PUSH1 0x1 PUSH1 0x1 PUSH1 0xA0 SHL SUB DUP2 AND DUP2 EQ PUSH2 0x5AF JUMPI PUSH1 0x0 DUP1 REVERT JUMPDEST PUSH1 0x0 DUP1 PUSH1 0x40 DUP4 DUP6 SUB SLT ISZERO PUSH2 0x42CE JUMPI PUSH1 0x0 DUP1 REVERT JUMPDEST DUP3 CALLDATALOAD PUSH2 0x42D9 DUP2 PUSH2 0x42A6 JUMP JUMPDEST SWAP5 PUSH1 0x20 SWAP4 SWAP1 SWAP4 ADD CALLDATALOAD SWAP4 POP POP POP JUMP JUMPDEST PUSH1 0x0 DUP1 PUSH1 0x40 DUP4 DUP6 SUB SLT ISZERO PUSH2 0x42FA JUMPI PUSH1 0x0 DUP1 REVERT JUMPDEST DUP3 CALLDATALOAD SWAP2 POP PUSH1 0x20 DUP4 ADD CALLDATALOAD PUSH1 0x6 DUP2 LT PUSH2 0x4310 JUMPI PUSH1 0x0 DUP1 REVERT JUMPDEST DUP1 SWAP2 POP POP SWAP3 POP SWAP3 SWAP1 POP JUMP JUMPDEST PUSH4 0x4E487B71 PUSH1 0xE0 SHL PUSH1 0x0 MSTORE PUSH1 0x21 PUSH1 0x4 MSTORE PUSH1 0x24 PUSH1 0x0 REVERT JUMPDEST PUSH1 0x2 DUP2 LT PUSH2 0x5AF JUMPI PUSH2 0x5AF PUSH2 0x431B JUMP JUMPDEST PUSH1 0x0 JUMPDEST DUP4 DUP2 LT ISZERO PUSH2 0x435C JUMPI DUP2 DUP2 ADD MLOAD DUP4 DUP3 ADD MSTORE PUSH1 0x20 ADD PUSH2 0x4344 JUMP JUMPDEST POP POP PUSH1 0x0 SWAP2 ADD MSTORE JUMP JUMPDEST PUSH1 0x0 DUP2 MLOAD DUP1 DUP5 MSTORE PUSH2 0x437D DUP2 PUSH1 0x20 DUP7 ADD PUSH1 0x20 DUP7 ADD PUSH2 0x4341 JUMP JUMPDEST PUSH1 0x1F ADD PUSH1 0x1F NOT AND SWAP3 SWAP1 SWAP3 ADD PUSH1 0x20 ADD SWAP3 SWAP2 POP POP JUMP JUMPDEST PUSH1 0x3 DUP2 LT PUSH2 0x43A1 JUMPI PUSH2 0x43A1 PUSH2 0x431B JUMP JUMPDEST SWAP1 MSTORE JUMP JUMPDEST DUP7 DUP2 MSTORE DUP6 PUSH1 0x20 DUP3 ADD MSTORE PUSH2 0x43B7 DUP6 PUSH2 0x4331 JUMP JUMPDEST DUP5 PUSH1 0x40 DUP3 ADD MSTORE PUSH1 0xC0 PUSH1 0x60 DUP3 ADD MSTORE PUSH1 0x0 PUSH2 0x43D3 PUSH1 0xC0 DUP4 ADD DUP7 PUSH2 0x4365 JUMP JUMPDEST DUP3 DUP2 SUB PUSH1 0x80 DUP5 ADD MSTORE PUSH2 0x43E5 DUP2 DUP7 PUSH2 0x4365 JUMP JUMPDEST SWAP2 POP POP PUSH2 0x3FFB PUSH1 0xA0 DUP4 ADD DUP5 PUSH2 0x4391 JUMP JUMPDEST PUSH1 0x0 DUP1 PUSH1 0x0 PUSH1 0x60 DUP5 DUP7 SUB SLT ISZERO PUSH2 0x440A JUMPI PUSH1 0x0 DUP1 REVERT JUMPDEST POP POP DUP2 CALLDATALOAD SWAP4 PUSH1 0x20 DUP4 ADD CALLDATALOAD SWAP4 POP PUSH1 0x40 SWAP1 SWAP3 ADD CALLDATALOAD SWAP2 SWAP1 POP JUMP JUMPDEST PUSH2 0x43A1 DUP2 PUSH2 0x4331 JUMP JUMPDEST PUSH1 0x6 DUP2 LT PUSH2 0x43A1 JUMPI PUSH2 0x43A1 PUSH2 0x431B JUMP JUMPDEST PUSH1 0x0 DUP2 MLOAD DUP1 DUP5 MSTORE PUSH1 0x20 DUP5 ADD SWAP4 POP PUSH1 0x20 DUP4 ADD PUSH1 0x0 JUMPDEST DUP3 DUP2 LT ISZERO PUSH2 0x446C JUMPI DUP2 MLOAD DUP7 MSTORE PUSH1 0x20 SWAP6 DUP7 ADD SWAP6 SWAP1 SWAP2 ADD SWAP1 PUSH1 0x1 ADD PUSH2 0x444E JUMP JUMPDEST POP SWAP4 SWAP5 SWAP4 POP POP POP POP JUMP JUMPDEST PUSH1 0x20 DUP2 MSTORE PUSH2 0x4488 PUSH1 0x20 DUP3 ADD DUP4 MLOAD PUSH2 0x4421 JUMP JUMPDEST PUSH1 0x20 DUP3 ADD MLOAD PUSH1 0x40 DUP3 ADD MSTORE PUSH1 0x40 DUP3 ADD MLOAD PUSH1 0x60 DUP3 ADD MSTORE PUSH1 0x60 DUP3 ADD MLOAD PUSH1 0x80 DUP3 ADD MSTORE PUSH1 0x0 PUSH1 0x80 DUP4 ADD MLOAD PUSH2 0x44BA PUSH1 0xA0 DUP5 ADD DUP3 PUSH2 0x442A JUMP JUMPDEST POP PUSH1 0xA0 DUP4 ADD MLOAD PUSH2 0x120 PUSH1 0xC0 DUP5 ADD MSTORE PUSH2 0x44D6 PUSH2 0x140 DUP5 ADD DUP3 PUSH2 0x4365 JUMP JUMPDEST SWAP1 POP PUSH1 0xC0 DUP5 ADD MLOAD PUSH1 0x1F NOT DUP5 DUP4 SUB ADD PUSH1 0xE0 DUP6 ADD MSTORE PUSH2 0x44F3 DUP3 DUP3 PUSH2 0x443A JUMP JUMPDEST SWAP2 POP POP PUSH1 0xE0 DUP5 ADD MLOAD PUSH1 0x1F NOT DUP5 DUP4 SUB ADD PUSH2 0x100 DUP6 ADD MSTORE PUSH2 0x4512 DUP3 DUP3 PUSH2 0x443A JUMP JUMPDEST SWAP2 POP POP PUSH2 0x100 DUP5 ADD MLOAD PUSH1 0x1F NOT DUP5 DUP4 SUB ADD PUSH2 0x120 DUP6 ADD MSTORE PUSH2 0x4532 DUP3 DUP3 PUSH2 0x443A JUMP JUMPDEST SWAP6 SWAP5 POP POP POP POP POP JUMP JUMPDEST PUSH2 0x4544 DUP8 PUSH2 0x4331 JUMP JUMPDEST DUP7 DUP2 MSTORE DUP6 PUSH1 0x20 DUP3 ADD MSTORE DUP5 PUSH1 0x40 DUP3 ADD MSTORE DUP4 PUSH1 0x60 DUP3 ADD MSTORE PUSH2 0x4566 PUSH1 0x80 DUP3 ADD DUP5 PUSH2 0x442A JUMP JUMPDEST PUSH1 0xC0 PUSH1 0xA0 DUP3 ADD MSTORE PUSH1 0x0 PUSH2 0x457C PUSH1 0xC0 DUP4 ADD DUP5 PUSH2 0x4365 JUMP JUMPDEST SWAP9 SWAP8 POP POP POP POP POP POP POP POP JUMP JUMPDEST PUSH8 0xFFFFFFFFFFFFFFFF DUP2 AND DUP2 EQ PUSH2 0x5AF JUMPI PUSH1 0x0 DUP1 REVERT JUMPDEST PUSH1 0x2 DUP2 LT PUSH2 0x5AF JUMPI PUSH1 0x0 DUP1 REVERT JUMPDEST PUSH4 0x4E487B71 PUSH1 0xE0 SHL PUSH1 0x0 MSTORE PUSH1 0x41 PUSH1 0x4 MSTORE PUSH1 0x24 PUSH1 0x0 REVERT JUMPDEST PUSH1 0x40 MLOAD PUSH2 0x1A0 DUP2 ADD PUSH8 0xFFFFFFFFFFFFFFFF DUP2 GT DUP3 DUP3 LT OR ISZERO PUSH2 0x45E5 JUMPI PUSH2 0x45E5 PUSH2 0x45AB JUMP JUMPDEST PUSH1 0x40 MSTORE SWAP1 JUMP JUMPDEST PUSH1 0x40 MLOAD PUSH1 0xA0 DUP2 ADD PUSH8 0xFFFFFFFFFFFFFFFF DUP2 GT DUP3 DUP3 LT OR ISZERO PUSH2 0x45E5 JUMPI PUSH2 0x45E5 PUSH2 0x45AB JUMP JUMPDEST PUSH1 0x40 MLOAD PUSH1 0x1F DUP3 ADD PUSH1 0x1F NOT AND DUP2 ADD PUSH8 0xFFFFFFFFFFFFFFFF DUP2 GT DUP3 DUP3 LT OR ISZERO PUSH2 0x4637 JUMPI PUSH2 0x4637 PUSH2 0x45AB JUMP JUMPDEST PUSH1 0x40 MSTORE SWAP2 SWAP1 POP JUMP JUMPDEST PUSH1 0x0 PUSH8 0xFFFFFFFFFFFFFFFF DUP3 GT ISZERO PUSH2 0x4659 JUMPI PUSH2 0x4659 PUSH2 0x45AB JUMP JUMPDEST POP PUSH1 0x1F ADD PUSH1 0x1F NOT AND PUSH1 0x20 ADD SWAP1 JUMP JUMPDEST PUSH1 0x0 PUSH2 0x467A PUSH2 0x4675 DUP5 PUSH2 0x463F JUMP JUMPDEST PUSH2 0x460E JUMP JUMPDEST SWAP1 POP DUP3 DUP2 MSTORE DUP4 DUP4 DUP4 ADD GT ISZERO PUSH2 0x468E JUMPI PUSH1 0x0 DUP1 REVERT JUMPDEST DUP3 DUP3 PUSH1 0x20 DUP4 ADD CALLDATACOPY PUSH1 0x0 PUSH1 0x20 DUP5 DUP4 ADD ADD MSTORE SWAP4 SWAP3 POP POP POP JUMP JUMPDEST PUSH1 0x0 DUP3 PUSH1 0x1F DUP4 ADD SLT PUSH2 0x46B6 JUMPI PUSH1 0x0 DUP1 REVERT JUMPDEST PUSH2 0x1563 DUP4 DUP4 CALLDATALOAD PUSH1 0x20 DUP6 ADD PUSH2 0x4667 JUMP JUMPDEST PUSH1 0x0 DUP1 PUSH1 0x0 DUP1 PUSH1 0x80 DUP6 DUP8 SUB SLT ISZERO PUSH2 0x46DB JUMPI PUSH1 0x0 DUP1 REVERT JUMPDEST DUP5 CALLDATALOAD PUSH2 0x46E6 DUP2 PUSH2 0x4588 JUMP JUMPDEST SWAP4 POP PUSH1 0x20 DUP6 ADD CALLDATALOAD PUSH2 0x46F6 DUP2 PUSH2 0x459E JUMP JUMPDEST SWAP3 POP PUSH1 0x40 DUP6 ADD CALLDATALOAD PUSH8 0xFFFFFFFFFFFFFFFF DUP2 GT ISZERO PUSH2 0x4712 JUMPI PUSH1 0x0 DUP1 REVERT JUMPDEST PUSH2 0x471E DUP8 DUP3 DUP9 ADD PUSH2 0x46A5 JUMP JUMPDEST SWAP3 POP POP PUSH1 0x60 DUP6 ADD CALLDATALOAD PUSH8 0xFFFFFFFFFFFFFFFF DUP2 GT ISZERO PUSH2 0x473B JUMPI PUSH1 0x0 DUP1 REVERT JUMPDEST PUSH2 0x4747 DUP8 DUP3 DUP9 ADD PUSH2 0x46A5 JUMP JUMPDEST SWAP2 POP POP SWAP3 SWAP6 SWAP2 SWAP5 POP SWAP3 POP JUMP JUMPDEST PUSH1 0x0 PUSH1 0x20 DUP3 DUP5 SUB SLT ISZERO PUSH2 0x4765 JUMPI PUSH1 0x0 DUP1 REVERT JUMPDEST DUP2 CALLDATALOAD PUSH2 0x1563 DUP2 PUSH2 0x42A6 JUMP JUMPDEST PUSH1 0x0 DUP1 PUSH1 0x40 DUP4 DUP6 SUB SLT ISZERO PUSH2 0x4783 JUMPI PUSH1 0x0 DUP1 REVERT JUMPDEST DUP3 CALLDATALOAD SWAP2 POP PUSH1 0x20 DUP4 ADD CALLDATALOAD PUSH8 0xFFFFFFFFFFFFFFFF DUP2 GT ISZERO PUSH2 0x47A1 JUMPI PUSH1 0x0 DUP1 REVERT JUMPDEST DUP4 ADD PUSH2 0x1A0 DUP2 DUP7 SUB SLT ISZERO PUSH2 0x47B4 JUMPI PUSH1 0x0 DUP1 REVERT JUMPDEST PUSH2 0x47BC PUSH2 0x45C1 JUMP JUMPDEST DUP2 CALLDATALOAD DUP2 MSTORE PUSH1 0x20 DUP1 DUP4 ADD CALLDATALOAD SWAP1 DUP3 ADD MSTORE PUSH1 0x40 DUP1 DUP4 ADD CALLDATALOAD SWAP1 DUP3 ADD MSTORE PUSH1 0x60 DUP1 DUP4 ADD CALLDATALOAD SWAP1 DUP3 ADD MSTORE PUSH1 0x80 DUP1 DUP4 ADD CALLDATALOAD SWAP1 DUP3 ADD MSTORE PUSH1 0xA0 DUP1 DUP4 ADD CALLDATALOAD SWAP1 DUP3 ADD MSTORE PUSH1 0xC0 DUP1 DUP4 ADD CALLDATALOAD SWAP1 DUP3 ADD MSTORE PUSH1 0xE0 DUP1 DUP4 ADD CALLDATALOAD SWAP1 DUP3 ADD MSTORE PUSH2 0x100 DUP1 DUP4 ADD CALLDATALOAD SWAP1 DUP3 ADD MSTORE PUSH2 0x120 DUP1 DUP4 ADD CALLDATALOAD SWAP1 DUP3 ADD MSTORE PUSH2 0x140 DUP1 DUP4 ADD CALLDATALOAD SWAP1 DUP3 ADD MSTORE PUSH2 0x4834 PUSH2 0x160 DUP4 ADD PUSH2 0x425C JUMP JUMPDEST PUSH2 0x160 DUP3 ADD MSTORE PUSH2 0x180 DUP3 ADD CALLDATALOAD PUSH8 0xFFFFFFFFFFFFFFFF DUP2 GT ISZERO PUSH2 0x4855 JUMPI PUSH1 0x0 DUP1 REVERT JUMPDEST PUSH2 0x4861 DUP8 DUP3 DUP6 ADD PUSH2 0x46A5 JUMP JUMPDEST PUSH2 0x180 DUP4 ADD MSTORE POP DUP1 SWAP3 POP POP POP SWAP3 POP SWAP3 SWAP1 POP JUMP JUMPDEST PUSH1 0x0 DUP1 PUSH1 0x0 DUP4 DUP6 SUB PUSH1 0x80 DUP2 SLT ISZERO PUSH2 0x488A JUMPI PUSH1 0x0 DUP1 REVERT JUMPDEST DUP5 CALLDATALOAD PUSH8 0xFFFFFFFFFFFFFFFF DUP2 GT ISZERO PUSH2 0x48A1 JUMPI PUSH1 0x0 DUP1 REVERT JUMPDEST DUP6 ADD PUSH1 0x1F DUP2 ADD DUP8 SGT PUSH2 0x48B2 JUMPI PUSH1 0x0 DUP1 REVERT JUMPDEST DUP1 CALLDATALOAD PUSH8 0xFFFFFFFFFFFFFFFF DUP2 GT ISZERO PUSH2 0x48C9 JUMPI PUSH1 0x0 DUP1 REVERT JUMPDEST DUP8 PUSH1 0x20 DUP3 DUP5 ADD ADD GT ISZERO PUSH2 0x48DB JUMPI PUSH1 0x0 DUP1 REVERT JUMPDEST PUSH1 0x20 SWAP2 SWAP1 SWAP2 ADD SWAP5 POP SWAP3 POP PUSH1 0x60 PUSH1 0x1F NOT DUP3 ADD SLT ISZERO PUSH2 0x48F7 JUMPI PUSH1 0x0 DUP1 REVERT JUMPDEST POP PUSH1 0x20 DUP5 ADD SWAP1 POP SWAP3 POP SWAP3 POP SWAP3 JUMP JUMPDEST PUSH1 0x20 DUP2 MSTORE PUSH1 0x0 PUSH2 0x1563 PUSH1 0x20 DUP4 ADD DUP5 PUSH2 0x4365 JUMP JUMPDEST PUSH1 0x8 DUP2 LT PUSH2 0x43A1 JUMPI PUSH2 0x43A1 PUSH2 0x431B JUMP JUMPDEST DUP14 DUP2 MSTORE DUP13 PUSH1 0x20 DUP3 ADD MSTORE DUP12 PUSH1 0x40 DUP3 ADD MSTORE DUP11 PUSH1 0x60 DUP3 ADD MSTORE DUP10 PUSH1 0x80 DUP3 ADD MSTORE DUP9 PUSH1 0xA0 DUP3 ADD MSTORE DUP8 PUSH1 0xC0 DUP3 ADD MSTORE DUP7 PUSH1 0xE0 DUP3 ADD MSTORE DUP6 PUSH2 0x100 DUP3 ADD MSTORE DUP5 PUSH2 0x120 DUP3 ADD MSTORE DUP4 PUSH2 0x140 DUP3 ADD MSTORE PUSH2 0x4978 PUSH2 0x160 DUP3 ADD DUP5 PUSH2 0x4918 JUMP JUMPDEST PUSH2 0x1A0 PUSH2 0x180 DUP3 ADD MSTORE PUSH1 0x0 PUSH2 0x4991 PUSH2 0x1A0 DUP4 ADD DUP5 PUSH2 0x4365 JUMP JUMPDEST SWAP16 SWAP15 POP POP POP POP POP POP POP POP POP POP POP POP POP POP POP JUMP JUMPDEST PUSH1 0x0 PUSH1 0x20 DUP3 DUP5 SUB SLT ISZERO PUSH2 0x49B6 JUMPI PUSH1 0x0 DUP1 REVERT JUMPDEST DUP2 CALLDATALOAD PUSH8 0xFFFFFFFFFFFFFFFF DUP2 GT ISZERO PUSH2 0x49CD JUMPI PUSH1 0x0 DUP1 REVERT JUMPDEST DUP3 ADD PUSH1 0x1F DUP2 ADD DUP5 SGT PUSH2 0x49DE JUMPI PUSH1 0x0 DUP1 REVERT JUMPDEST PUSH2 0x2E47 DUP5 DUP3 CALLDATALOAD PUSH1 0x20 DUP5 ADD PUSH2 0x4667 JUMP JUMPDEST PUSH1 0x0 PUSH1 0x20 DUP3 DUP5 SUB SLT ISZERO PUSH2 0x49FF JUMPI PUSH1 0x0 DUP1 REVERT JUMPDEST DUP2 CALLDATALOAD PUSH11 0xFFFFFFFFFFFFFFFFFFFFFF NOT DUP2 AND DUP2 EQ PUSH2 0x1563 JUMPI PUSH1 0x0 DUP1 REVERT JUMPDEST PUSH1 0x20 DUP1 DUP3 MSTORE DUP3 MLOAD DUP3 DUP3 ADD DUP2 SWAP1 MSTORE PUSH1 0x0 SWAP2 DUP5 ADD SWAP1 PUSH1 0x40 DUP5 ADD SWAP1 DUP4 JUMPDEST DUP2 DUP2 LT ISZERO PUSH2 0x4A53 JUMPI DUP4 MLOAD DUP4 MSTORE PUSH1 0x20 SWAP4 DUP5 ADD SWAP4 SWAP1 SWAP3 ADD SWAP2 PUSH1 0x1 ADD PUSH2 0x4A35 JUMP JUMPDEST POP SWAP1 SWAP6 SWAP5 POP POP POP POP POP JUMP JUMPDEST PUSH1 0x0 PUSH8 0xFFFFFFFFFFFFFFFF DUP3 GT ISZERO PUSH2 0x4A78 JUMPI PUSH2 0x4A78 PUSH2 0x45AB JUMP JUMPDEST POP PUSH1 0x5 SHL PUSH1 0x20 ADD SWAP1 JUMP JUMPDEST PUSH1 0x0 DUP3 PUSH1 0x1F DUP4 ADD SLT PUSH2 0x4A93 JUMPI PUSH1 0x0 DUP1 REVERT JUMPDEST DUP2 CALLDATALOAD PUSH2 0x4AA1 PUSH2 0x4675 DUP3 PUSH2 0x4A5E JUMP JUMPDEST DUP1 DUP3 DUP3 MSTORE PUSH1 0x20 DUP3 ADD SWAP2 POP PUSH1 0x20 DUP4 PUSH1 0x5 SHL DUP7 ADD ADD SWAP3 POP DUP6 DUP4 GT ISZERO PUSH2 0x4AC3 JUMPI PUSH1 0x0 DUP1 REVERT JUMPDEST PUSH1 0x20 DUP6 ADD JUMPDEST DUP4 DUP2 LT ISZERO PUSH2 0x4AE0 JUMPI DUP1 CALLDATALOAD DUP4 MSTORE PUSH1 0x20 SWAP3 DUP4 ADD SWAP3 ADD PUSH2 0x4AC8 JUMP JUMPDEST POP SWAP6 SWAP5 POP POP POP POP POP JUMP JUMPDEST PUSH1 0x0 DUP1 PUSH1 0x0 DUP1 PUSH1 0x0 PUSH1 0xA0 DUP7 DUP9 SUB SLT ISZERO PUSH2 0x4B02 JUMPI PUSH1 0x0 DUP1 REVERT JUMPDEST DUP6 CALLDATALOAD PUSH2 0x4B0D DUP2 PUSH2 0x459E JUMP JUMPDEST SWAP5 POP PUSH1 0x20 DUP7 ADD CALLDATALOAD SWAP4 POP PUSH1 0x40 DUP7 ADD CALLDATALOAD SWAP3 POP PUSH1 0x60 DUP7 ADD CALLDATALOAD PUSH8 0xFFFFFFFFFFFFFFFF DUP2 GT ISZERO PUSH2 0x4B37 JUMPI PUSH1 0x0 DUP1 REVERT JUMPDEST PUSH2 0x4B43 DUP9 DUP3 DUP10 ADD PUSH2 0x4A82 JUMP JUMPDEST SWAP3 POP POP PUSH1 0x80 DUP7 ADD CALLDATALOAD PUSH8 0xFFFFFFFFFFFFFFFF DUP2 GT ISZERO PUSH2 0x4B60 JUMPI PUSH1 0x0 DUP1 REVERT JUMPDEST PUSH2 0x4B6C DUP9 DUP3 DUP10 ADD PUSH2 0x4A82 JUMP JUMPDEST SWAP2 POP POP SWAP3 SWAP6 POP SWAP3 SWAP6 SWAP1 SWAP4 POP JUMP JUMPDEST PUSH1 0x20 DUP2 MSTORE DUP2 MLOAD PUSH1 0x20 DUP3 ADD MSTORE PUSH1 0x20 DUP3 ADD MLOAD PUSH1 0x40 DUP3 ADD MSTORE PUSH1 0x40 DUP3 ADD MLOAD PUSH1 0x60 DUP3 ADD MSTORE PUSH1 0x60 DUP3 ADD MLOAD PUSH1 0x80 DUP3 ADD MSTORE PUSH1 0x80 DUP3 ADD MLOAD PUSH1 0xA0 DUP3 ADD MSTORE PUSH1 0xA0 DUP3 ADD MLOAD PUSH1 0xC0 DUP3 ADD MSTORE PUSH1 0xC0 DUP3 ADD MLOAD PUSH1 0xE0 DUP3 ADD MSTORE PUSH1 0xE0 DUP3 ADD MLOAD PUSH2 0x100 DUP3 ADD MSTORE PUSH2 0x100 DUP3 ADD MLOAD PUSH2 0x120 DUP3 ADD MSTORE PUSH2 0x120 DUP3 ADD MLOAD PUSH2 0x140 DUP3 ADD MSTORE PUSH2 0x140 DUP3 ADD MLOAD PUSH2 0x160 DUP3 ADD MSTORE PUSH1 0x0 PUSH2 0x160 DUP4 ADD MLOAD PUSH2 0x4C05 PUSH2 0x180 DUP5 ADD DUP3 PUSH2 0x4918 JUMP JUMPDEST POP PUSH2 0x180 DUP4 ADD MLOAD PUSH2 0x1A0 DUP1 DUP5 ADD MSTORE PUSH2 0x2E47 PUSH2 0x1C0 DUP5 ADD DUP3 PUSH2 0x4365 JUMP JUMPDEST PUSH1 0x20 DUP2 MSTORE DUP2 MLOAD PUSH1 0x20 DUP3 ADD MSTORE PUSH1 0x20 DUP3 ADD MLOAD PUSH1 0x40 DUP3 ADD MSTORE PUSH1 0x0 PUSH1 0x40 DUP4 ADD MLOAD PUSH2 0x4C46 DUP2 PUSH2 0x4331 JUMP JUMPDEST DUP1 PUSH1 0x60 DUP5 ADD MSTORE POP PUSH1 0x60 DUP4 ADD MLOAD PUSH1 0xC0 PUSH1 0x80 DUP5 ADD MSTORE PUSH2 0x4C66 PUSH1 0xE0 DUP5 ADD DUP3 PUSH2 0x4365 JUMP JUMPDEST SWAP1 POP PUSH1 0x80 DUP5 ADD MLOAD PUSH1 0x1F NOT DUP5 DUP4 SUB ADD PUSH1 0xA0 DUP6 ADD MSTORE PUSH2 0x4C83 DUP3 DUP3 PUSH2 0x4365 JUMP JUMPDEST SWAP2 POP POP PUSH1 0xA0 DUP5 ADD MLOAD PUSH2 0x26F5 PUSH1 0xC0 DUP6 ADD DUP3 PUSH2 0x4391 JUMP JUMPDEST PUSH4 0x4E487B71 PUSH1 0xE0 SHL PUSH1 0x0 MSTORE PUSH1 0x11 PUSH1 0x4 MSTORE PUSH1 0x24 PUSH1 0x0 REVERT JUMPDEST DUP2 DUP2 SUB DUP2 DUP2 GT ISZERO PUSH2 0x2CE8 JUMPI PUSH2 0x2CE8 PUSH2 0x4C98 JUMP JUMPDEST PUSH4 0x4E487B71 PUSH1 0xE0 SHL PUSH1 0x0 MSTORE PUSH1 0x32 PUSH1 0x4 MSTORE PUSH1 0x24 PUSH1 0x0 REVERT JUMPDEST PUSH1 0x1 DUP2 DUP2 SHR SWAP1 DUP3 AND DUP1 PUSH2 0x4CEB JUMPI PUSH1 0x7F DUP3 AND SWAP2 POP JUMPDEST PUSH1 0x20 DUP3 LT DUP2 SUB PUSH2 0x2EC9 JUMPI PUSH4 0x4E487B71 PUSH1 0xE0 SHL PUSH1 0x0 MSTORE PUSH1 0x22 PUSH1 0x4 MSTORE PUSH1 0x24 PUSH1 0x0 REVERT JUMPDEST DUP1 DUP3 ADD DUP1 DUP3 GT ISZERO PUSH2 0x2CE8 JUMPI PUSH2 0x2CE8 PUSH2 0x4C98 JUMP JUMPDEST PUSH1 0x1F DUP3 GT ISZERO PUSH2 0xBC0 JUMPI DUP1 PUSH1 0x0 MSTORE PUSH1 0x20 PUSH1 0x0 KECCAK256 PUSH1 0x1F DUP5 ADD PUSH1 0x5 SHR DUP2 ADD PUSH1 0x20 DUP6 LT ISZERO PUSH2 0x4D45 JUMPI POP DUP1 JUMPDEST PUSH1 0x1F DUP5 ADD PUSH1 0x5 SHR DUP3 ADD SWAP2 POP JUMPDEST DUP2 DUP2 LT ISZERO PUSH2 0x11E2 JUMPI PUSH1 0x0 DUP2 SSTORE PUSH1 0x1 ADD PUSH2 0x4D51 JUMP JUMPDEST DUP2 MLOAD PUSH8 0xFFFFFFFFFFFFFFFF DUP2 GT ISZERO PUSH2 0x4D7F JUMPI PUSH2 0x4D7F PUSH2 0x45AB JUMP JUMPDEST PUSH2 0x4D93 DUP2 PUSH2 0x4D8D DUP5 SLOAD PUSH2 0x4CD7 JUMP JUMPDEST DUP5 PUSH2 0x4D1E JUMP JUMPDEST PUSH1 0x20 PUSH1 0x1F DUP3 GT PUSH1 0x1 DUP2 EQ PUSH2 0x4DC7 JUMPI PUSH1 0x0 DUP4 ISZERO PUSH2 0x4DAF JUMPI POP DUP5 DUP3 ADD MLOAD JUMPDEST PUSH1 0x0 NOT PUSH1 0x3 DUP6 SWAP1 SHL SHR NOT AND PUSH1 0x1 DUP5 SWAP1 SHL OR DUP5 SSTORE PUSH2 0x11E2 JUMP JUMPDEST PUSH1 0x0 DUP5 DUP2 MSTORE PUSH1 0x20 DUP2 KECCAK256 PUSH1 0x1F NOT DUP6 AND SWAP2 JUMPDEST DUP3 DUP2 LT ISZERO PUSH2 0x4DF7 JUMPI DUP8 DUP6 ADD MLOAD DUP3 SSTORE PUSH1 0x20 SWAP5 DUP6 ADD SWAP5 PUSH1 0x1 SWAP1 SWAP3 ADD SWAP2 ADD PUSH2 0x4DD7 JUMP JUMPDEST POP DUP5 DUP3 LT ISZERO PUSH2 0x4E15 JUMPI DUP7 DUP5 ADD MLOAD PUSH1 0x0 NOT PUSH1 0x3 DUP8 SWAP1 SHL PUSH1 0xF8 AND SHR NOT AND DUP2 SSTORE JUMPDEST POP POP POP POP PUSH1 0x1 SWAP1 DUP2 SHL ADD SWAP1 SSTORE POP JUMP JUMPDEST PUSH32 0x19457468657265756D205369676E6564204D6573736167653A0A000000000000 DUP2 MSTORE PUSH1 0x0 DUP5 MLOAD PUSH2 0x4E5C DUP2 PUSH1 0x1A DUP6 ADD PUSH1 0x20 DUP10 ADD PUSH2 0x4341 JUMP JUMPDEST DUP3 ADD DUP4 DUP6 PUSH1 0x1A DUP4 ADD CALLDATACOPY PUSH1 0x0 SWAP4 ADD PUSH1 0x1A ADD SWAP3 DUP4 MSTORE POP SWAP1 SWAP4 SWAP3 POP POP POP JUMP JUMPDEST PUSH1 0x0 DUP1 DUP4 SLOAD PUSH2 0x4E86 DUP2 PUSH2 0x4CD7 JUMP JUMPDEST PUSH1 0x1 DUP3 AND DUP1 ISZERO PUSH2 0x4E9D JUMPI PUSH1 0x1 DUP2 EQ PUSH2 0x4EB2 JUMPI PUSH2 0x4EE2 JUMP JUMPDEST PUSH1 0xFF NOT DUP4 AND DUP7 MSTORE DUP2 ISZERO ISZERO DUP3 MUL DUP7 ADD SWAP4 POP PUSH2 0x4EE2 JUMP JUMPDEST DUP7 PUSH1 0x0 MSTORE PUSH1 0x20 PUSH1 0x0 KECCAK256 PUSH1 0x0 JUMPDEST DUP4 DUP2 LT ISZERO PUSH2 0x4EDA JUMPI DUP2 SLOAD DUP9 DUP3 ADD MSTORE PUSH1 0x1 SWAP1 SWAP2 ADD SWAP1 PUSH1 0x20 ADD PUSH2 0x4EBE JUMP JUMPDEST POP POP DUP2 DUP7 ADD SWAP4 POP JUMPDEST POP SWAP2 SWAP6 SWAP5 POP POP POP POP POP JUMP JUMPDEST PUSH1 0x20 DUP2 MSTORE PUSH1 0x0 DUP3 MLOAD PUSH1 0xA0 PUSH1 0x20 DUP5 ADD MSTORE PUSH2 0x4F09 PUSH1 0xC0 DUP5 ADD DUP3 PUSH2 0x4365 JUMP JUMPDEST SWAP1 POP PUSH1 0x1 PUSH1 0x1 PUSH1 0xA0 SHL SUB PUSH1 0x20 DUP6 ADD MLOAD AND PUSH1 0x40 DUP5 ADD MSTORE PUSH1 0x40 DUP5 ADD MLOAD PUSH1 0x60 DUP5 ADD MSTORE PUSH1 0x60 DUP5 ADD MLOAD PUSH1 0x1F NOT DUP5 DUP4 SUB ADD PUSH1 0x80 DUP6 ADD MSTORE PUSH2 0x4F43 DUP3 DUP3 PUSH2 0x4365 JUMP JUMPDEST PUSH1 0x80 DUP7 ADD MLOAD DUP6 DUP3 SUB PUSH1 0x1F NOT ADD PUSH1 0xA0 DUP8 ADD MSTORE DUP1 MLOAD DUP1 DUP4 MSTORE SWAP2 SWAP4 POP PUSH1 0x20 SWAP1 DUP2 ADD SWAP3 POP DUP1 DUP5 ADD SWAP2 SWAP1 PUSH1 0x5 DUP3 SWAP1 SHL DUP6 ADD ADD PUSH1 0x0 JUMPDEST DUP3 DUP2 LT ISZERO PUSH2 0x4FA4 JUMPI PUSH1 0x1F NOT DUP7 DUP4 SUB ADD DUP5 MSTORE PUSH2 0x4F8F DUP3 DUP7 MLOAD PUSH2 0x4365 JUMP JUMPDEST PUSH1 0x20 SWAP6 DUP7 ADD SWAP6 SWAP5 SWAP1 SWAP5 ADD SWAP4 SWAP2 POP PUSH1 0x1 ADD PUSH2 0x4F73 JUMP JUMPDEST POP SWAP8 SWAP7 POP POP POP POP POP POP POP JUMP JUMPDEST DUP5 DUP2 MSTORE DUP4 PUSH1 0x20 DUP3 ADD MSTORE PUSH1 0x80 PUSH1 0x40 DUP3 ADD MSTORE PUSH1 0x0 PUSH2 0x4FCF PUSH1 0x80 DUP4 ADD DUP6 PUSH2 0x443A JUMP JUMPDEST DUP3 DUP2 SUB PUSH1 0x60 DUP5 ADD MSTORE PUSH2 0x3FFB DUP2 DUP6 PUSH2 0x443A JUMP JUMPDEST PUSH4 0x4E487B71 PUSH1 0xE0 SHL PUSH1 0x0 MSTORE PUSH1 0x31 PUSH1 0x4 MSTORE PUSH1 0x24 PUSH1 0x0 REVERT JUMPDEST PUSH4 0x4E487B71 PUSH1 0xE0 SHL PUSH1 0x0 MSTORE PUSH1 0x12 PUSH1 0x4 MSTORE PUSH1 0x24 PUSH1 0x0 REVERT JUMPDEST PUSH1 0x0 PUSH1 0x1 DUP3 ADD PUSH2 0x501F JUMPI PUSH2 0x501F PUSH2 0x4C98 JUMP JUMPDEST POP PUSH1 0x1 ADD SWAP1 JUMP JUMPDEST DUP5 DUP2 MSTORE DUP4 PUSH1 0x20 DUP3 ADD MSTORE PUSH1 0x80 PUSH1 0x40 DUP3 ADD MSTORE PUSH1 0x0 PUSH2 0x5045 PUSH1 0x80 DUP4 ADD DUP6 PUSH2 0x4365 JUMP JUMPDEST DUP3 DUP2 SUB PUSH1 0x60 DUP5 ADD MSTORE PUSH2 0x3FFB DUP2 DUP6 PUSH2 0x4365 JUMP JUMPDEST PUSH1 0x0 DUP3 MLOAD PUSH2 0x5069 DUP2 DUP5 PUSH1 0x20 DUP8 ADD PUSH2 0x4341 JUMP JUMPDEST SWAP2 SWAP1 SWAP2 ADD SWAP3 SWAP2 POP POP JUMP JUMPDEST PUSH1 0x0 PUSH1 0x20 DUP3 DUP5 SUB SLT ISZERO PUSH2 0x5085 JUMPI PUSH1 0x0 DUP1 REVERT JUMPDEST DUP2 MLOAD DUP1 ISZERO ISZERO DUP2 EQ PUSH2 0x1563 JUMPI PUSH1 0x0 DUP1 REVERT JUMPDEST PUSH1 0x40 DUP2 MSTORE PUSH1 0x0 PUSH2 0x50A8 PUSH1 0x40 DUP4 ADD DUP6 PUSH2 0x4365 JUMP JUMPDEST DUP3 DUP2 SUB PUSH1 0x20 DUP5 ADD MSTORE PUSH2 0x4532 DUP2 DUP6 PUSH2 0x4365 JUMP JUMPDEST PUSH1 0x0 PUSH2 0x50C8 PUSH2 0x4675 DUP5 PUSH2 0x463F JUMP JUMPDEST SWAP1 POP DUP3 DUP2 MSTORE DUP4 DUP4 DUP4 ADD GT ISZERO PUSH2 0x50DC JUMPI PUSH1 0x0 DUP1 REVERT JUMPDEST PUSH2 0x1563 DUP4 PUSH1 0x20 DUP4 ADD DUP5 PUSH2 0x4341 JUMP JUMPDEST PUSH1 0x0 DUP1 PUSH1 0x40 DUP4 DUP6 SUB SLT ISZERO PUSH2 0x50FD JUMPI PUSH1 0x0 DUP1 REVERT JUMPDEST DUP3 MLOAD PUSH2 0x5108 DUP2 PUSH2 0x4588 JUMP JUMPDEST PUSH1 0x20 DUP5 ADD MLOAD SWAP1 SWAP3 POP PUSH8 0xFFFFFFFFFFFFFFFF DUP2 GT ISZERO PUSH2 0x5125 JUMPI PUSH1 0x0 DUP1 REVERT JUMPDEST DUP4 ADD PUSH1 0x1F DUP2 ADD DUP6 SGT PUSH2 0x5136 JUMPI PUSH1 0x0 DUP1 REVERT JUMPDEST PUSH2 0x5145 DUP6 DUP3 MLOAD PUSH1 0x20 DUP5 ADD PUSH2 0x50BA JUMP JUMPDEST SWAP2 POP POP SWAP3 POP SWAP3 SWAP1 POP JUMP JUMPDEST PUSH1 0x0 DUP3 PUSH2 0x515E JUMPI PUSH2 0x515E PUSH2 0x4FF7 JUMP JUMPDEST POP DIV SWAP1 JUMP JUMPDEST DUP1 DUP3 MUL DUP2 ISZERO DUP3 DUP3 DIV DUP5 EQ OR PUSH2 0x2CE8 JUMPI PUSH2 0x2CE8 PUSH2 0x4C98 JUMP JUMPDEST PUSH1 0xFF DUP2 DUP2 AND DUP4 DUP3 AND MUL SWAP1 DUP2 AND SWAP1 DUP2 DUP2 EQ PUSH2 0x36AC JUMPI PUSH2 0x36AC PUSH2 0x4C98 JUMP JUMPDEST PUSH1 0xFF DUP2 DUP2 AND DUP4 DUP3 AND ADD SWAP1 DUP2 GT ISZERO PUSH2 0x2CE8 JUMPI PUSH2 0x2CE8 PUSH2 0x4C98 JUMP JUMPDEST DUP1 MLOAD PUSH1 0x20 DUP3 ADD MLOAD PUSH12 0xFFFFFFFFFFFFFFFFFFFFFFFF NOT DUP2 AND SWAP2 SWAP1 PUSH1 0x14 DUP3 LT ISZERO PUSH2 0x51FB JUMPI PUSH12 0xFFFFFFFFFFFFFFFFFFFFFFFF NOT PUSH12 0xFFFFFFFFFFFFFFFFFFFFFFFF NOT DUP4 PUSH1 0x14 SUB PUSH1 0x3 SHL SHL DUP3 AND AND SWAP3 POP JUMPDEST POP POP SWAP2 SWAP1 POP JUMP JUMPDEST PUSH1 0x0 DUP2 PUSH2 0x5211 JUMPI PUSH2 0x5211 PUSH2 0x4C98 JUMP JUMPDEST POP PUSH1 0x0 NOT ADD SWAP1 JUMP JUMPDEST PUSH2 0xFFFF DUP3 DUP2 AND DUP3 DUP3 AND SUB SWAP1 DUP2 GT ISZERO PUSH2 0x2CE8 JUMPI PUSH2 0x2CE8 PUSH2 0x4C98 JUMP JUMPDEST PUSH4 0xFFFFFFFF DUP2 DUP2 AND DUP4 DUP3 AND MUL SWAP1 DUP2 AND SWAP1 DUP2 DUP2 EQ PUSH2 0x36AC JUMPI PUSH2 0x36AC PUSH2 0x4C98 JUMP JUMPDEST PUSH1 0xFF DUP3 DUP2 AND DUP3 DUP3 AND SUB SWAP1 DUP2 GT ISZERO PUSH2 0x2CE8 JUMPI PUSH2 0x2CE8 PUSH2 0x4C98 JUMP JUMPDEST PUSH2 0xFFFF DUP2 DUP2 AND DUP4 DUP3 AND MUL SWAP1 DUP2 AND SWAP1 DUP2 DUP2 EQ PUSH2 0x36AC JUMPI PUSH2 0x36AC PUSH2 0x4C98 JUMP JUMPDEST PUSH1 0x0 DUP3 PUSH1 0x1F DUP4 ADD SLT PUSH2 0x5299 JUMPI PUSH1 0x0 DUP1 REVERT JUMPDEST PUSH2 0x1563 DUP4 DUP4 MLOAD PUSH1 0x20 DUP6 ADD PUSH2 0x50BA JUMP JUMPDEST DUP1 MLOAD PUSH2 0x426B DUP2 PUSH2 0x42A6 JUMP JUMPDEST PUSH1 0x0 DUP3 PUSH1 0x1F DUP4 ADD SLT PUSH2 0x52C4 JUMPI PUSH1 0x0 DUP1 REVERT JUMPDEST DUP2 MLOAD PUSH2 0x52D2 PUSH2 0x4675 DUP3 PUSH2 0x4A5E JUMP JUMPDEST DUP1 DUP3 DUP3 MSTORE PUSH1 0x20 DUP3 ADD SWAP2 POP PUSH1 0x20 DUP4 PUSH1 0x5 SHL DUP7 ADD ADD SWAP3 POP DUP6 DUP4 GT ISZERO PUSH2 0x52F4 JUMPI PUSH1 0x0 DUP1 REVERT JUMPDEST PUSH1 0x20 DUP6 ADD JUMPDEST DUP4 DUP2 LT ISZERO PUSH2 0x4AE0 JUMPI DUP1 MLOAD PUSH8 0xFFFFFFFFFFFFFFFF DUP2 GT ISZERO PUSH2 0x5318 JUMPI PUSH1 0x0 DUP1 REVERT JUMPDEST PUSH2 0x5327 DUP9 PUSH1 0x20 DUP4 DUP11 ADD ADD PUSH2 0x5288 JUMP JUMPDEST DUP5 MSTORE POP PUSH1 0x20 SWAP3 DUP4 ADD SWAP3 ADD PUSH2 0x52F9 JUMP JUMPDEST PUSH1 0x0 PUSH1 0x20 DUP3 DUP5 SUB SLT ISZERO PUSH2 0x5348 JUMPI PUSH1 0x0 DUP1 REVERT JUMPDEST DUP2 MLOAD PUSH8 0xFFFFFFFFFFFFFFFF DUP2 GT ISZERO PUSH2 0x535F JUMPI PUSH1 0x0 DUP1 REVERT JUMPDEST DUP3 ADD PUSH1 0xA0 DUP2 DUP6 SUB SLT ISZERO PUSH2 0x5371 JUMPI PUSH1 0x0 DUP1 REVERT JUMPDEST PUSH2 0x5379 PUSH2 0x45EB JUMP JUMPDEST DUP2 MLOAD PUSH8 0xFFFFFFFFFFFFFFFF DUP2 GT ISZERO PUSH2 0x5390 JUMPI PUSH1 0x0 DUP1 REVERT JUMPDEST PUSH2 0x539C DUP7 DUP3 DUP6 ADD PUSH2 0x5288 JUMP JUMPDEST DUP3 MSTORE POP PUSH2 0x53AB PUSH1 0x20 DUP4 ADD PUSH2 0x52A8 JUMP JUMPDEST PUSH1 0x20 DUP3 ADD MSTORE PUSH1 0x40 DUP3 DUP2 ADD MLOAD SWAP1 DUP3 ADD MSTORE PUSH1 0x60 DUP3 ADD MLOAD PUSH8 0xFFFFFFFFFFFFFFFF DUP2 GT ISZERO PUSH2 0x53D4 JUMPI PUSH1 0x0 DUP1 REVERT JUMPDEST PUSH2 0x53E0 DUP7 DUP3 DUP6 ADD PUSH2 0x5288 JUMP JUMPDEST PUSH1 0x60 DUP4 ADD MSTORE POP PUSH1 0x80 DUP3 ADD MLOAD PUSH8 0xFFFFFFFFFFFFFFFF DUP2 GT ISZERO PUSH2 0x5400 JUMPI PUSH1 0x0 DUP1 REVERT JUMPDEST PUSH2 0x540C DUP7 DUP3 DUP6 ADD PUSH2 0x52B3 JUMP JUMPDEST PUSH1 0x80 DUP4 ADD MSTORE POP SWAP5 SWAP4 POP POP POP POP JUMP JUMPDEST PUSH1 0x0 PUSH2 0xFFFF DUP4 AND DUP1 PUSH2 0x542E JUMPI PUSH2 0x542E PUSH2 0x4FF7 JUMP JUMPDEST DUP1 PUSH2 0xFFFF DUP5 AND MOD SWAP2 POP POP SWAP3 SWAP2 POP POP JUMP INVALID LOG2 PUSH5 0x6970667358 0x22 SLT KECCAK256 DUP9 BLOCKHASH 0xB6 PUSH18 0x26861F302A89AE47A084C766C895A958B22 0xB3 EXP BASEFEE 0xDB SWAP5 PUSH0 BLOBHASH 0xAC 0xD9 STOP PUSH5 0x736F6C6343 STOP ADDMOD SHR STOP CALLER "},"methodIdentifiers":{"addMarketplace(uint64,uint8,string,string)":"58dee054","betSlips(uint256)":"5023a0c9","domain()":"c2fb26a6","getBetSlip(uint256)":"32d268a5","getMarketplace(uint256)":"f53aac2a","getProxiedBet(bytes32)":"f1b9ea17","getUserActiveBetslips()":"b76ebb56","getUserActiveBetslips(bytes)":"daee6fbc","getUserBalance()":"b7013dc1","getUserBalance(bytes)":"9f88151e","getUserClosedBets()":"d69418f3","getUserClosedBets(bytes)":"d1d758cb","initiateSellProxiedBets(uint256)":"1972033f","login(string,(bytes32,bytes32,uint256))":"7f476b6f","marketplaces(uint256)":"2b64deec","musdcToken()":"15534b70","owner()":"8da5cb5b","placeBet(uint8,uint256,uint256,bytes32[],bytes32[])":"e75a88a0","proxiedBets(bytes32)":"974d4ed8","recordProxiedBetClosed(bytes32,uint8,uint256)":"212e94c9","recordProxiedBetPlaced(uint256,(bytes32,uint256,uint256,uint256,uint256,uint256,uint256,uint256,uint256,uint256,uint256,uint8,string))":"7d5559d9","recordProxiedBetSold(bytes32,uint256,uint256)":"2e5abd7b","renounceOwnership()":"715018a6","roflAppId()":"181031b1","setCollateralToken(address)":"666181a9","setRoflAppId(bytes21)":"a935ee0e","transferOwnership(address)":"f2fde38b","updateBetSlipStatus(uint256,uint8)":"2a6d3e9b","userActiveBetSlips(address,uint256)":"3074eebc","userClosedBetSlips(address,uint256)":"29ec9442","withdrawWinnings(uint256)":"14794702"}}}}}