{
  "_format": "hh-sol-artifact-1",
  "contractName": "PolyBet",
  "sourceName": "contracts/polybet.sol",
  "abi": [
    {
      "inputs": [],
      "stateMutability": "nonpayable",
      "type": "constructor"
    },
    {
      "inputs": [],
      "name": "A13e_RevokedAuthToken",
      "type": "error"
    },
    {
      "inputs": [],
      "name": "RoflOriginNotAuthorizedForApp",
      "type": "error"
    },
    {
      "inputs": [],
      "name": "SiweAuth_AddressMismatch",
      "type": "error"
    },
    {
      "inputs": [],
      "name": "SiweAuth_ChainIdMismatch",
      "type": "error"
    },
    {
      "inputs": [],
      "name": "SiweAuth_DomainMismatch",
      "type": "error"
    },
    {
      "inputs": [],
      "name": "SiweAuth_Expired",
      "type": "error"
    },
    {
      "inputs": [],
      "name": "SiweAuth_NotBeforeInFuture",
      "type": "error"
    },
    {
      "inputs": [],
      "name": "SiweParser_InvalidAddressLength",
      "type": "error"
    },
    {
      "inputs": [],
      "name": "SiweParser_InvalidNonce",
      "type": "error"
    },
    {
      "inputs": [],
      "name": "SubcallError",
      "type": "error"
    },
    {
      "anonymous": false,
      "inputs": [
        {
          "indexed": true,
          "internalType": "uint256",
          "name": "betId",
          "type": "uint256"
        },
        {
          "indexed": false,
          "internalType": "uint256",
          "name": "totalCollateralAmount",
          "type": "uint256"
        },
        {
          "indexed": false,
          "internalType": "uint256",
          "name": "outcomeIndex",
          "type": "uint256"
        },
        {
          "indexed": false,
          "internalType": "bytes32[]",
          "name": "marketplaceIds",
          "type": "bytes32[]"
        },
        {
          "indexed": false,
          "internalType": "bytes32[]",
          "name": "marketIds",
          "type": "bytes32[]"
        }
      ],
      "name": "BetSlipCreated",
      "type": "event"
    },
    {
      "anonymous": false,
      "inputs": [
        {
          "indexed": true,
          "internalType": "uint256",
          "name": "betId",
          "type": "uint256"
        }
      ],
      "name": "BetSlipSellingStateUpdate",
      "type": "event"
    },
    {
      "anonymous": false,
      "inputs": [
        {
          "indexed": true,
          "internalType": "address",
          "name": "previousOwner",
          "type": "address"
        },
        {
          "indexed": true,
          "internalType": "address",
          "name": "newOwner",
          "type": "address"
        }
      ],
      "name": "OwnershipTransferred",
      "type": "event"
    },
    {
      "inputs": [
        {
          "internalType": "uint64",
          "name": "chainId",
          "type": "uint64"
        },
        {
          "internalType": "enum PolyBet.ChainFamily",
          "name": "family",
          "type": "uint8"
        },
        {
          "internalType": "string",
          "name": "name",
          "type": "string"
        },
        {
          "internalType": "string",
          "name": "marketplaceProxy",
          "type": "string"
        }
      ],
      "name": "addMarketplace",
      "outputs": [],
      "stateMutability": "nonpayable",
      "type": "function"
    },
    {
      "inputs": [
        {
          "internalType": "uint256",
          "name": "",
          "type": "uint256"
        }
      ],
      "name": "betSlips",
      "outputs": [
        {
          "internalType": "enum PolyBet.BetSlipStrategy",
          "name": "strategy",
          "type": "uint8"
        },
        {
          "internalType": "uint256",
          "name": "initialCollateral",
          "type": "uint256"
        },
        {
          "internalType": "uint256",
          "name": "finalCollateral",
          "type": "uint256"
        },
        {
          "internalType": "uint256",
          "name": "outcomeIndex",
          "type": "uint256"
        },
        {
          "internalType": "enum PolyBet.BetSlipStatus",
          "name": "status",
          "type": "uint8"
        },
        {
          "internalType": "string",
          "name": "failureReason",
          "type": "string"
        }
      ],
      "stateMutability": "view",
      "type": "function"
    },
    {
      "inputs": [],
      "name": "domain",
      "outputs": [
        {
          "internalType": "string",
          "name": "",
          "type": "string"
        }
      ],
      "stateMutability": "view",
      "type": "function"
    },
    {
      "inputs": [
        {
          "internalType": "uint256",
          "name": "betSlipId",
          "type": "uint256"
        }
      ],
      "name": "getBetSlip",
      "outputs": [
        {
          "components": [
            {
              "internalType": "enum PolyBet.BetSlipStrategy",
              "name": "strategy",
              "type": "uint8"
            },
            {
              "internalType": "uint256",
              "name": "initialCollateral",
              "type": "uint256"
            },
            {
              "internalType": "uint256",
              "name": "finalCollateral",
              "type": "uint256"
            },
            {
              "internalType": "uint256",
              "name": "outcomeIndex",
              "type": "uint256"
            },
            {
              "internalType": "enum PolyBet.BetSlipStatus",
              "name": "status",
              "type": "uint8"
            },
            {
              "internalType": "string",
              "name": "failureReason",
              "type": "string"
            },
            {
              "internalType": "bytes32[]",
              "name": "marketplaceIds",
              "type": "bytes32[]"
            },
            {
              "internalType": "bytes32[]",
              "name": "marketIds",
              "type": "bytes32[]"
            },
            {
              "internalType": "bytes32[]",
              "name": "proxiedBets",
              "type": "bytes32[]"
            }
          ],
          "internalType": "struct PolyBet.BetSlip",
          "name": "",
          "type": "tuple"
        }
      ],
      "stateMutability": "view",
      "type": "function"
    },
    {
      "inputs": [
        {
          "internalType": "uint256",
          "name": "marketplaceId",
          "type": "uint256"
        }
      ],
      "name": "getMarketplace",
      "outputs": [
        {
          "components": [
            {
              "internalType": "uint256",
              "name": "warpRouterId",
              "type": "uint256"
            },
            {
              "internalType": "uint256",
              "name": "chainId",
              "type": "uint256"
            },
            {
              "internalType": "enum PolyBet.ChainFamily",
              "name": "chainFamily",
              "type": "uint8"
            },
            {
              "internalType": "string",
              "name": "name",
              "type": "string"
            },
            {
              "internalType": "string",
              "name": "marketplaceProxy",
              "type": "string"
            },
            {
              "internalType": "enum PolyBet.PricingStrategy",
              "name": "pricingStrategy",
              "type": "uint8"
            }
          ],
          "internalType": "struct PolyBet.Marketplace",
          "name": "",
          "type": "tuple"
        }
      ],
      "stateMutability": "view",
      "type": "function"
    },
    {
      "inputs": [
        {
          "internalType": "bytes32",
          "name": "betId",
          "type": "bytes32"
        }
      ],
      "name": "getProxiedBet",
      "outputs": [
        {
          "components": [
            {
              "internalType": "bytes32",
              "name": "id",
              "type": "bytes32"
            },
            {
              "internalType": "uint256",
              "name": "betSlipId",
              "type": "uint256"
            },
            {
              "internalType": "uint256",
              "name": "marketplaceId",
              "type": "uint256"
            },
            {
              "internalType": "uint256",
              "name": "marketId",
              "type": "uint256"
            },
            {
              "internalType": "uint256",
              "name": "optionIndex",
              "type": "uint256"
            },
            {
              "internalType": "uint256",
              "name": "minimumShares",
              "type": "uint256"
            },
            {
              "internalType": "uint256",
              "name": "blockTimestamp",
              "type": "uint256"
            },
            {
              "internalType": "uint256",
              "name": "originalCollateralAmount",
              "type": "uint256"
            },
            {
              "internalType": "uint256",
              "name": "finalCollateralAmount",
              "type": "uint256"
            },
            {
              "internalType": "uint256",
              "name": "sharesBought",
              "type": "uint256"
            },
            {
              "internalType": "uint256",
              "name": "sharesSold",
              "type": "uint256"
            },
            {
              "internalType": "enum PolyBet.BetOutcome",
              "name": "outcome",
              "type": "uint8"
            },
            {
              "internalType": "string",
              "name": "failureReason",
              "type": "string"
            }
          ],
          "internalType": "struct PolyBet.ProxiedBet",
          "name": "",
          "type": "tuple"
        }
      ],
      "stateMutability": "view",
      "type": "function"
    },
    {
      "inputs": [],
      "name": "getUserActiveBetslips",
      "outputs": [
        {
          "internalType": "uint256[]",
          "name": "",
          "type": "uint256[]"
        }
      ],
      "stateMutability": "view",
      "type": "function"
    },
    {
      "inputs": [
        {
          "internalType": "bytes",
          "name": "authToken",
          "type": "bytes"
        }
      ],
      "name": "getUserActiveBetslips",
      "outputs": [
        {
          "internalType": "uint256[]",
          "name": "",
          "type": "uint256[]"
        }
      ],
      "stateMutability": "view",
      "type": "function"
    },
    {
      "inputs": [
        {
          "internalType": "bytes",
          "name": "authToken",
          "type": "bytes"
        }
      ],
      "name": "getUserBalance",
      "outputs": [
        {
          "internalType": "uint256",
          "name": "",
          "type": "uint256"
        }
      ],
      "stateMutability": "view",
      "type": "function"
    },
    {
      "inputs": [],
      "name": "getUserBalance",
      "outputs": [
        {
          "internalType": "uint256",
          "name": "",
          "type": "uint256"
        }
      ],
      "stateMutability": "view",
      "type": "function"
    },
    {
      "inputs": [
        {
          "internalType": "bytes",
          "name": "authToken",
          "type": "bytes"
        }
      ],
      "name": "getUserClosedBets",
      "outputs": [
        {
          "internalType": "uint256[]",
          "name": "",
          "type": "uint256[]"
        }
      ],
      "stateMutability": "view",
      "type": "function"
    },
    {
      "inputs": [],
      "name": "getUserClosedBets",
      "outputs": [
        {
          "internalType": "uint256[]",
          "name": "",
          "type": "uint256[]"
        }
      ],
      "stateMutability": "view",
      "type": "function"
    },
    {
      "inputs": [
        {
          "internalType": "uint256",
          "name": "betSlipId",
          "type": "uint256"
        }
      ],
      "name": "initiateSellProxiedBets",
      "outputs": [],
      "stateMutability": "nonpayable",
      "type": "function"
    },
    {
      "inputs": [
        {
          "internalType": "string",
          "name": "siweMsg",
          "type": "string"
        },
        {
          "components": [
            {
              "internalType": "bytes32",
              "name": "r",
              "type": "bytes32"
            },
            {
              "internalType": "bytes32",
              "name": "s",
              "type": "bytes32"
            },
            {
              "internalType": "uint256",
              "name": "v",
              "type": "uint256"
            }
          ],
          "internalType": "struct SignatureRSV",
          "name": "sig",
          "type": "tuple"
        }
      ],
      "name": "login",
      "outputs": [
        {
          "internalType": "bytes",
          "name": "",
          "type": "bytes"
        }
      ],
      "stateMutability": "view",
      "type": "function"
    },
    {
      "inputs": [
        {
          "internalType": "uint256",
          "name": "",
          "type": "uint256"
        }
      ],
      "name": "marketplaces",
      "outputs": [
        {
          "internalType": "uint256",
          "name": "warpRouterId",
          "type": "uint256"
        },
        {
          "internalType": "uint256",
          "name": "chainId",
          "type": "uint256"
        },
        {
          "internalType": "enum PolyBet.ChainFamily",
          "name": "chainFamily",
          "type": "uint8"
        },
        {
          "internalType": "string",
          "name": "name",
          "type": "string"
        },
        {
          "internalType": "string",
          "name": "marketplaceProxy",
          "type": "string"
        },
        {
          "internalType": "enum PolyBet.PricingStrategy",
          "name": "pricingStrategy",
          "type": "uint8"
        }
      ],
      "stateMutability": "view",
      "type": "function"
    },
    {
      "inputs": [],
      "name": "musdcToken",
      "outputs": [
        {
          "internalType": "contract IERC20",
          "name": "",
          "type": "address"
        }
      ],
      "stateMutability": "view",
      "type": "function"
    },
    {
      "inputs": [],
      "name": "owner",
      "outputs": [
        {
          "internalType": "address",
          "name": "",
          "type": "address"
        }
      ],
      "stateMutability": "view",
      "type": "function"
    },
    {
      "inputs": [
        {
          "internalType": "enum PolyBet.BetSlipStrategy",
          "name": "strategy",
          "type": "uint8"
        },
        {
          "internalType": "uint256",
          "name": "totalCollateralAmount",
          "type": "uint256"
        },
        {
          "internalType": "uint256",
          "name": "outcomeIndex",
          "type": "uint256"
        },
        {
          "internalType": "bytes32[]",
          "name": "marketplaceIds",
          "type": "bytes32[]"
        },
        {
          "internalType": "bytes32[]",
          "name": "marketIds",
          "type": "bytes32[]"
        }
      ],
      "name": "placeBet",
      "outputs": [],
      "stateMutability": "nonpayable",
      "type": "function"
    },
    {
      "inputs": [
        {
          "internalType": "bytes32",
          "name": "",
          "type": "bytes32"
        }
      ],
      "name": "proxiedBets",
      "outputs": [
        {
          "internalType": "bytes32",
          "name": "id",
          "type": "bytes32"
        },
        {
          "internalType": "uint256",
          "name": "betSlipId",
          "type": "uint256"
        },
        {
          "internalType": "uint256",
          "name": "marketplaceId",
          "type": "uint256"
        },
        {
          "internalType": "uint256",
          "name": "marketId",
          "type": "uint256"
        },
        {
          "internalType": "uint256",
          "name": "optionIndex",
          "type": "uint256"
        },
        {
          "internalType": "uint256",
          "name": "minimumShares",
          "type": "uint256"
        },
        {
          "internalType": "uint256",
          "name": "blockTimestamp",
          "type": "uint256"
        },
        {
          "internalType": "uint256",
          "name": "originalCollateralAmount",
          "type": "uint256"
        },
        {
          "internalType": "uint256",
          "name": "finalCollateralAmount",
          "type": "uint256"
        },
        {
          "internalType": "uint256",
          "name": "sharesBought",
          "type": "uint256"
        },
        {
          "internalType": "uint256",
          "name": "sharesSold",
          "type": "uint256"
        },
        {
          "internalType": "enum PolyBet.BetOutcome",
          "name": "outcome",
          "type": "uint8"
        },
        {
          "internalType": "string",
          "name": "failureReason",
          "type": "string"
        }
      ],
      "stateMutability": "view",
      "type": "function"
    },
    {
      "inputs": [
        {
          "internalType": "bytes32",
          "name": "proxiedBetId",
          "type": "bytes32"
        },
        {
          "internalType": "enum PolyBet.BetOutcome",
          "name": "outcome",
          "type": "uint8"
        },
        {
          "internalType": "uint256",
          "name": "winningsCollateralValue",
          "type": "uint256"
        }
      ],
      "name": "recordProxiedBetClosed",
      "outputs": [],
      "stateMutability": "nonpayable",
      "type": "function"
    },
    {
      "inputs": [
        {
          "internalType": "uint256",
          "name": "betSlipId",
          "type": "uint256"
        },
        {
          "components": [
            {
              "internalType": "bytes32",
              "name": "id",
              "type": "bytes32"
            },
            {
              "internalType": "uint256",
              "name": "betSlipId",
              "type": "uint256"
            },
            {
              "internalType": "uint256",
              "name": "marketplaceId",
              "type": "uint256"
            },
            {
              "internalType": "uint256",
              "name": "marketId",
              "type": "uint256"
            },
            {
              "internalType": "uint256",
              "name": "optionIndex",
              "type": "uint256"
            },
            {
              "internalType": "uint256",
              "name": "minimumShares",
              "type": "uint256"
            },
            {
              "internalType": "uint256",
              "name": "blockTimestamp",
              "type": "uint256"
            },
            {
              "internalType": "uint256",
              "name": "originalCollateralAmount",
              "type": "uint256"
            },
            {
              "internalType": "uint256",
              "name": "finalCollateralAmount",
              "type": "uint256"
            },
            {
              "internalType": "uint256",
              "name": "sharesBought",
              "type": "uint256"
            },
            {
              "internalType": "uint256",
              "name": "sharesSold",
              "type": "uint256"
            },
            {
              "internalType": "enum PolyBet.BetOutcome",
              "name": "outcome",
              "type": "uint8"
            },
            {
              "internalType": "string",
              "name": "failureReason",
              "type": "string"
            }
          ],
          "internalType": "struct PolyBet.ProxiedBet",
          "name": "proxiedBet",
          "type": "tuple"
        }
      ],
      "name": "recordProxiedBetPlaced",
      "outputs": [],
      "stateMutability": "nonpayable",
      "type": "function"
    },
    {
      "inputs": [
        {
          "internalType": "bytes32",
          "name": "proxiedBetId",
          "type": "bytes32"
        },
        {
          "internalType": "uint256",
          "name": "sharesSold",
          "type": "uint256"
        },
        {
          "internalType": "uint256",
          "name": "sharesSoldCollateralValue",
          "type": "uint256"
        }
      ],
      "name": "recordProxiedBetSold",
      "outputs": [],
      "stateMutability": "nonpayable",
      "type": "function"
    },
    {
      "inputs": [],
      "name": "renounceOwnership",
      "outputs": [],
      "stateMutability": "nonpayable",
      "type": "function"
    },
    {
      "inputs": [],
      "name": "roflAppId",
      "outputs": [
        {
          "internalType": "bytes21",
          "name": "",
          "type": "bytes21"
        }
      ],
      "stateMutability": "view",
      "type": "function"
    },
    {
      "inputs": [
        {
          "internalType": "address",
          "name": "_musdcToken",
          "type": "address"
        }
      ],
      "name": "setCollateralToken",
      "outputs": [],
      "stateMutability": "nonpayable",
      "type": "function"
    },
    {
      "inputs": [
        {
          "internalType": "bytes21",
          "name": "appId",
          "type": "bytes21"
        }
      ],
      "name": "setRoflAppId",
      "outputs": [],
      "stateMutability": "nonpayable",
      "type": "function"
    },
    {
      "inputs": [
        {
          "internalType": "address",
          "name": "newOwner",
          "type": "address"
        }
      ],
      "name": "transferOwnership",
      "outputs": [],
      "stateMutability": "nonpayable",
      "type": "function"
    },
    {
      "inputs": [
        {
          "internalType": "uint256",
          "name": "betSlipId",
          "type": "uint256"
        },
        {
          "internalType": "enum PolyBet.BetSlipStatus",
          "name": "status",
          "type": "uint8"
        }
      ],
      "name": "updateBetSlipStatus",
      "outputs": [],
      "stateMutability": "nonpayable",
      "type": "function"
    },
    {
      "inputs": [
        {
          "internalType": "address",
          "name": "",
          "type": "address"
        },
        {
          "internalType": "uint256",
          "name": "",
          "type": "uint256"
        }
      ],
      "name": "userActiveBetSlips",
      "outputs": [
        {
          "internalType": "uint256",
          "name": "",
          "type": "uint256"
        }
      ],
      "stateMutability": "view",
      "type": "function"
    },
    {
      "inputs": [
        {
          "internalType": "address",
          "name": "",
          "type": "address"
        },
        {
          "internalType": "uint256",
          "name": "",
          "type": "uint256"
        }
      ],
      "name": "userClosedBetSlips",
      "outputs": [
        {
          "internalType": "uint256",
          "name": "",
          "type": "uint256"
        }
      ],
      "stateMutability": "view",
      "type": "function"
    },
    {
      "inputs": [
        {
          "internalType": "uint256",
          "name": "amount",
          "type": "uint256"
        }
      ],
      "name": "withdrawWinnings",
      "outputs": [],
      "stateMutability": "nonpayable",
      "type": "function"
    }
  ],
  "bytecode": "0x608060405234801561001057600080fd5b5060405180604001604052806007815260200166141bdb1e50995d60ca1b81525061005160206040518060200160405280600081525061007a60201b60201c565b61005a906101ba565b6002556001610069828261027a565b50610075905033610168565b6103b2565b60606000807301000000000000000000000000000000000000016001600160a01b031685856040516020016100b092919061035c565b60408051601f19818403018152908290526100ca91610396565b600060405180830381855afa9150503d8060008114610105576040519150601f19603f3d011682016040523d82523d6000602084013e61010a565b606091505b5091509150816101605760405162461bcd60e51b815260206004820152601360248201527f72616e646f6d42797465733a206661696c656400000000000000000000000000604482015260640160405180910390fd5b949350505050565b600380546001600160a01b038381166001600160a01b0319831681179093556040519116919082907f8be0079c531659141344cd1fd0a4f28419497f9722a3daafe3b4186f6b6457e090600090a35050565b805160208083015191908110156101db576000198160200360031b1b821691505b50919050565b634e487b7160e01b600052604160045260246000fd5b600181811c9082168061020b57607f821691505b6020821081036101db57634e487b7160e01b600052602260045260246000fd5b601f82111561027557806000526020600020601f840160051c810160208510156102525750805b601f840160051c820191505b81811015610272576000815560010161025e565b50505b505050565b81516001600160401b03811115610293576102936101e1565b6102a7816102a184546101f7565b8461022b565b6020601f8211600181146102db57600083156102c35750848201515b600019600385901b1c1916600184901b178455610272565b600084815260208120601f198516915b8281101561030b57878501518255602094850194600190920191016102eb565b50848210156103295786840151600019600387901b60f8161c191681555b50505050600190811b01905550565b60005b8381101561035357818101518382015260200161033b565b50506000910152565b8281526040602082015260008251806040840152610381816060850160208701610338565b601f01601f1916919091016060019392505050565b600082516103a8818460208701610338565b9190910192915050565b615474806103c16000396000f3fe608060405234801561001057600080fd5b50600436106101e55760003560e01c80637d5559d91161010f578063c2fb26a6116100a2578063e75a88a011610071578063e75a88a01461045a578063f1b9ea171461046d578063f2fde38b1461048d578063f53aac2a146104a057600080fd5b8063c2fb26a614610424578063d1d758cb1461042c578063d69418f31461043f578063daee6fbc1461044757600080fd5b80639f88151e116100de5780639f88151e146103e1578063a935ee0e146103f4578063b7013dc114610407578063b76ebb561461040f57600080fd5b80637d5559d9146103715780637f476b6f146103845780638da5cb5b146103a4578063974d4ed8146103b557600080fd5b80632b64deec116101875780635023a0c9116101565780635023a0c91461031e57806358dee05414610343578063666181a914610356578063715018a61461036957600080fd5b80632b64deec146102b35780632e5abd7b146102d85780633074eebc146102eb57806332d268a5146102fe57600080fd5b80631972033f116101c35780631972033f14610259578063212e94c91461026c57806329ec94421461027f5780632a6d3e9b146102a057600080fd5b806314794702146101ea57806315534b70146101ff578063181031b11461022f575b600080fd5b6101fd6101f8366004614243565b6104c0565b005b600454610212906001600160a01b031681565b6040516001600160a01b0390911681526020015b60405180910390f35b60055461023c9060581b81565b6040516affffffffffffffffffffff199091168152602001610226565b6101fd610267366004614243565b6105b2565b6101fd61027a366004614270565b61072f565b61029261028d3660046142bb565b6108af565b604051908152602001610226565b6101fd6102ae3660046142e7565b6108e0565b6102c66102c1366004614243565b61092a565b604051610226969594939291906143a5565b6101fd6102e63660046143f5565b610a8d565b6102926102f93660046142bb565b610bc5565b61031161030c366004614243565b610be1565b6040516102269190614476565b61033161032c366004614243565b610e36565b6040516102269695949392919061453b565b6101fd6103513660046146c5565b610f11565b6101fd610364366004614753565b61100d565b6101fd61109a565b6101fd61037f366004614770565b6110ae565b610397610392366004614874565b6111e9565b6040516102269190614905565b6003546001600160a01b0316610212565b6103c86103c3366004614243565b61156a565b6040516102269d9c9b9a99989796959493929190614928565b6102926103ef3660046149a4565b611665565b6101fd6104023660046149ed565b611690565b6102926116cc565b61041761172f565b6040516102269190614a1b565b6103976117dd565b61041761043a3660046149a4565b611866565b6104176118e2565b6104176104553660046149a4565b61198e565b6101fd610468366004614aea565b611a08565b61048061047b366004614243565b611dd2565b6040516102269190614b79565b6101fd61049b366004614753565b611f30565b6104b36104ae366004614243565b611fbd565b6040516102269190614c21565b600081116105155760405162461bcd60e51b815260206004820152601d60248201527f616d6f756e74206d7573742062652067726561746572207468616e203000000060448201526064015b60405180910390fd5b336000908152600c60205260409020548111156105745760405162461bcd60e51b815260206004820152601460248201527f696e73756666696369656e742062616c616e6365000000000000000000000000604482015260640161050c565b336000908152600c602052604081208054839290610593908490614cae565b90915550506004546105af906001600160a01b0316338361219a565b50565b6105ba612243565b600854811061060b5760405162461bcd60e51b815260206004820152601360248201527f696e76616c69642062657420736c697020696400000000000000000000000000604482015260640161050c565b60026008828154811061062057610620614cc1565b600091825260209091206004600990920201015460ff1660058111156106485761064861431b565b146106ba5760405162461bcd60e51b8152602060048201526024808201527f63616e6e6f742063616e63656c206120626574207468617473206e6f7420706c60448201527f6163656400000000000000000000000000000000000000000000000000000000606482015260840161050c565b6003600882815481106106cf576106cf614cc1565b60009182526020909120600460099092020101805460ff191660018360058111156106fc576106fc61431b565b021790555060405181907f81eb4691b662c46a6dec13291164c2bec8b699c7596e4ab3d8f23ce01943647090600090a250565b610737612243565b600082600781111561074b5761074b61431b565b1415801561076b575060038260078111156107685761076861431b565b14155b6107b75760405162461bcd60e51b815260206004820152601e60248201527f6f7574636f6d652063616e6e6f74206265206e6f6e65206f7220736f6c640000604482015260640161050c565b60016000848152600d60205260409020600b015460ff1660078111156107df576107df61431b565b1461082c5760405162461bcd60e51b815260206004820152601a60248201527f696e76616c6964206f7574636f6d65207472616e736974696f6e000000000000604482015260640161050c565b60055460581b6affffffffffffffffffffff191615610854576005546108549060581b61229d565b6000838152600d60205260409020600b01805483919060ff191660018360078111156108825761088261431b565b0217905550600080600061089686856123dc565b9250925092506108a78383836124a4565b505050505050565b600b60205281600052604060002081815481106108cb57600080fd5b90600052602060002001600091509150505481565b80600883815481106108f4576108f4614cc1565b60009182526020909120600460099092020101805460ff191660018360058111156109215761092161431b565b02179055505050565b6007818154811061093a57600080fd5b60009182526020909120600690910201805460018201546002830154600384018054939550919360ff9091169290919061097390614cd7565b80601f016020809104026020016040519081016040528092919081815260200182805461099f90614cd7565b80156109ec5780601f106109c1576101008083540402835291602001916109ec565b820191906000526020600020905b8154815290600101906020018083116109cf57829003601f168201915b505050505090806004018054610a0190614cd7565b80601f0160208091040260200160405190810160405280929190818152602001828054610a2d90614cd7565b8015610a7a5780601f10610a4f57610100808354040283529160200191610a7a565b820191906000526020600020905b815481529060010190602001808311610a5d57829003601f168201915b5050506005909301549192505060ff1686565b610a95612243565b60055460581b6affffffffffffffffffffff191615610abd57600554610abd9060581b61229d565b6000838152600d60205260408120600a018054849290610ade908490614d0b565b90915550506000838152600d60205260409020600a8101546009909101541015610b705760405162461bcd60e51b815260206004820152602360248201527f63616e6e6f742073656c6c206d6f726520736861726573207468616e20626f7560448201527f6768740000000000000000000000000000000000000000000000000000000000606482015260840161050c565b6000838152600d60205260409020600a81015460099091015403610bb6576000838152600d60205260408120600b01805460ff19166003179055808061089686856123dc565b6108a783826123dc565b505050565b600a60205281600052604060002081815481106108cb57600080fd5b610be96140a4565b60088281548110610bfc57610bfc614cc1565b600091825260209091206040805161012081019091526009909202018054829060ff166001811115610c3057610c3061431b565b6001811115610c4157610c4161431b565b8152600182015460208201526002820154604082015260038201546060820152600482015460809091019060ff166005811115610c8057610c8061431b565b6005811115610c9157610c9161431b565b8152602001600582018054610ca590614cd7565b80601f0160208091040260200160405190810160405280929190818152602001828054610cd190614cd7565b8015610d1e5780601f10610cf357610100808354040283529160200191610d1e565b820191906000526020600020905b815481529060010190602001808311610d0157829003601f168201915b5050505050815260200160068201805480602002602001604051908101604052809291908181526020018280548015610d7657602002820191906000526020600020905b815481526020019060010190808311610d62575b5050505050815260200160078201805480602002602001604051908101604052809291908181526020018280548015610dce57602002820191906000526020600020905b815481526020019060010190808311610dba575b5050505050815260200160088201805480602002602001604051908101604052809291908181526020018280548015610e2657602002820191906000526020600020905b815481526020019060010190808311610e12575b5050505050815250509050919050565b60088181548110610e4657600080fd5b600091825260209091206009909102018054600182015460028301546003840154600485015460058601805460ff9687169850949693959294929091169291610e8e90614cd7565b80601f0160208091040260200160405190810160405280929190818152602001828054610eba90614cd7565b8015610f075780601f10610edc57610100808354040283529160200191610f07565b820191906000526020600020905b815481529060010190602001808311610eea57829003601f168201915b5050505050905086565b60076040518060c00160405280600081526020018667ffffffffffffffff168152602001856001811115610f4757610f4761431b565b81526020810185905260408101849052606001600290528154600181810184556000938452602093849020835160069093020191825592820151818401556040820151600282018054939492939192909160ff1916908381811115610fae57610fae61431b565b021790555060608201516003820190610fc79082614d65565b5060808201516004820190610fdc9082614d65565b5060a082015160058201805460ff191660018360028111156110005761100061431b565b0217905550505050505050565b611015612243565b6001600160a01b03811661106b5760405162461bcd60e51b815260206004820152601b60248201527f696e76616c6964204d5553444320746f6b656e20616464726573730000000000604482015260640161050c565b6004805473ffffffffffffffffffffffffffffffffffffffff19166001600160a01b0392909216919091179055565b6110a2612243565b6110ac60006125fd565b565b6110b6612243565b60055460581b6affffffffffffffffffffff1916156110de576005546110de9060581b61229d565b600882815481106110f1576110f1614cc1565b600091825260208083208451600860099485029092018201805460018181018355918752848720019190915585518552600d8352604094859020865181559286015183820155938501516002830155606085015160038301556080850151600483015560a0850151600583015560c0850151600683015560e08501516007808401919091556101008601519183019190915561012085015192820192909255610140840151600a820155610160840151600b82018054869593949293919260ff19909116919084908111156111c8576111c861431b565b0217905550610180820151600c8201906111e29082614d65565b5050505050565b60606112266040518060a001604052806060815260200160006001600160a01b031681526020016000815260200160608152602001606081525090565b60006112318561265c565b868660405160200161124593929190614e24565b60408051601f19818403018152828252805160208083019190912060008086528583018086529190915260ff89850135169385019390935287356060850152870135608084015292509060019060a0016020604051602081039080840390855afa1580156112b7573d6000803e3d6000fd5b5050604051601f1901516001600160a01b03811660208601529150600090506112e088886126fd565b9050468160a001511461131f576040517f362c833700000000000000000000000000000000000000000000000000000000815260040160405180910390fd5b600160405161132e9190614e78565b6040518091039020816000015180519060200120146113605760405163283d62bd60e01b815260040160405180910390fd5b8051845260208101516001600160a01b038381169116146113ad576040517f05cc02e100000000000000000000000000000000000000000000000000000000815260040160405180910390fd5b61012081015151158015906113cf57506113cb816101200151612cee565b4211155b15611406576040517f299d02f100000000000000000000000000000000000000000000000000000000815260040160405180910390fd5b610100810151511561142d576000611422826101000151612cee565b604086015250611440565b61143a6201518042614d0b565b60408501525b8360400151421061146457604051630b17115560e41b815260040160405180910390fd5b604081015160608501526101608101515167ffffffffffffffff81111561148d5761148d6145ab565b6040519080825280602002602001820160405280156114c057816020015b60608152602001906001900390816114ab5790505b50608085015260005b8161016001515181101561151f5781610160015181815181106114ee576114ee614cc1565b60200260200101518560800151828151811061150c5761150c614cc1565b60209081029190910101526001016114c9565b50600061155b6002546000801b8760405160200161153d9190614eed565b60408051601f19818403018152602083019091526000825290612d5d565b955050505050505b9392505050565b600d60205280600052604060002060009150905080600001549080600101549080600201549080600301549080600401549080600501549080600601549080600701549080600801549080600901549080600a01549080600b0160009054906101000a900460ff169080600c0180546115e290614cd7565b80601f016020809104026020016040519081016040528092919081815260200182805461160e90614cd7565b801561165b5780601f106116305761010080835404028352916020019161165b565b820191906000526020600020905b81548152906001019060200180831161163e57829003601f168201915b505050505090508d565b60008061167183612e4f565b6001600160a01b03166000908152600c60205260409020549392505050565b611698612243565b600580547fffffffffffffffffffffff0000000000000000000000000000000000000000001660589290921c919091179055565b60003361171b5760405162461bcd60e51b815260206004820152601760248201527f61757468656e7469636174696f6e207265717569726564000000000000000000604482015260640161050c565b50336000908152600c602052604090205490565b60603361177e5760405162461bcd60e51b815260206004820152601760248201527f61757468656e7469636174696f6e207265717569726564000000000000000000604482015260640161050c565b336000908152600a6020908152604091829020805483518184028101840190945280845290918301828280156117d357602002820191906000526020600020905b8154815260200190600101908083116117bf575b5050505050905090565b6060600180546117ec90614cd7565b80601f016020809104026020016040519081016040528092919081815260200182805461181890614cd7565b80156117d35780601f1061183a576101008083540402835291602001916117d3565b820191906000526020600020905b81548152906001019060200180831161184857509395945050505050565b6060600061187383612e4f565b6001600160a01b0381166000908152600b602090815260409182902080548351818402810184019094528084529394509192908301828280156118d557602002820191906000526020600020905b8154815260200190600101908083116118c1575b5050505050915050919050565b6060336119315760405162461bcd60e51b815260206004820152601760248201527f61757468656e7469636174696f6e207265717569726564000000000000000000604482015260640161050c565b336000908152600b6020908152604091829020805483518184028101840190945280845290918301828280156117d357602002820191906000526020600020908154815260200190600101908083116117bf575050505050905090565b6060600061199b83612e4f565b6001600160a01b0381166000908152600a602090815260409182902080548351818402810184019094528084529394509192908301828280156118d557602002820191906000526020600020908154815260200190600101908083116118c1575050505050915050919050565b8051825114611a595760405162461bcd60e51b815260206004820152601860248201527f6172726179206c656e67746873206d757374206d617463680000000000000000604482015260640161050c565b60008411611acf5760405162461bcd60e51b815260206004820152602860248201527f636f6c6c61746572616c20616d6f756e74206d7573742062652067726561746560448201527f72207468616e2030000000000000000000000000000000000000000000000000606482015260840161050c565b60005b8251811015611b59576000838281518110611aef57611aef614cc1565b602002602001015160001c90506007805490508110611b505760405162461bcd60e51b815260206004820152601660248201527f696e76616c6964206d61726b6574706c61636520494400000000000000000000604482015260640161050c565b50600101611ad2565b50600454611b72906001600160a01b0316333087612ecf565b6008805460408051610120810190915290919080886001811115611b9857611b9861431b565b81526020018781526020016000815260200186815260200160006005811115611bc357611bc361431b565b8152602001604051806020016040528060008152508152602001858152602001848152602001600067ffffffffffffffff811115611c0357611c036145ab565b604051908082528060200260200182016040528015611c2c578160200160208202803683370190505b509052815460018181018455600093845260209093208251600990920201805492939092839160ff19909116908381811115611c6a57611c6a61431b565b021790555060208201518160010155604082015181600201556060820151816003015560808201518160040160006101000a81548160ff02191690836005811115611cb757611cb761431b565b021790555060a08201516005820190611cd09082614d65565b5060c08201518051611cec916006840191602090910190614102565b5060e08201518051611d08916007840191602090910190614102565b506101008201518051611d25916008840191602090910190614102565b5050506000818152600960209081526040808320805473ffffffffffffffffffffffffffffffffffffffff1916339081179091558352600a8252822080546001810182559083529082200182905560068054879290611d85908490614d0b565b92505081905550807fa40b3c87e86bd5f4b59c8ee5d83a7ced69629a25ee5627dccfa8918958b38dc486868686604051611dc29493929190614fb0565b60405180910390a2505050505050565b611dda61414d565b600d6000838152602001908152602001600020604051806101a001604052908160008201548152602001600182015481526020016002820154815260200160038201548152602001600482015481526020016005820154815260200160068201548152602001600782015481526020016008820154815260200160098201548152602001600a8201548152602001600b820160009054906101000a900460ff166007811115611e8b57611e8b61431b565b6007811115611e9c57611e9c61431b565b8152602001600c82018054611eb090614cd7565b80601f0160208091040260200160405190810160405280929190818152602001828054611edc90614cd7565b8015610e265780601f10611efe57610100808354040283529160200191610e26565b820191906000526020600020905b815481529060010190602001808311611f0c57505050919092525091949350505050565b611f38612243565b6001600160a01b038116611fb45760405162461bcd60e51b815260206004820152602660248201527f4f776e61626c653a206e6577206f776e657220697320746865207a65726f206160448201527f6464726573730000000000000000000000000000000000000000000000000000606482015260840161050c565b6105af816125fd565b611fc56141c9565b60078281548110611fd857611fd8614cc1565b90600052602060002090600602016040518060c001604052908160008201548152602001600182015481526020016002820160009054906101000a900460ff1660018111156120295761202961431b565b600181111561203a5761203a61431b565b815260200160038201805461204e90614cd7565b80601f016020809104026020016040519081016040528092919081815260200182805461207a90614cd7565b80156120c75780601f1061209c576101008083540402835291602001916120c7565b820191906000526020600020905b8154815290600101906020018083116120aa57829003601f168201915b505050505081526020016004820180546120e090614cd7565b80601f016020809104026020016040519081016040528092919081815260200182805461210c90614cd7565b80156121595780601f1061212e57610100808354040283529160200191612159565b820191906000526020600020905b81548152906001019060200180831161213c57829003601f168201915b5050509183525050600582015460209091019060ff1660028111156121805761218061431b565b60028111156121915761219161431b565b90525092915050565b6040516001600160a01b038316602482015260448101829052610bc09084907fa9059cbb00000000000000000000000000000000000000000000000000000000906064015b60408051601f198184030181529190526020810180517bffffffffffffffffffffffffffffffffffffffffffffffffffffffff167fffffffff0000000000000000000000000000000000000000000000000000000090931692909217909152612f26565b6003546001600160a01b031633146110ac5760405162461bcd60e51b815260206004820181905260248201527f4f776e61626c653a2063616c6c6572206973206e6f7420746865206f776e6572604482015260640161050c565b6000806123386040518060400160405280601781526020017f726f666c2e4973417574686f72697a65644f726967696e0000000000000000008152508460405160200161232491907f550000000000000000000000000000000000000000000000000000000000000081526affffffffffffffffffffff1991909116600182015260160190565b60405160208183030381529060405261300e565b915091508167ffffffffffffffff16600014158061235857508051600114155b806123a557508060008151811061237157612371614cc1565b6020910101516001600160f81b0319167ff50000000000000000000000000000000000000000000000000000000000000014155b15610bc0576040517f6890282f00000000000000000000000000000000000000000000000000000000815260040160405180910390fd5b6000828152600d60209081526040808320600101548084526009909252822054600880549293926001600160a01b03909216918490811061241f5761241f614cc1565b90600052602060002090600902019150838260020160008282546124439190614d0b565b90915550506000858152600d602052604081206008018054869290612469908490614d0b565b90915550506001600160a01b0381166000908152600c602052604081208054869290612496908490614d0b565b925050819055509250925092565b60005b6008830154811015612508576124f6600d60008560080184815481106124cf576124cf614cc1565b600091825260208083209091015483528201929092526040019020600b015460ff166130fd565b6125005750505050565b6001016124a7565b506001600160a01b0381166000908152600a60205260408120905b81548110156125cd578482828154811061253f5761253f614cc1565b9060005260206000200154036125c5578154829061255f90600190614cae565b8154811061256f5761256f614cc1565b906000526020600020015482828154811061258c5761258c614cc1565b9060005260206000200181905550818054806125aa576125aa614fe1565b600190038181906000526020600020016000905590556125cd565b600101612523565b50506001600160a01b03166000908152600b60209081526040822080546001810182559083529120019190915550565b600380546001600160a01b0383811673ffffffffffffffffffffffffffffffffffffffff19831681179093556040519116919082907f8be0079c531659141344cd1fd0a4f28419497f9722a3daafe3b4186f6b6457e090600090a35050565b6060600061266983613137565b600101905060008167ffffffffffffffff811115612689576126896145ab565b6040519080825280601f01601f1916602001820160405280156126b3576020820181803683370190505b5090508181016020015b600019017f3031323334353637383961626364656600000000000000000000000000000000600a86061a8153600a85049450846126bd575b509392505050565b61276a6040518061018001604052806060815260200160006001600160a01b03168152602001606081526020016060815260200160608152602001600081526020016060815260200160608152602001606081526020016060815260200160608152602001606081525090565b6127d76040518061018001604052806060815260200160006001600160a01b03168152602001606081526020016060815260200160608152602001600081526020016060815260200160608152602001606081526020016060815260200160608152602001606081525090565b60005b8381101561285e578484828181106127f4576127f4614cc1565b909101356001600160f81b031916600160fd1b0390506128565761284f85858080601f016020809104026020016040519081016040528093929190818152602001838380828437600092018290525092508591506132199050565b825261285e565b6001016127da565b612869603282614d0b565b90506128d06128cb86868080601f0160208091040260200160405190810160405280939291908181526020018383808284376000920191909152506128b5925060029150869050614d0b565b9350836128c3602882614d0b565b945084613219565b6132f0565b6001600160a01b031660208301526128e9600282614d0b565b90508381108015612923575084848281811061290757612907614cc1565b9050013560f81c60f81b6001600160f81b031916600560f91b14155b156129c257805b848110156129c05785858281811061294457612944614cc1565b909101356001600160f81b031916600560f91b0390506129b8576129a186868080601f0160208091040260200160405190810160405280939291908181526020018383808284376000920191909152508692508591506132199050565b60408401526129b1816001614d0b565b91506129c0565b60010161292a565b505b806129cc8161500d565b915050612a1085856040518060400160405280600381526020017f55524900000000000000000000000000000000000000000000000000000000008152508461343d565b836060018193508290525050612a5d85856040518060400160405280600781526020017f56657273696f6e000000000000000000000000000000000000000000000000008152508461343d565b8360800181935082905250506060612aac86866040518060400160405280600881526020017f436861696e2049440000000000000000000000000000000000000000000000008152508561343d565b92509050612ab981613659565b60a084015260408051808201909152600581527f4e6f6e63650000000000000000000000000000000000000000000000000000006020820152612b0090879087908561343d565b60c08501829052905190925060081115612b46576040517fb4bc030c00000000000000000000000000000000000000000000000000000000815260040160405180910390fd5b612b8786866040518060400160405280600981526020017f49737375656420417400000000000000000000000000000000000000000000008152508561343d565b8460e0018194508290525050612bd486866040518060400160405280600f81526020017f45787069726174696f6e2054696d6500000000000000000000000000000000008152508561343d565b84610100018194508290525050612c2286866040518060400160405280600a81526020017f4e6f74204265666f7265000000000000000000000000000000000000000000008152508561343d565b84610120018194508290525050612c7086866040518060400160405280600a81526020017f52657175657374204944000000000000000000000000000000000000000000008152508561343d565b846101400181945082905250506000612cc087876040518060400160405280600981526020017f5265736f757263657300000000000000000000000000000000000000000000008152508661343d565b915050828114612ce157612cd58787836136b3565b61016086019190915292505b5091925050505b92915050565b6000612ce8612d08612d038460006004613219565b613659565b612d18612d038560056007613219565b612d28612d03866008600a613219565b612d38612d0387600b600d613219565b612d48612d0388600e6010613219565b612d58612d038960116013613219565b6139a4565b60606000807301000000000000000000000000000000000000036001600160a01b031687878787604051602001612d979493929190615026565b60408051601f1981840301815290829052612db191615057565b600060405180830381855afa9150503d8060008114612dec576040519150601f19603f3d011682016040523d82523d6000602084013e612df1565b606091505b509150915081612e435760405162461bcd60e51b815260206004820152600f60248201527f656e63727970743a206661696c65640000000000000000000000000000000000604482015260640161050c565b9150505b949350505050565b80516020808301919091206000908152908190526040812054829060ff1615612ea4576040517f9ea6784800000000000000000000000000000000000000000000000000000000815260040160405180910390fd5b8251600003612eb65760009150612ec9565b6000612ec184613b57565b602001519250505b50919050565b6040516001600160a01b0380851660248301528316604482015260648101829052612f209085907f23b872dd00000000000000000000000000000000000000000000000000000000906084016121df565b50505050565b6000612f7b826040518060400160405280602081526020017f5361666545524332303a206c6f772d6c6576656c2063616c6c206661696c6564815250856001600160a01b0316613c349092919063ffffffff16565b9050805160001480612f9c575080806020019051810190612f9c9190615073565b610bc05760405162461bcd60e51b815260206004820152602a60248201527f5361666545524332303a204552433230206f7065726174696f6e20646964206e60448201527f6f74207375636365656400000000000000000000000000000000000000000000606482015260840161050c565b600060606000807301000000000000000000000000000000000001036001600160a01b03168686604051602001613046929190615095565b60408051601f198184030181529082905261306091615057565b600060405180830381855afa9150503d806000811461309b576040519150601f19603f3d011682016040523d82523d6000602084013e6130a0565b606091505b5091509150816130dc576040517f902e94f800000000000000000000000000000000000000000000000000000000815260040160405180910390fd5b808060200190518101906130f091906150ea565b9097909650945050505050565b6000808260078111156131125761311261431b565b14158015612ce85750600182600781111561312f5761312f61431b565b141592915050565b6000807a184f03e93ff9f4daa797ed6e38ed64bf6a1f0100000000000000008310613180577a184f03e93ff9f4daa797ed6e38ed64bf6a1f010000000000000000830492506040015b6d04ee2d6d415b85acef810000000083106131ac576d04ee2d6d415b85acef8100000000830492506020015b662386f26fc1000083106131ca57662386f26fc10000830492506010015b6305f5e10083106131e2576305f5e100830492506008015b61271083106131f657612710830492506004015b60648310613208576064830492506002015b600a8310612ce85760010192915050565b606060006132278484614cae565b67ffffffffffffffff81111561323f5761323f6145ab565b6040519080825280601f01601f191660200182016040528015613269576020820181803683370190505b509050835b838110801561327d5750855181105b156132e75785818151811061329457613294614cc1565b01602001516001600160f81b031916826132ae8784614cae565b815181106132be576132be614cc1565b60200101906001600160f81b031916908160001a905350806132df8161500d565b91505061326e565b50949350505050565b6000815160281461332d576040517facf8696900000000000000000000000000000000000000000000000000000000815260040160405180910390fd5b60006002835161333d919061514f565b67ffffffffffffffff811115613355576133556145ab565b6040519080825280601f01601f19166020018201604052801561337f576020820181803683370190505b50905060005b60028451613393919061514f565b811015613429576133d1846133a9836002615163565b6133b4906001614d0b565b815181106133c4576133c4614cc1565b016020015160f81c613c43565b6133e0856133b4846002615163565b6133eb90601061517a565b6133f59190615196565b60f81b82828151811061340a5761340a614cc1565b60200101906001600160f81b031916908160001a905350600101613385565b50613433816151af565b60601c9392505050565b60606000825b858110156135745786868281811061345d5761345d614cc1565b909101356001600160f81b0319167f3a000000000000000000000000000000000000000000000000000000000000000390506135625784805190602001206134de88888080601f0160208091040260200160405190810160405280939291908181526020018383808284376000920191909152508992508691506132199050565b8051906020012014613503575050604080516020810190915260008152905081613650565b8061350d8161500d565b9150508581108015613547575086868281811061352c5761352c614cc1565b9050013560f81c60f81b6001600160f81b031916600160fd1b145b1561355a57806135568161500d565b9150505b809350613574565b8061356c8161500d565b915050613443565b858110156136085786868281811061358e5761358e614cc1565b909101356001600160f81b031916600560f91b039050613600576135eb87878080601f0160208091040260200160405190810160405280939291908181526020018383808284376000920191909152508892508591506132199050565b6135f6826001614d0b565b9250925050613650565b600101613574565b61364b87878080601f0160208091040260200160405190810160405280939291908181526020018383808284376000920191909152508892508591506132199050565b925090505b94509492505050565b600080805b83518110156136ac57603084828151811061367b5761367b614cc1565b016020015161368d919060f81c614cae565b61369883600a615163565b6136a29190614d0b565b915060010161365e565b5092915050565b6060600082815b6136c5600187614cae565b8210156137c0578686838181106136de576136de614cc1565b9050013560f81c60f81b6001600160f81b031916602d60f81b1480156137365750868661370c846001614d0b565b81811061371b5761371b614cc1565b9050013560f81c60f81b6001600160f81b031916600160fd1b145b1561375a57613746600283614d0b565b9150806137528161500d565b91505061375f565b6137c0565b8582108015613797575086868381811061377b5761377b614cc1565b9050013560f81c60f81b6001600160f81b031916600a60f81b14155b156137ae57816137a68161500d565b92505061375f565b816137b88161500d565b9250506136ba565b60008167ffffffffffffffff8111156137db576137db6145ab565b60405190808252806020026020018201604052801561380e57816020015b60608152602001906001900390816137f95790505b50905085925060005b613822600189614cae565b841080156138305750828114155b156139965788888581811061384757613847614cc1565b9050013560f81c60f81b6001600160f81b031916602d60f81b14801561389f57508888613875866001614d0b565b81811061388457613884614cc1565b9050013560f81c60f81b6001600160f81b031916600160fd1b145b156138b2576138af846002614d0b565b96505b87841080156138ea57508888858181106138ce576138ce614cc1565b9050013560f81c60f81b6001600160f81b031916600a60f81b14155b1561390157836138f98161500d565b9450506138b2565b61394489898080601f0160208091040260200160405190810160405280939291908181526020018383808284376000920191909152508b92508891506132199050565b82828151811061395657613956614cc1565b6020026020010181905250808061396c9061500d565b915050878403613984578361398081615202565b9450505b8361398e8161500d565b945050613817565b509791965090945050505050565b60006107b25b8761ffff168161ffff1610156139f6576139c381613dcf565b156139dd576139d66301e2850083614d0b565b91506139ee565b6139eb6301e1338083614d0b565b91505b6001016139aa565b6139fe61420f565b601f8152613a0b89613dcf565b15613a1c57601d6020820152613a24565b601c60208201525b601f60408201819052601e606083018190526080830182905260a0830181905260c0830182905260e0830182905261010083018190526101208301829052610140830152610160820152600191505b8760ff168261ffff161015613ad15780613a8e600184615219565b61ffff16600c8110613aa257613aa2614cc1565b6020020151613ab49062015180615233565b613ac49063ffffffff1684614d0b565b9250600190910190613a73565b613adc600188615252565b613aec9060ff1662015180615233565b613afc9063ffffffff1684614d0b565b9250613b0d60ff8716610e10615233565b613b1d9063ffffffff1684614d0b565b9250613b2d60ff8616603c61526b565b613b3b9061ffff1684614d0b565b9250613b4a60ff851684614d0b565b9998505050505050505050565b613b926040518060a001604052806060815260200160006001600160a01b031681526020016000815260200160608152602001606081525090565b6000613bb46002546000801b8560405180602001604052806000815250613e2e565b9050600081806020019051810190613bcc9190615336565b90506001604051613bdd9190614e78565b604051809103902081600001518051906020012014613c0f5760405163283d62bd60e01b815260040160405180910390fd5b428160400151101561156357604051630b17115560e41b815260040160405180910390fd5b6060612e478484600085613f14565b60007f300000000000000000000000000000000000000000000000000000000000000060f883901b6001600160f81b03191610801590613cb157507f390000000000000000000000000000000000000000000000000000000000000060f883901b6001600160f81b03191611155b15613cc157612ce8603083615252565b7f610000000000000000000000000000000000000000000000000000000000000060f883901b6001600160f81b03191610801590613d2d57507f660000000000000000000000000000000000000000000000000000000000000060f883901b6001600160f81b03191611155b15613d49576061613d3f83600a615196565b612ce89190615252565b7f410000000000000000000000000000000000000000000000000000000000000060f883901b6001600160f81b03191610801590613db557507f460000000000000000000000000000000000000000000000000000000000000060f883901b6001600160f81b03191611155b15613dc7576041613d3f83600a615196565b506000919050565b6000613ddc60048361541a565b61ffff1615613ded57506000919050565b613df860648361541a565b61ffff1615613e0957506001919050565b613e156101908361541a565b61ffff1615613e2657506000919050565b506001919050565b60606000807301000000000000000000000000000000000000046001600160a01b031687878787604051602001613e689493929190615026565b60408051601f1981840301815290829052613e8291615057565b600060405180830381855afa9150503d8060008114613ebd576040519150601f19603f3d011682016040523d82523d6000602084013e613ec2565b606091505b509150915081612e435760405162461bcd60e51b815260206004820152600f60248201527f646563727970743a206661696c65640000000000000000000000000000000000604482015260640161050c565b606082471015613f8c5760405162461bcd60e51b815260206004820152602660248201527f416464726573733a20696e73756666696369656e742062616c616e636520666f60448201527f722063616c6c0000000000000000000000000000000000000000000000000000606482015260840161050c565b600080866001600160a01b03168587604051613fa89190615057565b60006040518083038185875af1925050503d8060008114613fe5576040519150601f19603f3d011682016040523d82523d6000602084013e613fea565b606091505b5091509150613ffb87838387614006565b979650505050505050565b6060831561407557825160000361406e576001600160a01b0385163b61406e5760405162461bcd60e51b815260206004820152601d60248201527f416464726573733a2063616c6c20746f206e6f6e2d636f6e7472616374000000604482015260640161050c565b5081612e47565b612e47838381511561408a5781518083602001fd5b8060405162461bcd60e51b815260040161050c9190614905565b6040805161012081019091528060008152602001600081526020016000815260200160008152602001600060058111156140e0576140e061431b565b8152602001606081526020016060815260200160608152602001606081525090565b82805482825590600052602060002090810192821561413d579160200282015b8281111561413d578251825591602001919060010190614122565b5061414992915061422e565b5090565b604051806101a001604052806000801916815260200160008152602001600081526020016000815260200160008152602001600081526020016000815260200160008152602001600081526020016000815260200160008152602001600060078111156141bc576141bc61431b565b8152602001606081525090565b6040518060c001604052806000815260200160008152602001600060018111156141f5576141f561431b565b815260606020820181905260408201819052016000905290565b604051806101800160405280600c906020820280368337509192915050565b5b80821115614149576000815560010161422f565b60006020828403121561425557600080fd5b5035919050565b80356008811061426b57600080fd5b919050565b60008060006060848603121561428557600080fd5b833592506142956020850161425c565b929592945050506040919091013590565b6001600160a01b03811681146105af57600080fd5b600080604083850312156142ce57600080fd5b82356142d9816142a6565b946020939093013593505050565b600080604083850312156142fa57600080fd5b8235915060208301356006811061431057600080fd5b809150509250929050565b634e487b7160e01b600052602160045260246000fd5b600281106105af576105af61431b565b60005b8381101561435c578181015183820152602001614344565b50506000910152565b6000815180845261437d816020860160208601614341565b601f01601f19169290920160200192915050565b600381106143a1576143a161431b565b9052565b8681528560208201526143b785614331565b84604082015260c0606082015260006143d360c0830186614365565b82810360808401526143e58186614365565b915050613ffb60a0830184614391565b60008060006060848603121561440a57600080fd5b505081359360208301359350604090920135919050565b6143a181614331565b600681106143a1576143a161431b565b600081518084526020840193506020830160005b8281101561446c57815186526020958601959091019060010161444e565b5093949350505050565b60208152614488602082018351614421565b602082015160408201526040820151606082015260608201516080820152600060808301516144ba60a084018261442a565b5060a083015161012060c08401526144d6610140840182614365565b905060c0840151601f198483030160e08501526144f3828261443a565b91505060e0840151601f1984830301610100850152614512828261443a565b915050610100840151601f1984830301610120850152614532828261443a565b95945050505050565b61454487614331565b868152856020820152846040820152836060820152614566608082018461442a565b60c060a0820152600061457c60c0830184614365565b98975050505050505050565b67ffffffffffffffff811681146105af57600080fd5b600281106105af57600080fd5b634e487b7160e01b600052604160045260246000fd5b6040516101a0810167ffffffffffffffff811182821017156145e5576145e56145ab565b60405290565b60405160a0810167ffffffffffffffff811182821017156145e5576145e56145ab565b604051601f8201601f1916810167ffffffffffffffff81118282101715614637576146376145ab565b604052919050565b600067ffffffffffffffff821115614659576146596145ab565b50601f01601f191660200190565b600061467a6146758461463f565b61460e565b905082815283838301111561468e57600080fd5b828260208301376000602084830101529392505050565b600082601f8301126146b657600080fd5b61156383833560208501614667565b600080600080608085870312156146db57600080fd5b84356146e681614588565b935060208501356146f68161459e565b9250604085013567ffffffffffffffff81111561471257600080fd5b61471e878288016146a5565b925050606085013567ffffffffffffffff81111561473b57600080fd5b614747878288016146a5565b91505092959194509250565b60006020828403121561476557600080fd5b8135611563816142a6565b6000806040838503121561478357600080fd5b82359150602083013567ffffffffffffffff8111156147a157600080fd5b83016101a081860312156147b457600080fd5b6147bc6145c1565b813581526020808301359082015260408083013590820152606080830135908201526080808301359082015260a0808301359082015260c0808301359082015260e08083013590820152610100808301359082015261012080830135908201526101408083013590820152614834610160830161425c565b61016082015261018082013567ffffffffffffffff81111561485557600080fd5b614861878285016146a5565b6101808301525080925050509250929050565b6000806000838503608081121561488a57600080fd5b843567ffffffffffffffff8111156148a157600080fd5b8501601f810187136148b257600080fd5b803567ffffffffffffffff8111156148c957600080fd5b8760208284010111156148db57600080fd5b602091909101945092506060601f19820112156148f757600080fd5b506020840190509250925092565b6020815260006115636020830184614365565b600881106143a1576143a161431b565b8d81528c60208201528b60408201528a60608201528960808201528860a08201528760c08201528660e0820152856101008201528461012082015283610140820152614978610160820184614918565b6101a061018082015260006149916101a0830184614365565b9f9e505050505050505050505050505050565b6000602082840312156149b657600080fd5b813567ffffffffffffffff8111156149cd57600080fd5b8201601f810184136149de57600080fd5b612e4784823560208401614667565b6000602082840312156149ff57600080fd5b81356affffffffffffffffffffff198116811461156357600080fd5b602080825282518282018190526000918401906040840190835b81811015614a53578351835260209384019390920191600101614a35565b509095945050505050565b600067ffffffffffffffff821115614a7857614a786145ab565b5060051b60200190565b600082601f830112614a9357600080fd5b8135614aa161467582614a5e565b8082825260208201915060208360051b860101925085831115614ac357600080fd5b602085015b83811015614ae0578035835260209283019201614ac8565b5095945050505050565b600080600080600060a08688031215614b0257600080fd5b8535614b0d8161459e565b94506020860135935060408601359250606086013567ffffffffffffffff811115614b3757600080fd5b614b4388828901614a82565b925050608086013567ffffffffffffffff811115614b6057600080fd5b614b6c88828901614a82565b9150509295509295909350565b6020815281516020820152602082015160408201526040820151606082015260608201516080820152608082015160a082015260a082015160c082015260c082015160e082015260e08201516101008201526101008201516101208201526101208201516101408201526101408201516101608201526000610160830151614c05610180840182614918565b506101808301516101a080840152612e476101c0840182614365565b60208152815160208201526020820151604082015260006040830151614c4681614331565b80606084015250606083015160c06080840152614c6660e0840182614365565b90506080840151601f198483030160a0850152614c838282614365565b91505060a08401516126f560c0850182614391565b634e487b7160e01b600052601160045260246000fd5b81810381811115612ce857612ce8614c98565b634e487b7160e01b600052603260045260246000fd5b600181811c90821680614ceb57607f821691505b602082108103612ec957634e487b7160e01b600052602260045260246000fd5b80820180821115612ce857612ce8614c98565b601f821115610bc057806000526020600020601f840160051c81016020851015614d455750805b601f840160051c820191505b818110156111e25760008155600101614d51565b815167ffffffffffffffff811115614d7f57614d7f6145ab565b614d9381614d8d8454614cd7565b84614d1e565b6020601f821160018114614dc75760008315614daf5750848201515b600019600385901b1c1916600184901b1784556111e2565b600084815260208120601f198516915b82811015614df75787850151825560209485019460019092019101614dd7565b5084821015614e155786840151600019600387901b60f8161c191681555b50505050600190811b01905550565b7f19457468657265756d205369676e6564204d6573736167653a0a000000000000815260008451614e5c81601a850160208901614341565b82018385601a83013760009301601a0192835250909392505050565b6000808354614e8681614cd7565b600182168015614e9d5760018114614eb257614ee2565b60ff1983168652811515820286019350614ee2565b86600052602060002060005b83811015614eda57815488820152600190910190602001614ebe565b505081860193505b509195945050505050565b602081526000825160a06020840152614f0960c0840182614365565b90506001600160a01b036020850151166040840152604084015160608401526060840151601f19848303016080850152614f438282614365565b6080860151858203601f190160a08701528051808352919350602090810192508084019190600582901b85010160005b82811015614fa457601f19868303018452614f8f828651614365565b60209586019594909401939150600101614f73565b50979650505050505050565b848152836020820152608060408201526000614fcf608083018561443a565b8281036060840152613ffb818561443a565b634e487b7160e01b600052603160045260246000fd5b634e487b7160e01b600052601260045260246000fd5b60006001820161501f5761501f614c98565b5060010190565b8481528360208201526080604082015260006150456080830185614365565b8281036060840152613ffb8185614365565b60008251615069818460208701614341565b9190910192915050565b60006020828403121561508557600080fd5b8151801515811461156357600080fd5b6040815260006150a86040830185614365565b82810360208401526145328185614365565b60006150c86146758461463f565b90508281528383830111156150dc57600080fd5b611563836020830184614341565b600080604083850312156150fd57600080fd5b825161510881614588565b602084015190925067ffffffffffffffff81111561512557600080fd5b8301601f8101851361513657600080fd5b615145858251602084016150ba565b9150509250929050565b60008261515e5761515e614ff7565b500490565b8082028115828204841417612ce857612ce8614c98565b60ff81811683821602908116908181146136ac576136ac614c98565b60ff8181168382160190811115612ce857612ce8614c98565b805160208201516bffffffffffffffffffffffff198116919060148210156151fb576bffffffffffffffffffffffff196bffffffffffffffffffffffff198360140360031b1b82161692505b5050919050565b60008161521157615211614c98565b506000190190565b61ffff8281168282160390811115612ce857612ce8614c98565b63ffffffff81811683821602908116908181146136ac576136ac614c98565b60ff8281168282160390811115612ce857612ce8614c98565b61ffff81811683821602908116908181146136ac576136ac614c98565b600082601f83011261529957600080fd5b611563838351602085016150ba565b805161426b816142a6565b600082601f8301126152c457600080fd5b81516152d261467582614a5e565b8082825260208201915060208360051b8601019250858311156152f457600080fd5b602085015b83811015614ae057805167ffffffffffffffff81111561531857600080fd5b615327886020838a0101615288565b845250602092830192016152f9565b60006020828403121561534857600080fd5b815167ffffffffffffffff81111561535f57600080fd5b820160a0818503121561537157600080fd5b6153796145eb565b815167ffffffffffffffff81111561539057600080fd5b61539c86828501615288565b8252506153ab602083016152a8565b602082015260408281015190820152606082015167ffffffffffffffff8111156153d457600080fd5b6153e086828501615288565b606083015250608082015167ffffffffffffffff81111561540057600080fd5b61540c868285016152b3565b608083015250949350505050565b600061ffff83168061542e5761542e614ff7565b8061ffff8416069150509291505056fea26469706673582212208840b671026861f302a89ae47a084c766c895a958b22b30a48db945f49acd90064736f6c634300081c0033",
  "linkReferences": {},
  "deployedLinkReferences": {}
}