{
  "_format": "hh-sol-artifact-1",
  "contractName": "PolyBet",
  "sourceName": "contracts/polybet.sol",
  "abi": [
    {
      "inputs": [],
      "stateMutability": "nonpayable",
      "type": "constructor"
    },
    {
      "inputs": [],
      "name": "A13e_RevokedAuthToken",
      "type": "error"
    },
    {
      "inputs": [],
      "name": "RoflOriginNotAuthorizedForApp",
      "type": "error"
    },
    {
      "inputs": [],
      "name": "SiweAuth_AddressMismatch",
      "type": "error"
    },
    {
      "inputs": [],
      "name": "SiweAuth_ChainIdMismatch",
      "type": "error"
    },
    {
      "inputs": [],
      "name": "SiweAuth_DomainMismatch",
      "type": "error"
    },
    {
      "inputs": [],
      "name": "SiweAuth_Expired",
      "type": "error"
    },
    {
      "inputs": [],
      "name": "SiweAuth_NotBeforeInFuture",
      "type": "error"
    },
    {
      "inputs": [],
      "name": "SiweParser_InvalidAddressLength",
      "type": "error"
    },
    {
      "inputs": [],
      "name": "SiweParser_InvalidNonce",
      "type": "error"
    },
    {
      "inputs": [],
      "name": "SubcallError",
      "type": "error"
    },
    {
      "anonymous": false,
      "inputs": [
        {
          "indexed": true,
          "internalType": "uint256",
          "name": "betId",
          "type": "uint256"
        },
        {
          "indexed": false,
          "internalType": "uint256",
          "name": "totalCollateralAmount",
          "type": "uint256"
        },
        {
          "indexed": false,
          "internalType": "uint256",
          "name": "outcomeIndex",
          "type": "uint256"
        },
        {
          "indexed": false,
          "internalType": "bytes32[]",
          "name": "marketplaceIds",
          "type": "bytes32[]"
        },
        {
          "indexed": false,
          "internalType": "bytes32[]",
          "name": "marketIds",
          "type": "bytes32[]"
        }
      ],
      "name": "BetSlipCreated",
      "type": "event"
    },
    {
      "anonymous": false,
      "inputs": [
        {
          "indexed": true,
          "internalType": "uint256",
          "name": "betId",
          "type": "uint256"
        }
      ],
      "name": "BetSlipSellingStateUpdate",
      "type": "event"
    },
    {
      "anonymous": false,
      "inputs": [
        {
          "indexed": true,
          "internalType": "address",
          "name": "previousOwner",
          "type": "address"
        },
        {
          "indexed": true,
          "internalType": "address",
          "name": "newOwner",
          "type": "address"
        }
      ],
      "name": "OwnershipTransferred",
      "type": "event"
    },
    {
      "inputs": [
        {
          "internalType": "uint64",
          "name": "chainId",
          "type": "uint64"
        },
        {
          "internalType": "enum PolyBet.ChainFamily",
          "name": "family",
          "type": "uint8"
        },
        {
          "internalType": "string",
          "name": "name",
          "type": "string"
        },
        {
          "internalType": "string",
          "name": "marketplaceProxy",
          "type": "string"
        }
      ],
      "name": "addMarketplace",
      "outputs": [],
      "stateMutability": "nonpayable",
      "type": "function"
    },
    {
      "inputs": [
        {
          "internalType": "uint256",
          "name": "",
          "type": "uint256"
        }
      ],
      "name": "betSlips",
      "outputs": [
        {
          "internalType": "enum PolyBet.BetSlipStrategy",
          "name": "strategy",
          "type": "uint8"
        },
        {
          "internalType": "uint256",
          "name": "initialCollateral",
          "type": "uint256"
        },
        {
          "internalType": "uint256",
          "name": "finalCollateral",
          "type": "uint256"
        },
        {
          "internalType": "uint256",
          "name": "outcomeIndex",
          "type": "uint256"
        },
        {
          "internalType": "uint256",
          "name": "parentId",
          "type": "uint256"
        },
        {
          "internalType": "bool",
          "name": "instantArbitrage",
          "type": "bool"
        },
        {
          "internalType": "enum PolyBet.BetSlipStatus",
          "name": "status",
          "type": "uint8"
        },
        {
          "internalType": "string",
          "name": "failureReason",
          "type": "string"
        }
      ],
      "stateMutability": "view",
      "type": "function"
    },
    {
      "inputs": [],
      "name": "domain",
      "outputs": [
        {
          "internalType": "string",
          "name": "",
          "type": "string"
        }
      ],
      "stateMutability": "view",
      "type": "function"
    },
    {
      "inputs": [
        {
          "internalType": "uint256",
          "name": "betSlipId",
          "type": "uint256"
        }
      ],
      "name": "getBetSlip",
      "outputs": [
        {
          "components": [
            {
              "internalType": "enum PolyBet.BetSlipStrategy",
              "name": "strategy",
              "type": "uint8"
            },
            {
              "internalType": "uint256",
              "name": "initialCollateral",
              "type": "uint256"
            },
            {
              "internalType": "uint256",
              "name": "finalCollateral",
              "type": "uint256"
            },
            {
              "internalType": "uint256",
              "name": "outcomeIndex",
              "type": "uint256"
            },
            {
              "internalType": "uint256",
              "name": "parentId",
              "type": "uint256"
            },
            {
              "internalType": "bool",
              "name": "instantArbitrage",
              "type": "bool"
            },
            {
              "internalType": "enum PolyBet.BetSlipStatus",
              "name": "status",
              "type": "uint8"
            },
            {
              "internalType": "string",
              "name": "failureReason",
              "type": "string"
            },
            {
              "internalType": "bytes32[]",
              "name": "marketplaceIds",
              "type": "bytes32[]"
            },
            {
              "internalType": "bytes32[]",
              "name": "marketIds",
              "type": "bytes32[]"
            },
            {
              "internalType": "bytes32[]",
              "name": "proxiedBets",
              "type": "bytes32[]"
            }
          ],
          "internalType": "struct PolyBet.BetSlip",
          "name": "",
          "type": "tuple"
        }
      ],
      "stateMutability": "view",
      "type": "function"
    },
    {
      "inputs": [
        {
          "internalType": "uint256",
          "name": "marketplaceId",
          "type": "uint256"
        }
      ],
      "name": "getMarketplace",
      "outputs": [
        {
          "components": [
            {
              "internalType": "uint256",
              "name": "warpRouterId",
              "type": "uint256"
            },
            {
              "internalType": "uint256",
              "name": "chainId",
              "type": "uint256"
            },
            {
              "internalType": "enum PolyBet.ChainFamily",
              "name": "chainFamily",
              "type": "uint8"
            },
            {
              "internalType": "string",
              "name": "name",
              "type": "string"
            },
            {
              "internalType": "string",
              "name": "marketplaceProxy",
              "type": "string"
            },
            {
              "internalType": "enum PolyBet.PricingStrategy",
              "name": "pricingStrategy",
              "type": "uint8"
            }
          ],
          "internalType": "struct PolyBet.Marketplace",
          "name": "",
          "type": "tuple"
        }
      ],
      "stateMutability": "view",
      "type": "function"
    },
    {
      "inputs": [
        {
          "internalType": "bytes32",
          "name": "betId",
          "type": "bytes32"
        }
      ],
      "name": "getProxiedBet",
      "outputs": [
        {
          "components": [
            {
              "internalType": "bytes32",
              "name": "id",
              "type": "bytes32"
            },
            {
              "internalType": "uint256",
              "name": "betSlipId",
              "type": "uint256"
            },
            {
              "internalType": "uint256",
              "name": "marketplaceId",
              "type": "uint256"
            },
            {
              "internalType": "uint256",
              "name": "marketId",
              "type": "uint256"
            },
            {
              "internalType": "uint256",
              "name": "optionIndex",
              "type": "uint256"
            },
            {
              "internalType": "uint256",
              "name": "minimumShares",
              "type": "uint256"
            },
            {
              "internalType": "uint256",
              "name": "blockTimestamp",
              "type": "uint256"
            },
            {
              "internalType": "uint256",
              "name": "originalCollateralAmount",
              "type": "uint256"
            },
            {
              "internalType": "uint256",
              "name": "finalCollateralAmount",
              "type": "uint256"
            },
            {
              "internalType": "uint256",
              "name": "sharesBought",
              "type": "uint256"
            },
            {
              "internalType": "uint256",
              "name": "sharesSold",
              "type": "uint256"
            },
            {
              "internalType": "enum PolyBet.BetOutcome",
              "name": "outcome",
              "type": "uint8"
            },
            {
              "internalType": "string",
              "name": "failureReason",
              "type": "string"
            }
          ],
          "internalType": "struct PolyBet.ProxiedBet",
          "name": "",
          "type": "tuple"
        }
      ],
      "stateMutability": "view",
      "type": "function"
    },
    {
      "inputs": [],
      "name": "getUserActiveBetslips",
      "outputs": [
        {
          "internalType": "uint256[]",
          "name": "",
          "type": "uint256[]"
        }
      ],
      "stateMutability": "view",
      "type": "function"
    },
    {
      "inputs": [
        {
          "internalType": "bytes",
          "name": "authToken",
          "type": "bytes"
        }
      ],
      "name": "getUserActiveBetslips",
      "outputs": [
        {
          "internalType": "uint256[]",
          "name": "",
          "type": "uint256[]"
        }
      ],
      "stateMutability": "view",
      "type": "function"
    },
    {
      "inputs": [
        {
          "internalType": "bytes",
          "name": "authToken",
          "type": "bytes"
        }
      ],
      "name": "getUserBalance",
      "outputs": [
        {
          "internalType": "uint256",
          "name": "",
          "type": "uint256"
        }
      ],
      "stateMutability": "view",
      "type": "function"
    },
    {
      "inputs": [],
      "name": "getUserBalance",
      "outputs": [
        {
          "internalType": "uint256",
          "name": "",
          "type": "uint256"
        }
      ],
      "stateMutability": "view",
      "type": "function"
    },
    {
      "inputs": [
        {
          "internalType": "bytes",
          "name": "authToken",
          "type": "bytes"
        }
      ],
      "name": "getUserClosedBets",
      "outputs": [
        {
          "internalType": "uint256[]",
          "name": "",
          "type": "uint256[]"
        }
      ],
      "stateMutability": "view",
      "type": "function"
    },
    {
      "inputs": [],
      "name": "getUserClosedBets",
      "outputs": [
        {
          "internalType": "uint256[]",
          "name": "",
          "type": "uint256[]"
        }
      ],
      "stateMutability": "view",
      "type": "function"
    },
    {
      "inputs": [
        {
          "internalType": "uint256",
          "name": "betSlipId",
          "type": "uint256"
        }
      ],
      "name": "initiateSellProxiedBets",
      "outputs": [],
      "stateMutability": "nonpayable",
      "type": "function"
    },
    {
      "inputs": [
        {
          "internalType": "string",
          "name": "siweMsg",
          "type": "string"
        },
        {
          "components": [
            {
              "internalType": "bytes32",
              "name": "r",
              "type": "bytes32"
            },
            {
              "internalType": "bytes32",
              "name": "s",
              "type": "bytes32"
            },
            {
              "internalType": "uint256",
              "name": "v",
              "type": "uint256"
            }
          ],
          "internalType": "struct SignatureRSV",
          "name": "sig",
          "type": "tuple"
        }
      ],
      "name": "login",
      "outputs": [
        {
          "internalType": "bytes",
          "name": "",
          "type": "bytes"
        }
      ],
      "stateMutability": "view",
      "type": "function"
    },
    {
      "inputs": [
        {
          "internalType": "uint256",
          "name": "",
          "type": "uint256"
        }
      ],
      "name": "marketplaces",
      "outputs": [
        {
          "internalType": "uint256",
          "name": "warpRouterId",
          "type": "uint256"
        },
        {
          "internalType": "uint256",
          "name": "chainId",
          "type": "uint256"
        },
        {
          "internalType": "enum PolyBet.ChainFamily",
          "name": "chainFamily",
          "type": "uint8"
        },
        {
          "internalType": "string",
          "name": "name",
          "type": "string"
        },
        {
          "internalType": "string",
          "name": "marketplaceProxy",
          "type": "string"
        },
        {
          "internalType": "enum PolyBet.PricingStrategy",
          "name": "pricingStrategy",
          "type": "uint8"
        }
      ],
      "stateMutability": "view",
      "type": "function"
    },
    {
      "inputs": [],
      "name": "musdcToken",
      "outputs": [
        {
          "internalType": "contract IERC20",
          "name": "",
          "type": "address"
        }
      ],
      "stateMutability": "view",
      "type": "function"
    },
    {
      "inputs": [],
      "name": "owner",
      "outputs": [
        {
          "internalType": "address",
          "name": "",
          "type": "address"
        }
      ],
      "stateMutability": "view",
      "type": "function"
    },
    {
      "inputs": [
        {
          "internalType": "enum PolyBet.BetSlipStrategy",
          "name": "strategy",
          "type": "uint8"
        },
        {
          "internalType": "uint256",
          "name": "totalCollateralAmount",
          "type": "uint256"
        },
        {
          "internalType": "uint256",
          "name": "outcomeIndex",
          "type": "uint256"
        },
        {
          "internalType": "bytes32[]",
          "name": "marketplaceIds",
          "type": "bytes32[]"
        },
        {
          "internalType": "bytes32[]",
          "name": "marketIds",
          "type": "bytes32[]"
        },
        {
          "internalType": "bool",
          "name": "instantArbitrage",
          "type": "bool"
        },
        {
          "internalType": "uint256",
          "name": "parentId",
          "type": "uint256"
        }
      ],
      "name": "placeBet",
      "outputs": [],
      "stateMutability": "nonpayable",
      "type": "function"
    },
    {
      "inputs": [
        {
          "internalType": "bytes32",
          "name": "",
          "type": "bytes32"
        }
      ],
      "name": "proxiedBets",
      "outputs": [
        {
          "internalType": "bytes32",
          "name": "id",
          "type": "bytes32"
        },
        {
          "internalType": "uint256",
          "name": "betSlipId",
          "type": "uint256"
        },
        {
          "internalType": "uint256",
          "name": "marketplaceId",
          "type": "uint256"
        },
        {
          "internalType": "uint256",
          "name": "marketId",
          "type": "uint256"
        },
        {
          "internalType": "uint256",
          "name": "optionIndex",
          "type": "uint256"
        },
        {
          "internalType": "uint256",
          "name": "minimumShares",
          "type": "uint256"
        },
        {
          "internalType": "uint256",
          "name": "blockTimestamp",
          "type": "uint256"
        },
        {
          "internalType": "uint256",
          "name": "originalCollateralAmount",
          "type": "uint256"
        },
        {
          "internalType": "uint256",
          "name": "finalCollateralAmount",
          "type": "uint256"
        },
        {
          "internalType": "uint256",
          "name": "sharesBought",
          "type": "uint256"
        },
        {
          "internalType": "uint256",
          "name": "sharesSold",
          "type": "uint256"
        },
        {
          "internalType": "enum PolyBet.BetOutcome",
          "name": "outcome",
          "type": "uint8"
        },
        {
          "internalType": "string",
          "name": "failureReason",
          "type": "string"
        }
      ],
      "stateMutability": "view",
      "type": "function"
    },
    {
      "inputs": [
        {
          "internalType": "bytes32",
          "name": "proxiedBetId",
          "type": "bytes32"
        },
        {
          "internalType": "enum PolyBet.BetOutcome",
          "name": "outcome",
          "type": "uint8"
        },
        {
          "internalType": "uint256",
          "name": "winningsCollateralValue",
          "type": "uint256"
        }
      ],
      "name": "recordProxiedBetClosed",
      "outputs": [],
      "stateMutability": "nonpayable",
      "type": "function"
    },
    {
      "inputs": [
        {
          "internalType": "uint256",
          "name": "betSlipId",
          "type": "uint256"
        },
        {
          "components": [
            {
              "internalType": "bytes32",
              "name": "id",
              "type": "bytes32"
            },
            {
              "internalType": "uint256",
              "name": "betSlipId",
              "type": "uint256"
            },
            {
              "internalType": "uint256",
              "name": "marketplaceId",
              "type": "uint256"
            },
            {
              "internalType": "uint256",
              "name": "marketId",
              "type": "uint256"
            },
            {
              "internalType": "uint256",
              "name": "optionIndex",
              "type": "uint256"
            },
            {
              "internalType": "uint256",
              "name": "minimumShares",
              "type": "uint256"
            },
            {
              "internalType": "uint256",
              "name": "blockTimestamp",
              "type": "uint256"
            },
            {
              "internalType": "uint256",
              "name": "originalCollateralAmount",
              "type": "uint256"
            },
            {
              "internalType": "uint256",
              "name": "finalCollateralAmount",
              "type": "uint256"
            },
            {
              "internalType": "uint256",
              "name": "sharesBought",
              "type": "uint256"
            },
            {
              "internalType": "uint256",
              "name": "sharesSold",
              "type": "uint256"
            },
            {
              "internalType": "enum PolyBet.BetOutcome",
              "name": "outcome",
              "type": "uint8"
            },
            {
              "internalType": "string",
              "name": "failureReason",
              "type": "string"
            }
          ],
          "internalType": "struct PolyBet.ProxiedBet",
          "name": "proxiedBet",
          "type": "tuple"
        }
      ],
      "name": "recordProxiedBetPlaced",
      "outputs": [],
      "stateMutability": "nonpayable",
      "type": "function"
    },
    {
      "inputs": [
        {
          "internalType": "bytes32",
          "name": "proxiedBetId",
          "type": "bytes32"
        },
        {
          "internalType": "uint256",
          "name": "sharesSold",
          "type": "uint256"
        },
        {
          "internalType": "uint256",
          "name": "sharesSoldCollateralValue",
          "type": "uint256"
        }
      ],
      "name": "recordProxiedBetSold",
      "outputs": [],
      "stateMutability": "nonpayable",
      "type": "function"
    },
    {
      "inputs": [],
      "name": "renounceOwnership",
      "outputs": [],
      "stateMutability": "nonpayable",
      "type": "function"
    },
    {
      "inputs": [],
      "name": "roflAppId",
      "outputs": [
        {
          "internalType": "bytes21",
          "name": "",
          "type": "bytes21"
        }
      ],
      "stateMutability": "view",
      "type": "function"
    },
    {
      "inputs": [
        {
          "internalType": "address",
          "name": "_musdcToken",
          "type": "address"
        }
      ],
      "name": "setCollateralToken",
      "outputs": [],
      "stateMutability": "nonpayable",
      "type": "function"
    },
    {
      "inputs": [
        {
          "internalType": "bytes21",
          "name": "appId",
          "type": "bytes21"
        }
      ],
      "name": "setRoflAppId",
      "outputs": [],
      "stateMutability": "nonpayable",
      "type": "function"
    },
    {
      "inputs": [
        {
          "internalType": "address",
          "name": "newOwner",
          "type": "address"
        }
      ],
      "name": "transferOwnership",
      "outputs": [],
      "stateMutability": "nonpayable",
      "type": "function"
    },
    {
      "inputs": [
        {
          "internalType": "uint256",
          "name": "betSlipId",
          "type": "uint256"
        },
        {
          "internalType": "enum PolyBet.BetSlipStatus",
          "name": "status",
          "type": "uint8"
        }
      ],
      "name": "updateBetSlipStatus",
      "outputs": [],
      "stateMutability": "nonpayable",
      "type": "function"
    },
    {
      "inputs": [
        {
          "internalType": "address",
          "name": "",
          "type": "address"
        },
        {
          "internalType": "uint256",
          "name": "",
          "type": "uint256"
        }
      ],
      "name": "userActiveBetSlips",
      "outputs": [
        {
          "internalType": "uint256",
          "name": "",
          "type": "uint256"
        }
      ],
      "stateMutability": "view",
      "type": "function"
    },
    {
      "inputs": [
        {
          "internalType": "address",
          "name": "",
          "type": "address"
        },
        {
          "internalType": "uint256",
          "name": "",
          "type": "uint256"
        }
      ],
      "name": "userClosedBetSlips",
      "outputs": [
        {
          "internalType": "uint256",
          "name": "",
          "type": "uint256"
        }
      ],
      "stateMutability": "view",
      "type": "function"
    },
    {
      "inputs": [
        {
          "internalType": "uint256",
          "name": "amount",
          "type": "uint256"
        }
      ],
      "name": "withdrawWinnings",
      "outputs": [],
      "stateMutability": "nonpayable",
      "type": "function"
    }
  ],
  "bytecode": "0x608060405234801561001057600080fd5b5060405180604001604052806007815260200166141bdb1e50995d60ca1b81525061005160206040518060200160405280600081525061007a60201b60201c565b61005a906101ba565b6002556001610069828261027a565b50610075905033610168565b6103b2565b60606000807301000000000000000000000000000000000000016001600160a01b031685856040516020016100b092919061035c565b60408051601f19818403018152908290526100ca91610396565b600060405180830381855afa9150503d8060008114610105576040519150601f19603f3d011682016040523d82523d6000602084013e61010a565b606091505b5091509150816101605760405162461bcd60e51b815260206004820152601360248201527f72616e646f6d42797465733a206661696c656400000000000000000000000000604482015260640160405180910390fd5b949350505050565b600380546001600160a01b038381166001600160a01b0319831681179093556040519116919082907f8be0079c531659141344cd1fd0a4f28419497f9722a3daafe3b4186f6b6457e090600090a35050565b805160208083015191908110156101db576000198160200360031b1b821691505b50919050565b634e487b7160e01b600052604160045260246000fd5b600181811c9082168061020b57607f821691505b6020821081036101db57634e487b7160e01b600052602260045260246000fd5b601f82111561027557806000526020600020601f840160051c810160208510156102525750805b601f840160051c820191505b81811015610272576000815560010161025e565b50505b505050565b81516001600160401b03811115610293576102936101e1565b6102a7816102a184546101f7565b8461022b565b6020601f8211600181146102db57600083156102c35750848201515b600019600385901b1c1916600184901b178455610272565b600084815260208120601f198516915b8281101561030b57878501518255602094850194600190920191016102eb565b50848210156103295786840151600019600387901b60f8161c191681555b50505050600190811b01905550565b60005b8381101561035357818101518382015260200161033b565b50506000910152565b8281526040602082015260008251806040840152610381816060850160208701610338565b601f01601f1916919091016060019392505050565b600082516103a8818460208701610338565b9190910192915050565b6155a5806103c16000396000f3fe608060405234801561001057600080fd5b50600436106101e55760003560e01c80637d5559d91161010f578063b76ebb56116100a2578063daee6fbc11610071578063daee6fbc1461045c578063f1b9ea171461046f578063f2fde38b1461048f578063f53aac2a146104a257600080fd5b8063b76ebb5614610424578063c2fb26a614610439578063d1d758cb14610441578063d69418f31461045457600080fd5b80639f88151e116100de5780639f88151e146103e3578063a81968f7146103f6578063a935ee0e14610409578063b7013dc11461041c57600080fd5b80637d5559d9146103735780637f476b6f146103865780638da5cb5b146103a6578063974d4ed8146103b757600080fd5b80632b64deec116101875780635023a0c9116101565780635023a0c91461031e57806358dee05414610345578063666181a914610358578063715018a61461036b57600080fd5b80632b64deec146102b35780632e5abd7b146102d85780633074eebc146102eb57806332d268a5146102fe57600080fd5b80631972033f116101c35780631972033f14610259578063212e94c91461026c57806329ec94421461027f5780632a6d3e9b146102a057600080fd5b806314794702146101ea57806315534b70146101ff578063181031b11461022f575b600080fd5b6101fd6101f8366004614318565b6104c2565b005b600454610212906001600160a01b031681565b6040516001600160a01b0390911681526020015b60405180910390f35b60055461023c9060581b81565b6040516affffffffffffffffffffff199091168152602001610226565b6101fd610267366004614318565b6105b4565b6101fd61027a366004614345565b61073e565b61029261028d366004614390565b6108fb565b604051908152602001610226565b6101fd6102ae3660046143bc565b61092c565b6102c66102c1366004614318565b61097b565b6040516102269695949392919061447a565b6101fd6102e63660046144ca565b610ade565b6102926102f9366004614390565b610c27565b61031161030c366004614318565b610c43565b604051610226919061454b565b61033161032c366004614318565b610eb2565b604051610226989796959493929190614632565b6101fd6103533660046147ce565b610f9c565b6101fd61036636600461485c565b611098565b6101fd611125565b6101fd610381366004614879565b611139565b61039961039436600461497d565b611274565b6040516102269190614a0e565b6003546001600160a01b0316610212565b6103ca6103c5366004614318565b6115f5565b6040516102269d9c9b9a99989796959493929190614a31565b6102926103f1366004614aad565b6116f0565b6101fd610404366004614b90565b61171b565b6101fd610417366004614c3e565b611b1f565b610292611b5b565b61042c611bbe565b6040516102269190614c6c565b610399611c6c565b61042c61044f366004614aad565b611cf5565b61042c611d71565b61042c61046a366004614aad565b611e1d565b61048261047d366004614318565b611e97565b6040516102269190614caf565b6101fd61049d36600461485c565b611ff5565b6104b56104b0366004614318565b612082565b6040516102269190614d57565b600081116105175760405162461bcd60e51b815260206004820152601d60248201527f616d6f756e74206d7573742062652067726561746572207468616e203000000060448201526064015b60405180910390fd5b336000908152600c60205260409020548111156105765760405162461bcd60e51b815260206004820152601460248201527f696e73756666696369656e742062616c616e6365000000000000000000000000604482015260640161050e565b336000908152600c602052604081208054839290610595908490614de4565b90915550506004546105b1906001600160a01b0316338361225f565b50565b6105bc612308565b600854811061060d5760405162461bcd60e51b815260206004820152601360248201527f696e76616c69642062657420736c697020696400000000000000000000000000604482015260640161050e565b60026008828154811061062257610622614df7565b90600052602060002090600a020160050160019054906101000a900460ff166005811115610652576106526143f0565b146106c45760405162461bcd60e51b8152602060048201526024808201527f63616e6e6f742063616e63656c206120626574207468617473206e6f7420706c60448201527f6163656400000000000000000000000000000000000000000000000000000000606482015260840161050e565b6003600882815481106106d9576106d9614df7565b90600052602060002090600a020160050160016101000a81548160ff0219169083600581111561070b5761070b6143f0565b021790555060405181907f81eb4691b662c46a6dec13291164c2bec8b699c7596e4ab3d8f23ce01943647090600090a250565b610746612308565b600082600781111561075a5761075a6143f0565b1415801561077a57506003826007811115610777576107776143f0565b14155b6107c65760405162461bcd60e51b815260206004820152601e60248201527f6f7574636f6d652063616e6e6f74206265206e6f6e65206f7220736f6c640000604482015260640161050e565b60016000848152600d60205260409020600b015460ff1660078111156107ee576107ee6143f0565b1461083b5760405162461bcd60e51b815260206004820152601a60248201527f696e76616c6964206f7574636f6d65207472616e736974696f6e000000000000604482015260640161050e565b60055460581b6affffffffffffffffffffff191615610863576005546108639060581b612362565b6000838152600d60205260409020600b01805483919060ff19166001836007811115610891576108916143f0565b021790555060008060006108a586856124a1565b9250925092506108b6838383612569565b600582015460ff1680156108db575060058560078111156108d9576108d96143f0565b145b80156108e5575083155b156108f3576108f3836105b4565b505050505050565b600b602052816000526040600020818154811061091757600080fd5b90600052602060002001600091509150505481565b806008838154811061094057610940614df7565b90600052602060002090600a020160050160016101000a81548160ff02191690836005811115610972576109726143f0565b02179055505050565b6007818154811061098b57600080fd5b60009182526020909120600690910201805460018201546002830154600384018054939550919360ff909116929091906109c490614e0d565b80601f01602080910402602001604051908101604052809291908181526020018280546109f090614e0d565b8015610a3d5780601f10610a1257610100808354040283529160200191610a3d565b820191906000526020600020905b815481529060010190602001808311610a2057829003601f168201915b505050505090806004018054610a5290614e0d565b80601f0160208091040260200160405190810160405280929190818152602001828054610a7e90614e0d565b8015610acb5780601f10610aa057610100808354040283529160200191610acb565b820191906000526020600020905b815481529060010190602001808311610aae57829003601f168201915b5050506005909301549192505060ff1686565b610ae6612308565b60055460581b6affffffffffffffffffffff191615610b0e57600554610b0e9060581b612362565b6000838152600d60205260408120600a018054849290610b2f908490614e41565b90915550506000838152600d60205260409020600a8101546009909101541015610bc15760405162461bcd60e51b815260206004820152602360248201527f63616e6e6f742073656c6c206d6f726520736861726573207468616e20626f7560448201527f6768740000000000000000000000000000000000000000000000000000000000606482015260840161050e565b6000838152600d60205260409020600a81015460099091015403610c18576000838152600d60205260408120600b01805460ff191660031790558080610c0786856124a1565b9250925092506108f3838383612569565b6108f383826124a1565b505050565b600a602052816000526040600020818154811061091757600080fd5b610c4b614169565b60088281548110610c5e57610c5e614df7565b60009182526020909120604080516101608101909152600a909202018054829060ff166001811115610c9257610c926143f0565b6001811115610ca357610ca36143f0565b81526001820154602082015260028201546040820152600382015460608201526004820154608082015260058083015460ff808216151560a085015260c0909301926101009091041690811115610cfc57610cfc6143f0565b6005811115610d0d57610d0d6143f0565b8152602001600682018054610d2190614e0d565b80601f0160208091040260200160405190810160405280929190818152602001828054610d4d90614e0d565b8015610d9a5780601f10610d6f57610100808354040283529160200191610d9a565b820191906000526020600020905b815481529060010190602001808311610d7d57829003601f168201915b5050505050815260200160078201805480602002602001604051908101604052809291908181526020018280548015610df257602002820191906000526020600020905b815481526020019060010190808311610dde575b5050505050815260200160088201805480602002602001604051908101604052809291908181526020018280548015610e4a57602002820191906000526020600020905b815481526020019060010190808311610e36575b5050505050815260200160098201805480602002602001604051908101604052809291908181526020018280548015610ea257602002820191906000526020600020905b815481526020019060010190808311610e8e575b5050505050815250509050919050565b60088181548110610ec257600080fd5b60009182526020909120600a9091020180546001820154600283015460038401546004850154600586015460068701805460ff978816995095979496939592948285169461010090930490921692610f1990614e0d565b80601f0160208091040260200160405190810160405280929190818152602001828054610f4590614e0d565b8015610f925780601f10610f6757610100808354040283529160200191610f92565b820191906000526020600020905b815481529060010190602001808311610f7557829003601f168201915b5050505050905088565b60076040518060c00160405280600081526020018667ffffffffffffffff168152602001856001811115610fd257610fd26143f0565b81526020810185905260408101849052606001600290528154600181810184556000938452602093849020835160069093020191825592820151818401556040820151600282018054939492939192909160ff1916908381811115611039576110396143f0565b0217905550606082015160038201906110529082614e9b565b50608082015160048201906110679082614e9b565b5060a082015160058201805460ff1916600183600281111561108b5761108b6143f0565b0217905550505050505050565b6110a0612308565b6001600160a01b0381166110f65760405162461bcd60e51b815260206004820152601b60248201527f696e76616c6964204d5553444320746f6b656e20616464726573730000000000604482015260640161050e565b6004805473ffffffffffffffffffffffffffffffffffffffff19166001600160a01b0392909216919091179055565b61112d612308565b61113760006126c2565b565b611141612308565b60055460581b6affffffffffffffffffffff191615611169576005546111699060581b612362565b6008828154811061117c5761117c614df7565b6000918252602080832084516009600a9485029092018201805460018181018355918752848720019190915585518552600d8352604094859020865181559286015183820155938501516002830155606085015160038301556080850151600483015560a0850151600583015560c0850151600683015560e085015160078084019190915561010086015160088401556101208601519183019190915561014085015192820192909255610160840151600b82018054869593949293919260ff1990911691908490811115611253576112536143f0565b0217905550610180820151600c82019061126d9082614e9b565b5050505050565b60606112b16040518060a001604052806060815260200160006001600160a01b031681526020016000815260200160608152602001606081525090565b60006112bc85612721565b86866040516020016112d093929190614f5a565b60408051601f19818403018152828252805160208083019190912060008086528583018086529190915260ff89850135169385019390935287356060850152870135608084015292509060019060a0016020604051602081039080840390855afa158015611342573d6000803e3d6000fd5b5050604051601f1901516001600160a01b038116602086015291506000905061136b88886127c2565b9050468160a00151146113aa576040517f362c833700000000000000000000000000000000000000000000000000000000815260040160405180910390fd5b60016040516113b99190614fae565b6040518091039020816000015180519060200120146113eb5760405163283d62bd60e01b815260040160405180910390fd5b8051845260208101516001600160a01b03838116911614611438576040517f05cc02e100000000000000000000000000000000000000000000000000000000815260040160405180910390fd5b610120810151511580159061145a5750611456816101200151612db3565b4211155b15611491576040517f299d02f100000000000000000000000000000000000000000000000000000000815260040160405180910390fd5b61010081015151156114b85760006114ad826101000151612db3565b6040860152506114cb565b6114c56201518042614e41565b60408501525b836040015142106114ef57604051630b17115560e41b815260040160405180910390fd5b604081015160608501526101608101515167ffffffffffffffff811115611518576115186146b4565b60405190808252806020026020018201604052801561154b57816020015b60608152602001906001900390816115365790505b50608085015260005b816101600151518110156115aa57816101600151818151811061157957611579614df7565b60200260200101518560800151828151811061159757611597614df7565b6020908102919091010152600101611554565b5060006115e66002546000801b876040516020016115c89190615023565b60408051601f19818403018152602083019091526000825290612e22565b955050505050505b9392505050565b600d60205280600052604060002060009150905080600001549080600101549080600201549080600301549080600401549080600501549080600601549080600701549080600801549080600901549080600a01549080600b0160009054906101000a900460ff169080600c01805461166d90614e0d565b80601f016020809104026020016040519081016040528092919081815260200182805461169990614e0d565b80156116e65780601f106116bb576101008083540402835291602001916116e6565b820191906000526020600020905b8154815290600101906020018083116116c957829003601f168201915b505050505090508d565b6000806116fc83612f14565b6001600160a01b03166000908152600c60205260409020549392505050565b825184511461176c5760405162461bcd60e51b815260206004820152601860248201527f6172726179206c656e67746873206d757374206d617463680000000000000000604482015260640161050e565b600086116117e25760405162461bcd60e51b815260206004820152602860248201527f636f6c6c61746572616c20616d6f756e74206d7573742062652067726561746560448201527f72207468616e2030000000000000000000000000000000000000000000000000606482015260840161050e565b60005b845181101561186c57600085828151811061180257611802614df7565b602002602001015160001c905060078054905081106118635760405162461bcd60e51b815260206004820152601660248201527f696e76616c6964206d61726b6574706c61636520494400000000000000000000604482015260640161050e565b506001016117e5565b50600454611885906001600160a01b0316333089612f94565b60088054604080516101608101909152909190808a60018111156118ab576118ab6143f0565b8152602001898152602001600081526020018881526020018481526020018515158152602001600060058111156118e4576118e46143f0565b8152602001604051806020016040528060008152508152602001878152602001868152602001600067ffffffffffffffff811115611924576119246146b4565b60405190808252806020026020018201604052801561194d578160200160208202803683370190505b509052815460018181018455600093845260209093208251600a90920201805492939092839160ff1990911690838181111561198b5761198b6143f0565b02179055506020820151600182015560408201516002820155606082015160038201556080820151600482015560a08201516005808301805492151560ff1984168117825560c086015193919261ff001990911661ffff199092169190911790610100908490811115611a0057611a006143f0565b021790555060e08201516006820190611a199082614e9b565b506101008201518051611a369160078401916020909101906141d7565b506101208201518051611a539160088401916020909101906141d7565b506101408201518051611a709160098401916020909101906141d7565b5050506000818152600960209081526040808320805473ffffffffffffffffffffffffffffffffffffffff1916339081179091558352600a8252822080546001810182559083529082200182905560068054899290611ad0908490614e41565b92505081905550807fa40b3c87e86bd5f4b59c8ee5d83a7ced69629a25ee5627dccfa8918958b38dc488888888604051611b0d94939291906150e6565b60405180910390a25050505050505050565b611b27612308565b600580547fffffffffffffffffffffff0000000000000000000000000000000000000000001660589290921c919091179055565b600033611baa5760405162461bcd60e51b815260206004820152601760248201527f61757468656e7469636174696f6e207265717569726564000000000000000000604482015260640161050e565b50336000908152600c602052604090205490565b606033611c0d5760405162461bcd60e51b815260206004820152601760248201527f61757468656e7469636174696f6e207265717569726564000000000000000000604482015260640161050e565b336000908152600a602090815260409182902080548351818402810184019094528084529091830182828015611c6257602002820191906000526020600020905b815481526020019060010190808311611c4e575b5050505050905090565b606060018054611c7b90614e0d565b80601f0160208091040260200160405190810160405280929190818152602001828054611ca790614e0d565b8015611c625780601f10611cc957610100808354040283529160200191611c62565b820191906000526020600020905b815481529060010190602001808311611cd757509395945050505050565b60606000611d0283612f14565b6001600160a01b0381166000908152600b60209081526040918290208054835181840281018401909452808452939450919290830182828015611d6457602002820191906000526020600020905b815481526020019060010190808311611d50575b5050505050915050919050565b606033611dc05760405162461bcd60e51b815260206004820152601760248201527f61757468656e7469636174696f6e207265717569726564000000000000000000604482015260640161050e565b336000908152600b602090815260409182902080548351818402810184019094528084529091830182828015611c625760200282019190600052602060002090815481526020019060010190808311611c4e575050505050905090565b60606000611e2a83612f14565b6001600160a01b0381166000908152600a60209081526040918290208054835181840281018401909452808452939450919290830182828015611d645760200282019190600052602060002090815481526020019060010190808311611d50575050505050915050919050565b611e9f614222565b600d6000838152602001908152602001600020604051806101a001604052908160008201548152602001600182015481526020016002820154815260200160038201548152602001600482015481526020016005820154815260200160068201548152602001600782015481526020016008820154815260200160098201548152602001600a8201548152602001600b820160009054906101000a900460ff166007811115611f5057611f506143f0565b6007811115611f6157611f616143f0565b8152602001600c82018054611f7590614e0d565b80601f0160208091040260200160405190810160405280929190818152602001828054611fa190614e0d565b8015610ea25780601f10611fc357610100808354040283529160200191610ea2565b820191906000526020600020905b815481529060010190602001808311611fd157505050919092525091949350505050565b611ffd612308565b6001600160a01b0381166120795760405162461bcd60e51b815260206004820152602660248201527f4f776e61626c653a206e6577206f776e657220697320746865207a65726f206160448201527f6464726573730000000000000000000000000000000000000000000000000000606482015260840161050e565b6105b1816126c2565b61208a61429e565b6007828154811061209d5761209d614df7565b90600052602060002090600602016040518060c001604052908160008201548152602001600182015481526020016002820160009054906101000a900460ff1660018111156120ee576120ee6143f0565b60018111156120ff576120ff6143f0565b815260200160038201805461211390614e0d565b80601f016020809104026020016040519081016040528092919081815260200182805461213f90614e0d565b801561218c5780601f106121615761010080835404028352916020019161218c565b820191906000526020600020905b81548152906001019060200180831161216f57829003601f168201915b505050505081526020016004820180546121a590614e0d565b80601f01602080910402602001604051908101604052809291908181526020018280546121d190614e0d565b801561221e5780601f106121f35761010080835404028352916020019161221e565b820191906000526020600020905b81548152906001019060200180831161220157829003601f168201915b5050509183525050600582015460209091019060ff166002811115612245576122456143f0565b6002811115612256576122566143f0565b90525092915050565b6040516001600160a01b038316602482015260448101829052610c229084907fa9059cbb00000000000000000000000000000000000000000000000000000000906064015b60408051601f198184030181529190526020810180517bffffffffffffffffffffffffffffffffffffffffffffffffffffffff167fffffffff0000000000000000000000000000000000000000000000000000000090931692909217909152612feb565b6003546001600160a01b031633146111375760405162461bcd60e51b815260206004820181905260248201527f4f776e61626c653a2063616c6c6572206973206e6f7420746865206f776e6572604482015260640161050e565b6000806123fd6040518060400160405280601781526020017f726f666c2e4973417574686f72697a65644f726967696e000000000000000000815250846040516020016123e991907f550000000000000000000000000000000000000000000000000000000000000081526affffffffffffffffffffff1991909116600182015260160190565b6040516020818303038152906040526130d3565b915091508167ffffffffffffffff16600014158061241d57508051600114155b8061246a57508060008151811061243657612436614df7565b6020910101516001600160f81b0319167ff50000000000000000000000000000000000000000000000000000000000000014155b15610c22576040517f6890282f00000000000000000000000000000000000000000000000000000000815260040160405180910390fd5b6000828152600d60209081526040808320600101548084526009909252822054600880549293926001600160a01b0390921691849081106124e4576124e4614df7565b90600052602060002090600a02019150838260020160008282546125089190614e41565b90915550506000858152600d60205260408120600801805486929061252e908490614e41565b90915550506001600160a01b0381166000908152600c60205260408120805486929061255b908490614e41565b925050819055509250925092565b60005b60098301548110156125cd576125bb600d600085600901848154811061259457612594614df7565b600091825260208083209091015483528201929092526040019020600b015460ff166131c2565b6125c55750505050565b60010161256c565b506001600160a01b0381166000908152600a60205260408120905b8154811015612692578482828154811061260457612604614df7565b90600052602060002001540361268a578154829061262490600190614de4565b8154811061263457612634614df7565b906000526020600020015482828154811061265157612651614df7565b90600052602060002001819055508180548061266f5761266f615117565b60019003818190600052602060002001600090559055612692565b6001016125e8565b50506001600160a01b03166000908152600b60209081526040822080546001810182559083529120019190915550565b600380546001600160a01b0383811673ffffffffffffffffffffffffffffffffffffffff19831681179093556040519116919082907f8be0079c531659141344cd1fd0a4f28419497f9722a3daafe3b4186f6b6457e090600090a35050565b6060600061272e836131fc565b600101905060008167ffffffffffffffff81111561274e5761274e6146b4565b6040519080825280601f01601f191660200182016040528015612778576020820181803683370190505b5090508181016020015b600019017f3031323334353637383961626364656600000000000000000000000000000000600a86061a8153600a8504945084612782575b509392505050565b61282f6040518061018001604052806060815260200160006001600160a01b03168152602001606081526020016060815260200160608152602001600081526020016060815260200160608152602001606081526020016060815260200160608152602001606081525090565b61289c6040518061018001604052806060815260200160006001600160a01b03168152602001606081526020016060815260200160608152602001600081526020016060815260200160608152602001606081526020016060815260200160608152602001606081525090565b60005b83811015612923578484828181106128b9576128b9614df7565b909101356001600160f81b031916600160fd1b03905061291b5761291485858080601f016020809104026020016040519081016040528093929190818152602001838380828437600092018290525092508591506132de9050565b8252612923565b60010161289f565b61292e603282614e41565b905061299561299086868080601f01602080910402602001604051908101604052809392919081815260200183838082843760009201919091525061297a925060029150869050614e41565b935083612988602882614e41565b9450846132de565b6133b5565b6001600160a01b031660208301526129ae600282614e41565b905083811080156129e857508484828181106129cc576129cc614df7565b9050013560f81c60f81b6001600160f81b031916600560f91b14155b15612a8757805b84811015612a8557858582818110612a0957612a09614df7565b909101356001600160f81b031916600560f91b039050612a7d57612a6686868080601f0160208091040260200160405190810160405280939291908181526020018383808284376000920191909152508692508591506132de9050565b6040840152612a76816001614e41565b9150612a85565b6001016129ef565b505b80612a9181615143565b915050612ad585856040518060400160405280600381526020017f555249000000000000000000000000000000000000000000000000000000000081525084613502565b836060018193508290525050612b2285856040518060400160405280600781526020017f56657273696f6e0000000000000000000000000000000000000000000000000081525084613502565b8360800181935082905250506060612b7186866040518060400160405280600881526020017f436861696e20494400000000000000000000000000000000000000000000000081525085613502565b92509050612b7e8161371e565b60a084015260408051808201909152600581527f4e6f6e63650000000000000000000000000000000000000000000000000000006020820152612bc5908790879085613502565b60c08501829052905190925060081115612c0b576040517fb4bc030c00000000000000000000000000000000000000000000000000000000815260040160405180910390fd5b612c4c86866040518060400160405280600981526020017f497373756564204174000000000000000000000000000000000000000000000081525085613502565b8460e0018194508290525050612c9986866040518060400160405280600f81526020017f45787069726174696f6e2054696d65000000000000000000000000000000000081525085613502565b84610100018194508290525050612ce786866040518060400160405280600a81526020017f4e6f74204265666f72650000000000000000000000000000000000000000000081525085613502565b84610120018194508290525050612d3586866040518060400160405280600a81526020017f526571756573742049440000000000000000000000000000000000000000000081525085613502565b846101400181945082905250506000612d8587876040518060400160405280600981526020017f5265736f7572636573000000000000000000000000000000000000000000000081525086613502565b915050828114612da657612d9a878783613778565b61016086019190915292505b5091925050505b92915050565b6000612dad612dcd612dc884600060046132de565b61371e565b612ddd612dc885600560076132de565b612ded612dc8866008600a6132de565b612dfd612dc887600b600d6132de565b612e0d612dc888600e60106132de565b612e1d612dc889601160136132de565b613a69565b60606000807301000000000000000000000000000000000000036001600160a01b031687878787604051602001612e5c949392919061515c565b60408051601f1981840301815290829052612e769161518d565b600060405180830381855afa9150503d8060008114612eb1576040519150601f19603f3d011682016040523d82523d6000602084013e612eb6565b606091505b509150915081612f085760405162461bcd60e51b815260206004820152600f60248201527f656e63727970743a206661696c65640000000000000000000000000000000000604482015260640161050e565b9150505b949350505050565b80516020808301919091206000908152908190526040812054829060ff1615612f69576040517f9ea6784800000000000000000000000000000000000000000000000000000000815260040160405180910390fd5b8251600003612f7b5760009150612f8e565b6000612f8684613c1c565b602001519250505b50919050565b6040516001600160a01b0380851660248301528316604482015260648101829052612fe59085907f23b872dd00000000000000000000000000000000000000000000000000000000906084016122a4565b50505050565b6000613040826040518060400160405280602081526020017f5361666545524332303a206c6f772d6c6576656c2063616c6c206661696c6564815250856001600160a01b0316613cf99092919063ffffffff16565b905080516000148061306157508080602001905181019061306191906151a9565b610c225760405162461bcd60e51b815260206004820152602a60248201527f5361666545524332303a204552433230206f7065726174696f6e20646964206e60448201527f6f74207375636365656400000000000000000000000000000000000000000000606482015260840161050e565b600060606000807301000000000000000000000000000000000001036001600160a01b0316868660405160200161310b9291906151c6565b60408051601f19818403018152908290526131259161518d565b600060405180830381855afa9150503d8060008114613160576040519150601f19603f3d011682016040523d82523d6000602084013e613165565b606091505b5091509150816131a1576040517f902e94f800000000000000000000000000000000000000000000000000000000815260040160405180910390fd5b808060200190518101906131b5919061521b565b9097909650945050505050565b6000808260078111156131d7576131d76143f0565b14158015612dad575060018260078111156131f4576131f46143f0565b141592915050565b6000807a184f03e93ff9f4daa797ed6e38ed64bf6a1f0100000000000000008310613245577a184f03e93ff9f4daa797ed6e38ed64bf6a1f010000000000000000830492506040015b6d04ee2d6d415b85acef81000000008310613271576d04ee2d6d415b85acef8100000000830492506020015b662386f26fc10000831061328f57662386f26fc10000830492506010015b6305f5e10083106132a7576305f5e100830492506008015b61271083106132bb57612710830492506004015b606483106132cd576064830492506002015b600a8310612dad5760010192915050565b606060006132ec8484614de4565b67ffffffffffffffff811115613304576133046146b4565b6040519080825280601f01601f19166020018201604052801561332e576020820181803683370190505b509050835b83811080156133425750855181105b156133ac5785818151811061335957613359614df7565b01602001516001600160f81b031916826133738784614de4565b8151811061338357613383614df7565b60200101906001600160f81b031916908160001a905350806133a481615143565b915050613333565b50949350505050565b600081516028146133f2576040517facf8696900000000000000000000000000000000000000000000000000000000815260040160405180910390fd5b6000600283516134029190615280565b67ffffffffffffffff81111561341a5761341a6146b4565b6040519080825280601f01601f191660200182016040528015613444576020820181803683370190505b50905060005b600284516134589190615280565b8110156134ee576134968461346e836002615294565b613479906001614e41565b8151811061348957613489614df7565b016020015160f81c613d08565b6134a585613479846002615294565b6134b09060106152ab565b6134ba91906152c7565b60f81b8282815181106134cf576134cf614df7565b60200101906001600160f81b031916908160001a90535060010161344a565b506134f8816152e0565b60601c9392505050565b60606000825b858110156136395786868281811061352257613522614df7565b909101356001600160f81b0319167f3a000000000000000000000000000000000000000000000000000000000000000390506136275784805190602001206135a388888080601f0160208091040260200160405190810160405280939291908181526020018383808284376000920191909152508992508691506132de9050565b80519060200120146135c8575050604080516020810190915260008152905081613715565b806135d281615143565b915050858110801561360c57508686828181106135f1576135f1614df7565b9050013560f81c60f81b6001600160f81b031916600160fd1b145b1561361f578061361b81615143565b9150505b809350613639565b8061363181615143565b915050613508565b858110156136cd5786868281811061365357613653614df7565b909101356001600160f81b031916600560f91b0390506136c5576136b087878080601f0160208091040260200160405190810160405280939291908181526020018383808284376000920191909152508892508591506132de9050565b6136bb826001614e41565b9250925050613715565b600101613639565b61371087878080601f0160208091040260200160405190810160405280939291908181526020018383808284376000920191909152508892508591506132de9050565b925090505b94509492505050565b600080805b835181101561377157603084828151811061374057613740614df7565b0160200151613752919060f81c614de4565b61375d83600a615294565b6137679190614e41565b9150600101613723565b5092915050565b6060600082815b61378a600187614de4565b821015613885578686838181106137a3576137a3614df7565b9050013560f81c60f81b6001600160f81b031916602d60f81b1480156137fb575086866137d1846001614e41565b8181106137e0576137e0614df7565b9050013560f81c60f81b6001600160f81b031916600160fd1b145b1561381f5761380b600283614e41565b91508061381781615143565b915050613824565b613885565b858210801561385c575086868381811061384057613840614df7565b9050013560f81c60f81b6001600160f81b031916600a60f81b14155b15613873578161386b81615143565b925050613824565b8161387d81615143565b92505061377f565b60008167ffffffffffffffff8111156138a0576138a06146b4565b6040519080825280602002602001820160405280156138d357816020015b60608152602001906001900390816138be5790505b50905085925060005b6138e7600189614de4565b841080156138f55750828114155b15613a5b5788888581811061390c5761390c614df7565b9050013560f81c60f81b6001600160f81b031916602d60f81b1480156139645750888861393a866001614e41565b81811061394957613949614df7565b9050013560f81c60f81b6001600160f81b031916600160fd1b145b1561397757613974846002614e41565b96505b87841080156139af575088888581811061399357613993614df7565b9050013560f81c60f81b6001600160f81b031916600a60f81b14155b156139c657836139be81615143565b945050613977565b613a0989898080601f0160208091040260200160405190810160405280939291908181526020018383808284376000920191909152508b92508891506132de9050565b828281518110613a1b57613a1b614df7565b60200260200101819052508080613a3190615143565b915050878403613a495783613a4581615333565b9450505b83613a5381615143565b9450506138dc565b509791965090945050505050565b60006107b25b8761ffff168161ffff161015613abb57613a8881613e94565b15613aa257613a9b6301e2850083614e41565b9150613ab3565b613ab06301e1338083614e41565b91505b600101613a6f565b613ac36142e4565b601f8152613ad089613e94565b15613ae157601d6020820152613ae9565b601c60208201525b601f60408201819052601e606083018190526080830182905260a0830181905260c0830182905260e0830182905261010083018190526101208301829052610140830152610160820152600191505b8760ff168261ffff161015613b965780613b5360018461534a565b61ffff16600c8110613b6757613b67614df7565b6020020151613b799062015180615364565b613b899063ffffffff1684614e41565b9250600190910190613b38565b613ba1600188615383565b613bb19060ff1662015180615364565b613bc19063ffffffff1684614e41565b9250613bd260ff8716610e10615364565b613be29063ffffffff1684614e41565b9250613bf260ff8616603c61539c565b613c009061ffff1684614e41565b9250613c0f60ff851684614e41565b9998505050505050505050565b613c576040518060a001604052806060815260200160006001600160a01b031681526020016000815260200160608152602001606081525090565b6000613c796002546000801b8560405180602001604052806000815250613ef3565b9050600081806020019051810190613c919190615467565b90506001604051613ca29190614fae565b604051809103902081600001518051906020012014613cd45760405163283d62bd60e01b815260040160405180910390fd5b42816040015110156115ee57604051630b17115560e41b815260040160405180910390fd5b6060612f0c8484600085613fd9565b60007f300000000000000000000000000000000000000000000000000000000000000060f883901b6001600160f81b03191610801590613d7657507f390000000000000000000000000000000000000000000000000000000000000060f883901b6001600160f81b03191611155b15613d8657612dad603083615383565b7f610000000000000000000000000000000000000000000000000000000000000060f883901b6001600160f81b03191610801590613df257507f660000000000000000000000000000000000000000000000000000000000000060f883901b6001600160f81b03191611155b15613e0e576061613e0483600a6152c7565b612dad9190615383565b7f410000000000000000000000000000000000000000000000000000000000000060f883901b6001600160f81b03191610801590613e7a57507f460000000000000000000000000000000000000000000000000000000000000060f883901b6001600160f81b03191611155b15613e8c576041613e0483600a6152c7565b506000919050565b6000613ea160048361554b565b61ffff1615613eb257506000919050565b613ebd60648361554b565b61ffff1615613ece57506001919050565b613eda6101908361554b565b61ffff1615613eeb57506000919050565b506001919050565b60606000807301000000000000000000000000000000000000046001600160a01b031687878787604051602001613f2d949392919061515c565b60408051601f1981840301815290829052613f479161518d565b600060405180830381855afa9150503d8060008114613f82576040519150601f19603f3d011682016040523d82523d6000602084013e613f87565b606091505b509150915081612f085760405162461bcd60e51b815260206004820152600f60248201527f646563727970743a206661696c65640000000000000000000000000000000000604482015260640161050e565b6060824710156140515760405162461bcd60e51b815260206004820152602660248201527f416464726573733a20696e73756666696369656e742062616c616e636520666f60448201527f722063616c6c0000000000000000000000000000000000000000000000000000606482015260840161050e565b600080866001600160a01b0316858760405161406d919061518d565b60006040518083038185875af1925050503d80600081146140aa576040519150601f19603f3d011682016040523d82523d6000602084013e6140af565b606091505b50915091506140c0878383876140cb565b979650505050505050565b6060831561413a578251600003614133576001600160a01b0385163b6141335760405162461bcd60e51b815260206004820152601d60248201527f416464726573733a2063616c6c20746f206e6f6e2d636f6e7472616374000000604482015260640161050e565b5081612f0c565b612f0c838381511561414f5781518083602001fd5b8060405162461bcd60e51b815260040161050e9190614a0e565b604080516101608101909152806000815260200160008152602001600081526020016000815260200160008152602001600015158152602001600060058111156141b5576141b56143f0565b8152602001606081526020016060815260200160608152602001606081525090565b828054828255906000526020600020908101928215614212579160200282015b828111156142125782518255916020019190600101906141f7565b5061421e929150614303565b5090565b604051806101a00160405280600080191681526020016000815260200160008152602001600081526020016000815260200160008152602001600081526020016000815260200160008152602001600081526020016000815260200160006007811115614291576142916143f0565b8152602001606081525090565b6040518060c001604052806000815260200160008152602001600060018111156142ca576142ca6143f0565b815260606020820181905260408201819052016000905290565b604051806101800160405280600c906020820280368337509192915050565b5b8082111561421e5760008155600101614304565b60006020828403121561432a57600080fd5b5035919050565b80356008811061434057600080fd5b919050565b60008060006060848603121561435a57600080fd5b8335925061436a60208501614331565b929592945050506040919091013590565b6001600160a01b03811681146105b157600080fd5b600080604083850312156143a357600080fd5b82356143ae8161437b565b946020939093013593505050565b600080604083850312156143cf57600080fd5b823591506020830135600681106143e557600080fd5b809150509250929050565b634e487b7160e01b600052602160045260246000fd5b600281106105b1576105b16143f0565b60005b83811015614431578181015183820152602001614419565b50506000910152565b60008151808452614452816020860160208601614416565b601f01601f19169290920160200192915050565b60038110614476576144766143f0565b9052565b86815285602082015261448c85614406565b84604082015260c0606082015260006144a860c083018661443a565b82810360808401526144ba818661443a565b9150506140c060a0830184614466565b6000806000606084860312156144df57600080fd5b505081359360208301359350604090920135919050565b61447681614406565b60068110614476576144766143f0565b600081518084526020840193506020830160005b82811015614541578151865260209586019590910190600101614523565b5093949350505050565b6020815261455d6020820183516144f6565b602082015160408201526040820151606082015260608201516080820152608082015160a0820152600060a083015161459a60c084018215159052565b5060c08301516145ad60e08401826144ff565b5060e08301516101606101008401526145ca61018084018261443a565b9050610100840151601f19848303016101208501526145e9828261450f565b915050610120840151601f1984830301610140850152614609828261450f565b915050610140840151601f1984830301610160850152614629828261450f565b95945050505050565b61463b89614406565b88815287602082015286604082015285606082015284608082015283151560a082015261466b60c08201846144ff565b61010060e0820152600061468361010083018461443a565b9a9950505050505050505050565b67ffffffffffffffff811681146105b157600080fd5b600281106105b157600080fd5b634e487b7160e01b600052604160045260246000fd5b6040516101a0810167ffffffffffffffff811182821017156146ee576146ee6146b4565b60405290565b60405160a0810167ffffffffffffffff811182821017156146ee576146ee6146b4565b604051601f8201601f1916810167ffffffffffffffff81118282101715614740576147406146b4565b604052919050565b600067ffffffffffffffff821115614762576147626146b4565b50601f01601f191660200190565b600061478361477e84614748565b614717565b905082815283838301111561479757600080fd5b828260208301376000602084830101529392505050565b600082601f8301126147bf57600080fd5b6115ee83833560208501614770565b600080600080608085870312156147e457600080fd5b84356147ef81614691565b935060208501356147ff816146a7565b9250604085013567ffffffffffffffff81111561481b57600080fd5b614827878288016147ae565b925050606085013567ffffffffffffffff81111561484457600080fd5b614850878288016147ae565b91505092959194509250565b60006020828403121561486e57600080fd5b81356115ee8161437b565b6000806040838503121561488c57600080fd5b82359150602083013567ffffffffffffffff8111156148aa57600080fd5b83016101a081860312156148bd57600080fd5b6148c56146ca565b813581526020808301359082015260408083013590820152606080830135908201526080808301359082015260a0808301359082015260c0808301359082015260e0808301359082015261010080830135908201526101208083013590820152610140808301359082015261493d6101608301614331565b61016082015261018082013567ffffffffffffffff81111561495e57600080fd5b61496a878285016147ae565b6101808301525080925050509250929050565b6000806000838503608081121561499357600080fd5b843567ffffffffffffffff8111156149aa57600080fd5b8501601f810187136149bb57600080fd5b803567ffffffffffffffff8111156149d257600080fd5b8760208284010111156149e457600080fd5b602091909101945092506060601f1982011215614a0057600080fd5b506020840190509250925092565b6020815260006115ee602083018461443a565b60088110614476576144766143f0565b8d81528c60208201528b60408201528a60608201528960808201528860a08201528760c08201528660e0820152856101008201528461012082015283610140820152614a81610160820184614a21565b6101a06101808201526000614a9a6101a083018461443a565b9f9e505050505050505050505050505050565b600060208284031215614abf57600080fd5b813567ffffffffffffffff811115614ad657600080fd5b8201601f81018413614ae757600080fd5b612f0c84823560208401614770565b600067ffffffffffffffff821115614b1057614b106146b4565b5060051b60200190565b600082601f830112614b2b57600080fd5b8135614b3961477e82614af6565b8082825260208201915060208360051b860101925085831115614b5b57600080fd5b602085015b83811015614b78578035835260209283019201614b60565b5095945050505050565b80151581146105b157600080fd5b600080600080600080600060e0888a031215614bab57600080fd5b8735614bb6816146a7565b96506020880135955060408801359450606088013567ffffffffffffffff811115614be057600080fd5b614bec8a828b01614b1a565b945050608088013567ffffffffffffffff811115614c0957600080fd5b614c158a828b01614b1a565b93505060a0880135614c2681614b82565b96999598509396929591949193505060c09091013590565b600060208284031215614c5057600080fd5b81356affffffffffffffffffffff19811681146115ee57600080fd5b602080825282518282018190526000918401906040840190835b81811015614ca4578351835260209384019390920191600101614c86565b509095945050505050565b6020815281516020820152602082015160408201526040820151606082015260608201516080820152608082015160a082015260a082015160c082015260c082015160e082015260e08201516101008201526101008201516101208201526101208201516101408201526101408201516101608201526000610160830151614d3b610180840182614a21565b506101808301516101a080840152612f0c6101c084018261443a565b60208152815160208201526020820151604082015260006040830151614d7c81614406565b80606084015250606083015160c06080840152614d9c60e084018261443a565b90506080840151601f198483030160a0850152614db9828261443a565b91505060a08401516127ba60c0850182614466565b634e487b7160e01b600052601160045260246000fd5b81810381811115612dad57612dad614dce565b634e487b7160e01b600052603260045260246000fd5b600181811c90821680614e2157607f821691505b602082108103612f8e57634e487b7160e01b600052602260045260246000fd5b80820180821115612dad57612dad614dce565b601f821115610c2257806000526020600020601f840160051c81016020851015614e7b5750805b601f840160051c820191505b8181101561126d5760008155600101614e87565b815167ffffffffffffffff811115614eb557614eb56146b4565b614ec981614ec38454614e0d565b84614e54565b6020601f821160018114614efd5760008315614ee55750848201515b600019600385901b1c1916600184901b17845561126d565b600084815260208120601f198516915b82811015614f2d5787850151825560209485019460019092019101614f0d565b5084821015614f4b5786840151600019600387901b60f8161c191681555b50505050600190811b01905550565b7f19457468657265756d205369676e6564204d6573736167653a0a000000000000815260008451614f9281601a850160208901614416565b82018385601a83013760009301601a0192835250909392505050565b6000808354614fbc81614e0d565b600182168015614fd35760018114614fe857615018565b60ff1983168652811515820286019350615018565b86600052602060002060005b8381101561501057815488820152600190910190602001614ff4565b505081860193505b509195945050505050565b602081526000825160a0602084015261503f60c084018261443a565b90506001600160a01b036020850151166040840152604084015160608401526060840151601f19848303016080850152615079828261443a565b6080860151858203601f190160a08701528051808352919350602090810192508084019190600582901b85010160005b828110156150da57601f198683030184526150c582865161443a565b602095860195949094019391506001016150a9565b50979650505050505050565b848152836020820152608060408201526000615105608083018561450f565b82810360608401526140c0818561450f565b634e487b7160e01b600052603160045260246000fd5b634e487b7160e01b600052601260045260246000fd5b60006001820161515557615155614dce565b5060010190565b84815283602082015260806040820152600061517b608083018561443a565b82810360608401526140c0818561443a565b6000825161519f818460208701614416565b9190910192915050565b6000602082840312156151bb57600080fd5b81516115ee81614b82565b6040815260006151d9604083018561443a565b8281036020840152614629818561443a565b60006151f961477e84614748565b905082815283838301111561520d57600080fd5b6115ee836020830184614416565b6000806040838503121561522e57600080fd5b825161523981614691565b602084015190925067ffffffffffffffff81111561525657600080fd5b8301601f8101851361526757600080fd5b615276858251602084016151eb565b9150509250929050565b60008261528f5761528f61512d565b500490565b8082028115828204841417612dad57612dad614dce565b60ff818116838216029081169081811461377157613771614dce565b60ff8181168382160190811115612dad57612dad614dce565b805160208201516bffffffffffffffffffffffff1981169190601482101561532c576bffffffffffffffffffffffff196bffffffffffffffffffffffff198360140360031b1b82161692505b5050919050565b60008161534257615342614dce565b506000190190565b61ffff8281168282160390811115612dad57612dad614dce565b63ffffffff818116838216029081169081811461377157613771614dce565b60ff8281168282160390811115612dad57612dad614dce565b61ffff818116838216029081169081811461377157613771614dce565b600082601f8301126153ca57600080fd5b6115ee838351602085016151eb565b80516143408161437b565b600082601f8301126153f557600080fd5b815161540361477e82614af6565b8082825260208201915060208360051b86010192508583111561542557600080fd5b602085015b83811015614b7857805167ffffffffffffffff81111561544957600080fd5b615458886020838a01016153b9565b8452506020928301920161542a565b60006020828403121561547957600080fd5b815167ffffffffffffffff81111561549057600080fd5b820160a081850312156154a257600080fd5b6154aa6146f4565b815167ffffffffffffffff8111156154c157600080fd5b6154cd868285016153b9565b8252506154dc602083016153d9565b602082015260408281015190820152606082015167ffffffffffffffff81111561550557600080fd5b615511868285016153b9565b606083015250608082015167ffffffffffffffff81111561553157600080fd5b61553d868285016153e4565b608083015250949350505050565b600061ffff83168061555f5761555f61512d565b8061ffff8416069150509291505056fea2646970667358221220f7b22d642dc32d0e42b95ff416d131f7b42139225d91ee16925ee92a926433a464736f6c634300081c0033",
  "linkReferences": {},
  "deployedLinkReferences": {}
}