{
  "_format": "hh-sol-artifact-1",
  "contractName": "PolyBet",
  "sourceName": "contracts/polybet.sol",
  "abi": [
    {
      "inputs": [],
      "stateMutability": "nonpayable",
      "type": "constructor"
    },
    {
      "inputs": [],
      "name": "A13e_RevokedAuthToken",
      "type": "error"
    },
    {
      "inputs": [],
      "name": "SiweAuth_AddressMismatch",
      "type": "error"
    },
    {
      "inputs": [],
      "name": "SiweAuth_ChainIdMismatch",
      "type": "error"
    },
    {
      "inputs": [],
      "name": "SiweAuth_DomainMismatch",
      "type": "error"
    },
    {
      "inputs": [],
      "name": "SiweAuth_Expired",
      "type": "error"
    },
    {
      "inputs": [],
      "name": "SiweAuth_NotBeforeInFuture",
      "type": "error"
    },
    {
      "inputs": [],
      "name": "SiweParser_InvalidAddressLength",
      "type": "error"
    },
    {
      "inputs": [],
      "name": "SiweParser_InvalidNonce",
      "type": "error"
    },
    {
      "anonymous": false,
      "inputs": [
        {
          "indexed": true,
          "internalType": "uint256",
          "name": "betId",
          "type": "uint256"
        },
        {
          "indexed": false,
          "internalType": "uint256",
          "name": "totalCollateralAmount",
          "type": "uint256"
        },
        {
          "indexed": false,
          "internalType": "bytes32[]",
          "name": "marketplaceIds",
          "type": "bytes32[]"
        },
        {
          "indexed": false,
          "internalType": "bytes32[]",
          "name": "marketIds",
          "type": "bytes32[]"
        }
      ],
      "name": "BetSlipCreated",
      "type": "event"
    },
    {
      "anonymous": false,
      "inputs": [
        {
          "indexed": true,
          "internalType": "address",
          "name": "previousOwner",
          "type": "address"
        },
        {
          "indexed": true,
          "internalType": "address",
          "name": "newOwner",
          "type": "address"
        }
      ],
      "name": "OwnershipTransferred",
      "type": "event"
    },
    {
      "inputs": [
        {
          "internalType": "uint64",
          "name": "chainId",
          "type": "uint64"
        },
        {
          "internalType": "enum PolyBet.ChainFamily",
          "name": "family",
          "type": "uint8"
        },
        {
          "internalType": "string",
          "name": "name",
          "type": "string"
        },
        {
          "internalType": "string",
          "name": "marketplaceProxy",
          "type": "string"
        }
      ],
      "name": "addMarketplace",
      "outputs": [],
      "stateMutability": "nonpayable",
      "type": "function"
    },
    {
      "inputs": [
        {
          "internalType": "uint256",
          "name": "",
          "type": "uint256"
        }
      ],
      "name": "betSlips",
      "outputs": [
        {
          "internalType": "enum PolyBet.BetSlipStrategy",
          "name": "strategy",
          "type": "uint8"
        },
        {
          "internalType": "uint256",
          "name": "initialCollateral",
          "type": "uint256"
        },
        {
          "internalType": "uint256",
          "name": "finalCollateral",
          "type": "uint256"
        },
        {
          "internalType": "enum PolyBet.BetOutcome",
          "name": "outcome",
          "type": "uint8"
        },
        {
          "internalType": "enum PolyBet.BetSlipStatus",
          "name": "status",
          "type": "uint8"
        },
        {
          "internalType": "string",
          "name": "failureReason",
          "type": "string"
        }
      ],
      "stateMutability": "view",
      "type": "function"
    },
    {
      "inputs": [],
      "name": "domain",
      "outputs": [
        {
          "internalType": "string",
          "name": "",
          "type": "string"
        }
      ],
      "stateMutability": "view",
      "type": "function"
    },
    {
      "inputs": [
        {
          "internalType": "uint256",
          "name": "betSlipId",
          "type": "uint256"
        }
      ],
      "name": "getBetSlip",
      "outputs": [
        {
          "components": [
            {
              "internalType": "enum PolyBet.BetSlipStrategy",
              "name": "strategy",
              "type": "uint8"
            },
            {
              "internalType": "uint256",
              "name": "initialCollateral",
              "type": "uint256"
            },
            {
              "internalType": "uint256",
              "name": "finalCollateral",
              "type": "uint256"
            },
            {
              "internalType": "enum PolyBet.BetOutcome",
              "name": "outcome",
              "type": "uint8"
            },
            {
              "internalType": "enum PolyBet.BetSlipStatus",
              "name": "status",
              "type": "uint8"
            },
            {
              "internalType": "string",
              "name": "failureReason",
              "type": "string"
            },
            {
              "internalType": "bytes32[]",
              "name": "marketplaceIds",
              "type": "bytes32[]"
            },
            {
              "internalType": "bytes32[]",
              "name": "marketIds",
              "type": "bytes32[]"
            },
            {
              "internalType": "bytes32[]",
              "name": "proxiedBets",
              "type": "bytes32[]"
            }
          ],
          "internalType": "struct PolyBet.BetSlip",
          "name": "",
          "type": "tuple"
        }
      ],
      "stateMutability": "view",
      "type": "function"
    },
    {
      "inputs": [
        {
          "internalType": "uint256",
          "name": "marketplaceId",
          "type": "uint256"
        }
      ],
      "name": "getMarketplace",
      "outputs": [
        {
          "components": [
            {
              "internalType": "uint256",
              "name": "warpRouterId",
              "type": "uint256"
            },
            {
              "internalType": "uint256",
              "name": "chainId",
              "type": "uint256"
            },
            {
              "internalType": "enum PolyBet.ChainFamily",
              "name": "chainFamily",
              "type": "uint8"
            },
            {
              "internalType": "string",
              "name": "name",
              "type": "string"
            },
            {
              "internalType": "string",
              "name": "marketplaceProxy",
              "type": "string"
            },
            {
              "internalType": "enum PolyBet.PricingStrategy",
              "name": "pricingStrategy",
              "type": "uint8"
            }
          ],
          "internalType": "struct PolyBet.Marketplace",
          "name": "",
          "type": "tuple"
        }
      ],
      "stateMutability": "view",
      "type": "function"
    },
    {
      "inputs": [
        {
          "internalType": "bytes32",
          "name": "betId",
          "type": "bytes32"
        }
      ],
      "name": "getProxiedBet",
      "outputs": [
        {
          "components": [
            {
              "internalType": "bytes32",
              "name": "id",
              "type": "bytes32"
            },
            {
              "internalType": "uint256",
              "name": "betSlipId",
              "type": "uint256"
            },
            {
              "internalType": "uint256",
              "name": "marketplaceId",
              "type": "uint256"
            },
            {
              "internalType": "uint256",
              "name": "marketId",
              "type": "uint256"
            },
            {
              "internalType": "uint256",
              "name": "optionIndex",
              "type": "uint256"
            },
            {
              "internalType": "uint256",
              "name": "minimumShares",
              "type": "uint256"
            },
            {
              "internalType": "uint256",
              "name": "blockTimestamp",
              "type": "uint256"
            },
            {
              "internalType": "uint256",
              "name": "originalCollateralAmount",
              "type": "uint256"
            },
            {
              "internalType": "uint256",
              "name": "finalCollateralAmount",
              "type": "uint256"
            },
            {
              "internalType": "uint256",
              "name": "sharesBought",
              "type": "uint256"
            },
            {
              "internalType": "uint256",
              "name": "sharesSold",
              "type": "uint256"
            },
            {
              "internalType": "enum PolyBet.BetOutcome",
              "name": "outcome",
              "type": "uint8"
            },
            {
              "internalType": "string",
              "name": "failureReason",
              "type": "string"
            }
          ],
          "internalType": "struct PolyBet.ProxiedBet",
          "name": "",
          "type": "tuple"
        }
      ],
      "stateMutability": "view",
      "type": "function"
    },
    {
      "inputs": [],
      "name": "getUserActiveBetslips",
      "outputs": [
        {
          "internalType": "uint256[]",
          "name": "",
          "type": "uint256[]"
        }
      ],
      "stateMutability": "view",
      "type": "function"
    },
    {
      "inputs": [
        {
          "internalType": "bytes",
          "name": "authToken",
          "type": "bytes"
        }
      ],
      "name": "getUserActiveBetslips",
      "outputs": [
        {
          "internalType": "uint256[]",
          "name": "",
          "type": "uint256[]"
        }
      ],
      "stateMutability": "view",
      "type": "function"
    },
    {
      "inputs": [
        {
          "internalType": "bytes",
          "name": "authToken",
          "type": "bytes"
        }
      ],
      "name": "getUserBalance",
      "outputs": [
        {
          "internalType": "uint256",
          "name": "",
          "type": "uint256"
        }
      ],
      "stateMutability": "view",
      "type": "function"
    },
    {
      "inputs": [],
      "name": "getUserBalance",
      "outputs": [
        {
          "internalType": "uint256",
          "name": "",
          "type": "uint256"
        }
      ],
      "stateMutability": "view",
      "type": "function"
    },
    {
      "inputs": [
        {
          "internalType": "bytes",
          "name": "authToken",
          "type": "bytes"
        }
      ],
      "name": "getUserClosedBets",
      "outputs": [
        {
          "internalType": "uint256[]",
          "name": "",
          "type": "uint256[]"
        }
      ],
      "stateMutability": "view",
      "type": "function"
    },
    {
      "inputs": [],
      "name": "getUserClosedBets",
      "outputs": [
        {
          "internalType": "uint256[]",
          "name": "",
          "type": "uint256[]"
        }
      ],
      "stateMutability": "view",
      "type": "function"
    },
    {
      "inputs": [
        {
          "internalType": "enum PolyBet.BetSlipStrategy",
          "name": "",
          "type": "uint8"
        },
        {
          "internalType": "uint256",
          "name": "",
          "type": "uint256"
        },
        {
          "internalType": "uint256",
          "name": "",
          "type": "uint256"
        },
        {
          "internalType": "bool",
          "name": "",
          "type": "bool"
        }
      ],
      "name": "initiateSellProxiedBets",
      "outputs": [],
      "stateMutability": "view",
      "type": "function"
    },
    {
      "inputs": [
        {
          "internalType": "string",
          "name": "siweMsg",
          "type": "string"
        },
        {
          "components": [
            {
              "internalType": "bytes32",
              "name": "r",
              "type": "bytes32"
            },
            {
              "internalType": "bytes32",
              "name": "s",
              "type": "bytes32"
            },
            {
              "internalType": "uint256",
              "name": "v",
              "type": "uint256"
            }
          ],
          "internalType": "struct SignatureRSV",
          "name": "sig",
          "type": "tuple"
        }
      ],
      "name": "login",
      "outputs": [
        {
          "internalType": "bytes",
          "name": "",
          "type": "bytes"
        }
      ],
      "stateMutability": "view",
      "type": "function"
    },
    {
      "inputs": [
        {
          "internalType": "uint256",
          "name": "",
          "type": "uint256"
        }
      ],
      "name": "marketplaces",
      "outputs": [
        {
          "internalType": "uint256",
          "name": "warpRouterId",
          "type": "uint256"
        },
        {
          "internalType": "uint256",
          "name": "chainId",
          "type": "uint256"
        },
        {
          "internalType": "enum PolyBet.ChainFamily",
          "name": "chainFamily",
          "type": "uint8"
        },
        {
          "internalType": "string",
          "name": "name",
          "type": "string"
        },
        {
          "internalType": "string",
          "name": "marketplaceProxy",
          "type": "string"
        },
        {
          "internalType": "enum PolyBet.PricingStrategy",
          "name": "pricingStrategy",
          "type": "uint8"
        }
      ],
      "stateMutability": "view",
      "type": "function"
    },
    {
      "inputs": [],
      "name": "musdcToken",
      "outputs": [
        {
          "internalType": "contract IERC20",
          "name": "",
          "type": "address"
        }
      ],
      "stateMutability": "view",
      "type": "function"
    },
    {
      "inputs": [],
      "name": "owner",
      "outputs": [
        {
          "internalType": "address",
          "name": "",
          "type": "address"
        }
      ],
      "stateMutability": "view",
      "type": "function"
    },
    {
      "inputs": [
        {
          "internalType": "enum PolyBet.BetSlipStrategy",
          "name": "strategy",
          "type": "uint8"
        },
        {
          "internalType": "uint256",
          "name": "totalCollateralAmount",
          "type": "uint256"
        },
        {
          "internalType": "bytes32[]",
          "name": "marketplaceIds",
          "type": "bytes32[]"
        },
        {
          "internalType": "bytes32[]",
          "name": "marketIds",
          "type": "bytes32[]"
        }
      ],
      "name": "placeBet",
      "outputs": [],
      "stateMutability": "nonpayable",
      "type": "function"
    },
    {
      "inputs": [
        {
          "internalType": "bytes32",
          "name": "",
          "type": "bytes32"
        }
      ],
      "name": "proxiedBets",
      "outputs": [
        {
          "internalType": "bytes32",
          "name": "id",
          "type": "bytes32"
        },
        {
          "internalType": "uint256",
          "name": "betSlipId",
          "type": "uint256"
        },
        {
          "internalType": "uint256",
          "name": "marketplaceId",
          "type": "uint256"
        },
        {
          "internalType": "uint256",
          "name": "marketId",
          "type": "uint256"
        },
        {
          "internalType": "uint256",
          "name": "optionIndex",
          "type": "uint256"
        },
        {
          "internalType": "uint256",
          "name": "minimumShares",
          "type": "uint256"
        },
        {
          "internalType": "uint256",
          "name": "blockTimestamp",
          "type": "uint256"
        },
        {
          "internalType": "uint256",
          "name": "originalCollateralAmount",
          "type": "uint256"
        },
        {
          "internalType": "uint256",
          "name": "finalCollateralAmount",
          "type": "uint256"
        },
        {
          "internalType": "uint256",
          "name": "sharesBought",
          "type": "uint256"
        },
        {
          "internalType": "uint256",
          "name": "sharesSold",
          "type": "uint256"
        },
        {
          "internalType": "enum PolyBet.BetOutcome",
          "name": "outcome",
          "type": "uint8"
        },
        {
          "internalType": "string",
          "name": "failureReason",
          "type": "string"
        }
      ],
      "stateMutability": "view",
      "type": "function"
    },
    {
      "inputs": [
        {
          "internalType": "bytes32",
          "name": "proxiedBetId",
          "type": "bytes32"
        },
        {
          "internalType": "enum PolyBet.BetOutcome",
          "name": "outcome",
          "type": "uint8"
        },
        {
          "internalType": "uint256",
          "name": "winningsCollateralValue",
          "type": "uint256"
        }
      ],
      "name": "recordProxiedBetClosed",
      "outputs": [],
      "stateMutability": "nonpayable",
      "type": "function"
    },
    {
      "inputs": [
        {
          "internalType": "uint256",
          "name": "betSlipId",
          "type": "uint256"
        },
        {
          "components": [
            {
              "internalType": "bytes32",
              "name": "id",
              "type": "bytes32"
            },
            {
              "internalType": "uint256",
              "name": "betSlipId",
              "type": "uint256"
            },
            {
              "internalType": "uint256",
              "name": "marketplaceId",
              "type": "uint256"
            },
            {
              "internalType": "uint256",
              "name": "marketId",
              "type": "uint256"
            },
            {
              "internalType": "uint256",
              "name": "optionIndex",
              "type": "uint256"
            },
            {
              "internalType": "uint256",
              "name": "minimumShares",
              "type": "uint256"
            },
            {
              "internalType": "uint256",
              "name": "blockTimestamp",
              "type": "uint256"
            },
            {
              "internalType": "uint256",
              "name": "originalCollateralAmount",
              "type": "uint256"
            },
            {
              "internalType": "uint256",
              "name": "finalCollateralAmount",
              "type": "uint256"
            },
            {
              "internalType": "uint256",
              "name": "sharesBought",
              "type": "uint256"
            },
            {
              "internalType": "uint256",
              "name": "sharesSold",
              "type": "uint256"
            },
            {
              "internalType": "enum PolyBet.BetOutcome",
              "name": "outcome",
              "type": "uint8"
            },
            {
              "internalType": "string",
              "name": "failureReason",
              "type": "string"
            }
          ],
          "internalType": "struct PolyBet.ProxiedBet",
          "name": "proxiedBet",
          "type": "tuple"
        }
      ],
      "name": "recordProxiedBetPlaced",
      "outputs": [],
      "stateMutability": "nonpayable",
      "type": "function"
    },
    {
      "inputs": [
        {
          "internalType": "uint256",
          "name": "",
          "type": "uint256"
        },
        {
          "internalType": "uint256",
          "name": "",
          "type": "uint256"
        },
        {
          "internalType": "uint256",
          "name": "",
          "type": "uint256"
        }
      ],
      "name": "recordProxiedBetSold",
      "outputs": [],
      "stateMutability": "view",
      "type": "function"
    },
    {
      "inputs": [],
      "name": "renounceOwnership",
      "outputs": [],
      "stateMutability": "nonpayable",
      "type": "function"
    },
    {
      "inputs": [
        {
          "internalType": "address",
          "name": "_musdcToken",
          "type": "address"
        }
      ],
      "name": "setCollateralToken",
      "outputs": [],
      "stateMutability": "nonpayable",
      "type": "function"
    },
    {
      "inputs": [
        {
          "internalType": "address",
          "name": "newOwner",
          "type": "address"
        }
      ],
      "name": "transferOwnership",
      "outputs": [],
      "stateMutability": "nonpayable",
      "type": "function"
    },
    {
      "inputs": [
        {
          "internalType": "uint256",
          "name": "betSlipId",
          "type": "uint256"
        },
        {
          "internalType": "enum PolyBet.BetSlipStatus",
          "name": "status",
          "type": "uint8"
        }
      ],
      "name": "updateBetSlipStatus",
      "outputs": [],
      "stateMutability": "nonpayable",
      "type": "function"
    },
    {
      "inputs": [
        {
          "internalType": "address",
          "name": "",
          "type": "address"
        },
        {
          "internalType": "uint256",
          "name": "",
          "type": "uint256"
        }
      ],
      "name": "userActiveBetSlips",
      "outputs": [
        {
          "internalType": "uint256",
          "name": "",
          "type": "uint256"
        }
      ],
      "stateMutability": "view",
      "type": "function"
    },
    {
      "inputs": [
        {
          "internalType": "address",
          "name": "",
          "type": "address"
        },
        {
          "internalType": "uint256",
          "name": "",
          "type": "uint256"
        }
      ],
      "name": "userClosedBetSlips",
      "outputs": [
        {
          "internalType": "uint256",
          "name": "",
          "type": "uint256"
        }
      ],
      "stateMutability": "view",
      "type": "function"
    },
    {
      "inputs": [
        {
          "internalType": "uint256",
          "name": "amount",
          "type": "uint256"
        }
      ],
      "name": "withdrawWinnings",
      "outputs": [],
      "stateMutability": "nonpayable",
      "type": "function"
    }
  ],
  "bytecode": "0x608060405234801561001057600080fd5b5060405180604001604052806007815260200166141bdb1e50995d60ca1b81525061005160206040518060200160405280600081525061007a60201b60201c565b61005a906101ba565b6002556001610069828261027a565b50610075905033610168565b6103b2565b60606000807301000000000000000000000000000000000000016001600160a01b031685856040516020016100b092919061035c565b60408051601f19818403018152908290526100ca91610396565b600060405180830381855afa9150503d8060008114610105576040519150601f19603f3d011682016040523d82523d6000602084013e61010a565b606091505b5091509150816101605760405162461bcd60e51b815260206004820152601360248201527f72616e646f6d42797465733a206661696c656400000000000000000000000000604482015260640160405180910390fd5b949350505050565b600380546001600160a01b038381166001600160a01b0319831681179093556040519116919082907f8be0079c531659141344cd1fd0a4f28419497f9722a3daafe3b4186f6b6457e090600090a35050565b805160208083015191908110156101db576000198160200360031b1b821691505b50919050565b634e487b7160e01b600052604160045260246000fd5b600181811c9082168061020b57607f821691505b6020821081036101db57634e487b7160e01b600052602260045260246000fd5b601f82111561027557806000526020600020601f840160051c810160208510156102525750805b601f840160051c820191505b81811015610272576000815560010161025e565b50505b505050565b81516001600160401b03811115610293576102936101e1565b6102a7816102a184546101f7565b8461022b565b6020601f8211600181146102db57600083156102c35750848201515b600019600385901b1c1916600184901b178455610272565b600084815260208120601f198516915b8281101561030b57878501518255602094850194600190920191016102eb565b50848210156103295786840151600019600387901b60f8161c191681555b50505050600190811b01905550565b60005b8381101561035357818101518382015260200161033b565b50506000910152565b8281526040602082015260008251806040840152610381816060850160208701610338565b601f01601f1916919091016060019392505050565b600082516103a8818460208701610338565b9190910192915050565b615917806103c16000396000f3fe608060405234801561001057600080fd5b50600436106101cf5760003560e01c80637d5559d911610104578063b76ebb56116100a2578063daee6fbc11610071578063daee6fbc14610429578063f1b9ea171461043c578063f2fde38b1461045c578063f53aac2a1461046f57600080fd5b8063b76ebb56146103f1578063c2fb26a614610406578063d1d758cb1461040e578063d69418f31461042157600080fd5b80638da5cb5b116100de5780638da5cb5b1461038c578063974d4ed8146103aa5780639f88151e146103d6578063b7013dc1146103e957600080fd5b80637d5559d91461034b5780637f476b6f1461035e57806388a3469c1461037e57600080fd5b806332d268a51161017157806358dee0541161014b57806358dee0541461030a578063666181a91461031d578063715018a61461033057806376334f791461033857600080fd5b806332d268a5146102b25780635023a0c9146102d257806356037c71146102f757600080fd5b806329ec9442116101ad57806329ec9442146102465780632a6d3e9b146102675780632b64deec1461027a5780633074eebc1461029f57600080fd5b806314794702146101d457806315534b70146101e9578063212e94c914610233575b600080fd5b6101e76101e2366004614482565b61048f565b005b6004546102099073ffffffffffffffffffffffffffffffffffffffff1681565b60405173ffffffffffffffffffffffffffffffffffffffff90911681526020015b60405180910390f35b6101e76102413660046144af565b6105c2565b610259610254366004614507565b610899565b60405190815260200161022a565b6101e7610275366004614533565b6108ca565b61028d610288366004614482565b610933565b60405161022a96959493929190614628565b6102596102ad366004614507565b610a96565b6102c56102c0366004614482565b610ab2565b60405161022a91906146dd565b6102e56102e0366004614482565b610d7d565b60405161022a96959493929190614805565b6101e7610305366004614874565b610e58565b6101e7610318366004614a2d565b610ec2565b6101e761032b366004614ac8565b610ffa565b6101e76110c6565b6101e7610346366004614b71565b6110da565b6101e7610359366004614bea565b611563565b61037161036c366004614cee565b61168d565b60405161022a9190614d9d565b6101e7610305366004614db0565b60035473ffffffffffffffffffffffffffffffffffffffff16610209565b6103bd6103b8366004614482565b611abf565b60405161022a9d9c9b9a99989796959493929190614ddc565b6102596103e4366004614e58565b611bba565b610259611bf2565b6103f9611c6f565b60405161022a9190614ea1565b610371611d37565b6103f961041c366004614e58565b611dc0565b6103f9611e49565b6103f9610437366004614e58565b611f0f565b61044f61044a366004614482565b611f96565b60405161022a9190614ee4565b6101e761046a366004614ac8565b6120f4565b61048261047d366004614482565b6121a8565b60405161022a9190614f8c565b600081116104fe576040517f08c379a000000000000000000000000000000000000000000000000000000000815260206004820152601d60248201527f416d6f756e74206d7573742062652067726561746572207468616e203000000060448201526064015b60405180910390fd5b336000908152600b6020526040902054811115610577576040517f08c379a000000000000000000000000000000000000000000000000000000000815260206004820152601460248201527f496e73756666696369656e742062616c616e636500000000000000000000000060448201526064016104f5565b336000908152600b602052604081208054839290610596908490615050565b90915550506004546105bf9073ffffffffffffffffffffffffffffffffffffffff163383612385565b50565b6105ca612459565b60008260078111156105de576105de614567565b141580156105fe575060038260078111156105fb576105fb614567565b14155b61060757600080fd5b6000838152600c6020908152604080832060010154808452600890925282205460078054929373ffffffffffffffffffffffffffffffffffffffff909216928490811061065657610656615063565b60009182526020808320898452600c9091526040909220600b018054600890920290920192508691907fffffffffffffffffffffffffffffffffffffffffffffffffffffffffffffff001660018360078111156106b5576106b5614567565b02179055506000868152600c602052604081206008018590556002820180548692906106e2908490615092565b909155505073ffffffffffffffffffffffffffffffffffffffff82166000908152600b60205260408120805486929061071c908490615092565b90915550600090505b600782015481101561078957610774600c600084600701848154811061074d5761074d615063565b600091825260208083209091015483528201929092526040019020600b015460ff166124da565b6107815750505050505050565b600101610725565b5073ffffffffffffffffffffffffffffffffffffffff82166000908152600960205260408120905b815481101561085b57848282815481106107cd576107cd615063565b90600052602060002001540361085357815482906107ed90600190615050565b815481106107fd576107fd615063565b906000526020600020015482828154811061081a5761081a615063565b906000526020600020018190555081805480610838576108386150a5565b6001900381819060005260206000200160009055905561085b565b6001016107b1565b50505073ffffffffffffffffffffffffffffffffffffffff166000908152600a6020908152604082208054600181018255908352912001555b505050565b600a60205281600052604060002081815481106108b557600080fd5b90600052602060002001600091509150505481565b80600783815481106108de576108de615063565b6000918252602090912060036008909202010180547fffffffffffffffffffffffffffffffffffffffffffffffffffffffffffff00ff1661010083600481111561092a5761092a614567565b02179055505050565b6006818154811061094357600080fd5b60009182526020909120600690910201805460018201546002830154600384018054939550919360ff9091169290919061097c906150d4565b80601f01602080910402602001604051908101604052809291908181526020018280546109a8906150d4565b80156109f55780601f106109ca576101008083540402835291602001916109f5565b820191906000526020600020905b8154815290600101906020018083116109d857829003601f168201915b505050505090806004018054610a0a906150d4565b80601f0160208091040260200160405190810160405280929190818152602001828054610a36906150d4565b8015610a835780601f10610a5857610100808354040283529160200191610a83565b820191906000526020600020905b815481529060010190602001808311610a6657829003601f168201915b5050506005909301549192505060ff1686565b600960205281600052604060002081815481106108b557600080fd5b610b016040805161012081018252600080825260208201819052918101829052906060820190815260200160008152602001606081526020016060815260200160608152602001606081525090565b60078281548110610b1457610b14615063565b600091825260209091206040805161012081019091526008909202018054829060ff166001811115610b4857610b48614567565b6001811115610b5957610b59614567565b81526001820154602082015260028201546040820152600382015460609091019060ff166007811115610b8e57610b8e614567565b6007811115610b9f57610b9f614567565b81526020016003820160019054906101000a900460ff166004811115610bc757610bc7614567565b6004811115610bd857610bd8614567565b8152602001600482018054610bec906150d4565b80601f0160208091040260200160405190810160405280929190818152602001828054610c18906150d4565b8015610c655780601f10610c3a57610100808354040283529160200191610c65565b820191906000526020600020905b815481529060010190602001808311610c4857829003601f168201915b5050505050815260200160058201805480602002602001604051908101604052809291908181526020018280548015610cbd57602002820191906000526020600020905b815481526020019060010190808311610ca9575b5050505050815260200160068201805480602002602001604051908101604052809291908181526020018280548015610d1557602002820191906000526020600020905b815481526020019060010190808311610d01575b5050505050815260200160078201805480602002602001604051908101604052809291908181526020018280548015610d6d57602002820191906000526020600020905b815481526020019060010190808311610d59575b5050505050815250509050919050565b60078181548110610d8d57600080fd5b60009182526020909120600890910201805460018201546002830154600384015460048501805460ff95861697509395929482811694610100909304169291610dd5906150d4565b80601f0160208091040260200160405190810160405280929190818152602001828054610e01906150d4565b8015610e4e5780601f10610e2357610100808354040283529160200191610e4e565b820191906000526020600020905b815481529060010190602001808311610e3157829003601f168201915b5050505050905086565b610e60612459565b6040517f08c379a000000000000000000000000000000000000000000000000000000000815260206004820152600f60248201527f6e6f7420696d706c656d656e746564000000000000000000000000000000000060448201526064016104f5565b60066040518060c00160405280600081526020018667ffffffffffffffff168152602001856001811115610ef857610ef8614567565b8152602081018590526040810184905260600160029052815460018181018455600093845260209384902083516006909302019182559282015181840155604082015160028201805493949293919290917fffffffffffffffffffffffffffffffffffffffffffffffffffffffffffffff0016908381811115610f7d57610f7d614567565b021790555060608201516003820190610f969082615168565b5060808201516004820190610fab9082615168565b5060a08201516005820180547fffffffffffffffffffffffffffffffffffffffffffffffffffffffffffffff00166001836002811115610fed57610fed614567565b0217905550505050505050565b611002612459565b73ffffffffffffffffffffffffffffffffffffffff811661107f576040517f08c379a000000000000000000000000000000000000000000000000000000000815260206004820152601b60248201527f496e76616c6964204d5553444320746f6b656e2061646472657373000000000060448201526064016104f5565b600480547fffffffffffffffffffffffff00000000000000000000000000000000000000001673ffffffffffffffffffffffffffffffffffffffff92909216919091179055565b6110ce612459565b6110d86000612515565b565b8051825114611145576040517f08c379a000000000000000000000000000000000000000000000000000000000815260206004820152601860248201527f4172726179206c656e67746873206d757374206d61746368000000000000000060448201526064016104f5565b600083116111d5576040517f08c379a000000000000000000000000000000000000000000000000000000000815260206004820152602860248201527f436f6c6c61746572616c20616d6f756e74206d7573742062652067726561746560448201527f72207468616e203000000000000000000000000000000000000000000000000060648201526084016104f5565b60005b82518110156112795760008382815181106111f5576111f5615063565b602002602001015160001c90506006805490508110611270576040517f08c379a000000000000000000000000000000000000000000000000000000000815260206004820152601660248201527f496e76616c6964206d61726b6574706c6163652049440000000000000000000060448201526064016104f5565b506001016111d8565b5060045461129f9073ffffffffffffffffffffffffffffffffffffffff1633308661258c565b60078054604080516101208101909152909190808760018111156112c5576112c5614567565b815260200186815260200160008152602001600060078111156112ea576112ea614567565b815260200160008152602001604051806020016040528060008152508152602001858152602001848152602001600067ffffffffffffffff811115611331576113316148be565b60405190808252806020026020018201604052801561135a578160200160208202803683370190505b50905281546001818101845560009384526020909320825160089092020180549293909283917fffffffffffffffffffffffffffffffffffffffffffffffffffffffffffffff009091169083818111156113b6576113b6614567565b0217905550602082015181600101556040820151816002015560608201518160030160006101000a81548160ff021916908360078111156113f9576113f9614567565b021790555060808201516003820180547fffffffffffffffffffffffffffffffffffffffffffffffffffffffffffff00ff1661010083600481111561144057611440614567565b021790555060a082015160048201906114599082615168565b5060c08201518051611475916005840191602090910190614341565b5060e08201518051611491916006840191602090910190614341565b5061010082015180516114ae916007840191602090910190614341565b505050600081815260086020908152604080832080547fffffffffffffffffffffffff00000000000000000000000000000000000000001633908117909155835260098252822080546001810182559083529082200182905560058054869290611519908490615092565b92505081905550807f9fb6826dd39ef8ac6b7906fe4c38f1fab9247f82abea744a0bbcd71dd24f6ebb85858560405161155493929190615281565b60405180910390a25050505050565b61156b612459565b6007828154811061157e5761157e615063565b600091825260208083208451600760089485029092018201805460018181018355918752848720019190915585518552600c8352604094859020865181559286015183820155938501516002830155606085015160038301556080850151600483015560a0850151600583015560c0850151600683015560e085015182820155610100850151928201929092556101208401516009820155610140840151600a820155610160840151600b8201805486959394929391927fffffffffffffffffffffffffffffffffffffffffffffffffffffffffffffff009091169190849081111561166c5761166c614567565b0217905550610180820151600c8201906116869082615168565b5050505050565b60606116d76040518060a0016040528060608152602001600073ffffffffffffffffffffffffffffffffffffffff1681526020016000815260200160608152602001606081525090565b60006116e2856125f0565b86866040516020016116f6939291906152b6565b604080517fffffffffffffffffffffffffffffffffffffffffffffffffffffffffffffffe0818403018152828252805160208083019190912060008086528583018086529190915260ff89850135169385019390935287356060850152870135608084015292509060019060a0016020604051602081039080840390855afa158015611786573d6000803e3d6000fd5b50506040517fffffffffffffffffffffffffffffffffffffffffffffffffffffffffffffffe0015173ffffffffffffffffffffffffffffffffffffffff811660208601529150600090506117da88886126af565b9050468160a0015114611819576040517f362c833700000000000000000000000000000000000000000000000000000000815260040160405180910390fd5b6001604051611828919061530a565b604051809103902081600001518051906020012014611873576040517f283d62bd00000000000000000000000000000000000000000000000000000000815260040160405180910390fd5b80518452602081015173ffffffffffffffffffffffffffffffffffffffff8381169116146118cd576040517f05cc02e100000000000000000000000000000000000000000000000000000000815260040160405180910390fd5b61012081015151158015906118ef57506118eb816101200151612d61565b4211155b15611926576040517f299d02f100000000000000000000000000000000000000000000000000000000815260040160405180910390fd5b610100810151511561194d576000611942826101000151612d61565b604086015250611960565b61195a6201518042615092565b60408501525b8360400151421061199d576040517fb171155000000000000000000000000000000000000000000000000000000000815260040160405180910390fd5b604081015160608501526101608101515167ffffffffffffffff8111156119c6576119c66148be565b6040519080825280602002602001820160405280156119f957816020015b60608152602001906001900390816119e45790505b50608085015260005b81610160015151811015611a58578161016001518181518110611a2757611a27615063565b602002602001015185608001518281518110611a4557611a45615063565b6020908102919091010152600101611a02565b506000611ab26002546000801b87604051602001611a769190615399565b604080517fffffffffffffffffffffffffffffffffffffffffffffffffffffffffffffffe0818403018152602083019091526000825290612dd0565b9998505050505050505050565b600c60205280600052604060002060009150905080600001549080600101549080600201549080600301549080600401549080600501549080600601549080600701549080600801549080600901549080600a01549080600b0160009054906101000a900460ff169080600c018054611b37906150d4565b80601f0160208091040260200160405190810160405280929190818152602001828054611b63906150d4565b8015611bb05780601f10611b8557610100808354040283529160200191611bb0565b820191906000526020600020905b815481529060010190602001808311611b9357829003601f168201915b505050505090508d565b600080611bc683612f07565b73ffffffffffffffffffffffffffffffffffffffff166000908152600b60205260409020549392505050565b600033611c5b576040517f08c379a000000000000000000000000000000000000000000000000000000000815260206004820152601760248201527f41757468656e7469636174696f6e20726571756972656400000000000000000060448201526064016104f5565b50336000908152600b602052604090205490565b606033611cd8576040517f08c379a000000000000000000000000000000000000000000000000000000000815260206004820152601760248201527f41757468656e7469636174696f6e20726571756972656400000000000000000060448201526064016104f5565b3360009081526009602090815260409182902080548351818402810184019094528084529091830182828015611d2d57602002820191906000526020600020905b815481526020019060010190808311611d19575b5050505050905090565b606060018054611d46906150d4565b80601f0160208091040260200160405190810160405280929190818152602001828054611d72906150d4565b8015611d2d5780601f10611d9457610100808354040283529160200191611d2d565b820191906000526020600020905b815481529060010190602001808311611da257509395945050505050565b60606000611dcd83612f07565b73ffffffffffffffffffffffffffffffffffffffff81166000908152600a60209081526040918290208054835181840281018401909452808452939450919290830182828015611e3c57602002820191906000526020600020905b815481526020019060010190808311611e28575b5050505050915050919050565b606033611eb2576040517f08c379a000000000000000000000000000000000000000000000000000000000815260206004820152601760248201527f41757468656e7469636174696f6e20726571756972656400000000000000000060448201526064016104f5565b336000908152600a602090815260409182902080548351818402810184019094528084529091830182828015611d2d5760200282019190600052602060002090815481526020019060010190808311611d19575050505050905090565b60606000611f1c83612f07565b73ffffffffffffffffffffffffffffffffffffffff81166000908152600960209081526040918290208054835181840281018401909452808452939450919290830182828015611e3c5760200282019190600052602060002090815481526020019060010190808311611e28575050505050915050919050565b611f9e61438c565b600c6000838152602001908152602001600020604051806101a001604052908160008201548152602001600182015481526020016002820154815260200160038201548152602001600482015481526020016005820154815260200160068201548152602001600782015481526020016008820154815260200160098201548152602001600a8201548152602001600b820160009054906101000a900460ff16600781111561204f5761204f614567565b600781111561206057612060614567565b8152602001600c82018054612074906150d4565b80601f01602080910402602001604051908101604052809291908181526020018280546120a0906150d4565b8015610d6d5780601f106120c257610100808354040283529160200191610d6d565b820191906000526020600020905b8154815290600101906020018083116120d057505050919092525091949350505050565b6120fc612459565b73ffffffffffffffffffffffffffffffffffffffff811661219f576040517f08c379a000000000000000000000000000000000000000000000000000000000815260206004820152602660248201527f4f776e61626c653a206e6577206f776e657220697320746865207a65726f206160448201527f646472657373000000000000000000000000000000000000000000000000000060648201526084016104f5565b6105bf81612515565b6121b0614408565b600682815481106121c3576121c3615063565b90600052602060002090600602016040518060c001604052908160008201548152602001600182015481526020016002820160009054906101000a900460ff16600181111561221457612214614567565b600181111561222557612225614567565b8152602001600382018054612239906150d4565b80601f0160208091040260200160405190810160405280929190818152602001828054612265906150d4565b80156122b25780601f10612287576101008083540402835291602001916122b2565b820191906000526020600020905b81548152906001019060200180831161229557829003601f168201915b505050505081526020016004820180546122cb906150d4565b80601f01602080910402602001604051908101604052809291908181526020018280546122f7906150d4565b80156123445780601f1061231957610100808354040283529160200191612344565b820191906000526020600020905b81548152906001019060200180831161232757829003601f168201915b5050509183525050600582015460209091019060ff16600281111561236b5761236b614567565b600281111561237c5761237c614567565b90525092915050565b60405173ffffffffffffffffffffffffffffffffffffffff83166024820152604481018290526108949084907fa9059cbb00000000000000000000000000000000000000000000000000000000906064015b604080517fffffffffffffffffffffffffffffffffffffffffffffffffffffffffffffffe08184030181529190526020810180517bffffffffffffffffffffffffffffffffffffffffffffffffffffffff167fffffffff0000000000000000000000000000000000000000000000000000000090931692909217909152612f87565b60035473ffffffffffffffffffffffffffffffffffffffff1633146110d8576040517f08c379a000000000000000000000000000000000000000000000000000000000815260206004820181905260248201527f4f776e61626c653a2063616c6c6572206973206e6f7420746865206f776e657260448201526064016104f5565b6000808260078111156124ef576124ef614567565b1415801561250f5750600182600781111561250c5761250c614567565b14155b92915050565b6003805473ffffffffffffffffffffffffffffffffffffffff8381167fffffffffffffffffffffffff0000000000000000000000000000000000000000831681179093556040519116919082907f8be0079c531659141344cd1fd0a4f28419497f9722a3daafe3b4186f6b6457e090600090a35050565b60405173ffffffffffffffffffffffffffffffffffffffff808516602483015283166044820152606481018290526125ea9085907f23b872dd00000000000000000000000000000000000000000000000000000000906084016123d7565b50505050565b606060006125fd83613096565b600101905060008167ffffffffffffffff81111561261d5761261d6148be565b6040519080825280601f01601f191660200182016040528015612647576020820181803683370190505b5090508181016020015b7fffffffffffffffffffffffffffffffffffffffffffffffffffffffffffffffff017f3031323334353637383961626364656600000000000000000000000000000000600a86061a8153600a8504945084612651575b509392505050565b61272960405180610180016040528060608152602001600073ffffffffffffffffffffffffffffffffffffffff168152602001606081526020016060815260200160608152602001600081526020016060815260200160608152602001606081526020016060815260200160608152602001606081525090565b6127a360405180610180016040528060608152602001600073ffffffffffffffffffffffffffffffffffffffff168152602001606081526020016060815260200160608152602001600081526020016060815260200160608152602001606081526020016060815260200160608152602001606081525090565b60005b8381101561285e578484828181106127c0576127c0615063565b909101357fff00000000000000000000000000000000000000000000000000000000000000167f20000000000000000000000000000000000000000000000000000000000000000390506128565761284f85858080601f016020809104026020016040519081016040528093929190818152602001838380828437600092018290525092508591506131789050565b825261285e565b6001016127a6565b612869603282615092565b90506128d06128cb86868080601f0160208091040260200160405190810160405280939291908181526020018383808284376000920191909152506128b5925060029150869050615092565b9350836128c3602882615092565b945084613178565b61327f565b73ffffffffffffffffffffffffffffffffffffffff1660208301526128f6600282615092565b90508381108015612964575084848281811061291457612914615063565b9050013560f81c60f81b7effffffffffffffffffffffffffffffffffffffffffffffffffffffffffffff19167f0a0000000000000000000000000000000000000000000000000000000000000014155b15612a3757805b84811015612a355785858281811061298557612985615063565b909101357fff00000000000000000000000000000000000000000000000000000000000000167f0a00000000000000000000000000000000000000000000000000000000000000039050612a2d57612a1686868080601f0160208091040260200160405190810160405280939291908181526020018383808284376000920191909152508692508591506131789050565b6040840152612a26816001615092565b9150612a35565b60010161296b565b505b80612a41816154f4565b915050612a8585856040518060400160405280600381526020017f5552490000000000000000000000000000000000000000000000000000000000815250846133e4565b836060018193508290525050612ad285856040518060400160405280600781526020017f56657273696f6e00000000000000000000000000000000000000000000000000815250846133e4565b8360800181935082905250506060612b2186866040518060400160405280600881526020017f436861696e204944000000000000000000000000000000000000000000000000815250856133e4565b92509050612b2e81613680565b60a084015260408051808201909152600581527f4e6f6e63650000000000000000000000000000000000000000000000000000006020820152612b759087908790856133e4565b60c08501829052905190925060081115612bbb576040517fb4bc030c00000000000000000000000000000000000000000000000000000000815260040160405180910390fd5b612bfc86866040518060400160405280600981526020017f4973737565642041740000000000000000000000000000000000000000000000815250856133e4565b8460e0018194508290525050612c4986866040518060400160405280600f81526020017f45787069726174696f6e2054696d650000000000000000000000000000000000815250856133e4565b84610100018194508290525050612c9786866040518060400160405280600a81526020017f4e6f74204265666f726500000000000000000000000000000000000000000000815250856133e4565b84610120018194508290525050612ce586866040518060400160405280600a81526020017f5265717565737420494400000000000000000000000000000000000000000000815250856133e4565b846101400181945082905250506000612d3587876040518060400160405280600981526020017f5265736f75726365730000000000000000000000000000000000000000000000815250866133e4565b915050828114612d5657612d4a8787836136da565b61016086019190915292505b509195945050505050565b600061250f612d7b612d768460006004613178565b613680565b612d8b612d768560056007613178565b612d9b612d76866008600a613178565b612dab612d7687600b600d613178565b612dbb612d7688600e6010613178565b612dcb612d768960116013613178565b613acb565b606060008073010000000000000000000000000000000000000373ffffffffffffffffffffffffffffffffffffffff1687878787604051602001612e17949392919061552c565b604080517fffffffffffffffffffffffffffffffffffffffffffffffffffffffffffffffe081840301815290829052612e4f9161555d565b600060405180830381855afa9150503d8060008114612e8a576040519150601f19603f3d011682016040523d82523d6000602084013e612e8f565b606091505b509150915081612efb576040517f08c379a000000000000000000000000000000000000000000000000000000000815260206004820152600f60248201527f656e63727970743a206661696c6564000000000000000000000000000000000060448201526064016104f5565b9150505b949350505050565b80516020808301919091206000908152908190526040812054829060ff1615612f5c576040517f9ea6784800000000000000000000000000000000000000000000000000000000815260040160405180910390fd5b8251600003612f6e5760009150612f81565b6000612f7984613c71565b602001519250505b50919050565b6000612fe9826040518060400160405280602081526020017f5361666545524332303a206c6f772d6c6576656c2063616c6c206661696c65648152508573ffffffffffffffffffffffffffffffffffffffff16613d949092919063ffffffff16565b905080516000148061300a57508080602001905181019061300a9190615579565b610894576040517f08c379a000000000000000000000000000000000000000000000000000000000815260206004820152602a60248201527f5361666545524332303a204552433230206f7065726174696f6e20646964206e60448201527f6f7420737563636565640000000000000000000000000000000000000000000060648201526084016104f5565b6000807a184f03e93ff9f4daa797ed6e38ed64bf6a1f01000000000000000083106130df577a184f03e93ff9f4daa797ed6e38ed64bf6a1f010000000000000000830492506040015b6d04ee2d6d415b85acef8100000000831061310b576d04ee2d6d415b85acef8100000000830492506020015b662386f26fc10000831061312957662386f26fc10000830492506010015b6305f5e1008310613141576305f5e100830492506008015b612710831061315557612710830492506004015b60648310613167576064830492506002015b600a831061250f5760010192915050565b606060006131868484615050565b67ffffffffffffffff81111561319e5761319e6148be565b6040519080825280601f01601f1916602001820160405280156131c8576020820181803683370190505b509050835b83811080156131dc5750855181105b15613276578581815181106131f3576131f3615063565b01602001517fff0000000000000000000000000000000000000000000000000000000000000016826132258784615050565b8151811061323557613235615063565b60200101907effffffffffffffffffffffffffffffffffffffffffffffffffffffffffffff1916908160001a9053508061326e816154f4565b9150506131cd565b50949350505050565b600081516028146132bc576040517facf8696900000000000000000000000000000000000000000000000000000000815260040160405180910390fd5b6000600283516132cc9190615596565b67ffffffffffffffff8111156132e4576132e46148be565b6040519080825280601f01601f19166020018201604052801561330e576020820181803683370190505b50905060005b600284516133229190615596565b8110156133d057613360846133388360026155aa565b613343906001615092565b8151811061335357613353615063565b016020015160f81c613da3565b61336f856133438460026155aa565b61337a9060106155c1565b61338491906155dd565b60f81b82828151811061339957613399615063565b60200101907effffffffffffffffffffffffffffffffffffffffffffffffffffffffffffff1916908160001a905350600101613314565b506133da816155f6565b60601c9392505050565b60606000825b858110156135675786868281811061340457613404615063565b909101357fff00000000000000000000000000000000000000000000000000000000000000167f3a0000000000000000000000000000000000000000000000000000000000000003905061355557848051906020012061349d88888080601f0160208091040260200160405190810160405280939291908181526020018383808284376000920191909152508992508691506131789050565b80519060200120146134c2575050604080516020810190915260008152905081613677565b806134cc816154f4565b915050858110801561353a57508686828181106134eb576134eb615063565b9050013560f81c60f81b7effffffffffffffffffffffffffffffffffffffffffffffffffffffffffffff19167f2000000000000000000000000000000000000000000000000000000000000000145b1561354d5780613549816154f4565b9150505b809350613567565b8061355f816154f4565b9150506133ea565b8581101561362f5786868281811061358157613581615063565b909101357fff00000000000000000000000000000000000000000000000000000000000000167f0a000000000000000000000000000000000000000000000000000000000000000390506136275761361287878080601f0160208091040260200160405190810160405280939291908181526020018383808284376000920191909152508892508591506131789050565b61361d826001615092565b9250925050613677565b600101613567565b61367287878080601f0160208091040260200160405190810160405280939291908181526020018383808284376000920191909152508892508591506131789050565b925090505b94509492505050565b600080805b83518110156136d35760308482815181106136a2576136a2615063565b01602001516136b4919060f81c615050565b6136bf83600a6155aa565b6136c99190615092565b9150600101613685565b5092915050565b6060600082815b6136ec600187615050565b8210156138675786868381811061370557613705615063565b9050013560f81c60f81b7effffffffffffffffffffffffffffffffffffffffffffffffffffffffffffff19167f2d000000000000000000000000000000000000000000000000000000000000001480156137c557508686613767846001615092565b81811061377657613776615063565b9050013560f81c60f81b7effffffffffffffffffffffffffffffffffffffffffffffffffffffffffffff19167f2000000000000000000000000000000000000000000000000000000000000000145b156137e9576137d5600283615092565b9150806137e1816154f4565b9150506137ee565b613867565b858210801561383e575086868381811061380a5761380a615063565b9050013560f81c60f81b7effffffffffffffffffffffffffffffffffffffffffffffffffffffffffffff1916600a60f81b14155b15613855578161384d816154f4565b9250506137ee565b8161385f816154f4565b9250506136e1565b60008167ffffffffffffffff811115613882576138826148be565b6040519080825280602002602001820160405280156138b557816020015b60608152602001906001900390816138a05790505b50905085925060005b6138c9600189615050565b841080156138d75750828114155b15613abd578888858181106138ee576138ee615063565b9050013560f81c60f81b7effffffffffffffffffffffffffffffffffffffffffffffffffffffffffffff19167f2d000000000000000000000000000000000000000000000000000000000000001480156139ae57508888613950866001615092565b81811061395f5761395f615063565b9050013560f81c60f81b7effffffffffffffffffffffffffffffffffffffffffffffffffffffffffffff19167f2000000000000000000000000000000000000000000000000000000000000000145b156139c1576139be846002615092565b96505b8784108015613a1157508888858181106139dd576139dd615063565b9050013560f81c60f81b7effffffffffffffffffffffffffffffffffffffffffffffffffffffffffffff1916600a60f81b14155b15613a285783613a20816154f4565b9450506139c1565b613a6b89898080601f0160208091040260200160405190810160405280939291908181526020018383808284376000920191909152508b92508891506131789050565b828281518110613a7d57613a7d615063565b60200260200101819052508080613a93906154f4565b915050878403613aab5783613aa781615662565b9450505b83613ab5816154f4565b9450506138be565b509791965090945050505050565b60006107b25b8761ffff168161ffff161015613b1d57613aea81613fbf565b15613b0457613afd6301e2850083615092565b9150613b15565b613b126301e1338083615092565b91505b600101613ad1565b613b2561444e565b601f8152613b3289613fbf565b15613b4357601d6020820152613b4b565b601c60208201525b601f60408201819052601e606083018190526080830182905260a0830181905260c0830182905260e0830182905261010083018190526101208301829052610140830152610160820152600191505b8760ff168261ffff161015613bf85780613bb5600184615697565b61ffff16600c8110613bc957613bc9615063565b6020020151613bdb90620151806156b1565b613beb9063ffffffff1684615092565b9250600190910190613b9a565b613c036001886156d0565b613c139060ff16620151806156b1565b613c239063ffffffff1684615092565b9250613c3460ff8716610e106156b1565b613c449063ffffffff1684615092565b9250613c5460ff8616603c6156e9565b613c629061ffff1684615092565b9250611ab260ff851684615092565b613cb96040518060a0016040528060608152602001600073ffffffffffffffffffffffffffffffffffffffff1681526020016000815260200160608152602001606081525090565b6000613cdb6002546000801b856040518060200160405280600081525061401e565b9050600081806020019051810190613cf391906157d9565b90506001604051613d04919061530a565b604051809103902081600001518051906020012014613d4f576040517f283d62bd00000000000000000000000000000000000000000000000000000000815260040160405180910390fd5b4281604001511015613d8d576040517fb171155000000000000000000000000000000000000000000000000000000000815260040160405180910390fd5b9392505050565b6060612eff8484600085614149565b60007f300000000000000000000000000000000000000000000000000000000000000060f883901b7fff000000000000000000000000000000000000000000000000000000000000001610801590613e4157507f390000000000000000000000000000000000000000000000000000000000000060f883901b7fff000000000000000000000000000000000000000000000000000000000000001611155b15613e515761250f6030836156d0565b7f610000000000000000000000000000000000000000000000000000000000000060f883901b7fff000000000000000000000000000000000000000000000000000000000000001610801590613eed57507f660000000000000000000000000000000000000000000000000000000000000060f883901b7fff000000000000000000000000000000000000000000000000000000000000001611155b15613f09576061613eff83600a6155dd565b61250f91906156d0565b7f410000000000000000000000000000000000000000000000000000000000000060f883901b7fff000000000000000000000000000000000000000000000000000000000000001610801590613fa557507f460000000000000000000000000000000000000000000000000000000000000060f883901b7fff000000000000000000000000000000000000000000000000000000000000001611155b15613fb7576041613eff83600a6155dd565b506000919050565b6000613fcc6004836158bd565b61ffff1615613fdd57506000919050565b613fe86064836158bd565b61ffff1615613ff957506001919050565b614005610190836158bd565b61ffff161561401657506000919050565b506001919050565b606060008073010000000000000000000000000000000000000473ffffffffffffffffffffffffffffffffffffffff1687878787604051602001614065949392919061552c565b604080517fffffffffffffffffffffffffffffffffffffffffffffffffffffffffffffffe08184030181529082905261409d9161555d565b600060405180830381855afa9150503d80600081146140d8576040519150601f19603f3d011682016040523d82523d6000602084013e6140dd565b606091505b509150915081612efb576040517f08c379a000000000000000000000000000000000000000000000000000000000815260206004820152600f60248201527f646563727970743a206661696c6564000000000000000000000000000000000060448201526064016104f5565b6060824710156141db576040517f08c379a000000000000000000000000000000000000000000000000000000000815260206004820152602660248201527f416464726573733a20696e73756666696369656e742062616c616e636520666f60448201527f722063616c6c000000000000000000000000000000000000000000000000000060648201526084016104f5565b6000808673ffffffffffffffffffffffffffffffffffffffff168587604051614204919061555d565b60006040518083038185875af1925050503d8060008114614241576040519150601f19603f3d011682016040523d82523d6000602084013e614246565b606091505b509150915061425787838387614262565b979650505050505050565b606083156142f85782516000036142f15773ffffffffffffffffffffffffffffffffffffffff85163b6142f1576040517f08c379a000000000000000000000000000000000000000000000000000000000815260206004820152601d60248201527f416464726573733a2063616c6c20746f206e6f6e2d636f6e747261637400000060448201526064016104f5565b5081612eff565b612eff838381511561430d5781518083602001fd5b806040517f08c379a00000000000000000000000000000000000000000000000000000000081526004016104f59190614d9d565b82805482825590600052602060002090810192821561437c579160200282015b8281111561437c578251825591602001919060010190614361565b5061438892915061446d565b5090565b604051806101a001604052806000801916815260200160008152602001600081526020016000815260200160008152602001600081526020016000815260200160008152602001600081526020016000815260200160008152602001600060078111156143fb576143fb614567565b8152602001606081525090565b6040518060c0016040528060008152602001600081526020016000600181111561443457614434614567565b815260606020820181905260408201819052016000905290565b604051806101800160405280600c906020820280368337509192915050565b5b80821115614388576000815560010161446e565b60006020828403121561449457600080fd5b5035919050565b8035600881106144aa57600080fd5b919050565b6000806000606084860312156144c457600080fd5b833592506144d46020850161449b565b929592945050506040919091013590565b73ffffffffffffffffffffffffffffffffffffffff811681146105bf57600080fd5b6000806040838503121561451a57600080fd5b8235614525816144e5565b946020939093013593505050565b6000806040838503121561454657600080fd5b8235915060208301356005811061455c57600080fd5b809150509250929050565b7f4e487b7100000000000000000000000000000000000000000000000000000000600052602160045260246000fd5b600281106105bf576105bf614567565b60005b838110156145c15781810151838201526020016145a9565b50506000910152565b600081518084526145e28160208601602086016145a6565b601f017fffffffffffffffffffffffffffffffffffffffffffffffffffffffffffffffe0169290920160200192915050565b6003811061462457614624614567565b9052565b86815285602082015261463a85614596565b84604082015260c06060820152600061465660c08301866145ca565b828103608084015261466881866145ca565b91505061425760a0830184614614565b61462481614596565b6008811061462457614624614567565b6005811061462457614624614567565b600081518084526020840193506020830160005b828110156146d35781518652602095860195909101906001016146b5565b5093949350505050565b602081526146ef602082018351614678565b6020820151604082015260408201516060820152600060608301516147176080840182614681565b50608083015161472a60a0840182614691565b5060a083015161012060c08401526147466101408401826145ca565b905060c08401517fffffffffffffffffffffffffffffffffffffffffffffffffffffffffffffffe08483030160e085015261478182826146a1565b91505060e08401517fffffffffffffffffffffffffffffffffffffffffffffffffffffffffffffffe0848303016101008501526147be82826146a1565b9150506101008401517fffffffffffffffffffffffffffffffffffffffffffffffffffffffffffffffe0848303016101208501526147fc82826146a1565b95945050505050565b61480e87614596565b86815285602082015284604082015261482a6060820185614681565b6148376080820184614691565b60c060a0820152600061484d60c08301846145ca565b98975050505050505050565b600281106105bf57600080fd5b80151581146105bf57600080fd5b6000806000806080858703121561488a57600080fd5b843561489581614859565b9350602085013592506040850135915060608501356148b381614866565b939692955090935050565b7f4e487b7100000000000000000000000000000000000000000000000000000000600052604160045260246000fd5b6040516101a0810167ffffffffffffffff81118282101715614911576149116148be565b60405290565b60405160a0810167ffffffffffffffff81118282101715614911576149116148be565b604051601f82017fffffffffffffffffffffffffffffffffffffffffffffffffffffffffffffffe016810167ffffffffffffffff81118282101715614981576149816148be565b604052919050565b600067ffffffffffffffff8211156149a3576149a36148be565b50601f017fffffffffffffffffffffffffffffffffffffffffffffffffffffffffffffffe01660200190565b60006149e26149dd84614989565b61493a565b90508281528383830111156149f657600080fd5b828260208301376000602084830101529392505050565b600082601f830112614a1e57600080fd5b613d8d838335602085016149cf565b60008060008060808587031215614a4357600080fd5b843567ffffffffffffffff81168114614a5b57600080fd5b93506020850135614a6b81614859565b9250604085013567ffffffffffffffff811115614a8757600080fd5b614a9387828801614a0d565b925050606085013567ffffffffffffffff811115614ab057600080fd5b614abc87828801614a0d565b91505092959194509250565b600060208284031215614ada57600080fd5b8135613d8d816144e5565b600067ffffffffffffffff821115614aff57614aff6148be565b5060051b60200190565b600082601f830112614b1a57600080fd5b8135614b286149dd82614ae5565b8082825260208201915060208360051b860101925085831115614b4a57600080fd5b602085015b83811015614b67578035835260209283019201614b4f565b5095945050505050565b60008060008060808587031215614b8757600080fd5b8435614b9281614859565b935060208501359250604085013567ffffffffffffffff811115614bb557600080fd5b614bc187828801614b09565b925050606085013567ffffffffffffffff811115614bde57600080fd5b614abc87828801614b09565b60008060408385031215614bfd57600080fd5b82359150602083013567ffffffffffffffff811115614c1b57600080fd5b83016101a08186031215614c2e57600080fd5b614c366148ed565b813581526020808301359082015260408083013590820152606080830135908201526080808301359082015260a0808301359082015260c0808301359082015260e08083013590820152610100808301359082015261012080830135908201526101408083013590820152614cae610160830161449b565b61016082015261018082013567ffffffffffffffff811115614ccf57600080fd5b614cdb87828501614a0d565b6101808301525080925050509250929050565b60008060008385036080811215614d0457600080fd5b843567ffffffffffffffff811115614d1b57600080fd5b8501601f81018713614d2c57600080fd5b803567ffffffffffffffff811115614d4357600080fd5b876020828401011115614d5557600080fd5b6020919091019450925060607fffffffffffffffffffffffffffffffffffffffffffffffffffffffffffffffe082011215614d8f57600080fd5b506020840190509250925092565b602081526000613d8d60208301846145ca565b600080600060608486031215614dc557600080fd5b505081359360208301359350604090920135919050565b8d81528c60208201528b60408201528a60608201528960808201528860a08201528760c08201528660e0820152856101008201528461012082015283610140820152614e2c610160820184614681565b6101a06101808201526000614e456101a08301846145ca565b9f9e505050505050505050505050505050565b600060208284031215614e6a57600080fd5b813567ffffffffffffffff811115614e8157600080fd5b8201601f81018413614e9257600080fd5b612eff848235602084016149cf565b602080825282518282018190526000918401906040840190835b81811015614ed9578351835260209384019390920191600101614ebb565b509095945050505050565b6020815281516020820152602082015160408201526040820151606082015260608201516080820152608082015160a082015260a082015160c082015260c082015160e082015260e08201516101008201526101008201516101208201526101208201516101408201526101408201516101608201526000610160830151614f70610180840182614681565b506101808301516101a080840152612eff6101c08401826145ca565b60208152815160208201526020820151604082015260006040830151614fb181614596565b80606084015250606083015160c06080840152614fd160e08401826145ca565b905060808401517fffffffffffffffffffffffffffffffffffffffffffffffffffffffffffffffe08483030160a085015261500c82826145ca565b91505060a08401516126a760c0850182614614565b7f4e487b7100000000000000000000000000000000000000000000000000000000600052601160045260246000fd5b8181038181111561250f5761250f615021565b7f4e487b7100000000000000000000000000000000000000000000000000000000600052603260045260246000fd5b8082018082111561250f5761250f615021565b7f4e487b7100000000000000000000000000000000000000000000000000000000600052603160045260246000fd5b600181811c908216806150e857607f821691505b602082108103612f81577f4e487b7100000000000000000000000000000000000000000000000000000000600052602260045260246000fd5b601f82111561089457806000526020600020601f840160051c810160208510156151485750805b601f840160051c820191505b818110156116865760008155600101615154565b815167ffffffffffffffff811115615182576151826148be565b6151968161519084546150d4565b84615121565b6020601f8211600181146151e857600083156151b25750848201515b7fffffffffffffffffffffffffffffffffffffffffffffffffffffffffffffffff600385901b1c1916600184901b178455611686565b6000848152602081207fffffffffffffffffffffffffffffffffffffffffffffffffffffffffffffffe08516915b828110156152365787850151825560209485019460019092019101615216565b508482101561527257868401517fffffffffffffffffffffffffffffffffffffffffffffffffffffffffffffffff600387901b60f8161c191681555b50505050600190811b01905550565b83815260606020820152600061529a60608301856146a1565b82810360408401526152ac81856146a1565b9695505050505050565b7f19457468657265756d205369676e6564204d6573736167653a0a0000000000008152600084516152ee81601a8501602089016145a6565b82018385601a83013760009301601a0192835250909392505050565b6000808354615318816150d4565b60018216801561532f576001811461536257612d56565b7fffffffffffffffffffffffffffffffffffffffffffffffffffffffffffffff0083168652811515820286019350612d56565b86600052602060002060005b8381101561538a5781548882015260019091019060200161536e565b50505093909301949350505050565b602081526000825160a060208401526153b560c08401826145ca565b905073ffffffffffffffffffffffffffffffffffffffff60208501511660408401526040840151606084015260608401517fffffffffffffffffffffffffffffffffffffffffffffffffffffffffffffffe084830301608085015261541a82826145ca565b91505060808401517fffffffffffffffffffffffffffffffffffffffffffffffffffffffffffffffe08483030160a085015281815180845260208401915060208160051b85010160208401935060005b828110156154b9577fffffffffffffffffffffffffffffffffffffffffffffffffffffffffffffffe08683030184526154a48286516145ca565b6020958601959490940193915060010161546a565b50979650505050505050565b7f4e487b7100000000000000000000000000000000000000000000000000000000600052601260045260246000fd5b60007fffffffffffffffffffffffffffffffffffffffffffffffffffffffffffffffff820361552557615525615021565b5060010190565b84815283602082015260806040820152600061554b60808301856145ca565b828103606084015261425781856145ca565b6000825161556f8184602087016145a6565b9190910192915050565b60006020828403121561558b57600080fd5b8151613d8d81614866565b6000826155a5576155a56154c5565b500490565b808202811582820484141761250f5761250f615021565b60ff81811683821602908116908181146136d3576136d3615021565b60ff818116838216019081111561250f5761250f615021565b805160208201517fffffffffffffffffffffffffffffffffffffffff00000000000000000000000081169190601482101561565b577fffffffffffffffffffffffffffffffffffffffff000000000000000000000000808360140360031b1b82161692505b5050919050565b60008161567157615671615021565b507fffffffffffffffffffffffffffffffffffffffffffffffffffffffffffffffff0190565b61ffff828116828216039081111561250f5761250f615021565b63ffffffff81811683821602908116908181146136d3576136d3615021565b60ff828116828216039081111561250f5761250f615021565b61ffff81811683821602908116908181146136d3576136d3615021565b600082601f83011261571757600080fd5b81516157256149dd82614989565b81815284602083860101111561573a57600080fd5b612eff8260208301602087016145a6565b80516144aa816144e5565b600082601f83011261576757600080fd5b81516157756149dd82614ae5565b8082825260208201915060208360051b86010192508583111561579757600080fd5b602085015b83811015614b6757805167ffffffffffffffff8111156157bb57600080fd5b6157ca886020838a0101615706565b8452506020928301920161579c565b6000602082840312156157eb57600080fd5b815167ffffffffffffffff81111561580257600080fd5b820160a0818503121561581457600080fd5b61581c614917565b815167ffffffffffffffff81111561583357600080fd5b61583f86828501615706565b82525061584e6020830161574b565b602082015260408281015190820152606082015167ffffffffffffffff81111561587757600080fd5b61588386828501615706565b606083015250608082015167ffffffffffffffff8111156158a357600080fd5b6158af86828501615756565b608083015250949350505050565b600061ffff8316806158d1576158d16154c5565b8061ffff8416069150509291505056fea26469706673582212205c0e2f24ebd6fa20a5ddbfbd950547810a8c190ae41c7ba343f13970ee13aae264736f6c634300081c0033",
  "linkReferences": {},
  "deployedLinkReferences": {}
}