{
  "_format": "hh-sol-artifact-1",
  "contractName": "PolyBet",
  "sourceName": "contracts/polybet.sol",
  "abi": [
    {
      "inputs": [],
      "stateMutability": "nonpayable",
      "type": "constructor"
    },
    {
      "inputs": [],
      "name": "A13e_RevokedAuthToken",
      "type": "error"
    },
    {
      "inputs": [],
      "name": "SiweAuth_AddressMismatch",
      "type": "error"
    },
    {
      "inputs": [],
      "name": "SiweAuth_ChainIdMismatch",
      "type": "error"
    },
    {
      "inputs": [],
      "name": "SiweAuth_DomainMismatch",
      "type": "error"
    },
    {
      "inputs": [],
      "name": "SiweAuth_Expired",
      "type": "error"
    },
    {
      "inputs": [],
      "name": "SiweAuth_NotBeforeInFuture",
      "type": "error"
    },
    {
      "inputs": [],
      "name": "SiweParser_InvalidAddressLength",
      "type": "error"
    },
    {
      "inputs": [],
      "name": "SiweParser_InvalidNonce",
      "type": "error"
    },
    {
      "anonymous": false,
      "inputs": [
        {
          "indexed": true,
          "internalType": "uint256",
          "name": "betId",
          "type": "uint256"
        },
        {
          "indexed": false,
          "internalType": "uint256",
          "name": "totalCollateralAmount",
          "type": "uint256"
        },
        {
          "indexed": false,
          "internalType": "uint256",
          "name": "outcomeIndex",
          "type": "uint256"
        },
        {
          "indexed": false,
          "internalType": "bytes32[]",
          "name": "marketplaceIds",
          "type": "bytes32[]"
        },
        {
          "indexed": false,
          "internalType": "bytes32[]",
          "name": "marketIds",
          "type": "bytes32[]"
        }
      ],
      "name": "BetSlipCreated",
      "type": "event"
    },
    {
      "anonymous": false,
      "inputs": [
        {
          "indexed": true,
          "internalType": "address",
          "name": "previousOwner",
          "type": "address"
        },
        {
          "indexed": true,
          "internalType": "address",
          "name": "newOwner",
          "type": "address"
        }
      ],
      "name": "OwnershipTransferred",
      "type": "event"
    },
    {
      "anonymous": false,
      "inputs": [
        {
          "indexed": true,
          "internalType": "bytes32",
          "name": "betId",
          "type": "bytes32"
        }
      ],
      "name": "ProxyBetSellingStateUpdate",
      "type": "event"
    },
    {
      "inputs": [
        {
          "internalType": "uint64",
          "name": "chainId",
          "type": "uint64"
        },
        {
          "internalType": "enum PolyBet.ChainFamily",
          "name": "family",
          "type": "uint8"
        },
        {
          "internalType": "string",
          "name": "name",
          "type": "string"
        },
        {
          "internalType": "string",
          "name": "marketplaceProxy",
          "type": "string"
        }
      ],
      "name": "addMarketplace",
      "outputs": [],
      "stateMutability": "nonpayable",
      "type": "function"
    },
    {
      "inputs": [
        {
          "internalType": "uint256",
          "name": "",
          "type": "uint256"
        }
      ],
      "name": "betSlips",
      "outputs": [
        {
          "internalType": "enum PolyBet.BetSlipStrategy",
          "name": "strategy",
          "type": "uint8"
        },
        {
          "internalType": "uint256",
          "name": "initialCollateral",
          "type": "uint256"
        },
        {
          "internalType": "uint256",
          "name": "finalCollateral",
          "type": "uint256"
        },
        {
          "internalType": "uint256",
          "name": "outcomeIndex",
          "type": "uint256"
        },
        {
          "internalType": "enum PolyBet.BetSlipStatus",
          "name": "status",
          "type": "uint8"
        },
        {
          "internalType": "string",
          "name": "failureReason",
          "type": "string"
        }
      ],
      "stateMutability": "view",
      "type": "function"
    },
    {
      "inputs": [],
      "name": "domain",
      "outputs": [
        {
          "internalType": "string",
          "name": "",
          "type": "string"
        }
      ],
      "stateMutability": "view",
      "type": "function"
    },
    {
      "inputs": [
        {
          "internalType": "uint256",
          "name": "betSlipId",
          "type": "uint256"
        }
      ],
      "name": "getBetSlip",
      "outputs": [
        {
          "components": [
            {
              "internalType": "enum PolyBet.BetSlipStrategy",
              "name": "strategy",
              "type": "uint8"
            },
            {
              "internalType": "uint256",
              "name": "initialCollateral",
              "type": "uint256"
            },
            {
              "internalType": "uint256",
              "name": "finalCollateral",
              "type": "uint256"
            },
            {
              "internalType": "uint256",
              "name": "outcomeIndex",
              "type": "uint256"
            },
            {
              "internalType": "enum PolyBet.BetSlipStatus",
              "name": "status",
              "type": "uint8"
            },
            {
              "internalType": "string",
              "name": "failureReason",
              "type": "string"
            },
            {
              "internalType": "bytes32[]",
              "name": "marketplaceIds",
              "type": "bytes32[]"
            },
            {
              "internalType": "bytes32[]",
              "name": "marketIds",
              "type": "bytes32[]"
            },
            {
              "internalType": "bytes32[]",
              "name": "proxiedBets",
              "type": "bytes32[]"
            }
          ],
          "internalType": "struct PolyBet.BetSlip",
          "name": "",
          "type": "tuple"
        }
      ],
      "stateMutability": "view",
      "type": "function"
    },
    {
      "inputs": [
        {
          "internalType": "uint256",
          "name": "marketplaceId",
          "type": "uint256"
        }
      ],
      "name": "getMarketplace",
      "outputs": [
        {
          "components": [
            {
              "internalType": "uint256",
              "name": "warpRouterId",
              "type": "uint256"
            },
            {
              "internalType": "uint256",
              "name": "chainId",
              "type": "uint256"
            },
            {
              "internalType": "enum PolyBet.ChainFamily",
              "name": "chainFamily",
              "type": "uint8"
            },
            {
              "internalType": "string",
              "name": "name",
              "type": "string"
            },
            {
              "internalType": "string",
              "name": "marketplaceProxy",
              "type": "string"
            },
            {
              "internalType": "enum PolyBet.PricingStrategy",
              "name": "pricingStrategy",
              "type": "uint8"
            }
          ],
          "internalType": "struct PolyBet.Marketplace",
          "name": "",
          "type": "tuple"
        }
      ],
      "stateMutability": "view",
      "type": "function"
    },
    {
      "inputs": [
        {
          "internalType": "bytes32",
          "name": "betId",
          "type": "bytes32"
        }
      ],
      "name": "getProxiedBet",
      "outputs": [
        {
          "components": [
            {
              "internalType": "bytes32",
              "name": "id",
              "type": "bytes32"
            },
            {
              "internalType": "uint256",
              "name": "betSlipId",
              "type": "uint256"
            },
            {
              "internalType": "uint256",
              "name": "marketplaceId",
              "type": "uint256"
            },
            {
              "internalType": "uint256",
              "name": "marketId",
              "type": "uint256"
            },
            {
              "internalType": "uint256",
              "name": "optionIndex",
              "type": "uint256"
            },
            {
              "internalType": "uint256",
              "name": "minimumShares",
              "type": "uint256"
            },
            {
              "internalType": "uint256",
              "name": "blockTimestamp",
              "type": "uint256"
            },
            {
              "internalType": "uint256",
              "name": "originalCollateralAmount",
              "type": "uint256"
            },
            {
              "internalType": "uint256",
              "name": "finalCollateralAmount",
              "type": "uint256"
            },
            {
              "internalType": "uint256",
              "name": "sharesBought",
              "type": "uint256"
            },
            {
              "internalType": "uint256",
              "name": "sharesSold",
              "type": "uint256"
            },
            {
              "internalType": "enum PolyBet.BetOutcome",
              "name": "outcome",
              "type": "uint8"
            },
            {
              "internalType": "string",
              "name": "failureReason",
              "type": "string"
            }
          ],
          "internalType": "struct PolyBet.ProxiedBet",
          "name": "",
          "type": "tuple"
        }
      ],
      "stateMutability": "view",
      "type": "function"
    },
    {
      "inputs": [],
      "name": "getUserActiveBetslips",
      "outputs": [
        {
          "internalType": "uint256[]",
          "name": "",
          "type": "uint256[]"
        }
      ],
      "stateMutability": "view",
      "type": "function"
    },
    {
      "inputs": [
        {
          "internalType": "bytes",
          "name": "authToken",
          "type": "bytes"
        }
      ],
      "name": "getUserActiveBetslips",
      "outputs": [
        {
          "internalType": "uint256[]",
          "name": "",
          "type": "uint256[]"
        }
      ],
      "stateMutability": "view",
      "type": "function"
    },
    {
      "inputs": [
        {
          "internalType": "bytes",
          "name": "authToken",
          "type": "bytes"
        }
      ],
      "name": "getUserBalance",
      "outputs": [
        {
          "internalType": "uint256",
          "name": "",
          "type": "uint256"
        }
      ],
      "stateMutability": "view",
      "type": "function"
    },
    {
      "inputs": [],
      "name": "getUserBalance",
      "outputs": [
        {
          "internalType": "uint256",
          "name": "",
          "type": "uint256"
        }
      ],
      "stateMutability": "view",
      "type": "function"
    },
    {
      "inputs": [
        {
          "internalType": "bytes",
          "name": "authToken",
          "type": "bytes"
        }
      ],
      "name": "getUserClosedBets",
      "outputs": [
        {
          "internalType": "uint256[]",
          "name": "",
          "type": "uint256[]"
        }
      ],
      "stateMutability": "view",
      "type": "function"
    },
    {
      "inputs": [],
      "name": "getUserClosedBets",
      "outputs": [
        {
          "internalType": "uint256[]",
          "name": "",
          "type": "uint256[]"
        }
      ],
      "stateMutability": "view",
      "type": "function"
    },
    {
      "inputs": [
        {
          "internalType": "bytes32",
          "name": "proxiedBetId",
          "type": "bytes32"
        }
      ],
      "name": "initiateSellProxiedBets",
      "outputs": [],
      "stateMutability": "nonpayable",
      "type": "function"
    },
    {
      "inputs": [
        {
          "internalType": "string",
          "name": "siweMsg",
          "type": "string"
        },
        {
          "components": [
            {
              "internalType": "bytes32",
              "name": "r",
              "type": "bytes32"
            },
            {
              "internalType": "bytes32",
              "name": "s",
              "type": "bytes32"
            },
            {
              "internalType": "uint256",
              "name": "v",
              "type": "uint256"
            }
          ],
          "internalType": "struct SignatureRSV",
          "name": "sig",
          "type": "tuple"
        }
      ],
      "name": "login",
      "outputs": [
        {
          "internalType": "bytes",
          "name": "",
          "type": "bytes"
        }
      ],
      "stateMutability": "view",
      "type": "function"
    },
    {
      "inputs": [
        {
          "internalType": "uint256",
          "name": "",
          "type": "uint256"
        }
      ],
      "name": "marketplaces",
      "outputs": [
        {
          "internalType": "uint256",
          "name": "warpRouterId",
          "type": "uint256"
        },
        {
          "internalType": "uint256",
          "name": "chainId",
          "type": "uint256"
        },
        {
          "internalType": "enum PolyBet.ChainFamily",
          "name": "chainFamily",
          "type": "uint8"
        },
        {
          "internalType": "string",
          "name": "name",
          "type": "string"
        },
        {
          "internalType": "string",
          "name": "marketplaceProxy",
          "type": "string"
        },
        {
          "internalType": "enum PolyBet.PricingStrategy",
          "name": "pricingStrategy",
          "type": "uint8"
        }
      ],
      "stateMutability": "view",
      "type": "function"
    },
    {
      "inputs": [],
      "name": "musdcToken",
      "outputs": [
        {
          "internalType": "contract IERC20",
          "name": "",
          "type": "address"
        }
      ],
      "stateMutability": "view",
      "type": "function"
    },
    {
      "inputs": [],
      "name": "owner",
      "outputs": [
        {
          "internalType": "address",
          "name": "",
          "type": "address"
        }
      ],
      "stateMutability": "view",
      "type": "function"
    },
    {
      "inputs": [
        {
          "internalType": "enum PolyBet.BetSlipStrategy",
          "name": "strategy",
          "type": "uint8"
        },
        {
          "internalType": "uint256",
          "name": "totalCollateralAmount",
          "type": "uint256"
        },
        {
          "internalType": "uint256",
          "name": "outcomeIndex",
          "type": "uint256"
        },
        {
          "internalType": "bytes32[]",
          "name": "marketplaceIds",
          "type": "bytes32[]"
        },
        {
          "internalType": "bytes32[]",
          "name": "marketIds",
          "type": "bytes32[]"
        }
      ],
      "name": "placeBet",
      "outputs": [],
      "stateMutability": "nonpayable",
      "type": "function"
    },
    {
      "inputs": [
        {
          "internalType": "bytes32",
          "name": "",
          "type": "bytes32"
        }
      ],
      "name": "proxiedBets",
      "outputs": [
        {
          "internalType": "bytes32",
          "name": "id",
          "type": "bytes32"
        },
        {
          "internalType": "uint256",
          "name": "betSlipId",
          "type": "uint256"
        },
        {
          "internalType": "uint256",
          "name": "marketplaceId",
          "type": "uint256"
        },
        {
          "internalType": "uint256",
          "name": "marketId",
          "type": "uint256"
        },
        {
          "internalType": "uint256",
          "name": "optionIndex",
          "type": "uint256"
        },
        {
          "internalType": "uint256",
          "name": "minimumShares",
          "type": "uint256"
        },
        {
          "internalType": "uint256",
          "name": "blockTimestamp",
          "type": "uint256"
        },
        {
          "internalType": "uint256",
          "name": "originalCollateralAmount",
          "type": "uint256"
        },
        {
          "internalType": "uint256",
          "name": "finalCollateralAmount",
          "type": "uint256"
        },
        {
          "internalType": "uint256",
          "name": "sharesBought",
          "type": "uint256"
        },
        {
          "internalType": "uint256",
          "name": "sharesSold",
          "type": "uint256"
        },
        {
          "internalType": "enum PolyBet.BetOutcome",
          "name": "outcome",
          "type": "uint8"
        },
        {
          "internalType": "string",
          "name": "failureReason",
          "type": "string"
        }
      ],
      "stateMutability": "view",
      "type": "function"
    },
    {
      "inputs": [
        {
          "internalType": "bytes32",
          "name": "proxiedBetId",
          "type": "bytes32"
        },
        {
          "internalType": "enum PolyBet.BetOutcome",
          "name": "outcome",
          "type": "uint8"
        },
        {
          "internalType": "uint256",
          "name": "winningsCollateralValue",
          "type": "uint256"
        }
      ],
      "name": "recordProxiedBetClosed",
      "outputs": [],
      "stateMutability": "nonpayable",
      "type": "function"
    },
    {
      "inputs": [
        {
          "internalType": "uint256",
          "name": "betSlipId",
          "type": "uint256"
        },
        {
          "components": [
            {
              "internalType": "bytes32",
              "name": "id",
              "type": "bytes32"
            },
            {
              "internalType": "uint256",
              "name": "betSlipId",
              "type": "uint256"
            },
            {
              "internalType": "uint256",
              "name": "marketplaceId",
              "type": "uint256"
            },
            {
              "internalType": "uint256",
              "name": "marketId",
              "type": "uint256"
            },
            {
              "internalType": "uint256",
              "name": "optionIndex",
              "type": "uint256"
            },
            {
              "internalType": "uint256",
              "name": "minimumShares",
              "type": "uint256"
            },
            {
              "internalType": "uint256",
              "name": "blockTimestamp",
              "type": "uint256"
            },
            {
              "internalType": "uint256",
              "name": "originalCollateralAmount",
              "type": "uint256"
            },
            {
              "internalType": "uint256",
              "name": "finalCollateralAmount",
              "type": "uint256"
            },
            {
              "internalType": "uint256",
              "name": "sharesBought",
              "type": "uint256"
            },
            {
              "internalType": "uint256",
              "name": "sharesSold",
              "type": "uint256"
            },
            {
              "internalType": "enum PolyBet.BetOutcome",
              "name": "outcome",
              "type": "uint8"
            },
            {
              "internalType": "string",
              "name": "failureReason",
              "type": "string"
            }
          ],
          "internalType": "struct PolyBet.ProxiedBet",
          "name": "proxiedBet",
          "type": "tuple"
        }
      ],
      "name": "recordProxiedBetPlaced",
      "outputs": [],
      "stateMutability": "nonpayable",
      "type": "function"
    },
    {
      "inputs": [
        {
          "internalType": "bytes32",
          "name": "proxiedBetId",
          "type": "bytes32"
        },
        {
          "internalType": "uint256",
          "name": "sharesSold",
          "type": "uint256"
        },
        {
          "internalType": "uint256",
          "name": "sharesSoldCollateralValue",
          "type": "uint256"
        }
      ],
      "name": "recordProxiedBetSold",
      "outputs": [],
      "stateMutability": "nonpayable",
      "type": "function"
    },
    {
      "inputs": [],
      "name": "renounceOwnership",
      "outputs": [],
      "stateMutability": "nonpayable",
      "type": "function"
    },
    {
      "inputs": [
        {
          "internalType": "address",
          "name": "_musdcToken",
          "type": "address"
        }
      ],
      "name": "setCollateralToken",
      "outputs": [],
      "stateMutability": "nonpayable",
      "type": "function"
    },
    {
      "inputs": [
        {
          "internalType": "address",
          "name": "newOwner",
          "type": "address"
        }
      ],
      "name": "transferOwnership",
      "outputs": [],
      "stateMutability": "nonpayable",
      "type": "function"
    },
    {
      "inputs": [
        {
          "internalType": "uint256",
          "name": "betSlipId",
          "type": "uint256"
        },
        {
          "internalType": "enum PolyBet.BetSlipStatus",
          "name": "status",
          "type": "uint8"
        }
      ],
      "name": "updateBetSlipStatus",
      "outputs": [],
      "stateMutability": "nonpayable",
      "type": "function"
    },
    {
      "inputs": [
        {
          "internalType": "address",
          "name": "",
          "type": "address"
        },
        {
          "internalType": "uint256",
          "name": "",
          "type": "uint256"
        }
      ],
      "name": "userActiveBetSlips",
      "outputs": [
        {
          "internalType": "uint256",
          "name": "",
          "type": "uint256"
        }
      ],
      "stateMutability": "view",
      "type": "function"
    },
    {
      "inputs": [
        {
          "internalType": "address",
          "name": "",
          "type": "address"
        },
        {
          "internalType": "uint256",
          "name": "",
          "type": "uint256"
        }
      ],
      "name": "userClosedBetSlips",
      "outputs": [
        {
          "internalType": "uint256",
          "name": "",
          "type": "uint256"
        }
      ],
      "stateMutability": "view",
      "type": "function"
    },
    {
      "inputs": [
        {
          "internalType": "uint256",
          "name": "amount",
          "type": "uint256"
        }
      ],
      "name": "withdrawWinnings",
      "outputs": [],
      "stateMutability": "nonpayable",
      "type": "function"
    }
  ],
  "bytecode": "0x608060405234801561001057600080fd5b5060405180604001604052806007815260200166141bdb1e50995d60ca1b81525061005160206040518060200160405280600081525061007a60201b60201c565b61005a906101ba565b6002556001610069828261027a565b50610075905033610168565b6103b2565b60606000807301000000000000000000000000000000000000016001600160a01b031685856040516020016100b092919061035c565b60408051601f19818403018152908290526100ca91610396565b600060405180830381855afa9150503d8060008114610105576040519150601f19603f3d011682016040523d82523d6000602084013e61010a565b606091505b5091509150816101605760405162461bcd60e51b815260206004820152601360248201527f72616e646f6d42797465733a206661696c656400000000000000000000000000604482015260640160405180910390fd5b949350505050565b600380546001600160a01b038381166001600160a01b0319831681179093556040519116919082907f8be0079c531659141344cd1fd0a4f28419497f9722a3daafe3b4186f6b6457e090600090a35050565b805160208083015191908110156101db576000198160200360031b1b821691505b50919050565b634e487b7160e01b600052604160045260246000fd5b600181811c9082168061020b57607f821691505b6020821081036101db57634e487b7160e01b600052602260045260246000fd5b601f82111561027557806000526020600020601f840160051c810160208510156102525750805b601f840160051c820191505b81811015610272576000815560010161025e565b50505b505050565b81516001600160401b03811115610293576102936101e1565b6102a7816102a184546101f7565b8461022b565b6020601f8211600181146102db57600083156102c35750848201515b600019600385901b1c1916600184901b178455610272565b600084815260208120601f198516915b8281101561030b57878501518255602094850194600190920191016102eb565b50848210156103295786840151600019600387901b60f8161c191681555b50505050600190811b01905550565b60005b8381101561035357818101518382015260200161033b565b50506000910152565b8281526040602082015260008251806040840152610381816060850160208701610338565b601f01601f1916919091016060019392505050565b600082516103a8818460208701610338565b9190910192915050565b615b64806103c16000396000f3fe608060405234801561001057600080fd5b50600436106101cf5760003560e01c80637f476b6f11610104578063c2fb26a6116100a2578063e75a88a011610071578063e75a88a01461042e578063f1b9ea1714610441578063f2fde38b14610461578063f53aac2a1461047457600080fd5b8063c2fb26a6146103f8578063d1d758cb14610400578063d69418f314610413578063daee6fbc1461041b57600080fd5b8063974d4ed8116100de578063974d4ed81461039c5780639f88151e146103c8578063b7013dc1146103db578063b76ebb56146103e357600080fd5b80637f476b6f1461034b5780638da5cb5b1461036b5780638e0322411461038957600080fd5b80633074eebc1161017157806358dee0541161014b57806358dee0541461030a578063666181a91461031d578063715018a6146103305780637d5559d91461033857600080fd5b80633074eebc146102b257806332d268a5146102c55780635023a0c9146102e557600080fd5b806329ec9442116101ad57806329ec9442146102465780632a6d3e9b146102675780632b64deec1461027a5780632e5abd7b1461029f57600080fd5b806314794702146101d457806315534b70146101e9578063212e94c914610233575b600080fd5b6101e76101e236600461471c565b610494565b005b6004546102099073ffffffffffffffffffffffffffffffffffffffff1681565b60405173ffffffffffffffffffffffffffffffffffffffff90911681526020015b60405180910390f35b6101e7610241366004614749565b6105c7565b6102596102543660046147a1565b610771565b60405190815260200161022a565b6101e76102753660046147cd565b6107a2565b61028d61028836600461471c565b6107f1565b60405161022a969594939291906148c2565b6101e76102ad366004614912565b610954565b6102596102c03660046147a1565b610a9c565b6102d86102d336600461471c565b610ab8565b60405161022a9190614993565b6102f86102f336600461471c565b610d0d565b60405161022a96959493929190614ab2565b6101e7610318366004614c7b565b610de8565b6101e761032b366004614d16565b610f20565b6101e7610fec565b6101e7610346366004614d33565b611000565b61035e610359366004614e37565b61112a565b60405161022a9190614ee6565b60035473ffffffffffffffffffffffffffffffffffffffff16610209565b6101e761039736600461471c565b61155c565b6103af6103aa36600461471c565b611657565b60405161022a9d9c9b9a99989796959493929190614f09565b6102596103d6366004614f85565b611752565b61025961178a565b6103eb611807565b60405161022a9190614fce565b61035e6118cf565b6103eb61040e366004614f85565b611958565b6103eb6119e1565b6103eb610429366004614f85565b611aa7565b6101e761043c36600461509d565b611b2e565b61045461044f36600461471c565b611f7c565b60405161022a919061512c565b6101e761046f366004614d16565b6120da565b61048761048236600461471c565b61218e565b60405161022a91906151d4565b60008111610503576040517f08c379a000000000000000000000000000000000000000000000000000000000815260206004820152601d60248201527f616d6f756e74206d7573742062652067726561746572207468616e203000000060448201526064015b60405180910390fd5b336000908152600b602052604090205481111561057c576040517f08c379a000000000000000000000000000000000000000000000000000000000815260206004820152601460248201527f696e73756666696369656e742062616c616e636500000000000000000000000060448201526064016104fa565b336000908152600b60205260408120805483929061059b908490615298565b90915550506004546105c49073ffffffffffffffffffffffffffffffffffffffff16338361236b565b50565b6105cf61243f565b60008260088111156105e3576105e3614801565b141580156106035750600482600881111561060057610600614801565b14155b610669576040517f08c379a000000000000000000000000000000000000000000000000000000000815260206004820152601e60248201527f6f7574636f6d652063616e6e6f74206265206e6f6e65206f7220736f6c64000060448201526064016104fa565b60016000848152600c60205260409020600b015460ff16600881111561069157610691614801565b146106f8576040517f08c379a000000000000000000000000000000000000000000000000000000000815260206004820152601a60248201527f696e76616c6964206f7574636f6d65207472616e736974696f6e00000000000060448201526064016104fa565b6000838152600c60205260409020600b0180548391907fffffffffffffffffffffffffffffffffffffffffffffffffffffffffffffff0016600183600881111561074457610744614801565b0217905550600080600061075886856124c0565b9250925092506107698383836125a2565b505050505050565b600a602052816000526040600020818154811061078d57600080fd5b90600052602060002001600091509150505481565b80600783815481106107b6576107b66152ab565b906000526020600020906009020160040160006101000a81548160ff021916908360048111156107e8576107e8614801565b02179055505050565b6006818154811061080157600080fd5b60009182526020909120600690910201805460018201546002830154600384018054939550919360ff9091169290919061083a906152da565b80601f0160208091040260200160405190810160405280929190818152602001828054610866906152da565b80156108b35780601f10610888576101008083540402835291602001916108b3565b820191906000526020600020905b81548152906001019060200180831161089657829003601f168201915b5050505050908060040180546108c8906152da565b80601f01602080910402602001604051908101604052809291908181526020018280546108f4906152da565b80156109415780601f1061091657610100808354040283529160200191610941565b820191906000526020600020905b81548152906001019060200180831161092457829003601f168201915b5050506005909301549192505060ff1686565b61095c61243f565b6000838152600c60205260408120600a01805484929061097d908490615327565b90915550506000838152600c60205260409020600a8101546009909101541015610a29576040517f08c379a000000000000000000000000000000000000000000000000000000000815260206004820152602360248201527f63616e6e6f742073656c6c206d6f726520736861726573207468616e20626f7560448201527f676874000000000000000000000000000000000000000000000000000000000060648201526084016104fa565b6000838152600c60205260409020600a81015460099091015403610a8d576000838152600c60205260408120600b0180547fffffffffffffffffffffffffffffffffffffffffffffffffffffffffffffff00166004179055808061075886856124c0565b61076983826124c0565b505050565b6009602052816000526040600020818154811061078d57600080fd5b610ac061457d565b60078281548110610ad357610ad36152ab565b600091825260209091206040805161012081019091526009909202018054829060ff166001811115610b0757610b07614801565b6001811115610b1857610b18614801565b815260018201546020820152600282015460408201526003820154606082015260048083015460809092019160ff1690811115610b5757610b57614801565b6004811115610b6857610b68614801565b8152602001600582018054610b7c906152da565b80601f0160208091040260200160405190810160405280929190818152602001828054610ba8906152da565b8015610bf55780601f10610bca57610100808354040283529160200191610bf5565b820191906000526020600020905b815481529060010190602001808311610bd857829003601f168201915b5050505050815260200160068201805480602002602001604051908101604052809291908181526020018280548015610c4d57602002820191906000526020600020905b815481526020019060010190808311610c39575b5050505050815260200160078201805480602002602001604051908101604052809291908181526020018280548015610ca557602002820191906000526020600020905b815481526020019060010190808311610c91575b5050505050815260200160088201805480602002602001604051908101604052809291908181526020018280548015610cfd57602002820191906000526020600020905b815481526020019060010190808311610ce9575b5050505050815250509050919050565b60078181548110610d1d57600080fd5b600091825260209091206009909102018054600182015460028301546003840154600485015460058601805460ff9687169850949693959294929091169291610d65906152da565b80601f0160208091040260200160405190810160405280929190818152602001828054610d91906152da565b8015610dde5780601f10610db357610100808354040283529160200191610dde565b820191906000526020600020905b815481529060010190602001808311610dc157829003601f168201915b5050505050905086565b60066040518060c00160405280600081526020018667ffffffffffffffff168152602001856001811115610e1e57610e1e614801565b8152602081018590526040810184905260600160029052815460018181018455600093845260209384902083516006909302019182559282015181840155604082015160028201805493949293919290917fffffffffffffffffffffffffffffffffffffffffffffffffffffffffffffff0016908381811115610ea357610ea3614801565b021790555060608201516003820190610ebc9082615381565b5060808201516004820190610ed19082615381565b5060a08201516005820180547fffffffffffffffffffffffffffffffffffffffffffffffffffffffffffffff00166001836002811115610f1357610f13614801565b0217905550505050505050565b610f2861243f565b73ffffffffffffffffffffffffffffffffffffffff8116610fa5576040517f08c379a000000000000000000000000000000000000000000000000000000000815260206004820152601b60248201527f696e76616c6964204d5553444320746f6b656e2061646472657373000000000060448201526064016104fa565b600480547fffffffffffffffffffffffff00000000000000000000000000000000000000001673ffffffffffffffffffffffffffffffffffffffff92909216919091179055565b610ff461243f565b610ffe6000612715565b565b61100861243f565b6007828154811061101b5761101b6152ab565b600091825260208083208451600860099485029092018201805460018181018355918752848720019190915585518552600c8352604094859020865181559286015183820155938501516002830155606085015160038301556080850151600483015560a0850151600583015560c0850151600683015560e085015160078301556101008501518282015561012085015192820192909255610140840151600a820155610160840151600b8201805486959394929391927fffffffffffffffffffffffffffffffffffffffffffffffffffffffffffffff009091169190849081111561110957611109614801565b0217905550610180820151600c8201906111239082615381565b5050505050565b60606111746040518060a0016040528060608152602001600073ffffffffffffffffffffffffffffffffffffffff1681526020016000815260200160608152602001606081525090565b600061117f8561278c565b86866040516020016111939392919061549a565b604080517fffffffffffffffffffffffffffffffffffffffffffffffffffffffffffffffe0818403018152828252805160208083019190912060008086528583018086529190915260ff89850135169385019390935287356060850152870135608084015292509060019060a0016020604051602081039080840390855afa158015611223573d6000803e3d6000fd5b50506040517fffffffffffffffffffffffffffffffffffffffffffffffffffffffffffffffe0015173ffffffffffffffffffffffffffffffffffffffff81166020860152915060009050611277888861284b565b9050468160a00151146112b6576040517f362c833700000000000000000000000000000000000000000000000000000000815260040160405180910390fd5b60016040516112c591906154ee565b604051809103902081600001518051906020012014611310576040517f283d62bd00000000000000000000000000000000000000000000000000000000815260040160405180910390fd5b80518452602081015173ffffffffffffffffffffffffffffffffffffffff83811691161461136a576040517f05cc02e100000000000000000000000000000000000000000000000000000000815260040160405180910390fd5b610120810151511580159061138c5750611388816101200151612eff565b4211155b156113c3576040517f299d02f100000000000000000000000000000000000000000000000000000000815260040160405180910390fd5b61010081015151156113ea5760006113df826101000151612eff565b6040860152506113fd565b6113f76201518042615327565b60408501525b8360400151421061143a576040517fb171155000000000000000000000000000000000000000000000000000000000815260040160405180910390fd5b604081015160608501526101608101515167ffffffffffffffff81111561146357611463614b0c565b60405190808252806020026020018201604052801561149657816020015b60608152602001906001900390816114815790505b50608085015260005b816101600151518110156114f55781610160015181815181106114c4576114c46152ab565b6020026020010151856080015182815181106114e2576114e26152ab565b602090810291909101015260010161149f565b50600061154f6002546000801b876040516020016115139190615581565b604080517fffffffffffffffffffffffffffffffffffffffffffffffffffffffffffffffe0818403018152602083019091526000825290612f6e565b9998505050505050505050565b61156461243f565b60016000828152600c60205260409020600b015460ff16600881111561158c5761158c614801565b146115f3576040517f08c379a000000000000000000000000000000000000000000000000000000000815260206004820152601e60248201527f63616e6e6f742073656c6c20696e6163746976652070726f787920626574000060448201526064016104fa565b6000818152600c6020526040808220600b0180547fffffffffffffffffffffffffffffffffffffffffffffffffffffffffffffff001660031790555182917f828be99a2e041a34078aa5ab12ea9b20aa49c0d2197209a03713c5e015dc8e6991a250565b600c60205280600052604060002060009150905080600001549080600101549080600201549080600301549080600401549080600501549080600601549080600701549080600801549080600901549080600a01549080600b0160009054906101000a900460ff169080600c0180546116cf906152da565b80601f01602080910402602001604051908101604052809291908181526020018280546116fb906152da565b80156117485780601f1061171d57610100808354040283529160200191611748565b820191906000526020600020905b81548152906001019060200180831161172b57829003601f168201915b505050505090508d565b60008061175e836130a5565b73ffffffffffffffffffffffffffffffffffffffff166000908152600b60205260409020549392505050565b6000336117f3576040517f08c379a000000000000000000000000000000000000000000000000000000000815260206004820152601760248201527f61757468656e7469636174696f6e20726571756972656400000000000000000060448201526064016104fa565b50336000908152600b602052604090205490565b606033611870576040517f08c379a000000000000000000000000000000000000000000000000000000000815260206004820152601760248201527f61757468656e7469636174696f6e20726571756972656400000000000000000060448201526064016104fa565b33600090815260096020908152604091829020805483518184028101840190945280845290918301828280156118c557602002820191906000526020600020905b8154815260200190600101908083116118b1575b5050505050905090565b6060600180546118de906152da565b80601f016020809104026020016040519081016040528092919081815260200182805461190a906152da565b80156118c55780601f1061192c576101008083540402835291602001916118c5565b820191906000526020600020905b81548152906001019060200180831161193a57509395945050505050565b60606000611965836130a5565b73ffffffffffffffffffffffffffffffffffffffff81166000908152600a602090815260409182902080548351818402810184019094528084529394509192908301828280156119d457602002820191906000526020600020905b8154815260200190600101908083116119c0575b5050505050915050919050565b606033611a4a576040517f08c379a000000000000000000000000000000000000000000000000000000000815260206004820152601760248201527f61757468656e7469636174696f6e20726571756972656400000000000000000060448201526064016104fa565b336000908152600a6020908152604091829020805483518184028101840190945280845290918301828280156118c557602002820191906000526020600020908154815260200190600101908083116118b1575050505050905090565b60606000611ab4836130a5565b73ffffffffffffffffffffffffffffffffffffffff811660009081526009602090815260409182902080548351818402810184019094528084529394509192908301828280156119d457602002820191906000526020600020908154815260200190600101908083116119c0575050505050915050919050565b8051825114611b99576040517f08c379a000000000000000000000000000000000000000000000000000000000815260206004820152601860248201527f6172726179206c656e67746873206d757374206d61746368000000000000000060448201526064016104fa565b60008411611c29576040517f08c379a000000000000000000000000000000000000000000000000000000000815260206004820152602860248201527f636f6c6c61746572616c20616d6f756e74206d7573742062652067726561746560448201527f72207468616e203000000000000000000000000000000000000000000000000060648201526084016104fa565b60005b8251811015611ccd576000838281518110611c4957611c496152ab565b602002602001015160001c90506006805490508110611cc4576040517f08c379a000000000000000000000000000000000000000000000000000000000815260206004820152601660248201527f696e76616c6964206d61726b6574706c6163652049440000000000000000000060448201526064016104fa565b50600101611c2c565b50600454611cf39073ffffffffffffffffffffffffffffffffffffffff16333087613125565b6007805460408051610120810190915290919080886001811115611d1957611d19614801565b81526020018781526020016000815260200186815260200160006004811115611d4457611d44614801565b8152602001604051806020016040528060008152508152602001858152602001848152602001600067ffffffffffffffff811115611d8457611d84614b0c565b604051908082528060200260200182016040528015611dad578160200160208202803683370190505b50905281546001818101845560009384526020909320825160099092020180549293909283917fffffffffffffffffffffffffffffffffffffffffffffffffffffffffffffff00909116908381811115611e0957611e09614801565b021790555060208201518160010155604082015181600201556060820151816003015560808201518160040160006101000a81548160ff02191690836004811115611e5657611e56614801565b021790555060a08201516005820190611e6f9082615381565b5060c08201518051611e8b9160068401916020909101906145db565b5060e08201518051611ea79160078401916020909101906145db565b506101008201518051611ec49160088401916020909101906145db565b505050600081815260086020908152604080832080547fffffffffffffffffffffffff00000000000000000000000000000000000000001633908117909155835260098252822080546001810182559083529082200182905560058054879290611f2f908490615327565b92505081905550807fa40b3c87e86bd5f4b59c8ee5d83a7ced69629a25ee5627dccfa8918958b38dc486868686604051611f6c94939291906156ad565b60405180910390a2505050505050565b611f84614626565b600c6000838152602001908152602001600020604051806101a001604052908160008201548152602001600182015481526020016002820154815260200160038201548152602001600482015481526020016005820154815260200160068201548152602001600782015481526020016008820154815260200160098201548152602001600a8201548152602001600b820160009054906101000a900460ff16600881111561203557612035614801565b600881111561204657612046614801565b8152602001600c8201805461205a906152da565b80601f0160208091040260200160405190810160405280929190818152602001828054612086906152da565b8015610cfd5780601f106120a857610100808354040283529160200191610cfd565b820191906000526020600020905b8154815290600101906020018083116120b657505050919092525091949350505050565b6120e261243f565b73ffffffffffffffffffffffffffffffffffffffff8116612185576040517f08c379a000000000000000000000000000000000000000000000000000000000815260206004820152602660248201527f4f776e61626c653a206e6577206f776e657220697320746865207a65726f206160448201527f646472657373000000000000000000000000000000000000000000000000000060648201526084016104fa565b6105c481612715565b6121966146a2565b600682815481106121a9576121a96152ab565b90600052602060002090600602016040518060c001604052908160008201548152602001600182015481526020016002820160009054906101000a900460ff1660018111156121fa576121fa614801565b600181111561220b5761220b614801565b815260200160038201805461221f906152da565b80601f016020809104026020016040519081016040528092919081815260200182805461224b906152da565b80156122985780601f1061226d57610100808354040283529160200191612298565b820191906000526020600020905b81548152906001019060200180831161227b57829003601f168201915b505050505081526020016004820180546122b1906152da565b80601f01602080910402602001604051908101604052809291908181526020018280546122dd906152da565b801561232a5780601f106122ff5761010080835404028352916020019161232a565b820191906000526020600020905b81548152906001019060200180831161230d57829003601f168201915b5050509183525050600582015460209091019060ff16600281111561235157612351614801565b600281111561236257612362614801565b90525092915050565b60405173ffffffffffffffffffffffffffffffffffffffff8316602482015260448101829052610a979084907fa9059cbb00000000000000000000000000000000000000000000000000000000906064015b604080517fffffffffffffffffffffffffffffffffffffffffffffffffffffffffffffffe08184030181529190526020810180517bffffffffffffffffffffffffffffffffffffffffffffffffffffffff167fffffffff0000000000000000000000000000000000000000000000000000000090931692909217909152613189565b60035473ffffffffffffffffffffffffffffffffffffffff163314610ffe576040517f08c379a000000000000000000000000000000000000000000000000000000000815260206004820181905260248201527f4f776e61626c653a2063616c6c6572206973206e6f7420746865206f776e657260448201526064016104fa565b6000828152600c602090815260408083206001015480845260089092528220546007805492939273ffffffffffffffffffffffffffffffffffffffff9092169184908110612510576125106152ab565b90600052602060002090600902019150838260020160008282546125349190615327565b90915550506000858152600c60205260408120600801805486929061255a908490615327565b909155505073ffffffffffffffffffffffffffffffffffffffff81166000908152600b602052604081208054869290612594908490615327565b925050819055509250925092565b60005b6008830154811015612606576125f4600c60008560080184815481106125cd576125cd6152ab565b600091825260208083209091015483528201929092526040019020600b015460ff16613298565b6125fe5750505050565b6001016125a5565b5073ffffffffffffffffffffffffffffffffffffffff81166000908152600960205260408120905b81548110156126d8578482828154811061264a5761264a6152ab565b9060005260206000200154036126d0578154829061266a90600190615298565b8154811061267a5761267a6152ab565b9060005260206000200154828281548110612697576126976152ab565b9060005260206000200181905550818054806126b5576126b56156de565b600190038181906000526020600020016000905590556126d8565b60010161262e565b505073ffffffffffffffffffffffffffffffffffffffff166000908152600a60209081526040822080546001810182559083529120019190915550565b6003805473ffffffffffffffffffffffffffffffffffffffff8381167fffffffffffffffffffffffff0000000000000000000000000000000000000000831681179093556040519116919082907f8be0079c531659141344cd1fd0a4f28419497f9722a3daafe3b4186f6b6457e090600090a35050565b60606000612799836132d2565b600101905060008167ffffffffffffffff8111156127b9576127b9614b0c565b6040519080825280601f01601f1916602001820160405280156127e3576020820181803683370190505b5090508181016020015b7fffffffffffffffffffffffffffffffffffffffffffffffffffffffffffffffff017f3031323334353637383961626364656600000000000000000000000000000000600a86061a8153600a85049450846127ed575b509392505050565b6128c560405180610180016040528060608152602001600073ffffffffffffffffffffffffffffffffffffffff168152602001606081526020016060815260200160608152602001600081526020016060815260200160608152602001606081526020016060815260200160608152602001606081525090565b61293f60405180610180016040528060608152602001600073ffffffffffffffffffffffffffffffffffffffff168152602001606081526020016060815260200160608152602001600081526020016060815260200160608152602001606081526020016060815260200160608152602001606081525090565b60005b838110156129fa5784848281811061295c5761295c6152ab565b909101357fff00000000000000000000000000000000000000000000000000000000000000167f20000000000000000000000000000000000000000000000000000000000000000390506129f2576129eb85858080601f016020809104026020016040519081016040528093929190818152602001838380828437600092018290525092508591506133b49050565b82526129fa565b600101612942565b612a05603282615327565b9050612a6c612a6786868080601f016020809104026020016040519081016040528093929190818152602001838380828437600092019190915250612a51925060029150869050615327565b935083612a5f602882615327565b9450846133b4565b6134bb565b73ffffffffffffffffffffffffffffffffffffffff166020830152612a92600282615327565b90508381108015612b005750848482818110612ab057612ab06152ab565b9050013560f81c60f81b7effffffffffffffffffffffffffffffffffffffffffffffffffffffffffffff19167f0a0000000000000000000000000000000000000000000000000000000000000014155b15612bd357805b84811015612bd157858582818110612b2157612b216152ab565b909101357fff00000000000000000000000000000000000000000000000000000000000000167f0a00000000000000000000000000000000000000000000000000000000000000039050612bc957612bb286868080601f0160208091040260200160405190810160405280939291908181526020018383808284376000920191909152508692508591506133b49050565b6040840152612bc2816001615327565b9150612bd1565b600101612b07565b505b80612bdd8161573c565b915050612c2185856040518060400160405280600381526020017f555249000000000000000000000000000000000000000000000000000000000081525084613620565b836060018193508290525050612c6e85856040518060400160405280600781526020017f56657273696f6e0000000000000000000000000000000000000000000000000081525084613620565b8360800181935082905250506060612cbd86866040518060400160405280600881526020017f436861696e20494400000000000000000000000000000000000000000000000081525085613620565b92509050612cca816138bc565b60a084015260408051808201909152600581527f4e6f6e63650000000000000000000000000000000000000000000000000000006020820152612d11908790879085613620565b60c08501829052905190925060081115612d57576040517fb4bc030c00000000000000000000000000000000000000000000000000000000815260040160405180910390fd5b612d9886866040518060400160405280600981526020017f497373756564204174000000000000000000000000000000000000000000000081525085613620565b8460e0018194508290525050612de586866040518060400160405280600f81526020017f45787069726174696f6e2054696d65000000000000000000000000000000000081525085613620565b84610100018194508290525050612e3386866040518060400160405280600a81526020017f4e6f74204265666f72650000000000000000000000000000000000000000000081525085613620565b84610120018194508290525050612e8186866040518060400160405280600a81526020017f526571756573742049440000000000000000000000000000000000000000000081525085613620565b846101400181945082905250506000612ed187876040518060400160405280600981526020017f5265736f7572636573000000000000000000000000000000000000000000000081525086613620565b915050828114612ef257612ee6878783613916565b61016086019190915292505b5091925050505b92915050565b6000612ef9612f19612f1484600060046133b4565b6138bc565b612f29612f1485600560076133b4565b612f39612f14866008600a6133b4565b612f49612f1487600b600d6133b4565b612f59612f1488600e60106133b4565b612f69612f1489601160136133b4565b613d07565b606060008073010000000000000000000000000000000000000373ffffffffffffffffffffffffffffffffffffffff1687878787604051602001612fb59493929190615774565b604080517fffffffffffffffffffffffffffffffffffffffffffffffffffffffffffffffe081840301815290829052612fed916157a5565b600060405180830381855afa9150503d8060008114613028576040519150601f19603f3d011682016040523d82523d6000602084013e61302d565b606091505b509150915081613099576040517f08c379a000000000000000000000000000000000000000000000000000000000815260206004820152600f60248201527f656e63727970743a206661696c6564000000000000000000000000000000000060448201526064016104fa565b9150505b949350505050565b80516020808301919091206000908152908190526040812054829060ff16156130fa576040517f9ea6784800000000000000000000000000000000000000000000000000000000815260040160405180910390fd5b825160000361310c576000915061311f565b600061311784613ead565b602001519250505b50919050565b60405173ffffffffffffffffffffffffffffffffffffffff808516602483015283166044820152606481018290526131839085907f23b872dd00000000000000000000000000000000000000000000000000000000906084016123bd565b50505050565b60006131eb826040518060400160405280602081526020017f5361666545524332303a206c6f772d6c6576656c2063616c6c206661696c65648152508573ffffffffffffffffffffffffffffffffffffffff16613fd09092919063ffffffff16565b905080516000148061320c57508080602001905181019061320c91906157c1565b610a97576040517f08c379a000000000000000000000000000000000000000000000000000000000815260206004820152602a60248201527f5361666545524332303a204552433230206f7065726174696f6e20646964206e60448201527f6f7420737563636565640000000000000000000000000000000000000000000060648201526084016104fa565b6000808260088111156132ad576132ad614801565b14158015612ef9575060018260088111156132ca576132ca614801565b141592915050565b6000807a184f03e93ff9f4daa797ed6e38ed64bf6a1f010000000000000000831061331b577a184f03e93ff9f4daa797ed6e38ed64bf6a1f010000000000000000830492506040015b6d04ee2d6d415b85acef81000000008310613347576d04ee2d6d415b85acef8100000000830492506020015b662386f26fc10000831061336557662386f26fc10000830492506010015b6305f5e100831061337d576305f5e100830492506008015b612710831061339157612710830492506004015b606483106133a3576064830492506002015b600a8310612ef95760010192915050565b606060006133c28484615298565b67ffffffffffffffff8111156133da576133da614b0c565b6040519080825280601f01601f191660200182016040528015613404576020820181803683370190505b509050835b83811080156134185750855181105b156134b25785818151811061342f5761342f6152ab565b01602001517fff0000000000000000000000000000000000000000000000000000000000000016826134618784615298565b81518110613471576134716152ab565b60200101907effffffffffffffffffffffffffffffffffffffffffffffffffffffffffffff1916908160001a905350806134aa8161573c565b915050613409565b50949350505050565b600081516028146134f8576040517facf8696900000000000000000000000000000000000000000000000000000000815260040160405180910390fd5b60006002835161350891906157e3565b67ffffffffffffffff81111561352057613520614b0c565b6040519080825280601f01601f19166020018201604052801561354a576020820181803683370190505b50905060005b6002845161355e91906157e3565b81101561360c5761359c846135748360026157f7565b61357f906001615327565b8151811061358f5761358f6152ab565b016020015160f81c613fdf565b6135ab8561357f8460026157f7565b6135b690601061580e565b6135c0919061582a565b60f81b8282815181106135d5576135d56152ab565b60200101907effffffffffffffffffffffffffffffffffffffffffffffffffffffffffffff1916908160001a905350600101613550565b5061361681615843565b60601c9392505050565b60606000825b858110156137a357868682818110613640576136406152ab565b909101357fff00000000000000000000000000000000000000000000000000000000000000167f3a000000000000000000000000000000000000000000000000000000000000000390506137915784805190602001206136d988888080601f0160208091040260200160405190810160405280939291908181526020018383808284376000920191909152508992508691506133b49050565b80519060200120146136fe5750506040805160208101909152600081529050816138b3565b806137088161573c565b91505085811080156137765750868682818110613727576137276152ab565b9050013560f81c60f81b7effffffffffffffffffffffffffffffffffffffffffffffffffffffffffffff19167f2000000000000000000000000000000000000000000000000000000000000000145b1561378957806137858161573c565b9150505b8093506137a3565b8061379b8161573c565b915050613626565b8581101561386b578686828181106137bd576137bd6152ab565b909101357fff00000000000000000000000000000000000000000000000000000000000000167f0a000000000000000000000000000000000000000000000000000000000000000390506138635761384e87878080601f0160208091040260200160405190810160405280939291908181526020018383808284376000920191909152508892508591506133b49050565b613859826001615327565b92509250506138b3565b6001016137a3565b6138ae87878080601f0160208091040260200160405190810160405280939291908181526020018383808284376000920191909152508892508591506133b49050565b925090505b94509492505050565b600080805b835181101561390f5760308482815181106138de576138de6152ab565b01602001516138f0919060f81c615298565b6138fb83600a6157f7565b6139059190615327565b91506001016138c1565b5092915050565b6060600082815b613928600187615298565b821015613aa357868683818110613941576139416152ab565b9050013560f81c60f81b7effffffffffffffffffffffffffffffffffffffffffffffffffffffffffffff19167f2d00000000000000000000000000000000000000000000000000000000000000148015613a01575086866139a3846001615327565b8181106139b2576139b26152ab565b9050013560f81c60f81b7effffffffffffffffffffffffffffffffffffffffffffffffffffffffffffff19167f2000000000000000000000000000000000000000000000000000000000000000145b15613a2557613a11600283615327565b915080613a1d8161573c565b915050613a2a565b613aa3565b8582108015613a7a5750868683818110613a4657613a466152ab565b9050013560f81c60f81b7effffffffffffffffffffffffffffffffffffffffffffffffffffffffffffff1916600a60f81b14155b15613a915781613a898161573c565b925050613a2a565b81613a9b8161573c565b92505061391d565b60008167ffffffffffffffff811115613abe57613abe614b0c565b604051908082528060200260200182016040528015613af157816020015b6060815260200190600190039081613adc5790505b50905085925060005b613b05600189615298565b84108015613b135750828114155b15613cf957888885818110613b2a57613b2a6152ab565b9050013560f81c60f81b7effffffffffffffffffffffffffffffffffffffffffffffffffffffffffffff19167f2d00000000000000000000000000000000000000000000000000000000000000148015613bea57508888613b8c866001615327565b818110613b9b57613b9b6152ab565b9050013560f81c60f81b7effffffffffffffffffffffffffffffffffffffffffffffffffffffffffffff19167f2000000000000000000000000000000000000000000000000000000000000000145b15613bfd57613bfa846002615327565b96505b8784108015613c4d5750888885818110613c1957613c196152ab565b9050013560f81c60f81b7effffffffffffffffffffffffffffffffffffffffffffffffffffffffffffff1916600a60f81b14155b15613c645783613c5c8161573c565b945050613bfd565b613ca789898080601f0160208091040260200160405190810160405280939291908181526020018383808284376000920191909152508b92508891506133b49050565b828281518110613cb957613cb96152ab565b60200260200101819052508080613ccf9061573c565b915050878403613ce75783613ce3816158af565b9450505b83613cf18161573c565b945050613afa565b509791965090945050505050565b60006107b25b8761ffff168161ffff161015613d5957613d26816141fb565b15613d4057613d396301e2850083615327565b9150613d51565b613d4e6301e1338083615327565b91505b600101613d0d565b613d616146e8565b601f8152613d6e896141fb565b15613d7f57601d6020820152613d87565b601c60208201525b601f60408201819052601e606083018190526080830182905260a0830181905260c0830182905260e0830182905261010083018190526101208301829052610140830152610160820152600191505b8760ff168261ffff161015613e345780613df16001846158e4565b61ffff16600c8110613e0557613e056152ab565b6020020151613e1790620151806158fe565b613e279063ffffffff1684615327565b9250600190910190613dd6565b613e3f60018861591d565b613e4f9060ff16620151806158fe565b613e5f9063ffffffff1684615327565b9250613e7060ff8716610e106158fe565b613e809063ffffffff1684615327565b9250613e9060ff8616603c615936565b613e9e9061ffff1684615327565b925061154f60ff851684615327565b613ef56040518060a0016040528060608152602001600073ffffffffffffffffffffffffffffffffffffffff1681526020016000815260200160608152602001606081525090565b6000613f176002546000801b856040518060200160405280600081525061425a565b9050600081806020019051810190613f2f9190615a26565b90506001604051613f4091906154ee565b604051809103902081600001518051906020012014613f8b576040517f283d62bd00000000000000000000000000000000000000000000000000000000815260040160405180910390fd5b4281604001511015613fc9576040517fb171155000000000000000000000000000000000000000000000000000000000815260040160405180910390fd5b9392505050565b606061309d8484600085614385565b60007f300000000000000000000000000000000000000000000000000000000000000060f883901b7fff00000000000000000000000000000000000000000000000000000000000000161080159061407d57507f390000000000000000000000000000000000000000000000000000000000000060f883901b7fff000000000000000000000000000000000000000000000000000000000000001611155b1561408d57612ef960308361591d565b7f610000000000000000000000000000000000000000000000000000000000000060f883901b7fff00000000000000000000000000000000000000000000000000000000000000161080159061412957507f660000000000000000000000000000000000000000000000000000000000000060f883901b7fff000000000000000000000000000000000000000000000000000000000000001611155b1561414557606161413b83600a61582a565b612ef9919061591d565b7f410000000000000000000000000000000000000000000000000000000000000060f883901b7fff0000000000000000000000000000000000000000000000000000000000000016108015906141e157507f460000000000000000000000000000000000000000000000000000000000000060f883901b7fff000000000000000000000000000000000000000000000000000000000000001611155b156141f357604161413b83600a61582a565b506000919050565b6000614208600483615b0a565b61ffff161561421957506000919050565b614224606483615b0a565b61ffff161561423557506001919050565b61424161019083615b0a565b61ffff161561425257506000919050565b506001919050565b606060008073010000000000000000000000000000000000000473ffffffffffffffffffffffffffffffffffffffff16878787876040516020016142a19493929190615774565b604080517fffffffffffffffffffffffffffffffffffffffffffffffffffffffffffffffe0818403018152908290526142d9916157a5565b600060405180830381855afa9150503d8060008114614314576040519150601f19603f3d011682016040523d82523d6000602084013e614319565b606091505b509150915081613099576040517f08c379a000000000000000000000000000000000000000000000000000000000815260206004820152600f60248201527f646563727970743a206661696c6564000000000000000000000000000000000060448201526064016104fa565b606082471015614417576040517f08c379a000000000000000000000000000000000000000000000000000000000815260206004820152602660248201527f416464726573733a20696e73756666696369656e742062616c616e636520666f60448201527f722063616c6c000000000000000000000000000000000000000000000000000060648201526084016104fa565b6000808673ffffffffffffffffffffffffffffffffffffffff16858760405161444091906157a5565b60006040518083038185875af1925050503d806000811461447d576040519150601f19603f3d011682016040523d82523d6000602084013e614482565b606091505b50915091506144938783838761449e565b979650505050505050565b6060831561453457825160000361452d5773ffffffffffffffffffffffffffffffffffffffff85163b61452d576040517f08c379a000000000000000000000000000000000000000000000000000000000815260206004820152601d60248201527f416464726573733a2063616c6c20746f206e6f6e2d636f6e747261637400000060448201526064016104fa565b508161309d565b61309d83838151156145495781518083602001fd5b806040517f08c379a00000000000000000000000000000000000000000000000000000000081526004016104fa9190614ee6565b6040805161012081019091528060008152602001600081526020016000815260200160008152602001600060048111156145b9576145b9614801565b8152602001606081526020016060815260200160608152602001606081525090565b828054828255906000526020600020908101928215614616579160200282015b828111156146165782518255916020019190600101906145fb565b50614622929150614707565b5090565b604051806101a0016040528060008019168152602001600081526020016000815260200160008152602001600081526020016000815260200160008152602001600081526020016000815260200160008152602001600081526020016000600881111561469557614695614801565b8152602001606081525090565b6040518060c001604052806000815260200160008152602001600060018111156146ce576146ce614801565b815260606020820181905260408201819052016000905290565b604051806101800160405280600c906020820280368337509192915050565b5b808211156146225760008155600101614708565b60006020828403121561472e57600080fd5b5035919050565b80356009811061474457600080fd5b919050565b60008060006060848603121561475e57600080fd5b8335925061476e60208501614735565b929592945050506040919091013590565b73ffffffffffffffffffffffffffffffffffffffff811681146105c457600080fd5b600080604083850312156147b457600080fd5b82356147bf8161477f565b946020939093013593505050565b600080604083850312156147e057600080fd5b823591506020830135600581106147f657600080fd5b809150509250929050565b7f4e487b7100000000000000000000000000000000000000000000000000000000600052602160045260246000fd5b600281106105c4576105c4614801565b60005b8381101561485b578181015183820152602001614843565b50506000910152565b6000815180845261487c816020860160208601614840565b601f017fffffffffffffffffffffffffffffffffffffffffffffffffffffffffffffffe0169290920160200192915050565b600381106148be576148be614801565b9052565b8681528560208201526148d485614830565b84604082015260c0606082015260006148f060c0830186614864565b82810360808401526149028186614864565b91505061449360a08301846148ae565b60008060006060848603121561492757600080fd5b505081359360208301359350604090920135919050565b6148be81614830565b600581106148be576148be614801565b600081518084526020840193506020830160005b8281101561498957815186526020958601959091019060010161496b565b5093949350505050565b602081526149a560208201835161493e565b602082015160408201526040820151606082015260608201516080820152600060808301516149d760a0840182614947565b5060a083015161012060c08401526149f3610140840182614864565b905060c08401517fffffffffffffffffffffffffffffffffffffffffffffffffffffffffffffffe08483030160e0850152614a2e8282614957565b91505060e08401517fffffffffffffffffffffffffffffffffffffffffffffffffffffffffffffffe084830301610100850152614a6b8282614957565b9150506101008401517fffffffffffffffffffffffffffffffffffffffffffffffffffffffffffffffe084830301610120850152614aa98282614957565b95945050505050565b614abb87614830565b868152856020820152846040820152836060820152614add6080820184614947565b60c060a08201526000614af360c0830184614864565b98975050505050505050565b600281106105c457600080fd5b7f4e487b7100000000000000000000000000000000000000000000000000000000600052604160045260246000fd5b6040516101a0810167ffffffffffffffff81118282101715614b5f57614b5f614b0c565b60405290565b60405160a0810167ffffffffffffffff81118282101715614b5f57614b5f614b0c565b604051601f82017fffffffffffffffffffffffffffffffffffffffffffffffffffffffffffffffe016810167ffffffffffffffff81118282101715614bcf57614bcf614b0c565b604052919050565b600067ffffffffffffffff821115614bf157614bf1614b0c565b50601f017fffffffffffffffffffffffffffffffffffffffffffffffffffffffffffffffe01660200190565b6000614c30614c2b84614bd7565b614b88565b9050828152838383011115614c4457600080fd5b828260208301376000602084830101529392505050565b600082601f830112614c6c57600080fd5b613fc983833560208501614c1d565b60008060008060808587031215614c9157600080fd5b843567ffffffffffffffff81168114614ca957600080fd5b93506020850135614cb981614aff565b9250604085013567ffffffffffffffff811115614cd557600080fd5b614ce187828801614c5b565b925050606085013567ffffffffffffffff811115614cfe57600080fd5b614d0a87828801614c5b565b91505092959194509250565b600060208284031215614d2857600080fd5b8135613fc98161477f565b60008060408385031215614d4657600080fd5b82359150602083013567ffffffffffffffff811115614d6457600080fd5b83016101a08186031215614d7757600080fd5b614d7f614b3b565b813581526020808301359082015260408083013590820152606080830135908201526080808301359082015260a0808301359082015260c0808301359082015260e08083013590820152610100808301359082015261012080830135908201526101408083013590820152614df76101608301614735565b61016082015261018082013567ffffffffffffffff811115614e1857600080fd5b614e2487828501614c5b565b6101808301525080925050509250929050565b60008060008385036080811215614e4d57600080fd5b843567ffffffffffffffff811115614e6457600080fd5b8501601f81018713614e7557600080fd5b803567ffffffffffffffff811115614e8c57600080fd5b876020828401011115614e9e57600080fd5b6020919091019450925060607fffffffffffffffffffffffffffffffffffffffffffffffffffffffffffffffe082011215614ed857600080fd5b506020840190509250925092565b602081526000613fc96020830184614864565b600981106148be576148be614801565b8d81528c60208201528b60408201528a60608201528960808201528860a08201528760c08201528660e0820152856101008201528461012082015283610140820152614f59610160820184614ef9565b6101a06101808201526000614f726101a0830184614864565b9f9e505050505050505050505050505050565b600060208284031215614f9757600080fd5b813567ffffffffffffffff811115614fae57600080fd5b8201601f81018413614fbf57600080fd5b61309d84823560208401614c1d565b602080825282518282018190526000918401906040840190835b81811015615006578351835260209384019390920191600101614fe8565b509095945050505050565b600067ffffffffffffffff82111561502b5761502b614b0c565b5060051b60200190565b600082601f83011261504657600080fd5b8135615054614c2b82615011565b8082825260208201915060208360051b86010192508583111561507657600080fd5b602085015b8381101561509357803583526020928301920161507b565b5095945050505050565b600080600080600060a086880312156150b557600080fd5b85356150c081614aff565b94506020860135935060408601359250606086013567ffffffffffffffff8111156150ea57600080fd5b6150f688828901615035565b925050608086013567ffffffffffffffff81111561511357600080fd5b61511f88828901615035565b9150509295509295909350565b6020815281516020820152602082015160408201526040820151606082015260608201516080820152608082015160a082015260a082015160c082015260c082015160e082015260e082015161010082015261010082015161012082015261012082015161014082015261014082015161016082015260006101608301516151b8610180840182614ef9565b506101808301516101a08084015261309d6101c0840182614864565b602081528151602082015260208201516040820152600060408301516151f981614830565b80606084015250606083015160c0608084015261521960e0840182614864565b905060808401517fffffffffffffffffffffffffffffffffffffffffffffffffffffffffffffffe08483030160a08501526152548282614864565b91505060a084015161284360c08501826148ae565b7f4e487b7100000000000000000000000000000000000000000000000000000000600052601160045260246000fd5b81810381811115612ef957612ef9615269565b7f4e487b7100000000000000000000000000000000000000000000000000000000600052603260045260246000fd5b600181811c908216806152ee57607f821691505b60208210810361311f577f4e487b7100000000000000000000000000000000000000000000000000000000600052602260045260246000fd5b80820180821115612ef957612ef9615269565b601f821115610a9757806000526020600020601f840160051c810160208510156153615750805b601f840160051c820191505b81811015611123576000815560010161536d565b815167ffffffffffffffff81111561539b5761539b614b0c565b6153af816153a984546152da565b8461533a565b6020601f82116001811461540157600083156153cb5750848201515b7fffffffffffffffffffffffffffffffffffffffffffffffffffffffffffffffff600385901b1c1916600184901b178455611123565b6000848152602081207fffffffffffffffffffffffffffffffffffffffffffffffffffffffffffffffe08516915b8281101561544f578785015182556020948501946001909201910161542f565b508482101561548b57868401517fffffffffffffffffffffffffffffffffffffffffffffffffffffffffffffffff600387901b60f8161c191681555b50505050600190811b01905550565b7f19457468657265756d205369676e6564204d6573736167653a0a0000000000008152600084516154d281601a850160208901614840565b82018385601a83013760009301601a0192835250909392505050565b60008083546154fc816152da565b600182168015615513576001811461554657615576565b7fffffffffffffffffffffffffffffffffffffffffffffffffffffffffffffff0083168652811515820286019350615576565b86600052602060002060005b8381101561556e57815488820152600190910190602001615552565b505081860193505b509195945050505050565b602081526000825160a0602084015261559d60c0840182614864565b905073ffffffffffffffffffffffffffffffffffffffff60208501511660408401526040840151606084015260608401517fffffffffffffffffffffffffffffffffffffffffffffffffffffffffffffffe08483030160808501526156028282614864565b91505060808401517fffffffffffffffffffffffffffffffffffffffffffffffffffffffffffffffe08483030160a085015281815180845260208401915060208160051b85010160208401935060005b828110156156a1577fffffffffffffffffffffffffffffffffffffffffffffffffffffffffffffffe086830301845261568c828651614864565b60209586019594909401939150600101615652565b50979650505050505050565b8481528360208201526080604082015260006156cc6080830185614957565b82810360608401526144938185614957565b7f4e487b7100000000000000000000000000000000000000000000000000000000600052603160045260246000fd5b7f4e487b7100000000000000000000000000000000000000000000000000000000600052601260045260246000fd5b60007fffffffffffffffffffffffffffffffffffffffffffffffffffffffffffffffff820361576d5761576d615269565b5060010190565b8481528360208201526080604082015260006157936080830185614864565b82810360608401526144938185614864565b600082516157b7818460208701614840565b9190910192915050565b6000602082840312156157d357600080fd5b81518015158114613fc957600080fd5b6000826157f2576157f261570d565b500490565b8082028115828204841417612ef957612ef9615269565b60ff818116838216029081169081811461390f5761390f615269565b60ff8181168382160190811115612ef957612ef9615269565b805160208201517fffffffffffffffffffffffffffffffffffffffff0000000000000000000000008116919060148210156158a8577fffffffffffffffffffffffffffffffffffffffff000000000000000000000000808360140360031b1b82161692505b5050919050565b6000816158be576158be615269565b507fffffffffffffffffffffffffffffffffffffffffffffffffffffffffffffffff0190565b61ffff8281168282160390811115612ef957612ef9615269565b63ffffffff818116838216029081169081811461390f5761390f615269565b60ff8281168282160390811115612ef957612ef9615269565b61ffff818116838216029081169081811461390f5761390f615269565b600082601f83011261596457600080fd5b8151615972614c2b82614bd7565b81815284602083860101111561598757600080fd5b61309d826020830160208701614840565b80516147448161477f565b600082601f8301126159b457600080fd5b81516159c2614c2b82615011565b8082825260208201915060208360051b8601019250858311156159e457600080fd5b602085015b8381101561509357805167ffffffffffffffff811115615a0857600080fd5b615a17886020838a0101615953565b845250602092830192016159e9565b600060208284031215615a3857600080fd5b815167ffffffffffffffff811115615a4f57600080fd5b820160a08185031215615a6157600080fd5b615a69614b65565b815167ffffffffffffffff811115615a8057600080fd5b615a8c86828501615953565b825250615a9b60208301615998565b602082015260408281015190820152606082015167ffffffffffffffff811115615ac457600080fd5b615ad086828501615953565b606083015250608082015167ffffffffffffffff811115615af057600080fd5b615afc868285016159a3565b608083015250949350505050565b600061ffff831680615b1e57615b1e61570d565b8061ffff8416069150509291505056fea2646970667358221220f54f0f169d352b17cff707e0fdbb78a2c8b0b0cd977c2f7fc2d7810c9b5d6c5664736f6c634300081c0033",
  "linkReferences": {},
  "deployedLinkReferences": {}
}