{
  "_format": "hh-sol-artifact-1",
  "contractName": "PolyBet",
  "sourceName": "contracts/polybet.sol",
  "abi": [
    {
      "inputs": [],
      "stateMutability": "nonpayable",
      "type": "constructor"
    },
    {
      "inputs": [],
      "name": "A13e_RevokedAuthToken",
      "type": "error"
    },
    {
      "inputs": [],
      "name": "SiweAuth_AddressMismatch",
      "type": "error"
    },
    {
      "inputs": [],
      "name": "SiweAuth_ChainIdMismatch",
      "type": "error"
    },
    {
      "inputs": [],
      "name": "SiweAuth_DomainMismatch",
      "type": "error"
    },
    {
      "inputs": [],
      "name": "SiweAuth_Expired",
      "type": "error"
    },
    {
      "inputs": [],
      "name": "SiweAuth_NotBeforeInFuture",
      "type": "error"
    },
    {
      "inputs": [],
      "name": "SiweParser_InvalidAddressLength",
      "type": "error"
    },
    {
      "inputs": [],
      "name": "SiweParser_InvalidNonce",
      "type": "error"
    },
    {
      "anonymous": false,
      "inputs": [
        {
          "indexed": true,
          "internalType": "uint256",
          "name": "betId",
          "type": "uint256"
        },
        {
          "indexed": false,
          "internalType": "uint256",
          "name": "totalCollateralAmount",
          "type": "uint256"
        },
        {
          "indexed": false,
          "internalType": "uint256",
          "name": "outcomeIndex",
          "type": "uint256"
        },
        {
          "indexed": false,
          "internalType": "bytes32[]",
          "name": "marketplaceIds",
          "type": "bytes32[]"
        },
        {
          "indexed": false,
          "internalType": "bytes32[]",
          "name": "marketIds",
          "type": "bytes32[]"
        }
      ],
      "name": "BetSlipCreated",
      "type": "event"
    },
    {
      "anonymous": false,
      "inputs": [
        {
          "indexed": true,
          "internalType": "address",
          "name": "previousOwner",
          "type": "address"
        },
        {
          "indexed": true,
          "internalType": "address",
          "name": "newOwner",
          "type": "address"
        }
      ],
      "name": "OwnershipTransferred",
      "type": "event"
    },
    {
      "inputs": [
        {
          "internalType": "uint64",
          "name": "chainId",
          "type": "uint64"
        },
        {
          "internalType": "enum PolyBet.ChainFamily",
          "name": "family",
          "type": "uint8"
        },
        {
          "internalType": "string",
          "name": "name",
          "type": "string"
        },
        {
          "internalType": "string",
          "name": "marketplaceProxy",
          "type": "string"
        }
      ],
      "name": "addMarketplace",
      "outputs": [],
      "stateMutability": "nonpayable",
      "type": "function"
    },
    {
      "inputs": [
        {
          "internalType": "uint256",
          "name": "",
          "type": "uint256"
        }
      ],
      "name": "betSlips",
      "outputs": [
        {
          "internalType": "enum PolyBet.BetSlipStrategy",
          "name": "strategy",
          "type": "uint8"
        },
        {
          "internalType": "uint256",
          "name": "initialCollateral",
          "type": "uint256"
        },
        {
          "internalType": "uint256",
          "name": "finalCollateral",
          "type": "uint256"
        },
        {
          "internalType": "uint256",
          "name": "outcomeIndex",
          "type": "uint256"
        },
        {
          "internalType": "enum PolyBet.BetSlipStatus",
          "name": "status",
          "type": "uint8"
        },
        {
          "internalType": "string",
          "name": "failureReason",
          "type": "string"
        }
      ],
      "stateMutability": "view",
      "type": "function"
    },
    {
      "inputs": [],
      "name": "domain",
      "outputs": [
        {
          "internalType": "string",
          "name": "",
          "type": "string"
        }
      ],
      "stateMutability": "view",
      "type": "function"
    },
    {
      "inputs": [
        {
          "internalType": "uint256",
          "name": "betSlipId",
          "type": "uint256"
        }
      ],
      "name": "getBetSlip",
      "outputs": [
        {
          "components": [
            {
              "internalType": "enum PolyBet.BetSlipStrategy",
              "name": "strategy",
              "type": "uint8"
            },
            {
              "internalType": "uint256",
              "name": "initialCollateral",
              "type": "uint256"
            },
            {
              "internalType": "uint256",
              "name": "finalCollateral",
              "type": "uint256"
            },
            {
              "internalType": "uint256",
              "name": "outcomeIndex",
              "type": "uint256"
            },
            {
              "internalType": "enum PolyBet.BetSlipStatus",
              "name": "status",
              "type": "uint8"
            },
            {
              "internalType": "string",
              "name": "failureReason",
              "type": "string"
            },
            {
              "internalType": "bytes32[]",
              "name": "marketplaceIds",
              "type": "bytes32[]"
            },
            {
              "internalType": "bytes32[]",
              "name": "marketIds",
              "type": "bytes32[]"
            },
            {
              "internalType": "bytes32[]",
              "name": "proxiedBets",
              "type": "bytes32[]"
            }
          ],
          "internalType": "struct PolyBet.BetSlip",
          "name": "",
          "type": "tuple"
        }
      ],
      "stateMutability": "view",
      "type": "function"
    },
    {
      "inputs": [
        {
          "internalType": "uint256",
          "name": "marketplaceId",
          "type": "uint256"
        }
      ],
      "name": "getMarketplace",
      "outputs": [
        {
          "components": [
            {
              "internalType": "uint256",
              "name": "warpRouterId",
              "type": "uint256"
            },
            {
              "internalType": "uint256",
              "name": "chainId",
              "type": "uint256"
            },
            {
              "internalType": "enum PolyBet.ChainFamily",
              "name": "chainFamily",
              "type": "uint8"
            },
            {
              "internalType": "string",
              "name": "name",
              "type": "string"
            },
            {
              "internalType": "string",
              "name": "marketplaceProxy",
              "type": "string"
            },
            {
              "internalType": "enum PolyBet.PricingStrategy",
              "name": "pricingStrategy",
              "type": "uint8"
            }
          ],
          "internalType": "struct PolyBet.Marketplace",
          "name": "",
          "type": "tuple"
        }
      ],
      "stateMutability": "view",
      "type": "function"
    },
    {
      "inputs": [
        {
          "internalType": "bytes32",
          "name": "betId",
          "type": "bytes32"
        }
      ],
      "name": "getProxiedBet",
      "outputs": [
        {
          "components": [
            {
              "internalType": "bytes32",
              "name": "id",
              "type": "bytes32"
            },
            {
              "internalType": "uint256",
              "name": "betSlipId",
              "type": "uint256"
            },
            {
              "internalType": "uint256",
              "name": "marketplaceId",
              "type": "uint256"
            },
            {
              "internalType": "uint256",
              "name": "marketId",
              "type": "uint256"
            },
            {
              "internalType": "uint256",
              "name": "optionIndex",
              "type": "uint256"
            },
            {
              "internalType": "uint256",
              "name": "minimumShares",
              "type": "uint256"
            },
            {
              "internalType": "uint256",
              "name": "blockTimestamp",
              "type": "uint256"
            },
            {
              "internalType": "uint256",
              "name": "originalCollateralAmount",
              "type": "uint256"
            },
            {
              "internalType": "uint256",
              "name": "finalCollateralAmount",
              "type": "uint256"
            },
            {
              "internalType": "uint256",
              "name": "sharesBought",
              "type": "uint256"
            },
            {
              "internalType": "uint256",
              "name": "sharesSold",
              "type": "uint256"
            },
            {
              "internalType": "enum PolyBet.BetOutcome",
              "name": "outcome",
              "type": "uint8"
            },
            {
              "internalType": "string",
              "name": "failureReason",
              "type": "string"
            }
          ],
          "internalType": "struct PolyBet.ProxiedBet",
          "name": "",
          "type": "tuple"
        }
      ],
      "stateMutability": "view",
      "type": "function"
    },
    {
      "inputs": [],
      "name": "getUserActiveBetslips",
      "outputs": [
        {
          "internalType": "uint256[]",
          "name": "",
          "type": "uint256[]"
        }
      ],
      "stateMutability": "view",
      "type": "function"
    },
    {
      "inputs": [
        {
          "internalType": "bytes",
          "name": "authToken",
          "type": "bytes"
        }
      ],
      "name": "getUserActiveBetslips",
      "outputs": [
        {
          "internalType": "uint256[]",
          "name": "",
          "type": "uint256[]"
        }
      ],
      "stateMutability": "view",
      "type": "function"
    },
    {
      "inputs": [
        {
          "internalType": "bytes",
          "name": "authToken",
          "type": "bytes"
        }
      ],
      "name": "getUserBalance",
      "outputs": [
        {
          "internalType": "uint256",
          "name": "",
          "type": "uint256"
        }
      ],
      "stateMutability": "view",
      "type": "function"
    },
    {
      "inputs": [],
      "name": "getUserBalance",
      "outputs": [
        {
          "internalType": "uint256",
          "name": "",
          "type": "uint256"
        }
      ],
      "stateMutability": "view",
      "type": "function"
    },
    {
      "inputs": [
        {
          "internalType": "bytes",
          "name": "authToken",
          "type": "bytes"
        }
      ],
      "name": "getUserClosedBets",
      "outputs": [
        {
          "internalType": "uint256[]",
          "name": "",
          "type": "uint256[]"
        }
      ],
      "stateMutability": "view",
      "type": "function"
    },
    {
      "inputs": [],
      "name": "getUserClosedBets",
      "outputs": [
        {
          "internalType": "uint256[]",
          "name": "",
          "type": "uint256[]"
        }
      ],
      "stateMutability": "view",
      "type": "function"
    },
    {
      "inputs": [
        {
          "internalType": "enum PolyBet.BetSlipStrategy",
          "name": "",
          "type": "uint8"
        },
        {
          "internalType": "uint256",
          "name": "",
          "type": "uint256"
        },
        {
          "internalType": "uint256",
          "name": "",
          "type": "uint256"
        },
        {
          "internalType": "bool",
          "name": "",
          "type": "bool"
        }
      ],
      "name": "initiateSellProxiedBets",
      "outputs": [],
      "stateMutability": "view",
      "type": "function"
    },
    {
      "inputs": [
        {
          "internalType": "string",
          "name": "siweMsg",
          "type": "string"
        },
        {
          "components": [
            {
              "internalType": "bytes32",
              "name": "r",
              "type": "bytes32"
            },
            {
              "internalType": "bytes32",
              "name": "s",
              "type": "bytes32"
            },
            {
              "internalType": "uint256",
              "name": "v",
              "type": "uint256"
            }
          ],
          "internalType": "struct SignatureRSV",
          "name": "sig",
          "type": "tuple"
        }
      ],
      "name": "login",
      "outputs": [
        {
          "internalType": "bytes",
          "name": "",
          "type": "bytes"
        }
      ],
      "stateMutability": "view",
      "type": "function"
    },
    {
      "inputs": [
        {
          "internalType": "uint256",
          "name": "",
          "type": "uint256"
        }
      ],
      "name": "marketplaces",
      "outputs": [
        {
          "internalType": "uint256",
          "name": "warpRouterId",
          "type": "uint256"
        },
        {
          "internalType": "uint256",
          "name": "chainId",
          "type": "uint256"
        },
        {
          "internalType": "enum PolyBet.ChainFamily",
          "name": "chainFamily",
          "type": "uint8"
        },
        {
          "internalType": "string",
          "name": "name",
          "type": "string"
        },
        {
          "internalType": "string",
          "name": "marketplaceProxy",
          "type": "string"
        },
        {
          "internalType": "enum PolyBet.PricingStrategy",
          "name": "pricingStrategy",
          "type": "uint8"
        }
      ],
      "stateMutability": "view",
      "type": "function"
    },
    {
      "inputs": [],
      "name": "musdcToken",
      "outputs": [
        {
          "internalType": "contract IERC20",
          "name": "",
          "type": "address"
        }
      ],
      "stateMutability": "view",
      "type": "function"
    },
    {
      "inputs": [],
      "name": "owner",
      "outputs": [
        {
          "internalType": "address",
          "name": "",
          "type": "address"
        }
      ],
      "stateMutability": "view",
      "type": "function"
    },
    {
      "inputs": [
        {
          "internalType": "enum PolyBet.BetSlipStrategy",
          "name": "strategy",
          "type": "uint8"
        },
        {
          "internalType": "uint256",
          "name": "totalCollateralAmount",
          "type": "uint256"
        },
        {
          "internalType": "uint256",
          "name": "outcomeIndex",
          "type": "uint256"
        },
        {
          "internalType": "bytes32[]",
          "name": "marketplaceIds",
          "type": "bytes32[]"
        },
        {
          "internalType": "bytes32[]",
          "name": "marketIds",
          "type": "bytes32[]"
        }
      ],
      "name": "placeBet",
      "outputs": [],
      "stateMutability": "nonpayable",
      "type": "function"
    },
    {
      "inputs": [
        {
          "internalType": "bytes32",
          "name": "",
          "type": "bytes32"
        }
      ],
      "name": "proxiedBets",
      "outputs": [
        {
          "internalType": "bytes32",
          "name": "id",
          "type": "bytes32"
        },
        {
          "internalType": "uint256",
          "name": "betSlipId",
          "type": "uint256"
        },
        {
          "internalType": "uint256",
          "name": "marketplaceId",
          "type": "uint256"
        },
        {
          "internalType": "uint256",
          "name": "marketId",
          "type": "uint256"
        },
        {
          "internalType": "uint256",
          "name": "optionIndex",
          "type": "uint256"
        },
        {
          "internalType": "uint256",
          "name": "minimumShares",
          "type": "uint256"
        },
        {
          "internalType": "uint256",
          "name": "blockTimestamp",
          "type": "uint256"
        },
        {
          "internalType": "uint256",
          "name": "originalCollateralAmount",
          "type": "uint256"
        },
        {
          "internalType": "uint256",
          "name": "finalCollateralAmount",
          "type": "uint256"
        },
        {
          "internalType": "uint256",
          "name": "sharesBought",
          "type": "uint256"
        },
        {
          "internalType": "uint256",
          "name": "sharesSold",
          "type": "uint256"
        },
        {
          "internalType": "enum PolyBet.BetOutcome",
          "name": "outcome",
          "type": "uint8"
        },
        {
          "internalType": "string",
          "name": "failureReason",
          "type": "string"
        }
      ],
      "stateMutability": "view",
      "type": "function"
    },
    {
      "inputs": [
        {
          "internalType": "bytes32",
          "name": "proxiedBetId",
          "type": "bytes32"
        },
        {
          "internalType": "enum PolyBet.BetOutcome",
          "name": "outcome",
          "type": "uint8"
        },
        {
          "internalType": "uint256",
          "name": "winningsCollateralValue",
          "type": "uint256"
        }
      ],
      "name": "recordProxiedBetClosed",
      "outputs": [],
      "stateMutability": "nonpayable",
      "type": "function"
    },
    {
      "inputs": [
        {
          "internalType": "uint256",
          "name": "betSlipId",
          "type": "uint256"
        },
        {
          "components": [
            {
              "internalType": "bytes32",
              "name": "id",
              "type": "bytes32"
            },
            {
              "internalType": "uint256",
              "name": "betSlipId",
              "type": "uint256"
            },
            {
              "internalType": "uint256",
              "name": "marketplaceId",
              "type": "uint256"
            },
            {
              "internalType": "uint256",
              "name": "marketId",
              "type": "uint256"
            },
            {
              "internalType": "uint256",
              "name": "optionIndex",
              "type": "uint256"
            },
            {
              "internalType": "uint256",
              "name": "minimumShares",
              "type": "uint256"
            },
            {
              "internalType": "uint256",
              "name": "blockTimestamp",
              "type": "uint256"
            },
            {
              "internalType": "uint256",
              "name": "originalCollateralAmount",
              "type": "uint256"
            },
            {
              "internalType": "uint256",
              "name": "finalCollateralAmount",
              "type": "uint256"
            },
            {
              "internalType": "uint256",
              "name": "sharesBought",
              "type": "uint256"
            },
            {
              "internalType": "uint256",
              "name": "sharesSold",
              "type": "uint256"
            },
            {
              "internalType": "enum PolyBet.BetOutcome",
              "name": "outcome",
              "type": "uint8"
            },
            {
              "internalType": "string",
              "name": "failureReason",
              "type": "string"
            }
          ],
          "internalType": "struct PolyBet.ProxiedBet",
          "name": "proxiedBet",
          "type": "tuple"
        }
      ],
      "name": "recordProxiedBetPlaced",
      "outputs": [],
      "stateMutability": "nonpayable",
      "type": "function"
    },
    {
      "inputs": [
        {
          "internalType": "uint256",
          "name": "",
          "type": "uint256"
        },
        {
          "internalType": "uint256",
          "name": "",
          "type": "uint256"
        },
        {
          "internalType": "uint256",
          "name": "",
          "type": "uint256"
        }
      ],
      "name": "recordProxiedBetSold",
      "outputs": [],
      "stateMutability": "view",
      "type": "function"
    },
    {
      "inputs": [],
      "name": "renounceOwnership",
      "outputs": [],
      "stateMutability": "nonpayable",
      "type": "function"
    },
    {
      "inputs": [
        {
          "internalType": "address",
          "name": "_musdcToken",
          "type": "address"
        }
      ],
      "name": "setCollateralToken",
      "outputs": [],
      "stateMutability": "nonpayable",
      "type": "function"
    },
    {
      "inputs": [
        {
          "internalType": "address",
          "name": "newOwner",
          "type": "address"
        }
      ],
      "name": "transferOwnership",
      "outputs": [],
      "stateMutability": "nonpayable",
      "type": "function"
    },
    {
      "inputs": [
        {
          "internalType": "uint256",
          "name": "betSlipId",
          "type": "uint256"
        },
        {
          "internalType": "enum PolyBet.BetSlipStatus",
          "name": "status",
          "type": "uint8"
        }
      ],
      "name": "updateBetSlipStatus",
      "outputs": [],
      "stateMutability": "nonpayable",
      "type": "function"
    },
    {
      "inputs": [
        {
          "internalType": "address",
          "name": "",
          "type": "address"
        },
        {
          "internalType": "uint256",
          "name": "",
          "type": "uint256"
        }
      ],
      "name": "userActiveBetSlips",
      "outputs": [
        {
          "internalType": "uint256",
          "name": "",
          "type": "uint256"
        }
      ],
      "stateMutability": "view",
      "type": "function"
    },
    {
      "inputs": [
        {
          "internalType": "address",
          "name": "",
          "type": "address"
        },
        {
          "internalType": "uint256",
          "name": "",
          "type": "uint256"
        }
      ],
      "name": "userClosedBetSlips",
      "outputs": [
        {
          "internalType": "uint256",
          "name": "",
          "type": "uint256"
        }
      ],
      "stateMutability": "view",
      "type": "function"
    },
    {
      "inputs": [
        {
          "internalType": "uint256",
          "name": "amount",
          "type": "uint256"
        }
      ],
      "name": "withdrawWinnings",
      "outputs": [],
      "stateMutability": "nonpayable",
      "type": "function"
    }
  ],
  "bytecode": "0x608060405234801561001057600080fd5b5060405180604001604052806007815260200166141bdb1e50995d60ca1b81525061005160206040518060200160405280600081525061007a60201b60201c565b61005a906101ba565b6002556001610069828261027a565b50610075905033610168565b6103b2565b60606000807301000000000000000000000000000000000000016001600160a01b031685856040516020016100b092919061035c565b60408051601f19818403018152908290526100ca91610396565b600060405180830381855afa9150503d8060008114610105576040519150601f19603f3d011682016040523d82523d6000602084013e61010a565b606091505b5091509150816101605760405162461bcd60e51b815260206004820152601360248201527f72616e646f6d42797465733a206661696c656400000000000000000000000000604482015260640160405180910390fd5b949350505050565b600380546001600160a01b038381166001600160a01b0319831681179093556040519116919082907f8be0079c531659141344cd1fd0a4f28419497f9722a3daafe3b4186f6b6457e090600090a35050565b805160208083015191908110156101db576000198160200360031b1b821691505b50919050565b634e487b7160e01b600052604160045260246000fd5b600181811c9082168061020b57607f821691505b6020821081036101db57634e487b7160e01b600052602260045260246000fd5b601f82111561027557806000526020600020601f840160051c810160208510156102525750805b601f840160051c820191505b81811015610272576000815560010161025e565b50505b505050565b81516001600160401b03811115610293576102936101e1565b6102a7816102a184546101f7565b8461022b565b6020601f8211600181146102db57600083156102c35750848201515b600019600385901b1c1916600184901b178455610272565b600084815260208120601f198516915b8281101561030b57878501518255602094850194600190920191016102eb565b50848210156103295786840151600019600387901b60f8161c191681555b50505050600190811b01905550565b60005b8381101561035357818101518382015260200161033b565b50506000910152565b8281526040602082015260008251806040840152610381816060850160208701610338565b601f01601f1916919091016060019392505050565b600082516103a8818460208701610338565b9190910192915050565b6158b3806103c16000396000f3fe608060405234801561001057600080fd5b50600436106101cf5760003560e01c80637f476b6f11610104578063c2fb26a6116100a2578063e75a88a011610071578063e75a88a014610429578063f1b9ea171461043c578063f2fde38b1461045c578063f53aac2a1461046f57600080fd5b8063c2fb26a6146103f3578063d1d758cb146103fb578063d69418f31461040e578063daee6fbc1461041657600080fd5b8063974d4ed8116100de578063974d4ed8146103975780639f88151e146103c3578063b7013dc1146103d6578063b76ebb56146103de57600080fd5b80637f476b6f1461034b57806388a3469c1461036b5780638da5cb5b1461037957600080fd5b806332d268a51161017157806358dee0541161014b57806358dee0541461030a578063666181a91461031d578063715018a6146103305780637d5559d91461033857600080fd5b806332d268a5146102b25780635023a0c9146102d257806356037c71146102f757600080fd5b806329ec9442116101ad57806329ec9442146102465780632a6d3e9b146102675780632b64deec1461027a5780633074eebc1461029f57600080fd5b806314794702146101d457806315534b70146101e9578063212e94c914610233575b600080fd5b6101e76101e236600461441c565b61048f565b005b6004546102099073ffffffffffffffffffffffffffffffffffffffff1681565b60405173ffffffffffffffffffffffffffffffffffffffff90911681526020015b60405180910390f35b6101e7610241366004614449565b6105c2565b6102596102543660046144a1565b610899565b60405190815260200161022a565b6101e76102753660046144cd565b6108ca565b61028d61028836600461441c565b610919565b60405161022a969594939291906145c2565b6102596102ad3660046144a1565b610a7c565b6102c56102c036600461441c565b610a98565b60405161022a9190614667565b6102e56102e036600461441c565b610ced565b60405161022a96959493929190614786565b6101e76103053660046147ee565b610dc8565b6101e76103183660046149a7565b610e32565b6101e761032b366004614a42565b610f6a565b6101e7611036565b6101e7610346366004614a5f565b61104a565b61035e610359366004614b63565b61117b565b60405161022a9190614c12565b6101e7610305366004614c25565b60035473ffffffffffffffffffffffffffffffffffffffff16610209565b6103aa6103a536600461441c565b6115ad565b60405161022a9d9c9b9a99989796959493929190614c61565b6102596103d1366004614cdd565b6116a8565b6102596116e0565b6103e661175d565b60405161022a9190614d26565b61035e611825565b6103e6610409366004614cdd565b6118ae565b6103e6611937565b6103e6610424366004614cdd565b6119fd565b6101e7610437366004614df5565b611a84565b61044f61044a36600461441c565b611ed2565b60405161022a9190614e84565b6101e761046a366004614a42565b612030565b61048261047d36600461441c565b6120e4565b60405161022a9190614f2c565b600081116104fe576040517f08c379a000000000000000000000000000000000000000000000000000000000815260206004820152601d60248201527f416d6f756e74206d7573742062652067726561746572207468616e203000000060448201526064015b60405180910390fd5b336000908152600b6020526040902054811115610577576040517f08c379a000000000000000000000000000000000000000000000000000000000815260206004820152601460248201527f496e73756666696369656e742062616c616e636500000000000000000000000060448201526064016104f5565b336000908152600b602052604081208054839290610596908490614ff0565b90915550506004546105bf9073ffffffffffffffffffffffffffffffffffffffff1633836122c1565b50565b6105ca612395565b60008260078111156105de576105de614501565b141580156105fe575060038260078111156105fb576105fb614501565b14155b61060757600080fd5b6000838152600c6020908152604080832060010154808452600890925282205460078054929373ffffffffffffffffffffffffffffffffffffffff909216928490811061065657610656615003565b60009182526020808320898452600c9091526040909220600b018054600990920290920192508691907fffffffffffffffffffffffffffffffffffffffffffffffffffffffffffffff001660018360078111156106b5576106b5614501565b02179055506000868152600c602052604081206008018590556002820180548692906106e2908490615032565b909155505073ffffffffffffffffffffffffffffffffffffffff82166000908152600b60205260408120805486929061071c908490615032565b90915550600090505b600882015481101561078957610774600c600084600801848154811061074d5761074d615003565b600091825260208083209091015483528201929092526040019020600b015460ff16612416565b6107815750505050505050565b600101610725565b5073ffffffffffffffffffffffffffffffffffffffff82166000908152600960205260408120905b815481101561085b57848282815481106107cd576107cd615003565b90600052602060002001540361085357815482906107ed90600190614ff0565b815481106107fd576107fd615003565b906000526020600020015482828154811061081a5761081a615003565b90600052602060002001819055508180548061083857610838615045565b6001900381819060005260206000200160009055905561085b565b6001016107b1565b50505073ffffffffffffffffffffffffffffffffffffffff166000908152600a6020908152604082208054600181018255908352912001555b505050565b600a60205281600052604060002081815481106108b557600080fd5b90600052602060002001600091509150505481565b80600783815481106108de576108de615003565b906000526020600020906009020160040160006101000a81548160ff0219169083600481111561091057610910614501565b02179055505050565b6006818154811061092957600080fd5b60009182526020909120600690910201805460018201546002830154600384018054939550919360ff9091169290919061096290615074565b80601f016020809104026020016040519081016040528092919081815260200182805461098e90615074565b80156109db5780601f106109b0576101008083540402835291602001916109db565b820191906000526020600020905b8154815290600101906020018083116109be57829003601f168201915b5050505050908060040180546109f090615074565b80601f0160208091040260200160405190810160405280929190818152602001828054610a1c90615074565b8015610a695780601f10610a3e57610100808354040283529160200191610a69565b820191906000526020600020905b815481529060010190602001808311610a4c57829003601f168201915b5050506005909301549192505060ff1686565b600960205281600052604060002081815481106108b557600080fd5b610aa061427d565b60078281548110610ab357610ab3615003565b600091825260209091206040805161012081019091526009909202018054829060ff166001811115610ae757610ae7614501565b6001811115610af857610af8614501565b815260018201546020820152600282015460408201526003820154606082015260048083015460809092019160ff1690811115610b3757610b37614501565b6004811115610b4857610b48614501565b8152602001600582018054610b5c90615074565b80601f0160208091040260200160405190810160405280929190818152602001828054610b8890615074565b8015610bd55780601f10610baa57610100808354040283529160200191610bd5565b820191906000526020600020905b815481529060010190602001808311610bb857829003601f168201915b5050505050815260200160068201805480602002602001604051908101604052809291908181526020018280548015610c2d57602002820191906000526020600020905b815481526020019060010190808311610c19575b5050505050815260200160078201805480602002602001604051908101604052809291908181526020018280548015610c8557602002820191906000526020600020905b815481526020019060010190808311610c71575b5050505050815260200160088201805480602002602001604051908101604052809291908181526020018280548015610cdd57602002820191906000526020600020905b815481526020019060010190808311610cc9575b5050505050815250509050919050565b60078181548110610cfd57600080fd5b600091825260209091206009909102018054600182015460028301546003840154600485015460058601805460ff9687169850949693959294929091169291610d4590615074565b80601f0160208091040260200160405190810160405280929190818152602001828054610d7190615074565b8015610dbe5780601f10610d9357610100808354040283529160200191610dbe565b820191906000526020600020905b815481529060010190602001808311610da157829003601f168201915b5050505050905086565b610dd0612395565b6040517f08c379a000000000000000000000000000000000000000000000000000000000815260206004820152600f60248201527f6e6f7420696d706c656d656e746564000000000000000000000000000000000060448201526064016104f5565b60066040518060c00160405280600081526020018667ffffffffffffffff168152602001856001811115610e6857610e68614501565b8152602081018590526040810184905260600160029052815460018181018455600093845260209384902083516006909302019182559282015181840155604082015160028201805493949293919290917fffffffffffffffffffffffffffffffffffffffffffffffffffffffffffffff0016908381811115610eed57610eed614501565b021790555060608201516003820190610f069082615108565b5060808201516004820190610f1b9082615108565b5060a08201516005820180547fffffffffffffffffffffffffffffffffffffffffffffffffffffffffffffff00166001836002811115610f5d57610f5d614501565b0217905550505050505050565b610f72612395565b73ffffffffffffffffffffffffffffffffffffffff8116610fef576040517f08c379a000000000000000000000000000000000000000000000000000000000815260206004820152601b60248201527f496e76616c6964204d5553444320746f6b656e2061646472657373000000000060448201526064016104f5565b600480547fffffffffffffffffffffffff00000000000000000000000000000000000000001673ffffffffffffffffffffffffffffffffffffffff92909216919091179055565b61103e612395565b6110486000612451565b565b611052612395565b6007828154811061106557611065615003565b600091825260208083208451600860099485029092018201805460018181018355918752848720019190915585518552600c8352604094859020865181559286015183820155938501516002830155606085015160038301556080850151600483015560a0850151600583015560c0850151600683015560e08501516007808401919091556101008601519183019190915561012085015192820192909255610140840151600a820155610160840151600b8201805486959394929391927fffffffffffffffffffffffffffffffffffffffffffffffffffffffffffffff009091169190849081111561115a5761115a614501565b0217905550610180820151600c8201906111749082615108565b5050505050565b60606111c56040518060a0016040528060608152602001600073ffffffffffffffffffffffffffffffffffffffff1681526020016000815260200160608152602001606081525090565b60006111d0856124c8565b86866040516020016111e493929190615221565b604080517fffffffffffffffffffffffffffffffffffffffffffffffffffffffffffffffe0818403018152828252805160208083019190912060008086528583018086529190915260ff89850135169385019390935287356060850152870135608084015292509060019060a0016020604051602081039080840390855afa158015611274573d6000803e3d6000fd5b50506040517fffffffffffffffffffffffffffffffffffffffffffffffffffffffffffffffe0015173ffffffffffffffffffffffffffffffffffffffff811660208601529150600090506112c88888612587565b9050468160a0015114611307576040517f362c833700000000000000000000000000000000000000000000000000000000815260040160405180910390fd5b60016040516113169190615275565b604051809103902081600001518051906020012014611361576040517f283d62bd00000000000000000000000000000000000000000000000000000000815260040160405180910390fd5b80518452602081015173ffffffffffffffffffffffffffffffffffffffff8381169116146113bb576040517f05cc02e100000000000000000000000000000000000000000000000000000000815260040160405180910390fd5b61012081015151158015906113dd57506113d9816101200151612c39565b4211155b15611414576040517f299d02f100000000000000000000000000000000000000000000000000000000815260040160405180910390fd5b610100810151511561143b576000611430826101000151612c39565b60408601525061144e565b6114486201518042615032565b60408501525b8360400151421061148b576040517fb171155000000000000000000000000000000000000000000000000000000000815260040160405180910390fd5b604081015160608501526101608101515167ffffffffffffffff8111156114b4576114b4614838565b6040519080825280602002602001820160405280156114e757816020015b60608152602001906001900390816114d25790505b50608085015260005b8161016001515181101561154657816101600151818151811061151557611515615003565b60200260200101518560800151828151811061153357611533615003565b60209081029190910101526001016114f0565b5060006115a06002546000801b876040516020016115649190615304565b604080517fffffffffffffffffffffffffffffffffffffffffffffffffffffffffffffffe0818403018152602083019091526000825290612ca8565b9998505050505050505050565b600c60205280600052604060002060009150905080600001549080600101549080600201549080600301549080600401549080600501549080600601549080600701549080600801549080600901549080600a01549080600b0160009054906101000a900460ff169080600c01805461162590615074565b80601f016020809104026020016040519081016040528092919081815260200182805461165190615074565b801561169e5780601f106116735761010080835404028352916020019161169e565b820191906000526020600020905b81548152906001019060200180831161168157829003601f168201915b505050505090508d565b6000806116b483612ddf565b73ffffffffffffffffffffffffffffffffffffffff166000908152600b60205260409020549392505050565b600033611749576040517f08c379a000000000000000000000000000000000000000000000000000000000815260206004820152601760248201527f41757468656e7469636174696f6e20726571756972656400000000000000000060448201526064016104f5565b50336000908152600b602052604090205490565b6060336117c6576040517f08c379a000000000000000000000000000000000000000000000000000000000815260206004820152601760248201527f41757468656e7469636174696f6e20726571756972656400000000000000000060448201526064016104f5565b336000908152600960209081526040918290208054835181840281018401909452808452909183018282801561181b57602002820191906000526020600020905b815481526020019060010190808311611807575b5050505050905090565b60606001805461183490615074565b80601f016020809104026020016040519081016040528092919081815260200182805461186090615074565b801561181b5780601f106118825761010080835404028352916020019161181b565b820191906000526020600020905b81548152906001019060200180831161189057509395945050505050565b606060006118bb83612ddf565b73ffffffffffffffffffffffffffffffffffffffff81166000908152600a6020908152604091829020805483518184028101840190945280845293945091929083018282801561192a57602002820191906000526020600020905b815481526020019060010190808311611916575b5050505050915050919050565b6060336119a0576040517f08c379a000000000000000000000000000000000000000000000000000000000815260206004820152601760248201527f41757468656e7469636174696f6e20726571756972656400000000000000000060448201526064016104f5565b336000908152600a60209081526040918290208054835181840281018401909452808452909183018282801561181b5760200282019190600052602060002090815481526020019060010190808311611807575050505050905090565b60606000611a0a83612ddf565b73ffffffffffffffffffffffffffffffffffffffff8116600090815260096020908152604091829020805483518184028101840190945280845293945091929083018282801561192a5760200282019190600052602060002090815481526020019060010190808311611916575050505050915050919050565b8051825114611aef576040517f08c379a000000000000000000000000000000000000000000000000000000000815260206004820152601860248201527f4172726179206c656e67746873206d757374206d61746368000000000000000060448201526064016104f5565b60008411611b7f576040517f08c379a000000000000000000000000000000000000000000000000000000000815260206004820152602860248201527f436f6c6c61746572616c20616d6f756e74206d7573742062652067726561746560448201527f72207468616e203000000000000000000000000000000000000000000000000060648201526084016104f5565b60005b8251811015611c23576000838281518110611b9f57611b9f615003565b602002602001015160001c90506006805490508110611c1a576040517f08c379a000000000000000000000000000000000000000000000000000000000815260206004820152601660248201527f496e76616c6964206d61726b6574706c6163652049440000000000000000000060448201526064016104f5565b50600101611b82565b50600454611c499073ffffffffffffffffffffffffffffffffffffffff16333087612e5f565b6007805460408051610120810190915290919080886001811115611c6f57611c6f614501565b81526020018781526020016000815260200186815260200160006004811115611c9a57611c9a614501565b8152602001604051806020016040528060008152508152602001858152602001848152602001600067ffffffffffffffff811115611cda57611cda614838565b604051908082528060200260200182016040528015611d03578160200160208202803683370190505b50905281546001818101845560009384526020909320825160099092020180549293909283917fffffffffffffffffffffffffffffffffffffffffffffffffffffffffffffff00909116908381811115611d5f57611d5f614501565b021790555060208201518160010155604082015181600201556060820151816003015560808201518160040160006101000a81548160ff02191690836004811115611dac57611dac614501565b021790555060a08201516005820190611dc59082615108565b5060c08201518051611de19160068401916020909101906142db565b5060e08201518051611dfd9160078401916020909101906142db565b506101008201518051611e1a9160088401916020909101906142db565b505050600081815260086020908152604080832080547fffffffffffffffffffffffff00000000000000000000000000000000000000001633908117909155835260098252822080546001810182559083529082200182905560058054879290611e85908490615032565b92505081905550807fa40b3c87e86bd5f4b59c8ee5d83a7ced69629a25ee5627dccfa8918958b38dc486868686604051611ec29493929190615430565b60405180910390a2505050505050565b611eda614326565b600c6000838152602001908152602001600020604051806101a001604052908160008201548152602001600182015481526020016002820154815260200160038201548152602001600482015481526020016005820154815260200160068201548152602001600782015481526020016008820154815260200160098201548152602001600a8201548152602001600b820160009054906101000a900460ff166007811115611f8b57611f8b614501565b6007811115611f9c57611f9c614501565b8152602001600c82018054611fb090615074565b80601f0160208091040260200160405190810160405280929190818152602001828054611fdc90615074565b8015610cdd5780601f10611ffe57610100808354040283529160200191610cdd565b820191906000526020600020905b81548152906001019060200180831161200c57505050919092525091949350505050565b612038612395565b73ffffffffffffffffffffffffffffffffffffffff81166120db576040517f08c379a000000000000000000000000000000000000000000000000000000000815260206004820152602660248201527f4f776e61626c653a206e6577206f776e657220697320746865207a65726f206160448201527f646472657373000000000000000000000000000000000000000000000000000060648201526084016104f5565b6105bf81612451565b6120ec6143a2565b600682815481106120ff576120ff615003565b90600052602060002090600602016040518060c001604052908160008201548152602001600182015481526020016002820160009054906101000a900460ff16600181111561215057612150614501565b600181111561216157612161614501565b815260200160038201805461217590615074565b80601f01602080910402602001604051908101604052809291908181526020018280546121a190615074565b80156121ee5780601f106121c3576101008083540402835291602001916121ee565b820191906000526020600020905b8154815290600101906020018083116121d157829003601f168201915b5050505050815260200160048201805461220790615074565b80601f016020809104026020016040519081016040528092919081815260200182805461223390615074565b80156122805780601f1061225557610100808354040283529160200191612280565b820191906000526020600020905b81548152906001019060200180831161226357829003601f168201915b5050509183525050600582015460209091019060ff1660028111156122a7576122a7614501565b60028111156122b8576122b8614501565b90525092915050565b60405173ffffffffffffffffffffffffffffffffffffffff83166024820152604481018290526108949084907fa9059cbb00000000000000000000000000000000000000000000000000000000906064015b604080517fffffffffffffffffffffffffffffffffffffffffffffffffffffffffffffffe08184030181529190526020810180517bffffffffffffffffffffffffffffffffffffffffffffffffffffffff167fffffffff0000000000000000000000000000000000000000000000000000000090931692909217909152612ec3565b60035473ffffffffffffffffffffffffffffffffffffffff163314611048576040517f08c379a000000000000000000000000000000000000000000000000000000000815260206004820181905260248201527f4f776e61626c653a2063616c6c6572206973206e6f7420746865206f776e657260448201526064016104f5565b60008082600781111561242b5761242b614501565b1415801561244b5750600182600781111561244857612448614501565b14155b92915050565b6003805473ffffffffffffffffffffffffffffffffffffffff8381167fffffffffffffffffffffffff0000000000000000000000000000000000000000831681179093556040519116919082907f8be0079c531659141344cd1fd0a4f28419497f9722a3daafe3b4186f6b6457e090600090a35050565b606060006124d583612fd2565b600101905060008167ffffffffffffffff8111156124f5576124f5614838565b6040519080825280601f01601f19166020018201604052801561251f576020820181803683370190505b5090508181016020015b7fffffffffffffffffffffffffffffffffffffffffffffffffffffffffffffffff017f3031323334353637383961626364656600000000000000000000000000000000600a86061a8153600a8504945084612529575b509392505050565b61260160405180610180016040528060608152602001600073ffffffffffffffffffffffffffffffffffffffff168152602001606081526020016060815260200160608152602001600081526020016060815260200160608152602001606081526020016060815260200160608152602001606081525090565b61267b60405180610180016040528060608152602001600073ffffffffffffffffffffffffffffffffffffffff168152602001606081526020016060815260200160608152602001600081526020016060815260200160608152602001606081526020016060815260200160608152602001606081525090565b60005b838110156127365784848281811061269857612698615003565b909101357fff00000000000000000000000000000000000000000000000000000000000000167f200000000000000000000000000000000000000000000000000000000000000003905061272e5761272785858080601f016020809104026020016040519081016040528093929190818152602001838380828437600092018290525092508591506130b49050565b8252612736565b60010161267e565b612741603282615032565b90506127a86127a386868080601f01602080910402602001604051908101604052809392919081815260200183838082843760009201919091525061278d925060029150869050615032565b93508361279b602882615032565b9450846130b4565b6131bb565b73ffffffffffffffffffffffffffffffffffffffff1660208301526127ce600282615032565b9050838110801561283c57508484828181106127ec576127ec615003565b9050013560f81c60f81b7effffffffffffffffffffffffffffffffffffffffffffffffffffffffffffff19167f0a0000000000000000000000000000000000000000000000000000000000000014155b1561290f57805b8481101561290d5785858281811061285d5761285d615003565b909101357fff00000000000000000000000000000000000000000000000000000000000000167f0a00000000000000000000000000000000000000000000000000000000000000039050612905576128ee86868080601f0160208091040260200160405190810160405280939291908181526020018383808284376000920191909152508692508591506130b49050565b60408401526128fe816001615032565b915061290d565b600101612843565b505b8061291981615490565b91505061295d85856040518060400160405280600381526020017f555249000000000000000000000000000000000000000000000000000000000081525084613320565b8360600181935082905250506129aa85856040518060400160405280600781526020017f56657273696f6e0000000000000000000000000000000000000000000000000081525084613320565b83608001819350829052505060606129f986866040518060400160405280600881526020017f436861696e20494400000000000000000000000000000000000000000000000081525085613320565b92509050612a06816135bc565b60a084015260408051808201909152600581527f4e6f6e63650000000000000000000000000000000000000000000000000000006020820152612a4d908790879085613320565b60c08501829052905190925060081115612a93576040517fb4bc030c00000000000000000000000000000000000000000000000000000000815260040160405180910390fd5b612ad486866040518060400160405280600981526020017f497373756564204174000000000000000000000000000000000000000000000081525085613320565b8460e0018194508290525050612b2186866040518060400160405280600f81526020017f45787069726174696f6e2054696d65000000000000000000000000000000000081525085613320565b84610100018194508290525050612b6f86866040518060400160405280600a81526020017f4e6f74204265666f72650000000000000000000000000000000000000000000081525085613320565b84610120018194508290525050612bbd86866040518060400160405280600a81526020017f526571756573742049440000000000000000000000000000000000000000000081525085613320565b846101400181945082905250506000612c0d87876040518060400160405280600981526020017f5265736f7572636573000000000000000000000000000000000000000000000081525086613320565b915050828114612c2e57612c22878783613616565b61016086019190915292505b509195945050505050565b600061244b612c53612c4e84600060046130b4565b6135bc565b612c63612c4e85600560076130b4565b612c73612c4e866008600a6130b4565b612c83612c4e87600b600d6130b4565b612c93612c4e88600e60106130b4565b612ca3612c4e89601160136130b4565b613a07565b606060008073010000000000000000000000000000000000000373ffffffffffffffffffffffffffffffffffffffff1687878787604051602001612cef94939291906154c8565b604080517fffffffffffffffffffffffffffffffffffffffffffffffffffffffffffffffe081840301815290829052612d27916154f9565b600060405180830381855afa9150503d8060008114612d62576040519150601f19603f3d011682016040523d82523d6000602084013e612d67565b606091505b509150915081612dd3576040517f08c379a000000000000000000000000000000000000000000000000000000000815260206004820152600f60248201527f656e63727970743a206661696c6564000000000000000000000000000000000060448201526064016104f5565b9150505b949350505050565b80516020808301919091206000908152908190526040812054829060ff1615612e34576040517f9ea6784800000000000000000000000000000000000000000000000000000000815260040160405180910390fd5b8251600003612e465760009150612e59565b6000612e5184613bad565b602001519250505b50919050565b60405173ffffffffffffffffffffffffffffffffffffffff80851660248301528316604482015260648101829052612ebd9085907f23b872dd0000000000000000000000000000000000000000000000000000000090608401612313565b50505050565b6000612f25826040518060400160405280602081526020017f5361666545524332303a206c6f772d6c6576656c2063616c6c206661696c65648152508573ffffffffffffffffffffffffffffffffffffffff16613cd09092919063ffffffff16565b9050805160001480612f46575080806020019051810190612f469190615515565b610894576040517f08c379a000000000000000000000000000000000000000000000000000000000815260206004820152602a60248201527f5361666545524332303a204552433230206f7065726174696f6e20646964206e60448201527f6f7420737563636565640000000000000000000000000000000000000000000060648201526084016104f5565b6000807a184f03e93ff9f4daa797ed6e38ed64bf6a1f010000000000000000831061301b577a184f03e93ff9f4daa797ed6e38ed64bf6a1f010000000000000000830492506040015b6d04ee2d6d415b85acef81000000008310613047576d04ee2d6d415b85acef8100000000830492506020015b662386f26fc10000831061306557662386f26fc10000830492506010015b6305f5e100831061307d576305f5e100830492506008015b612710831061309157612710830492506004015b606483106130a3576064830492506002015b600a831061244b5760010192915050565b606060006130c28484614ff0565b67ffffffffffffffff8111156130da576130da614838565b6040519080825280601f01601f191660200182016040528015613104576020820181803683370190505b509050835b83811080156131185750855181105b156131b25785818151811061312f5761312f615003565b01602001517fff0000000000000000000000000000000000000000000000000000000000000016826131618784614ff0565b8151811061317157613171615003565b60200101907effffffffffffffffffffffffffffffffffffffffffffffffffffffffffffff1916908160001a905350806131aa81615490565b915050613109565b50949350505050565b600081516028146131f8576040517facf8696900000000000000000000000000000000000000000000000000000000815260040160405180910390fd5b6000600283516132089190615532565b67ffffffffffffffff81111561322057613220614838565b6040519080825280601f01601f19166020018201604052801561324a576020820181803683370190505b50905060005b6002845161325e9190615532565b81101561330c5761329c84613274836002615546565b61327f906001615032565b8151811061328f5761328f615003565b016020015160f81c613cdf565b6132ab8561327f846002615546565b6132b690601061555d565b6132c09190615579565b60f81b8282815181106132d5576132d5615003565b60200101907effffffffffffffffffffffffffffffffffffffffffffffffffffffffffffff1916908160001a905350600101613250565b5061331681615592565b60601c9392505050565b60606000825b858110156134a35786868281811061334057613340615003565b909101357fff00000000000000000000000000000000000000000000000000000000000000167f3a000000000000000000000000000000000000000000000000000000000000000390506134915784805190602001206133d988888080601f0160208091040260200160405190810160405280939291908181526020018383808284376000920191909152508992508691506130b49050565b80519060200120146133fe5750506040805160208101909152600081529050816135b3565b8061340881615490565b9150508581108015613476575086868281811061342757613427615003565b9050013560f81c60f81b7effffffffffffffffffffffffffffffffffffffffffffffffffffffffffffff19167f2000000000000000000000000000000000000000000000000000000000000000145b15613489578061348581615490565b9150505b8093506134a3565b8061349b81615490565b915050613326565b8581101561356b578686828181106134bd576134bd615003565b909101357fff00000000000000000000000000000000000000000000000000000000000000167f0a000000000000000000000000000000000000000000000000000000000000000390506135635761354e87878080601f0160208091040260200160405190810160405280939291908181526020018383808284376000920191909152508892508591506130b49050565b613559826001615032565b92509250506135b3565b6001016134a3565b6135ae87878080601f0160208091040260200160405190810160405280939291908181526020018383808284376000920191909152508892508591506130b49050565b925090505b94509492505050565b600080805b835181101561360f5760308482815181106135de576135de615003565b01602001516135f0919060f81c614ff0565b6135fb83600a615546565b6136059190615032565b91506001016135c1565b5092915050565b6060600082815b613628600187614ff0565b8210156137a35786868381811061364157613641615003565b9050013560f81c60f81b7effffffffffffffffffffffffffffffffffffffffffffffffffffffffffffff19167f2d00000000000000000000000000000000000000000000000000000000000000148015613701575086866136a3846001615032565b8181106136b2576136b2615003565b9050013560f81c60f81b7effffffffffffffffffffffffffffffffffffffffffffffffffffffffffffff19167f2000000000000000000000000000000000000000000000000000000000000000145b1561372557613711600283615032565b91508061371d81615490565b91505061372a565b6137a3565b858210801561377a575086868381811061374657613746615003565b9050013560f81c60f81b7effffffffffffffffffffffffffffffffffffffffffffffffffffffffffffff1916600a60f81b14155b15613791578161378981615490565b92505061372a565b8161379b81615490565b92505061361d565b60008167ffffffffffffffff8111156137be576137be614838565b6040519080825280602002602001820160405280156137f157816020015b60608152602001906001900390816137dc5790505b50905085925060005b613805600189614ff0565b841080156138135750828114155b156139f95788888581811061382a5761382a615003565b9050013560f81c60f81b7effffffffffffffffffffffffffffffffffffffffffffffffffffffffffffff19167f2d000000000000000000000000000000000000000000000000000000000000001480156138ea5750888861388c866001615032565b81811061389b5761389b615003565b9050013560f81c60f81b7effffffffffffffffffffffffffffffffffffffffffffffffffffffffffffff19167f2000000000000000000000000000000000000000000000000000000000000000145b156138fd576138fa846002615032565b96505b878410801561394d575088888581811061391957613919615003565b9050013560f81c60f81b7effffffffffffffffffffffffffffffffffffffffffffffffffffffffffffff1916600a60f81b14155b15613964578361395c81615490565b9450506138fd565b6139a789898080601f0160208091040260200160405190810160405280939291908181526020018383808284376000920191909152508b92508891506130b49050565b8282815181106139b9576139b9615003565b602002602001018190525080806139cf90615490565b9150508784036139e757836139e3816155fe565b9450505b836139f181615490565b9450506137fa565b509791965090945050505050565b60006107b25b8761ffff168161ffff161015613a5957613a2681613efb565b15613a4057613a396301e2850083615032565b9150613a51565b613a4e6301e1338083615032565b91505b600101613a0d565b613a616143e8565b601f8152613a6e89613efb565b15613a7f57601d6020820152613a87565b601c60208201525b601f60408201819052601e606083018190526080830182905260a0830181905260c0830182905260e0830182905261010083018190526101208301829052610140830152610160820152600191505b8760ff168261ffff161015613b345780613af1600184615633565b61ffff16600c8110613b0557613b05615003565b6020020151613b17906201518061564d565b613b279063ffffffff1684615032565b9250600190910190613ad6565b613b3f60018861566c565b613b4f9060ff166201518061564d565b613b5f9063ffffffff1684615032565b9250613b7060ff8716610e1061564d565b613b809063ffffffff1684615032565b9250613b9060ff8616603c615685565b613b9e9061ffff1684615032565b92506115a060ff851684615032565b613bf56040518060a0016040528060608152602001600073ffffffffffffffffffffffffffffffffffffffff1681526020016000815260200160608152602001606081525090565b6000613c176002546000801b8560405180602001604052806000815250613f5a565b9050600081806020019051810190613c2f9190615775565b90506001604051613c409190615275565b604051809103902081600001518051906020012014613c8b576040517f283d62bd00000000000000000000000000000000000000000000000000000000815260040160405180910390fd5b4281604001511015613cc9576040517fb171155000000000000000000000000000000000000000000000000000000000815260040160405180910390fd5b9392505050565b6060612dd78484600085614085565b60007f300000000000000000000000000000000000000000000000000000000000000060f883901b7fff000000000000000000000000000000000000000000000000000000000000001610801590613d7d57507f390000000000000000000000000000000000000000000000000000000000000060f883901b7fff000000000000000000000000000000000000000000000000000000000000001611155b15613d8d5761244b60308361566c565b7f610000000000000000000000000000000000000000000000000000000000000060f883901b7fff000000000000000000000000000000000000000000000000000000000000001610801590613e2957507f660000000000000000000000000000000000000000000000000000000000000060f883901b7fff000000000000000000000000000000000000000000000000000000000000001611155b15613e45576061613e3b83600a615579565b61244b919061566c565b7f410000000000000000000000000000000000000000000000000000000000000060f883901b7fff000000000000000000000000000000000000000000000000000000000000001610801590613ee157507f460000000000000000000000000000000000000000000000000000000000000060f883901b7fff000000000000000000000000000000000000000000000000000000000000001611155b15613ef3576041613e3b83600a615579565b506000919050565b6000613f08600483615859565b61ffff1615613f1957506000919050565b613f24606483615859565b61ffff1615613f3557506001919050565b613f4161019083615859565b61ffff1615613f5257506000919050565b506001919050565b606060008073010000000000000000000000000000000000000473ffffffffffffffffffffffffffffffffffffffff1687878787604051602001613fa194939291906154c8565b604080517fffffffffffffffffffffffffffffffffffffffffffffffffffffffffffffffe081840301815290829052613fd9916154f9565b600060405180830381855afa9150503d8060008114614014576040519150601f19603f3d011682016040523d82523d6000602084013e614019565b606091505b509150915081612dd3576040517f08c379a000000000000000000000000000000000000000000000000000000000815260206004820152600f60248201527f646563727970743a206661696c6564000000000000000000000000000000000060448201526064016104f5565b606082471015614117576040517f08c379a000000000000000000000000000000000000000000000000000000000815260206004820152602660248201527f416464726573733a20696e73756666696369656e742062616c616e636520666f60448201527f722063616c6c000000000000000000000000000000000000000000000000000060648201526084016104f5565b6000808673ffffffffffffffffffffffffffffffffffffffff16858760405161414091906154f9565b60006040518083038185875af1925050503d806000811461417d576040519150601f19603f3d011682016040523d82523d6000602084013e614182565b606091505b50915091506141938783838761419e565b979650505050505050565b6060831561423457825160000361422d5773ffffffffffffffffffffffffffffffffffffffff85163b61422d576040517f08c379a000000000000000000000000000000000000000000000000000000000815260206004820152601d60248201527f416464726573733a2063616c6c20746f206e6f6e2d636f6e747261637400000060448201526064016104f5565b5081612dd7565b612dd783838151156142495781518083602001fd5b806040517f08c379a00000000000000000000000000000000000000000000000000000000081526004016104f59190614c12565b6040805161012081019091528060008152602001600081526020016000815260200160008152602001600060048111156142b9576142b9614501565b8152602001606081526020016060815260200160608152602001606081525090565b828054828255906000526020600020908101928215614316579160200282015b828111156143165782518255916020019190600101906142fb565b50614322929150614407565b5090565b604051806101a0016040528060008019168152602001600081526020016000815260200160008152602001600081526020016000815260200160008152602001600081526020016000815260200160008152602001600081526020016000600781111561439557614395614501565b8152602001606081525090565b6040518060c001604052806000815260200160008152602001600060018111156143ce576143ce614501565b815260606020820181905260408201819052016000905290565b604051806101800160405280600c906020820280368337509192915050565b5b808211156143225760008155600101614408565b60006020828403121561442e57600080fd5b5035919050565b80356008811061444457600080fd5b919050565b60008060006060848603121561445e57600080fd5b8335925061446e60208501614435565b929592945050506040919091013590565b73ffffffffffffffffffffffffffffffffffffffff811681146105bf57600080fd5b600080604083850312156144b457600080fd5b82356144bf8161447f565b946020939093013593505050565b600080604083850312156144e057600080fd5b823591506020830135600581106144f657600080fd5b809150509250929050565b7f4e487b7100000000000000000000000000000000000000000000000000000000600052602160045260246000fd5b600281106105bf576105bf614501565b60005b8381101561455b578181015183820152602001614543565b50506000910152565b6000815180845261457c816020860160208601614540565b601f017fffffffffffffffffffffffffffffffffffffffffffffffffffffffffffffffe0169290920160200192915050565b600381106145be576145be614501565b9052565b8681528560208201526145d485614530565b84604082015260c0606082015260006145f060c0830186614564565b82810360808401526146028186614564565b91505061419360a08301846145ae565b6145be81614530565b600581106145be576145be614501565b600081518084526020840193506020830160005b8281101561465d57815186526020958601959091019060010161463f565b5093949350505050565b60208152614679602082018351614612565b602082015160408201526040820151606082015260608201516080820152600060808301516146ab60a084018261461b565b5060a083015161012060c08401526146c7610140840182614564565b905060c08401517fffffffffffffffffffffffffffffffffffffffffffffffffffffffffffffffe08483030160e0850152614702828261462b565b91505060e08401517fffffffffffffffffffffffffffffffffffffffffffffffffffffffffffffffe08483030161010085015261473f828261462b565b9150506101008401517fffffffffffffffffffffffffffffffffffffffffffffffffffffffffffffffe08483030161012085015261477d828261462b565b95945050505050565b61478f87614530565b8681528560208201528460408201528360608201526147b1608082018461461b565b60c060a082015260006147c760c0830184614564565b98975050505050505050565b600281106105bf57600080fd5b80151581146105bf57600080fd5b6000806000806080858703121561480457600080fd5b843561480f816147d3565b93506020850135925060408501359150606085013561482d816147e0565b939692955090935050565b7f4e487b7100000000000000000000000000000000000000000000000000000000600052604160045260246000fd5b6040516101a0810167ffffffffffffffff8111828210171561488b5761488b614838565b60405290565b60405160a0810167ffffffffffffffff8111828210171561488b5761488b614838565b604051601f82017fffffffffffffffffffffffffffffffffffffffffffffffffffffffffffffffe016810167ffffffffffffffff811182821017156148fb576148fb614838565b604052919050565b600067ffffffffffffffff82111561491d5761491d614838565b50601f017fffffffffffffffffffffffffffffffffffffffffffffffffffffffffffffffe01660200190565b600061495c61495784614903565b6148b4565b905082815283838301111561497057600080fd5b828260208301376000602084830101529392505050565b600082601f83011261499857600080fd5b613cc983833560208501614949565b600080600080608085870312156149bd57600080fd5b843567ffffffffffffffff811681146149d557600080fd5b935060208501356149e5816147d3565b9250604085013567ffffffffffffffff811115614a0157600080fd5b614a0d87828801614987565b925050606085013567ffffffffffffffff811115614a2a57600080fd5b614a3687828801614987565b91505092959194509250565b600060208284031215614a5457600080fd5b8135613cc98161447f565b60008060408385031215614a7257600080fd5b82359150602083013567ffffffffffffffff811115614a9057600080fd5b83016101a08186031215614aa357600080fd5b614aab614867565b813581526020808301359082015260408083013590820152606080830135908201526080808301359082015260a0808301359082015260c0808301359082015260e08083013590820152610100808301359082015261012080830135908201526101408083013590820152614b236101608301614435565b61016082015261018082013567ffffffffffffffff811115614b4457600080fd5b614b5087828501614987565b6101808301525080925050509250929050565b60008060008385036080811215614b7957600080fd5b843567ffffffffffffffff811115614b9057600080fd5b8501601f81018713614ba157600080fd5b803567ffffffffffffffff811115614bb857600080fd5b876020828401011115614bca57600080fd5b6020919091019450925060607fffffffffffffffffffffffffffffffffffffffffffffffffffffffffffffffe082011215614c0457600080fd5b506020840190509250925092565b602081526000613cc96020830184614564565b600080600060608486031215614c3a57600080fd5b505081359360208301359350604090920135919050565b600881106145be576145be614501565b8d81528c60208201528b60408201528a60608201528960808201528860a08201528760c08201528660e0820152856101008201528461012082015283610140820152614cb1610160820184614c51565b6101a06101808201526000614cca6101a0830184614564565b9f9e505050505050505050505050505050565b600060208284031215614cef57600080fd5b813567ffffffffffffffff811115614d0657600080fd5b8201601f81018413614d1757600080fd5b612dd784823560208401614949565b602080825282518282018190526000918401906040840190835b81811015614d5e578351835260209384019390920191600101614d40565b509095945050505050565b600067ffffffffffffffff821115614d8357614d83614838565b5060051b60200190565b600082601f830112614d9e57600080fd5b8135614dac61495782614d69565b8082825260208201915060208360051b860101925085831115614dce57600080fd5b602085015b83811015614deb578035835260209283019201614dd3565b5095945050505050565b600080600080600060a08688031215614e0d57600080fd5b8535614e18816147d3565b94506020860135935060408601359250606086013567ffffffffffffffff811115614e4257600080fd5b614e4e88828901614d8d565b925050608086013567ffffffffffffffff811115614e6b57600080fd5b614e7788828901614d8d565b9150509295509295909350565b6020815281516020820152602082015160408201526040820151606082015260608201516080820152608082015160a082015260a082015160c082015260c082015160e082015260e08201516101008201526101008201516101208201526101208201516101408201526101408201516101608201526000610160830151614f10610180840182614c51565b506101808301516101a080840152612dd76101c0840182614564565b60208152815160208201526020820151604082015260006040830151614f5181614530565b80606084015250606083015160c06080840152614f7160e0840182614564565b905060808401517fffffffffffffffffffffffffffffffffffffffffffffffffffffffffffffffe08483030160a0850152614fac8282614564565b91505060a084015161257f60c08501826145ae565b7f4e487b7100000000000000000000000000000000000000000000000000000000600052601160045260246000fd5b8181038181111561244b5761244b614fc1565b7f4e487b7100000000000000000000000000000000000000000000000000000000600052603260045260246000fd5b8082018082111561244b5761244b614fc1565b7f4e487b7100000000000000000000000000000000000000000000000000000000600052603160045260246000fd5b600181811c9082168061508857607f821691505b602082108103612e59577f4e487b7100000000000000000000000000000000000000000000000000000000600052602260045260246000fd5b601f82111561089457806000526020600020601f840160051c810160208510156150e85750805b601f840160051c820191505b8181101561117457600081556001016150f4565b815167ffffffffffffffff81111561512257615122614838565b615136816151308454615074565b846150c1565b6020601f82116001811461518857600083156151525750848201515b7fffffffffffffffffffffffffffffffffffffffffffffffffffffffffffffffff600385901b1c1916600184901b178455611174565b6000848152602081207fffffffffffffffffffffffffffffffffffffffffffffffffffffffffffffffe08516915b828110156151d657878501518255602094850194600190920191016151b6565b508482101561521257868401517fffffffffffffffffffffffffffffffffffffffffffffffffffffffffffffffff600387901b60f8161c191681555b50505050600190811b01905550565b7f19457468657265756d205369676e6564204d6573736167653a0a00000000000081526000845161525981601a850160208901614540565b82018385601a83013760009301601a0192835250909392505050565b600080835461528381615074565b60018216801561529a57600181146152cd57612c2e565b7fffffffffffffffffffffffffffffffffffffffffffffffffffffffffffffff0083168652811515820286019350612c2e565b86600052602060002060005b838110156152f5578154888201526001909101906020016152d9565b50505093909301949350505050565b602081526000825160a0602084015261532060c0840182614564565b905073ffffffffffffffffffffffffffffffffffffffff60208501511660408401526040840151606084015260608401517fffffffffffffffffffffffffffffffffffffffffffffffffffffffffffffffe08483030160808501526153858282614564565b91505060808401517fffffffffffffffffffffffffffffffffffffffffffffffffffffffffffffffe08483030160a085015281815180845260208401915060208160051b85010160208401935060005b82811015615424577fffffffffffffffffffffffffffffffffffffffffffffffffffffffffffffffe086830301845261540f828651614564565b602095860195949094019391506001016153d5565b50979650505050505050565b84815283602082015260806040820152600061544f608083018561462b565b8281036060840152614193818561462b565b7f4e487b7100000000000000000000000000000000000000000000000000000000600052601260045260246000fd5b60007fffffffffffffffffffffffffffffffffffffffffffffffffffffffffffffffff82036154c1576154c1614fc1565b5060010190565b8481528360208201526080604082015260006154e76080830185614564565b82810360608401526141938185614564565b6000825161550b818460208701614540565b9190910192915050565b60006020828403121561552757600080fd5b8151613cc9816147e0565b60008261554157615541615461565b500490565b808202811582820484141761244b5761244b614fc1565b60ff818116838216029081169081811461360f5761360f614fc1565b60ff818116838216019081111561244b5761244b614fc1565b805160208201517fffffffffffffffffffffffffffffffffffffffff0000000000000000000000008116919060148210156155f7577fffffffffffffffffffffffffffffffffffffffff000000000000000000000000808360140360031b1b82161692505b5050919050565b60008161560d5761560d614fc1565b507fffffffffffffffffffffffffffffffffffffffffffffffffffffffffffffffff0190565b61ffff828116828216039081111561244b5761244b614fc1565b63ffffffff818116838216029081169081811461360f5761360f614fc1565b60ff828116828216039081111561244b5761244b614fc1565b61ffff818116838216029081169081811461360f5761360f614fc1565b600082601f8301126156b357600080fd5b81516156c161495782614903565b8181528460208386010111156156d657600080fd5b612dd7826020830160208701614540565b80516144448161447f565b600082601f83011261570357600080fd5b815161571161495782614d69565b8082825260208201915060208360051b86010192508583111561573357600080fd5b602085015b83811015614deb57805167ffffffffffffffff81111561575757600080fd5b615766886020838a01016156a2565b84525060209283019201615738565b60006020828403121561578757600080fd5b815167ffffffffffffffff81111561579e57600080fd5b820160a081850312156157b057600080fd5b6157b8614891565b815167ffffffffffffffff8111156157cf57600080fd5b6157db868285016156a2565b8252506157ea602083016156e7565b602082015260408281015190820152606082015167ffffffffffffffff81111561581357600080fd5b61581f868285016156a2565b606083015250608082015167ffffffffffffffff81111561583f57600080fd5b61584b868285016156f2565b608083015250949350505050565b600061ffff83168061586d5761586d615461565b8061ffff8416069150509291505056fea2646970667358221220685ac6e27debf99fb3b4a2f427c5a5b578848df026a301a2172822f29ca569db64736f6c634300081c0033",
  "linkReferences": {},
  "deployedLinkReferences": {}
}