{
  "_format": "hh-sol-artifact-1",
  "contractName": "PolyBet",
  "sourceName": "contracts/polybet.sol",
  "abi": [
    {
      "inputs": [],
      "stateMutability": "nonpayable",
      "type": "constructor"
    },
    {
      "inputs": [],
      "name": "A13e_RevokedAuthToken",
      "type": "error"
    },
    {
      "inputs": [],
      "name": "SiweAuth_AddressMismatch",
      "type": "error"
    },
    {
      "inputs": [],
      "name": "SiweAuth_ChainIdMismatch",
      "type": "error"
    },
    {
      "inputs": [],
      "name": "SiweAuth_DomainMismatch",
      "type": "error"
    },
    {
      "inputs": [],
      "name": "SiweAuth_Expired",
      "type": "error"
    },
    {
      "inputs": [],
      "name": "SiweAuth_NotBeforeInFuture",
      "type": "error"
    },
    {
      "inputs": [],
      "name": "SiweParser_InvalidAddressLength",
      "type": "error"
    },
    {
      "inputs": [],
      "name": "SiweParser_InvalidNonce",
      "type": "error"
    },
    {
      "anonymous": false,
      "inputs": [
        {
          "indexed": true,
          "internalType": "uint256",
          "name": "betId",
          "type": "uint256"
        },
        {
          "indexed": false,
          "internalType": "uint256",
          "name": "totalCollateralAmount",
          "type": "uint256"
        },
        {
          "indexed": false,
          "internalType": "bytes32[]",
          "name": "marketplaceIds",
          "type": "bytes32[]"
        },
        {
          "indexed": false,
          "internalType": "bytes32[]",
          "name": "marketIds",
          "type": "bytes32[]"
        }
      ],
      "name": "BetSlipCreated",
      "type": "event"
    },
    {
      "anonymous": false,
      "inputs": [
        {
          "indexed": true,
          "internalType": "address",
          "name": "previousOwner",
          "type": "address"
        },
        {
          "indexed": true,
          "internalType": "address",
          "name": "newOwner",
          "type": "address"
        }
      ],
      "name": "OwnershipTransferred",
      "type": "event"
    },
    {
      "inputs": [
        {
          "internalType": "uint64",
          "name": "chainId",
          "type": "uint64"
        },
        {
          "internalType": "enum PolyBet.ChainFamily",
          "name": "family",
          "type": "uint8"
        },
        {
          "internalType": "string",
          "name": "name",
          "type": "string"
        },
        {
          "internalType": "string",
          "name": "marketplaceProxy",
          "type": "string"
        }
      ],
      "name": "addMarketplace",
      "outputs": [],
      "stateMutability": "nonpayable",
      "type": "function"
    },
    {
      "inputs": [
        {
          "internalType": "uint256",
          "name": "",
          "type": "uint256"
        }
      ],
      "name": "betSlips",
      "outputs": [
        {
          "internalType": "enum PolyBet.BetSlipStrategy",
          "name": "strategy",
          "type": "uint8"
        },
        {
          "internalType": "uint256",
          "name": "initialCollateral",
          "type": "uint256"
        },
        {
          "internalType": "uint256",
          "name": "finalCollateral",
          "type": "uint256"
        },
        {
          "internalType": "enum PolyBet.BetOutcome",
          "name": "outcome",
          "type": "uint8"
        },
        {
          "internalType": "enum PolyBet.BetSlipStatus",
          "name": "status",
          "type": "uint8"
        },
        {
          "internalType": "string",
          "name": "failureReason",
          "type": "string"
        }
      ],
      "stateMutability": "view",
      "type": "function"
    },
    {
      "inputs": [],
      "name": "domain",
      "outputs": [
        {
          "internalType": "string",
          "name": "",
          "type": "string"
        }
      ],
      "stateMutability": "view",
      "type": "function"
    },
    {
      "inputs": [
        {
          "internalType": "uint256",
          "name": "betSlipId",
          "type": "uint256"
        }
      ],
      "name": "getBetSlip",
      "outputs": [
        {
          "components": [
            {
              "internalType": "enum PolyBet.BetSlipStrategy",
              "name": "strategy",
              "type": "uint8"
            },
            {
              "internalType": "uint256",
              "name": "initialCollateral",
              "type": "uint256"
            },
            {
              "internalType": "uint256",
              "name": "finalCollateral",
              "type": "uint256"
            },
            {
              "internalType": "enum PolyBet.BetOutcome",
              "name": "outcome",
              "type": "uint8"
            },
            {
              "internalType": "enum PolyBet.BetSlipStatus",
              "name": "status",
              "type": "uint8"
            },
            {
              "internalType": "string",
              "name": "failureReason",
              "type": "string"
            },
            {
              "internalType": "bytes32[]",
              "name": "marketplaceIds",
              "type": "bytes32[]"
            },
            {
              "internalType": "bytes32[]",
              "name": "marketIds",
              "type": "bytes32[]"
            },
            {
              "internalType": "bytes32[]",
              "name": "proxiedBets",
              "type": "bytes32[]"
            }
          ],
          "internalType": "struct PolyBet.BetSlip",
          "name": "",
          "type": "tuple"
        }
      ],
      "stateMutability": "view",
      "type": "function"
    },
    {
      "inputs": [
        {
          "internalType": "uint256",
          "name": "marketplaceId",
          "type": "uint256"
        }
      ],
      "name": "getMarketplace",
      "outputs": [
        {
          "components": [
            {
              "internalType": "uint256",
              "name": "warpRouterId",
              "type": "uint256"
            },
            {
              "internalType": "uint256",
              "name": "chainId",
              "type": "uint256"
            },
            {
              "internalType": "enum PolyBet.ChainFamily",
              "name": "chainFamily",
              "type": "uint8"
            },
            {
              "internalType": "string",
              "name": "name",
              "type": "string"
            },
            {
              "internalType": "string",
              "name": "marketplaceProxy",
              "type": "string"
            },
            {
              "internalType": "enum PolyBet.PricingStrategy",
              "name": "pricingStrategy",
              "type": "uint8"
            }
          ],
          "internalType": "struct PolyBet.Marketplace",
          "name": "",
          "type": "tuple"
        }
      ],
      "stateMutability": "view",
      "type": "function"
    },
    {
      "inputs": [
        {
          "internalType": "bytes32",
          "name": "betId",
          "type": "bytes32"
        }
      ],
      "name": "getProxiedBet",
      "outputs": [
        {
          "components": [
            {
              "internalType": "bytes32",
              "name": "id",
              "type": "bytes32"
            },
            {
              "internalType": "uint256",
              "name": "betSlipId",
              "type": "uint256"
            },
            {
              "internalType": "uint256",
              "name": "marketplaceId",
              "type": "uint256"
            },
            {
              "internalType": "uint256",
              "name": "marketId",
              "type": "uint256"
            },
            {
              "internalType": "uint256",
              "name": "optionIndex",
              "type": "uint256"
            },
            {
              "internalType": "uint256",
              "name": "minimumShares",
              "type": "uint256"
            },
            {
              "internalType": "uint256",
              "name": "blockTimestamp",
              "type": "uint256"
            },
            {
              "internalType": "uint256",
              "name": "originalCollateralAmount",
              "type": "uint256"
            },
            {
              "internalType": "uint256",
              "name": "finalCollateralAmount",
              "type": "uint256"
            },
            {
              "internalType": "uint256",
              "name": "sharesBought",
              "type": "uint256"
            },
            {
              "internalType": "uint256",
              "name": "sharesSold",
              "type": "uint256"
            },
            {
              "internalType": "enum PolyBet.BetOutcome",
              "name": "outcome",
              "type": "uint8"
            },
            {
              "internalType": "string",
              "name": "failureReason",
              "type": "string"
            }
          ],
          "internalType": "struct PolyBet.ProxiedBet",
          "name": "",
          "type": "tuple"
        }
      ],
      "stateMutability": "view",
      "type": "function"
    },
    {
      "inputs": [],
      "name": "getUserActiveBetslips",
      "outputs": [
        {
          "internalType": "uint256[]",
          "name": "",
          "type": "uint256[]"
        }
      ],
      "stateMutability": "view",
      "type": "function"
    },
    {
      "inputs": [
        {
          "internalType": "bytes",
          "name": "authToken",
          "type": "bytes"
        }
      ],
      "name": "getUserActiveBetslips",
      "outputs": [
        {
          "internalType": "uint256[]",
          "name": "",
          "type": "uint256[]"
        }
      ],
      "stateMutability": "view",
      "type": "function"
    },
    {
      "inputs": [
        {
          "internalType": "bytes",
          "name": "authToken",
          "type": "bytes"
        }
      ],
      "name": "getUserBalance",
      "outputs": [
        {
          "internalType": "uint256",
          "name": "",
          "type": "uint256"
        }
      ],
      "stateMutability": "view",
      "type": "function"
    },
    {
      "inputs": [],
      "name": "getUserBalance",
      "outputs": [
        {
          "internalType": "uint256",
          "name": "",
          "type": "uint256"
        }
      ],
      "stateMutability": "view",
      "type": "function"
    },
    {
      "inputs": [
        {
          "internalType": "bytes",
          "name": "authToken",
          "type": "bytes"
        }
      ],
      "name": "getUserClosedBets",
      "outputs": [
        {
          "internalType": "uint256[]",
          "name": "",
          "type": "uint256[]"
        }
      ],
      "stateMutability": "view",
      "type": "function"
    },
    {
      "inputs": [],
      "name": "getUserClosedBets",
      "outputs": [
        {
          "internalType": "uint256[]",
          "name": "",
          "type": "uint256[]"
        }
      ],
      "stateMutability": "view",
      "type": "function"
    },
    {
      "inputs": [
        {
          "internalType": "enum PolyBet.BetSlipStrategy",
          "name": "",
          "type": "uint8"
        },
        {
          "internalType": "uint256",
          "name": "",
          "type": "uint256"
        },
        {
          "internalType": "uint256",
          "name": "",
          "type": "uint256"
        },
        {
          "internalType": "bool",
          "name": "",
          "type": "bool"
        }
      ],
      "name": "initiateSellProxiedBets",
      "outputs": [],
      "stateMutability": "view",
      "type": "function"
    },
    {
      "inputs": [
        {
          "internalType": "string",
          "name": "siweMsg",
          "type": "string"
        },
        {
          "components": [
            {
              "internalType": "bytes32",
              "name": "r",
              "type": "bytes32"
            },
            {
              "internalType": "bytes32",
              "name": "s",
              "type": "bytes32"
            },
            {
              "internalType": "uint256",
              "name": "v",
              "type": "uint256"
            }
          ],
          "internalType": "struct SignatureRSV",
          "name": "sig",
          "type": "tuple"
        }
      ],
      "name": "login",
      "outputs": [
        {
          "internalType": "bytes",
          "name": "",
          "type": "bytes"
        }
      ],
      "stateMutability": "view",
      "type": "function"
    },
    {
      "inputs": [
        {
          "internalType": "uint256",
          "name": "",
          "type": "uint256"
        }
      ],
      "name": "marketplaces",
      "outputs": [
        {
          "internalType": "uint256",
          "name": "warpRouterId",
          "type": "uint256"
        },
        {
          "internalType": "uint256",
          "name": "chainId",
          "type": "uint256"
        },
        {
          "internalType": "enum PolyBet.ChainFamily",
          "name": "chainFamily",
          "type": "uint8"
        },
        {
          "internalType": "string",
          "name": "name",
          "type": "string"
        },
        {
          "internalType": "string",
          "name": "marketplaceProxy",
          "type": "string"
        },
        {
          "internalType": "enum PolyBet.PricingStrategy",
          "name": "pricingStrategy",
          "type": "uint8"
        }
      ],
      "stateMutability": "view",
      "type": "function"
    },
    {
      "inputs": [],
      "name": "musdcToken",
      "outputs": [
        {
          "internalType": "contract IERC20",
          "name": "",
          "type": "address"
        }
      ],
      "stateMutability": "view",
      "type": "function"
    },
    {
      "inputs": [],
      "name": "owner",
      "outputs": [
        {
          "internalType": "address",
          "name": "",
          "type": "address"
        }
      ],
      "stateMutability": "view",
      "type": "function"
    },
    {
      "inputs": [
        {
          "internalType": "enum PolyBet.BetSlipStrategy",
          "name": "strategy",
          "type": "uint8"
        },
        {
          "internalType": "uint256",
          "name": "totalCollateralAmount",
          "type": "uint256"
        },
        {
          "internalType": "bytes32[]",
          "name": "marketplaceIds",
          "type": "bytes32[]"
        },
        {
          "internalType": "bytes32[]",
          "name": "marketIds",
          "type": "bytes32[]"
        }
      ],
      "name": "placeBet",
      "outputs": [],
      "stateMutability": "nonpayable",
      "type": "function"
    },
    {
      "inputs": [
        {
          "internalType": "bytes32",
          "name": "",
          "type": "bytes32"
        }
      ],
      "name": "proxiedBets",
      "outputs": [
        {
          "internalType": "bytes32",
          "name": "id",
          "type": "bytes32"
        },
        {
          "internalType": "uint256",
          "name": "betSlipId",
          "type": "uint256"
        },
        {
          "internalType": "uint256",
          "name": "marketplaceId",
          "type": "uint256"
        },
        {
          "internalType": "uint256",
          "name": "marketId",
          "type": "uint256"
        },
        {
          "internalType": "uint256",
          "name": "optionIndex",
          "type": "uint256"
        },
        {
          "internalType": "uint256",
          "name": "minimumShares",
          "type": "uint256"
        },
        {
          "internalType": "uint256",
          "name": "blockTimestamp",
          "type": "uint256"
        },
        {
          "internalType": "uint256",
          "name": "originalCollateralAmount",
          "type": "uint256"
        },
        {
          "internalType": "uint256",
          "name": "finalCollateralAmount",
          "type": "uint256"
        },
        {
          "internalType": "uint256",
          "name": "sharesBought",
          "type": "uint256"
        },
        {
          "internalType": "uint256",
          "name": "sharesSold",
          "type": "uint256"
        },
        {
          "internalType": "enum PolyBet.BetOutcome",
          "name": "outcome",
          "type": "uint8"
        },
        {
          "internalType": "string",
          "name": "failureReason",
          "type": "string"
        }
      ],
      "stateMutability": "view",
      "type": "function"
    },
    {
      "inputs": [
        {
          "internalType": "bytes32",
          "name": "proxiedBetId",
          "type": "bytes32"
        },
        {
          "internalType": "enum PolyBet.BetOutcome",
          "name": "outcome",
          "type": "uint8"
        },
        {
          "internalType": "uint256",
          "name": "winningsCollateralValue",
          "type": "uint256"
        }
      ],
      "name": "recordProxiedBetClosed",
      "outputs": [],
      "stateMutability": "nonpayable",
      "type": "function"
    },
    {
      "inputs": [
        {
          "internalType": "uint256",
          "name": "betSlipId",
          "type": "uint256"
        },
        {
          "components": [
            {
              "internalType": "bytes32",
              "name": "id",
              "type": "bytes32"
            },
            {
              "internalType": "uint256",
              "name": "betSlipId",
              "type": "uint256"
            },
            {
              "internalType": "uint256",
              "name": "marketplaceId",
              "type": "uint256"
            },
            {
              "internalType": "uint256",
              "name": "marketId",
              "type": "uint256"
            },
            {
              "internalType": "uint256",
              "name": "optionIndex",
              "type": "uint256"
            },
            {
              "internalType": "uint256",
              "name": "minimumShares",
              "type": "uint256"
            },
            {
              "internalType": "uint256",
              "name": "blockTimestamp",
              "type": "uint256"
            },
            {
              "internalType": "uint256",
              "name": "originalCollateralAmount",
              "type": "uint256"
            },
            {
              "internalType": "uint256",
              "name": "finalCollateralAmount",
              "type": "uint256"
            },
            {
              "internalType": "uint256",
              "name": "sharesBought",
              "type": "uint256"
            },
            {
              "internalType": "uint256",
              "name": "sharesSold",
              "type": "uint256"
            },
            {
              "internalType": "enum PolyBet.BetOutcome",
              "name": "outcome",
              "type": "uint8"
            },
            {
              "internalType": "string",
              "name": "failureReason",
              "type": "string"
            }
          ],
          "internalType": "struct PolyBet.ProxiedBet",
          "name": "proxiedBet",
          "type": "tuple"
        }
      ],
      "name": "recordProxiedBetPlaced",
      "outputs": [],
      "stateMutability": "nonpayable",
      "type": "function"
    },
    {
      "inputs": [
        {
          "internalType": "uint256",
          "name": "",
          "type": "uint256"
        },
        {
          "internalType": "uint256",
          "name": "",
          "type": "uint256"
        },
        {
          "internalType": "uint256",
          "name": "",
          "type": "uint256"
        }
      ],
      "name": "recordProxiedBetSold",
      "outputs": [],
      "stateMutability": "view",
      "type": "function"
    },
    {
      "inputs": [],
      "name": "renounceOwnership",
      "outputs": [],
      "stateMutability": "nonpayable",
      "type": "function"
    },
    {
      "inputs": [
        {
          "internalType": "address",
          "name": "_musdcToken",
          "type": "address"
        }
      ],
      "name": "setCollateralToken",
      "outputs": [],
      "stateMutability": "nonpayable",
      "type": "function"
    },
    {
      "inputs": [
        {
          "internalType": "address",
          "name": "newOwner",
          "type": "address"
        }
      ],
      "name": "transferOwnership",
      "outputs": [],
      "stateMutability": "nonpayable",
      "type": "function"
    },
    {
      "inputs": [
        {
          "internalType": "uint256",
          "name": "betSlipId",
          "type": "uint256"
        },
        {
          "internalType": "enum PolyBet.BetSlipStatus",
          "name": "status",
          "type": "uint8"
        }
      ],
      "name": "updateBetSlipStatus",
      "outputs": [],
      "stateMutability": "nonpayable",
      "type": "function"
    },
    {
      "inputs": [
        {
          "internalType": "address",
          "name": "",
          "type": "address"
        },
        {
          "internalType": "uint256",
          "name": "",
          "type": "uint256"
        }
      ],
      "name": "userActiveBetSlips",
      "outputs": [
        {
          "internalType": "uint256",
          "name": "",
          "type": "uint256"
        }
      ],
      "stateMutability": "view",
      "type": "function"
    },
    {
      "inputs": [
        {
          "internalType": "address",
          "name": "",
          "type": "address"
        },
        {
          "internalType": "uint256",
          "name": "",
          "type": "uint256"
        }
      ],
      "name": "userClosedBetSlips",
      "outputs": [
        {
          "internalType": "uint256",
          "name": "",
          "type": "uint256"
        }
      ],
      "stateMutability": "view",
      "type": "function"
    },
    {
      "inputs": [
        {
          "internalType": "uint256",
          "name": "amount",
          "type": "uint256"
        }
      ],
      "name": "withdrawWinnings",
      "outputs": [],
      "stateMutability": "nonpayable",
      "type": "function"
    }
  ],
  "bytecode": "0x608060405234801561001057600080fd5b5060405180604001604052806007815260200166141bdb1e50995d60ca1b81525061005160206040518060200160405280600081525061007a60201b60201c565b61005a906101ba565b6002556001610069828261027a565b50610075905033610168565b6103b2565b60606000807301000000000000000000000000000000000000016001600160a01b031685856040516020016100b092919061035c565b60408051601f19818403018152908290526100ca91610396565b600060405180830381855afa9150503d8060008114610105576040519150601f19603f3d011682016040523d82523d6000602084013e61010a565b606091505b5091509150816101605760405162461bcd60e51b815260206004820152601360248201527f72616e646f6d42797465733a206661696c656400000000000000000000000000604482015260640160405180910390fd5b949350505050565b600380546001600160a01b038381166001600160a01b0319831681179093556040519116919082907f8be0079c531659141344cd1fd0a4f28419497f9722a3daafe3b4186f6b6457e090600090a35050565b805160208083015191908110156101db576000198160200360031b1b821691505b50919050565b634e487b7160e01b600052604160045260246000fd5b600181811c9082168061020b57607f821691505b6020821081036101db57634e487b7160e01b600052602260045260246000fd5b601f82111561027557806000526020600020601f840160051c810160208510156102525750805b601f840160051c820191505b81811015610272576000815560010161025e565b50505b505050565b81516001600160401b03811115610293576102936101e1565b6102a7816102a184546101f7565b8461022b565b6020601f8211600181146102db57600083156102c35750848201515b600019600385901b1c1916600184901b178455610272565b600084815260208120601f198516915b8281101561030b57878501518255602094850194600190920191016102eb565b50848210156103295786840151600019600387901b60f8161c191681555b50505050600190811b01905550565b60005b8381101561035357818101518382015260200161033b565b50506000910152565b8281526040602082015260008251806040840152610381816060850160208701610338565b601f01601f1916919091016060019392505050565b600082516103a8818460208701610338565b9190910192915050565b615875806103c16000396000f3fe608060405234801561001057600080fd5b50600436106101cf5760003560e01c80637d5559d911610104578063b76ebb56116100a2578063daee6fbc11610071578063daee6fbc14610429578063f1b9ea171461043c578063f2fde38b1461045c578063f53aac2a1461046f57600080fd5b8063b76ebb56146103f1578063c2fb26a614610406578063d1d758cb1461040e578063d69418f31461042157600080fd5b80638da5cb5b116100de5780638da5cb5b1461038c578063974d4ed8146103aa5780639f88151e146103d6578063b7013dc1146103e957600080fd5b80637d5559d91461034b5780637f476b6f1461035e57806388a3469c1461037e57600080fd5b806332d268a51161017157806358dee0541161014b57806358dee0541461030a578063666181a91461031d578063715018a61461033057806376334f791461033857600080fd5b806332d268a5146102b25780635023a0c9146102d257806356037c71146102f757600080fd5b806329ec9442116101ad57806329ec9442146102465780632a6d3e9b146102675780632b64deec1461027a5780633074eebc1461029f57600080fd5b806314794702146101d457806315534b70146101e9578063212e94c914610233575b600080fd5b6101e76101e23660046143e0565b61048f565b005b6004546102099073ffffffffffffffffffffffffffffffffffffffff1681565b60405173ffffffffffffffffffffffffffffffffffffffff90911681526020015b60405180910390f35b6101e761024136600461440d565b6105c2565b610259610254366004614465565b610899565b60405190815260200161022a565b6101e7610275366004614491565b6108ca565b61028d6102883660046143e0565b610933565b60405161022a96959493929190614586565b6102596102ad366004614465565b610a96565b6102c56102c03660046143e0565b610ab2565b60405161022a919061463b565b6102e56102e03660046143e0565b610d7d565b60405161022a96959493929190614763565b6101e76103053660046147d2565b610e58565b6101e761031836600461498b565b610ec2565b6101e761032b366004614a26565b610ffa565b6101e76110c6565b6101e7610346366004614acf565b6110da565b6101e7610359366004614b48565b6114c1565b61037161036c366004614c4c565b6115eb565b60405161022a9190614cfb565b6101e7610305366004614d0e565b60035473ffffffffffffffffffffffffffffffffffffffff16610209565b6103bd6103b83660046143e0565b611a1d565b60405161022a9d9c9b9a99989796959493929190614d3a565b6102596103e4366004614db6565b611b18565b610259611b50565b6103f9611bcd565b60405161022a9190614dff565b610371611c95565b6103f961041c366004614db6565b611d1e565b6103f9611da7565b6103f9610437366004614db6565b611e6d565b61044f61044a3660046143e0565b611ef4565b60405161022a9190614e42565b6101e761046a366004614a26565b612052565b61048261047d3660046143e0565b612106565b60405161022a9190614eea565b600081116104fe576040517f08c379a000000000000000000000000000000000000000000000000000000000815260206004820152601d60248201527f416d6f756e74206d7573742062652067726561746572207468616e203000000060448201526064015b60405180910390fd5b336000908152600b6020526040902054811115610577576040517f08c379a000000000000000000000000000000000000000000000000000000000815260206004820152601460248201527f496e73756666696369656e742062616c616e636500000000000000000000000060448201526064016104f5565b336000908152600b602052604081208054839290610596908490614fae565b90915550506004546105bf9073ffffffffffffffffffffffffffffffffffffffff1633836122e3565b50565b6105ca6123b7565b60008260078111156105de576105de6144c5565b141580156105fe575060038260078111156105fb576105fb6144c5565b14155b61060757600080fd5b6000838152600c6020908152604080832060010154808452600890925282205460078054929373ffffffffffffffffffffffffffffffffffffffff909216928490811061065657610656614fc1565b60009182526020808320898452600c9091526040909220600b018054600890920290920192508691907fffffffffffffffffffffffffffffffffffffffffffffffffffffffffffffff001660018360078111156106b5576106b56144c5565b02179055506000868152600c602052604081206008018590556002820180548692906106e2908490614ff0565b909155505073ffffffffffffffffffffffffffffffffffffffff82166000908152600b60205260408120805486929061071c908490614ff0565b90915550600090505b600782015481101561078957610774600c600084600701848154811061074d5761074d614fc1565b600091825260208083209091015483528201929092526040019020600b015460ff16612438565b6107815750505050505050565b600101610725565b5073ffffffffffffffffffffffffffffffffffffffff82166000908152600960205260408120905b815481101561085b57848282815481106107cd576107cd614fc1565b90600052602060002001540361085357815482906107ed90600190614fae565b815481106107fd576107fd614fc1565b906000526020600020015482828154811061081a5761081a614fc1565b90600052602060002001819055508180548061083857610838615003565b6001900381819060005260206000200160009055905561085b565b6001016107b1565b50505073ffffffffffffffffffffffffffffffffffffffff166000908152600a6020908152604082208054600181018255908352912001555b505050565b600a60205281600052604060002081815481106108b557600080fd5b90600052602060002001600091509150505481565b80600783815481106108de576108de614fc1565b6000918252602090912060036008909202010180547fffffffffffffffffffffffffffffffffffffffffffffffffffffffffffff00ff1661010083600481111561092a5761092a6144c5565b02179055505050565b6006818154811061094357600080fd5b60009182526020909120600690910201805460018201546002830154600384018054939550919360ff9091169290919061097c90615032565b80601f01602080910402602001604051908101604052809291908181526020018280546109a890615032565b80156109f55780601f106109ca576101008083540402835291602001916109f5565b820191906000526020600020905b8154815290600101906020018083116109d857829003601f168201915b505050505090806004018054610a0a90615032565b80601f0160208091040260200160405190810160405280929190818152602001828054610a3690615032565b8015610a835780601f10610a5857610100808354040283529160200191610a83565b820191906000526020600020905b815481529060010190602001808311610a6657829003601f168201915b5050506005909301549192505060ff1686565b600960205281600052604060002081815481106108b557600080fd5b610b016040805161012081018252600080825260208201819052918101829052906060820190815260200160008152602001606081526020016060815260200160608152602001606081525090565b60078281548110610b1457610b14614fc1565b600091825260209091206040805161012081019091526008909202018054829060ff166001811115610b4857610b486144c5565b6001811115610b5957610b596144c5565b81526001820154602082015260028201546040820152600382015460609091019060ff166007811115610b8e57610b8e6144c5565b6007811115610b9f57610b9f6144c5565b81526020016003820160019054906101000a900460ff166004811115610bc757610bc76144c5565b6004811115610bd857610bd86144c5565b8152602001600482018054610bec90615032565b80601f0160208091040260200160405190810160405280929190818152602001828054610c1890615032565b8015610c655780601f10610c3a57610100808354040283529160200191610c65565b820191906000526020600020905b815481529060010190602001808311610c4857829003601f168201915b5050505050815260200160058201805480602002602001604051908101604052809291908181526020018280548015610cbd57602002820191906000526020600020905b815481526020019060010190808311610ca9575b5050505050815260200160068201805480602002602001604051908101604052809291908181526020018280548015610d1557602002820191906000526020600020905b815481526020019060010190808311610d01575b5050505050815260200160078201805480602002602001604051908101604052809291908181526020018280548015610d6d57602002820191906000526020600020905b815481526020019060010190808311610d59575b5050505050815250509050919050565b60078181548110610d8d57600080fd5b60009182526020909120600890910201805460018201546002830154600384015460048501805460ff95861697509395929482811694610100909304169291610dd590615032565b80601f0160208091040260200160405190810160405280929190818152602001828054610e0190615032565b8015610e4e5780601f10610e2357610100808354040283529160200191610e4e565b820191906000526020600020905b815481529060010190602001808311610e3157829003601f168201915b5050505050905086565b610e606123b7565b6040517f08c379a000000000000000000000000000000000000000000000000000000000815260206004820152600f60248201527f6e6f7420696d706c656d656e746564000000000000000000000000000000000060448201526064016104f5565b60066040518060c00160405280600081526020018667ffffffffffffffff168152602001856001811115610ef857610ef86144c5565b8152602081018590526040810184905260600160029052815460018181018455600093845260209384902083516006909302019182559282015181840155604082015160028201805493949293919290917fffffffffffffffffffffffffffffffffffffffffffffffffffffffffffffff0016908381811115610f7d57610f7d6144c5565b021790555060608201516003820190610f9690826150c6565b5060808201516004820190610fab90826150c6565b5060a08201516005820180547fffffffffffffffffffffffffffffffffffffffffffffffffffffffffffffff00166001836002811115610fed57610fed6144c5565b0217905550505050505050565b6110026123b7565b73ffffffffffffffffffffffffffffffffffffffff811661107f576040517f08c379a000000000000000000000000000000000000000000000000000000000815260206004820152601b60248201527f496e76616c6964204d5553444320746f6b656e2061646472657373000000000060448201526064016104f5565b600480547fffffffffffffffffffffffff00000000000000000000000000000000000000001673ffffffffffffffffffffffffffffffffffffffff92909216919091179055565b6110ce6123b7565b6110d86000612473565b565b8051825114611145576040517f08c379a000000000000000000000000000000000000000000000000000000000815260206004820152601860248201527f4172726179206c656e67746873206d757374206d61746368000000000000000060448201526064016104f5565b600083116111d5576040517f08c379a000000000000000000000000000000000000000000000000000000000815260206004820152602860248201527f436f6c6c61746572616c20616d6f756e74206d7573742062652067726561746560448201527f72207468616e203000000000000000000000000000000000000000000000000060648201526084016104f5565b6004546111fa9073ffffffffffffffffffffffffffffffffffffffff163330866124ea565b6007805460408051610120810190915290919080876001811115611220576112206144c5565b81526020018681526020016000815260200160006007811115611245576112456144c5565b815260200160008152602001604051806020016040528060008152508152602001858152602001848152602001600067ffffffffffffffff81111561128c5761128c61481c565b6040519080825280602002602001820160405280156112b5578160200160208202803683370190505b50905281546001818101845560009384526020909320825160089092020180549293909283917fffffffffffffffffffffffffffffffffffffffffffffffffffffffffffffff00909116908381811115611311576113116144c5565b0217905550602082015181600101556040820151816002015560608201518160030160006101000a81548160ff02191690836007811115611354576113546144c5565b021790555060808201516003820180547fffffffffffffffffffffffffffffffffffffffffffffffffffffffffffff00ff1661010083600481111561139b5761139b6144c5565b021790555060a082015160048201906113b490826150c6565b5060c082015180516113d091600584019160209091019061429f565b5060e082015180516113ec91600684019160209091019061429f565b50610100820151805161140991600784019160209091019061429f565b505050600081815260086020526040812080547fffffffffffffffffffffffff0000000000000000000000000000000000000000163317905560058054869290611454908490614ff0565b9091555050336000908152600960209081526040808320805460018101825590845291909220018290555181907f9fb6826dd39ef8ac6b7906fe4c38f1fab9247f82abea744a0bbcd71dd24f6ebb906114b2908790879087906151df565b60405180910390a25050505050565b6114c96123b7565b600782815481106114dc576114dc614fc1565b600091825260208083208451600760089485029092018201805460018181018355918752848720019190915585518552600c8352604094859020865181559286015183820155938501516002830155606085015160038301556080850151600483015560a0850151600583015560c0850151600683015560e085015182820155610100850151928201929092556101208401516009820155610140840151600a820155610160840151600b8201805486959394929391927fffffffffffffffffffffffffffffffffffffffffffffffffffffffffffffff00909116919084908111156115ca576115ca6144c5565b0217905550610180820151600c8201906115e490826150c6565b5050505050565b60606116356040518060a0016040528060608152602001600073ffffffffffffffffffffffffffffffffffffffff1681526020016000815260200160608152602001606081525090565b60006116408561254e565b868660405160200161165493929190615214565b604080517fffffffffffffffffffffffffffffffffffffffffffffffffffffffffffffffe0818403018152828252805160208083019190912060008086528583018086529190915260ff89850135169385019390935287356060850152870135608084015292509060019060a0016020604051602081039080840390855afa1580156116e4573d6000803e3d6000fd5b50506040517fffffffffffffffffffffffffffffffffffffffffffffffffffffffffffffffe0015173ffffffffffffffffffffffffffffffffffffffff81166020860152915060009050611738888861260d565b9050468160a0015114611777576040517f362c833700000000000000000000000000000000000000000000000000000000815260040160405180910390fd5b60016040516117869190615268565b6040518091039020816000015180519060200120146117d1576040517f283d62bd00000000000000000000000000000000000000000000000000000000815260040160405180910390fd5b80518452602081015173ffffffffffffffffffffffffffffffffffffffff83811691161461182b576040517f05cc02e100000000000000000000000000000000000000000000000000000000815260040160405180910390fd5b610120810151511580159061184d5750611849816101200151612cbf565b4211155b15611884576040517f299d02f100000000000000000000000000000000000000000000000000000000815260040160405180910390fd5b61010081015151156118ab5760006118a0826101000151612cbf565b6040860152506118be565b6118b86201518042614ff0565b60408501525b836040015142106118fb576040517fb171155000000000000000000000000000000000000000000000000000000000815260040160405180910390fd5b604081015160608501526101608101515167ffffffffffffffff8111156119245761192461481c565b60405190808252806020026020018201604052801561195757816020015b60608152602001906001900390816119425790505b50608085015260005b816101600151518110156119b657816101600151818151811061198557611985614fc1565b6020026020010151856080015182815181106119a3576119a3614fc1565b6020908102919091010152600101611960565b506000611a106002546000801b876040516020016119d491906152f7565b604080517fffffffffffffffffffffffffffffffffffffffffffffffffffffffffffffffe0818403018152602083019091526000825290612d2e565b9998505050505050505050565b600c60205280600052604060002060009150905080600001549080600101549080600201549080600301549080600401549080600501549080600601549080600701549080600801549080600901549080600a01549080600b0160009054906101000a900460ff169080600c018054611a9590615032565b80601f0160208091040260200160405190810160405280929190818152602001828054611ac190615032565b8015611b0e5780601f10611ae357610100808354040283529160200191611b0e565b820191906000526020600020905b815481529060010190602001808311611af157829003601f168201915b505050505090508d565b600080611b2483612e65565b73ffffffffffffffffffffffffffffffffffffffff166000908152600b60205260409020549392505050565b600033611bb9576040517f08c379a000000000000000000000000000000000000000000000000000000000815260206004820152601760248201527f41757468656e7469636174696f6e20726571756972656400000000000000000060448201526064016104f5565b50336000908152600b602052604090205490565b606033611c36576040517f08c379a000000000000000000000000000000000000000000000000000000000815260206004820152601760248201527f41757468656e7469636174696f6e20726571756972656400000000000000000060448201526064016104f5565b3360009081526009602090815260409182902080548351818402810184019094528084529091830182828015611c8b57602002820191906000526020600020905b815481526020019060010190808311611c77575b5050505050905090565b606060018054611ca490615032565b80601f0160208091040260200160405190810160405280929190818152602001828054611cd090615032565b8015611c8b5780601f10611cf257610100808354040283529160200191611c8b565b820191906000526020600020905b815481529060010190602001808311611d0057509395945050505050565b60606000611d2b83612e65565b73ffffffffffffffffffffffffffffffffffffffff81166000908152600a60209081526040918290208054835181840281018401909452808452939450919290830182828015611d9a57602002820191906000526020600020905b815481526020019060010190808311611d86575b5050505050915050919050565b606033611e10576040517f08c379a000000000000000000000000000000000000000000000000000000000815260206004820152601760248201527f41757468656e7469636174696f6e20726571756972656400000000000000000060448201526064016104f5565b336000908152600a602090815260409182902080548351818402810184019094528084529091830182828015611c8b5760200282019190600052602060002090815481526020019060010190808311611c77575050505050905090565b60606000611e7a83612e65565b73ffffffffffffffffffffffffffffffffffffffff81166000908152600960209081526040918290208054835181840281018401909452808452939450919290830182828015611d9a5760200282019190600052602060002090815481526020019060010190808311611d86575050505050915050919050565b611efc6142ea565b600c6000838152602001908152602001600020604051806101a001604052908160008201548152602001600182015481526020016002820154815260200160038201548152602001600482015481526020016005820154815260200160068201548152602001600782015481526020016008820154815260200160098201548152602001600a8201548152602001600b820160009054906101000a900460ff166007811115611fad57611fad6144c5565b6007811115611fbe57611fbe6144c5565b8152602001600c82018054611fd290615032565b80601f0160208091040260200160405190810160405280929190818152602001828054611ffe90615032565b8015610d6d5780601f1061202057610100808354040283529160200191610d6d565b820191906000526020600020905b81548152906001019060200180831161202e57505050919092525091949350505050565b61205a6123b7565b73ffffffffffffffffffffffffffffffffffffffff81166120fd576040517f08c379a000000000000000000000000000000000000000000000000000000000815260206004820152602660248201527f4f776e61626c653a206e6577206f776e657220697320746865207a65726f206160448201527f646472657373000000000000000000000000000000000000000000000000000060648201526084016104f5565b6105bf81612473565b61210e614366565b6006828154811061212157612121614fc1565b90600052602060002090600602016040518060c001604052908160008201548152602001600182015481526020016002820160009054906101000a900460ff166001811115612172576121726144c5565b6001811115612183576121836144c5565b815260200160038201805461219790615032565b80601f01602080910402602001604051908101604052809291908181526020018280546121c390615032565b80156122105780601f106121e557610100808354040283529160200191612210565b820191906000526020600020905b8154815290600101906020018083116121f357829003601f168201915b5050505050815260200160048201805461222990615032565b80601f016020809104026020016040519081016040528092919081815260200182805461225590615032565b80156122a25780601f10612277576101008083540402835291602001916122a2565b820191906000526020600020905b81548152906001019060200180831161228557829003601f168201915b5050509183525050600582015460209091019060ff1660028111156122c9576122c96144c5565b60028111156122da576122da6144c5565b90525092915050565b60405173ffffffffffffffffffffffffffffffffffffffff83166024820152604481018290526108949084907fa9059cbb00000000000000000000000000000000000000000000000000000000906064015b604080517fffffffffffffffffffffffffffffffffffffffffffffffffffffffffffffffe08184030181529190526020810180517bffffffffffffffffffffffffffffffffffffffffffffffffffffffff167fffffffff0000000000000000000000000000000000000000000000000000000090931692909217909152612ee5565b60035473ffffffffffffffffffffffffffffffffffffffff1633146110d8576040517f08c379a000000000000000000000000000000000000000000000000000000000815260206004820181905260248201527f4f776e61626c653a2063616c6c6572206973206e6f7420746865206f776e657260448201526064016104f5565b60008082600781111561244d5761244d6144c5565b1415801561246d5750600182600781111561246a5761246a6144c5565b14155b92915050565b6003805473ffffffffffffffffffffffffffffffffffffffff8381167fffffffffffffffffffffffff0000000000000000000000000000000000000000831681179093556040519116919082907f8be0079c531659141344cd1fd0a4f28419497f9722a3daafe3b4186f6b6457e090600090a35050565b60405173ffffffffffffffffffffffffffffffffffffffff808516602483015283166044820152606481018290526125489085907f23b872dd0000000000000000000000000000000000000000000000000000000090608401612335565b50505050565b6060600061255b83612ff4565b600101905060008167ffffffffffffffff81111561257b5761257b61481c565b6040519080825280601f01601f1916602001820160405280156125a5576020820181803683370190505b5090508181016020015b7fffffffffffffffffffffffffffffffffffffffffffffffffffffffffffffffff017f3031323334353637383961626364656600000000000000000000000000000000600a86061a8153600a85049450846125af575b509392505050565b61268760405180610180016040528060608152602001600073ffffffffffffffffffffffffffffffffffffffff168152602001606081526020016060815260200160608152602001600081526020016060815260200160608152602001606081526020016060815260200160608152602001606081525090565b61270160405180610180016040528060608152602001600073ffffffffffffffffffffffffffffffffffffffff168152602001606081526020016060815260200160608152602001600081526020016060815260200160608152602001606081526020016060815260200160608152602001606081525090565b60005b838110156127bc5784848281811061271e5761271e614fc1565b909101357fff00000000000000000000000000000000000000000000000000000000000000167f20000000000000000000000000000000000000000000000000000000000000000390506127b4576127ad85858080601f016020809104026020016040519081016040528093929190818152602001838380828437600092018290525092508591506130d69050565b82526127bc565b600101612704565b6127c7603282614ff0565b905061282e61282986868080601f016020809104026020016040519081016040528093929190818152602001838380828437600092019190915250612813925060029150869050614ff0565b935083612821602882614ff0565b9450846130d6565b6131dd565b73ffffffffffffffffffffffffffffffffffffffff166020830152612854600282614ff0565b905083811080156128c2575084848281811061287257612872614fc1565b9050013560f81c60f81b7effffffffffffffffffffffffffffffffffffffffffffffffffffffffffffff19167f0a0000000000000000000000000000000000000000000000000000000000000014155b1561299557805b84811015612993578585828181106128e3576128e3614fc1565b909101357fff00000000000000000000000000000000000000000000000000000000000000167f0a0000000000000000000000000000000000000000000000000000000000000003905061298b5761297486868080601f0160208091040260200160405190810160405280939291908181526020018383808284376000920191909152508692508591506130d69050565b6040840152612984816001614ff0565b9150612993565b6001016128c9565b505b8061299f81615452565b9150506129e385856040518060400160405280600381526020017f555249000000000000000000000000000000000000000000000000000000000081525084613342565b836060018193508290525050612a3085856040518060400160405280600781526020017f56657273696f6e0000000000000000000000000000000000000000000000000081525084613342565b8360800181935082905250506060612a7f86866040518060400160405280600881526020017f436861696e20494400000000000000000000000000000000000000000000000081525085613342565b92509050612a8c816135de565b60a084015260408051808201909152600581527f4e6f6e63650000000000000000000000000000000000000000000000000000006020820152612ad3908790879085613342565b60c08501829052905190925060081115612b19576040517fb4bc030c00000000000000000000000000000000000000000000000000000000815260040160405180910390fd5b612b5a86866040518060400160405280600981526020017f497373756564204174000000000000000000000000000000000000000000000081525085613342565b8460e0018194508290525050612ba786866040518060400160405280600f81526020017f45787069726174696f6e2054696d65000000000000000000000000000000000081525085613342565b84610100018194508290525050612bf586866040518060400160405280600a81526020017f4e6f74204265666f72650000000000000000000000000000000000000000000081525085613342565b84610120018194508290525050612c4386866040518060400160405280600a81526020017f526571756573742049440000000000000000000000000000000000000000000081525085613342565b846101400181945082905250506000612c9387876040518060400160405280600981526020017f5265736f7572636573000000000000000000000000000000000000000000000081525086613342565b915050828114612cb457612ca8878783613638565b61016086019190915292505b509195945050505050565b600061246d612cd9612cd484600060046130d6565b6135de565b612ce9612cd485600560076130d6565b612cf9612cd4866008600a6130d6565b612d09612cd487600b600d6130d6565b612d19612cd488600e60106130d6565b612d29612cd489601160136130d6565b613a29565b606060008073010000000000000000000000000000000000000373ffffffffffffffffffffffffffffffffffffffff1687878787604051602001612d75949392919061548a565b604080517fffffffffffffffffffffffffffffffffffffffffffffffffffffffffffffffe081840301815290829052612dad916154bb565b600060405180830381855afa9150503d8060008114612de8576040519150601f19603f3d011682016040523d82523d6000602084013e612ded565b606091505b509150915081612e59576040517f08c379a000000000000000000000000000000000000000000000000000000000815260206004820152600f60248201527f656e63727970743a206661696c6564000000000000000000000000000000000060448201526064016104f5565b9150505b949350505050565b80516020808301919091206000908152908190526040812054829060ff1615612eba576040517f9ea6784800000000000000000000000000000000000000000000000000000000815260040160405180910390fd5b8251600003612ecc5760009150612edf565b6000612ed784613bcf565b602001519250505b50919050565b6000612f47826040518060400160405280602081526020017f5361666545524332303a206c6f772d6c6576656c2063616c6c206661696c65648152508573ffffffffffffffffffffffffffffffffffffffff16613cf29092919063ffffffff16565b9050805160001480612f68575080806020019051810190612f6891906154d7565b610894576040517f08c379a000000000000000000000000000000000000000000000000000000000815260206004820152602a60248201527f5361666545524332303a204552433230206f7065726174696f6e20646964206e60448201527f6f7420737563636565640000000000000000000000000000000000000000000060648201526084016104f5565b6000807a184f03e93ff9f4daa797ed6e38ed64bf6a1f010000000000000000831061303d577a184f03e93ff9f4daa797ed6e38ed64bf6a1f010000000000000000830492506040015b6d04ee2d6d415b85acef81000000008310613069576d04ee2d6d415b85acef8100000000830492506020015b662386f26fc10000831061308757662386f26fc10000830492506010015b6305f5e100831061309f576305f5e100830492506008015b61271083106130b357612710830492506004015b606483106130c5576064830492506002015b600a831061246d5760010192915050565b606060006130e48484614fae565b67ffffffffffffffff8111156130fc576130fc61481c565b6040519080825280601f01601f191660200182016040528015613126576020820181803683370190505b509050835b838110801561313a5750855181105b156131d45785818151811061315157613151614fc1565b01602001517fff0000000000000000000000000000000000000000000000000000000000000016826131838784614fae565b8151811061319357613193614fc1565b60200101907effffffffffffffffffffffffffffffffffffffffffffffffffffffffffffff1916908160001a905350806131cc81615452565b91505061312b565b50949350505050565b6000815160281461321a576040517facf8696900000000000000000000000000000000000000000000000000000000815260040160405180910390fd5b60006002835161322a91906154f4565b67ffffffffffffffff8111156132425761324261481c565b6040519080825280601f01601f19166020018201604052801561326c576020820181803683370190505b50905060005b6002845161328091906154f4565b81101561332e576132be84613296836002615508565b6132a1906001614ff0565b815181106132b1576132b1614fc1565b016020015160f81c613d01565b6132cd856132a1846002615508565b6132d890601061551f565b6132e2919061553b565b60f81b8282815181106132f7576132f7614fc1565b60200101907effffffffffffffffffffffffffffffffffffffffffffffffffffffffffffff1916908160001a905350600101613272565b5061333881615554565b60601c9392505050565b60606000825b858110156134c55786868281811061336257613362614fc1565b909101357fff00000000000000000000000000000000000000000000000000000000000000167f3a000000000000000000000000000000000000000000000000000000000000000390506134b35784805190602001206133fb88888080601f0160208091040260200160405190810160405280939291908181526020018383808284376000920191909152508992508691506130d69050565b80519060200120146134205750506040805160208101909152600081529050816135d5565b8061342a81615452565b9150508581108015613498575086868281811061344957613449614fc1565b9050013560f81c60f81b7effffffffffffffffffffffffffffffffffffffffffffffffffffffffffffff19167f2000000000000000000000000000000000000000000000000000000000000000145b156134ab57806134a781615452565b9150505b8093506134c5565b806134bd81615452565b915050613348565b8581101561358d578686828181106134df576134df614fc1565b909101357fff00000000000000000000000000000000000000000000000000000000000000167f0a000000000000000000000000000000000000000000000000000000000000000390506135855761357087878080601f0160208091040260200160405190810160405280939291908181526020018383808284376000920191909152508892508591506130d69050565b61357b826001614ff0565b92509250506135d5565b6001016134c5565b6135d087878080601f0160208091040260200160405190810160405280939291908181526020018383808284376000920191909152508892508591506130d69050565b925090505b94509492505050565b600080805b835181101561363157603084828151811061360057613600614fc1565b0160200151613612919060f81c614fae565b61361d83600a615508565b6136279190614ff0565b91506001016135e3565b5092915050565b6060600082815b61364a600187614fae565b8210156137c55786868381811061366357613663614fc1565b9050013560f81c60f81b7effffffffffffffffffffffffffffffffffffffffffffffffffffffffffffff19167f2d00000000000000000000000000000000000000000000000000000000000000148015613723575086866136c5846001614ff0565b8181106136d4576136d4614fc1565b9050013560f81c60f81b7effffffffffffffffffffffffffffffffffffffffffffffffffffffffffffff19167f2000000000000000000000000000000000000000000000000000000000000000145b1561374757613733600283614ff0565b91508061373f81615452565b91505061374c565b6137c5565b858210801561379c575086868381811061376857613768614fc1565b9050013560f81c60f81b7effffffffffffffffffffffffffffffffffffffffffffffffffffffffffffff1916600a60f81b14155b156137b357816137ab81615452565b92505061374c565b816137bd81615452565b92505061363f565b60008167ffffffffffffffff8111156137e0576137e061481c565b60405190808252806020026020018201604052801561381357816020015b60608152602001906001900390816137fe5790505b50905085925060005b613827600189614fae565b841080156138355750828114155b15613a1b5788888581811061384c5761384c614fc1565b9050013560f81c60f81b7effffffffffffffffffffffffffffffffffffffffffffffffffffffffffffff19167f2d0000000000000000000000000000000000000000000000000000000000000014801561390c575088886138ae866001614ff0565b8181106138bd576138bd614fc1565b9050013560f81c60f81b7effffffffffffffffffffffffffffffffffffffffffffffffffffffffffffff19167f2000000000000000000000000000000000000000000000000000000000000000145b1561391f5761391c846002614ff0565b96505b878410801561396f575088888581811061393b5761393b614fc1565b9050013560f81c60f81b7effffffffffffffffffffffffffffffffffffffffffffffffffffffffffffff1916600a60f81b14155b15613986578361397e81615452565b94505061391f565b6139c989898080601f0160208091040260200160405190810160405280939291908181526020018383808284376000920191909152508b92508891506130d69050565b8282815181106139db576139db614fc1565b602002602001018190525080806139f190615452565b915050878403613a095783613a05816155c0565b9450505b83613a1381615452565b94505061381c565b509791965090945050505050565b60006107b25b8761ffff168161ffff161015613a7b57613a4881613f1d565b15613a6257613a5b6301e2850083614ff0565b9150613a73565b613a706301e1338083614ff0565b91505b600101613a2f565b613a836143ac565b601f8152613a9089613f1d565b15613aa157601d6020820152613aa9565b601c60208201525b601f60408201819052601e606083018190526080830182905260a0830181905260c0830182905260e0830182905261010083018190526101208301829052610140830152610160820152600191505b8760ff168261ffff161015613b565780613b136001846155f5565b61ffff16600c8110613b2757613b27614fc1565b6020020151613b39906201518061560f565b613b499063ffffffff1684614ff0565b9250600190910190613af8565b613b6160018861562e565b613b719060ff166201518061560f565b613b819063ffffffff1684614ff0565b9250613b9260ff8716610e1061560f565b613ba29063ffffffff1684614ff0565b9250613bb260ff8616603c615647565b613bc09061ffff1684614ff0565b9250611a1060ff851684614ff0565b613c176040518060a0016040528060608152602001600073ffffffffffffffffffffffffffffffffffffffff1681526020016000815260200160608152602001606081525090565b6000613c396002546000801b8560405180602001604052806000815250613f7c565b9050600081806020019051810190613c519190615737565b90506001604051613c629190615268565b604051809103902081600001518051906020012014613cad576040517f283d62bd00000000000000000000000000000000000000000000000000000000815260040160405180910390fd5b4281604001511015613ceb576040517fb171155000000000000000000000000000000000000000000000000000000000815260040160405180910390fd5b9392505050565b6060612e5d84846000856140a7565b60007f300000000000000000000000000000000000000000000000000000000000000060f883901b7fff000000000000000000000000000000000000000000000000000000000000001610801590613d9f57507f390000000000000000000000000000000000000000000000000000000000000060f883901b7fff000000000000000000000000000000000000000000000000000000000000001611155b15613daf5761246d60308361562e565b7f610000000000000000000000000000000000000000000000000000000000000060f883901b7fff000000000000000000000000000000000000000000000000000000000000001610801590613e4b57507f660000000000000000000000000000000000000000000000000000000000000060f883901b7fff000000000000000000000000000000000000000000000000000000000000001611155b15613e67576061613e5d83600a61553b565b61246d919061562e565b7f410000000000000000000000000000000000000000000000000000000000000060f883901b7fff000000000000000000000000000000000000000000000000000000000000001610801590613f0357507f460000000000000000000000000000000000000000000000000000000000000060f883901b7fff000000000000000000000000000000000000000000000000000000000000001611155b15613f15576041613e5d83600a61553b565b506000919050565b6000613f2a60048361581b565b61ffff1615613f3b57506000919050565b613f4660648361581b565b61ffff1615613f5757506001919050565b613f636101908361581b565b61ffff1615613f7457506000919050565b506001919050565b606060008073010000000000000000000000000000000000000473ffffffffffffffffffffffffffffffffffffffff1687878787604051602001613fc3949392919061548a565b604080517fffffffffffffffffffffffffffffffffffffffffffffffffffffffffffffffe081840301815290829052613ffb916154bb565b600060405180830381855afa9150503d8060008114614036576040519150601f19603f3d011682016040523d82523d6000602084013e61403b565b606091505b509150915081612e59576040517f08c379a000000000000000000000000000000000000000000000000000000000815260206004820152600f60248201527f646563727970743a206661696c6564000000000000000000000000000000000060448201526064016104f5565b606082471015614139576040517f08c379a000000000000000000000000000000000000000000000000000000000815260206004820152602660248201527f416464726573733a20696e73756666696369656e742062616c616e636520666f60448201527f722063616c6c000000000000000000000000000000000000000000000000000060648201526084016104f5565b6000808673ffffffffffffffffffffffffffffffffffffffff16858760405161416291906154bb565b60006040518083038185875af1925050503d806000811461419f576040519150601f19603f3d011682016040523d82523d6000602084013e6141a4565b606091505b50915091506141b5878383876141c0565b979650505050505050565b6060831561425657825160000361424f5773ffffffffffffffffffffffffffffffffffffffff85163b61424f576040517f08c379a000000000000000000000000000000000000000000000000000000000815260206004820152601d60248201527f416464726573733a2063616c6c20746f206e6f6e2d636f6e747261637400000060448201526064016104f5565b5081612e5d565b612e5d838381511561426b5781518083602001fd5b806040517f08c379a00000000000000000000000000000000000000000000000000000000081526004016104f59190614cfb565b8280548282559060005260206000209081019282156142da579160200282015b828111156142da5782518255916020019190600101906142bf565b506142e69291506143cb565b5090565b604051806101a00160405280600080191681526020016000815260200160008152602001600081526020016000815260200160008152602001600081526020016000815260200160008152602001600081526020016000815260200160006007811115614359576143596144c5565b8152602001606081525090565b6040518060c00160405280600081526020016000815260200160006001811115614392576143926144c5565b815260606020820181905260408201819052016000905290565b604051806101800160405280600c906020820280368337509192915050565b5b808211156142e657600081556001016143cc565b6000602082840312156143f257600080fd5b5035919050565b80356008811061440857600080fd5b919050565b60008060006060848603121561442257600080fd5b83359250614432602085016143f9565b929592945050506040919091013590565b73ffffffffffffffffffffffffffffffffffffffff811681146105bf57600080fd5b6000806040838503121561447857600080fd5b823561448381614443565b946020939093013593505050565b600080604083850312156144a457600080fd5b823591506020830135600581106144ba57600080fd5b809150509250929050565b7f4e487b7100000000000000000000000000000000000000000000000000000000600052602160045260246000fd5b600281106105bf576105bf6144c5565b60005b8381101561451f578181015183820152602001614507565b50506000910152565b60008151808452614540816020860160208601614504565b601f017fffffffffffffffffffffffffffffffffffffffffffffffffffffffffffffffe0169290920160200192915050565b60038110614582576145826144c5565b9052565b868152856020820152614598856144f4565b84604082015260c0606082015260006145b460c0830186614528565b82810360808401526145c68186614528565b9150506141b560a0830184614572565b614582816144f4565b60088110614582576145826144c5565b60058110614582576145826144c5565b600081518084526020840193506020830160005b82811015614631578151865260209586019590910190600101614613565b5093949350505050565b6020815261464d6020820183516145d6565b60208201516040820152604082015160608201526000606083015161467560808401826145df565b50608083015161468860a08401826145ef565b5060a083015161012060c08401526146a4610140840182614528565b905060c08401517fffffffffffffffffffffffffffffffffffffffffffffffffffffffffffffffe08483030160e08501526146df82826145ff565b91505060e08401517fffffffffffffffffffffffffffffffffffffffffffffffffffffffffffffffe08483030161010085015261471c82826145ff565b9150506101008401517fffffffffffffffffffffffffffffffffffffffffffffffffffffffffffffffe08483030161012085015261475a82826145ff565b95945050505050565b61476c876144f4565b86815285602082015284604082015261478860608201856145df565b61479560808201846145ef565b60c060a082015260006147ab60c0830184614528565b98975050505050505050565b600281106105bf57600080fd5b80151581146105bf57600080fd5b600080600080608085870312156147e857600080fd5b84356147f3816147b7565b935060208501359250604085013591506060850135614811816147c4565b939692955090935050565b7f4e487b7100000000000000000000000000000000000000000000000000000000600052604160045260246000fd5b6040516101a0810167ffffffffffffffff8111828210171561486f5761486f61481c565b60405290565b60405160a0810167ffffffffffffffff8111828210171561486f5761486f61481c565b604051601f82017fffffffffffffffffffffffffffffffffffffffffffffffffffffffffffffffe016810167ffffffffffffffff811182821017156148df576148df61481c565b604052919050565b600067ffffffffffffffff8211156149015761490161481c565b50601f017fffffffffffffffffffffffffffffffffffffffffffffffffffffffffffffffe01660200190565b600061494061493b846148e7565b614898565b905082815283838301111561495457600080fd5b828260208301376000602084830101529392505050565b600082601f83011261497c57600080fd5b613ceb8383356020850161492d565b600080600080608085870312156149a157600080fd5b843567ffffffffffffffff811681146149b957600080fd5b935060208501356149c9816147b7565b9250604085013567ffffffffffffffff8111156149e557600080fd5b6149f18782880161496b565b925050606085013567ffffffffffffffff811115614a0e57600080fd5b614a1a8782880161496b565b91505092959194509250565b600060208284031215614a3857600080fd5b8135613ceb81614443565b600067ffffffffffffffff821115614a5d57614a5d61481c565b5060051b60200190565b600082601f830112614a7857600080fd5b8135614a8661493b82614a43565b8082825260208201915060208360051b860101925085831115614aa857600080fd5b602085015b83811015614ac5578035835260209283019201614aad565b5095945050505050565b60008060008060808587031215614ae557600080fd5b8435614af0816147b7565b935060208501359250604085013567ffffffffffffffff811115614b1357600080fd5b614b1f87828801614a67565b925050606085013567ffffffffffffffff811115614b3c57600080fd5b614a1a87828801614a67565b60008060408385031215614b5b57600080fd5b82359150602083013567ffffffffffffffff811115614b7957600080fd5b83016101a08186031215614b8c57600080fd5b614b9461484b565b813581526020808301359082015260408083013590820152606080830135908201526080808301359082015260a0808301359082015260c0808301359082015260e08083013590820152610100808301359082015261012080830135908201526101408083013590820152614c0c61016083016143f9565b61016082015261018082013567ffffffffffffffff811115614c2d57600080fd5b614c398782850161496b565b6101808301525080925050509250929050565b60008060008385036080811215614c6257600080fd5b843567ffffffffffffffff811115614c7957600080fd5b8501601f81018713614c8a57600080fd5b803567ffffffffffffffff811115614ca157600080fd5b876020828401011115614cb357600080fd5b6020919091019450925060607fffffffffffffffffffffffffffffffffffffffffffffffffffffffffffffffe082011215614ced57600080fd5b506020840190509250925092565b602081526000613ceb6020830184614528565b600080600060608486031215614d2357600080fd5b505081359360208301359350604090920135919050565b8d81528c60208201528b60408201528a60608201528960808201528860a08201528760c08201528660e0820152856101008201528461012082015283610140820152614d8a6101608201846145df565b6101a06101808201526000614da36101a0830184614528565b9f9e505050505050505050505050505050565b600060208284031215614dc857600080fd5b813567ffffffffffffffff811115614ddf57600080fd5b8201601f81018413614df057600080fd5b612e5d8482356020840161492d565b602080825282518282018190526000918401906040840190835b81811015614e37578351835260209384019390920191600101614e19565b509095945050505050565b6020815281516020820152602082015160408201526040820151606082015260608201516080820152608082015160a082015260a082015160c082015260c082015160e082015260e08201516101008201526101008201516101208201526101208201516101408201526101408201516101608201526000610160830151614ece6101808401826145df565b506101808301516101a080840152612e5d6101c0840182614528565b60208152815160208201526020820151604082015260006040830151614f0f816144f4565b80606084015250606083015160c06080840152614f2f60e0840182614528565b905060808401517fffffffffffffffffffffffffffffffffffffffffffffffffffffffffffffffe08483030160a0850152614f6a8282614528565b91505060a084015161260560c0850182614572565b7f4e487b7100000000000000000000000000000000000000000000000000000000600052601160045260246000fd5b8181038181111561246d5761246d614f7f565b7f4e487b7100000000000000000000000000000000000000000000000000000000600052603260045260246000fd5b8082018082111561246d5761246d614f7f565b7f4e487b7100000000000000000000000000000000000000000000000000000000600052603160045260246000fd5b600181811c9082168061504657607f821691505b602082108103612edf577f4e487b7100000000000000000000000000000000000000000000000000000000600052602260045260246000fd5b601f82111561089457806000526020600020601f840160051c810160208510156150a65750805b601f840160051c820191505b818110156115e457600081556001016150b2565b815167ffffffffffffffff8111156150e0576150e061481c565b6150f4816150ee8454615032565b8461507f565b6020601f82116001811461514657600083156151105750848201515b7fffffffffffffffffffffffffffffffffffffffffffffffffffffffffffffffff600385901b1c1916600184901b1784556115e4565b6000848152602081207fffffffffffffffffffffffffffffffffffffffffffffffffffffffffffffffe08516915b828110156151945787850151825560209485019460019092019101615174565b50848210156151d057868401517fffffffffffffffffffffffffffffffffffffffffffffffffffffffffffffffff600387901b60f8161c191681555b50505050600190811b01905550565b8381526060602082015260006151f860608301856145ff565b828103604084015261520a81856145ff565b9695505050505050565b7f19457468657265756d205369676e6564204d6573736167653a0a00000000000081526000845161524c81601a850160208901614504565b82018385601a83013760009301601a0192835250909392505050565b600080835461527681615032565b60018216801561528d57600181146152c057612cb4565b7fffffffffffffffffffffffffffffffffffffffffffffffffffffffffffffff0083168652811515820286019350612cb4565b86600052602060002060005b838110156152e8578154888201526001909101906020016152cc565b50505093909301949350505050565b602081526000825160a0602084015261531360c0840182614528565b905073ffffffffffffffffffffffffffffffffffffffff60208501511660408401526040840151606084015260608401517fffffffffffffffffffffffffffffffffffffffffffffffffffffffffffffffe08483030160808501526153788282614528565b91505060808401517fffffffffffffffffffffffffffffffffffffffffffffffffffffffffffffffe08483030160a085015281815180845260208401915060208160051b85010160208401935060005b82811015615417577fffffffffffffffffffffffffffffffffffffffffffffffffffffffffffffffe0868303018452615402828651614528565b602095860195949094019391506001016153c8565b50979650505050505050565b7f4e487b7100000000000000000000000000000000000000000000000000000000600052601260045260246000fd5b60007fffffffffffffffffffffffffffffffffffffffffffffffffffffffffffffffff820361548357615483614f7f565b5060010190565b8481528360208201526080604082015260006154a96080830185614528565b82810360608401526141b58185614528565b600082516154cd818460208701614504565b9190910192915050565b6000602082840312156154e957600080fd5b8151613ceb816147c4565b60008261550357615503615423565b500490565b808202811582820484141761246d5761246d614f7f565b60ff818116838216029081169081811461363157613631614f7f565b60ff818116838216019081111561246d5761246d614f7f565b805160208201517fffffffffffffffffffffffffffffffffffffffff0000000000000000000000008116919060148210156155b9577fffffffffffffffffffffffffffffffffffffffff000000000000000000000000808360140360031b1b82161692505b5050919050565b6000816155cf576155cf614f7f565b507fffffffffffffffffffffffffffffffffffffffffffffffffffffffffffffffff0190565b61ffff828116828216039081111561246d5761246d614f7f565b63ffffffff818116838216029081169081811461363157613631614f7f565b60ff828116828216039081111561246d5761246d614f7f565b61ffff818116838216029081169081811461363157613631614f7f565b600082601f83011261567557600080fd5b815161568361493b826148e7565b81815284602083860101111561569857600080fd5b612e5d826020830160208701614504565b805161440881614443565b600082601f8301126156c557600080fd5b81516156d361493b82614a43565b8082825260208201915060208360051b8601019250858311156156f557600080fd5b602085015b83811015614ac557805167ffffffffffffffff81111561571957600080fd5b615728886020838a0101615664565b845250602092830192016156fa565b60006020828403121561574957600080fd5b815167ffffffffffffffff81111561576057600080fd5b820160a0818503121561577257600080fd5b61577a614875565b815167ffffffffffffffff81111561579157600080fd5b61579d86828501615664565b8252506157ac602083016156a9565b602082015260408281015190820152606082015167ffffffffffffffff8111156157d557600080fd5b6157e186828501615664565b606083015250608082015167ffffffffffffffff81111561580157600080fd5b61580d868285016156b4565b608083015250949350505050565b600061ffff83168061582f5761582f615423565b8061ffff8416069150509291505056fea264697066735822122039606cb9f9401a5b254ab624096a8a96dd836cc8e17a4d36ccda264bd1996a7a64736f6c634300081c0033",
  "linkReferences": {},
  "deployedLinkReferences": {}
}